{
  "_format": "hh-sol-artifact-1",
  "contractName": "TimelockControllerUpgradeable",
  "sourceName": "contracts/contracts-upgradeable-v3_4/access/TimelockControllerUpgradeable.sol",
  "abi": [
    {
      "anonymous": false,
      "inputs": [
        {
          "indexed": true,
          "internalType": "bytes32",
          "name": "id",
          "type": "bytes32"
        },
        {
          "indexed": true,
          "internalType": "uint256",
          "name": "index",
          "type": "uint256"
        },
        {
          "indexed": false,
          "internalType": "address",
          "name": "target",
          "type": "address"
        },
        {
          "indexed": false,
          "internalType": "uint256",
          "name": "value",
          "type": "uint256"
        },
        {
          "indexed": false,
          "internalType": "bytes",
          "name": "data",
          "type": "bytes"
        }
      ],
      "name": "CallExecuted",
      "type": "event"
    },
    {
      "anonymous": false,
      "inputs": [
        {
          "indexed": true,
          "internalType": "bytes32",
          "name": "id",
          "type": "bytes32"
        },
        {
          "indexed": true,
          "internalType": "uint256",
          "name": "index",
          "type": "uint256"
        },
        {
          "indexed": false,
          "internalType": "address",
          "name": "target",
          "type": "address"
        },
        {
          "indexed": false,
          "internalType": "uint256",
          "name": "value",
          "type": "uint256"
        },
        {
          "indexed": false,
          "internalType": "bytes",
          "name": "data",
          "type": "bytes"
        },
        {
          "indexed": false,
          "internalType": "bytes32",
          "name": "predecessor",
          "type": "bytes32"
        },
        {
          "indexed": false,
          "internalType": "uint256",
          "name": "delay",
          "type": "uint256"
        }
      ],
      "name": "CallScheduled",
      "type": "event"
    },
    {
      "anonymous": false,
      "inputs": [
        {
          "indexed": true,
          "internalType": "bytes32",
          "name": "id",
          "type": "bytes32"
        }
      ],
      "name": "Cancelled",
      "type": "event"
    },
    {
      "anonymous": false,
      "inputs": [
        {
          "indexed": false,
          "internalType": "uint256",
          "name": "oldDuration",
          "type": "uint256"
        },
        {
          "indexed": false,
          "internalType": "uint256",
          "name": "newDuration",
          "type": "uint256"
        }
      ],
      "name": "MinDelayChange",
      "type": "event"
    },
    {
      "anonymous": false,
      "inputs": [
        {
          "indexed": true,
          "internalType": "bytes32",
          "name": "role",
          "type": "bytes32"
        },
        {
          "indexed": true,
          "internalType": "bytes32",
          "name": "previousAdminRole",
          "type": "bytes32"
        },
        {
          "indexed": true,
          "internalType": "bytes32",
          "name": "newAdminRole",
          "type": "bytes32"
        }
      ],
      "name": "RoleAdminChanged",
      "type": "event"
    },
    {
      "anonymous": false,
      "inputs": [
        {
          "indexed": true,
          "internalType": "bytes32",
          "name": "role",
          "type": "bytes32"
        },
        {
          "indexed": true,
          "internalType": "address",
          "name": "account",
          "type": "address"
        },
        {
          "indexed": true,
          "internalType": "address",
          "name": "sender",
          "type": "address"
        }
      ],
      "name": "RoleGranted",
      "type": "event"
    },
    {
      "anonymous": false,
      "inputs": [
        {
          "indexed": true,
          "internalType": "bytes32",
          "name": "role",
          "type": "bytes32"
        },
        {
          "indexed": true,
          "internalType": "address",
          "name": "account",
          "type": "address"
        },
        {
          "indexed": true,
          "internalType": "address",
          "name": "sender",
          "type": "address"
        }
      ],
      "name": "RoleRevoked",
      "type": "event"
    },
    {
      "inputs": [],
      "name": "DEFAULT_ADMIN_ROLE",
      "outputs": [
        {
          "internalType": "bytes32",
          "name": "",
          "type": "bytes32"
        }
      ],
      "stateMutability": "view",
      "type": "function"
    },
    {
      "inputs": [],
      "name": "EXECUTOR_ROLE",
      "outputs": [
        {
          "internalType": "bytes32",
          "name": "",
          "type": "bytes32"
        }
      ],
      "stateMutability": "view",
      "type": "function"
    },
    {
      "inputs": [],
      "name": "PROPOSER_ROLE",
      "outputs": [
        {
          "internalType": "bytes32",
          "name": "",
          "type": "bytes32"
        }
      ],
      "stateMutability": "view",
      "type": "function"
    },
    {
      "inputs": [],
      "name": "TIMELOCK_ADMIN_ROLE",
      "outputs": [
        {
          "internalType": "bytes32",
          "name": "",
          "type": "bytes32"
        }
      ],
      "stateMutability": "view",
      "type": "function"
    },
    {
      "inputs": [
        {
          "internalType": "bytes32",
          "name": "id",
          "type": "bytes32"
        }
      ],
      "name": "cancel",
      "outputs": [],
      "stateMutability": "nonpayable",
      "type": "function"
    },
    {
      "inputs": [
        {
          "internalType": "address",
          "name": "target",
          "type": "address"
        },
        {
          "internalType": "uint256",
          "name": "value",
          "type": "uint256"
        },
        {
          "internalType": "bytes",
          "name": "data",
          "type": "bytes"
        },
        {
          "internalType": "bytes32",
          "name": "predecessor",
          "type": "bytes32"
        },
        {
          "internalType": "bytes32",
          "name": "salt",
          "type": "bytes32"
        }
      ],
      "name": "execute",
      "outputs": [],
      "stateMutability": "payable",
      "type": "function"
    },
    {
      "inputs": [
        {
          "internalType": "address[]",
          "name": "targets",
          "type": "address[]"
        },
        {
          "internalType": "uint256[]",
          "name": "values",
          "type": "uint256[]"
        },
        {
          "internalType": "bytes[]",
          "name": "datas",
          "type": "bytes[]"
        },
        {
          "internalType": "bytes32",
          "name": "predecessor",
          "type": "bytes32"
        },
        {
          "internalType": "bytes32",
          "name": "salt",
          "type": "bytes32"
        }
      ],
      "name": "executeBatch",
      "outputs": [],
      "stateMutability": "payable",
      "type": "function"
    },
    {
      "inputs": [],
      "name": "getMinDelay",
      "outputs": [
        {
          "internalType": "uint256",
          "name": "duration",
          "type": "uint256"
        }
      ],
      "stateMutability": "view",
      "type": "function"
    },
    {
      "inputs": [
        {
          "internalType": "bytes32",
          "name": "role",
          "type": "bytes32"
        }
      ],
      "name": "getRoleAdmin",
      "outputs": [
        {
          "internalType": "bytes32",
          "name": "",
          "type": "bytes32"
        }
      ],
      "stateMutability": "view",
      "type": "function"
    },
    {
      "inputs": [
        {
          "internalType": "bytes32",
          "name": "role",
          "type": "bytes32"
        },
        {
          "internalType": "uint256",
          "name": "index",
          "type": "uint256"
        }
      ],
      "name": "getRoleMember",
      "outputs": [
        {
          "internalType": "address",
          "name": "",
          "type": "address"
        }
      ],
      "stateMutability": "view",
      "type": "function"
    },
    {
      "inputs": [
        {
          "internalType": "bytes32",
          "name": "role",
          "type": "bytes32"
        }
      ],
      "name": "getRoleMemberCount",
      "outputs": [
        {
          "internalType": "uint256",
          "name": "",
          "type": "uint256"
        }
      ],
      "stateMutability": "view",
      "type": "function"
    },
    {
      "inputs": [
        {
          "internalType": "bytes32",
          "name": "id",
          "type": "bytes32"
        }
      ],
      "name": "getTimestamp",
      "outputs": [
        {
          "internalType": "uint256",
          "name": "timestamp",
          "type": "uint256"
        }
      ],
      "stateMutability": "view",
      "type": "function"
    },
    {
      "inputs": [
        {
          "internalType": "bytes32",
          "name": "role",
          "type": "bytes32"
        },
        {
          "internalType": "address",
          "name": "account",
          "type": "address"
        }
      ],
      "name": "grantRole",
      "outputs": [],
      "stateMutability": "nonpayable",
      "type": "function"
    },
    {
      "inputs": [
        {
          "internalType": "bytes32",
          "name": "role",
          "type": "bytes32"
        },
        {
          "internalType": "address",
          "name": "account",
          "type": "address"
        }
      ],
      "name": "hasRole",
      "outputs": [
        {
          "internalType": "bool",
          "name": "",
          "type": "bool"
        }
      ],
      "stateMutability": "view",
      "type": "function"
    },
    {
      "inputs": [
        {
          "internalType": "address",
          "name": "target",
          "type": "address"
        },
        {
          "internalType": "uint256",
          "name": "value",
          "type": "uint256"
        },
        {
          "internalType": "bytes",
          "name": "data",
          "type": "bytes"
        },
        {
          "internalType": "bytes32",
          "name": "predecessor",
          "type": "bytes32"
        },
        {
          "internalType": "bytes32",
          "name": "salt",
          "type": "bytes32"
        }
      ],
      "name": "hashOperation",
      "outputs": [
        {
          "internalType": "bytes32",
          "name": "hash",
          "type": "bytes32"
        }
      ],
      "stateMutability": "pure",
      "type": "function"
    },
    {
      "inputs": [
        {
          "internalType": "address[]",
          "name": "targets",
          "type": "address[]"
        },
        {
          "internalType": "uint256[]",
          "name": "values",
          "type": "uint256[]"
        },
        {
          "internalType": "bytes[]",
          "name": "datas",
          "type": "bytes[]"
        },
        {
          "internalType": "bytes32",
          "name": "predecessor",
          "type": "bytes32"
        },
        {
          "internalType": "bytes32",
          "name": "salt",
          "type": "bytes32"
        }
      ],
      "name": "hashOperationBatch",
      "outputs": [
        {
          "internalType": "bytes32",
          "name": "hash",
          "type": "bytes32"
        }
      ],
      "stateMutability": "pure",
      "type": "function"
    },
    {
      "inputs": [
        {
          "internalType": "bytes32",
          "name": "id",
          "type": "bytes32"
        }
      ],
      "name": "isOperation",
      "outputs": [
        {
          "internalType": "bool",
          "name": "pending",
          "type": "bool"
        }
      ],
      "stateMutability": "view",
      "type": "function"
    },
    {
      "inputs": [
        {
          "internalType": "bytes32",
          "name": "id",
          "type": "bytes32"
        }
      ],
      "name": "isOperationDone",
      "outputs": [
        {
          "internalType": "bool",
          "name": "done",
          "type": "bool"
        }
      ],
      "stateMutability": "view",
      "type": "function"
    },
    {
      "inputs": [
        {
          "internalType": "bytes32",
          "name": "id",
          "type": "bytes32"
        }
      ],
      "name": "isOperationPending",
      "outputs": [
        {
          "internalType": "bool",
          "name": "pending",
          "type": "bool"
        }
      ],
      "stateMutability": "view",
      "type": "function"
    },
    {
      "inputs": [
        {
          "internalType": "bytes32",
          "name": "id",
          "type": "bytes32"
        }
      ],
      "name": "isOperationReady",
      "outputs": [
        {
          "internalType": "bool",
          "name": "ready",
          "type": "bool"
        }
      ],
      "stateMutability": "view",
      "type": "function"
    },
    {
      "inputs": [
        {
          "internalType": "bytes32",
          "name": "role",
          "type": "bytes32"
        },
        {
          "internalType": "address",
          "name": "account",
          "type": "address"
        }
      ],
      "name": "renounceRole",
      "outputs": [],
      "stateMutability": "nonpayable",
      "type": "function"
    },
    {
      "inputs": [
        {
          "internalType": "bytes32",
          "name": "role",
          "type": "bytes32"
        },
        {
          "internalType": "address",
          "name": "account",
          "type": "address"
        }
      ],
      "name": "revokeRole",
      "outputs": [],
      "stateMutability": "nonpayable",
      "type": "function"
    },
    {
      "inputs": [
        {
          "internalType": "address",
          "name": "target",
          "type": "address"
        },
        {
          "internalType": "uint256",
          "name": "value",
          "type": "uint256"
        },
        {
          "internalType": "bytes",
          "name": "data",
          "type": "bytes"
        },
        {
          "internalType": "bytes32",
          "name": "predecessor",
          "type": "bytes32"
        },
        {
          "internalType": "bytes32",
          "name": "salt",
          "type": "bytes32"
        },
        {
          "internalType": "uint256",
          "name": "delay",
          "type": "uint256"
        }
      ],
      "name": "schedule",
      "outputs": [],
      "stateMutability": "nonpayable",
      "type": "function"
    },
    {
      "inputs": [
        {
          "internalType": "address[]",
          "name": "targets",
          "type": "address[]"
        },
        {
          "internalType": "uint256[]",
          "name": "values",
          "type": "uint256[]"
        },
        {
          "internalType": "bytes[]",
          "name": "datas",
          "type": "bytes[]"
        },
        {
          "internalType": "bytes32",
          "name": "predecessor",
          "type": "bytes32"
        },
        {
          "internalType": "bytes32",
          "name": "salt",
          "type": "bytes32"
        },
        {
          "internalType": "uint256",
          "name": "delay",
          "type": "uint256"
        }
      ],
      "name": "scheduleBatch",
      "outputs": [],
      "stateMutability": "nonpayable",
      "type": "function"
    },
    {
      "inputs": [
        {
          "internalType": "uint256",
          "name": "newDelay",
          "type": "uint256"
        }
      ],
      "name": "updateDelay",
      "outputs": [],
      "stateMutability": "nonpayable",
      "type": "function"
    },
    {
      "stateMutability": "payable",
      "type": "receive"
    }
  ],
  "bytecode": "0x608060405234801561001057600080fd5b50611a62806100206000396000f3fe60806040526004361061016a5760003560e01c80638065657f116100d1578063b1c5f4271161008a578063d45c443511610064578063d45c44351461040f578063d547741f1461042f578063e38335e51461044f578063f27a0c921461046257610171565b8063b1c5f427146103af578063c4d252f5146103cf578063ca15c873146103ef57610171565b80638065657f146102f85780638f2a0bb0146103185780638f61f4f5146103385780639010d07c1461034d57806391d148541461037a578063a217fddf1461039a57610171565b80632ab0f529116101235780632ab0f529146102385780632f2ff15d1461025857806331d507501461027857806336568abe14610298578063584b153e146102b857806364d62353146102d857610171565b806301d5062a1461017657806307bd0265146101985780630d3cf6fc146101c3578063134008d3146101d857806313bc9f20146101eb578063248a9ca31461021857610171565b3661017157005b600080fd5b34801561018257600080fd5b50610196610191366004611166565b610477565b005b3480156101a457600080fd5b506101ad610533565b6040516101ba919061158f565b60405180910390f35b3480156101cf57600080fd5b506101ad610557565b6101966101e63660046110fa565b61057b565b3480156101f757600080fd5b5061020b61020636600461132d565b610612565b6040516101ba9190611584565b34801561022457600080fd5b506101ad61023336600461132d565b610637565b34801561024457600080fd5b5061020b61025336600461132d565b61064c565b34801561026457600080fd5b50610196610273366004611345565b610660565b34801561028457600080fd5b5061020b61029336600461132d565b6106a8565b3480156102a457600080fd5b506101966102b3366004611345565b6106bb565b3480156102c457600080fd5b5061020b6102d336600461132d565b6106fd565b3480156102e457600080fd5b506101966102f336600461132d565b61070a565b34801561030457600080fd5b506101ad6103133660046110fa565b610769565b34801561032457600080fd5b5061019661033336600461127f565b6107a8565b34801561034457600080fd5b506101ad6108fe565b34801561035957600080fd5b5061036d610368366004611374565b610910565b6040516101ba919061145a565b34801561038657600080fd5b5061020b610395366004611345565b610931565b3480156103a657600080fd5b506101ad610949565b3480156103bb57600080fd5b506101ad6103ca3660046111da565b61094e565b3480156103db57600080fd5b506101966103ea36600461132d565b610993565b3480156103fb57600080fd5b506101ad61040a36600461132d565b610a3c565b34801561041b57600080fd5b506101ad61042a36600461132d565b610a53565b34801561043b57600080fd5b5061019661044a366004611345565b610a65565b61019661045d3660046111da565b610a9f565b34801561046e57600080fd5b506101ad610bd9565b600080516020611a0d83398151915261049281610395610bdf565b806104a357506104a3816000610931565b6104c85760405162461bcd60e51b81526004016104bf906116b2565b60405180910390fd5b60006104d8898989898989610769565b90506104e48184610be3565b6000817f4cf4410cc57040e44862ef0f45f3dd5a5e02db8eb8add648d4b0e236f1d07dca8b8b8b8b8b8a604051610520969594939291906114a0565b60405180910390a3505050505050505050565b7fd8aa0f3194971a2a116679f7c2090f6939c8d4e01a2a8d7e41d55e5351469e6381565b7f5f58e3a2316349923ce3780f8d587db2d72378aed66a8261c916544fa6846ca581565b7fd8aa0f3194971a2a116679f7c2090f6939c8d4e01a2a8d7e41d55e5351469e636105a881610395610bdf565b806105b957506105b9816000610931565b6105d55760405162461bcd60e51b81526004016104bf906116b2565b60006105e5888888888888610769565b90506105f084610c50565b6105ff8160008a8a8a8a610c80565b61060881610d48565b5050505050505050565b60008061061e83610a53565b90506001811180156106305750428111155b9392505050565b60009081526033602052604090206002015490565b6000600161065983610a53565b1492915050565b60008281526033602052604090206002015461067e90610395610bdf565b61069a5760405162461bcd60e51b81526004016104bf90611620565b6106a48282610d81565b5050565b6000806106b483610a53565b1192915050565b6106c3610bdf565b6001600160a01b0316816001600160a01b0316146106f35760405162461bcd60e51b81526004016104bf90611902565b6106a48282610dea565b600060016106b483610a53565b3330146107295760405162461bcd60e51b81526004016104bf906118b7565b7f11c24f4ead16507c69ac467fbd5e4eed5fb5c699626d2cc6d66421df253886d56066548260405161075c9291906119a4565b60405180910390a1606655565b6000868686868686604051602001610786969594939291906114a0565b6040516020818303038152906040528051906020012090509695505050505050565b600080516020611a0d8339815191526107c381610395610bdf565b806107d457506107d4816000610931565b6107f05760405162461bcd60e51b81526004016104bf906116b2565b88871461080f5760405162461bcd60e51b81526004016104bf9061166f565b88851461082e5760405162461bcd60e51b81526004016104bf9061166f565b60006108408b8b8b8b8b8b8b8b61094e565b905061084c8184610be3565b60005b8a8110156108f05780827f4cf4410cc57040e44862ef0f45f3dd5a5e02db8eb8add648d4b0e236f1d07dca8e8e8581811061088657fe5b905060200201602081019061089b91906110df565b8d8d868181106108a757fe5b905060200201358c8c878181106108ba57fe5b90506020028101906108cc91906119b2565b8c8b6040516108e0969594939291906114a0565b60405180910390a360010161084f565b505050505050505050505050565b600080516020611a0d83398151915281565b60008281526033602052604081206109289083610e53565b90505b92915050565b60008281526033602052604081206109289083610e5f565b600081565b6000888888888888888860405160200161096f9897969594939291906114dd565b60405160208183030381529060405280519060200120905098975050505050505050565b600080516020611a0d8339815191526109ae81610395610bdf565b806109bf57506109bf816000610931565b6109db5760405162461bcd60e51b81526004016104bf906116b2565b6109e4826106fd565b610a005760405162461bcd60e51b81526004016104bf90611866565b6000828152606560205260408082208290555183917fbaa1eb22f2a492ba1a5fea61b8df4d27c6c8b5f3971e63bb58fa14ff72eedb7091a25050565b600081815260336020526040812061092b90610e74565b60009081526065602052604090205490565b600082815260336020526040902060020154610a8390610395610bdf565b6106f35760405162461bcd60e51b81526004016104bf90611737565b7fd8aa0f3194971a2a116679f7c2090f6939c8d4e01a2a8d7e41d55e5351469e63610acc81610395610bdf565b80610add5750610add816000610931565b610af95760405162461bcd60e51b81526004016104bf906116b2565b878614610b185760405162461bcd60e51b81526004016104bf9061166f565b878414610b375760405162461bcd60e51b81526004016104bf9061166f565b6000610b498a8a8a8a8a8a8a8a61094e565b9050610b5484610c50565b60005b89811015610bc357610bbb82828d8d85818110610b7057fe5b9050602002016020810190610b8591906110df565b8c8c86818110610b9157fe5b905060200201358b8b87818110610ba457fe5b9050602002810190610bb691906119b2565b610c80565b600101610b57565b50610bcd81610d48565b50505050505050505050565b60665490565b3390565b610bec826106a8565b15610c095760405162461bcd60e51b81526004016104bf906117cd565b610c11610bd9565b811015610c305760405162461bcd60e51b81526004016104bf90611787565b610c3a4282610e7f565b6000928352606560205260409092209190915550565b801580610c615750610c618161064c565b610c7d5760405162461bcd60e51b81526004016104bf906115da565b50565b6000846001600160a01b0316848484604051610c9d92919061144a565b60006040518083038185875af1925050503d8060008114610cda576040519150601f19603f3d011682016040523d82523d6000602084013e610cdf565b606091505b5050905080610d005760405162461bcd60e51b81526004016104bf90611951565b85877fc2617efa69bab66782fa219543714338489c4e9e178271560a91b82c3f612b5887878787604051610d37949392919061146e565b60405180910390a350505050505050565b610d5181610612565b610d6d5760405162461bcd60e51b81526004016104bf9061181c565b600090815260656020526040902060019055565b6000828152603360205260409020610d999082610ea4565b156106a457610da6610bdf565b6001600160a01b0316816001600160a01b0316837f2f8788117e7eff1d82e926ec794901d17c78024a50270940304540a733656f0d60405160405180910390a45050565b6000828152603360205260409020610e029082610eb9565b156106a457610e0f610bdf565b6001600160a01b0316816001600160a01b0316837ff6391f5c32d9c69d2a47ea670b442974b53935d1edc7fd64eb21e047a839171b60405160405180910390a45050565b60006109288383610ece565b6000610928836001600160a01b038416610f13565b600061092b82610f2b565b6000828201838110156109285760405162461bcd60e51b81526004016104bf90611700565b6000610928836001600160a01b038416610f2f565b6000610928836001600160a01b038416610f79565b81546000908210610ef15760405162461bcd60e51b81526004016104bf90611598565b826000018281548110610f0057fe5b9060005260206000200154905092915050565b60009081526001919091016020526040902054151590565b5490565b6000610f3b8383610f13565b610f715750815460018181018455600084815260208082209093018490558454848252828601909352604090209190915561092b565b50600061092b565b600081815260018301602052604081205480156110355783546000198083019190810190600090879083908110610fac57fe5b9060005260206000200154905080876000018481548110610fc957fe5b600091825260208083209091019290925582815260018981019092526040902090840190558654879080610ff957fe5b6001900381819060005260206000200160009055905586600101600087815260200190815260200160002060009055600194505050505061092b565b600091505061092b565b80356001600160a01b038116811461092b57600080fd5b60008083601f840112611067578182fd5b50813567ffffffffffffffff81111561107e578182fd5b602083019150836020808302850101111561109857600080fd5b9250929050565b60008083601f8401126110b0578182fd5b50813567ffffffffffffffff8111156110c7578182fd5b60208301915083602082850101111561109857600080fd5b6000602082840312156110f0578081fd5b610928838361103f565b60008060008060008060a08789031215611112578182fd5b863561111d816119f7565b955060208701359450604087013567ffffffffffffffff81111561113f578283fd5b61114b89828a0161109f565b979a9699509760608101359660809091013595509350505050565b600080600080600080600060c0888a031215611180578081fd5b61118a898961103f565b965060208801359550604088013567ffffffffffffffff8111156111ac578182fd5b6111b88a828b0161109f565b989b979a50986060810135976080820135975060a09091013595509350505050565b60008060008060008060008060a0898b0312156111f5578081fd5b883567ffffffffffffffff8082111561120c578283fd5b6112188c838d01611056565b909a50985060208b0135915080821115611230578283fd5b61123c8c838d01611056565b909850965060408b0135915080821115611254578283fd5b506112618b828c01611056565b999c989b509699959896976060870135966080013595509350505050565b600080600080600080600080600060c08a8c03121561129c578081fd5b893567ffffffffffffffff808211156112b3578283fd5b6112bf8d838e01611056565b909b50995060208c01359150808211156112d7578283fd5b6112e38d838e01611056565b909950975060408c01359150808211156112fb578283fd5b506113088c828d01611056565b9a9d999c50979a969997986060880135976080810135975060a0013595509350505050565b60006020828403121561133e578081fd5b5035919050565b60008060408385031215611357578182fd5b823591506020830135611369816119f7565b809150509250929050565b60008060408385031215611386578182fd5b50508035926020909101359150565b818352602080840193600091908185020181018584845b878110156114135782840389528135601e198836030181126113cc578687fd5b8701803567ffffffffffffffff8111156113e4578788fd5b8036038913156113f2578788fd5b6113ff8682898501611420565b9a87019a95505050908401906001016113ac565b5091979650505050505050565b60008284528282602086013780602084860101526020601f19601f85011685010190509392505050565b6000828483379101908152919050565b6001600160a01b0391909116815260200190565b600060018060a01b038616825284602083015260606040830152611496606083018486611420565b9695505050505050565b600060018060a01b038816825286602083015260a060408301526114c860a083018688611420565b60608301949094525060800152949350505050565b60a0808252810188905260008960c08301825b8b8110156115205760208381016001600160a01b0361150f828761103f565b1684529350909101906001016114f0565b5083810360208501528881526001600160fb1b0389111561153f578283fd5b602089029150818a6020830137016020818101838152848303909101604085015261156b81888a611395565b6060850196909652505050608001529695505050505050565b901515815260200190565b90815260200190565b60208082526022908201527f456e756d657261626c655365743a20696e646578206f7574206f6620626f756e604082015261647360f01b606082015260800190565b60208082526026908201527f54696d656c6f636b436f6e74726f6c6c65723a206d697373696e6720646570656040820152656e64656e637960d01b606082015260800190565b6020808252602f908201527f416363657373436f6e74726f6c3a2073656e646572206d75737420626520616e60408201526e0818591b5a5b881d1bc819dc985b9d608a1b606082015260800190565b60208082526023908201527f54696d656c6f636b436f6e74726f6c6c65723a206c656e677468206d69736d616040820152620e8c6d60eb1b606082015260800190565b6020808252602e908201527f54696d656c6f636b436f6e74726f6c6c65723a2073656e64657220726571756960408201526d3932b9903832b936b4b9b9b4b7b760911b606082015260800190565b6020808252601b908201527f536166654d6174683a206164646974696f6e206f766572666c6f770000000000604082015260600190565b60208082526030908201527f416363657373436f6e74726f6c3a2073656e646572206d75737420626520616e60408201526f2061646d696e20746f207265766f6b6560801b606082015260800190565b60208082526026908201527f54696d656c6f636b436f6e74726f6c6c65723a20696e73756666696369656e746040820152652064656c617960d01b606082015260800190565b6020808252602f908201527f54696d656c6f636b436f6e74726f6c6c65723a206f7065726174696f6e20616c60408201526e1c9958591e481cd8da19591d5b1959608a1b606082015260800190565b6020808252602a908201527f54696d656c6f636b436f6e74726f6c6c65723a206f7065726174696f6e206973604082015269206e6f7420726561647960b01b606082015260800190565b60208082526031908201527f54696d656c6f636b436f6e74726f6c6c65723a206f7065726174696f6e2063616040820152701b9b9bdd0818994818d85b98d95b1b1959607a1b606082015260800190565b6020808252602b908201527f54696d656c6f636b436f6e74726f6c6c65723a2063616c6c6572206d7573742060408201526a62652074696d656c6f636b60a81b606082015260800190565b6020808252602f908201527f416363657373436f6e74726f6c3a2063616e206f6e6c792072656e6f756e636560408201526e103937b632b9903337b91039b2b63360891b606082015260800190565b60208082526033908201527f54696d656c6f636b436f6e74726f6c6c65723a20756e6465726c79696e6720746040820152721c985b9cd858dd1a5bdb881c995d995c9d1959606a1b606082015260800190565b918252602082015260400190565b6000808335601e198436030181126119c8578283fd5b83018035915067ffffffffffffffff8211156119e2578283fd5b60200191503681900382131561109857600080fd5b6001600160a01b0381168114610c7d57600080fdfeb09aa5aeb3702cfd50b6b62bc4532604938f21248a27a1d5ca736082b6819cc1a26469706673582212207cdeb1f761e57963c2a4bbb8962c71364365854b8dd4391f350a849caa71478464736f6c634300060c0033",
  "linkReferences": {},
  "deployedLinkReferences": {}
}