{
  "_format": "hh-sol-artifact-1",
  "contractName": "EnumerableUintSetMockUpgradeable",
  "sourceName": "contracts/contracts-upgradeable-v3_4/mocks/EnumerableSetMockUpgradeable.sol",
  "abi": [
    {
      "anonymous": false,
      "inputs": [
        {
          "indexed": false,
          "internalType": "bool",
          "name": "result",
          "type": "bool"
        }
      ],
      "name": "OperationResult",
      "type": "event"
    },
    {
      "inputs": [
        {
          "internalType": "uint256",
          "name": "value",
          "type": "uint256"
        }
      ],
      "name": "add",
      "outputs": [],
      "stateMutability": "nonpayable",
      "type": "function"
    },
    {
      "inputs": [
        {
          "internalType": "uint256",
          "name": "index",
          "type": "uint256"
        }
      ],
      "name": "at",
      "outputs": [
        {
          "internalType": "uint256",
          "name": "",
          "type": "uint256"
        }
      ],
      "stateMutability": "view",
      "type": "function"
    },
    {
      "inputs": [
        {
          "internalType": "uint256",
          "name": "value",
          "type": "uint256"
        }
      ],
      "name": "contains",
      "outputs": [
        {
          "internalType": "bool",
          "name": "",
          "type": "bool"
        }
      ],
      "stateMutability": "view",
      "type": "function"
    },
    {
      "inputs": [],
      "name": "length",
      "outputs": [
        {
          "internalType": "uint256",
          "name": "",
          "type": "uint256"
        }
      ],
      "stateMutability": "view",
      "type": "function"
    },
    {
      "inputs": [
        {
          "internalType": "uint256",
          "name": "value",
          "type": "uint256"
        }
      ],
      "name": "remove",
      "outputs": [],
      "stateMutability": "nonpayable",
      "type": "function"
    }
  ],
  "bytecode": "0x608060405234801561001057600080fd5b506103b2806100206000396000f3fe608060405234801561001057600080fd5b50600436106100575760003560e01c80631003e2d21461005c5780631f7b6d321461007b5780634cc8221514610095578063c34052e0146100b2578063e0886f90146100e3575b600080fd5b6100796004803603602081101561007257600080fd5b5035610100565b005b61008361014a565b60408051918252519081900360200190f35b610079600480360360208110156100ab57600080fd5b503561015b565b6100cf600480360360208110156100c857600080fd5b5035610168565b604080519115158252519081900360200190f35b610083600480360360208110156100f957600080fd5b503561017b565b600061010d600183610188565b60408051821515815290519192507fed9840e0775590557ad736875d96c95cf1458b766335f74339951a32c82a9e33919081900360200190a15050565b6000610156600161019b565b905090565b600061010d6001836101a6565b60006101756001836101b2565b92915050565b60006101756001836101be565b600061019483836101ca565b9392505050565b600061017582610214565b60006101948383610218565b600061019483836102de565b600061019483836102f6565b60006101d683836102de565b61020c57508154600181810184556000848152602080822090930184905584548482528286019093526040902091909155610175565b506000610175565b5490565b600081815260018301602052604081205480156102d4578354600019808301919081019060009087908390811061024b57fe5b906000526020600020015490508087600001848154811061026857fe5b60009182526020808320909101929092558281526001898101909252604090209084019055865487908061029857fe5b60019003818190600052602060002001600090559055866001016000878152602001908152602001600020600090556001945050505050610175565b6000915050610175565b60009081526001919091016020526040902054151590565b815460009082106103385760405162461bcd60e51b815260040180806020018281038252602281526020018061035b6022913960400191505060405180910390fd5b82600001828154811061034757fe5b906000526020600020015490509291505056fe456e756d657261626c655365743a20696e646578206f7574206f6620626f756e6473a264697066735822122028cf706c8c05518944766b7069d0e34296f627aaec5ded0bf98bc73f0951f4e164736f6c634300060c0033",
  "linkReferences": {},
  "deployedLinkReferences": {}
}