{
  "_format": "hh-sol-artifact-1",
  "contractName": "LPTokenV1",
  "sourceName": "contracts/LPTokenV1.sol",
  "abi": [
    {
      "anonymous": false,
      "inputs": [
        {
          "indexed": true,
          "internalType": "address",
          "name": "owner",
          "type": "address"
        },
        {
          "indexed": true,
          "internalType": "address",
          "name": "spender",
          "type": "address"
        },
        {
          "indexed": false,
          "internalType": "uint256",
          "name": "value",
          "type": "uint256"
        }
      ],
      "name": "Approval",
      "type": "event"
    },
    {
      "anonymous": false,
      "inputs": [
        {
          "indexed": true,
          "internalType": "address",
          "name": "previousOwner",
          "type": "address"
        },
        {
          "indexed": true,
          "internalType": "address",
          "name": "newOwner",
          "type": "address"
        }
      ],
      "name": "OwnershipTransferred",
      "type": "event"
    },
    {
      "anonymous": false,
      "inputs": [
        {
          "indexed": true,
          "internalType": "address",
          "name": "from",
          "type": "address"
        },
        {
          "indexed": true,
          "internalType": "address",
          "name": "to",
          "type": "address"
        },
        {
          "indexed": false,
          "internalType": "uint256",
          "name": "value",
          "type": "uint256"
        }
      ],
      "name": "Transfer",
      "type": "event"
    },
    {
      "inputs": [
        {
          "internalType": "address",
          "name": "owner",
          "type": "address"
        },
        {
          "internalType": "address",
          "name": "spender",
          "type": "address"
        }
      ],
      "name": "allowance",
      "outputs": [
        {
          "internalType": "uint256",
          "name": "",
          "type": "uint256"
        }
      ],
      "stateMutability": "view",
      "type": "function"
    },
    {
      "inputs": [
        {
          "internalType": "address",
          "name": "spender",
          "type": "address"
        },
        {
          "internalType": "uint256",
          "name": "amount",
          "type": "uint256"
        }
      ],
      "name": "approve",
      "outputs": [
        {
          "internalType": "bool",
          "name": "",
          "type": "bool"
        }
      ],
      "stateMutability": "nonpayable",
      "type": "function"
    },
    {
      "inputs": [
        {
          "internalType": "address",
          "name": "account",
          "type": "address"
        }
      ],
      "name": "balanceOf",
      "outputs": [
        {
          "internalType": "uint256",
          "name": "",
          "type": "uint256"
        }
      ],
      "stateMutability": "view",
      "type": "function"
    },
    {
      "inputs": [
        {
          "internalType": "uint256",
          "name": "amount",
          "type": "uint256"
        }
      ],
      "name": "burn",
      "outputs": [],
      "stateMutability": "nonpayable",
      "type": "function"
    },
    {
      "inputs": [
        {
          "internalType": "address",
          "name": "account",
          "type": "address"
        },
        {
          "internalType": "uint256",
          "name": "amount",
          "type": "uint256"
        }
      ],
      "name": "burnFrom",
      "outputs": [],
      "stateMutability": "nonpayable",
      "type": "function"
    },
    {
      "inputs": [],
      "name": "decimals",
      "outputs": [
        {
          "internalType": "uint8",
          "name": "",
          "type": "uint8"
        }
      ],
      "stateMutability": "view",
      "type": "function"
    },
    {
      "inputs": [
        {
          "internalType": "address",
          "name": "spender",
          "type": "address"
        },
        {
          "internalType": "uint256",
          "name": "subtractedValue",
          "type": "uint256"
        }
      ],
      "name": "decreaseAllowance",
      "outputs": [
        {
          "internalType": "bool",
          "name": "",
          "type": "bool"
        }
      ],
      "stateMutability": "nonpayable",
      "type": "function"
    },
    {
      "inputs": [
        {
          "internalType": "address",
          "name": "spender",
          "type": "address"
        },
        {
          "internalType": "uint256",
          "name": "addedValue",
          "type": "uint256"
        }
      ],
      "name": "increaseAllowance",
      "outputs": [
        {
          "internalType": "bool",
          "name": "",
          "type": "bool"
        }
      ],
      "stateMutability": "nonpayable",
      "type": "function"
    },
    {
      "inputs": [
        {
          "internalType": "string",
          "name": "name",
          "type": "string"
        },
        {
          "internalType": "string",
          "name": "symbol",
          "type": "string"
        }
      ],
      "name": "initialize",
      "outputs": [
        {
          "internalType": "bool",
          "name": "",
          "type": "bool"
        }
      ],
      "stateMutability": "nonpayable",
      "type": "function"
    },
    {
      "inputs": [
        {
          "internalType": "address",
          "name": "recipient",
          "type": "address"
        },
        {
          "internalType": "uint256",
          "name": "amount",
          "type": "uint256"
        }
      ],
      "name": "mint",
      "outputs": [],
      "stateMutability": "nonpayable",
      "type": "function"
    },
    {
      "inputs": [],
      "name": "name",
      "outputs": [
        {
          "internalType": "string",
          "name": "",
          "type": "string"
        }
      ],
      "stateMutability": "view",
      "type": "function"
    },
    {
      "inputs": [],
      "name": "owner",
      "outputs": [
        {
          "internalType": "address",
          "name": "",
          "type": "address"
        }
      ],
      "stateMutability": "view",
      "type": "function"
    },
    {
      "inputs": [],
      "name": "renounceOwnership",
      "outputs": [],
      "stateMutability": "nonpayable",
      "type": "function"
    },
    {
      "inputs": [],
      "name": "symbol",
      "outputs": [
        {
          "internalType": "string",
          "name": "",
          "type": "string"
        }
      ],
      "stateMutability": "view",
      "type": "function"
    },
    {
      "inputs": [],
      "name": "totalSupply",
      "outputs": [
        {
          "internalType": "uint256",
          "name": "",
          "type": "uint256"
        }
      ],
      "stateMutability": "view",
      "type": "function"
    },
    {
      "inputs": [
        {
          "internalType": "address",
          "name": "recipient",
          "type": "address"
        },
        {
          "internalType": "uint256",
          "name": "amount",
          "type": "uint256"
        }
      ],
      "name": "transfer",
      "outputs": [
        {
          "internalType": "bool",
          "name": "",
          "type": "bool"
        }
      ],
      "stateMutability": "nonpayable",
      "type": "function"
    },
    {
      "inputs": [
        {
          "internalType": "address",
          "name": "sender",
          "type": "address"
        },
        {
          "internalType": "address",
          "name": "recipient",
          "type": "address"
        },
        {
          "internalType": "uint256",
          "name": "amount",
          "type": "uint256"
        }
      ],
      "name": "transferFrom",
      "outputs": [
        {
          "internalType": "bool",
          "name": "",
          "type": "bool"
        }
      ],
      "stateMutability": "nonpayable",
      "type": "function"
    },
    {
      "inputs": [
        {
          "internalType": "address",
          "name": "newOwner",
          "type": "address"
        }
      ],
      "name": "transferOwnership",
      "outputs": [],
      "stateMutability": "nonpayable",
      "type": "function"
    }
  ],
  "bytecode": "0x608060405234801561001057600080fd5b5061173a806100206000396000f3fe608060405234801561001057600080fd5b50600436106101165760003560e01c806370a08231116100a257806395d89b411161007157806395d89b4114610468578063a457c2d714610470578063a9059cbb1461049c578063dd62ed3e146104c8578063f2fde38b146104f657610116565b806370a08231146103ea578063715018a61461041057806379cc6790146104185780638da5cb5b1461044457610116565b8063313ce567116100e9578063313ce56714610228578063395093511461024657806340c10f191461027257806342966c68146102a05780634cd88b76146102bd57610116565b806306fdde031461011b578063095ea7b31461019857806318160ddd146101d857806323b872dd146101f2575b600080fd5b61012361051c565b6040805160208082528351818301528351919283929083019185019080838360005b8381101561015d578181015183820152602001610145565b50505050905090810190601f16801561018a5780820380516001836020036101000a031916815260200191505b509250505060405180910390f35b6101c4600480360360408110156101ae57600080fd5b506001600160a01b0381351690602001356105b2565b604080519115158252519081900360200190f35b6101e06105cf565b60408051918252519081900360200190f35b6101c46004803603606081101561020857600080fd5b506001600160a01b038135811691602081013590911690604001356105d5565b61023061065c565b6040805160ff9092168252519081900360200190f35b6101c46004803603604081101561025c57600080fd5b506001600160a01b038135169060200135610665565b61029e6004803603604081101561028857600080fd5b506001600160a01b0381351690602001356106b3565b005b61029e600480360360208110156102b657600080fd5b5035610780565b6101c4600480360360408110156102d357600080fd5b8101906020810181356401000000008111156102ee57600080fd5b82018360208201111561030057600080fd5b8035906020019184600183028401116401000000008311171561032257600080fd5b91908080601f016020809104026020016040519081016040528093929190818152602001838380828437600092019190915250929594936020810193503591505064010000000081111561037557600080fd5b82018360208201111561038757600080fd5b803590602001918460018302840111640100000000831117156103a957600080fd5b91908080601f016020809104026020016040519081016040528093929190818152602001838380828437600092019190915250929550610794945050505050565b6101e06004803603602081101561040057600080fd5b50356001600160a01b0316610859565b61029e610874565b61029e6004803603604081101561042e57600080fd5b506001600160a01b038135169060200135610932565b61044c61098c565b604080516001600160a01b039092168252519081900360200190f35b61012361099b565b6101c46004803603604081101561048657600080fd5b506001600160a01b0381351690602001356109fc565b6101c4600480360360408110156104b257600080fd5b506001600160a01b038135169060200135610a64565b6101e0600480360360408110156104de57600080fd5b506001600160a01b0381358116916020013516610a78565b61029e6004803603602081101561050c57600080fd5b50356001600160a01b0316610aa3565b60368054604080516020601f60026000196101006001881615020190951694909404938401819004810282018101909252828152606093909290918301828280156105a85780601f1061057d576101008083540402835291602001916105a8565b820191906000526020600020905b81548152906001019060200180831161058b57829003601f168201915b5050505050905090565b60006105c66105bf610bb8565b8484610bbc565b50600192915050565b60355490565b60006105e2848484610ca8565b610652846105ee610bb8565b61064d8560405180606001604052806028815260200161162a602891396001600160a01b038a1660009081526034602052604081209061062c610bb8565b6001600160a01b031681526020810191909152604001600020549190610e05565b610bbc565b5060019392505050565b60385460ff1690565b60006105c6610672610bb8565b8461064d8560346000610683610bb8565b6001600160a01b03908116825260208083019390935260409182016000908120918c168152925290205490610e9c565b6106bb610bb8565b6001600160a01b03166106cc61098c565b6001600160a01b031614610727576040805162461bcd60e51b815260206004820181905260248201527f4f776e61626c653a2063616c6c6572206973206e6f7420746865206f776e6572604482015290519081900360640190fd5b80610772576040805162461bcd60e51b815260206004820152601660248201527504c50546f6b656e3a2063616e6e6f74206d696e7420360541b604482015290519081900360640190fd5b61077c8282610efd565b5050565b61079161078b610bb8565b82610fef565b50565b60008054610100900460ff16806107ae57506107ae6110eb565b806107bc575060005460ff16155b6107f75760405162461bcd60e51b815260040180806020018281038252602e8152602001806115fc602e913960400191505060405180910390fd5b600054610100900460ff16158015610822576000805460ff1961ff0019909116610100171660011790555b61082a6110fc565b610834848461119d565b61083c611275565b600191508015610852576000805461ff00191690555b5092915050565b6001600160a01b031660009081526033602052604090205490565b61087c610bb8565b6001600160a01b031661088d61098c565b6001600160a01b0316146108e8576040805162461bcd60e51b815260206004820181905260248201527f4f776e61626c653a2063616c6c6572206973206e6f7420746865206f776e6572604482015290519081900360640190fd5b6097546040516000916001600160a01b0316907f8be0079c531659141344cd1fd0a4f28419497f9722a3daafe3b4186f6b6457e0908390a3609780546001600160a01b0319169055565b600061096982604051806060016040528060248152602001611652602491396109628661095d610bb8565b610a78565b9190610e05565b905061097d83610977610bb8565b83610bbc565b6109878383610fef565b505050565b6097546001600160a01b031690565b60378054604080516020601f60026000196101006001881615020190951694909404938401819004810282018101909252828152606093909290918301828280156105a85780601f1061057d576101008083540402835291602001916105a8565b60006105c6610a09610bb8565b8461064d856040518060600160405280602581526020016116e06025913960346000610a33610bb8565b6001600160a01b03908116825260208083019390935260409182016000908120918d16815292529020549190610e05565b60006105c6610a71610bb8565b8484610ca8565b6001600160a01b03918216600090815260346020908152604080832093909416825291909152205490565b610aab610bb8565b6001600160a01b0316610abc61098c565b6001600160a01b031614610b17576040805162461bcd60e51b815260206004820181905260248201527f4f776e61626c653a2063616c6c6572206973206e6f7420746865206f776e6572604482015290519081900360640190fd5b6001600160a01b038116610b5c5760405162461bcd60e51b815260040180806020018281038252602681526020018061158e6026913960400191505060405180910390fd5b6097546040516001600160a01b038084169216907f8be0079c531659141344cd1fd0a4f28419497f9722a3daafe3b4186f6b6457e090600090a3609780546001600160a01b0319166001600160a01b0392909216919091179055565b3390565b6001600160a01b038316610c015760405162461bcd60e51b81526004018080602001828103825260248152602001806116bc6024913960400191505060405180910390fd5b6001600160a01b038216610c465760405162461bcd60e51b81526004018080602001828103825260228152602001806115b46022913960400191505060405180910390fd5b6001600160a01b03808416600081815260346020908152604080832094871680845294825291829020859055815185815291517f8c5be1e5ebec7d5bd14f71427d1e84f3dd0314c0f7b2291e5b200ac8c7c3b9259281900390910190a3505050565b6001600160a01b038316610ced5760405162461bcd60e51b81526004018080602001828103825260258152602001806116976025913960400191505060405180910390fd5b6001600160a01b038216610d325760405162461bcd60e51b81526004018080602001828103825260238152602001806115496023913960400191505060405180910390fd5b610d3d83838361136e565b610d7a816040518060600160405280602681526020016115d6602691396001600160a01b0386166000908152603360205260409020549190610e05565b6001600160a01b038085166000908152603360205260408082209390935590841681522054610da99082610e9c565b6001600160a01b0380841660008181526033602090815260409182902094909455805185815290519193928716927fddf252ad1be2c89b69c2b068fc378daa952ba7f163c4a11628f55a4df523b3ef92918290030190a3505050565b60008184841115610e945760405162461bcd60e51b81526004018080602001828103825283818151815260200191508051906020019080838360005b83811015610e59578181015183820152602001610e41565b50505050905090810190601f168015610e865780820380516001836020036101000a031916815260200191505b509250505060405180910390fd5b505050900390565b600082820183811015610ef6576040805162461bcd60e51b815260206004820152601b60248201527f536166654d6174683a206164646974696f6e206f766572666c6f770000000000604482015290519081900360640190fd5b9392505050565b6001600160a01b038216610f58576040805162461bcd60e51b815260206004820152601f60248201527f45524332303a206d696e7420746f20746865207a65726f206164647265737300604482015290519081900360640190fd5b610f646000838361136e565b603554610f719082610e9c565b6035556001600160a01b038216600090815260336020526040902054610f979082610e9c565b6001600160a01b03831660008181526033602090815260408083209490945583518581529351929391927fddf252ad1be2c89b69c2b068fc378daa952ba7f163c4a11628f55a4df523b3ef9281900390910190a35050565b6001600160a01b0382166110345760405162461bcd60e51b81526004018080602001828103825260218152602001806116766021913960400191505060405180910390fd5b6110408260008361136e565b61107d8160405180606001604052806022815260200161156c602291396001600160a01b0385166000908152603360205260409020549190610e05565b6001600160a01b0383166000908152603360205260409020556035546110a39082611452565b6035556040805182815290516000916001600160a01b038516917fddf252ad1be2c89b69c2b068fc378daa952ba7f163c4a11628f55a4df523b3ef9181900360200190a35050565b60006110f6306114af565b15905090565b600054610100900460ff168061111557506111156110eb565b80611123575060005460ff16155b61115e5760405162461bcd60e51b815260040180806020018281038252602e8152602001806115fc602e913960400191505060405180910390fd5b600054610100900460ff16158015611189576000805460ff1961ff0019909116610100171660011790555b8015610791576000805461ff001916905550565b600054610100900460ff16806111b657506111b66110eb565b806111c4575060005460ff16155b6111ff5760405162461bcd60e51b815260040180806020018281038252602e8152602001806115fc602e913960400191505060405180910390fd5b600054610100900460ff1615801561122a576000805460ff1961ff0019909116610100171660011790555b825161123d9060369060208601906114b5565b5081516112519060379060208501906114b5565b506038805460ff191660121790558015610987576000805461ff0019169055505050565b600054610100900460ff168061128e575061128e6110eb565b8061129c575060005460ff16155b6112d75760405162461bcd60e51b815260040180806020018281038252602e8152602001806115fc602e913960400191505060405180910390fd5b600054610100900460ff16158015611302576000805460ff1961ff0019909116610100171660011790555b600061130c610bb8565b609780546001600160a01b0319166001600160a01b038316908117909155604051919250906000907f8be0079c531659141344cd1fd0a4f28419497f9722a3daafe3b4186f6b6457e0908290a3508015610791576000805461ff001916905550565b611379838383610987565b6001600160a01b0382163014156113d7576040805162461bcd60e51b815260206004820152601e60248201527f4c50546f6b656e3a2063616e6e6f742073656e6420746f20697473656c660000604482015290519081900360640190fd5b6113df61098c565b6001600160a01b031663c00c125c83836040518363ffffffff1660e01b815260040180836001600160a01b0316815260200182815260200192505050600060405180830381600087803b15801561143557600080fd5b505af1158015611449573d6000803e3d6000fd5b50505050505050565b6000828211156114a9576040805162461bcd60e51b815260206004820152601e60248201527f536166654d6174683a207375627472616374696f6e206f766572666c6f770000604482015290519081900360640190fd5b50900390565b3b151590565b828054600181600116156101000203166002900490600052602060002090601f016020900481019282601f106114f657805160ff1916838001178555611523565b82800160010185558215611523579182015b82811115611523578251825591602001919060010190611508565b5061152f929150611533565b5090565b5b8082111561152f576000815560010161153456fe45524332303a207472616e7366657220746f20746865207a65726f206164647265737345524332303a206275726e20616d6f756e7420657863656564732062616c616e63654f776e61626c653a206e6577206f776e657220697320746865207a65726f206164647265737345524332303a20617070726f766520746f20746865207a65726f206164647265737345524332303a207472616e7366657220616d6f756e7420657863656564732062616c616e6365496e697469616c697a61626c653a20636f6e747261637420697320616c726561647920696e697469616c697a656445524332303a207472616e7366657220616d6f756e74206578636565647320616c6c6f77616e636545524332303a206275726e20616d6f756e74206578636565647320616c6c6f77616e636545524332303a206275726e2066726f6d20746865207a65726f206164647265737345524332303a207472616e736665722066726f6d20746865207a65726f206164647265737345524332303a20617070726f76652066726f6d20746865207a65726f206164647265737345524332303a2064656372656173656420616c6c6f77616e63652062656c6f77207a65726fa26469706673582212209e6578cdd8c10f246cecb39af1303fae35d97cb59eb54d59a79c1554bac27c1a64736f6c634300060c0033",
  "linkReferences": {},
  "deployedLinkReferences": {}
}