{
  "_format": "hh-sol-artifact-1",
  "contractName": "ERC1155PausableMock",
  "sourceName": "contracts/contracts-v3_4/mocks/ERC1155PausableMock.sol",
  "abi": [
    {
      "inputs": [
        {
          "internalType": "string",
          "name": "uri",
          "type": "string"
        }
      ],
      "stateMutability": "nonpayable",
      "type": "constructor"
    },
    {
      "anonymous": false,
      "inputs": [
        {
          "indexed": true,
          "internalType": "address",
          "name": "account",
          "type": "address"
        },
        {
          "indexed": true,
          "internalType": "address",
          "name": "operator",
          "type": "address"
        },
        {
          "indexed": false,
          "internalType": "bool",
          "name": "approved",
          "type": "bool"
        }
      ],
      "name": "ApprovalForAll",
      "type": "event"
    },
    {
      "anonymous": false,
      "inputs": [
        {
          "indexed": false,
          "internalType": "address",
          "name": "account",
          "type": "address"
        }
      ],
      "name": "Paused",
      "type": "event"
    },
    {
      "anonymous": false,
      "inputs": [
        {
          "indexed": true,
          "internalType": "address",
          "name": "operator",
          "type": "address"
        },
        {
          "indexed": true,
          "internalType": "address",
          "name": "from",
          "type": "address"
        },
        {
          "indexed": true,
          "internalType": "address",
          "name": "to",
          "type": "address"
        },
        {
          "indexed": false,
          "internalType": "uint256[]",
          "name": "ids",
          "type": "uint256[]"
        },
        {
          "indexed": false,
          "internalType": "uint256[]",
          "name": "values",
          "type": "uint256[]"
        }
      ],
      "name": "TransferBatch",
      "type": "event"
    },
    {
      "anonymous": false,
      "inputs": [
        {
          "indexed": true,
          "internalType": "address",
          "name": "operator",
          "type": "address"
        },
        {
          "indexed": true,
          "internalType": "address",
          "name": "from",
          "type": "address"
        },
        {
          "indexed": true,
          "internalType": "address",
          "name": "to",
          "type": "address"
        },
        {
          "indexed": false,
          "internalType": "uint256",
          "name": "id",
          "type": "uint256"
        },
        {
          "indexed": false,
          "internalType": "uint256",
          "name": "value",
          "type": "uint256"
        }
      ],
      "name": "TransferSingle",
      "type": "event"
    },
    {
      "anonymous": false,
      "inputs": [
        {
          "indexed": false,
          "internalType": "string",
          "name": "value",
          "type": "string"
        },
        {
          "indexed": true,
          "internalType": "uint256",
          "name": "id",
          "type": "uint256"
        }
      ],
      "name": "URI",
      "type": "event"
    },
    {
      "anonymous": false,
      "inputs": [
        {
          "indexed": false,
          "internalType": "address",
          "name": "account",
          "type": "address"
        }
      ],
      "name": "Unpaused",
      "type": "event"
    },
    {
      "inputs": [
        {
          "internalType": "address",
          "name": "account",
          "type": "address"
        },
        {
          "internalType": "uint256",
          "name": "id",
          "type": "uint256"
        }
      ],
      "name": "balanceOf",
      "outputs": [
        {
          "internalType": "uint256",
          "name": "",
          "type": "uint256"
        }
      ],
      "stateMutability": "view",
      "type": "function"
    },
    {
      "inputs": [
        {
          "internalType": "address[]",
          "name": "accounts",
          "type": "address[]"
        },
        {
          "internalType": "uint256[]",
          "name": "ids",
          "type": "uint256[]"
        }
      ],
      "name": "balanceOfBatch",
      "outputs": [
        {
          "internalType": "uint256[]",
          "name": "",
          "type": "uint256[]"
        }
      ],
      "stateMutability": "view",
      "type": "function"
    },
    {
      "inputs": [
        {
          "internalType": "address",
          "name": "owner",
          "type": "address"
        },
        {
          "internalType": "uint256",
          "name": "id",
          "type": "uint256"
        },
        {
          "internalType": "uint256",
          "name": "value",
          "type": "uint256"
        }
      ],
      "name": "burn",
      "outputs": [],
      "stateMutability": "nonpayable",
      "type": "function"
    },
    {
      "inputs": [
        {
          "internalType": "address",
          "name": "owner",
          "type": "address"
        },
        {
          "internalType": "uint256[]",
          "name": "ids",
          "type": "uint256[]"
        },
        {
          "internalType": "uint256[]",
          "name": "values",
          "type": "uint256[]"
        }
      ],
      "name": "burnBatch",
      "outputs": [],
      "stateMutability": "nonpayable",
      "type": "function"
    },
    {
      "inputs": [
        {
          "internalType": "address",
          "name": "account",
          "type": "address"
        },
        {
          "internalType": "address",
          "name": "operator",
          "type": "address"
        }
      ],
      "name": "isApprovedForAll",
      "outputs": [
        {
          "internalType": "bool",
          "name": "",
          "type": "bool"
        }
      ],
      "stateMutability": "view",
      "type": "function"
    },
    {
      "inputs": [
        {
          "internalType": "address",
          "name": "to",
          "type": "address"
        },
        {
          "internalType": "uint256",
          "name": "id",
          "type": "uint256"
        },
        {
          "internalType": "uint256",
          "name": "value",
          "type": "uint256"
        },
        {
          "internalType": "bytes",
          "name": "data",
          "type": "bytes"
        }
      ],
      "name": "mint",
      "outputs": [],
      "stateMutability": "nonpayable",
      "type": "function"
    },
    {
      "inputs": [
        {
          "internalType": "address",
          "name": "to",
          "type": "address"
        },
        {
          "internalType": "uint256[]",
          "name": "ids",
          "type": "uint256[]"
        },
        {
          "internalType": "uint256[]",
          "name": "values",
          "type": "uint256[]"
        },
        {
          "internalType": "bytes",
          "name": "data",
          "type": "bytes"
        }
      ],
      "name": "mintBatch",
      "outputs": [],
      "stateMutability": "nonpayable",
      "type": "function"
    },
    {
      "inputs": [],
      "name": "pause",
      "outputs": [],
      "stateMutability": "nonpayable",
      "type": "function"
    },
    {
      "inputs": [],
      "name": "paused",
      "outputs": [
        {
          "internalType": "bool",
          "name": "",
          "type": "bool"
        }
      ],
      "stateMutability": "view",
      "type": "function"
    },
    {
      "inputs": [
        {
          "internalType": "address",
          "name": "from",
          "type": "address"
        },
        {
          "internalType": "address",
          "name": "to",
          "type": "address"
        },
        {
          "internalType": "uint256[]",
          "name": "ids",
          "type": "uint256[]"
        },
        {
          "internalType": "uint256[]",
          "name": "amounts",
          "type": "uint256[]"
        },
        {
          "internalType": "bytes",
          "name": "data",
          "type": "bytes"
        }
      ],
      "name": "safeBatchTransferFrom",
      "outputs": [],
      "stateMutability": "nonpayable",
      "type": "function"
    },
    {
      "inputs": [
        {
          "internalType": "address",
          "name": "from",
          "type": "address"
        },
        {
          "internalType": "address",
          "name": "to",
          "type": "address"
        },
        {
          "internalType": "uint256",
          "name": "id",
          "type": "uint256"
        },
        {
          "internalType": "uint256",
          "name": "amount",
          "type": "uint256"
        },
        {
          "internalType": "bytes",
          "name": "data",
          "type": "bytes"
        }
      ],
      "name": "safeTransferFrom",
      "outputs": [],
      "stateMutability": "nonpayable",
      "type": "function"
    },
    {
      "inputs": [
        {
          "internalType": "address",
          "name": "operator",
          "type": "address"
        },
        {
          "internalType": "bool",
          "name": "approved",
          "type": "bool"
        }
      ],
      "name": "setApprovalForAll",
      "outputs": [],
      "stateMutability": "nonpayable",
      "type": "function"
    },
    {
      "inputs": [
        {
          "internalType": "string",
          "name": "newuri",
          "type": "string"
        }
      ],
      "name": "setURI",
      "outputs": [],
      "stateMutability": "nonpayable",
      "type": "function"
    },
    {
      "inputs": [
        {
          "internalType": "bytes4",
          "name": "interfaceId",
          "type": "bytes4"
        }
      ],
      "name": "supportsInterface",
      "outputs": [
        {
          "internalType": "bool",
          "name": "",
          "type": "bool"
        }
      ],
      "stateMutability": "view",
      "type": "function"
    },
    {
      "inputs": [],
      "name": "unpause",
      "outputs": [],
      "stateMutability": "nonpayable",
      "type": "function"
    },
    {
      "inputs": [
        {
          "internalType": "uint256",
          "name": "",
          "type": "uint256"
        }
      ],
      "name": "uri",
      "outputs": [
        {
          "internalType": "string",
          "name": "",
          "type": "string"
        }
      ],
      "stateMutability": "view",
      "type": "function"
    }
  ],
  "bytecode": "0x60806040523480156200001157600080fd5b506040516200276538038062002765833981810160405260208110156200003757600080fd5b81019080805160405193929190846401000000008211156200005857600080fd5b9083019060208201858111156200006e57600080fd5b82516401000000008111828201881017156200008957600080fd5b82525081516020918201929091019080838360005b83811015620000b85781810151838201526020016200009e565b50505050905090810190601f168015620000e65780820380516001836020036101000a031916815260200191505b5060405250829150819050620001036301ffc9a760e01b62000145565b6200010e81620001ca565b62000120636cdb3d1360e11b62000145565b620001326303a24d0760e21b62000145565b50506004805460ff19169055506200027f565b6001600160e01b03198082161415620001a5576040805162461bcd60e51b815260206004820152601c60248201527f4552433136353a20696e76616c696420696e7465726661636520696400000000604482015290519081900360640190fd5b6001600160e01b0319166000908152602081905260409020805460ff19166001179055565b8051620001df906003906020840190620001e3565b5050565b828054600181600116156101000203166002900490600052602060002090601f016020900481019282601f106200022657805160ff191683800117855562000256565b8280016001018555821562000256579182015b828111156200025657825182559160200191906001019062000239565b506200026492915062000268565b5090565b5b8082111562000264576000815560010162000269565b6124d6806200028f6000396000f3fe608060405234801561001057600080fd5b50600436106100ff5760003560e01c80635c975abb11610097578063a22cb46511610066578063a22cb465146109ac578063e985e9c5146109da578063f242432a14610a08578063f5298aca14610ad1576100ff565b80635c975abb146107a95780636b20c454146107b1578063731133e9146108e45780638456cb59146109a4576100ff565b80631f7fdffa116100d35780631f7fdffa146102b55780632eb2c2d61461046d5780633f4ba83a1461062e5780634e1273f414610636576100ff565b8062fdd58e1461010457806301ffc9a71461014257806302fe53051461017d5780630e89341c14610223575b600080fd5b6101306004803603604081101561011a57600080fd5b506001600160a01b038135169060200135610b03565b60408051918252519081900360200190f35b6101696004803603602081101561015857600080fd5b50356001600160e01b031916610b72565b604080519115158252519081900360200190f35b6102216004803603602081101561019357600080fd5b810190602081018135600160201b8111156101ad57600080fd5b8201836020820111156101bf57600080fd5b803590602001918460018302840111600160201b831117156101e057600080fd5b91908080601f016020809104026020016040519081016040528093929190818152602001838380828437600092019190915250929550610b91945050505050565b005b6102406004803603602081101561023957600080fd5b5035610b9d565b6040805160208082528351818301528351919283929083019185019080838360005b8381101561027a578181015183820152602001610262565b50505050905090810190601f1680156102a75780820380516001836020036101000a031916815260200191505b509250505060405180910390f35b610221600480360360808110156102cb57600080fd5b6001600160a01b038235169190810190604081016020820135600160201b8111156102f557600080fd5b82018360208201111561030757600080fd5b803590602001918460208302840111600160201b8311171561032857600080fd5b9190808060200260200160405190810160405280939291908181526020018383602002808284376000920191909152509295949360208101935035915050600160201b81111561037757600080fd5b82018360208201111561038957600080fd5b803590602001918460208302840111600160201b831117156103aa57600080fd5b9190808060200260200160405190810160405280939291908181526020018383602002808284376000920191909152509295949360208101935035915050600160201b8111156103f957600080fd5b82018360208201111561040b57600080fd5b803590602001918460018302840111600160201b8311171561042c57600080fd5b91908080601f016020809104026020016040519081016040528093929190818152602001838380828437600092019190915250929550610c35945050505050565b610221600480360360a081101561048357600080fd5b6001600160a01b038235811692602081013590911691810190606081016040820135600160201b8111156104b657600080fd5b8201836020820111156104c857600080fd5b803590602001918460208302840111600160201b831117156104e957600080fd5b9190808060200260200160405190810160405280939291908181526020018383602002808284376000920191909152509295949360208101935035915050600160201b81111561053857600080fd5b82018360208201111561054a57600080fd5b803590602001918460208302840111600160201b8311171561056b57600080fd5b9190808060200260200160405190810160405280939291908181526020018383602002808284376000920191909152509295949360208101935035915050600160201b8111156105ba57600080fd5b8201836020820111156105cc57600080fd5b803590602001918460018302840111600160201b831117156105ed57600080fd5b91908080601f016020809104026020016040519081016040528093929190818152602001838380828437600092019190915250929550610c47945050505050565b610221610f45565b6107596004803603604081101561064c57600080fd5b810190602081018135600160201b81111561066657600080fd5b82018360208201111561067857600080fd5b803590602001918460208302840111600160201b8311171561069957600080fd5b9190808060200260200160405190810160405280939291908181526020018383602002808284376000920191909152509295949360208101935035915050600160201b8111156106e857600080fd5b8201836020820111156106fa57600080fd5b803590602001918460208302840111600160201b8311171561071b57600080fd5b919080806020026020016040519081016040528093929190818152602001838360200280828437600092019190915250929550610f4f945050505050565b60408051602080825283518183015283519192839290830191858101910280838360005b8381101561079557818101518382015260200161077d565b505050509050019250505060405180910390f35b61016961103b565b610221600480360360608110156107c757600080fd5b6001600160a01b038235169190810190604081016020820135600160201b8111156107f157600080fd5b82018360208201111561080357600080fd5b803590602001918460208302840111600160201b8311171561082457600080fd5b9190808060200260200160405190810160405280939291908181526020018383602002808284376000920191909152509295949360208101935035915050600160201b81111561087357600080fd5b82018360208201111561088557600080fd5b803590602001918460208302840111600160201b831117156108a657600080fd5b919080806020026020016040519081016040528093929190818152602001838360200280828437600092019190915250929550611045945050505050565b610221600480360360808110156108fa57600080fd5b6001600160a01b038235169160208101359160408201359190810190608081016060820135600160201b81111561093057600080fd5b82018360208201111561094257600080fd5b803590602001918460018302840111600160201b8311171561096357600080fd5b91908080601f016020809104026020016040519081016040528093929190818152602001838380828437600092019190915250929550611055945050505050565b610221611061565b610221600480360360408110156109c257600080fd5b506001600160a01b0381351690602001351515611069565b610169600480360360408110156109f057600080fd5b506001600160a01b0381358116916020013516611158565b610221600480360360a0811015610a1e57600080fd5b6001600160a01b03823581169260208101359091169160408201359160608101359181019060a081016080820135600160201b811115610a5d57600080fd5b820183602082011115610a6f57600080fd5b803590602001918460018302840111600160201b83111715610a9057600080fd5b91908080601f016020809104026020016040519081016040528093929190818152602001838380828437600092019190915250929550611186945050505050565b61022160048036036060811015610ae757600080fd5b506001600160a01b038135169060208101359060400135611351565b60006001600160a01b038316610b4a5760405162461bcd60e51b815260040180806020018281038252602b8152602001806122be602b913960400191505060405180910390fd5b5060009081526001602090815260408083206001600160a01b03949094168352929052205490565b6001600160e01b03191660009081526020819052604090205460ff1690565b610b9a8161135c565b50565b60038054604080516020601f6002600019610100600188161502019095169490940493840181900481028201810190925282815260609390929091830182828015610c295780601f10610bfe57610100808354040283529160200191610c29565b820191906000526020600020905b815481529060010190602001808311610c0c57829003601f168201915b50505050509050919050565b610c4184848484611373565b50505050565b8151835114610c875760405162461bcd60e51b81526004018080602001828103825260288152602001806124586028913960400191505060405180910390fd5b6001600160a01b038416610ccc5760405162461bcd60e51b81526004018080602001828103825260258152602001806123626025913960400191505060405180910390fd5b610cd46115c8565b6001600160a01b0316856001600160a01b03161480610cff5750610cff85610cfa6115c8565b611158565b610d3a5760405162461bcd60e51b81526004018080602001828103825260328152602001806123876032913960400191505060405180910390fd5b6000610d446115c8565b9050610d548187878787876115cc565b60005b8451811015610e55576000858281518110610d6e57fe5b602002602001015190506000858381518110610d8657fe5b60200260200101519050610df3816040518060600160405280602a81526020016123dc602a91396001600086815260200190815260200160002060008d6001600160a01b03166001600160a01b03168152602001908152602001600020546115da9092919063ffffffff16565b60008381526001602090815260408083206001600160a01b038e811685529252808320939093558a1681522054610e2a9082611671565b60009283526001602081815260408086206001600160a01b038d168752909152909320555001610d57565b50846001600160a01b0316866001600160a01b0316826001600160a01b03167f4a39dc06d4c0dbc64b70af90fd698a233a518aa5d07e595d983b8c0526c8f7fb8787604051808060200180602001838103835285818151815260200191508051906020019060200280838360005b83811015610edb578181015183820152602001610ec3565b50505050905001838103825284818151815260200191508051906020019060200280838360005b83811015610f1a578181015183820152602001610f02565b5050505090500194505050505060405180910390a4610f3d8187878787876116d2565b505050505050565b610f4d611951565b565b60608151835114610f915760405162461bcd60e51b815260040180806020018281038252602981526020018061242f6029913960400191505060405180910390fd5b6060835167ffffffffffffffff81118015610fab57600080fd5b50604051908082528060200260200182016040528015610fd5578160200160208202803683370190505b50905060005b845181101561103357611014858281518110610ff357fe5b602002602001015185838151811061100757fe5b6020026020010151610b03565b82828151811061102057fe5b6020908102919091010152600101610fdb565b509392505050565b60045460ff165b90565b6110508383836119f1565b505050565b610c4184848484611c5f565b610f4d611d60565b816001600160a01b031661107b6115c8565b6001600160a01b031614156110c15760405162461bcd60e51b81526004018080602001828103825260298152602001806124066029913960400191505060405180910390fd5b80600260006110ce6115c8565b6001600160a01b03908116825260208083019390935260409182016000908120918716808252919093529120805460ff1916921515929092179091556111126115c8565b6001600160a01b03167f17307eab39ab6107e8899845ad3d59bd9653f200f220920489ca2b5937696c318360405180821515815260200191505060405180910390a35050565b6001600160a01b03918216600090815260026020908152604080832093909416825291909152205460ff1690565b6001600160a01b0384166111cb5760405162461bcd60e51b81526004018080602001828103825260258152602001806123626025913960400191505060405180910390fd5b6111d36115c8565b6001600160a01b0316856001600160a01b031614806111f957506111f985610cfa6115c8565b6112345760405162461bcd60e51b81526004018080602001828103825260298152602001806123396029913960400191505060405180910390fd5b600061123e6115c8565b905061125e81878761124f88611de3565b61125888611de3565b876115cc565b6112a5836040518060600160405280602a81526020016123dc602a913960008781526001602090815260408083206001600160a01b038d16845290915290205491906115da565b60008581526001602090815260408083206001600160a01b038b811685529252808320939093558716815220546112dc9084611671565b60008581526001602090815260408083206001600160a01b03808b168086529184529382902094909455805188815291820187905280518a8416938616927fc3d58168c5ae7397731d063d5bbf3d657854427343f4c083240f7aacaa2d0f6292908290030190a4610f3d818787878787611e27565b611050838383611f98565b805161136f906003906020840190612123565b5050565b6001600160a01b0384166113b85760405162461bcd60e51b81526004018080602001828103825260218152602001806124806021913960400191505060405180910390fd5b81518351146113f85760405162461bcd60e51b81526004018080602001828103825260288152602001806124586028913960400191505060405180910390fd5b60006114026115c8565b9050611413816000878787876115cc565b60005b84518110156114d75761148e6001600087848151811061143257fe5b602002602001015181526020019081526020016000206000886001600160a01b03166001600160a01b031681526020019081526020016000205485838151811061147857fe5b602002602001015161167190919063ffffffff16565b6001600087848151811061149e57fe5b602090810291909101810151825281810192909252604090810160009081206001600160a01b038b168252909252902055600101611416565b50846001600160a01b031660006001600160a01b0316826001600160a01b03167f4a39dc06d4c0dbc64b70af90fd698a233a518aa5d07e595d983b8c0526c8f7fb8787604051808060200180602001838103835285818151815260200191508051906020019060200280838360005b8381101561155e578181015183820152602001611546565b50505050905001838103825284818151815260200191508051906020019060200280838360005b8381101561159d578181015183820152602001611585565b5050505090500194505050505060405180910390a46115c1816000878787876116d2565b5050505050565b3390565b610f3d8686868686866120cb565b600081848411156116695760405162461bcd60e51b81526004018080602001828103825283818151815260200191508051906020019080838360005b8381101561162e578181015183820152602001611616565b50505050905090810190601f16801561165b5780820380516001836020036101000a031916815260200191505b509250505060405180910390fd5b505050900390565b6000828201838110156116cb576040805162461bcd60e51b815260206004820152601b60248201527f536166654d6174683a206164646974696f6e206f766572666c6f770000000000604482015290519081900360640190fd5b9392505050565b6116e4846001600160a01b031661211d565b15610f3d57836001600160a01b031663bc197c8187878686866040518663ffffffff1660e01b815260040180866001600160a01b03168152602001856001600160a01b03168152602001806020018060200180602001848103845287818151815260200191508051906020019060200280838360005b8381101561177257818101518382015260200161175a565b50505050905001848103835286818151815260200191508051906020019060200280838360005b838110156117b1578181015183820152602001611799565b50505050905001848103825285818151815260200191508051906020019080838360005b838110156117ed5781810151838201526020016117d5565b50505050905090810190601f16801561181a5780820380516001836020036101000a031916815260200191505b5098505050505050505050602060405180830381600087803b15801561183f57600080fd5b505af192505050801561186457506040513d602081101561185f57600080fd5b505160015b6118f9576118706121bc565b8061187b57506118c2565b60405162461bcd60e51b815260206004820181815283516024840152835184939192839260440191908501908083836000831561162e578181015183820152602001611616565b60405162461bcd60e51b81526004018080602001828103825260348152602001806122626034913960400191505060405180910390fd5b6001600160e01b0319811663bc197c8160e01b146119485760405162461bcd60e51b81526004018080602001828103825260288152602001806122966028913960400191505060405180910390fd5b50505050505050565b61195961103b565b6119a1576040805162461bcd60e51b815260206004820152601460248201527314185d5cd8589b194e881b9bdd081c185d5cd95960621b604482015290519081900360640190fd5b6004805460ff191690557f5db9ee0a495bf2e6ff9c91a7834c1ba4fdd244a5e8aa4e537bd38aeae4b073aa6119d46115c8565b604080516001600160a01b039092168252519081900360200190a1565b6001600160a01b038316611a365760405162461bcd60e51b81526004018080602001828103825260238152602001806123b96023913960400191505060405180910390fd5b8051825114611a765760405162461bcd60e51b81526004018080602001828103825260288152602001806124586028913960400191505060405180910390fd5b6000611a806115c8565b9050611aa0818560008686604051806020016040528060008152506115cc565b60005b8351811015611b7e57611b35838281518110611abb57fe5b60200260200101516040518060600160405280602481526020016122e96024913960016000888681518110611aec57fe5b602002602001015181526020019081526020016000206000896001600160a01b03166001600160a01b03168152602001908152602001600020546115da9092919063ffffffff16565b60016000868481518110611b4557fe5b602090810291909101810151825281810192909252604090810160009081206001600160a01b038a168252909252902055600101611aa3565b5060006001600160a01b0316846001600160a01b0316826001600160a01b03167f4a39dc06d4c0dbc64b70af90fd698a233a518aa5d07e595d983b8c0526c8f7fb8686604051808060200180602001838103835285818151815260200191508051906020019060200280838360005b83811015611c05578181015183820152602001611bed565b50505050905001838103825284818151815260200191508051906020019060200280838360005b83811015611c44578181015183820152602001611c2c565b5050505090500194505050505060405180910390a450505050565b6001600160a01b038416611ca45760405162461bcd60e51b81526004018080602001828103825260218152602001806124806021913960400191505060405180910390fd5b6000611cae6115c8565b9050611cc08160008761124f88611de3565b60008481526001602090815260408083206001600160a01b0389168452909152902054611ced9084611671565b60008581526001602090815260408083206001600160a01b03808b16808652918452828520959095558151898152928301889052815190948616927fc3d58168c5ae7397731d063d5bbf3d657854427343f4c083240f7aacaa2d0f6292908290030190a46115c181600087878787611e27565b611d6861103b565b15611dad576040805162461bcd60e51b815260206004820152601060248201526f14185d5cd8589b194e881c185d5cd95960821b604482015290519081900360640190fd5b6004805460ff191660011790557f62e78cea01bee320cd4e420270b5ea74000d11b0c9f74754ebdbfc544b05a2586119d46115c8565b604080516001808252818301909252606091829190602080830190803683370190505090508281600081518110611e1657fe5b602090810291909101015292915050565b611e39846001600160a01b031661211d565b15610f3d57836001600160a01b031663f23a6e6187878686866040518663ffffffff1660e01b815260040180866001600160a01b03168152602001856001600160a01b0316815260200184815260200183815260200180602001828103825283818151815260200191508051906020019080838360005b83811015611ec8578181015183820152602001611eb0565b50505050905090810190601f168015611ef55780820380516001836020036101000a031916815260200191505b509650505050505050602060405180830381600087803b158015611f1857600080fd5b505af1925050508015611f3d57506040513d6020811015611f3857600080fd5b505160015b611f49576118706121bc565b6001600160e01b0319811663f23a6e6160e01b146119485760405162461bcd60e51b81526004018080602001828103825260288152602001806122966028913960400191505060405180910390fd5b6001600160a01b038316611fdd5760405162461bcd60e51b81526004018080602001828103825260238152602001806123b96023913960400191505060405180910390fd5b6000611fe76115c8565b905061201781856000611ff987611de3565b61200287611de3565b604051806020016040528060008152506115cc565b61205e826040518060600160405280602481526020016122e96024913960008681526001602090815260408083206001600160a01b038b16845290915290205491906115da565b60008481526001602090815260408083206001600160a01b03808a16808652918452828520959095558151888152928301879052815193949093908616927fc3d58168c5ae7397731d063d5bbf3d657854427343f4c083240f7aacaa2d0f6292908290030190a450505050565b6120d9868686868686610f3d565b6120e161103b565b15610f3d5760405162461bcd60e51b815260040180806020018281038252602c81526020018061230d602c913960400191505060405180910390fd5b3b151590565b828054600181600116156101000203166002900490600052602060002090601f016020900481019282601f1061216457805160ff1916838001178555612191565b82800160010185558215612191579182015b82811115612191578251825591602001919060010190612176565b5061219d9291506121a1565b5090565b5b8082111561219d57600081556001016121a2565b60e01c90565b600060443d10156121cc57611042565b600481823e6308c379a06121e082516121b6565b146121ea57611042565b6040513d600319016004823e80513d67ffffffffffffffff816024840111818411171561221a5750505050611042565b828401925082519150808211156122345750505050611042565b503d8301602082840101111561224c57505050611042565b601f01601f191681016020016040529150509056fe455243313135353a207472616e7366657220746f206e6f6e2045524331313535526563656976657220696d706c656d656e746572455243313135353a204552433131353552656365697665722072656a656374656420746f6b656e73455243313135353a2062616c616e636520717565727920666f7220746865207a65726f2061646472657373455243313135353a206275726e20616d6f756e7420657863656564732062616c616e6365455243313135355061757361626c653a20746f6b656e207472616e73666572207768696c6520706175736564455243313135353a2063616c6c6572206973206e6f74206f776e6572206e6f7220617070726f766564455243313135353a207472616e7366657220746f20746865207a65726f2061646472657373455243313135353a207472616e736665722063616c6c6572206973206e6f74206f776e6572206e6f7220617070726f766564455243313135353a206275726e2066726f6d20746865207a65726f2061646472657373455243313135353a20696e73756666696369656e742062616c616e636520666f72207472616e73666572455243313135353a2073657474696e6720617070726f76616c2073746174757320666f722073656c66455243313135353a206163636f756e747320616e6420696473206c656e677468206d69736d61746368455243313135353a2069647320616e6420616d6f756e7473206c656e677468206d69736d61746368455243313135353a206d696e7420746f20746865207a65726f2061646472657373a264697066735822122047089443c3443eed3352f4a7b4af7bc6339667cdfbf81238c6a0e49c496c077564736f6c634300060c0033",
  "linkReferences": {},
  "deployedLinkReferences": {}
}