{
  "_format": "hh-sol-artifact-1",
  "contractName": "SafeERC20WrapperUpgradeable",
  "sourceName": "contracts/contracts-upgradeable-v3_4/mocks/SafeERC20HelperUpgradeable.sol",
  "abi": [
    {
      "inputs": [],
      "name": "allowance",
      "outputs": [
        {
          "internalType": "uint256",
          "name": "",
          "type": "uint256"
        }
      ],
      "stateMutability": "view",
      "type": "function"
    },
    {
      "inputs": [
        {
          "internalType": "uint256",
          "name": "amount",
          "type": "uint256"
        }
      ],
      "name": "approve",
      "outputs": [],
      "stateMutability": "nonpayable",
      "type": "function"
    },
    {
      "inputs": [
        {
          "internalType": "uint256",
          "name": "amount",
          "type": "uint256"
        }
      ],
      "name": "decreaseAllowance",
      "outputs": [],
      "stateMutability": "nonpayable",
      "type": "function"
    },
    {
      "inputs": [
        {
          "internalType": "uint256",
          "name": "amount",
          "type": "uint256"
        }
      ],
      "name": "increaseAllowance",
      "outputs": [],
      "stateMutability": "nonpayable",
      "type": "function"
    },
    {
      "inputs": [
        {
          "internalType": "uint256",
          "name": "allowance_",
          "type": "uint256"
        }
      ],
      "name": "setAllowance",
      "outputs": [],
      "stateMutability": "nonpayable",
      "type": "function"
    },
    {
      "inputs": [],
      "name": "transfer",
      "outputs": [],
      "stateMutability": "nonpayable",
      "type": "function"
    },
    {
      "inputs": [],
      "name": "transferFrom",
      "outputs": [],
      "stateMutability": "nonpayable",
      "type": "function"
    }
  ],
  "bytecode": "0x608060405234801561001057600080fd5b50610a50806100206000396000f3fe608060405234801561001057600080fd5b506004361061007d5760003560e01c8063811c34d31161005b578063811c34d3146100db5780638a4068dd146100e3578063b759f954146100eb578063de242ff4146101085761007d565b806310bad4cf1461008257806311e330b2146100a15780633ba93f26146100be575b600080fd5b61009f6004803603602081101561009857600080fd5b5035610122565b005b61009f600480360360208110156100b757600080fd5b503561013d565b61009f600480360360208110156100d457600080fd5b5035610155565b61009f6101bd565b61009f6101d8565b61009f6004803603602081101561010157600080fd5b50356101f0565b610110610208565b60408051918252519081900360200190f35b60335461013a906001600160a01b031660008361028e565b50565b60335461013a906001600160a01b031660008361038b565b60335460408051631dd49f9360e11b81526004810184905290516001600160a01b0390921691633ba93f269160248082019260009290919082900301818387803b1580156101a257600080fd5b505af11580156101b6573d6000803e3d6000fd5b5050505050565b6033546101d6906001600160a01b031660008080610421565b565b6033546101d6906001600160a01b031660008061047b565b60335461013a906001600160a01b03166000836104d2565b60335460408051636eb1769f60e11b815260006004820181905260248201819052915191926001600160a01b03169163dd62ed3e91604480820192602092909190829003018186803b15801561025d57600080fd5b505afa158015610271573d6000803e3d6000fd5b505050506040513d602081101561028757600080fd5b5051905090565b60006103308260405180606001604052806029815260200161096c6029913960408051636eb1769f60e11b81523060048201526001600160a01b03888116602483015291519189169163dd62ed3e91604480820192602092909190829003018186803b1580156102fd57600080fd5b505afa158015610311573d6000803e3d6000fd5b505050506040513d602081101561032757600080fd5b505191906105e5565b604080516001600160a01b038616602482015260448082018490528251808303909101815260649091019091526020810180516001600160e01b031663095ea7b360e01b179052909150610385908590610681565b50505050565b600061033082856001600160a01b031663dd62ed3e30876040518363ffffffff1660e01b815260040180836001600160a01b03168152602001826001600160a01b031681526020019250505060206040518083038186803b1580156103ef57600080fd5b505afa158015610403573d6000803e3d6000fd5b505050506040513d602081101561041957600080fd5b505190610732565b604080516001600160a01b0380861660248301528416604482015260648082018490528251808303909101815260849091019091526020810180516001600160e01b03166323b872dd60e01b179052610385908590610681565b604080516001600160a01b038416602482015260448082018490528251808303909101815260649091019091526020810180516001600160e01b031663a9059cbb60e01b1790526104cd908490610681565b505050565b801580610558575060408051636eb1769f60e11b81523060048201526001600160a01b03848116602483015291519185169163dd62ed3e91604480820192602092909190829003018186803b15801561052a57600080fd5b505afa15801561053e573d6000803e3d6000fd5b505050506040513d602081101561055457600080fd5b5051155b6105935760405162461bcd60e51b81526004018080602001828103825260368152602001806109e56036913960400191505060405180910390fd5b604080516001600160a01b038416602482015260448082018490528251808303909101815260649091019091526020810180516001600160e01b031663095ea7b360e01b1790526104cd908490610681565b600081848411156106745760405162461bcd60e51b81526004018080602001828103825283818151815260200191508051906020019080838360005b83811015610639578181015183820152602001610621565b50505050905090810190601f1680156106665780820380516001836020036101000a031916815260200191505b509250505060405180910390fd5b50508183035b9392505050565b60606106d6826040518060400160405280602081526020017f5361666545524332303a206c6f772d6c6576656c2063616c6c206661696c6564815250856001600160a01b031661078c9092919063ffffffff16565b8051909150156104cd578080602001905160208110156106f557600080fd5b50516104cd5760405162461bcd60e51b815260040180806020018281038252602a8152602001806109bb602a913960400191505060405180910390fd5b60008282018381101561067a576040805162461bcd60e51b815260206004820152601b60248201527f536166654d6174683a206164646974696f6e206f766572666c6f770000000000604482015290519081900360640190fd5b606061079b84846000856107a3565b949350505050565b6060824710156107e45760405162461bcd60e51b81526004018080602001828103825260268152602001806109956026913960400191505060405180910390fd5b6107ed856108ff565b61083e576040805162461bcd60e51b815260206004820152601d60248201527f416464726573733a2063616c6c20746f206e6f6e2d636f6e7472616374000000604482015290519081900360640190fd5b60006060866001600160a01b031685876040518082805190602001908083835b6020831061087d5780518252601f19909201916020918201910161085e565b6001836020036101000a03801982511681845116808217855250505050505090500191505060006040518083038185875af1925050503d80600081146108df576040519150601f19603f3d011682016040523d82523d6000602084013e6108e4565b606091505b50915091506108f4828286610905565b979650505050505050565b3b151590565b6060831561091457508161067a565b8251156109245782518084602001fd5b60405162461bcd60e51b815260206004820181815284516024840152845185939192839260440191908501908083836000831561063957818101518382015260200161062156fe5361666545524332303a2064656372656173656420616c6c6f77616e63652062656c6f77207a65726f416464726573733a20696e73756666696369656e742062616c616e636520666f722063616c6c5361666545524332303a204552433230206f7065726174696f6e20646964206e6f7420737563636565645361666545524332303a20617070726f76652066726f6d206e6f6e2d7a65726f20746f206e6f6e2d7a65726f20616c6c6f77616e6365a264697066735822122096d78dd8794bd2f058076dd15a074d37c9630af21edbac28fa83ead0ebb0d17364736f6c634300060c0033",
  "linkReferences": {},
  "deployedLinkReferences": {}
}