{
  "_format": "hh-sol-artifact-1",
  "contractName": "__unstable__ERC20OwnedUpgradeable",
  "sourceName": "contracts/contracts-upgradeable-v3_4/GSN/GSNRecipientERC20FeeUpgradeable.sol",
  "abi": [
    {
      "anonymous": false,
      "inputs": [
        {
          "indexed": true,
          "internalType": "address",
          "name": "owner",
          "type": "address"
        },
        {
          "indexed": true,
          "internalType": "address",
          "name": "spender",
          "type": "address"
        },
        {
          "indexed": false,
          "internalType": "uint256",
          "name": "value",
          "type": "uint256"
        }
      ],
      "name": "Approval",
      "type": "event"
    },
    {
      "anonymous": false,
      "inputs": [
        {
          "indexed": true,
          "internalType": "address",
          "name": "previousOwner",
          "type": "address"
        },
        {
          "indexed": true,
          "internalType": "address",
          "name": "newOwner",
          "type": "address"
        }
      ],
      "name": "OwnershipTransferred",
      "type": "event"
    },
    {
      "anonymous": false,
      "inputs": [
        {
          "indexed": true,
          "internalType": "address",
          "name": "from",
          "type": "address"
        },
        {
          "indexed": true,
          "internalType": "address",
          "name": "to",
          "type": "address"
        },
        {
          "indexed": false,
          "internalType": "uint256",
          "name": "value",
          "type": "uint256"
        }
      ],
      "name": "Transfer",
      "type": "event"
    },
    {
      "inputs": [
        {
          "internalType": "address",
          "name": "tokenOwner",
          "type": "address"
        },
        {
          "internalType": "address",
          "name": "spender",
          "type": "address"
        }
      ],
      "name": "allowance",
      "outputs": [
        {
          "internalType": "uint256",
          "name": "",
          "type": "uint256"
        }
      ],
      "stateMutability": "view",
      "type": "function"
    },
    {
      "inputs": [
        {
          "internalType": "address",
          "name": "spender",
          "type": "address"
        },
        {
          "internalType": "uint256",
          "name": "amount",
          "type": "uint256"
        }
      ],
      "name": "approve",
      "outputs": [
        {
          "internalType": "bool",
          "name": "",
          "type": "bool"
        }
      ],
      "stateMutability": "nonpayable",
      "type": "function"
    },
    {
      "inputs": [
        {
          "internalType": "address",
          "name": "account",
          "type": "address"
        }
      ],
      "name": "balanceOf",
      "outputs": [
        {
          "internalType": "uint256",
          "name": "",
          "type": "uint256"
        }
      ],
      "stateMutability": "view",
      "type": "function"
    },
    {
      "inputs": [],
      "name": "decimals",
      "outputs": [
        {
          "internalType": "uint8",
          "name": "",
          "type": "uint8"
        }
      ],
      "stateMutability": "view",
      "type": "function"
    },
    {
      "inputs": [
        {
          "internalType": "address",
          "name": "spender",
          "type": "address"
        },
        {
          "internalType": "uint256",
          "name": "subtractedValue",
          "type": "uint256"
        }
      ],
      "name": "decreaseAllowance",
      "outputs": [
        {
          "internalType": "bool",
          "name": "",
          "type": "bool"
        }
      ],
      "stateMutability": "nonpayable",
      "type": "function"
    },
    {
      "inputs": [
        {
          "internalType": "address",
          "name": "spender",
          "type": "address"
        },
        {
          "internalType": "uint256",
          "name": "addedValue",
          "type": "uint256"
        }
      ],
      "name": "increaseAllowance",
      "outputs": [
        {
          "internalType": "bool",
          "name": "",
          "type": "bool"
        }
      ],
      "stateMutability": "nonpayable",
      "type": "function"
    },
    {
      "inputs": [
        {
          "internalType": "string",
          "name": "name",
          "type": "string"
        },
        {
          "internalType": "string",
          "name": "symbol",
          "type": "string"
        }
      ],
      "name": "initialize",
      "outputs": [],
      "stateMutability": "nonpayable",
      "type": "function"
    },
    {
      "inputs": [
        {
          "internalType": "address",
          "name": "account",
          "type": "address"
        },
        {
          "internalType": "uint256",
          "name": "amount",
          "type": "uint256"
        }
      ],
      "name": "mint",
      "outputs": [],
      "stateMutability": "nonpayable",
      "type": "function"
    },
    {
      "inputs": [],
      "name": "name",
      "outputs": [
        {
          "internalType": "string",
          "name": "",
          "type": "string"
        }
      ],
      "stateMutability": "view",
      "type": "function"
    },
    {
      "inputs": [],
      "name": "owner",
      "outputs": [
        {
          "internalType": "address",
          "name": "",
          "type": "address"
        }
      ],
      "stateMutability": "view",
      "type": "function"
    },
    {
      "inputs": [],
      "name": "renounceOwnership",
      "outputs": [],
      "stateMutability": "nonpayable",
      "type": "function"
    },
    {
      "inputs": [],
      "name": "symbol",
      "outputs": [
        {
          "internalType": "string",
          "name": "",
          "type": "string"
        }
      ],
      "stateMutability": "view",
      "type": "function"
    },
    {
      "inputs": [],
      "name": "totalSupply",
      "outputs": [
        {
          "internalType": "uint256",
          "name": "",
          "type": "uint256"
        }
      ],
      "stateMutability": "view",
      "type": "function"
    },
    {
      "inputs": [
        {
          "internalType": "address",
          "name": "recipient",
          "type": "address"
        },
        {
          "internalType": "uint256",
          "name": "amount",
          "type": "uint256"
        }
      ],
      "name": "transfer",
      "outputs": [
        {
          "internalType": "bool",
          "name": "",
          "type": "bool"
        }
      ],
      "stateMutability": "nonpayable",
      "type": "function"
    },
    {
      "inputs": [
        {
          "internalType": "address",
          "name": "sender",
          "type": "address"
        },
        {
          "internalType": "address",
          "name": "recipient",
          "type": "address"
        },
        {
          "internalType": "uint256",
          "name": "amount",
          "type": "uint256"
        }
      ],
      "name": "transferFrom",
      "outputs": [
        {
          "internalType": "bool",
          "name": "",
          "type": "bool"
        }
      ],
      "stateMutability": "nonpayable",
      "type": "function"
    },
    {
      "inputs": [
        {
          "internalType": "address",
          "name": "newOwner",
          "type": "address"
        }
      ],
      "name": "transferOwnership",
      "outputs": [],
      "stateMutability": "nonpayable",
      "type": "function"
    }
  ],
  "bytecode": "0x608060405234801561001057600080fd5b5061156e806100206000396000f3fe608060405234801561001057600080fd5b50600436106101005760003560e01c806370a0823111610097578063a457c2d711610066578063a457c2d714610411578063a9059cbb1461043d578063dd62ed3e14610469578063f2fde38b1461049757610100565b806370a08231146103b7578063715018a6146103dd5780638da5cb5b146103e557806395d89b411461040957610100565b8063313ce567116100d3578063313ce56714610212578063395093511461023057806340c10f191461025c5780634cd88b761461028a57610100565b806306fdde0314610105578063095ea7b31461018257806318160ddd146101c257806323b872dd146101dc575b600080fd5b61010d6104bd565b6040805160208082528351818301528351919283929083019185019080838360005b8381101561014757818101518382015260200161012f565b50505050905090810190601f1680156101745780820380516001836020036101000a031916815260200191505b509250505060405180910390f35b6101ae6004803603604081101561019857600080fd5b506001600160a01b038135169060200135610553565b604080519115158252519081900360200190f35b6101ca610571565b60408051918252519081900360200190f35b6101ae600480360360608110156101f257600080fd5b506001600160a01b03813581169160208101359091169060400135610577565b61021a6105c2565b6040805160ff9092168252519081900360200190f35b6101ae6004803603604081101561024657600080fd5b506001600160a01b0381351690602001356105cb565b6102886004803603604081101561027257600080fd5b506001600160a01b03813516906020013561061e565b005b610288600480360360408110156102a057600080fd5b8101906020810181356401000000008111156102bb57600080fd5b8201836020820111156102cd57600080fd5b803590602001918460018302840111640100000000831117156102ef57600080fd5b91908080601f016020809104026020016040519081016040528093929190818152602001838380828437600092019190915250929594936020810193503591505064010000000081111561034257600080fd5b82018360208201111561035457600080fd5b8035906020019184600183028401116401000000008311171561037657600080fd5b91908080601f0160208091040260200160405190810160405280939291908181526020018383808284376000920191909152509295506106a0945050505050565b6101ca600480360360208110156103cd57600080fd5b50356001600160a01b031661074e565b610288610769565b6103ed610827565b604080516001600160a01b039092168252519081900360200190f35b61010d610836565b6101ae6004803603604081101561042757600080fd5b506001600160a01b038135169060200135610897565b6101ae6004803603604081101561045357600080fd5b506001600160a01b0381351690602001356108ff565b6101ca6004803603604081101561047f57600080fd5b506001600160a01b0381358116916020013516610913565b610288600480360360208110156104ad57600080fd5b50356001600160a01b0316610950565b60368054604080516020601f60026000196101006001881615020190951694909404938401819004810282018101909252828152606093909290918301828280156105495780601f1061051e57610100808354040283529160200191610549565b820191906000526020600020905b81548152906001019060200180831161052c57829003601f168201915b5050505050905090565b6000610567610560610a65565b8484610a69565b5060015b92915050565b60355490565b6000610581610827565b6001600160a01b0316836001600160a01b031614156105ad576105a5848484610a9a565b5060016105bb565b6105b8848484610bf7565b90505b9392505050565b60385460ff1690565b60006105676105d8610a65565b8461061985603460006105e9610a65565b6001600160a01b03908116825260208083019390935260409182016000908120918c168152925290205490610c79565b610a69565b610626610a65565b6001600160a01b0316610637610827565b6001600160a01b031614610692576040805162461bcd60e51b815260206004820181905260248201527f4f776e61626c653a2063616c6c6572206973206e6f7420746865206f776e6572604482015290519081900360640190fd5b61069c8282610cd3565b5050565b600054610100900460ff16806106b957506106b9610dc5565b806106c7575060005460ff16155b6107025760405162461bcd60e51b815260040180806020018281038252602e815260200180611475602e913960400191505060405180910390fd5b600054610100900460ff1615801561072d576000805460ff1961ff0019909116610100171660011790555b6107378383610dd6565b8015610749576000805461ff00191690555b505050565b6001600160a01b031660009081526033602052604090205490565b610771610a65565b6001600160a01b0316610782610827565b6001600160a01b0316146107dd576040805162461bcd60e51b815260206004820181905260248201527f4f776e61626c653a2063616c6c6572206973206e6f7420746865206f776e6572604482015290519081900360640190fd5b6065546040516000916001600160a01b0316907f8be0079c531659141344cd1fd0a4f28419497f9722a3daafe3b4186f6b6457e0908390a3606580546001600160a01b0319169055565b6065546001600160a01b031690565b60378054604080516020601f60026000196101006001881615020190951694909404938401819004810282018101909252828152606093909290918301828280156105495780601f1061051e57610100808354040283529160200191610549565b60006105676108a4610a65565b846106198560405180606001604052806025815260200161151460259139603460006108ce610a65565b6001600160a01b03908116825260208083019390935260409182016000908120918d16815292529020549190610e87565b600061056761090c610a65565b8484610a9a565b600061091d610827565b6001600160a01b0316826001600160a01b0316141561093f575060001961056b565b6109498383610f1e565b905061056b565b610958610a65565b6001600160a01b0316610969610827565b6001600160a01b0316146109c4576040805162461bcd60e51b815260206004820181905260248201527f4f776e61626c653a2063616c6c6572206973206e6f7420746865206f776e6572604482015290519081900360640190fd5b6001600160a01b038116610a095760405162461bcd60e51b81526004018080602001828103825260268152602001806114076026913960400191505060405180910390fd5b6065546040516001600160a01b038084169216907f8be0079c531659141344cd1fd0a4f28419497f9722a3daafe3b4186f6b6457e090600090a3606580546001600160a01b0319166001600160a01b0392909216919091179055565b3390565b610a71610827565b6001600160a01b0316826001600160a01b03161415610a8f57610749565b610749838383610f49565b6001600160a01b038316610adf5760405162461bcd60e51b81526004018080602001828103825260258152602001806114cb6025913960400191505060405180910390fd5b6001600160a01b038216610b245760405162461bcd60e51b81526004018080602001828103825260238152602001806113e46023913960400191505060405180910390fd5b610b2f838383610749565b610b6c8160405180606001604052806026815260200161144f602691396001600160a01b0386166000908152603360205260409020549190610e87565b6001600160a01b038085166000908152603360205260408082209390935590841681522054610b9b9082610c79565b6001600160a01b0380841660008181526033602090815260409182902094909455805185815290519193928716927fddf252ad1be2c89b69c2b068fc378daa952ba7f163c4a11628f55a4df523b3ef92918290030190a3505050565b6000610c04848484610a9a565b610c6f84610c10610a65565b610619856040518060600160405280602881526020016114a3602891396001600160a01b038a16600090815260346020526040812090610c4e610a65565b6001600160a01b031681526020810191909152604001600020549190610e87565b5060019392505050565b6000828201838110156105bb576040805162461bcd60e51b815260206004820152601b60248201527f536166654d6174683a206164646974696f6e206f766572666c6f770000000000604482015290519081900360640190fd5b6001600160a01b038216610d2e576040805162461bcd60e51b815260206004820152601f60248201527f45524332303a206d696e7420746f20746865207a65726f206164647265737300604482015290519081900360640190fd5b610d3a60008383610749565b603554610d479082610c79565b6035556001600160a01b038216600090815260336020526040902054610d6d9082610c79565b6001600160a01b03831660008181526033602090815260408083209490945583518581529351929391927fddf252ad1be2c89b69c2b068fc378daa952ba7f163c4a11628f55a4df523b3ef9281900390910190a35050565b6000610dd030611035565b15905090565b600054610100900460ff1680610def5750610def610dc5565b80610dfd575060005460ff16155b610e385760405162461bcd60e51b815260040180806020018281038252602e815260200180611475602e913960400191505060405180910390fd5b600054610100900460ff16158015610e63576000805460ff1961ff0019909116610100171660011790555b610e6b61103b565b610e7583836110dd565b610e7d6111b5565b61073783836112ae565b60008184841115610f165760405162461bcd60e51b81526004018080602001828103825283818151815260200191508051906020019080838360005b83811015610edb578181015183820152602001610ec3565b50505050905090810190601f168015610f085780820380516001836020036101000a031916815260200191505b509250505060405180910390fd5b505050900390565b6001600160a01b03918216600090815260346020908152604080832093909416825291909152205490565b6001600160a01b038316610f8e5760405162461bcd60e51b81526004018080602001828103825260248152602001806114f06024913960400191505060405180910390fd5b6001600160a01b038216610fd35760405162461bcd60e51b815260040180806020018281038252602281526020018061142d6022913960400191505060405180910390fd5b6001600160a01b03808416600081815260346020908152604080832094871680845294825291829020859055815185815291517f8c5be1e5ebec7d5bd14f71427d1e84f3dd0314c0f7b2291e5b200ac8c7c3b9259281900390910190a3505050565b3b151590565b600054610100900460ff16806110545750611054610dc5565b80611062575060005460ff16155b61109d5760405162461bcd60e51b815260040180806020018281038252602e815260200180611475602e913960400191505060405180910390fd5b600054610100900460ff161580156110c8576000805460ff1961ff0019909116610100171660011790555b80156110da576000805461ff00191690555b50565b600054610100900460ff16806110f657506110f6610dc5565b80611104575060005460ff16155b61113f5760405162461bcd60e51b815260040180806020018281038252602e815260200180611475602e913960400191505060405180910390fd5b600054610100900460ff1615801561116a576000805460ff1961ff0019909116610100171660011790555b825161117d906036906020860190611350565b508151611191906037906020850190611350565b506038805460ff191660121790558015610749576000805461ff0019169055505050565b600054610100900460ff16806111ce57506111ce610dc5565b806111dc575060005460ff16155b6112175760405162461bcd60e51b815260040180806020018281038252602e815260200180611475602e913960400191505060405180910390fd5b600054610100900460ff16158015611242576000805460ff1961ff0019909116610100171660011790555b600061124c610a65565b606580546001600160a01b0319166001600160a01b038316908117909155604051919250906000907f8be0079c531659141344cd1fd0a4f28419497f9722a3daafe3b4186f6b6457e0908290a35080156110da576000805461ff001916905550565b600054610100900460ff16806112c757506112c7610dc5565b806112d5575060005460ff16155b6113105760405162461bcd60e51b815260040180806020018281038252602e815260200180611475602e913960400191505060405180910390fd5b600054610100900460ff16158015610737576000805460ff1961ff0019909116610100171660011790558015610749576000805461ff0019169055505050565b828054600181600116156101000203166002900490600052602060002090601f016020900481019282601f1061139157805160ff19168380011785556113be565b828001600101855582156113be579182015b828111156113be5782518255916020019190600101906113a3565b506113ca9291506113ce565b5090565b5b808211156113ca57600081556001016113cf56fe45524332303a207472616e7366657220746f20746865207a65726f20616464726573734f776e61626c653a206e6577206f776e657220697320746865207a65726f206164647265737345524332303a20617070726f766520746f20746865207a65726f206164647265737345524332303a207472616e7366657220616d6f756e7420657863656564732062616c616e6365496e697469616c697a61626c653a20636f6e747261637420697320616c726561647920696e697469616c697a656445524332303a207472616e7366657220616d6f756e74206578636565647320616c6c6f77616e636545524332303a207472616e736665722066726f6d20746865207a65726f206164647265737345524332303a20617070726f76652066726f6d20746865207a65726f206164647265737345524332303a2064656372656173656420616c6c6f77616e63652062656c6f77207a65726fa26469706673582212203b3e01e39bc5819f9c78f94c260803123b2e4fb5718717204eb5d7546d57459e64736f6c634300060c0033",
  "linkReferences": {},
  "deployedLinkReferences": {}
}