{
  "_format": "hh-sol-artifact-1",
  "contractName": "GSNRecipientERC20FeeUpgradeable",
  "sourceName": "contracts/contracts-upgradeable-v3_4/GSN/GSNRecipientERC20FeeUpgradeable.sol",
  "abi": [
    {
      "anonymous": false,
      "inputs": [
        {
          "indexed": true,
          "internalType": "address",
          "name": "oldRelayHub",
          "type": "address"
        },
        {
          "indexed": true,
          "internalType": "address",
          "name": "newRelayHub",
          "type": "address"
        }
      ],
      "name": "RelayHubChanged",
      "type": "event"
    },
    {
      "inputs": [
        {
          "internalType": "address",
          "name": "",
          "type": "address"
        },
        {
          "internalType": "address",
          "name": "from",
          "type": "address"
        },
        {
          "internalType": "bytes",
          "name": "",
          "type": "bytes"
        },
        {
          "internalType": "uint256",
          "name": "transactionFee",
          "type": "uint256"
        },
        {
          "internalType": "uint256",
          "name": "gasPrice",
          "type": "uint256"
        },
        {
          "internalType": "uint256",
          "name": "",
          "type": "uint256"
        },
        {
          "internalType": "uint256",
          "name": "",
          "type": "uint256"
        },
        {
          "internalType": "bytes",
          "name": "",
          "type": "bytes"
        },
        {
          "internalType": "uint256",
          "name": "maxPossibleCharge",
          "type": "uint256"
        }
      ],
      "name": "acceptRelayedCall",
      "outputs": [
        {
          "internalType": "uint256",
          "name": "",
          "type": "uint256"
        },
        {
          "internalType": "bytes",
          "name": "",
          "type": "bytes"
        }
      ],
      "stateMutability": "view",
      "type": "function"
    },
    {
      "inputs": [],
      "name": "getHubAddr",
      "outputs": [
        {
          "internalType": "address",
          "name": "",
          "type": "address"
        }
      ],
      "stateMutability": "view",
      "type": "function"
    },
    {
      "inputs": [
        {
          "internalType": "bytes",
          "name": "context",
          "type": "bytes"
        },
        {
          "internalType": "bool",
          "name": "success",
          "type": "bool"
        },
        {
          "internalType": "uint256",
          "name": "actualCharge",
          "type": "uint256"
        },
        {
          "internalType": "bytes32",
          "name": "preRetVal",
          "type": "bytes32"
        }
      ],
      "name": "postRelayedCall",
      "outputs": [],
      "stateMutability": "nonpayable",
      "type": "function"
    },
    {
      "inputs": [
        {
          "internalType": "bytes",
          "name": "context",
          "type": "bytes"
        }
      ],
      "name": "preRelayedCall",
      "outputs": [
        {
          "internalType": "bytes32",
          "name": "",
          "type": "bytes32"
        }
      ],
      "stateMutability": "nonpayable",
      "type": "function"
    },
    {
      "inputs": [],
      "name": "relayHubVersion",
      "outputs": [
        {
          "internalType": "string",
          "name": "",
          "type": "string"
        }
      ],
      "stateMutability": "view",
      "type": "function"
    },
    {
      "inputs": [],
      "name": "token",
      "outputs": [
        {
          "internalType": "contract __unstable__ERC20OwnedUpgradeable",
          "name": "",
          "type": "address"
        }
      ],
      "stateMutability": "view",
      "type": "function"
    }
  ],
  "bytecode": "0x608060405234801561001057600080fd5b50610bef806100206000396000f3fe608060405234801561001057600080fd5b50600436106100625760003560e01c806374e861d61461006757806380274db71461008b57806383947ea014610141578063ad61ccd51461031d578063e06e0e221461039a578063fc0c546a1461044d575b600080fd5b61006f610455565b604080516001600160a01b039092168252519081900360200190f35b61012f600480360360208110156100a157600080fd5b810190602081018135600160201b8111156100bb57600080fd5b8201836020820111156100cd57600080fd5b803590602001918460018302840111600160201b831117156100ee57600080fd5b91908080601f016020809104026020016040519081016040528093929190818152602001838380828437600092019190915250929550610464945050505050565b60408051918252519081900360200190f35b61029e600480360361012081101561015857600080fd5b6001600160a01b038235811692602081013590911691810190606081016040820135600160201b81111561018b57600080fd5b82018360208201111561019d57600080fd5b803590602001918460018302840111600160201b831117156101be57600080fd5b91908080601f016020809104026020016040519081016040528093929190818152602001838380828437600092019190915250929584359560208601359560408101359550606081013594509192509060a081019060800135600160201b81111561022857600080fd5b82018360208201111561023a57600080fd5b803590602001918460018302840111600160201b8311171561025b57600080fd5b91908080601f01602080910402602001604051908101604052809392919081815260200183838082843760009201919091525092955050913592506104cc915050565b6040518083815260200180602001828103825283818151815260200191508051906020019080838360005b838110156102e15781810151838201526020016102c9565b50505050905090810190601f16801561030e5780820380516001836020036101000a031916815260200191505b50935050505060405180910390f35b6103256105c0565b6040805160208082528351818301528351919283929083019185019080838360005b8381101561035f578181015183820152602001610347565b50505050905090810190601f16801561038c5780820380516001836020036101000a031916815260200191505b509250505060405180910390f35b61044b600480360360808110156103b057600080fd5b810190602081018135600160201b8111156103ca57600080fd5b8201836020820111156103dc57600080fd5b803590602001918460018302840111600160201b831117156103fd57600080fd5b91908080601f016020809104026020016040519081016040528093929190818152602001838380828437600092019190915250929550505050803515159150602081013590604001356105df565b005b61006f610648565b6033546001600160a01b031690565b600061046e610455565b6001600160a01b0316336001600160a01b0316146104bd5760405162461bcd60e51b8152600401808060200182810382526024815260200180610b6c6024913960400191505060405180910390fd5b6104c682610657565b92915050565b60006060826104d9610648565b6001600160a01b03166370a082318c6040518263ffffffff1660e01b815260040180826001600160a01b0316815260200191505060206040518083038186803b15801561052557600080fd5b505afa158015610539573d6000803e3d6000fd5b505050506040513d602081101561054f57600080fd5b5051101561056a5761056160006106a8565b915091506105b2565b604080516001600160a01b038c166020820152808201859052606081018a905260808082018a90528251808303909101815260a09091019091526105ad906106c0565b915091505b995099975050505050505050565b6040805180820190915260058152640312e302e360dc1b602082015290565b6105e7610455565b6001600160a01b0316336001600160a01b0316146106365760405162461bcd60e51b8152600401808060200182810382526024815260200180610b6c6024913960400191505060405180910390fd5b610642848484846106c5565b50505050565b6065546001600160a01b031690565b600080600083806020019051604081101561067157600080fd5b508051602090910151909250905061069e82308361068d610648565b6001600160a01b0316929190610757565b5060009392505050565b604080516020810190915260008152600b9190910191565b600091565b6000806000808780602001905160808110156106e057600080fd5b50805160208201516040830151606090930151919650945090925090506000610718610711620186a06127106107b1565b838561080e565b905061072487826107b1565b965061074c85610734868a6107b1565b61073c610648565b6001600160a01b03169190610820565b505050505050505050565b604080516001600160a01b0380861660248301528416604482015260648082018490528251808303909101815260849091019091526020810180516001600160e01b03166323b872dd60e01b179052610642908590610877565b600082821115610808576040805162461bcd60e51b815260206004820152601e60248201527f536166654d6174683a207375627472616374696f6e206f766572666c6f770000604482015290519081900360640190fd5b50900390565b606481810183850202045b9392505050565b604080516001600160a01b038416602482015260448082018490528251808303909101815260649091019091526020810180516001600160e01b031663a9059cbb60e01b179052610872908490610877565b505050565b60606108cc826040518060400160405280602081526020017f5361666545524332303a206c6f772d6c6576656c2063616c6c206661696c6564815250856001600160a01b03166109289092919063ffffffff16565b805190915015610872578080602001905160208110156108eb57600080fd5b50516108725760405162461bcd60e51b815260040180806020018281038252602a815260200180610b90602a913960400191505060405180910390fd5b6060610937848460008561093f565b949350505050565b6060824710156109805760405162461bcd60e51b8152600401808060200182810382526026815260200180610b466026913960400191505060405180910390fd5b61098985610a9b565b6109da576040805162461bcd60e51b815260206004820152601d60248201527f416464726573733a2063616c6c20746f206e6f6e2d636f6e7472616374000000604482015290519081900360640190fd5b60006060866001600160a01b031685876040518082805190602001908083835b60208310610a195780518252601f1990920191602091820191016109fa565b6001836020036101000a03801982511681845116808217855250505050505090500191505060006040518083038185875af1925050503d8060008114610a7b576040519150601f19603f3d011682016040523d82523d6000602084013e610a80565b606091505b5091509150610a90828286610aa1565b979650505050505050565b3b151590565b60608315610ab0575081610819565b825115610ac05782518084602001fd5b8160405162461bcd60e51b81526004018080602001828103825283818151815260200191508051906020019080838360005b83811015610b0a578181015183820152602001610af2565b50505050905090810190601f168015610b375780820380516001836020036101000a031916815260200191505b509250505060405180910390fdfe416464726573733a20696e73756666696369656e742062616c616e636520666f722063616c6c47534e526563697069656e743a2063616c6c6572206973206e6f742052656c61794875625361666545524332303a204552433230206f7065726174696f6e20646964206e6f742073756363656564a26469706673582212207890dafa9fd17907f105b412bfae87d9217323cd6436f7b0de1924c0c7e1853964736f6c634300060c0033",
  "linkReferences": {},
  "deployedLinkReferences": {}
}