{
  "_format": "hh-sol-artifact-1",
  "contractName": "SupportsInterfaceWithLookupMockUpgradeable",
  "sourceName": "contracts/contracts-upgradeable-v3_4/mocks/ERC165/ERC165InterfacesSupportedUpgradeable.sol",
  "abi": [
    {
      "inputs": [],
      "name": "INTERFACE_ID_ERC165",
      "outputs": [
        {
          "internalType": "bytes4",
          "name": "",
          "type": "bytes4"
        }
      ],
      "stateMutability": "view",
      "type": "function"
    },
    {
      "inputs": [
        {
          "internalType": "bytes4",
          "name": "interfaceId",
          "type": "bytes4"
        }
      ],
      "name": "supportsInterface",
      "outputs": [
        {
          "internalType": "bool",
          "name": "",
          "type": "bool"
        }
      ],
      "stateMutability": "view",
      "type": "function"
    }
  ],
  "bytecode": "0x608060405234801561001057600080fd5b5060f28061001f6000396000f3fe6080604052348015600f57600080fd5b506004361060325760003560e01c806301ffc9a714603757806334d7006c14606f575b600080fd5b605b60048036036020811015604b57600080fd5b50356001600160e01b0319166092565b604080519115158252519081900360200190f35b607560b1565b604080516001600160e01b03199092168252519081900360200190f35b6001600160e01b03191660009081526001602052604090205460ff1690565b6301ffc9a760e01b8156fea26469706673582212205cf1da308d36795dc927cfd710a963324df9126b374ba2dc7f9fd490bfaf3bf364736f6c634300060c0033",
  "linkReferences": {},
  "deployedLinkReferences": {}
}