{
  "_format": "hh-sol-artifact-1",
  "contractName": "SwapFlashLoanV1",
  "sourceName": "contracts/SwapFlashLoanV1.sol",
  "abi": [
    {
      "anonymous": false,
      "inputs": [
        {
          "indexed": true,
          "internalType": "address",
          "name": "provider",
          "type": "address"
        },
        {
          "indexed": false,
          "internalType": "uint256[]",
          "name": "tokenAmounts",
          "type": "uint256[]"
        },
        {
          "indexed": false,
          "internalType": "uint256[]",
          "name": "fees",
          "type": "uint256[]"
        },
        {
          "indexed": false,
          "internalType": "uint256",
          "name": "invariant",
          "type": "uint256"
        },
        {
          "indexed": false,
          "internalType": "uint256",
          "name": "lpTokenSupply",
          "type": "uint256"
        }
      ],
      "name": "AddLiquidity",
      "type": "event"
    },
    {
      "anonymous": false,
      "inputs": [
        {
          "indexed": true,
          "internalType": "address",
          "name": "receiver",
          "type": "address"
        },
        {
          "indexed": false,
          "internalType": "uint8",
          "name": "tokenIndex",
          "type": "uint8"
        },
        {
          "indexed": false,
          "internalType": "uint256",
          "name": "amount",
          "type": "uint256"
        },
        {
          "indexed": false,
          "internalType": "uint256",
          "name": "amountFee",
          "type": "uint256"
        },
        {
          "indexed": false,
          "internalType": "uint256",
          "name": "protocolFee",
          "type": "uint256"
        }
      ],
      "name": "FlashLoan",
      "type": "event"
    },
    {
      "anonymous": false,
      "inputs": [
        {
          "indexed": false,
          "internalType": "uint256",
          "name": "newAdminFee",
          "type": "uint256"
        }
      ],
      "name": "NewAdminFee",
      "type": "event"
    },
    {
      "anonymous": false,
      "inputs": [
        {
          "indexed": false,
          "internalType": "uint256",
          "name": "newSwapFee",
          "type": "uint256"
        }
      ],
      "name": "NewSwapFee",
      "type": "event"
    },
    {
      "anonymous": false,
      "inputs": [
        {
          "indexed": false,
          "internalType": "uint256",
          "name": "newWithdrawFee",
          "type": "uint256"
        }
      ],
      "name": "NewWithdrawFee",
      "type": "event"
    },
    {
      "anonymous": false,
      "inputs": [
        {
          "indexed": true,
          "internalType": "address",
          "name": "previousOwner",
          "type": "address"
        },
        {
          "indexed": true,
          "internalType": "address",
          "name": "newOwner",
          "type": "address"
        }
      ],
      "name": "OwnershipTransferred",
      "type": "event"
    },
    {
      "anonymous": false,
      "inputs": [
        {
          "indexed": false,
          "internalType": "address",
          "name": "account",
          "type": "address"
        }
      ],
      "name": "Paused",
      "type": "event"
    },
    {
      "anonymous": false,
      "inputs": [
        {
          "indexed": false,
          "internalType": "uint256",
          "name": "oldA",
          "type": "uint256"
        },
        {
          "indexed": false,
          "internalType": "uint256",
          "name": "newA",
          "type": "uint256"
        },
        {
          "indexed": false,
          "internalType": "uint256",
          "name": "initialTime",
          "type": "uint256"
        },
        {
          "indexed": false,
          "internalType": "uint256",
          "name": "futureTime",
          "type": "uint256"
        }
      ],
      "name": "RampA",
      "type": "event"
    },
    {
      "anonymous": false,
      "inputs": [
        {
          "indexed": true,
          "internalType": "address",
          "name": "provider",
          "type": "address"
        },
        {
          "indexed": false,
          "internalType": "uint256[]",
          "name": "tokenAmounts",
          "type": "uint256[]"
        },
        {
          "indexed": false,
          "internalType": "uint256",
          "name": "lpTokenSupply",
          "type": "uint256"
        }
      ],
      "name": "RemoveLiquidity",
      "type": "event"
    },
    {
      "anonymous": false,
      "inputs": [
        {
          "indexed": true,
          "internalType": "address",
          "name": "provider",
          "type": "address"
        },
        {
          "indexed": false,
          "internalType": "uint256[]",
          "name": "tokenAmounts",
          "type": "uint256[]"
        },
        {
          "indexed": false,
          "internalType": "uint256[]",
          "name": "fees",
          "type": "uint256[]"
        },
        {
          "indexed": false,
          "internalType": "uint256",
          "name": "invariant",
          "type": "uint256"
        },
        {
          "indexed": false,
          "internalType": "uint256",
          "name": "lpTokenSupply",
          "type": "uint256"
        }
      ],
      "name": "RemoveLiquidityImbalance",
      "type": "event"
    },
    {
      "anonymous": false,
      "inputs": [
        {
          "indexed": true,
          "internalType": "address",
          "name": "provider",
          "type": "address"
        },
        {
          "indexed": false,
          "internalType": "uint256",
          "name": "lpTokenAmount",
          "type": "uint256"
        },
        {
          "indexed": false,
          "internalType": "uint256",
          "name": "lpTokenSupply",
          "type": "uint256"
        },
        {
          "indexed": false,
          "internalType": "uint256",
          "name": "boughtId",
          "type": "uint256"
        },
        {
          "indexed": false,
          "internalType": "uint256",
          "name": "tokensBought",
          "type": "uint256"
        }
      ],
      "name": "RemoveLiquidityOne",
      "type": "event"
    },
    {
      "anonymous": false,
      "inputs": [
        {
          "indexed": false,
          "internalType": "uint256",
          "name": "currentA",
          "type": "uint256"
        },
        {
          "indexed": false,
          "internalType": "uint256",
          "name": "time",
          "type": "uint256"
        }
      ],
      "name": "StopRampA",
      "type": "event"
    },
    {
      "anonymous": false,
      "inputs": [
        {
          "indexed": true,
          "internalType": "address",
          "name": "buyer",
          "type": "address"
        },
        {
          "indexed": false,
          "internalType": "uint256",
          "name": "tokensSold",
          "type": "uint256"
        },
        {
          "indexed": false,
          "internalType": "uint256",
          "name": "tokensBought",
          "type": "uint256"
        },
        {
          "indexed": false,
          "internalType": "uint128",
          "name": "soldId",
          "type": "uint128"
        },
        {
          "indexed": false,
          "internalType": "uint128",
          "name": "boughtId",
          "type": "uint128"
        }
      ],
      "name": "TokenSwap",
      "type": "event"
    },
    {
      "anonymous": false,
      "inputs": [
        {
          "indexed": false,
          "internalType": "address",
          "name": "account",
          "type": "address"
        }
      ],
      "name": "Unpaused",
      "type": "event"
    },
    {
      "inputs": [],
      "name": "MAX_BPS",
      "outputs": [
        {
          "internalType": "uint256",
          "name": "",
          "type": "uint256"
        }
      ],
      "stateMutability": "view",
      "type": "function"
    },
    {
      "inputs": [
        {
          "internalType": "uint256[]",
          "name": "amounts",
          "type": "uint256[]"
        },
        {
          "internalType": "uint256",
          "name": "minToMint",
          "type": "uint256"
        },
        {
          "internalType": "uint256",
          "name": "deadline",
          "type": "uint256"
        }
      ],
      "name": "addLiquidity",
      "outputs": [
        {
          "internalType": "uint256",
          "name": "",
          "type": "uint256"
        }
      ],
      "stateMutability": "nonpayable",
      "type": "function"
    },
    {
      "inputs": [
        {
          "internalType": "address",
          "name": "user",
          "type": "address"
        }
      ],
      "name": "calculateCurrentWithdrawFee",
      "outputs": [
        {
          "internalType": "uint256",
          "name": "",
          "type": "uint256"
        }
      ],
      "stateMutability": "view",
      "type": "function"
    },
    {
      "inputs": [
        {
          "internalType": "address",
          "name": "account",
          "type": "address"
        },
        {
          "internalType": "uint256",
          "name": "amount",
          "type": "uint256"
        }
      ],
      "name": "calculateRemoveLiquidity",
      "outputs": [
        {
          "internalType": "uint256[]",
          "name": "",
          "type": "uint256[]"
        }
      ],
      "stateMutability": "view",
      "type": "function"
    },
    {
      "inputs": [
        {
          "internalType": "address",
          "name": "account",
          "type": "address"
        },
        {
          "internalType": "uint256",
          "name": "tokenAmount",
          "type": "uint256"
        },
        {
          "internalType": "uint8",
          "name": "tokenIndex",
          "type": "uint8"
        }
      ],
      "name": "calculateRemoveLiquidityOneToken",
      "outputs": [
        {
          "internalType": "uint256",
          "name": "availableTokenAmount",
          "type": "uint256"
        }
      ],
      "stateMutability": "view",
      "type": "function"
    },
    {
      "inputs": [
        {
          "internalType": "uint8",
          "name": "tokenIndexFrom",
          "type": "uint8"
        },
        {
          "internalType": "uint8",
          "name": "tokenIndexTo",
          "type": "uint8"
        },
        {
          "internalType": "uint256",
          "name": "dx",
          "type": "uint256"
        }
      ],
      "name": "calculateSwap",
      "outputs": [
        {
          "internalType": "uint256",
          "name": "",
          "type": "uint256"
        }
      ],
      "stateMutability": "view",
      "type": "function"
    },
    {
      "inputs": [
        {
          "internalType": "address",
          "name": "account",
          "type": "address"
        },
        {
          "internalType": "uint256[]",
          "name": "amounts",
          "type": "uint256[]"
        },
        {
          "internalType": "bool",
          "name": "deposit",
          "type": "bool"
        }
      ],
      "name": "calculateTokenAmount",
      "outputs": [
        {
          "internalType": "uint256",
          "name": "",
          "type": "uint256"
        }
      ],
      "stateMutability": "view",
      "type": "function"
    },
    {
      "inputs": [
        {
          "internalType": "address",
          "name": "receiver",
          "type": "address"
        },
        {
          "internalType": "contract IERC20",
          "name": "token",
          "type": "address"
        },
        {
          "internalType": "uint256",
          "name": "amount",
          "type": "uint256"
        },
        {
          "internalType": "bytes",
          "name": "params",
          "type": "bytes"
        }
      ],
      "name": "flashLoan",
      "outputs": [],
      "stateMutability": "nonpayable",
      "type": "function"
    },
    {
      "inputs": [],
      "name": "flashLoanFeeBPS",
      "outputs": [
        {
          "internalType": "uint256",
          "name": "",
          "type": "uint256"
        }
      ],
      "stateMutability": "view",
      "type": "function"
    },
    {
      "inputs": [],
      "name": "getA",
      "outputs": [
        {
          "internalType": "uint256",
          "name": "",
          "type": "uint256"
        }
      ],
      "stateMutability": "view",
      "type": "function"
    },
    {
      "inputs": [],
      "name": "getAPrecise",
      "outputs": [
        {
          "internalType": "uint256",
          "name": "",
          "type": "uint256"
        }
      ],
      "stateMutability": "view",
      "type": "function"
    },
    {
      "inputs": [
        {
          "internalType": "uint256",
          "name": "index",
          "type": "uint256"
        }
      ],
      "name": "getAdminBalance",
      "outputs": [
        {
          "internalType": "uint256",
          "name": "",
          "type": "uint256"
        }
      ],
      "stateMutability": "view",
      "type": "function"
    },
    {
      "inputs": [
        {
          "internalType": "address",
          "name": "user",
          "type": "address"
        }
      ],
      "name": "getDepositTimestamp",
      "outputs": [
        {
          "internalType": "uint256",
          "name": "",
          "type": "uint256"
        }
      ],
      "stateMutability": "view",
      "type": "function"
    },
    {
      "inputs": [
        {
          "internalType": "uint8",
          "name": "index",
          "type": "uint8"
        }
      ],
      "name": "getToken",
      "outputs": [
        {
          "internalType": "contract IERC20",
          "name": "",
          "type": "address"
        }
      ],
      "stateMutability": "view",
      "type": "function"
    },
    {
      "inputs": [
        {
          "internalType": "uint8",
          "name": "index",
          "type": "uint8"
        }
      ],
      "name": "getTokenBalance",
      "outputs": [
        {
          "internalType": "uint256",
          "name": "",
          "type": "uint256"
        }
      ],
      "stateMutability": "view",
      "type": "function"
    },
    {
      "inputs": [
        {
          "internalType": "address",
          "name": "tokenAddress",
          "type": "address"
        }
      ],
      "name": "getTokenIndex",
      "outputs": [
        {
          "internalType": "uint8",
          "name": "",
          "type": "uint8"
        }
      ],
      "stateMutability": "view",
      "type": "function"
    },
    {
      "inputs": [],
      "name": "getVirtualPrice",
      "outputs": [
        {
          "internalType": "uint256",
          "name": "",
          "type": "uint256"
        }
      ],
      "stateMutability": "view",
      "type": "function"
    },
    {
      "inputs": [
        {
          "internalType": "contract IERC20[]",
          "name": "_pooledTokens",
          "type": "address[]"
        },
        {
          "internalType": "uint8[]",
          "name": "decimals",
          "type": "uint8[]"
        },
        {
          "internalType": "string",
          "name": "lpTokenName",
          "type": "string"
        },
        {
          "internalType": "string",
          "name": "lpTokenSymbol",
          "type": "string"
        },
        {
          "internalType": "uint256",
          "name": "_a",
          "type": "uint256"
        },
        {
          "internalType": "uint256",
          "name": "_fee",
          "type": "uint256"
        },
        {
          "internalType": "uint256",
          "name": "_adminFee",
          "type": "uint256"
        },
        {
          "internalType": "uint256",
          "name": "_withdrawFee",
          "type": "uint256"
        },
        {
          "internalType": "address",
          "name": "lpTokenTargetAddress",
          "type": "address"
        }
      ],
      "name": "initialize",
      "outputs": [
        {
          "internalType": "address",
          "name": "newLpToken",
          "type": "address"
        }
      ],
      "stateMutability": "nonpayable",
      "type": "function"
    },
    {
      "inputs": [],
      "name": "owner",
      "outputs": [
        {
          "internalType": "address",
          "name": "",
          "type": "address"
        }
      ],
      "stateMutability": "view",
      "type": "function"
    },
    {
      "inputs": [],
      "name": "pause",
      "outputs": [],
      "stateMutability": "nonpayable",
      "type": "function"
    },
    {
      "inputs": [],
      "name": "paused",
      "outputs": [
        {
          "internalType": "bool",
          "name": "",
          "type": "bool"
        }
      ],
      "stateMutability": "view",
      "type": "function"
    },
    {
      "inputs": [],
      "name": "protocolFeeShareBPS",
      "outputs": [
        {
          "internalType": "uint256",
          "name": "",
          "type": "uint256"
        }
      ],
      "stateMutability": "view",
      "type": "function"
    },
    {
      "inputs": [
        {
          "internalType": "uint256",
          "name": "futureA",
          "type": "uint256"
        },
        {
          "internalType": "uint256",
          "name": "futureTime",
          "type": "uint256"
        }
      ],
      "name": "rampA",
      "outputs": [],
      "stateMutability": "nonpayable",
      "type": "function"
    },
    {
      "inputs": [
        {
          "internalType": "uint256",
          "name": "amount",
          "type": "uint256"
        },
        {
          "internalType": "uint256[]",
          "name": "minAmounts",
          "type": "uint256[]"
        },
        {
          "internalType": "uint256",
          "name": "deadline",
          "type": "uint256"
        }
      ],
      "name": "removeLiquidity",
      "outputs": [
        {
          "internalType": "uint256[]",
          "name": "",
          "type": "uint256[]"
        }
      ],
      "stateMutability": "nonpayable",
      "type": "function"
    },
    {
      "inputs": [
        {
          "internalType": "uint256[]",
          "name": "amounts",
          "type": "uint256[]"
        },
        {
          "internalType": "uint256",
          "name": "maxBurnAmount",
          "type": "uint256"
        },
        {
          "internalType": "uint256",
          "name": "deadline",
          "type": "uint256"
        }
      ],
      "name": "removeLiquidityImbalance",
      "outputs": [
        {
          "internalType": "uint256",
          "name": "",
          "type": "uint256"
        }
      ],
      "stateMutability": "nonpayable",
      "type": "function"
    },
    {
      "inputs": [
        {
          "internalType": "uint256",
          "name": "tokenAmount",
          "type": "uint256"
        },
        {
          "internalType": "uint8",
          "name": "tokenIndex",
          "type": "uint8"
        },
        {
          "internalType": "uint256",
          "name": "minAmount",
          "type": "uint256"
        },
        {
          "internalType": "uint256",
          "name": "deadline",
          "type": "uint256"
        }
      ],
      "name": "removeLiquidityOneToken",
      "outputs": [
        {
          "internalType": "uint256",
          "name": "",
          "type": "uint256"
        }
      ],
      "stateMutability": "nonpayable",
      "type": "function"
    },
    {
      "inputs": [],
      "name": "renounceOwnership",
      "outputs": [],
      "stateMutability": "nonpayable",
      "type": "function"
    },
    {
      "inputs": [
        {
          "internalType": "uint256",
          "name": "newAdminFee",
          "type": "uint256"
        }
      ],
      "name": "setAdminFee",
      "outputs": [],
      "stateMutability": "nonpayable",
      "type": "function"
    },
    {
      "inputs": [
        {
          "internalType": "uint256",
          "name": "newWithdrawFee",
          "type": "uint256"
        }
      ],
      "name": "setDefaultWithdrawFee",
      "outputs": [],
      "stateMutability": "nonpayable",
      "type": "function"
    },
    {
      "inputs": [
        {
          "internalType": "uint256",
          "name": "newFlashLoanFeeBPS",
          "type": "uint256"
        },
        {
          "internalType": "uint256",
          "name": "newProtocolFeeShareBPS",
          "type": "uint256"
        }
      ],
      "name": "setFlashLoanFees",
      "outputs": [],
      "stateMutability": "nonpayable",
      "type": "function"
    },
    {
      "inputs": [
        {
          "internalType": "uint256",
          "name": "newSwapFee",
          "type": "uint256"
        }
      ],
      "name": "setSwapFee",
      "outputs": [],
      "stateMutability": "nonpayable",
      "type": "function"
    },
    {
      "inputs": [],
      "name": "stopRampA",
      "outputs": [],
      "stateMutability": "nonpayable",
      "type": "function"
    },
    {
      "inputs": [
        {
          "internalType": "uint8",
          "name": "tokenIndexFrom",
          "type": "uint8"
        },
        {
          "internalType": "uint8",
          "name": "tokenIndexTo",
          "type": "uint8"
        },
        {
          "internalType": "uint256",
          "name": "dx",
          "type": "uint256"
        },
        {
          "internalType": "uint256",
          "name": "minDy",
          "type": "uint256"
        },
        {
          "internalType": "uint256",
          "name": "deadline",
          "type": "uint256"
        }
      ],
      "name": "swap",
      "outputs": [
        {
          "internalType": "uint256",
          "name": "",
          "type": "uint256"
        }
      ],
      "stateMutability": "nonpayable",
      "type": "function"
    },
    {
      "inputs": [],
      "name": "swapStorage",
      "outputs": [
        {
          "internalType": "uint256",
          "name": "initialA",
          "type": "uint256"
        },
        {
          "internalType": "uint256",
          "name": "futureA",
          "type": "uint256"
        },
        {
          "internalType": "uint256",
          "name": "initialATime",
          "type": "uint256"
        },
        {
          "internalType": "uint256",
          "name": "futureATime",
          "type": "uint256"
        },
        {
          "internalType": "uint256",
          "name": "swapFee",
          "type": "uint256"
        },
        {
          "internalType": "uint256",
          "name": "adminFee",
          "type": "uint256"
        },
        {
          "internalType": "uint256",
          "name": "defaultWithdrawFee",
          "type": "uint256"
        },
        {
          "internalType": "contract LPTokenV1",
          "name": "lpToken",
          "type": "address"
        }
      ],
      "stateMutability": "view",
      "type": "function"
    },
    {
      "inputs": [
        {
          "internalType": "address",
          "name": "newOwner",
          "type": "address"
        }
      ],
      "name": "transferOwnership",
      "outputs": [],
      "stateMutability": "nonpayable",
      "type": "function"
    },
    {
      "inputs": [],
      "name": "unpause",
      "outputs": [],
      "stateMutability": "nonpayable",
      "type": "function"
    },
    {
      "inputs": [
        {
          "internalType": "address",
          "name": "recipient",
          "type": "address"
        },
        {
          "internalType": "uint256",
          "name": "transferAmount",
          "type": "uint256"
        }
      ],
      "name": "updateUserWithdrawFee",
      "outputs": [],
      "stateMutability": "nonpayable",
      "type": "function"
    },
    {
      "inputs": [],
      "name": "withdrawAdminFees",
      "outputs": [],
      "stateMutability": "nonpayable",
      "type": "function"
    }
  ],
  "bytecode": "0x608060405234801561001057600080fd5b50613ad6806100206000396000f3fe608060405234801561001057600080fd5b50600436106102325760003560e01c80638beb60b611610130578063d46300fd116100b8578063ef0a712f1161007c578063ef0a712f14610a59578063ef81596714610a76578063f2fde38b14610a99578063f9273ffb14610abf578063fd967f4714610b3f57610232565b8063d46300fd146107cd578063da7a77be146107d5578063df3ed68d146107fb578063e25aa5fa14610a49578063e8cc7fb614610a5157610232565b806398899f40116100ff57806398899f4014610717578063a95b089f1461074c578063ac5bf2631461077c578063c00c125c14610799578063c4db7fa0146107c557610232565b80638beb60b6146106965780638da5cb5b146106b357806391695586146106bb57806391ceb3eb146106f757610232565b80635c975abb116101be5780637c61e561116101825780637c61e561146105aa5780637f1c825a146105d657806382b86600146105de5780638456cb591461061a57806384cdd9bc1461062257610232565b80635c975abb146104345780635cffe9de146104505780635fd65f0f1461051457806366c0bd2414610566578063715018a6146105a257610232565b80633e3a1560116102055780633e3a15601461033d5780633f4ba83a1461036f5780634a1b0d57146103775780634d49e87d1461039d578063593d132c1461041157610232565b80630419b45a146102375780630ba819591461024157806331cd52b01461025b57806334e1990714610320575b600080fd5b61023f610b47565b005b610249610c2b565b60408051918252519081900360200190f35b6102d06004803603606081101561027157600080fd5b81359190810190604081016020820135600160201b81111561029257600080fd5b8201836020820111156102a457600080fd5b803590602001918460208302840111600160201b831117156102c557600080fd5b919350915035610cb0565b60408051602080825283518183015283519192839290830191858101910280838360005b8381101561030c5781810151838201526020016102f4565b505050509050019250505060405180910390f35b61023f6004803603602081101561033657600080fd5b5035610eae565b6102496004803603608081101561035357600080fd5b5080359060ff6020820135169060408101359060600135610f84565b61023f61110b565b6102496004803603602081101561038d57600080fd5b50356001600160a01b0316611177565b610249600480360360608110156103b357600080fd5b810190602081018135600160201b8111156103cd57600080fd5b8201836020820111156103df57600080fd5b803590602001918460208302840111600160201b8311171561040057600080fd5b919350915080359060200135611210565b61023f6004803603604081101561042757600080fd5b5080359060200135611384565b61043c611462565b604080519115158252519081900360200190f35b61023f6004803603608081101561046657600080fd5b6001600160a01b03823581169260208101359091169160408201359190810190608081016060820135600160201b8111156104a057600080fd5b8201836020820111156104b257600080fd5b803590602001918460018302840111600160201b831117156104d357600080fd5b91908080601f01602080910402602001604051908101604052809392919081815260200183838082843760009201919091525092955061146b945050505050565b61051c611943565b604080519889526020890197909752878701959095526060870193909352608086019190915260a085015260c08401526001600160a01b031660e083015251908190036101000190f35b61058c6004803603602081101561057c57600080fd5b50356001600160a01b0316611967565b6040805160ff9092168252519081900360200190f35b61023f6119e9565b6102d0600480360360408110156105c057600080fd5b506001600160a01b038135169060200135611a95565b610249611bd0565b6105fe600480360360208110156105f457600080fd5b503560ff16611bd6565b604080516001600160a01b039092168252519081900360200190f35b61023f611c4d565b6102496004803603606081101561063857600080fd5b810190602081018135600160201b81111561065257600080fd5b82018360208201111561066457600080fd5b803590602001918460208302840111600160201b8311171561068557600080fd5b919350915080359060200135611cb7565b61023f600480360360208110156106ac57600080fd5b5035611e2b565b6105fe611ee6565b610249600480360360a08110156106d157600080fd5b5060ff813581169160208101359091169060408101359060608101359060800135611ef5565b6102496004803603602081101561070d57600080fd5b503560ff16612085565b6102496004803603606081101561072d57600080fd5b5080356001600160a01b0316906020810135906040013560ff166120f9565b6102496004803603606081101561076257600080fd5b5060ff8135811691602081013590911690604001356121a2565b61023f6004803603602081101561079257600080fd5b5035612210565b61023f600480360360408110156107af57600080fd5b506001600160a01b0381351690602001356122c9565b61023f612390565b610249612444565b610249600480360360208110156107eb57600080fd5b50356001600160a01b0316612498565b6105fe600480360361012081101561081257600080fd5b810190602081018135600160201b81111561082c57600080fd5b82018360208201111561083e57600080fd5b803590602001918460208302840111600160201b8311171561085f57600080fd5b9190808060200260200160405190810160405280939291908181526020018383602002808284376000920191909152509295949360208101935035915050600160201b8111156108ae57600080fd5b8201836020820111156108c057600080fd5b803590602001918460208302840111600160201b831117156108e157600080fd5b9190808060200260200160405190810160405280939291908181526020018383602002808284376000920191909152509295949360208101935035915050600160201b81111561093057600080fd5b82018360208201111561094257600080fd5b803590602001918460018302840111600160201b8311171561096357600080fd5b91908080601f0160208091040260200160405190810160405280939291908181526020018383808284376000920191909152509295949360208101935035915050600160201b8111156109b557600080fd5b8201836020820111156109c757600080fd5b803590602001918460018302840111600160201b831117156109e857600080fd5b91908080601f01602080910402602001604051908101604052809392919081815260200183838082843760009201919091525092955050823593505050602081013590604081013590606081013590608001356001600160a01b03166124fd565b6102496125c8565b61024961261c565b61024960048036036020811015610a6f57600080fd5b5035612622565b61023f60048036036040811015610a8c57600080fd5b508035906020013561267e565b61023f60048036036020811015610aaf57600080fd5b50356001600160a01b031661275c565b61024960048036036060811015610ad557600080fd5b6001600160a01b038235169190810190604081016020820135600160201b811115610aff57600080fd5b820183602082011115610b1157600080fd5b803590602001918460208302840111600160201b83111715610b3257600080fd5b919350915035151561285f565b61024961293a565b610b4f612940565b6001600160a01b0316610b60611ee6565b6001600160a01b031614610ba9576040805162461bcd60e51b81526020600482018190526024820152600080516020613a81833981519152604482015290519081900360640190fd5b73__$3d8943172617188eaa5b74309e84fcbdc0$__636d42928860c9610bcd611ee6565b6040518363ffffffff1660e01b815260040180838152602001826001600160a01b031681526020019250505060006040518083038186803b158015610c1157600080fd5b505af4158015610c25573d6000803e3d6000fd5b50505050565b600060c973__$9bd6acf1c6fa149487beea884895d1a2f1$__6399afe2fa90916040518263ffffffff1660e01b81526004018082815260200191505060206040518083038186803b158015610c7f57600080fd5b505af4158015610c93573d6000803e3d6000fd5b505050506040513d6020811015610ca957600080fd5b5051905090565b606060026097541415610cf8576040805162461bcd60e51b815260206004820152601f60248201526000805160206139ec833981519152604482015290519081900360640190fd5b60026097558142811015610d46576040805162461bcd60e51b815260206004820152601060248201526f111958591b1a5b99481b9bdd081b595d60821b604482015290519081900360640190fd5b60c973__$3d8943172617188eaa5b74309e84fcbdc0$__636b114d9b90918888886040518563ffffffff1660e01b815260040180858152602001848152602001806020018281038252848482818152602001925060200280828437600081840152601f19601f8201169050808301925050509550505050505060006040518083038186803b158015610dd757600080fd5b505af4158015610deb573d6000803e3d6000fd5b505050506040513d6000823e601f3d908101601f191682016040526020811015610e1457600080fd5b8101908080516040519392919084600160201b821115610e3357600080fd5b908301906020820185811115610e4857600080fd5b82518660208202830111600160201b82111715610e6457600080fd5b82525081516020918201928201910280838360005b83811015610e91578181015183820152602001610e79565b505050509050016040525050509150506001609755949350505050565b610eb6612940565b6001600160a01b0316610ec7611ee6565b6001600160a01b031614610f10576040805162461bcd60e51b81526020600482018190526024820152600080516020613a81833981519152604482015290519081900360640190fd5b60408051635dc650d760e11b815260c9600482015260248101839052905173__$3d8943172617188eaa5b74309e84fcbdc0$__9163bb8ca1ae916044808301926000929190829003018186803b158015610f6957600080fd5b505af4158015610f7d573d6000803e3d6000fd5b5050505050565b600060026097541415610fcc576040805162461bcd60e51b815260206004820152601f60248201526000805160206139ec833981519152604482015290519081900360640190fd5b6002609755610fd9611462565b1561101e576040805162461bcd60e51b815260206004820152601060248201526f14185d5cd8589b194e881c185d5cd95960821b604482015290519081900360640190fd5b8180421115611067576040805162461bcd60e51b815260206004820152601060248201526f111958591b1a5b99481b9bdd081b595d60821b604482015290519081900360640190fd5b604080516373a0e73f60e01b815260c960048201526024810188905260ff8716604482015260648101869052905173__$3d8943172617188eaa5b74309e84fcbdc0$__916373a0e73f916084808301926020929190829003018186803b1580156110d057600080fd5b505af41580156110e4573d6000803e3d6000fd5b505050506040513d60208110156110fa57600080fd5b505160016097559695505050505050565b611113612940565b6001600160a01b0316611124611ee6565b6001600160a01b03161461116d576040805162461bcd60e51b81526020600482018190526024820152600080516020613a81833981519152604482015290519081900360640190fd5b611175612944565b565b6040805163becfcccd60e01b815260c960048201526001600160a01b0383166024820152905160009173__$3d8943172617188eaa5b74309e84fcbdc0$__9163becfcccd91604480820192602092909190829003018186803b1580156111dc57600080fd5b505af41580156111f0573d6000803e3d6000fd5b505050506040513d602081101561120657600080fd5b505190505b919050565b600060026097541415611258576040805162461bcd60e51b815260206004820152601f60248201526000805160206139ec833981519152604482015290519081900360640190fd5b6002609755611265611462565b156112aa576040805162461bcd60e51b815260206004820152601060248201526f14185d5cd8589b194e881c185d5cd95960821b604482015290519081900360640190fd5b81804211156112f3576040805162461bcd60e51b815260206004820152601060248201526f111958591b1a5b99481b9bdd081b595d60821b604482015290519081900360640190fd5b60c973__$3d8943172617188eaa5b74309e84fcbdc0$__6367ecb95590918888886040518563ffffffff1660e01b815260040180858152602001806020018381526020018281038252858582818152602001925060200280828437600081840152601f19601f8201169050808301925050509550505050505060206040518083038186803b1580156110d057600080fd5b61138c612940565b6001600160a01b031661139d611ee6565b6001600160a01b0316146113e6576040805162461bcd60e51b81526020600482018190526024820152600080516020613a81833981519152604482015290519081900360640190fd5b604080516315d0d54d60e01b815260c960048201526024810184905260448101839052905173__$9bd6acf1c6fa149487beea884895d1a2f1$__916315d0d54d916064808301926000929190829003018186803b15801561144657600080fd5b505af415801561145a573d6000803e3d6000fd5b505050505050565b60655460ff1690565b600260975414156114b1576040805162461bcd60e51b815260206004820152601f60248201526000805160206139ec833981519152604482015290519081900360640190fd5b600260975560006114c184611967565b90506000846001600160a01b03166370a08231306040518263ffffffff1660e01b815260040180826001600160a01b0316815260200191505060206040518083038186803b15801561151257600080fd5b505afa158015611526573d6000803e3d6000fd5b505050506040513d602081101561153c57600080fd5b505160d38054919250600091611574919060ff861690811061155a57fe5b9060005260206000200154836129e490919063ffffffff16565b90506000851180156115865750848210155b6115c8576040805162461bcd60e51b815260206004820152600e60248201526d1a5b9d985b1a5908185b5bdd5b9d60921b604482015290519081900360640190fd5b60006115eb6127106115e560d75489612a4190919063ffffffff16565b90612aa1565b9050600061160a6127106115e560d85485612a4190919063ffffffff16565b905060008211611661576040805162461bcd60e51b815260206004820152601f60248201527f616d6f756e7420697320736d616c6c20666f72206120666c6173684c6f616e00604482015290519081900360640190fd5b876001600160a01b031663a9059cbb8a896040518363ffffffff1660e01b815260040180836001600160a01b0316815260200182815260200192505050602060405180830381600087803b1580156116b857600080fd5b505af11580156116cc573d6000803e3d6000fd5b505050506040513d60208110156116e257600080fd5b505060405163405b019d60e01b815230600482018181526001600160a01b038b81166024850152604484018b90526064840186905260a0608485019081528a5160a48601528a51918e169463405b019d94938e938e938a938f939260c490910190602085019080838360005b8381101561176657818101518382015260200161174e565b50505050905090810190601f1680156117935780820380516001836020036101000a031916815260200191505b509650505050505050600060405180830381600087803b1580156117b657600080fd5b505af11580156117ca573d6000803e3d6000fd5b505050506000886001600160a01b03166370a08231306040518263ffffffff1660e01b815260040180826001600160a01b0316815260200191505060206040518083038186803b15801561181d57600080fd5b505afa158015611831573d6000803e3d6000fd5b505050506040513d602081101561184757600080fd5b505190506118558584612b08565b8110156118a9576040805162461bcd60e51b815260206004820152601860248201527f666c6173684c6f616e20666565206973206e6f74206d65740000000000000000604482015290519081900360640190fd5b6118bd826118b783876129e4565b906129e4565b60d3805460ff89169081106118ce57fe5b600091825260209182902001919091556040805160ff891681529182018a905281810185905260608201849052516001600160a01b038c16917f7c186b2827b23e9024e7b29869cba58a97a4bac6567802a8ea6a8afa7b8c22f0919081900360800190a2505060016097555050505050505050565b60c95460ca5460cb5460cc5460cd5460ce5460cf5460d0546001600160a01b031688565b6001600160a01b038116600081815260d66020526040812054909160ff9091169061199182611bd6565b6001600160a01b0316146119e3576040805162461bcd60e51b8152602060048201526014602482015273151bdad95b88191bd95cc81b9bdd08195e1a5cdd60621b604482015290519081900360640190fd5b92915050565b6119f1612940565b6001600160a01b0316611a02611ee6565b6001600160a01b031614611a4b576040805162461bcd60e51b81526020600482018190526024820152600080516020613a81833981519152604482015290519081900360640190fd5b6033546040516000916001600160a01b0316907f8be0079c531659141344cd1fd0a4f28419497f9722a3daafe3b4186f6b6457e0908390a3603380546001600160a01b0319169055565b60408051633e94574960e11b815260c960048201526001600160a01b038416602482015260448101839052905160609173__$3d8943172617188eaa5b74309e84fcbdc0$__91637d28ae9291606480820192600092909190829003018186803b158015611b0157600080fd5b505af4158015611b15573d6000803e3d6000fd5b505050506040513d6000823e601f3d908101601f191682016040526020811015611b3e57600080fd5b8101908080516040519392919084600160201b821115611b5d57600080fd5b908301906020820185811115611b7257600080fd5b82518660208202830111600160201b82111715611b8e57600080fd5b82525081516020918201928201910280838360005b83811015611bbb578181015183820152602001611ba3565b50505050905001604052505050905092915050565b60d75481565b60d15460009060ff831610611c21576040805162461bcd60e51b815260206004820152600c60248201526b4f7574206f662072616e676560a01b604482015290519081900360640190fd5b60d1805460ff8416908110611c3257fe5b6000918252602090912001546001600160a01b031692915050565b611c55612940565b6001600160a01b0316611c66611ee6565b6001600160a01b031614611caf576040805162461bcd60e51b81526020600482018190526024820152600080516020613a81833981519152604482015290519081900360640190fd5b611175612b62565b600060026097541415611cff576040805162461bcd60e51b815260206004820152601f60248201526000805160206139ec833981519152604482015290519081900360640190fd5b6002609755611d0c611462565b15611d51576040805162461bcd60e51b815260206004820152601060248201526f14185d5cd8589b194e881c185d5cd95960821b604482015290519081900360640190fd5b8180421115611d9a576040805162461bcd60e51b815260206004820152601060248201526f111958591b1a5b99481b9bdd081b595d60821b604482015290519081900360640190fd5b60c973__$3d8943172617188eaa5b74309e84fcbdc0$__63cc09aa9a90918888886040518563ffffffff1660e01b815260040180858152602001806020018381526020018281038252858582818152602001925060200280828437600081840152601f19601f8201169050808301925050509550505050505060206040518083038186803b1580156110d057600080fd5b611e33612940565b6001600160a01b0316611e44611ee6565b6001600160a01b031614611e8d576040805162461bcd60e51b81526020600482018190526024820152600080516020613a81833981519152604482015290519081900360640190fd5b60408051638e8b53b760e01b815260c9600482015260248101839052905173__$3d8943172617188eaa5b74309e84fcbdc0$__91638e8b53b7916044808301926000929190829003018186803b158015610f6957600080fd5b6033546001600160a01b031690565b600060026097541415611f3d576040805162461bcd60e51b815260206004820152601f60248201526000805160206139ec833981519152604482015290519081900360640190fd5b6002609755611f4a611462565b15611f8f576040805162461bcd60e51b815260206004820152601060248201526f14185d5cd8589b194e881c185d5cd95960821b604482015290519081900360640190fd5b8180421115611fd8576040805162461bcd60e51b815260206004820152601060248201526f111958591b1a5b99481b9bdd081b595d60821b604482015290519081900360640190fd5b6040805163378fab0f60e21b815260c9600482015260ff808a166024830152881660448201526064810187905260848101869052905173__$3d8943172617188eaa5b74309e84fcbdc0$__9163de3eac3c9160a4808301926020929190829003018186803b15801561204957600080fd5b505af415801561205d573d6000803e3d6000fd5b505050506040513d602081101561207357600080fd5b50516001609755979650505050505050565b60d15460009060ff8316106120d6576040805162461bcd60e51b8152602060048201526012602482015271496e646578206f7574206f662072616e676560701b604482015290519081900360640190fd5b60d3805460ff84169081106120e757fe5b90600052602060002001549050919050565b604080516350c8229b60e11b815260c960048201526001600160a01b03851660248201526044810184905260ff83166064820152905160009173__$3d8943172617188eaa5b74309e84fcbdc0$__9163a190453691608480820192602092909190829003018186803b15801561216e57600080fd5b505af4158015612182573d6000803e3d6000fd5b505050506040513d602081101561219857600080fd5b5051949350505050565b60408051633efb4cfd60e01b815260c9600482015260ff80861660248301528416604482015260648101839052905160009173__$3d8943172617188eaa5b74309e84fcbdc0$__91633efb4cfd91608480820192602092909190829003018186803b15801561216e57600080fd5b612218612940565b6001600160a01b0316612229611ee6565b6001600160a01b031614612272576040805162461bcd60e51b81526020600482018190526024820152600080516020613a81833981519152604482015290519081900360640190fd5b6040805162f59a9560e01b815260c9600482015260248101839052905173__$3d8943172617188eaa5b74309e84fcbdc0$__9162f59a95916044808301926000929190829003018186803b158015610f6957600080fd5b60d0546001600160a01b03163314612328576040805162461bcd60e51b815260206004820152601b60248201527f4f6e6c792063616c6c61626c6520627920706f6f6c20746f6b656e0000000000604482015290519081900360640190fd5b60408051632272322d60e01b815260c960048201526001600160a01b038416602482015260448101839052905173__$3d8943172617188eaa5b74309e84fcbdc0$__91632272322d916064808301926000929190829003018186803b15801561144657600080fd5b612398612940565b6001600160a01b03166123a9611ee6565b6001600160a01b0316146123f2576040805162461bcd60e51b81526020600482018190526024820152600080516020613a81833981519152604482015290519081900360640190fd5b6040805163efbd633f60e01b815260c96004820152905173__$9bd6acf1c6fa149487beea884895d1a2f1$__9163efbd633f916024808301926000929190829003018186803b158015610c1157600080fd5b600060c973__$9bd6acf1c6fa149487beea884895d1a2f1$__635088c83c90916040518263ffffffff1660e01b81526004018082815260200191505060206040518083038186803b158015610c7f57600080fd5b6040805163092e14e560e01b815260c960048201526001600160a01b0383166024820152905160009173__$3d8943172617188eaa5b74309e84fcbdc0$__9163092e14e591604480820192602092909190829003018186803b1580156111dc57600080fd5b60008054610100900460ff16806125175750612517612be5565b80612525575060005460ff16155b6125605760405162461bcd60e51b815260040180806020018281038252602e815260200180613a32602e913960400191505060405180910390fd5b600054610100900460ff1615801561258b576000805460ff1961ff0019909116610100171660011790555b600860d755600060d8556125a68b8b8b8b8b8b8b8b8b612bf6565b915080156125ba576000805461ff00191690555b509998505050505050505050565b600060c973__$3d8943172617188eaa5b74309e84fcbdc0$__635050b04090916040518263ffffffff1660e01b81526004018082815260200191505060206040518083038186803b158015610c7f57600080fd5b60d85481565b600060c973__$3d8943172617188eaa5b74309e84fcbdc0$__6364f219b09091846040518363ffffffff1660e01b8152600401808381526020018281526020019250505060206040518083038186803b1580156111dc57600080fd5b612686612940565b6001600160a01b0316612697611ee6565b6001600160a01b0316146126e0576040805162461bcd60e51b81526020600482018190526024820152600080516020613a81833981519152604482015290519081900360640190fd5b6000821180156126f257506127108211155b801561270057506127108111155b612751576040805162461bcd60e51b815260206004820152601b60248201527f6665657320617265206e6f7420696e2076616c69642072616e67650000000000604482015290519081900360640190fd5b60d79190915560d855565b612764612940565b6001600160a01b0316612775611ee6565b6001600160a01b0316146127be576040805162461bcd60e51b81526020600482018190526024820152600080516020613a81833981519152604482015290519081900360640190fd5b6001600160a01b0381166128035760405162461bcd60e51b8152600401808060200182810382526026815260200180613a0c6026913960400191505060405180910390fd5b6033546040516001600160a01b038084169216907f8be0079c531659141344cd1fd0a4f28419497f9722a3daafe3b4186f6b6457e090600090a3603380546001600160a01b0319166001600160a01b0392909216919091179055565b600060c973__$3d8943172617188eaa5b74309e84fcbdc0$__6348ab1a869091878787876040518663ffffffff1660e01b815260040180868152602001856001600160a01b031681526020018060200183151581526020018281038252858582818152602001925060200280828437600081840152601f19601f820116905080830192505050965050505050505060206040518083038186803b15801561290557600080fd5b505af4158015612919573d6000803e3d6000fd5b505050506040513d602081101561292f57600080fd5b505195945050505050565b61271081565b3390565b61294c611462565b612994576040805162461bcd60e51b815260206004820152601460248201527314185d5cd8589b194e881b9bdd081c185d5cd95960621b604482015290519081900360640190fd5b6065805460ff191690557f5db9ee0a495bf2e6ff9c91a7834c1ba4fdd244a5e8aa4e537bd38aeae4b073aa6129c7612940565b604080516001600160a01b039092168252519081900360200190a1565b600082821115612a3b576040805162461bcd60e51b815260206004820152601e60248201527f536166654d6174683a207375627472616374696f6e206f766572666c6f770000604482015290519081900360640190fd5b50900390565b600082612a50575060006119e3565b82820282848281612a5d57fe5b0414612a9a5760405162461bcd60e51b8152600401808060200182810382526021815260200180613a606021913960400191505060405180910390fd5b9392505050565b6000808211612af7576040805162461bcd60e51b815260206004820152601a60248201527f536166654d6174683a206469766973696f6e206279207a65726f000000000000604482015290519081900360640190fd5b818381612b0057fe5b049392505050565b600082820183811015612a9a576040805162461bcd60e51b815260206004820152601b60248201527f536166654d6174683a206164646974696f6e206f766572666c6f770000000000604482015290519081900360640190fd5b612b6a611462565b15612baf576040805162461bcd60e51b815260206004820152601060248201526f14185d5cd8589b194e881c185d5cd95960821b604482015290519081900360640190fd5b6065805460ff191660011790557f62e78cea01bee320cd4e420270b5ea74000d11b0c9f74754ebdbfc544b05a2586129c7612940565b6000612bf03061342f565b15905090565b60008054610100900460ff1680612c105750612c10612be5565b80612c1e575060005460ff16155b612c595760405162461bcd60e51b815260040180806020018281038252602e815260200180613a32602e913960400191505060405180910390fd5b600054610100900460ff16158015612c84576000805460ff1961ff0019909116610100171660011790555b612c8c613435565b612c946134ef565b60018b5111612cea576040805162461bcd60e51b815260206004820152601960248201527f5f706f6f6c6564546f6b656e732e6c656e677468203c3d203100000000000000604482015290519081900360640190fd5b60208b511115612d41576040805162461bcd60e51b815260206004820152601960248201527f5f706f6f6c6564546f6b656e732e6c656e677468203e20333200000000000000604482015290519081900360640190fd5b89518b5114612d97576040805162461bcd60e51b815260206004820152601f60248201527f5f706f6f6c6564546f6b656e7320646563696d616c73206d69736d6174636800604482015290519081900360640190fd5b60608a5167ffffffffffffffff81118015612db157600080fd5b50604051908082528060200260200182016040528015612ddb578160200160208202803683370190505b50905060005b8c518160ff16101561304c5760ff811615612ebd5760d660008e8360ff1681518110612e0957fe5b6020908102919091018101516001600160a01b031682528101919091526040016000205460ff16158015612e7957508c8160ff1681518110612e4757fe5b60200260200101516001600160a01b03168d600081518110612e6557fe5b60200260200101516001600160a01b031614155b612ebd576040805162461bcd60e51b815260206004820152601060248201526f4475706c696361746520746f6b656e7360801b604482015290519081900360640190fd5b60006001600160a01b03168d8260ff1681518110612ed757fe5b60200260200101516001600160a01b03161415612f3b576040805162461bcd60e51b815260206004820152601d60248201527f546865203020616464726573732069736e277420616e204552432d3230000000604482015290519081900360640190fd5b601260ff168c8260ff1681518110612f4f57fe5b602002602001015160ff161115612fad576040805162461bcd60e51b815260206004820152601a60248201527f546f6b656e20646563696d616c732065786365656473206d6178000000000000604482015290519081900360640190fd5b612fdd8c8260ff1681518110612fbf57fe5b602002602001015160ff16601260ff166129e490919063ffffffff16565b600a0a828260ff1681518110612fef57fe5b6020026020010181815250508060d660008f8460ff168151811061300f57fe5b6020908102919091018101516001600160a01b03168252810191909152604001600020805460ff191660ff92909216919091179055600101612de1565b50620f42408810613099576040805162461bcd60e51b81526020600482015260126024820152715f612065786365656473206d6178696d756d60701b604482015290519081900360640190fd5b6305f5e10087106130e8576040805162461bcd60e51b81526020600482015260146024820152735f6665652065786365656473206d6178696d756d60601b604482015290519081900360640190fd5b6402540be4008610613141576040805162461bcd60e51b815260206004820152601960248201527f5f61646d696e4665652065786365656473206d6178696d756d00000000000000604482015290519081900360640190fd5b6305f5e1008510613199576040805162461bcd60e51b815260206004820152601c60248201527f5f77697468647261774665652065786365656473206d6178696d756d00000000604482015290519081900360640190fd5b60006131a485613584565b9050806001600160a01b0316634cd88b768c8c6040518363ffffffff1660e01b8152600401808060200180602001838103835285818151815260200191508051906020019080838360005b838110156132075781810151838201526020016131ef565b50505050905090810190601f1680156132345780820380516001836020036101000a031916815260200191505b50838103825284518152845160209182019186019080838360005b8381101561326757818101518382015260200161324f565b50505050905090810190601f1680156132945780820380516001836020036101000a031916815260200191505b50945050505050602060405180830381600087803b1580156132b557600080fd5b505af11580156132c9573d6000803e3d6000fd5b505050506040513d60208110156132df57600080fd5b5051613332576040805162461bcd60e51b815260206004820152601c60248201527f636f756c64206e6f7420696e6974206c70546f6b656e20636c6f6e6500000000604482015290519081900360640190fd5b8060c960070160006101000a8154816001600160a01b0302191690836001600160a01b031602179055508c60c9600801908051906020019061337592919061390b565b5081516133899060d2906020850190613970565b508c5167ffffffffffffffff811180156133a257600080fd5b506040519080825280602002602001820160405280156133cc578160200160208202803683370190505b5080516133e19160d391602090910190613970565b506133ed896064612a41565b60c9556133fb896064612a41565b60ca5560cd88905560ce87905560cf86905592505080156125ba576000805461ff0019169055509998505050505050505050565b3b151590565b600054610100900460ff168061344e575061344e612be5565b8061345c575060005460ff16155b6134975760405162461bcd60e51b815260040180806020018281038252602e815260200180613a32602e913960400191505060405180910390fd5b600054610100900460ff161580156134c2576000805460ff1961ff0019909116610100171660011790555b6134ca613621565b6134d26136c1565b6134da6137ba565b80156134ec576000805461ff00191690555b50565b600054610100900460ff16806135085750613508612be5565b80613516575060005460ff16155b6135515760405162461bcd60e51b815260040180806020018281038252602e815260200180613a32602e913960400191505060405180910390fd5b600054610100900460ff1615801561357c576000805460ff1961ff0019909116610100171660011790555b6134da613865565b6000604051733d602d80600a3d3981f3363d3d373d3d3d363d7360601b81528260601b60148201526e5af43d82803e903d91602b57fd5bf360881b60288201526037816000f09150506001600160a01b03811661120b576040805162461bcd60e51b8152602060048201526016602482015275115490cc4c4d8dce8818dc99585d194819985a5b195960521b604482015290519081900360640190fd5b600054610100900460ff168061363a575061363a612be5565b80613648575060005460ff16155b6136835760405162461bcd60e51b815260040180806020018281038252602e815260200180613a32602e913960400191505060405180910390fd5b600054610100900460ff161580156134da576000805460ff1961ff00199091166101001716600117905580156134ec576000805461ff001916905550565b600054610100900460ff16806136da57506136da612be5565b806136e8575060005460ff16155b6137235760405162461bcd60e51b815260040180806020018281038252602e815260200180613a32602e913960400191505060405180910390fd5b600054610100900460ff1615801561374e576000805460ff1961ff0019909116610100171660011790555b6000613758612940565b603380546001600160a01b0319166001600160a01b038316908117909155604051919250906000907f8be0079c531659141344cd1fd0a4f28419497f9722a3daafe3b4186f6b6457e0908290a35080156134ec576000805461ff001916905550565b600054610100900460ff16806137d357506137d3612be5565b806137e1575060005460ff16155b61381c5760405162461bcd60e51b815260040180806020018281038252602e815260200180613a32602e913960400191505060405180910390fd5b600054610100900460ff16158015613847576000805460ff1961ff0019909116610100171660011790555b6065805460ff1916905580156134ec576000805461ff001916905550565b600054610100900460ff168061387e575061387e612be5565b8061388c575060005460ff16155b6138c75760405162461bcd60e51b815260040180806020018281038252602e815260200180613a32602e913960400191505060405180910390fd5b600054610100900460ff161580156138f2576000805460ff1961ff0019909116610100171660011790555b600160975580156134ec576000805461ff001916905550565b828054828255906000526020600020908101928215613960579160200282015b8281111561396057825182546001600160a01b0319166001600160a01b0390911617825560209092019160019091019061392b565b5061396c9291506139b7565b5090565b8280548282559060005260206000209081019282156139ab579160200282015b828111156139ab578251825591602001919060010190613990565b5061396c9291506139d6565b5b8082111561396c5780546001600160a01b03191681556001016139b8565b5b8082111561396c57600081556001016139d756fe5265656e7472616e637947756172643a207265656e7472616e742063616c6c004f776e61626c653a206e6577206f776e657220697320746865207a65726f2061646472657373496e697469616c697a61626c653a20636f6e747261637420697320616c726561647920696e697469616c697a6564536166654d6174683a206d756c7469706c69636174696f6e206f766572666c6f774f776e61626c653a2063616c6c6572206973206e6f7420746865206f776e6572a2646970667358221220267f28749080f2ff1641efda89863d64d31798e4502fc95f2d158fe5a192d1e364736f6c634300060c0033",
  "linkReferences": {
    "contracts/AmplificationUtilsV1.sol": {
      "AmplificationUtilsV1": [
        {
          "length": 20,
          "start": 3153
        },
        {
          "length": 20,
          "start": 5165
        },
        {
          "length": 20,
          "start": 9259
        },
        {
          "length": 20,
          "start": 9322
        }
      ]
    },
    "contracts/SwapUtilsV1.sol": {
      "SwapUtilsV1": [
        {
          "length": 20,
          "start": 3019
        },
        {
          "length": 20,
          "start": 3434
        },
        {
          "length": 20,
          "start": 3920
        },
        {
          "length": 20,
          "start": 4279
        },
        {
          "length": 20,
          "start": 4546
        },
        {
          "length": 20,
          "start": 4887
        },
        {
          "length": 20,
          "start": 6887
        },
        {
          "length": 20,
          "start": 7614
        },
        {
          "length": 20,
          "start": 7885
        },
        {
          "length": 20,
          "start": 8240
        },
        {
          "length": 20,
          "start": 8532
        },
        {
          "length": 20,
          "start": 8694
        },
        {
          "length": 20,
          "start": 8881
        },
        {
          "length": 20,
          "start": 9079
        },
        {
          "length": 20,
          "start": 9443
        },
        {
          "length": 20,
          "start": 9710
        },
        {
          "length": 20,
          "start": 9800
        },
        {
          "length": 20,
          "start": 10373
        }
      ]
    }
  },
  "deployedLinkReferences": {
    "contracts/AmplificationUtilsV1.sol": {
      "AmplificationUtilsV1": [
        {
          "length": 20,
          "start": 3121
        },
        {
          "length": 20,
          "start": 5133
        },
        {
          "length": 20,
          "start": 9227
        },
        {
          "length": 20,
          "start": 9290
        }
      ]
    },
    "contracts/SwapUtilsV1.sol": {
      "SwapUtilsV1": [
        {
          "length": 20,
          "start": 2987
        },
        {
          "length": 20,
          "start": 3402
        },
        {
          "length": 20,
          "start": 3888
        },
        {
          "length": 20,
          "start": 4247
        },
        {
          "length": 20,
          "start": 4514
        },
        {
          "length": 20,
          "start": 4855
        },
        {
          "length": 20,
          "start": 6855
        },
        {
          "length": 20,
          "start": 7582
        },
        {
          "length": 20,
          "start": 7853
        },
        {
          "length": 20,
          "start": 8208
        },
        {
          "length": 20,
          "start": 8500
        },
        {
          "length": 20,
          "start": 8662
        },
        {
          "length": 20,
          "start": 8849
        },
        {
          "length": 20,
          "start": 9047
        },
        {
          "length": 20,
          "start": 9411
        },
        {
          "length": 20,
          "start": 9678
        },
        {
          "length": 20,
          "start": 9768
        },
        {
          "length": 20,
          "start": 10341
        }
      ]
    }
  }
}