{
  "_format": "hh-sol-artifact-1",
  "contractName": "DummyImplementationV2",
  "sourceName": "contracts/contracts-v3_4/mocks/DummyImplementation.sol",
  "abi": [
    {
      "inputs": [],
      "name": "get",
      "outputs": [
        {
          "internalType": "bool",
          "name": "",
          "type": "bool"
        }
      ],
      "stateMutability": "pure",
      "type": "function"
    },
    {
      "inputs": [
        {
          "internalType": "uint256",
          "name": "_value",
          "type": "uint256"
        },
        {
          "internalType": "string",
          "name": "_text",
          "type": "string"
        },
        {
          "internalType": "uint256[]",
          "name": "_values",
          "type": "uint256[]"
        }
      ],
      "name": "initialize",
      "outputs": [],
      "stateMutability": "nonpayable",
      "type": "function"
    },
    {
      "inputs": [],
      "name": "initializeNonPayable",
      "outputs": [],
      "stateMutability": "nonpayable",
      "type": "function"
    },
    {
      "inputs": [
        {
          "internalType": "uint256",
          "name": "_value",
          "type": "uint256"
        }
      ],
      "name": "initializeNonPayableWithValue",
      "outputs": [],
      "stateMutability": "nonpayable",
      "type": "function"
    },
    {
      "inputs": [],
      "name": "initializePayable",
      "outputs": [],
      "stateMutability": "payable",
      "type": "function"
    },
    {
      "inputs": [
        {
          "internalType": "uint256",
          "name": "_value",
          "type": "uint256"
        }
      ],
      "name": "initializePayableWithValue",
      "outputs": [],
      "stateMutability": "payable",
      "type": "function"
    },
    {
      "inputs": [
        {
          "internalType": "uint256",
          "name": "newVal",
          "type": "uint256"
        }
      ],
      "name": "migrate",
      "outputs": [],
      "stateMutability": "payable",
      "type": "function"
    },
    {
      "inputs": [],
      "name": "reverts",
      "outputs": [],
      "stateMutability": "pure",
      "type": "function"
    },
    {
      "inputs": [],
      "name": "text",
      "outputs": [
        {
          "internalType": "string",
          "name": "",
          "type": "string"
        }
      ],
      "stateMutability": "view",
      "type": "function"
    },
    {
      "inputs": [],
      "name": "value",
      "outputs": [
        {
          "internalType": "uint256",
          "name": "",
          "type": "uint256"
        }
      ],
      "stateMutability": "view",
      "type": "function"
    },
    {
      "inputs": [
        {
          "internalType": "uint256",
          "name": "",
          "type": "uint256"
        }
      ],
      "name": "values",
      "outputs": [
        {
          "internalType": "uint256",
          "name": "",
          "type": "uint256"
        }
      ],
      "stateMutability": "view",
      "type": "function"
    },
    {
      "inputs": [],
      "name": "version",
      "outputs": [
        {
          "internalType": "string",
          "name": "",
          "type": "string"
        }
      ],
      "stateMutability": "pure",
      "type": "function"
    }
  ],
  "bytecode": "0x608060405234801561001057600080fd5b506105de806100206000396000f3fe6080604052600436106100a75760003560e01c80635e383d21116100645780635e383d21146101bb5780636d4ce63c146101e5578063763e28311461020e5780639fba1f9a14610231578063d31f8b6b14610239578063e79f5bee14610189576100a7565b80631f1bd692146100ac578063227367d5146101365780633bccbbc91461014d5780633fa4f24514610162578063454b06081461018957806354fd4d50146101a6575b600080fd5b3480156100b857600080fd5b506100c1610377565b6040805160208082528351818301528351919283929083019185019080838360005b838110156100fb5781810151838201526020016100e3565b50505050905090810190601f1680156101285780820380516001836020036101000a031916815260200191505b509250505060405180910390f35b34801561014257600080fd5b5061014b610404565b005b34801561015957600080fd5b5061014b61040b565b34801561016e57600080fd5b50610177610458565b60408051918252519081900360200190f35b61014b6004803603602081101561019f57600080fd5b503561045e565b3480156101b257600080fd5b506100c1610463565b3480156101c757600080fd5b50610177600480360360208110156101de57600080fd5b503561047f565b3480156101f157600080fd5b506101fa61049d565b604080519115158252519081900360200190f35b34801561021a57600080fd5b5061014b6004803603602081101561019f57600080fd5b61014b6104a2565b34801561024557600080fd5b5061014b6004803603606081101561025c57600080fd5b8135919081019060408101602082013564010000000081111561027e57600080fd5b82018360208201111561029057600080fd5b803590602001918460018302840111640100000000831117156102b257600080fd5b91908080601f016020809104026020016040519081016040528093929190818152602001838380828437600092019190915250929594936020810193503591505064010000000081111561030557600080fd5b82018360208201111561031757600080fd5b8035906020019184602083028401116401000000008311171561033957600080fd5b9190808060200260200160405190810160405280939291908181526020018383602002808284376000920191909152509295506104a9945050505050565b60018054604080516020600284861615610100026000190190941693909304601f810184900484028201840190925281815292918301828280156103fc5780601f106103d1576101008083540402835291602001916103fc565b820191906000526020600020905b8154815290600101906020018083116103df57829003601f168201915b505050505081565b600a600055565b6040805162461bcd60e51b815260206004820152601c60248201527f44756d6d79496d706c656d656e746174696f6e20726576657274656400000000604482015290519081900360640190fd5b60005481565b600055565b6040805180820190915260028152612b1960f11b602082015290565b6002818154811061048c57fe5b600091825260209091200154905081565b600190565b6064600055565b600083905581516104c19060019060208501906104db565b5080516104d5906002906020840190610559565b50505050565b828054600181600116156101000203166002900490600052602060002090601f016020900481019282601f1061051c57805160ff1916838001178555610549565b82800160010185558215610549579182015b8281111561054957825182559160200191906001019061052e565b50610555929150610593565b5090565b828054828255906000526020600020908101928215610549579160200282018281111561054957825182559160200191906001019061052e565b5b80821115610555576000815560010161059456fea264697066735822122011ff31bd59c2e75e54f158fcf877157cffb4bbd5f16846d58ba7a283d9c3dc4564736f6c634300060c0033",
  "linkReferences": {},
  "deployedLinkReferences": {}
}