{
  "_format": "hh-sol-artifact-1",
  "contractName": "SampleHuman",
  "sourceName": "contracts/contracts-upgradeable-v3_4/mocks/MultipleInheritanceInitializableMocks.sol",
  "abi": [
    {
      "inputs": [],
      "name": "initialize",
      "outputs": [],
      "stateMutability": "nonpayable",
      "type": "function"
    },
    {
      "inputs": [],
      "name": "isHuman",
      "outputs": [
        {
          "internalType": "bool",
          "name": "",
          "type": "bool"
        }
      ],
      "stateMutability": "view",
      "type": "function"
    }
  ],
  "bytecode": "0x608060405234801561001057600080fd5b5061019e806100206000396000f3fe608060405234801561001057600080fd5b50600436106100365760003560e01c80634a6c9db61461003b5780638129fc1c14610057575b600080fd5b610043610061565b604080519115158252519081900360200190f35b61005f610070565b005b60005462010000900460ff1681565b600054610100900460ff16806100895750610089610123565b80610097575060005460ff16155b6100d25760405162461bcd60e51b815260040180806020018281038252602e81526020018061013b602e913960400191505060405180910390fd5b600054610100900460ff161580156100fd576000805460ff1961ff0019909116610100171660011790555b6000805462ff00001916620100001790558015610120576000805461ff00191690555b50565b600061012e30610134565b15905090565b3b15159056fe496e697469616c697a61626c653a20636f6e747261637420697320616c726561647920696e697469616c697a6564a2646970667358221220a97226a7deba8fb983f6508d05e0fd70613acc0d8043b1a10b960a208091e0dc64736f6c634300060c0033",
  "linkReferences": {},
  "deployedLinkReferences": {}
}