{
  "_format": "hh-sol-artifact-1",
  "contractName": "RefundEscrowUpgradeable",
  "sourceName": "contracts/contracts-upgradeable-v3_4/payment/escrow/RefundEscrowUpgradeable.sol",
  "abi": [
    {
      "anonymous": false,
      "inputs": [
        {
          "indexed": true,
          "internalType": "address",
          "name": "payee",
          "type": "address"
        },
        {
          "indexed": false,
          "internalType": "uint256",
          "name": "weiAmount",
          "type": "uint256"
        }
      ],
      "name": "Deposited",
      "type": "event"
    },
    {
      "anonymous": false,
      "inputs": [
        {
          "indexed": true,
          "internalType": "address",
          "name": "previousOwner",
          "type": "address"
        },
        {
          "indexed": true,
          "internalType": "address",
          "name": "newOwner",
          "type": "address"
        }
      ],
      "name": "OwnershipTransferred",
      "type": "event"
    },
    {
      "anonymous": false,
      "inputs": [],
      "name": "RefundsClosed",
      "type": "event"
    },
    {
      "anonymous": false,
      "inputs": [],
      "name": "RefundsEnabled",
      "type": "event"
    },
    {
      "anonymous": false,
      "inputs": [
        {
          "indexed": true,
          "internalType": "address",
          "name": "payee",
          "type": "address"
        },
        {
          "indexed": false,
          "internalType": "uint256",
          "name": "weiAmount",
          "type": "uint256"
        }
      ],
      "name": "Withdrawn",
      "type": "event"
    },
    {
      "inputs": [],
      "name": "beneficiary",
      "outputs": [
        {
          "internalType": "address payable",
          "name": "",
          "type": "address"
        }
      ],
      "stateMutability": "view",
      "type": "function"
    },
    {
      "inputs": [],
      "name": "beneficiaryWithdraw",
      "outputs": [],
      "stateMutability": "nonpayable",
      "type": "function"
    },
    {
      "inputs": [],
      "name": "close",
      "outputs": [],
      "stateMutability": "nonpayable",
      "type": "function"
    },
    {
      "inputs": [
        {
          "internalType": "address",
          "name": "refundee",
          "type": "address"
        }
      ],
      "name": "deposit",
      "outputs": [],
      "stateMutability": "payable",
      "type": "function"
    },
    {
      "inputs": [
        {
          "internalType": "address",
          "name": "payee",
          "type": "address"
        }
      ],
      "name": "depositsOf",
      "outputs": [
        {
          "internalType": "uint256",
          "name": "",
          "type": "uint256"
        }
      ],
      "stateMutability": "view",
      "type": "function"
    },
    {
      "inputs": [],
      "name": "enableRefunds",
      "outputs": [],
      "stateMutability": "nonpayable",
      "type": "function"
    },
    {
      "inputs": [],
      "name": "initialize",
      "outputs": [],
      "stateMutability": "nonpayable",
      "type": "function"
    },
    {
      "inputs": [],
      "name": "owner",
      "outputs": [
        {
          "internalType": "address",
          "name": "",
          "type": "address"
        }
      ],
      "stateMutability": "view",
      "type": "function"
    },
    {
      "inputs": [],
      "name": "renounceOwnership",
      "outputs": [],
      "stateMutability": "nonpayable",
      "type": "function"
    },
    {
      "inputs": [],
      "name": "state",
      "outputs": [
        {
          "internalType": "enum RefundEscrowUpgradeable.State",
          "name": "",
          "type": "uint8"
        }
      ],
      "stateMutability": "view",
      "type": "function"
    },
    {
      "inputs": [
        {
          "internalType": "address",
          "name": "newOwner",
          "type": "address"
        }
      ],
      "name": "transferOwnership",
      "outputs": [],
      "stateMutability": "nonpayable",
      "type": "function"
    },
    {
      "inputs": [
        {
          "internalType": "address payable",
          "name": "payee",
          "type": "address"
        }
      ],
      "name": "withdraw",
      "outputs": [],
      "stateMutability": "nonpayable",
      "type": "function"
    },
    {
      "inputs": [
        {
          "internalType": "address",
          "name": "",
          "type": "address"
        }
      ],
      "name": "withdrawalAllowed",
      "outputs": [
        {
          "internalType": "bool",
          "name": "",
          "type": "bool"
        }
      ],
      "stateMutability": "view",
      "type": "function"
    }
  ],
  "bytecode": "0x608060405234801561001057600080fd5b50610f94806100206000396000f3fe6080604052600436106100c25760003560e01c80638c52dc411161007f578063c19d93fb11610059578063c19d93fb146101f2578063e3a9db1a14610228578063f2fde38b1461026d578063f340fa01146102a0576100c2565b80638c52dc41146101b35780638da5cb5b146101c85780639af6549a146101dd576100c2565b806338af3eed146100c757806343d726d6146100f857806351cff8d91461010f578063685ca19414610142578063715018a6146101895780638129fc1c1461019e575b600080fd5b3480156100d357600080fd5b506100dc6102c6565b604080516001600160a01b039092168252519081900360200190f35b34801561010457600080fd5b5061010d6102da565b005b34801561011b57600080fd5b5061010d6004803603602081101561013257600080fd5b50356001600160a01b03166103c5565b34801561014e57600080fd5b506101756004803603602081101561016557600080fd5b50356001600160a01b0316610415565b604080519115158252519081900360200190f35b34801561019557600080fd5b5061010d610433565b3480156101aa57600080fd5b5061010d6104df565b3480156101bf57600080fd5b5061010d610588565b3480156101d457600080fd5b506100dc610673565b3480156101e957600080fd5b5061010d610682565b3480156101fe57600080fd5b506102076106f0565b6040518082600281111561021757fe5b815260200191505060405180910390f35b34801561023457600080fd5b5061025b6004803603602081101561024b57600080fd5b50356001600160a01b03166106f9565b60408051918252519081900360200190f35b34801561027957600080fd5b5061010d6004803603602081101561029057600080fd5b50356001600160a01b0316610714565b61010d600480360360208110156102b657600080fd5b50356001600160a01b0316610817565b60c95461010090046001600160a01b031690565b6102e2610871565b6001600160a01b03166102f3610673565b6001600160a01b03161461033c576040805162461bcd60e51b81526020600482018190526024820152600080516020610f0d833981519152604482015290519081900360640190fd5b60006103466106f0565b600281111561035157fe5b1461038d5760405162461bcd60e51b8152600401808060200182810382526029815260200180610ee46029913960400191505060405180910390fd5b60c9805460ff191660021790556040517f088672c3a6e342f7cd94a65ba63b79df24a8973927b4d05d803c44bbf787d12f90600090a1565b6103ce81610415565b6104095760405162461bcd60e51b8152600401808060200182810382526033815260200180610eb16033913960400191505060405180910390fd5b61041281610875565b50565b600060016104216106f0565b600281111561042c57fe5b1492915050565b61043b610871565b6001600160a01b031661044c610673565b6001600160a01b031614610495576040805162461bcd60e51b81526020600482018190526024820152600080516020610f0d833981519152604482015290519081900360640190fd5b6033546040516000916001600160a01b0316907f8be0079c531659141344cd1fd0a4f28419497f9722a3daafe3b4186f6b6457e0908390a3603380546001600160a01b0319169055565b600054610100900460ff16806104f857506104f8610942565b80610506575060005460ff16155b6105415760405162461bcd60e51b815260040180806020018281038252602e815260200180610e83602e913960400191505060405180910390fd5b600054610100900460ff1615801561056c576000805460ff1961ff0019909116610100171660011790555b610574610953565b8015610412576000805461ff001916905550565b610590610871565b6001600160a01b03166105a1610673565b6001600160a01b0316146105ea576040805162461bcd60e51b81526020600482018190526024820152600080516020610f0d833981519152604482015290519081900360640190fd5b60006105f46106f0565b60028111156105ff57fe5b1461063b5760405162461bcd60e51b8152600401808060200182810382526032815260200180610f2d6032913960400191505060405180910390fd5b60c9805460ff191660011790556040517f599d8e5a83cffb867d051598c4d70e805d59802d8081c1c7d6dffc5b6aca2b8990600090a1565b6033546001600160a01b031690565b600261068c6106f0565b600281111561069757fe5b146106d35760405162461bcd60e51b8152600401808060200182810382526038815260200180610dc06038913960400191505060405180910390fd5b6106ee476106df6102c6565b6001600160a01b0316906109f8565b565b60c95460ff1690565b6001600160a01b031660009081526065602052604090205490565b61071c610871565b6001600160a01b031661072d610673565b6001600160a01b031614610776576040805162461bcd60e51b81526020600482018190526024820152600080516020610f0d833981519152604482015290519081900360640190fd5b6001600160a01b0381166107bb5760405162461bcd60e51b8152600401808060200182810382526026815260200180610df86026913960400191505060405180910390fd5b6033546040516001600160a01b038084169216907f8be0079c531659141344cd1fd0a4f28419497f9722a3daafe3b4186f6b6457e090600090a3603380546001600160a01b0319166001600160a01b0392909216919091179055565b60006108216106f0565b600281111561082c57fe5b146108685760405162461bcd60e51b815260040180806020018281038252602b815260200180610e58602b913960400191505060405180910390fd5b61041281610ae2565b3390565b61087d610871565b6001600160a01b031661088e610673565b6001600160a01b0316146108d7576040805162461bcd60e51b81526020600482018190526024820152600080516020610f0d833981519152604482015290519081900360640190fd5b6001600160a01b03811660008181526065602052604081208054919055906108ff90826109f8565b6040805182815290516001600160a01b038416917f7084f5476618d8e60b11ef0d7d3f06914655adb8793e28ff7f018d4c76d505d5919081900360200190a25050565b600061094d30610bbf565b15905090565b600054610100900460ff168061096c575061096c610942565b8061097a575060005460ff16155b6109b55760405162461bcd60e51b815260040180806020018281038252602e815260200180610e83602e913960400191505060405180910390fd5b600054610100900460ff161580156109e0576000805460ff1961ff0019909116610100171660011790555b6109e8610bc5565b6109f0610c65565b610574610bc5565b80471015610a4d576040805162461bcd60e51b815260206004820152601d60248201527f416464726573733a20696e73756666696369656e742062616c616e6365000000604482015290519081900360640190fd5b6040516000906001600160a01b0384169083908381818185875af1925050503d8060008114610a98576040519150601f19603f3d011682016040523d82523d6000602084013e610a9d565b606091505b5050905080610add5760405162461bcd60e51b815260040180806020018281038252603a815260200180610e1e603a913960400191505060405180910390fd5b505050565b610aea610871565b6001600160a01b0316610afb610673565b6001600160a01b031614610b44576040805162461bcd60e51b81526020600482018190526024820152600080516020610f0d833981519152604482015290519081900360640190fd5b6001600160a01b0381166000908152606560205260409020543490610b699082610d5e565b6001600160a01b038316600081815260656020908152604091829020939093558051848152905191927f2da466a7b24304f47e87fa2e1e5a81b9831ce54fec19055ce277ca2f39ba42c492918290030190a25050565b3b151590565b600054610100900460ff1680610bde5750610bde610942565b80610bec575060005460ff16155b610c275760405162461bcd60e51b815260040180806020018281038252602e815260200180610e83602e913960400191505060405180910390fd5b600054610100900460ff16158015610574576000805460ff1961ff0019909116610100171660011790558015610412576000805461ff001916905550565b600054610100900460ff1680610c7e5750610c7e610942565b80610c8c575060005460ff16155b610cc75760405162461bcd60e51b815260040180806020018281038252602e815260200180610e83602e913960400191505060405180910390fd5b600054610100900460ff16158015610cf2576000805460ff1961ff0019909116610100171660011790555b6000610cfc610871565b603380546001600160a01b0319166001600160a01b038316908117909155604051919250906000907f8be0079c531659141344cd1fd0a4f28419497f9722a3daafe3b4186f6b6457e0908290a3508015610412576000805461ff001916905550565b600082820183811015610db8576040805162461bcd60e51b815260206004820152601b60248201527f536166654d6174683a206164646974696f6e206f766572666c6f770000000000604482015290519081900360640190fd5b939250505056fe526566756e64457363726f773a2062656e65666963696172792063616e206f6e6c79207769746864726177207768696c6520636c6f7365644f776e61626c653a206e6577206f776e657220697320746865207a65726f2061646472657373416464726573733a20756e61626c6520746f2073656e642076616c75652c20726563697069656e74206d61792068617665207265766572746564526566756e64457363726f773a2063616e206f6e6c79206465706f736974207768696c6520616374697665496e697469616c697a61626c653a20636f6e747261637420697320616c726561647920696e697469616c697a6564436f6e646974696f6e616c457363726f773a207061796565206973206e6f7420616c6c6f77656420746f207769746864726177526566756e64457363726f773a2063616e206f6e6c7920636c6f7365207768696c65206163746976654f776e61626c653a2063616c6c6572206973206e6f7420746865206f776e6572526566756e64457363726f773a2063616e206f6e6c7920656e61626c6520726566756e6473207768696c6520616374697665a2646970667358221220db90ec3c527b24598c168861dfffa64a7b686b2241888c56fa40c6288393fa8264736f6c634300060c0033",
  "linkReferences": {},
  "deployedLinkReferences": {}
}