{
  "_format": "hh-sol-artifact-1",
  "contractName": "ERC777MockUpgradeable",
  "sourceName": "contracts/contracts-upgradeable-v3_4/mocks/ERC777MockUpgradeable.sol",
  "abi": [
    {
      "anonymous": false,
      "inputs": [
        {
          "indexed": true,
          "internalType": "address",
          "name": "owner",
          "type": "address"
        },
        {
          "indexed": true,
          "internalType": "address",
          "name": "spender",
          "type": "address"
        },
        {
          "indexed": false,
          "internalType": "uint256",
          "name": "value",
          "type": "uint256"
        }
      ],
      "name": "Approval",
      "type": "event"
    },
    {
      "anonymous": false,
      "inputs": [
        {
          "indexed": true,
          "internalType": "address",
          "name": "operator",
          "type": "address"
        },
        {
          "indexed": true,
          "internalType": "address",
          "name": "tokenHolder",
          "type": "address"
        }
      ],
      "name": "AuthorizedOperator",
      "type": "event"
    },
    {
      "anonymous": false,
      "inputs": [],
      "name": "BeforeTokenTransfer",
      "type": "event"
    },
    {
      "anonymous": false,
      "inputs": [
        {
          "indexed": true,
          "internalType": "address",
          "name": "operator",
          "type": "address"
        },
        {
          "indexed": true,
          "internalType": "address",
          "name": "from",
          "type": "address"
        },
        {
          "indexed": false,
          "internalType": "uint256",
          "name": "amount",
          "type": "uint256"
        },
        {
          "indexed": false,
          "internalType": "bytes",
          "name": "data",
          "type": "bytes"
        },
        {
          "indexed": false,
          "internalType": "bytes",
          "name": "operatorData",
          "type": "bytes"
        }
      ],
      "name": "Burned",
      "type": "event"
    },
    {
      "anonymous": false,
      "inputs": [
        {
          "indexed": true,
          "internalType": "address",
          "name": "operator",
          "type": "address"
        },
        {
          "indexed": true,
          "internalType": "address",
          "name": "to",
          "type": "address"
        },
        {
          "indexed": false,
          "internalType": "uint256",
          "name": "amount",
          "type": "uint256"
        },
        {
          "indexed": false,
          "internalType": "bytes",
          "name": "data",
          "type": "bytes"
        },
        {
          "indexed": false,
          "internalType": "bytes",
          "name": "operatorData",
          "type": "bytes"
        }
      ],
      "name": "Minted",
      "type": "event"
    },
    {
      "anonymous": false,
      "inputs": [
        {
          "indexed": true,
          "internalType": "address",
          "name": "operator",
          "type": "address"
        },
        {
          "indexed": true,
          "internalType": "address",
          "name": "tokenHolder",
          "type": "address"
        }
      ],
      "name": "RevokedOperator",
      "type": "event"
    },
    {
      "anonymous": false,
      "inputs": [
        {
          "indexed": true,
          "internalType": "address",
          "name": "operator",
          "type": "address"
        },
        {
          "indexed": true,
          "internalType": "address",
          "name": "from",
          "type": "address"
        },
        {
          "indexed": true,
          "internalType": "address",
          "name": "to",
          "type": "address"
        },
        {
          "indexed": false,
          "internalType": "uint256",
          "name": "amount",
          "type": "uint256"
        },
        {
          "indexed": false,
          "internalType": "bytes",
          "name": "data",
          "type": "bytes"
        },
        {
          "indexed": false,
          "internalType": "bytes",
          "name": "operatorData",
          "type": "bytes"
        }
      ],
      "name": "Sent",
      "type": "event"
    },
    {
      "anonymous": false,
      "inputs": [
        {
          "indexed": true,
          "internalType": "address",
          "name": "from",
          "type": "address"
        },
        {
          "indexed": true,
          "internalType": "address",
          "name": "to",
          "type": "address"
        },
        {
          "indexed": false,
          "internalType": "uint256",
          "name": "value",
          "type": "uint256"
        }
      ],
      "name": "Transfer",
      "type": "event"
    },
    {
      "inputs": [
        {
          "internalType": "address",
          "name": "holder",
          "type": "address"
        },
        {
          "internalType": "address",
          "name": "spender",
          "type": "address"
        }
      ],
      "name": "allowance",
      "outputs": [
        {
          "internalType": "uint256",
          "name": "",
          "type": "uint256"
        }
      ],
      "stateMutability": "view",
      "type": "function"
    },
    {
      "inputs": [
        {
          "internalType": "address",
          "name": "spender",
          "type": "address"
        },
        {
          "internalType": "uint256",
          "name": "value",
          "type": "uint256"
        }
      ],
      "name": "approve",
      "outputs": [
        {
          "internalType": "bool",
          "name": "",
          "type": "bool"
        }
      ],
      "stateMutability": "nonpayable",
      "type": "function"
    },
    {
      "inputs": [
        {
          "internalType": "address",
          "name": "holder",
          "type": "address"
        },
        {
          "internalType": "address",
          "name": "spender",
          "type": "address"
        },
        {
          "internalType": "uint256",
          "name": "value",
          "type": "uint256"
        }
      ],
      "name": "approveInternal",
      "outputs": [],
      "stateMutability": "nonpayable",
      "type": "function"
    },
    {
      "inputs": [
        {
          "internalType": "address",
          "name": "operator",
          "type": "address"
        }
      ],
      "name": "authorizeOperator",
      "outputs": [],
      "stateMutability": "nonpayable",
      "type": "function"
    },
    {
      "inputs": [
        {
          "internalType": "address",
          "name": "tokenHolder",
          "type": "address"
        }
      ],
      "name": "balanceOf",
      "outputs": [
        {
          "internalType": "uint256",
          "name": "",
          "type": "uint256"
        }
      ],
      "stateMutability": "view",
      "type": "function"
    },
    {
      "inputs": [
        {
          "internalType": "uint256",
          "name": "amount",
          "type": "uint256"
        },
        {
          "internalType": "bytes",
          "name": "data",
          "type": "bytes"
        }
      ],
      "name": "burn",
      "outputs": [],
      "stateMutability": "nonpayable",
      "type": "function"
    },
    {
      "inputs": [],
      "name": "decimals",
      "outputs": [
        {
          "internalType": "uint8",
          "name": "",
          "type": "uint8"
        }
      ],
      "stateMutability": "pure",
      "type": "function"
    },
    {
      "inputs": [],
      "name": "defaultOperators",
      "outputs": [
        {
          "internalType": "address[]",
          "name": "",
          "type": "address[]"
        }
      ],
      "stateMutability": "view",
      "type": "function"
    },
    {
      "inputs": [],
      "name": "granularity",
      "outputs": [
        {
          "internalType": "uint256",
          "name": "",
          "type": "uint256"
        }
      ],
      "stateMutability": "view",
      "type": "function"
    },
    {
      "inputs": [
        {
          "internalType": "address",
          "name": "operator",
          "type": "address"
        },
        {
          "internalType": "address",
          "name": "tokenHolder",
          "type": "address"
        }
      ],
      "name": "isOperatorFor",
      "outputs": [
        {
          "internalType": "bool",
          "name": "",
          "type": "bool"
        }
      ],
      "stateMutability": "view",
      "type": "function"
    },
    {
      "inputs": [
        {
          "internalType": "address",
          "name": "to",
          "type": "address"
        },
        {
          "internalType": "uint256",
          "name": "amount",
          "type": "uint256"
        },
        {
          "internalType": "bytes",
          "name": "userData",
          "type": "bytes"
        },
        {
          "internalType": "bytes",
          "name": "operatorData",
          "type": "bytes"
        }
      ],
      "name": "mintInternal",
      "outputs": [],
      "stateMutability": "nonpayable",
      "type": "function"
    },
    {
      "inputs": [],
      "name": "name",
      "outputs": [
        {
          "internalType": "string",
          "name": "",
          "type": "string"
        }
      ],
      "stateMutability": "view",
      "type": "function"
    },
    {
      "inputs": [
        {
          "internalType": "address",
          "name": "account",
          "type": "address"
        },
        {
          "internalType": "uint256",
          "name": "amount",
          "type": "uint256"
        },
        {
          "internalType": "bytes",
          "name": "data",
          "type": "bytes"
        },
        {
          "internalType": "bytes",
          "name": "operatorData",
          "type": "bytes"
        }
      ],
      "name": "operatorBurn",
      "outputs": [],
      "stateMutability": "nonpayable",
      "type": "function"
    },
    {
      "inputs": [
        {
          "internalType": "address",
          "name": "sender",
          "type": "address"
        },
        {
          "internalType": "address",
          "name": "recipient",
          "type": "address"
        },
        {
          "internalType": "uint256",
          "name": "amount",
          "type": "uint256"
        },
        {
          "internalType": "bytes",
          "name": "data",
          "type": "bytes"
        },
        {
          "internalType": "bytes",
          "name": "operatorData",
          "type": "bytes"
        }
      ],
      "name": "operatorSend",
      "outputs": [],
      "stateMutability": "nonpayable",
      "type": "function"
    },
    {
      "inputs": [
        {
          "internalType": "address",
          "name": "operator",
          "type": "address"
        }
      ],
      "name": "revokeOperator",
      "outputs": [],
      "stateMutability": "nonpayable",
      "type": "function"
    },
    {
      "inputs": [
        {
          "internalType": "address",
          "name": "recipient",
          "type": "address"
        },
        {
          "internalType": "uint256",
          "name": "amount",
          "type": "uint256"
        },
        {
          "internalType": "bytes",
          "name": "data",
          "type": "bytes"
        }
      ],
      "name": "send",
      "outputs": [],
      "stateMutability": "nonpayable",
      "type": "function"
    },
    {
      "inputs": [],
      "name": "symbol",
      "outputs": [
        {
          "internalType": "string",
          "name": "",
          "type": "string"
        }
      ],
      "stateMutability": "view",
      "type": "function"
    },
    {
      "inputs": [],
      "name": "totalSupply",
      "outputs": [
        {
          "internalType": "uint256",
          "name": "",
          "type": "uint256"
        }
      ],
      "stateMutability": "view",
      "type": "function"
    },
    {
      "inputs": [
        {
          "internalType": "address",
          "name": "recipient",
          "type": "address"
        },
        {
          "internalType": "uint256",
          "name": "amount",
          "type": "uint256"
        }
      ],
      "name": "transfer",
      "outputs": [
        {
          "internalType": "bool",
          "name": "",
          "type": "bool"
        }
      ],
      "stateMutability": "nonpayable",
      "type": "function"
    },
    {
      "inputs": [
        {
          "internalType": "address",
          "name": "holder",
          "type": "address"
        },
        {
          "internalType": "address",
          "name": "recipient",
          "type": "address"
        },
        {
          "internalType": "uint256",
          "name": "amount",
          "type": "uint256"
        }
      ],
      "name": "transferFrom",
      "outputs": [
        {
          "internalType": "bool",
          "name": "",
          "type": "bool"
        }
      ],
      "stateMutability": "nonpayable",
      "type": "function"
    }
  ],
  "bytecode": "0x608060405234801561001057600080fd5b50612263806100206000396000f3fe608060405234801561001057600080fd5b506004361061012c5760003560e01c8063959b8c3f116100ad578063d95b637111610071578063d95b6371146106b4578063dd62ed3e146106e2578063fad8b32a14610710578063fc673c4f14610736578063fe9d9303146108745761012c565b8063959b8c3f1461046357806395d89b41146104895780639bd9bbc614610491578063a9059cbb1461054a578063b1f0b5be146105765761012c565b8063313ce567116100f4578063313ce56714610296578063556f0dc7146102b457806356189cb4146102bc57806362ad1b83146102f457806370a082311461043d5761012c565b806306e485381461013157806306fdde0314610189578063095ea7b31461020657806318160ddd1461024657806323b872dd14610260575b600080fd5b61013961091f565b60408051602080825283518183015283519192839290830191858101910280838360005b8381101561017557818101518382015260200161015d565b505050509050019250505060405180910390f35b610191610981565b6040805160208082528351818301528351919283929083019185019080838360005b838110156101cb5781810151838201526020016101b3565b50505050905090810190601f1680156101f85780820380516001836020036101000a031916815260200191505b509250505060405180910390f35b6102326004803603604081101561021c57600080fd5b506001600160a01b038135169060200135610a0e565b604080519115158252519081900360200190f35b61024e610a30565b60408051918252519081900360200190f35b6102326004803603606081101561027657600080fd5b506001600160a01b03813581169160208101359091169060400135610a36565b61029e610bb3565b6040805160ff9092168252519081900360200190f35b61024e610bb8565b6102f2600480360360608110156102d257600080fd5b506001600160a01b03813581169160208101359091169060400135610bbd565b005b6102f2600480360360a081101561030a57600080fd5b6001600160a01b03823581169260208101359091169160408201359190810190608081016060820135600160201b81111561034457600080fd5b82018360208201111561035657600080fd5b803590602001918460018302840111600160201b8311171561037757600080fd5b91908080601f0160208091040260200160405190810160405280939291908181526020018383808284376000920191909152509295949360208101935035915050600160201b8111156103c957600080fd5b8201836020820111156103db57600080fd5b803590602001918460018302840111600160201b831117156103fc57600080fd5b91908080601f016020809104026020016040519081016040528093929190818152602001838380828437600092019190915250929550610bcd945050505050565b61024e6004803603602081101561045357600080fd5b50356001600160a01b0316610c2f565b6102f26004803603602081101561047957600080fd5b50356001600160a01b0316610c4a565b610191610d96565b6102f2600480360360608110156104a757600080fd5b6001600160a01b0382351691602081013591810190606081016040820135600160201b8111156104d657600080fd5b8201836020820111156104e857600080fd5b803590602001918460018302840111600160201b8311171561050957600080fd5b91908080601f016020809104026020016040519081016040528093929190818152602001838380828437600092019190915250929550610df7945050505050565b6102326004803603604081101561056057600080fd5b506001600160a01b038135169060200135610e1c565b6102f26004803603608081101561058c57600080fd5b6001600160a01b0382351691602081013591810190606081016040820135600160201b8111156105bb57600080fd5b8201836020820111156105cd57600080fd5b803590602001918460018302840111600160201b831117156105ee57600080fd5b91908080601f0160208091040260200160405190810160405280939291908181526020018383808284376000920191909152509295949360208101935035915050600160201b81111561064057600080fd5b82018360208201111561065257600080fd5b803590602001918460018302840111600160201b8311171561067357600080fd5b91908080601f016020809104026020016040519081016040528093929190818152602001838380828437600092019190915250929550610ef5945050505050565b610232600480360360408110156106ca57600080fd5b506001600160a01b0381358116916020013516610f07565b61024e600480360360408110156106f857600080fd5b506001600160a01b0381358116916020013516610fa9565b6102f26004803603602081101561072657600080fd5b50356001600160a01b0316610fd4565b6102f26004803603608081101561074c57600080fd5b6001600160a01b0382351691602081013591810190606081016040820135600160201b81111561077b57600080fd5b82018360208201111561078d57600080fd5b803590602001918460018302840111600160201b831117156107ae57600080fd5b91908080601f0160208091040260200160405190810160405280939291908181526020018383808284376000920191909152509295949360208101935035915050600160201b81111561080057600080fd5b82018360208201111561081257600080fd5b803590602001918460018302840111600160201b8311171561083357600080fd5b91908080601f016020809104026020016040519081016040528093929190818152602001838380828437600092019190915250929550611120945050505050565b6102f26004803603604081101561088a57600080fd5b81359190810190604081016020820135600160201b8111156108ab57600080fd5b8201836020820111156108bd57600080fd5b803590602001918460018302840111600160201b831117156108de57600080fd5b91908080601f016020809104026020016040519081016040528093929190818152602001838380828437600092019190915250929550611178945050505050565b6060603780548060200260200160405190810160405280929190818152602001828054801561097757602002820191906000526020600020905b81546001600160a01b03168152600190910190602001808311610959575b5050505050905090565b60358054604080516020601f60026000196101006001881615020190951694909404938401819004810282018101909252828152606093909290918301828280156109775780601f106109e257610100808354040283529160200191610977565b820191906000526020600020905b8154815290600101906020018083116109f057509395945050505050565b600080610a1961119e565b9050610a268185856111a2565b5060019392505050565b60345490565b60006001600160a01b038316610a7d5760405162461bcd60e51b81526004018080602001828103825260248152602001806121496024913960400191505060405180910390fd5b6001600160a01b038416610ac25760405162461bcd60e51b81526004018080602001828103825260268152602001806121c26026913960400191505060405180910390fd5b6000610acc61119e565b9050610afa81868686604051806020016040528060008152506040518060200160405280600081525061128e565b610b268186868660405180602001604052806000815250604051806020016040528060008152506114bb565b610b7a8582610b7586604051806060016040528060298152602001612199602991396001600160a01b03808c166000908152603b60209081526040808320938b168352929052205491906116d5565b6111a2565b610ba8818686866040518060200160405280600081525060405180602001604052806000815250600061176c565b506001949350505050565b601290565b600190565b610bc88383836111a2565b505050565b610bde610bd861119e565b86610f07565b610c195760405162461bcd60e51b815260040180806020018281038252602c81526020018061216d602c913960400191505060405180910390fd5b610c28858585858560016119f1565b5050505050565b6001600160a01b031660009081526033602052604090205490565b806001600160a01b0316610c5c61119e565b6001600160a01b03161415610ca25760405162461bcd60e51b81526004018080602001828103825260248152602001806120b76024913960400191505060405180910390fd5b6001600160a01b03811660009081526038602052604090205460ff1615610d0557603a6000610ccf61119e565b6001600160a01b03908116825260208083019390935260409182016000908120918516815292529020805460ff19169055610d4c565b600160396000610d1361119e565b6001600160a01b03908116825260208083019390935260409182016000908120918616815292529020805460ff19169115159190911790555b610d5461119e565b6001600160a01b0316816001600160a01b03167ff4caeb2d6ca8932a215a353d0703c326ec2d81fc68170f320eb2ab49e9df61f960405160405180910390a350565b60368054604080516020601f60026000196101006001881615020190951694909404938401819004810282018101909252828152606093909290918301828280156109775780601f106109e257610100808354040283529160200191610977565b610bc8610e0261119e565b8484846040518060200160405280600081525060016119f1565b60006001600160a01b038316610e635760405162461bcd60e51b81526004018080602001828103825260248152602001806121496024913960400191505060405180910390fd5b6000610e6d61119e565b9050610e9b81828686604051806020016040528060008152506040518060200160405280600081525061128e565b610ec78182868660405180602001604052806000815250604051806020016040528060008152506114bb565b610a26818286866040518060200160405280600081525060405180602001604052806000815250600061176c565b610f0184848484611ac8565b50505050565b6000816001600160a01b0316836001600160a01b03161480610f7257506001600160a01b03831660009081526038602052604090205460ff168015610f7257506001600160a01b038083166000908152603a602090815260408083209387168352929052205460ff16155b80610fa257506001600160a01b0380831660009081526039602090815260408083209387168352929052205460ff165b9392505050565b6001600160a01b039182166000908152603b6020908152604080832093909416825291909152205490565b610fdc61119e565b6001600160a01b0316816001600160a01b0316141561102c5760405162461bcd60e51b81526004018080602001828103825260218152602001806120db6021913960400191505060405180910390fd5b6001600160a01b03811660009081526038602052604090205460ff1615611098576001603a600061105b61119e565b6001600160a01b03908116825260208083019390935260409182016000908120918616815292529020805460ff19169115159190911790556110d6565b603960006110a461119e565b6001600160a01b03908116825260208083019390935260409182016000908120918516815292529020805460ff191690555b6110de61119e565b6001600160a01b0316816001600160a01b03167f50546e66e5f44d728365dc3908c63bc5cfeeab470722c1677e3073a6ac294aa160405160405180910390a350565b61113161112b61119e565b85610f07565b61116c5760405162461bcd60e51b815260040180806020018281038252602c81526020018061216d602c913960400191505060405180910390fd5b610f0184848484611d00565b61119a61118361119e565b838360405180602001604052806000815250611d00565b5050565b3390565b6001600160a01b0383166111e75760405162461bcd60e51b81526004018080602001828103825260258152602001806120276025913960400191505060405180910390fd5b6001600160a01b03821661122c5760405162461bcd60e51b815260040180806020018281038252602381526020018061220b6023913960400191505060405180910390fd5b6001600160a01b038084166000818152603b6020908152604080832094871680845294825291829020859055815185815291517f8c5be1e5ebec7d5bd14f71427d1e84f3dd0314c0f7b2291e5b200ac8c7c3b9259281900390910190a3505050565b6040805163555ddc6560e11b81526001600160a01b03871660048201527f29ddb589b1fb5fc7cf394961c1adf5f8c6454761adf795e67fe149f658abe89560248201529051600091731820a4b7618bde71dce8cdc73aab6c95905fad249163aabbb8ca91604480820192602092909190829003018186803b15801561131257600080fd5b505afa158015611326573d6000803e3d6000fd5b505050506040513d602081101561133c57600080fd5b505190506001600160a01b038116156114b257806001600160a01b03166375ab97828888888888886040518763ffffffff1660e01b815260040180876001600160a01b03168152602001866001600160a01b03168152602001856001600160a01b031681526020018481526020018060200180602001838103835285818151815260200191508051906020019080838360005b838110156113e75781810151838201526020016113cf565b50505050905090810190601f1680156114145780820380516001836020036101000a031916815260200191505b50838103825284518152845160209182019186019080838360005b8381101561144757818101518382015260200161142f565b50505050905090810190601f1680156114745780820380516001836020036101000a031916815260200191505b5098505050505050505050600060405180830381600087803b15801561149957600080fd5b505af11580156114ad573d6000803e3d6000fd5b505050505b50505050505050565b6114c786868686611f3a565b6115048360405180606001604052806027815260200161206e602791396001600160a01b03881660009081526033602052604090205491906116d5565b6001600160a01b0380871660009081526033602052604080822093909355908616815220546115339084611f69565b60336000866001600160a01b03166001600160a01b0316815260200190815260200160002081905550836001600160a01b0316856001600160a01b0316876001600160a01b03167f06b541ddaa720db2b10a4d0cdac39b8d360425fc073085fac19bc82614677987868686604051808481526020018060200180602001838103835285818151815260200191508051906020019080838360005b838110156115e55781810151838201526020016115cd565b50505050905090810190601f1680156116125780820380516001836020036101000a031916815260200191505b50838103825284518152845160209182019186019080838360005b8381101561164557818101518382015260200161162d565b50505050905090810190601f1680156116725780820380516001836020036101000a031916815260200191505b509550505050505060405180910390a4836001600160a01b0316856001600160a01b03167fddf252ad1be2c89b69c2b068fc378daa952ba7f163c4a11628f55a4df523b3ef856040518082815260200191505060405180910390a3505050505050565b600081848411156117645760405162461bcd60e51b81526004018080602001828103825283818151815260200191508051906020019080838360005b83811015611729578181015183820152602001611711565b50505050905090810190601f1680156117565780820380516001836020036101000a031916815260200191505b509250505060405180910390fd5b505050900390565b6040805163555ddc6560e11b81526001600160a01b03871660048201527fb281fc8c12954d22544db45de3159a39272895b169a852b314f9cc762e44c53b60248201529051600091731820a4b7618bde71dce8cdc73aab6c95905fad249163aabbb8ca91604480820192602092909190829003018186803b1580156117f057600080fd5b505afa158015611804573d6000803e3d6000fd5b505050506040513d602081101561181a57600080fd5b505190506001600160a01b0381161561199357806001600160a01b03166223de298989898989896040518763ffffffff1660e01b815260040180876001600160a01b03168152602001866001600160a01b03168152602001856001600160a01b031681526020018481526020018060200180602001838103835285818151815260200191508051906020019080838360005b838110156118c45781810151838201526020016118ac565b50505050905090810190601f1680156118f15780820380516001836020036101000a031916815260200191505b50838103825284518152845160209182019186019080838360005b8381101561192457818101518382015260200161190c565b50505050905090810190601f1680156119515780820380516001836020036101000a031916815260200191505b5098505050505050505050600060405180830381600087803b15801561197657600080fd5b505af115801561198a573d6000803e3d6000fd5b505050506119e7565b81156119e7576119ab866001600160a01b0316611fc3565b156119e75760405162461bcd60e51b815260040180806020018281038252604d8152602001806120fc604d913960600191505060405180910390fd5b5050505050505050565b6001600160a01b038616611a365760405162461bcd60e51b815260040180806020018281038252602281526020018061204c6022913960400191505060405180910390fd5b6001600160a01b038516611a91576040805162461bcd60e51b815260206004820181905260248201527f4552433737373a2073656e6420746f20746865207a65726f2061646472657373604482015290519081900360640190fd5b6000611a9b61119e565b9050611aab81888888888861128e565b611ab98188888888886114bb565b6114b28188888888888861176c565b6001600160a01b038416611b23576040805162461bcd60e51b815260206004820181905260248201527f4552433737373a206d696e7420746f20746865207a65726f2061646472657373604482015290519081900360640190fd5b6000611b2d61119e565b9050611b3c8160008787611f3a565b603454611b499085611f69565b6034556001600160a01b038516600090815260336020526040902054611b6f9085611f69565b6001600160a01b038616600090815260336020526040812091909155611b9c90829087878787600161176c565b846001600160a01b0316816001600160a01b03167f2fe5be0146f74c5bce36c0b80911af6c7d86ff27e89d5cfa61fc681327954e5d868686604051808481526020018060200180602001838103835285818151815260200191508051906020019080838360005b83811015611c1b578181015183820152602001611c03565b50505050905090810190601f168015611c485780820380516001836020036101000a031916815260200191505b50838103825284518152845160209182019186019080838360005b83811015611c7b578181015183820152602001611c63565b50505050905090810190601f168015611ca85780820380516001836020036101000a031916815260200191505b509550505050505060405180910390a36040805185815290516001600160a01b038716916000917fddf252ad1be2c89b69c2b068fc378daa952ba7f163c4a11628f55a4df523b3ef9181900360200190a35050505050565b6001600160a01b038416611d455760405162461bcd60e51b81526004018080602001828103825260228152602001806120956022913960400191505060405180910390fd5b6000611d4f61119e565b9050611d608186600087878761128e565b611d6d8186600087611f3a565b611daa846040518060600160405280602381526020016121e8602391396001600160a01b03881660009081526033602052604090205491906116d5565b6001600160a01b038616600090815260336020526040902055603454611dd09085611fc9565b603481905550846001600160a01b0316816001600160a01b03167fa78a9be3a7b862d26933ad85fb11d80ef66b8f972d7cbba06621d583943a4098868686604051808481526020018060200180602001838103835285818151815260200191508051906020019080838360005b83811015611e55578181015183820152602001611e3d565b50505050905090810190601f168015611e825780820380516001836020036101000a031916815260200191505b50838103825284518152845160209182019186019080838360005b83811015611eb5578181015183820152602001611e9d565b50505050905090810190601f168015611ee25780820380516001836020036101000a031916815260200191505b509550505050505060405180910390a36040805185815290516000916001600160a01b038816917fddf252ad1be2c89b69c2b068fc378daa952ba7f163c4a11628f55a4df523b3ef9181900360200190a35050505050565b6040517f52316ab8e8b0687ce803e403dfe429541bccd4f6c4683ec65d254d382f15a26590600090a150505050565b600082820183811015610fa2576040805162461bcd60e51b815260206004820152601b60248201527f536166654d6174683a206164646974696f6e206f766572666c6f770000000000604482015290519081900360640190fd5b3b151590565b600082821115612020576040805162461bcd60e51b815260206004820152601e60248201527f536166654d6174683a207375627472616374696f6e206f766572666c6f770000604482015290519081900360640190fd5b5090039056fe4552433737373a20617070726f76652066726f6d20746865207a65726f20616464726573734552433737373a2073656e642066726f6d20746865207a65726f20616464726573734552433737373a207472616e7366657220616d6f756e7420657863656564732062616c616e63654552433737373a206275726e2066726f6d20746865207a65726f20616464726573734552433737373a20617574686f72697a696e672073656c66206173206f70657261746f724552433737373a207265766f6b696e672073656c66206173206f70657261746f724552433737373a20746f6b656e20726563697069656e7420636f6e747261637420686173206e6f20696d706c656d656e74657220666f7220455243373737546f6b656e73526563697069656e744552433737373a207472616e7366657220746f20746865207a65726f20616464726573734552433737373a2063616c6c6572206973206e6f7420616e206f70657261746f7220666f7220686f6c6465724552433737373a207472616e7366657220616d6f756e74206578636565647320616c6c6f77616e63654552433737373a207472616e736665722066726f6d20746865207a65726f20616464726573734552433737373a206275726e20616d6f756e7420657863656564732062616c616e63654552433737373a20617070726f766520746f20746865207a65726f2061646472657373a2646970667358221220657b4d09e1ada5e19f73867f21f0f9c453ac241cf1d7e567eef634a4ff68639d64736f6c634300060c0033",
  "linkReferences": {},
  "deployedLinkReferences": {}
}