{
  "_format": "hh-sol-artifact-1",
  "contractName": "ERC721BurnableMockUpgradeable",
  "sourceName": "contracts/contracts-upgradeable-v3_4/mocks/ERC721BurnableMockUpgradeable.sol",
  "abi": [
    {
      "anonymous": false,
      "inputs": [
        {
          "indexed": true,
          "internalType": "address",
          "name": "owner",
          "type": "address"
        },
        {
          "indexed": true,
          "internalType": "address",
          "name": "approved",
          "type": "address"
        },
        {
          "indexed": true,
          "internalType": "uint256",
          "name": "tokenId",
          "type": "uint256"
        }
      ],
      "name": "Approval",
      "type": "event"
    },
    {
      "anonymous": false,
      "inputs": [
        {
          "indexed": true,
          "internalType": "address",
          "name": "owner",
          "type": "address"
        },
        {
          "indexed": true,
          "internalType": "address",
          "name": "operator",
          "type": "address"
        },
        {
          "indexed": false,
          "internalType": "bool",
          "name": "approved",
          "type": "bool"
        }
      ],
      "name": "ApprovalForAll",
      "type": "event"
    },
    {
      "anonymous": false,
      "inputs": [
        {
          "indexed": true,
          "internalType": "address",
          "name": "from",
          "type": "address"
        },
        {
          "indexed": true,
          "internalType": "address",
          "name": "to",
          "type": "address"
        },
        {
          "indexed": true,
          "internalType": "uint256",
          "name": "tokenId",
          "type": "uint256"
        }
      ],
      "name": "Transfer",
      "type": "event"
    },
    {
      "inputs": [
        {
          "internalType": "address",
          "name": "to",
          "type": "address"
        },
        {
          "internalType": "uint256",
          "name": "tokenId",
          "type": "uint256"
        }
      ],
      "name": "approve",
      "outputs": [],
      "stateMutability": "nonpayable",
      "type": "function"
    },
    {
      "inputs": [
        {
          "internalType": "address",
          "name": "owner",
          "type": "address"
        }
      ],
      "name": "balanceOf",
      "outputs": [
        {
          "internalType": "uint256",
          "name": "",
          "type": "uint256"
        }
      ],
      "stateMutability": "view",
      "type": "function"
    },
    {
      "inputs": [],
      "name": "baseURI",
      "outputs": [
        {
          "internalType": "string",
          "name": "",
          "type": "string"
        }
      ],
      "stateMutability": "view",
      "type": "function"
    },
    {
      "inputs": [
        {
          "internalType": "uint256",
          "name": "tokenId",
          "type": "uint256"
        }
      ],
      "name": "burn",
      "outputs": [],
      "stateMutability": "nonpayable",
      "type": "function"
    },
    {
      "inputs": [
        {
          "internalType": "uint256",
          "name": "tokenId",
          "type": "uint256"
        }
      ],
      "name": "getApproved",
      "outputs": [
        {
          "internalType": "address",
          "name": "",
          "type": "address"
        }
      ],
      "stateMutability": "view",
      "type": "function"
    },
    {
      "inputs": [
        {
          "internalType": "address",
          "name": "owner",
          "type": "address"
        },
        {
          "internalType": "address",
          "name": "operator",
          "type": "address"
        }
      ],
      "name": "isApprovedForAll",
      "outputs": [
        {
          "internalType": "bool",
          "name": "",
          "type": "bool"
        }
      ],
      "stateMutability": "view",
      "type": "function"
    },
    {
      "inputs": [
        {
          "internalType": "address",
          "name": "to",
          "type": "address"
        },
        {
          "internalType": "uint256",
          "name": "tokenId",
          "type": "uint256"
        }
      ],
      "name": "mint",
      "outputs": [],
      "stateMutability": "nonpayable",
      "type": "function"
    },
    {
      "inputs": [],
      "name": "name",
      "outputs": [
        {
          "internalType": "string",
          "name": "",
          "type": "string"
        }
      ],
      "stateMutability": "view",
      "type": "function"
    },
    {
      "inputs": [
        {
          "internalType": "uint256",
          "name": "tokenId",
          "type": "uint256"
        }
      ],
      "name": "ownerOf",
      "outputs": [
        {
          "internalType": "address",
          "name": "",
          "type": "address"
        }
      ],
      "stateMutability": "view",
      "type": "function"
    },
    {
      "inputs": [
        {
          "internalType": "address",
          "name": "from",
          "type": "address"
        },
        {
          "internalType": "address",
          "name": "to",
          "type": "address"
        },
        {
          "internalType": "uint256",
          "name": "tokenId",
          "type": "uint256"
        }
      ],
      "name": "safeTransferFrom",
      "outputs": [],
      "stateMutability": "nonpayable",
      "type": "function"
    },
    {
      "inputs": [
        {
          "internalType": "address",
          "name": "from",
          "type": "address"
        },
        {
          "internalType": "address",
          "name": "to",
          "type": "address"
        },
        {
          "internalType": "uint256",
          "name": "tokenId",
          "type": "uint256"
        },
        {
          "internalType": "bytes",
          "name": "_data",
          "type": "bytes"
        }
      ],
      "name": "safeTransferFrom",
      "outputs": [],
      "stateMutability": "nonpayable",
      "type": "function"
    },
    {
      "inputs": [
        {
          "internalType": "address",
          "name": "operator",
          "type": "address"
        },
        {
          "internalType": "bool",
          "name": "approved",
          "type": "bool"
        }
      ],
      "name": "setApprovalForAll",
      "outputs": [],
      "stateMutability": "nonpayable",
      "type": "function"
    },
    {
      "inputs": [
        {
          "internalType": "bytes4",
          "name": "interfaceId",
          "type": "bytes4"
        }
      ],
      "name": "supportsInterface",
      "outputs": [
        {
          "internalType": "bool",
          "name": "",
          "type": "bool"
        }
      ],
      "stateMutability": "view",
      "type": "function"
    },
    {
      "inputs": [],
      "name": "symbol",
      "outputs": [
        {
          "internalType": "string",
          "name": "",
          "type": "string"
        }
      ],
      "stateMutability": "view",
      "type": "function"
    },
    {
      "inputs": [
        {
          "internalType": "uint256",
          "name": "index",
          "type": "uint256"
        }
      ],
      "name": "tokenByIndex",
      "outputs": [
        {
          "internalType": "uint256",
          "name": "",
          "type": "uint256"
        }
      ],
      "stateMutability": "view",
      "type": "function"
    },
    {
      "inputs": [
        {
          "internalType": "address",
          "name": "owner",
          "type": "address"
        },
        {
          "internalType": "uint256",
          "name": "index",
          "type": "uint256"
        }
      ],
      "name": "tokenOfOwnerByIndex",
      "outputs": [
        {
          "internalType": "uint256",
          "name": "",
          "type": "uint256"
        }
      ],
      "stateMutability": "view",
      "type": "function"
    },
    {
      "inputs": [
        {
          "internalType": "uint256",
          "name": "tokenId",
          "type": "uint256"
        }
      ],
      "name": "tokenURI",
      "outputs": [
        {
          "internalType": "string",
          "name": "",
          "type": "string"
        }
      ],
      "stateMutability": "view",
      "type": "function"
    },
    {
      "inputs": [],
      "name": "totalSupply",
      "outputs": [
        {
          "internalType": "uint256",
          "name": "",
          "type": "uint256"
        }
      ],
      "stateMutability": "view",
      "type": "function"
    },
    {
      "inputs": [
        {
          "internalType": "address",
          "name": "from",
          "type": "address"
        },
        {
          "internalType": "address",
          "name": "to",
          "type": "address"
        },
        {
          "internalType": "uint256",
          "name": "tokenId",
          "type": "uint256"
        }
      ],
      "name": "transferFrom",
      "outputs": [],
      "stateMutability": "nonpayable",
      "type": "function"
    }
  ],
  "bytecode": "0x608060405234801561001057600080fd5b50611db5806100206000396000f3fe608060405234801561001057600080fd5b50600436106101215760003560e01c806342966c68116100ad57806395d89b411161007157806395d89b41146103a8578063a22cb465146103b0578063b88d4fde146103de578063c87b56dd146104a4578063e985e9c5146104c157610121565b806342966c68146103235780634f6ccce7146103405780636352211e1461035d5780636c0360eb1461037a57806370a082311461038257610121565b806318160ddd116100f457806318160ddd1461024557806323b872dd1461025f5780632f745c591461029557806340c10f19146102c157806342842e0e146102ed57610121565b806301ffc9a71461012657806306fdde0314610161578063081812fc146101de578063095ea7b314610217575b600080fd5b61014d6004803603602081101561013c57600080fd5b50356001600160e01b0319166104ef565b604080519115158252519081900360200190f35b610169610512565b6040805160208082528351818301528351919283929083019185019080838360005b838110156101a357818101518382015260200161018b565b50505050905090810190601f1680156101d05780820380516001836020036101000a031916815260200191505b509250505060405180910390f35b6101fb600480360360208110156101f457600080fd5b50356105a8565b604080516001600160a01b039092168252519081900360200190f35b6102436004803603604081101561022d57600080fd5b506001600160a01b03813516906020013561060a565b005b61024d6106e5565b60408051918252519081900360200190f35b6102436004803603606081101561027557600080fd5b506001600160a01b038135811691602081013590911690604001356106f6565b61024d600480360360408110156102ab57600080fd5b506001600160a01b03813516906020013561074d565b610243600480360360408110156102d757600080fd5b506001600160a01b038135169060200135610778565b6102436004803603606081101561030357600080fd5b506001600160a01b03813581169160208101359091169060400135610786565b6102436004803603602081101561033957600080fd5b50356107a1565b61024d6004803603602081101561035657600080fd5b50356107f3565b6101fb6004803603602081101561037357600080fd5b5035610809565b610169610831565b61024d6004803603602081101561039857600080fd5b50356001600160a01b0316610892565b6101696108fa565b610243600480360360408110156103c657600080fd5b506001600160a01b038135169060200135151561095b565b610243600480360360808110156103f457600080fd5b6001600160a01b0382358116926020810135909116916040820135919081019060808101606082013564010000000081111561042f57600080fd5b82018360208201111561044157600080fd5b8035906020019184600183028401116401000000008311171561046357600080fd5b91908080601f016020809104026020016040519081016040528093929190818152602001838380828437600092019190915250929550610a60945050505050565b610169600480360360208110156104ba57600080fd5b5035610abe565b61014d600480360360408110156104d757600080fd5b506001600160a01b0381358116916020013516610d41565b6001600160e01b0319811660009081526033602052604090205460ff165b919050565b606a8054604080516020601f600260001961010060018816150201909516949094049384018190048102820181019092528281526060939092909183018282801561059e5780601f106105735761010080835404028352916020019161059e565b820191906000526020600020905b81548152906001019060200180831161058157829003601f168201915b5050505050905090565b60006105b382610d6f565b6105ee5760405162461bcd60e51b815260040180806020018281038252602c815260200180611c7a602c913960400191505060405180910390fd5b506000908152606860205260409020546001600160a01b031690565b600061061582610809565b9050806001600160a01b0316836001600160a01b031614156106685760405162461bcd60e51b8152600401808060200182810382526021815260200180611cfe6021913960400191505060405180910390fd5b806001600160a01b031661067a610d7c565b6001600160a01b0316148061069b575061069b81610696610d7c565b610d41565b6106d65760405162461bcd60e51b8152600401808060200182810382526038815260200180611bcd6038913960400191505060405180910390fd5b6106e08383610d80565b505050565b60006106f16066610dee565b905090565b610707610701610d7c565b82610df9565b6107425760405162461bcd60e51b8152600401808060200182810382526031815260200180611d1f6031913960400191505060405180910390fd5b6106e0838383610e9d565b6001600160a01b038216600090815260656020526040812061076f9083610fe9565b90505b92915050565b6107828282610ff5565b5050565b6106e083838360405180602001604052806000815250610a60565b6107ac610701610d7c565b6107e75760405162461bcd60e51b8152600401808060200182810382526030815260200180611d506030913960400191505060405180910390fd5b6107f081611123565b50565b6000806108016066846111f0565b509392505050565b600061077282604051806060016040528060298152602001611c2f602991396066919061120c565b606d8054604080516020601f600260001961010060018816150201909516949094049384018190048102820181019092528281526060939092909183018282801561059e5780601f106105735761010080835404028352916020019161059e565b60006001600160a01b0382166108d95760405162461bcd60e51b815260040180806020018281038252602a815260200180611c05602a913960400191505060405180910390fd5b6001600160a01b038216600090815260656020526040902061077290610dee565b606b8054604080516020601f600260001961010060018816150201909516949094049384018190048102820181019092528281526060939092909183018282801561059e5780601f106105735761010080835404028352916020019161059e565b610963610d7c565b6001600160a01b0316826001600160a01b031614156109c9576040805162461bcd60e51b815260206004820152601960248201527f4552433732313a20617070726f766520746f2063616c6c657200000000000000604482015290519081900360640190fd5b80606960006109d6610d7c565b6001600160a01b03908116825260208083019390935260409182016000908120918716808252919093529120805460ff191692151592909217909155610a1a610d7c565b6001600160a01b03167f17307eab39ab6107e8899845ad3d59bd9653f200f220920489ca2b5937696c318360405180821515815260200191505060405180910390a35050565b610a71610a6b610d7c565b83610df9565b610aac5760405162461bcd60e51b8152600401808060200182810382526031815260200180611d1f6031913960400191505060405180910390fd5b610ab884848484611223565b50505050565b6060610ac982610d6f565b610b045760405162461bcd60e51b815260040180806020018281038252602f815260200180611ccf602f913960400191505060405180910390fd5b6000828152606c602090815260409182902080548351601f6002600019610100600186161502019093169290920491820184900484028101840190945280845260609392830182828015610b995780601f10610b6e57610100808354040283529160200191610b99565b820191906000526020600020905b815481529060010190602001808311610b7c57829003601f168201915b505050505090506060610baa610831565b9050805160001415610bbe5750905061050d565b815115610c7f5780826040516020018083805190602001908083835b60208310610bf95780518252601f199092019160209182019101610bda565b51815160209384036101000a600019018019909216911617905285519190930192850191508083835b60208310610c415780518252601f199092019160209182019101610c22565b6001836020036101000a038019825116818451168082178552505050505050905001925050506040516020818303038152906040529250505061050d565b80610c8985611275565b6040516020018083805190602001908083835b60208310610cbb5780518252601f199092019160209182019101610c9c565b51815160209384036101000a600019018019909216911617905285519190930192850191508083835b60208310610d035780518252601f199092019160209182019101610ce4565b6001836020036101000a0380198251168184511680821785525050505050509050019250505060405160208183030381529060405292505050919050565b6001600160a01b03918216600090815260696020908152604080832093909416825291909152205460ff1690565b6000610772606683611350565b3390565b600081815260686020526040902080546001600160a01b0319166001600160a01b0384169081179091558190610db582610809565b6001600160a01b03167f8c5be1e5ebec7d5bd14f71427d1e84f3dd0314c0f7b2291e5b200ac8c7c3b92560405160405180910390a45050565b60006107728261135c565b6000610e0482610d6f565b610e3f5760405162461bcd60e51b815260040180806020018281038252602c815260200180611ba1602c913960400191505060405180910390fd5b6000610e4a83610809565b9050806001600160a01b0316846001600160a01b03161480610e855750836001600160a01b0316610e7a846105a8565b6001600160a01b0316145b80610e955750610e958185610d41565b949350505050565b826001600160a01b0316610eb082610809565b6001600160a01b031614610ef55760405162461bcd60e51b8152600401808060200182810382526029815260200180611ca66029913960400191505060405180910390fd5b6001600160a01b038216610f3a5760405162461bcd60e51b8152600401808060200182810382526024815260200180611b7d6024913960400191505060405180910390fd5b610f458383836106e0565b610f50600082610d80565b6001600160a01b0383166000908152606560205260409020610f729082611360565b506001600160a01b0382166000908152606560205260409020610f95908261136c565b50610fa260668284611378565b5080826001600160a01b0316846001600160a01b03167fddf252ad1be2c89b69c2b068fc378daa952ba7f163c4a11628f55a4df523b3ef60405160405180910390a4505050565b600061076f838361138e565b6001600160a01b038216611050576040805162461bcd60e51b815260206004820181905260248201527f4552433732313a206d696e7420746f20746865207a65726f2061646472657373604482015290519081900360640190fd5b61105981610d6f565b156110ab576040805162461bcd60e51b815260206004820152601c60248201527f4552433732313a20746f6b656e20616c7265616479206d696e74656400000000604482015290519081900360640190fd5b6110b7600083836106e0565b6001600160a01b03821660009081526065602052604090206110d9908261136c565b506110e660668284611378565b5060405181906001600160a01b038416906000907fddf252ad1be2c89b69c2b068fc378daa952ba7f163c4a11628f55a4df523b3ef908290a45050565b600061112e82610809565b905061113c816000846106e0565b611147600083610d80565b6000828152606c60205260409020546002600019610100600184161502019091160415611185576000828152606c6020526040812061118591611ad0565b6001600160a01b03811660009081526065602052604090206111a79083611360565b506111b36066836113f2565b5060405182906000906001600160a01b038416907fddf252ad1be2c89b69c2b068fc378daa952ba7f163c4a11628f55a4df523b3ef908390a45050565b60008080806111ff86866113fe565b9097909650945050505050565b6000611219848484611479565b90505b9392505050565b61122e848484610e9d565b61123a84848484611543565b610ab85760405162461bcd60e51b8152600401808060200182810382526032815260200180611b4b6032913960400191505060405180910390fd5b60608161129a57506040805180820190915260018152600360fc1b602082015261050d565b8160005b81156112b257600101600a8204915061129e565b60608167ffffffffffffffff811180156112cb57600080fd5b506040519080825280601f01601f1916602001820160405280156112f6576020820181803683370190505b50859350905060001982015b831561134757600a840660300160f81b8282806001900393508151811061132557fe5b60200101906001600160f81b031916908160001a905350600a84049350611302565b50949350505050565b600061076f83836116ab565b5490565b600061076f83836116c3565b600061076f8383611789565b600061121984846001600160a01b0385166117d3565b815460009082106113d05760405162461bcd60e51b8152600401808060200182810382526022815260200180611b296022913960400191505060405180910390fd5b8260000182815481106113df57fe5b9060005260206000200154905092915050565b600061076f838361186a565b8154600090819083106114425760405162461bcd60e51b8152600401808060200182810382526022815260200180611c586022913960400191505060405180910390fd5b600084600001848154811061145357fe5b906000526020600020906002020190508060000154816001015492509250509250929050565b600082815260018401602052604081205482816115145760405162461bcd60e51b81526004018080602001828103825283818151815260200191508051906020019080838360005b838110156114d95781810151838201526020016114c1565b50505050905090810190601f1680156115065780820380516001836020036101000a031916815260200191505b509250505060405180910390fd5b5084600001600182038154811061152757fe5b9060005260206000209060020201600101549150509392505050565b6000611557846001600160a01b031661193e565b61156357506001610e95565b6060611671630a85bd0160e11b611578610d7c565b88878760405160240180856001600160a01b03168152602001846001600160a01b0316815260200183815260200180602001828103825283818151815260200191508051906020019080838360005b838110156115df5781810151838201526020016115c7565b50505050905090810190601f16801561160c5780820380516001836020036101000a031916815260200191505b5095505050505050604051602081830303815290604052906001600160e01b0319166020820180516001600160e01b038381831617835250505050604051806060016040528060328152602001611b4b603291396001600160a01b0388169190611944565b9050600081806020019051602081101561168a57600080fd5b50516001600160e01b031916630a85bd0160e11b1492505050949350505050565b60009081526001919091016020526040902054151590565b6000818152600183016020526040812054801561177f57835460001980830191908101906000908790839081106116f657fe5b906000526020600020015490508087600001848154811061171357fe5b60009182526020808320909101929092558281526001898101909252604090209084019055865487908061174357fe5b60019003818190600052602060002001600090559055866001016000878152602001908152602001600020600090556001945050505050610772565b6000915050610772565b600061179583836116ab565b6117cb57508154600181810184556000848152602080822090930184905584548482528286019093526040902091909155610772565b506000610772565b60008281526001840160205260408120548061183857505060408051808201825283815260208082018481528654600181810189556000898152848120955160029093029095019182559151908201558654868452818801909252929091205561121c565b8285600001600183038154811061184b57fe5b906000526020600020906002020160010181905550600091505061121c565b6000818152600183016020526040812054801561177f578354600019808301919081019060009087908390811061189d57fe5b90600052602060002090600202019050808760000184815481106118bd57fe5b6000918252602080832084546002909302019182556001938401549184019190915583548252898301905260409020908401905586548790806118fc57fe5b60008281526020808220600260001990940193840201828155600190810183905592909355888152898201909252604082209190915594506107729350505050565b3b151590565b60606112198484600085856119588561193e565b6119a9576040805162461bcd60e51b815260206004820152601d60248201527f416464726573733a2063616c6c20746f206e6f6e2d636f6e7472616374000000604482015290519081900360640190fd5b60006060866001600160a01b031685876040518082805190602001908083835b602083106119e85780518252601f1990920191602091820191016119c9565b6001836020036101000a03801982511681845116808217855250505050505090500191505060006040518083038185875af1925050503d8060008114611a4a576040519150601f19603f3d011682016040523d82523d6000602084013e611a4f565b606091505b5091509150611a5f828286611a6a565b979650505050505050565b60608315611a7957508161121c565b825115611a895782518084602001fd5b60405162461bcd60e51b81526020600482018181528451602484015284518593919283926044019190850190808383600083156114d95781810151838201526020016114c1565b50805460018160011615610100020316600290046000825580601f10611af657506107f0565b601f0160209004906000526020600020908101906107f091905b80821115611b245760008155600101611b10565b509056fe456e756d657261626c655365743a20696e646578206f7574206f6620626f756e64734552433732313a207472616e7366657220746f206e6f6e20455243373231526563656976657220696d706c656d656e7465724552433732313a207472616e7366657220746f20746865207a65726f20616464726573734552433732313a206f70657261746f7220717565727920666f72206e6f6e6578697374656e7420746f6b656e4552433732313a20617070726f76652063616c6c6572206973206e6f74206f776e6572206e6f7220617070726f76656420666f7220616c6c4552433732313a2062616c616e636520717565727920666f7220746865207a65726f20616464726573734552433732313a206f776e657220717565727920666f72206e6f6e6578697374656e7420746f6b656e456e756d657261626c654d61703a20696e646578206f7574206f6620626f756e64734552433732313a20617070726f76656420717565727920666f72206e6f6e6578697374656e7420746f6b656e4552433732313a207472616e73666572206f6620746f6b656e2074686174206973206e6f74206f776e4552433732314d657461646174613a2055524920717565727920666f72206e6f6e6578697374656e7420746f6b656e4552433732313a20617070726f76616c20746f2063757272656e74206f776e65724552433732313a207472616e736665722063616c6c6572206973206e6f74206f776e6572206e6f7220617070726f7665644552433732314275726e61626c653a2063616c6c6572206973206e6f74206f776e6572206e6f7220617070726f766564a26469706673582212209e64818c06327f634a440c06495a43319ebc3f9cbcd1a4ae1ccd7dfa6a5c9fc864736f6c634300060c0033",
  "linkReferences": {},
  "deployedLinkReferences": {}
}