{
  "_format": "hh-sol-artifact-1",
  "contractName": "ERC1820ImplementerMockUpgradeable",
  "sourceName": "contracts/contracts-upgradeable-v3_4/mocks/ERC1820ImplementerMockUpgradeable.sol",
  "abi": [
    {
      "inputs": [
        {
          "internalType": "bytes32",
          "name": "interfaceHash",
          "type": "bytes32"
        },
        {
          "internalType": "address",
          "name": "account",
          "type": "address"
        }
      ],
      "name": "canImplementInterfaceForAddress",
      "outputs": [
        {
          "internalType": "bytes32",
          "name": "",
          "type": "bytes32"
        }
      ],
      "stateMutability": "view",
      "type": "function"
    },
    {
      "inputs": [
        {
          "internalType": "bytes32",
          "name": "interfaceHash",
          "type": "bytes32"
        },
        {
          "internalType": "address",
          "name": "account",
          "type": "address"
        }
      ],
      "name": "registerInterfaceForAddress",
      "outputs": [],
      "stateMutability": "nonpayable",
      "type": "function"
    }
  ],
  "bytecode": "0x608060405234801561001057600080fd5b50610192806100206000396000f3fe608060405234801561001057600080fd5b50600436106100365760003560e01c8063249cb3fa1461003b5780635536e45d14610079575b600080fd5b6100676004803603604081101561005157600080fd5b50803590602001356001600160a01b03166100a7565b60408051918252519081900360200190f35b6100a56004803603604081101561008f57600080fd5b50803590602001356001600160a01b031661011e565b005b60008281526001602090815260408083206001600160a01b038516845290915281205460ff166100d8576000610117565b604051602001808073455243313832305f4143434550545f4d4147494360601b8152506014019050604051602081830303815290604052805190602001205b9392505050565b610128828261012c565b5050565b60009182526001602081815260408085206001600160a01b0390941685529290529120805460ff1916909117905556fea26469706673582212206e6bb0f76683b245299845cc373097f6c7112afb97392c373382c848836155fa64736f6c634300060c0033",
  "linkReferences": {},
  "deployedLinkReferences": {}
}