{
  "_format": "hh-sol-artifact-1",
  "contractName": "EnumerableMapMock",
  "sourceName": "contracts/contracts-v3_4/mocks/EnumerableMapMock.sol",
  "abi": [
    {
      "anonymous": false,
      "inputs": [
        {
          "indexed": false,
          "internalType": "bool",
          "name": "result",
          "type": "bool"
        }
      ],
      "name": "OperationResult",
      "type": "event"
    },
    {
      "inputs": [
        {
          "internalType": "uint256",
          "name": "index",
          "type": "uint256"
        }
      ],
      "name": "at",
      "outputs": [
        {
          "internalType": "uint256",
          "name": "key",
          "type": "uint256"
        },
        {
          "internalType": "address",
          "name": "value",
          "type": "address"
        }
      ],
      "stateMutability": "view",
      "type": "function"
    },
    {
      "inputs": [
        {
          "internalType": "uint256",
          "name": "key",
          "type": "uint256"
        }
      ],
      "name": "contains",
      "outputs": [
        {
          "internalType": "bool",
          "name": "",
          "type": "bool"
        }
      ],
      "stateMutability": "view",
      "type": "function"
    },
    {
      "inputs": [
        {
          "internalType": "uint256",
          "name": "key",
          "type": "uint256"
        }
      ],
      "name": "get",
      "outputs": [
        {
          "internalType": "address",
          "name": "",
          "type": "address"
        }
      ],
      "stateMutability": "view",
      "type": "function"
    },
    {
      "inputs": [
        {
          "internalType": "uint256",
          "name": "key",
          "type": "uint256"
        },
        {
          "internalType": "string",
          "name": "errorMessage",
          "type": "string"
        }
      ],
      "name": "getWithMessage",
      "outputs": [
        {
          "internalType": "address",
          "name": "",
          "type": "address"
        }
      ],
      "stateMutability": "view",
      "type": "function"
    },
    {
      "inputs": [],
      "name": "length",
      "outputs": [
        {
          "internalType": "uint256",
          "name": "",
          "type": "uint256"
        }
      ],
      "stateMutability": "view",
      "type": "function"
    },
    {
      "inputs": [
        {
          "internalType": "uint256",
          "name": "key",
          "type": "uint256"
        }
      ],
      "name": "remove",
      "outputs": [],
      "stateMutability": "nonpayable",
      "type": "function"
    },
    {
      "inputs": [
        {
          "internalType": "uint256",
          "name": "key",
          "type": "uint256"
        },
        {
          "internalType": "address",
          "name": "value",
          "type": "address"
        }
      ],
      "name": "set",
      "outputs": [],
      "stateMutability": "nonpayable",
      "type": "function"
    },
    {
      "inputs": [
        {
          "internalType": "uint256",
          "name": "key",
          "type": "uint256"
        }
      ],
      "name": "tryGet",
      "outputs": [
        {
          "internalType": "bool",
          "name": "",
          "type": "bool"
        },
        {
          "internalType": "address",
          "name": "",
          "type": "address"
        }
      ],
      "stateMutability": "view",
      "type": "function"
    }
  ],
  "bytecode": "0x608060405234801561001057600080fd5b50610819806100206000396000f3fe608060405234801561001057600080fd5b50600436106100885760003560e01c80639507d39a1161005b5780639507d39a14610132578063c051a3a61461016b578063c34052e0146101e2578063e0886f901461021357610088565b80631f7b6d321461008d5780632f30c6f6146100a75780634cc82215146100d5578063871394d9146100f2575b600080fd5b610095610251565b60408051918252519081900360200190f35b6100d3600480360360408110156100bd57600080fd5b50803590602001356001600160a01b0316610262565b005b6100d3600480360360208110156100eb57600080fd5b50356102ad565b61010f6004803603602081101561010857600080fd5b50356102f6565b6040805192151583526001600160a01b0390911660208301528051918290030190f35b61014f6004803603602081101561014857600080fd5b503561030c565b604080516001600160a01b039092168252519081900360200190f35b61014f6004803603604081101561018157600080fd5b813591908101906040810160208201356401000000008111156101a357600080fd5b8201836020820111156101b557600080fd5b803590602001918460018302840111640100000000831117156101d757600080fd5b50909250905061031e565b6101ff600480360360208110156101f857600080fd5b503561036c565b604080519115158252519081900360200190f35b6102306004803603602081101561022957600080fd5b5035610378565b604080519283526001600160a01b0390911660208301528051918290030190f35b600061025d6000610385565b905090565b600061026f818484610390565b60408051821515815290519192507fed9840e0775590557ad736875d96c95cf1458b766335f74339951a32c82a9e33919081900360200190a1505050565b60006102b981836103a6565b60408051821515815290519192507fed9840e0775590557ad736875d96c95cf1458b766335f74339951a32c82a9e33919081900360200190a15050565b60008061030381846103b2565b91509150915091565b600061031881836103d0565b92915050565b60006103628484848080601f016020809104026020016040519081016040528093929190818152602001838380828437600092018290525094939250506103dc9050565b90505b9392505050565b600061031881836103e9565b60008061030381846103f5565b600061031882610404565b600061036284846001600160a01b038516610408565b6000610365838361049f565b60008080806103c1868661057d565b909450925050505b9250929050565b600061036583836105d4565b6000610362848484610664565b6000610365838361072e565b60008080806103c18686610746565b5490565b60008281526001840160205260408120548061046d575050604080518082018252838152602080820184815286546001818101895560008981528481209551600290930290950191825591519082015586548684528188019092529290912055610365565b8285600001600183038154811061048057fe5b9060005260206000209060020201600101819055506000915050610365565b6000818152600183016020526040812054801561057357835460001980830191908101906000908790839081106104d257fe5b90600052602060002090600202019050808760000184815481106104f257fe5b60009182526020808320845460029093020191825560019384015491840191909155835482528983019052604090209084019055865487908061053157fe5b60008281526020808220600260001990940193840201828155600190810183905592909355888152898201909252604082209190915594506103189350505050565b6000915050610318565b60008181526001830160205260408120548190806105a25750600091508190506103c9565b60018560000160018303815481106105b657fe5b90600052602060002090600202016001015492509250509250929050565b600081815260018301602052604081205480610637576040805162461bcd60e51b815260206004820152601e60248201527f456e756d657261626c654d61703a206e6f6e6578697374656e74206b65790000604482015290519081900360640190fd5b83600001600182038154811061064957fe5b90600052602060002090600202016001015491505092915050565b600082815260018401602052604081205482816106ff5760405162461bcd60e51b81526004018080602001828103825283818151815260200191508051906020019080838360005b838110156106c45781810151838201526020016106ac565b50505050905090810190601f1680156106f15780820380516001836020036101000a031916815260200191505b509250505060405180910390fd5b5084600001600182038154811061071257fe5b9060005260206000209060020201600101549150509392505050565b60009081526001919091016020526040902054151590565b81546000908190831061078a5760405162461bcd60e51b81526004018080602001828103825260228152602001806107c26022913960400191505060405180910390fd5b600084600001848154811061079b57fe5b90600052602060002090600202019050806000015481600101549250925050925092905056fe456e756d657261626c654d61703a20696e646578206f7574206f6620626f756e6473a2646970667358221220c114f15c3e8e449bdbca7b98a7673951734d7b38e630f4fb1350eef69374298364736f6c634300060c0033",
  "linkReferences": {},
  "deployedLinkReferences": {}
}