{
  "_format": "hh-sol-artifact-1",
  "contractName": "AccessControlMockUpgradeable",
  "sourceName": "contracts/contracts-upgradeable-v3_4/mocks/AccessControlMockUpgradeable.sol",
  "abi": [
    {
      "anonymous": false,
      "inputs": [
        {
          "indexed": true,
          "internalType": "bytes32",
          "name": "role",
          "type": "bytes32"
        },
        {
          "indexed": true,
          "internalType": "bytes32",
          "name": "previousAdminRole",
          "type": "bytes32"
        },
        {
          "indexed": true,
          "internalType": "bytes32",
          "name": "newAdminRole",
          "type": "bytes32"
        }
      ],
      "name": "RoleAdminChanged",
      "type": "event"
    },
    {
      "anonymous": false,
      "inputs": [
        {
          "indexed": true,
          "internalType": "bytes32",
          "name": "role",
          "type": "bytes32"
        },
        {
          "indexed": true,
          "internalType": "address",
          "name": "account",
          "type": "address"
        },
        {
          "indexed": true,
          "internalType": "address",
          "name": "sender",
          "type": "address"
        }
      ],
      "name": "RoleGranted",
      "type": "event"
    },
    {
      "anonymous": false,
      "inputs": [
        {
          "indexed": true,
          "internalType": "bytes32",
          "name": "role",
          "type": "bytes32"
        },
        {
          "indexed": true,
          "internalType": "address",
          "name": "account",
          "type": "address"
        },
        {
          "indexed": true,
          "internalType": "address",
          "name": "sender",
          "type": "address"
        }
      ],
      "name": "RoleRevoked",
      "type": "event"
    },
    {
      "inputs": [],
      "name": "DEFAULT_ADMIN_ROLE",
      "outputs": [
        {
          "internalType": "bytes32",
          "name": "",
          "type": "bytes32"
        }
      ],
      "stateMutability": "view",
      "type": "function"
    },
    {
      "inputs": [
        {
          "internalType": "bytes32",
          "name": "role",
          "type": "bytes32"
        }
      ],
      "name": "getRoleAdmin",
      "outputs": [
        {
          "internalType": "bytes32",
          "name": "",
          "type": "bytes32"
        }
      ],
      "stateMutability": "view",
      "type": "function"
    },
    {
      "inputs": [
        {
          "internalType": "bytes32",
          "name": "role",
          "type": "bytes32"
        },
        {
          "internalType": "uint256",
          "name": "index",
          "type": "uint256"
        }
      ],
      "name": "getRoleMember",
      "outputs": [
        {
          "internalType": "address",
          "name": "",
          "type": "address"
        }
      ],
      "stateMutability": "view",
      "type": "function"
    },
    {
      "inputs": [
        {
          "internalType": "bytes32",
          "name": "role",
          "type": "bytes32"
        }
      ],
      "name": "getRoleMemberCount",
      "outputs": [
        {
          "internalType": "uint256",
          "name": "",
          "type": "uint256"
        }
      ],
      "stateMutability": "view",
      "type": "function"
    },
    {
      "inputs": [
        {
          "internalType": "bytes32",
          "name": "role",
          "type": "bytes32"
        },
        {
          "internalType": "address",
          "name": "account",
          "type": "address"
        }
      ],
      "name": "grantRole",
      "outputs": [],
      "stateMutability": "nonpayable",
      "type": "function"
    },
    {
      "inputs": [
        {
          "internalType": "bytes32",
          "name": "role",
          "type": "bytes32"
        },
        {
          "internalType": "address",
          "name": "account",
          "type": "address"
        }
      ],
      "name": "hasRole",
      "outputs": [
        {
          "internalType": "bool",
          "name": "",
          "type": "bool"
        }
      ],
      "stateMutability": "view",
      "type": "function"
    },
    {
      "inputs": [
        {
          "internalType": "bytes32",
          "name": "role",
          "type": "bytes32"
        },
        {
          "internalType": "address",
          "name": "account",
          "type": "address"
        }
      ],
      "name": "renounceRole",
      "outputs": [],
      "stateMutability": "nonpayable",
      "type": "function"
    },
    {
      "inputs": [
        {
          "internalType": "bytes32",
          "name": "role",
          "type": "bytes32"
        },
        {
          "internalType": "address",
          "name": "account",
          "type": "address"
        }
      ],
      "name": "revokeRole",
      "outputs": [],
      "stateMutability": "nonpayable",
      "type": "function"
    },
    {
      "inputs": [
        {
          "internalType": "bytes32",
          "name": "roleId",
          "type": "bytes32"
        },
        {
          "internalType": "bytes32",
          "name": "adminRoleId",
          "type": "bytes32"
        }
      ],
      "name": "setRoleAdmin",
      "outputs": [],
      "stateMutability": "nonpayable",
      "type": "function"
    }
  ],
  "bytecode": "0x608060405234801561001057600080fd5b506107a2806100206000396000f3fe608060405234801561001057600080fd5b50600436106100935760003560e01c80639010d07c116100665780639010d07c1461014457806391d1485414610183578063a217fddf146101c3578063ca15c873146101cb578063d547741f146101e857610093565b80631e4e009114610098578063248a9ca3146100bd5780632f2ff15d146100ec57806336568abe14610118575b600080fd5b6100bb600480360360408110156100ae57600080fd5b5080359060200135610214565b005b6100da600480360360208110156100d357600080fd5b5035610222565b60408051918252519081900360200190f35b6100bb6004803603604081101561010257600080fd5b50803590602001356001600160a01b0316610237565b6100bb6004803603604081101561012e57600080fd5b50803590602001356001600160a01b031661029f565b6101676004803603604081101561015a57600080fd5b5080359060200135610300565b604080516001600160a01b039092168252519081900360200190f35b6101af6004803603604081101561019957600080fd5b50803590602001356001600160a01b0316610321565b604080519115158252519081900360200190f35b6100da610339565b6100da600480360360208110156101e157600080fd5b503561033e565b6100bb600480360360408110156101fe57600080fd5b50803590602001356001600160a01b0316610355565b61021e82826103ae565b5050565b60009081526033602052604090206002015490565b60008281526033602052604090206002015461025a90610255610400565b610321565b6102955760405162461bcd60e51b815260040180806020018281038252602f8152602001806106df602f913960400191505060405180910390fd5b61021e8282610404565b6102a7610400565b6001600160a01b0316816001600160a01b0316146102f65760405162461bcd60e51b815260040180806020018281038252602f81526020018061073e602f913960400191505060405180910390fd5b61021e828261046d565b600082815260336020526040812061031890836104d6565b90505b92915050565b600082815260336020526040812061031890836104e2565b600081565b600081815260336020526040812061031b906104f7565b60008281526033602052604090206002015461037390610255610400565b6102f65760405162461bcd60e51b815260040180806020018281038252603081526020018061070e6030913960400191505060405180910390fd5b600082815260336020526040808220600201549051839285917fbd79b86ffe0ab8e8776151514217cd7cacd52c909f66475c3af44e129f0b00ff9190a460009182526033602052604090912060020155565b3390565b600082815260336020526040902061041c9082610502565b1561021e57610429610400565b6001600160a01b0316816001600160a01b0316837f2f8788117e7eff1d82e926ec794901d17c78024a50270940304540a733656f0d60405160405180910390a45050565b60008281526033602052604090206104859082610517565b1561021e57610492610400565b6001600160a01b0316816001600160a01b0316837ff6391f5c32d9c69d2a47ea670b442974b53935d1edc7fd64eb21e047a839171b60405160405180910390a45050565b6000610318838361052c565b6000610318836001600160a01b038416610590565b600061031b826105a8565b6000610318836001600160a01b0384166105ac565b6000610318836001600160a01b0384166105f6565b8154600090821061056e5760405162461bcd60e51b81526004018080602001828103825260228152602001806106bd6022913960400191505060405180910390fd5b82600001828154811061057d57fe5b9060005260206000200154905092915050565b60009081526001919091016020526040902054151590565b5490565b60006105b88383610590565b6105ee5750815460018181018455600084815260208082209093018490558454848252828601909352604090209190915561031b565b50600061031b565b600081815260018301602052604081205480156106b2578354600019808301919081019060009087908390811061062957fe5b906000526020600020015490508087600001848154811061064657fe5b60009182526020808320909101929092558281526001898101909252604090209084019055865487908061067657fe5b6001900381819060005260206000200160009055905586600101600087815260200190815260200160002060009055600194505050505061031b565b600091505061031b56fe456e756d657261626c655365743a20696e646578206f7574206f6620626f756e6473416363657373436f6e74726f6c3a2073656e646572206d75737420626520616e2061646d696e20746f206772616e74416363657373436f6e74726f6c3a2073656e646572206d75737420626520616e2061646d696e20746f207265766f6b65416363657373436f6e74726f6c3a2063616e206f6e6c792072656e6f756e636520726f6c657320666f722073656c66a264697066735822122059c9ad935d25d753fbef785434815c95cbe70fdb39c09c711414bd88d018a4b664736f6c634300060c0033",
  "linkReferences": {},
  "deployedLinkReferences": {}
}