{
  "_format": "hh-sol-artifact-1",
  "contractName": "ERC777PresetFixedSupplyUpgradeable",
  "sourceName": "contracts/contracts-upgradeable-v3_4/presets/ERC777PresetFixedSupplyUpgradeable.sol",
  "abi": [
    {
      "anonymous": false,
      "inputs": [
        {
          "indexed": true,
          "internalType": "address",
          "name": "owner",
          "type": "address"
        },
        {
          "indexed": true,
          "internalType": "address",
          "name": "spender",
          "type": "address"
        },
        {
          "indexed": false,
          "internalType": "uint256",
          "name": "value",
          "type": "uint256"
        }
      ],
      "name": "Approval",
      "type": "event"
    },
    {
      "anonymous": false,
      "inputs": [
        {
          "indexed": true,
          "internalType": "address",
          "name": "operator",
          "type": "address"
        },
        {
          "indexed": true,
          "internalType": "address",
          "name": "tokenHolder",
          "type": "address"
        }
      ],
      "name": "AuthorizedOperator",
      "type": "event"
    },
    {
      "anonymous": false,
      "inputs": [
        {
          "indexed": true,
          "internalType": "address",
          "name": "operator",
          "type": "address"
        },
        {
          "indexed": true,
          "internalType": "address",
          "name": "from",
          "type": "address"
        },
        {
          "indexed": false,
          "internalType": "uint256",
          "name": "amount",
          "type": "uint256"
        },
        {
          "indexed": false,
          "internalType": "bytes",
          "name": "data",
          "type": "bytes"
        },
        {
          "indexed": false,
          "internalType": "bytes",
          "name": "operatorData",
          "type": "bytes"
        }
      ],
      "name": "Burned",
      "type": "event"
    },
    {
      "anonymous": false,
      "inputs": [
        {
          "indexed": true,
          "internalType": "address",
          "name": "operator",
          "type": "address"
        },
        {
          "indexed": true,
          "internalType": "address",
          "name": "to",
          "type": "address"
        },
        {
          "indexed": false,
          "internalType": "uint256",
          "name": "amount",
          "type": "uint256"
        },
        {
          "indexed": false,
          "internalType": "bytes",
          "name": "data",
          "type": "bytes"
        },
        {
          "indexed": false,
          "internalType": "bytes",
          "name": "operatorData",
          "type": "bytes"
        }
      ],
      "name": "Minted",
      "type": "event"
    },
    {
      "anonymous": false,
      "inputs": [
        {
          "indexed": true,
          "internalType": "address",
          "name": "operator",
          "type": "address"
        },
        {
          "indexed": true,
          "internalType": "address",
          "name": "tokenHolder",
          "type": "address"
        }
      ],
      "name": "RevokedOperator",
      "type": "event"
    },
    {
      "anonymous": false,
      "inputs": [
        {
          "indexed": true,
          "internalType": "address",
          "name": "operator",
          "type": "address"
        },
        {
          "indexed": true,
          "internalType": "address",
          "name": "from",
          "type": "address"
        },
        {
          "indexed": true,
          "internalType": "address",
          "name": "to",
          "type": "address"
        },
        {
          "indexed": false,
          "internalType": "uint256",
          "name": "amount",
          "type": "uint256"
        },
        {
          "indexed": false,
          "internalType": "bytes",
          "name": "data",
          "type": "bytes"
        },
        {
          "indexed": false,
          "internalType": "bytes",
          "name": "operatorData",
          "type": "bytes"
        }
      ],
      "name": "Sent",
      "type": "event"
    },
    {
      "anonymous": false,
      "inputs": [
        {
          "indexed": true,
          "internalType": "address",
          "name": "from",
          "type": "address"
        },
        {
          "indexed": true,
          "internalType": "address",
          "name": "to",
          "type": "address"
        },
        {
          "indexed": false,
          "internalType": "uint256",
          "name": "value",
          "type": "uint256"
        }
      ],
      "name": "Transfer",
      "type": "event"
    },
    {
      "inputs": [
        {
          "internalType": "address",
          "name": "holder",
          "type": "address"
        },
        {
          "internalType": "address",
          "name": "spender",
          "type": "address"
        }
      ],
      "name": "allowance",
      "outputs": [
        {
          "internalType": "uint256",
          "name": "",
          "type": "uint256"
        }
      ],
      "stateMutability": "view",
      "type": "function"
    },
    {
      "inputs": [
        {
          "internalType": "address",
          "name": "spender",
          "type": "address"
        },
        {
          "internalType": "uint256",
          "name": "value",
          "type": "uint256"
        }
      ],
      "name": "approve",
      "outputs": [
        {
          "internalType": "bool",
          "name": "",
          "type": "bool"
        }
      ],
      "stateMutability": "nonpayable",
      "type": "function"
    },
    {
      "inputs": [
        {
          "internalType": "address",
          "name": "operator",
          "type": "address"
        }
      ],
      "name": "authorizeOperator",
      "outputs": [],
      "stateMutability": "nonpayable",
      "type": "function"
    },
    {
      "inputs": [
        {
          "internalType": "address",
          "name": "tokenHolder",
          "type": "address"
        }
      ],
      "name": "balanceOf",
      "outputs": [
        {
          "internalType": "uint256",
          "name": "",
          "type": "uint256"
        }
      ],
      "stateMutability": "view",
      "type": "function"
    },
    {
      "inputs": [
        {
          "internalType": "uint256",
          "name": "amount",
          "type": "uint256"
        },
        {
          "internalType": "bytes",
          "name": "data",
          "type": "bytes"
        }
      ],
      "name": "burn",
      "outputs": [],
      "stateMutability": "nonpayable",
      "type": "function"
    },
    {
      "inputs": [],
      "name": "decimals",
      "outputs": [
        {
          "internalType": "uint8",
          "name": "",
          "type": "uint8"
        }
      ],
      "stateMutability": "pure",
      "type": "function"
    },
    {
      "inputs": [],
      "name": "defaultOperators",
      "outputs": [
        {
          "internalType": "address[]",
          "name": "",
          "type": "address[]"
        }
      ],
      "stateMutability": "view",
      "type": "function"
    },
    {
      "inputs": [],
      "name": "granularity",
      "outputs": [
        {
          "internalType": "uint256",
          "name": "",
          "type": "uint256"
        }
      ],
      "stateMutability": "view",
      "type": "function"
    },
    {
      "inputs": [
        {
          "internalType": "string",
          "name": "name",
          "type": "string"
        },
        {
          "internalType": "string",
          "name": "symbol",
          "type": "string"
        },
        {
          "internalType": "address[]",
          "name": "defaultOperators",
          "type": "address[]"
        },
        {
          "internalType": "uint256",
          "name": "initialSupply",
          "type": "uint256"
        },
        {
          "internalType": "address",
          "name": "owner",
          "type": "address"
        }
      ],
      "name": "initialize",
      "outputs": [],
      "stateMutability": "nonpayable",
      "type": "function"
    },
    {
      "inputs": [
        {
          "internalType": "address",
          "name": "operator",
          "type": "address"
        },
        {
          "internalType": "address",
          "name": "tokenHolder",
          "type": "address"
        }
      ],
      "name": "isOperatorFor",
      "outputs": [
        {
          "internalType": "bool",
          "name": "",
          "type": "bool"
        }
      ],
      "stateMutability": "view",
      "type": "function"
    },
    {
      "inputs": [],
      "name": "name",
      "outputs": [
        {
          "internalType": "string",
          "name": "",
          "type": "string"
        }
      ],
      "stateMutability": "view",
      "type": "function"
    },
    {
      "inputs": [
        {
          "internalType": "address",
          "name": "account",
          "type": "address"
        },
        {
          "internalType": "uint256",
          "name": "amount",
          "type": "uint256"
        },
        {
          "internalType": "bytes",
          "name": "data",
          "type": "bytes"
        },
        {
          "internalType": "bytes",
          "name": "operatorData",
          "type": "bytes"
        }
      ],
      "name": "operatorBurn",
      "outputs": [],
      "stateMutability": "nonpayable",
      "type": "function"
    },
    {
      "inputs": [
        {
          "internalType": "address",
          "name": "sender",
          "type": "address"
        },
        {
          "internalType": "address",
          "name": "recipient",
          "type": "address"
        },
        {
          "internalType": "uint256",
          "name": "amount",
          "type": "uint256"
        },
        {
          "internalType": "bytes",
          "name": "data",
          "type": "bytes"
        },
        {
          "internalType": "bytes",
          "name": "operatorData",
          "type": "bytes"
        }
      ],
      "name": "operatorSend",
      "outputs": [],
      "stateMutability": "nonpayable",
      "type": "function"
    },
    {
      "inputs": [
        {
          "internalType": "address",
          "name": "operator",
          "type": "address"
        }
      ],
      "name": "revokeOperator",
      "outputs": [],
      "stateMutability": "nonpayable",
      "type": "function"
    },
    {
      "inputs": [
        {
          "internalType": "address",
          "name": "recipient",
          "type": "address"
        },
        {
          "internalType": "uint256",
          "name": "amount",
          "type": "uint256"
        },
        {
          "internalType": "bytes",
          "name": "data",
          "type": "bytes"
        }
      ],
      "name": "send",
      "outputs": [],
      "stateMutability": "nonpayable",
      "type": "function"
    },
    {
      "inputs": [],
      "name": "symbol",
      "outputs": [
        {
          "internalType": "string",
          "name": "",
          "type": "string"
        }
      ],
      "stateMutability": "view",
      "type": "function"
    },
    {
      "inputs": [],
      "name": "totalSupply",
      "outputs": [
        {
          "internalType": "uint256",
          "name": "",
          "type": "uint256"
        }
      ],
      "stateMutability": "view",
      "type": "function"
    },
    {
      "inputs": [
        {
          "internalType": "address",
          "name": "recipient",
          "type": "address"
        },
        {
          "internalType": "uint256",
          "name": "amount",
          "type": "uint256"
        }
      ],
      "name": "transfer",
      "outputs": [
        {
          "internalType": "bool",
          "name": "",
          "type": "bool"
        }
      ],
      "stateMutability": "nonpayable",
      "type": "function"
    },
    {
      "inputs": [
        {
          "internalType": "address",
          "name": "holder",
          "type": "address"
        },
        {
          "internalType": "address",
          "name": "recipient",
          "type": "address"
        },
        {
          "internalType": "uint256",
          "name": "amount",
          "type": "uint256"
        }
      ],
      "name": "transferFrom",
      "outputs": [
        {
          "internalType": "bool",
          "name": "",
          "type": "bool"
        }
      ],
      "stateMutability": "nonpayable",
      "type": "function"
    }
  ],
  "bytecode": "0x608060405234801561001057600080fd5b506128ce806100206000396000f3fe608060405234801561001057600080fd5b50600436106101215760003560e01c8063768f950a116100ad578063d95b637111610071578063d95b6371146106ee578063dd62ed3e1461071c578063fad8b32a1461074a578063fc673c4f14610770578063fe9d9303146108ae57610121565b8063768f950a14610422578063959b8c3f146105db57806395d89b41146106015780639bd9bbc614610609578063a9059cbb146106c257610121565b806323b872dd116100f457806323b872dd14610255578063313ce5671461028b578063556f0dc7146102a957806362ad1b83146102b157806370a08231146103fc57610121565b806306e485381461012657806306fdde031461017e578063095ea7b3146101fb57806318160ddd1461023b575b600080fd5b61012e610959565b60408051602080825283518183015283519192839290830191858101910280838360005b8381101561016a578181015183820152602001610152565b505050509050019250505060405180910390f35b6101866109bb565b6040805160208082528351818301528351919283929083019185019080838360005b838110156101c05781810151838201526020016101a8565b50505050905090810190601f1680156101ed5780820380516001836020036101000a031916815260200191505b509250505060405180910390f35b6102276004803603604081101561021157600080fd5b506001600160a01b038135169060200135610a48565b604080519115158252519081900360200190f35b610243610a6a565b60408051918252519081900360200190f35b6102276004803603606081101561026b57600080fd5b506001600160a01b03813581169160208101359091169060400135610a70565b610293610bed565b6040805160ff9092168252519081900360200190f35b610243610bf2565b6103fa600480360360a08110156102c757600080fd5b6001600160a01b03823581169260208101359091169160408201359190810190608081016060820135600160201b81111561030157600080fd5b82018360208201111561031357600080fd5b803590602001918460018302840111600160201b8311171561033457600080fd5b91908080601f0160208091040260200160405190810160405280939291908181526020018383808284376000920191909152509295949360208101935035915050600160201b81111561038657600080fd5b82018360208201111561039857600080fd5b803590602001918460018302840111600160201b831117156103b957600080fd5b91908080601f016020809104026020016040519081016040528093929190818152602001838380828437600092019190915250929550610bf7945050505050565b005b6102436004803603602081101561041257600080fd5b50356001600160a01b0316610c59565b6103fa600480360360a081101561043857600080fd5b810190602081018135600160201b81111561045257600080fd5b82018360208201111561046457600080fd5b803590602001918460018302840111600160201b8311171561048557600080fd5b91908080601f0160208091040260200160405190810160405280939291908181526020018383808284376000920191909152509295949360208101935035915050600160201b8111156104d757600080fd5b8201836020820111156104e957600080fd5b803590602001918460018302840111600160201b8311171561050a57600080fd5b91908080601f0160208091040260200160405190810160405280939291908181526020018383808284376000920191909152509295949360208101935035915050600160201b81111561055c57600080fd5b82018360208201111561056e57600080fd5b803590602001918460208302840111600160201b8311171561058f57600080fd5b91908080602002602001604051908101604052809392919081815260200183836020028082843760009201919091525092955050823593505050602001356001600160a01b0316610c74565b6103fa600480360360208110156105f157600080fd5b50356001600160a01b0316610d28565b610186610e74565b6103fa6004803603606081101561061f57600080fd5b6001600160a01b0382351691602081013591810190606081016040820135600160201b81111561064e57600080fd5b82018360208201111561066057600080fd5b803590602001918460018302840111600160201b8311171561068157600080fd5b91908080601f016020809104026020016040519081016040528093929190818152602001838380828437600092019190915250929550610ed5945050505050565b610227600480360360408110156106d857600080fd5b506001600160a01b038135169060200135610eff565b6102276004803603604081101561070457600080fd5b506001600160a01b0381358116916020013516610fd8565b6102436004803603604081101561073257600080fd5b506001600160a01b038135811691602001351661107a565b6103fa6004803603602081101561076057600080fd5b50356001600160a01b03166110a5565b6103fa6004803603608081101561078657600080fd5b6001600160a01b0382351691602081013591810190606081016040820135600160201b8111156107b557600080fd5b8201836020820111156107c757600080fd5b803590602001918460018302840111600160201b831117156107e857600080fd5b91908080601f0160208091040260200160405190810160405280939291908181526020018383808284376000920191909152509295949360208101935035915050600160201b81111561083a57600080fd5b82018360208201111561084c57600080fd5b803590602001918460018302840111600160201b8311171561086d57600080fd5b91908080601f0160208091040260200160405190810160405280939291908181526020018383808284376000920191909152509295506111f1945050505050565b6103fa600480360360408110156108c457600080fd5b81359190810190604081016020820135600160201b8111156108e557600080fd5b8201836020820111156108f757600080fd5b803590602001918460018302840111600160201b8311171561091857600080fd5b91908080601f01602080910402602001604051908101604052809392919081815260200183838082843760009201919091525092955061124f945050505050565b606060378054806020026020016040519081016040528092919081815260200182805480156109b157602002820191906000526020600020905b81546001600160a01b03168152600190910190602001808311610993575b5050505050905090565b60358054604080516020601f60026000196101006001881615020190951694909404938401819004810282018101909252828152606093909290918301828280156109b15780601f10610a1c576101008083540402835291602001916109b1565b820191906000526020600020905b815481529060010190602001808311610a2a57509395945050505050565b600080610a53611275565b9050610a60818585611279565b5060019392505050565b60345490565b60006001600160a01b038316610ab75760405162461bcd60e51b81526004018080602001828103825260248152602001806127b46024913960400191505060405180910390fd5b6001600160a01b038416610afc5760405162461bcd60e51b815260040180806020018281038252602681526020018061282d6026913960400191505060405180910390fd5b6000610b06611275565b9050610b34818686866040518060200160405280600081525060405180602001604052806000815250611365565b610b60818686866040518060200160405280600081525060405180602001604052806000815250611592565b610bb48582610baf86604051806060016040528060298152602001612804602991396001600160a01b03808c166000908152603b60209081526040808320938b168352929052205491906117ac565b611279565b610be28186868660405180602001604052806000815250604051806020016040528060008152506000611843565b506001949350505050565b601290565b600190565b610c08610c02611275565b86610fd8565b610c435760405162461bcd60e51b815260040180806020018281038252602c8152602001806127d8602c913960400191505060405180910390fd5b610c5285858585856001611ac8565b5050505050565b6001600160a01b031660009081526033602052604090205490565b600054610100900460ff1680610c8d5750610c8d611b9f565b80610c9b575060005460ff16155b610cd65760405162461bcd60e51b815260040180806020018281038252602e815260200180612739602e913960400191505060405180910390fd5b600054610100900460ff16158015610d01576000805460ff1961ff0019909116610100171660011790555b610d0e8686868686611bb0565b8015610d20576000805461ff00191690555b505050505050565b806001600160a01b0316610d3a611275565b6001600160a01b03161415610d805760405162461bcd60e51b81526004018080602001828103825260248152602001806126f46024913960400191505060405180910390fd5b6001600160a01b03811660009081526038602052604090205460ff1615610de357603a6000610dad611275565b6001600160a01b03908116825260208083019390935260409182016000908120918516815292529020805460ff19169055610e2a565b600160396000610df1611275565b6001600160a01b03908116825260208083019390935260409182016000908120918616815292529020805460ff19169115159190911790555b610e32611275565b6001600160a01b0316816001600160a01b03167ff4caeb2d6ca8932a215a353d0703c326ec2d81fc68170f320eb2ab49e9df61f960405160405180910390a350565b60368054604080516020601f60026000196101006001881615020190951694909404938401819004810282018101909252828152606093909290918301828280156109b15780601f10610a1c576101008083540402835291602001916109b1565b610efa610ee0611275565b848484604051806020016040528060008152506001611ac8565b505050565b60006001600160a01b038316610f465760405162461bcd60e51b81526004018080602001828103825260248152602001806127b46024913960400191505060405180910390fd5b6000610f50611275565b9050610f7e818286866040518060200160405280600081525060405180602001604052806000815250611365565b610faa818286866040518060200160405280600081525060405180602001604052806000815250611592565b610a608182868660405180602001604052806000815250604051806020016040528060008152506000611843565b6000816001600160a01b0316836001600160a01b0316148061104357506001600160a01b03831660009081526038602052604090205460ff16801561104357506001600160a01b038083166000908152603a602090815260408083209387168352929052205460ff16155b8061107357506001600160a01b0380831660009081526039602090815260408083209387168352929052205460ff165b9392505050565b6001600160a01b039182166000908152603b6020908152604080832093909416825291909152205490565b6110ad611275565b6001600160a01b0316816001600160a01b031614156110fd5760405162461bcd60e51b81526004018080602001828103825260218152602001806127186021913960400191505060405180910390fd5b6001600160a01b03811660009081526038602052604090205460ff1615611169576001603a600061112c611275565b6001600160a01b03908116825260208083019390935260409182016000908120918616815292529020805460ff19169115159190911790556111a7565b60396000611175611275565b6001600160a01b03908116825260208083019390935260409182016000908120918516815292529020805460ff191690555b6111af611275565b6001600160a01b0316816001600160a01b03167f50546e66e5f44d728365dc3908c63bc5cfeeab470722c1677e3073a6ac294aa160405160405180910390a350565b6112026111fc611275565b85610fd8565b61123d5760405162461bcd60e51b815260040180806020018281038252602c8152602001806127d8602c913960400191505060405180910390fd5b61124984848484611c5d565b50505050565b61127161125a611275565b838360405180602001604052806000815250611c5d565b5050565b3390565b6001600160a01b0383166112be5760405162461bcd60e51b81526004018080602001828103825260258152602001806126646025913960400191505060405180910390fd5b6001600160a01b0382166113035760405162461bcd60e51b81526004018080602001828103825260238152602001806128766023913960400191505060405180910390fd5b6001600160a01b038084166000818152603b6020908152604080832094871680845294825291829020859055815185815291517f8c5be1e5ebec7d5bd14f71427d1e84f3dd0314c0f7b2291e5b200ac8c7c3b9259281900390910190a3505050565b6040805163555ddc6560e11b81526001600160a01b03871660048201527f29ddb589b1fb5fc7cf394961c1adf5f8c6454761adf795e67fe149f658abe89560248201529051600091731820a4b7618bde71dce8cdc73aab6c95905fad249163aabbb8ca91604480820192602092909190829003018186803b1580156113e957600080fd5b505afa1580156113fd573d6000803e3d6000fd5b505050506040513d602081101561141357600080fd5b505190506001600160a01b0381161561158957806001600160a01b03166375ab97828888888888886040518763ffffffff1660e01b815260040180876001600160a01b03168152602001866001600160a01b03168152602001856001600160a01b031681526020018481526020018060200180602001838103835285818151815260200191508051906020019080838360005b838110156114be5781810151838201526020016114a6565b50505050905090810190601f1680156114eb5780820380516001836020036101000a031916815260200191505b50838103825284518152845160209182019186019080838360005b8381101561151e578181015183820152602001611506565b50505050905090810190601f16801561154b5780820380516001836020036101000a031916815260200191505b5098505050505050505050600060405180830381600087803b15801561157057600080fd5b505af1158015611584573d6000803e3d6000fd5b505050505b50505050505050565b61159e86868686611249565b6115db836040518060600160405280602781526020016126ab602791396001600160a01b03881660009081526033602052604090205491906117ac565b6001600160a01b03808716600090815260336020526040808220939093559086168152205461160a9084611e97565b60336000866001600160a01b03166001600160a01b0316815260200190815260200160002081905550836001600160a01b0316856001600160a01b0316876001600160a01b03167f06b541ddaa720db2b10a4d0cdac39b8d360425fc073085fac19bc82614677987868686604051808481526020018060200180602001838103835285818151815260200191508051906020019080838360005b838110156116bc5781810151838201526020016116a4565b50505050905090810190601f1680156116e95780820380516001836020036101000a031916815260200191505b50838103825284518152845160209182019186019080838360005b8381101561171c578181015183820152602001611704565b50505050905090810190601f1680156117495780820380516001836020036101000a031916815260200191505b509550505050505060405180910390a4836001600160a01b0316856001600160a01b03167fddf252ad1be2c89b69c2b068fc378daa952ba7f163c4a11628f55a4df523b3ef856040518082815260200191505060405180910390a3505050505050565b6000818484111561183b5760405162461bcd60e51b81526004018080602001828103825283818151815260200191508051906020019080838360005b838110156118005781810151838201526020016117e8565b50505050905090810190601f16801561182d5780820380516001836020036101000a031916815260200191505b509250505060405180910390fd5b505050900390565b6040805163555ddc6560e11b81526001600160a01b03871660048201527fb281fc8c12954d22544db45de3159a39272895b169a852b314f9cc762e44c53b60248201529051600091731820a4b7618bde71dce8cdc73aab6c95905fad249163aabbb8ca91604480820192602092909190829003018186803b1580156118c757600080fd5b505afa1580156118db573d6000803e3d6000fd5b505050506040513d60208110156118f157600080fd5b505190506001600160a01b03811615611a6a57806001600160a01b03166223de298989898989896040518763ffffffff1660e01b815260040180876001600160a01b03168152602001866001600160a01b03168152602001856001600160a01b031681526020018481526020018060200180602001838103835285818151815260200191508051906020019080838360005b8381101561199b578181015183820152602001611983565b50505050905090810190601f1680156119c85780820380516001836020036101000a031916815260200191505b50838103825284518152845160209182019186019080838360005b838110156119fb5781810151838201526020016119e3565b50505050905090810190601f168015611a285780820380516001836020036101000a031916815260200191505b5098505050505050505050600060405180830381600087803b158015611a4d57600080fd5b505af1158015611a61573d6000803e3d6000fd5b50505050611abe565b8115611abe57611a82866001600160a01b0316611ef1565b15611abe5760405162461bcd60e51b815260040180806020018281038252604d815260200180612767604d913960600191505060405180910390fd5b5050505050505050565b6001600160a01b038616611b0d5760405162461bcd60e51b81526004018080602001828103825260228152602001806126896022913960400191505060405180910390fd5b6001600160a01b038516611b68576040805162461bcd60e51b815260206004820181905260248201527f4552433737373a2073656e6420746f20746865207a65726f2061646472657373604482015290519081900360640190fd5b6000611b72611275565b9050611b82818888888888611365565b611b90818888888888611592565b61158981888888888888611843565b6000611baa30611ef1565b15905090565b600054610100900460ff1680611bc95750611bc9611b9f565b80611bd7575060005460ff16155b611c125760405162461bcd60e51b815260040180806020018281038252602e815260200180612739602e913960400191505060405180910390fd5b600054610100900460ff16158015611c3d576000805460ff1961ff0019909116610100171660011790555b611c45611ef7565b611c50868686611f99565b610d0e8686868686612204565b6001600160a01b038416611ca25760405162461bcd60e51b81526004018080602001828103825260228152602001806126d26022913960400191505060405180910390fd5b6000611cac611275565b9050611cbd81866000878787611365565b611cca8186600087611249565b611d0784604051806060016040528060238152602001612853602391396001600160a01b03881660009081526033602052604090205491906117ac565b6001600160a01b038616600090815260336020526040902055603454611d2d90856122bb565b603481905550846001600160a01b0316816001600160a01b03167fa78a9be3a7b862d26933ad85fb11d80ef66b8f972d7cbba06621d583943a4098868686604051808481526020018060200180602001838103835285818151815260200191508051906020019080838360005b83811015611db2578181015183820152602001611d9a565b50505050905090810190601f168015611ddf5780820380516001836020036101000a031916815260200191505b50838103825284518152845160209182019186019080838360005b83811015611e12578181015183820152602001611dfa565b50505050905090810190601f168015611e3f5780820380516001836020036101000a031916815260200191505b509550505050505060405180910390a36040805185815290516000916001600160a01b038816917fddf252ad1be2c89b69c2b068fc378daa952ba7f163c4a11628f55a4df523b3ef9181900360200190a35050505050565b600082820183811015611073576040805162461bcd60e51b815260206004820152601b60248201527f536166654d6174683a206164646974696f6e206f766572666c6f770000000000604482015290519081900360640190fd5b3b151590565b600054610100900460ff1680611f105750611f10611b9f565b80611f1e575060005460ff16155b611f595760405162461bcd60e51b815260040180806020018281038252602e815260200180612739602e913960400191505060405180910390fd5b600054610100900460ff16158015611f84576000805460ff1961ff0019909116610100171660011790555b8015611f96576000805461ff00191690555b50565b600054610100900460ff1680611fb25750611fb2611b9f565b80611fc0575060005460ff16155b611ffb5760405162461bcd60e51b815260040180806020018281038252602e815260200180612739602e913960400191505060405180910390fd5b600054610100900460ff16158015612026576000805460ff1961ff0019909116610100171660011790555b8351612039906035906020870190612550565b50825161204d906036906020860190612550565b5081516120619060379060208501906125ce565b5060005b6037548110156120be576001603860006037848154811061208257fe5b6000918252602080832091909101546001600160a01b031683528201929092526040019020805460ff1916911515919091179055600101612065565b50604080516329965a1d60e01b815230600482018190527fac7fbab5f54a3ca8194167523c6753bfeb96a445279294b6125b68cce2177054602483015260448201529051731820a4b7618bde71dce8cdc73aab6c95905fad24916329965a1d91606480830192600092919082900301818387803b15801561213e57600080fd5b505af1158015612152573d6000803e3d6000fd5b5050604080516329965a1d60e01b815230600482018190527faea199e31a596269b42cdafd93407f14436db6e4cad65417994c2eb37381e05a602483015260448201529051731820a4b7618bde71dce8cdc73aab6c95905fad2493506329965a1d9250606480830192600092919082900301818387803b1580156121d557600080fd5b505af11580156121e9573d6000803e3d6000fd5b505050508015611249576000805461ff001916905550505050565b600054610100900460ff168061221d575061221d611b9f565b8061222b575060005460ff16155b6122665760405162461bcd60e51b815260040180806020018281038252602e815260200180612739602e913960400191505060405180910390fd5b600054610100900460ff16158015612291576000805460ff1961ff0019909116610100171660011790555b610d0e82846040518060200160405280600081525060405180602001604052806000815250612318565b600082821115612312576040805162461bcd60e51b815260206004820152601e60248201527f536166654d6174683a207375627472616374696f6e206f766572666c6f770000604482015290519081900360640190fd5b50900390565b6001600160a01b038416612373576040805162461bcd60e51b815260206004820181905260248201527f4552433737373a206d696e7420746f20746865207a65726f2061646472657373604482015290519081900360640190fd5b600061237d611275565b905061238c8160008787611249565b6034546123999085611e97565b6034556001600160a01b0385166000908152603360205260409020546123bf9085611e97565b6001600160a01b0386166000908152603360205260408120919091556123ec908290878787876001611843565b846001600160a01b0316816001600160a01b03167f2fe5be0146f74c5bce36c0b80911af6c7d86ff27e89d5cfa61fc681327954e5d868686604051808481526020018060200180602001838103835285818151815260200191508051906020019080838360005b8381101561246b578181015183820152602001612453565b50505050905090810190601f1680156124985780820380516001836020036101000a031916815260200191505b50838103825284518152845160209182019186019080838360005b838110156124cb5781810151838201526020016124b3565b50505050905090810190601f1680156124f85780820380516001836020036101000a031916815260200191505b509550505050505060405180910390a36040805185815290516001600160a01b038716916000917fddf252ad1be2c89b69c2b068fc378daa952ba7f163c4a11628f55a4df523b3ef9181900360200190a35050505050565b828054600181600116156101000203166002900490600052602060002090601f016020900481019282601f1061259157805160ff19168380011785556125be565b828001600101855582156125be579182015b828111156125be5782518255916020019190600101906125a3565b506125ca92915061262f565b5090565b828054828255906000526020600020908101928215612623579160200282015b8281111561262357825182546001600160a01b0319166001600160a01b039091161782556020909201916001909101906125ee565b506125ca929150612644565b5b808211156125ca5760008155600101612630565b5b808211156125ca5780546001600160a01b031916815560010161264556fe4552433737373a20617070726f76652066726f6d20746865207a65726f20616464726573734552433737373a2073656e642066726f6d20746865207a65726f20616464726573734552433737373a207472616e7366657220616d6f756e7420657863656564732062616c616e63654552433737373a206275726e2066726f6d20746865207a65726f20616464726573734552433737373a20617574686f72697a696e672073656c66206173206f70657261746f724552433737373a207265766f6b696e672073656c66206173206f70657261746f72496e697469616c697a61626c653a20636f6e747261637420697320616c726561647920696e697469616c697a65644552433737373a20746f6b656e20726563697069656e7420636f6e747261637420686173206e6f20696d706c656d656e74657220666f7220455243373737546f6b656e73526563697069656e744552433737373a207472616e7366657220746f20746865207a65726f20616464726573734552433737373a2063616c6c6572206973206e6f7420616e206f70657261746f7220666f7220686f6c6465724552433737373a207472616e7366657220616d6f756e74206578636565647320616c6c6f77616e63654552433737373a207472616e736665722066726f6d20746865207a65726f20616464726573734552433737373a206275726e20616d6f756e7420657863656564732062616c616e63654552433737373a20617070726f766520746f20746865207a65726f2061646472657373a264697066735822122003c7e74a9063c900da16354d07eeed353bcc456b1d8cb1b2b059011592079d8e64736f6c634300060c0033",
  "linkReferences": {},
  "deployedLinkReferences": {}
}