{
  "_format": "hh-sol-artifact-1",
  "contractName": "MockAddLiquidityInterface",
  "sourceName": "contracts/mocks/MockAddLiquidityInterface.sol",
  "abi": [
    {
      "inputs": [
        {
          "internalType": "uint256[]",
          "name": "amounts",
          "type": "uint256[]"
        },
        {
          "internalType": "uint256",
          "name": "minToMint",
          "type": "uint256"
        },
        {
          "internalType": "uint256",
          "name": "deadline",
          "type": "uint256"
        }
      ],
      "name": "addLiquidity",
      "outputs": [
        {
          "internalType": "uint256",
          "name": "",
          "type": "uint256"
        }
      ],
      "stateMutability": "nonpayable",
      "type": "function"
    }
  ],
  "bytecode": "0x608060405234801561001057600080fd5b5060f78061001f6000396000f3fe6080604052348015600f57600080fd5b506004361060285760003560e01c80634d49e87d14602d575b600080fd5b609d60048036036060811015604157600080fd5b810190602081018135640100000000811115605b57600080fd5b820183602082011115606c57600080fd5b80359060200191846020830284011164010000000083111715608d57600080fd5b91935091508035906020013560af565b60408051918252519081900360200190f35b6000805483019081905594935050505056fea264697066735822122039bd53344fb7b42ba7a7d90f97338db2a9e13fb7e1d288f0ecff8182f277f65e64736f6c634300060c0033",
  "linkReferences": {},
  "deployedLinkReferences": {}
}