{
  "_format": "hh-sol-artifact-1",
  "contractName": "AddressImplUpgradeable",
  "sourceName": "contracts/contracts-upgradeable-v3_4/mocks/AddressImplUpgradeable.sol",
  "abi": [
    {
      "anonymous": false,
      "inputs": [
        {
          "indexed": false,
          "internalType": "string",
          "name": "data",
          "type": "string"
        }
      ],
      "name": "CallReturnValue",
      "type": "event"
    },
    {
      "inputs": [
        {
          "internalType": "address",
          "name": "target",
          "type": "address"
        },
        {
          "internalType": "bytes",
          "name": "data",
          "type": "bytes"
        }
      ],
      "name": "functionCall",
      "outputs": [],
      "stateMutability": "nonpayable",
      "type": "function"
    },
    {
      "inputs": [
        {
          "internalType": "address",
          "name": "target",
          "type": "address"
        },
        {
          "internalType": "bytes",
          "name": "data",
          "type": "bytes"
        },
        {
          "internalType": "uint256",
          "name": "value",
          "type": "uint256"
        }
      ],
      "name": "functionCallWithValue",
      "outputs": [],
      "stateMutability": "payable",
      "type": "function"
    },
    {
      "inputs": [
        {
          "internalType": "address",
          "name": "target",
          "type": "address"
        },
        {
          "internalType": "bytes",
          "name": "data",
          "type": "bytes"
        }
      ],
      "name": "functionStaticCall",
      "outputs": [],
      "stateMutability": "nonpayable",
      "type": "function"
    },
    {
      "inputs": [
        {
          "internalType": "address",
          "name": "account",
          "type": "address"
        }
      ],
      "name": "isContract",
      "outputs": [
        {
          "internalType": "bool",
          "name": "",
          "type": "bool"
        }
      ],
      "stateMutability": "view",
      "type": "function"
    },
    {
      "inputs": [
        {
          "internalType": "address payable",
          "name": "receiver",
          "type": "address"
        },
        {
          "internalType": "uint256",
          "name": "amount",
          "type": "uint256"
        }
      ],
      "name": "sendValue",
      "outputs": [],
      "stateMutability": "nonpayable",
      "type": "function"
    },
    {
      "inputs": [],
      "name": "sharedAnswer",
      "outputs": [
        {
          "internalType": "string",
          "name": "",
          "type": "string"
        }
      ],
      "stateMutability": "view",
      "type": "function"
    },
    {
      "stateMutability": "payable",
      "type": "receive"
    }
  ],
  "bytecode": "0x608060405234801561001057600080fd5b50610cd7806100206000396000f3fe6080604052600436106100595760003560e01c8063162790551461006557806324a084df146100ac5780632a011594146100e7578063a0b5ffb014610165578063c21d36f3146101f0578063fc40cf731461027b57610060565b3661006057005b600080fd5b34801561007157600080fd5b506100986004803603602081101561008857600080fd5b50356001600160a01b0316610305565b604080519115158252519081900360200190f35b3480156100b857600080fd5b506100e5600480360360408110156100cf57600080fd5b506001600160a01b038135169060200135610316565b005b6100e5600480360360608110156100fd57600080fd5b6001600160a01b038235169190810190604081016020820135600160201b81111561012757600080fd5b82018360208201111561013957600080fd5b803590602001918460018302840111600160201b8311171561015a57600080fd5b919350915035610324565b34801561017157600080fd5b506100e56004803603604081101561018857600080fd5b6001600160a01b038235169190810190604081016020820135600160201b8111156101b257600080fd5b8201836020820111156101c457600080fd5b803590602001918460018302840111600160201b831117156101e557600080fd5b5090925090506104c7565b3480156101fc57600080fd5b506100e56004803603604081101561021357600080fd5b6001600160a01b038235169190810190604081016020820135600160201b81111561023d57600080fd5b82018360208201111561024f57600080fd5b803590602001918460018302840111600160201b8311171561027057600080fd5b509092509050610667565b34801561028757600080fd5b506102906106a9565b6040805160208082528351818301528351919283929083019185019080838360005b838110156102ca5781810151838201526020016102b2565b50505050905090810190601f1680156102f75780820380516001836020036101000a031916815260200191505b509250505060405180910390f35b600061031082610736565b92915050565b610320828261073c565b5050565b60606103688585858080601f016020809104026020016040519081016040528093929190818152602001838380828437600092019190915250879250610826915050565b90507fe518073da644d0626295bee74d5d5c51447a33857c62913bb30f35e2fba3db7c8180602001905160208110156103a057600080fd5b8101908080516040519392919084600160201b8211156103bf57600080fd5b9083019060208201858111156103d457600080fd5b8251600160201b8111828201881017156103ed57600080fd5b82525081516020918201929091019080838360005b8381101561041a578181015183820152602001610402565b50505050905090810190601f1680156104475780820380516001836020036101000a031916815260200191505b50604081815260208083528651818401528651929550859450908401925085019080838360005b8381101561048657818101518382015260200161046e565b50505050905090810190601f1680156104b35780820380516001836020036101000a031916815260200191505b509250505060405180910390a15050505050565b60606105098484848080601f01602080910402602001604051908101604052809392919081815260200183838082843760009201919091525061085692505050565b90507fe518073da644d0626295bee74d5d5c51447a33857c62913bb30f35e2fba3db7c81806020019051602081101561054157600080fd5b8101908080516040519392919084600160201b82111561056057600080fd5b90830190602082018581111561057557600080fd5b8251600160201b81118282018810171561058e57600080fd5b82525081516020918201929091019080838360005b838110156105bb5781810151838201526020016105a3565b50505050905090810190601f1680156105e85780820380516001836020036101000a031916815260200191505b50604081815260208083528651818401528651929550859450908401925085019080838360005b8381101561062757818101518382015260200161060f565b50505050905090810190601f1680156106545780820380516001836020036101000a031916815260200191505b509250505060405180910390a150505050565b60606105098484848080601f01602080910402602001604051908101604052809392919081815260200183838082843760009201919091525061089892505050565b60018054604080516020600284861615610100026000190190941693909304601f8101849004840282018401909252818152929183018282801561072e5780601f106107035761010080835404028352916020019161072e565b820191906000526020600020905b81548152906001019060200180831161071157829003601f168201915b505050505081565b3b151590565b80471015610791576040805162461bcd60e51b815260206004820152601d60248201527f416464726573733a20696e73756666696369656e742062616c616e6365000000604482015290519081900360640190fd5b6040516000906001600160a01b0384169083908381818185875af1925050503d80600081146107dc576040519150601f19603f3d011682016040523d82523d6000602084013e6107e1565b606091505b50509050806108215760405162461bcd60e51b815260040180806020018281038252603a815260200180610bd0603a913960400191505060405180910390fd5b505050565b606061084c848484604051806060016040528060298152602001610c30602991396108bd565b90505b9392505050565b606061084f83836040518060400160405280601e81526020017f416464726573733a206c6f772d6c6576656c2063616c6c206661696c65640000815250610a19565b606061084f8383604051806060016040528060258152602001610c5960259139610a28565b6060824710156108fe5760405162461bcd60e51b8152600401808060200182810382526026815260200180610c0a6026913960400191505060405180910390fd5b61090785610736565b610958576040805162461bcd60e51b815260206004820152601d60248201527f416464726573733a2063616c6c20746f206e6f6e2d636f6e7472616374000000604482015290519081900360640190fd5b60006060866001600160a01b031685876040518082805190602001908083835b602083106109975780518252601f199092019160209182019101610978565b6001836020036101000a03801982511681845116808217855250505050505090500191505060006040518083038185875af1925050503d80600081146109f9576040519150601f19603f3d011682016040523d82523d6000602084013e6109fe565b606091505b5091509150610a0e828286610b2b565b979650505050505050565b606061084c84846000856108bd565b6060610a3384610736565b610a6e5760405162461bcd60e51b8152600401808060200182810382526024815260200180610c7e6024913960400191505060405180910390fd5b60006060856001600160a01b0316856040518082805190602001908083835b60208310610aac5780518252601f199092019160209182019101610a8d565b6001836020036101000a038019825116818451168082178552505050505050905001915050600060405180830381855afa9150503d8060008114610b0c576040519150601f19603f3d011682016040523d82523d6000602084013e610b11565b606091505b5091509150610b21828286610b2b565b9695505050505050565b60608315610b3a57508161084f565b825115610b4a5782518084602001fd5b8160405162461bcd60e51b81526004018080602001828103825283818151815260200191508051906020019080838360005b83811015610b94578181015183820152602001610b7c565b50505050905090810190601f168015610bc15780820380516001836020036101000a031916815260200191505b509250505060405180910390fdfe416464726573733a20756e61626c6520746f2073656e642076616c75652c20726563697069656e74206d61792068617665207265766572746564416464726573733a20696e73756666696369656e742062616c616e636520666f722063616c6c416464726573733a206c6f772d6c6576656c2063616c6c20776974682076616c7565206661696c6564416464726573733a206c6f772d6c6576656c207374617469632063616c6c206661696c6564416464726573733a207374617469632063616c6c20746f206e6f6e2d636f6e7472616374a2646970667358221220818a61749d7d85f2355aaa8866df7fe0da6a4e8e5e912cde2b8f803011b16da664736f6c634300060c0033",
  "linkReferences": {},
  "deployedLinkReferences": {}
}