{
  "_format": "hh-sol-artifact-1",
  "contractName": "AmplificationUtilsV1",
  "sourceName": "contracts/AmplificationUtilsV1.sol",
  "abi": [
    {
      "anonymous": false,
      "inputs": [
        {
          "indexed": false,
          "internalType": "uint256",
          "name": "oldA",
          "type": "uint256"
        },
        {
          "indexed": false,
          "internalType": "uint256",
          "name": "newA",
          "type": "uint256"
        },
        {
          "indexed": false,
          "internalType": "uint256",
          "name": "initialTime",
          "type": "uint256"
        },
        {
          "indexed": false,
          "internalType": "uint256",
          "name": "futureTime",
          "type": "uint256"
        }
      ],
      "name": "RampA",
      "type": "event"
    },
    {
      "anonymous": false,
      "inputs": [
        {
          "indexed": false,
          "internalType": "uint256",
          "name": "currentA",
          "type": "uint256"
        },
        {
          "indexed": false,
          "internalType": "uint256",
          "name": "time",
          "type": "uint256"
        }
      ],
      "name": "StopRampA",
      "type": "event"
    },
    {
      "inputs": [],
      "name": "A_PRECISION",
      "outputs": [
        {
          "internalType": "uint256",
          "name": "",
          "type": "uint256"
        }
      ],
      "stateMutability": "view",
      "type": "function"
    },
    {
      "inputs": [],
      "name": "MAX_A",
      "outputs": [
        {
          "internalType": "uint256",
          "name": "",
          "type": "uint256"
        }
      ],
      "stateMutability": "view",
      "type": "function"
    }
  ],
  "bytecode": "0x6106f4610026600b82828239805160001a60731461001957fe5b30600052607381538281f3fe730000000000000000000000000000000000000000301460806040526004361061006c5760003560e01c806315d0d54d1461007157806339698415146100a95780635088c83c146100c357806399afe2fa146100e0578063d011f918146100fd578063efbd633f14610105575b600080fd5b81801561007d57600080fd5b506100a76004803603606081101561009457600080fd5b508035906020810135906040013561012f565b005b6100b1610390565b60408051918252519081900360200190f35b6100b1600480360360208110156100d957600080fd5b5035610397565b6100b1600480360360208110156100f657600080fd5b50356103b5565b6100b16103c0565b81801561011157600080fd5b506100a76004803603602081101561012857600080fd5b50356103c5565b60028301546101419062015180610482565b421015610195576040805162461bcd60e51b815260206004820152601f60248201527f57616974203120646179206265666f7265207374617274696e672072616d7000604482015290519081900360640190fd5b6101a24262127500610482565b8110156101ef576040805162461bcd60e51b8152602060048201526016602482015275496e73756666696369656e742072616d702074696d6560501b604482015290519081900360640190fd5b6000821180156102015750620f424082105b610252576040805162461bcd60e51b815260206004820181905260248201527f667574757265415f206d757374206265203e203020616e64203c204d41585f41604482015290519081900360640190fd5b600061025d846104e5565b9050600061026c846064610580565b9050818110156102d25781610282826002610580565b10156102cd576040805162461bcd60e51b8152602060048201526015602482015274199d5d1d5c995057c81a5cc81d1bdbc81cdb585b1b605a1b604482015290519081900360640190fd5b610329565b6102dd826002610580565b811115610329576040805162461bcd60e51b8152602060048201526015602482015274667574757265415f20697320746f6f206c6172676560581b604482015290519081900360640190fd5b8185556001850181905542600286018190556003860184905560408051848152602081018490528082019290925260608201859052517fa2b71ec6df949300b59aab36b55e189697b750119dd349fcfa8c0f779e83c2549181900360800190a15050505050565b620f424081565b60006103ad60646103a7846104e5565b906105d9565b90505b919050565b60006103ad826104e5565b606481565b4281600301541161041d576040805162461bcd60e51b815260206004820152601760248201527f52616d7020697320616c72656164792073746f70706564000000000000000000604482015290519081900360640190fd5b6000610428826104e5565b8083556001830181905542600284018190556003840181905560408051838152602081019290925280519293507f46e22fb3709ad289f62ce63d469248536dbc78d82b84a3d7e74ad606dc20193892918290030190a15050565b6000828201838110156104dc576040805162461bcd60e51b815260206004820152601b60248201527f536166654d6174683a206164646974696f6e206f766572666c6f770000000000604482015290519081900360640190fd5b90505b92915050565b6003810154600182015460009190428211156105775760028401548454808311156105495761053e61053761051a8685610640565b6103a76105274287610640565b6105318887610640565b90610580565b8290610482565b9450505050506103b0565b61053e6105706105598685610640565b6103a76105664287610640565b6105318689610640565b8290610640565b91506103b09050565b60008261058f575060006104df565b8282028284828161059c57fe5b04146104dc5760405162461bcd60e51b815260040180806020018281038252602181526020018061069e6021913960400191505060405180910390fd5b600080821161062f576040805162461bcd60e51b815260206004820152601a60248201527f536166654d6174683a206469766973696f6e206279207a65726f000000000000604482015290519081900360640190fd5b81838161063857fe5b049392505050565b600082821115610697576040805162461bcd60e51b815260206004820152601e60248201527f536166654d6174683a207375627472616374696f6e206f766572666c6f770000604482015290519081900360640190fd5b5090039056fe536166654d6174683a206d756c7469706c69636174696f6e206f766572666c6f77a2646970667358221220f72ea9f907d33fdebebdd720f027f5561812b7c58583d544d55636755730575964736f6c634300060c0033",
  "linkReferences": {},
  "deployedLinkReferences": {}
}