{
  "_format": "hh-sol-artifact-1",
  "contractName": "ERC721GSNRecipientMock",
  "sourceName": "contracts/contracts-v3_4/mocks/ERC721GSNRecipientMock.sol",
  "abi": [
    {
      "inputs": [
        {
          "internalType": "string",
          "name": "name",
          "type": "string"
        },
        {
          "internalType": "string",
          "name": "symbol",
          "type": "string"
        },
        {
          "internalType": "address",
          "name": "trustedSigner",
          "type": "address"
        }
      ],
      "stateMutability": "nonpayable",
      "type": "constructor"
    },
    {
      "anonymous": false,
      "inputs": [
        {
          "indexed": true,
          "internalType": "address",
          "name": "owner",
          "type": "address"
        },
        {
          "indexed": true,
          "internalType": "address",
          "name": "approved",
          "type": "address"
        },
        {
          "indexed": true,
          "internalType": "uint256",
          "name": "tokenId",
          "type": "uint256"
        }
      ],
      "name": "Approval",
      "type": "event"
    },
    {
      "anonymous": false,
      "inputs": [
        {
          "indexed": true,
          "internalType": "address",
          "name": "owner",
          "type": "address"
        },
        {
          "indexed": true,
          "internalType": "address",
          "name": "operator",
          "type": "address"
        },
        {
          "indexed": false,
          "internalType": "bool",
          "name": "approved",
          "type": "bool"
        }
      ],
      "name": "ApprovalForAll",
      "type": "event"
    },
    {
      "anonymous": false,
      "inputs": [
        {
          "indexed": true,
          "internalType": "address",
          "name": "oldRelayHub",
          "type": "address"
        },
        {
          "indexed": true,
          "internalType": "address",
          "name": "newRelayHub",
          "type": "address"
        }
      ],
      "name": "RelayHubChanged",
      "type": "event"
    },
    {
      "anonymous": false,
      "inputs": [
        {
          "indexed": true,
          "internalType": "address",
          "name": "from",
          "type": "address"
        },
        {
          "indexed": true,
          "internalType": "address",
          "name": "to",
          "type": "address"
        },
        {
          "indexed": true,
          "internalType": "uint256",
          "name": "tokenId",
          "type": "uint256"
        }
      ],
      "name": "Transfer",
      "type": "event"
    },
    {
      "inputs": [
        {
          "internalType": "address",
          "name": "relay",
          "type": "address"
        },
        {
          "internalType": "address",
          "name": "from",
          "type": "address"
        },
        {
          "internalType": "bytes",
          "name": "encodedFunction",
          "type": "bytes"
        },
        {
          "internalType": "uint256",
          "name": "transactionFee",
          "type": "uint256"
        },
        {
          "internalType": "uint256",
          "name": "gasPrice",
          "type": "uint256"
        },
        {
          "internalType": "uint256",
          "name": "gasLimit",
          "type": "uint256"
        },
        {
          "internalType": "uint256",
          "name": "nonce",
          "type": "uint256"
        },
        {
          "internalType": "bytes",
          "name": "approvalData",
          "type": "bytes"
        },
        {
          "internalType": "uint256",
          "name": "",
          "type": "uint256"
        }
      ],
      "name": "acceptRelayedCall",
      "outputs": [
        {
          "internalType": "uint256",
          "name": "",
          "type": "uint256"
        },
        {
          "internalType": "bytes",
          "name": "",
          "type": "bytes"
        }
      ],
      "stateMutability": "view",
      "type": "function"
    },
    {
      "inputs": [
        {
          "internalType": "address",
          "name": "to",
          "type": "address"
        },
        {
          "internalType": "uint256",
          "name": "tokenId",
          "type": "uint256"
        }
      ],
      "name": "approve",
      "outputs": [],
      "stateMutability": "nonpayable",
      "type": "function"
    },
    {
      "inputs": [
        {
          "internalType": "address",
          "name": "owner",
          "type": "address"
        }
      ],
      "name": "balanceOf",
      "outputs": [
        {
          "internalType": "uint256",
          "name": "",
          "type": "uint256"
        }
      ],
      "stateMutability": "view",
      "type": "function"
    },
    {
      "inputs": [],
      "name": "baseURI",
      "outputs": [
        {
          "internalType": "string",
          "name": "",
          "type": "string"
        }
      ],
      "stateMutability": "view",
      "type": "function"
    },
    {
      "inputs": [
        {
          "internalType": "uint256",
          "name": "tokenId",
          "type": "uint256"
        }
      ],
      "name": "getApproved",
      "outputs": [
        {
          "internalType": "address",
          "name": "",
          "type": "address"
        }
      ],
      "stateMutability": "view",
      "type": "function"
    },
    {
      "inputs": [],
      "name": "getHubAddr",
      "outputs": [
        {
          "internalType": "address",
          "name": "",
          "type": "address"
        }
      ],
      "stateMutability": "view",
      "type": "function"
    },
    {
      "inputs": [
        {
          "internalType": "address",
          "name": "owner",
          "type": "address"
        },
        {
          "internalType": "address",
          "name": "operator",
          "type": "address"
        }
      ],
      "name": "isApprovedForAll",
      "outputs": [
        {
          "internalType": "bool",
          "name": "",
          "type": "bool"
        }
      ],
      "stateMutability": "view",
      "type": "function"
    },
    {
      "inputs": [
        {
          "internalType": "uint256",
          "name": "tokenId",
          "type": "uint256"
        }
      ],
      "name": "mint",
      "outputs": [],
      "stateMutability": "nonpayable",
      "type": "function"
    },
    {
      "inputs": [],
      "name": "name",
      "outputs": [
        {
          "internalType": "string",
          "name": "",
          "type": "string"
        }
      ],
      "stateMutability": "view",
      "type": "function"
    },
    {
      "inputs": [
        {
          "internalType": "uint256",
          "name": "tokenId",
          "type": "uint256"
        }
      ],
      "name": "ownerOf",
      "outputs": [
        {
          "internalType": "address",
          "name": "",
          "type": "address"
        }
      ],
      "stateMutability": "view",
      "type": "function"
    },
    {
      "inputs": [
        {
          "internalType": "bytes",
          "name": "context",
          "type": "bytes"
        },
        {
          "internalType": "bool",
          "name": "success",
          "type": "bool"
        },
        {
          "internalType": "uint256",
          "name": "actualCharge",
          "type": "uint256"
        },
        {
          "internalType": "bytes32",
          "name": "preRetVal",
          "type": "bytes32"
        }
      ],
      "name": "postRelayedCall",
      "outputs": [],
      "stateMutability": "nonpayable",
      "type": "function"
    },
    {
      "inputs": [
        {
          "internalType": "bytes",
          "name": "context",
          "type": "bytes"
        }
      ],
      "name": "preRelayedCall",
      "outputs": [
        {
          "internalType": "bytes32",
          "name": "",
          "type": "bytes32"
        }
      ],
      "stateMutability": "nonpayable",
      "type": "function"
    },
    {
      "inputs": [],
      "name": "relayHubVersion",
      "outputs": [
        {
          "internalType": "string",
          "name": "",
          "type": "string"
        }
      ],
      "stateMutability": "view",
      "type": "function"
    },
    {
      "inputs": [
        {
          "internalType": "address",
          "name": "from",
          "type": "address"
        },
        {
          "internalType": "address",
          "name": "to",
          "type": "address"
        },
        {
          "internalType": "uint256",
          "name": "tokenId",
          "type": "uint256"
        }
      ],
      "name": "safeTransferFrom",
      "outputs": [],
      "stateMutability": "nonpayable",
      "type": "function"
    },
    {
      "inputs": [
        {
          "internalType": "address",
          "name": "from",
          "type": "address"
        },
        {
          "internalType": "address",
          "name": "to",
          "type": "address"
        },
        {
          "internalType": "uint256",
          "name": "tokenId",
          "type": "uint256"
        },
        {
          "internalType": "bytes",
          "name": "_data",
          "type": "bytes"
        }
      ],
      "name": "safeTransferFrom",
      "outputs": [],
      "stateMutability": "nonpayable",
      "type": "function"
    },
    {
      "inputs": [
        {
          "internalType": "address",
          "name": "operator",
          "type": "address"
        },
        {
          "internalType": "bool",
          "name": "approved",
          "type": "bool"
        }
      ],
      "name": "setApprovalForAll",
      "outputs": [],
      "stateMutability": "nonpayable",
      "type": "function"
    },
    {
      "inputs": [
        {
          "internalType": "bytes4",
          "name": "interfaceId",
          "type": "bytes4"
        }
      ],
      "name": "supportsInterface",
      "outputs": [
        {
          "internalType": "bool",
          "name": "",
          "type": "bool"
        }
      ],
      "stateMutability": "view",
      "type": "function"
    },
    {
      "inputs": [],
      "name": "symbol",
      "outputs": [
        {
          "internalType": "string",
          "name": "",
          "type": "string"
        }
      ],
      "stateMutability": "view",
      "type": "function"
    },
    {
      "inputs": [
        {
          "internalType": "uint256",
          "name": "index",
          "type": "uint256"
        }
      ],
      "name": "tokenByIndex",
      "outputs": [
        {
          "internalType": "uint256",
          "name": "",
          "type": "uint256"
        }
      ],
      "stateMutability": "view",
      "type": "function"
    },
    {
      "inputs": [
        {
          "internalType": "address",
          "name": "owner",
          "type": "address"
        },
        {
          "internalType": "uint256",
          "name": "index",
          "type": "uint256"
        }
      ],
      "name": "tokenOfOwnerByIndex",
      "outputs": [
        {
          "internalType": "uint256",
          "name": "",
          "type": "uint256"
        }
      ],
      "stateMutability": "view",
      "type": "function"
    },
    {
      "inputs": [
        {
          "internalType": "uint256",
          "name": "tokenId",
          "type": "uint256"
        }
      ],
      "name": "tokenURI",
      "outputs": [
        {
          "internalType": "string",
          "name": "",
          "type": "string"
        }
      ],
      "stateMutability": "view",
      "type": "function"
    },
    {
      "inputs": [],
      "name": "totalSupply",
      "outputs": [
        {
          "internalType": "uint256",
          "name": "",
          "type": "uint256"
        }
      ],
      "stateMutability": "view",
      "type": "function"
    },
    {
      "inputs": [
        {
          "internalType": "address",
          "name": "from",
          "type": "address"
        },
        {
          "internalType": "address",
          "name": "to",
          "type": "address"
        },
        {
          "internalType": "uint256",
          "name": "tokenId",
          "type": "uint256"
        }
      ],
      "name": "transferFrom",
      "outputs": [],
      "stateMutability": "nonpayable",
      "type": "function"
    }
  ],
  "bytecode": "0x6080604052600a80546001600160a01b03191673d216153c06e857cd7f72665e0af1d7d82172f4941790553480156200003757600080fd5b506040516200284f3803806200284f833981810160405260608110156200005d57600080fd5b81019080805160405193929190846401000000008211156200007e57600080fd5b9083019060208201858111156200009457600080fd5b8251640100000000811182820188101715620000af57600080fd5b82525081516020918201929091019080838360005b83811015620000de578181015183820152602001620000c4565b50505050905090810190601f1680156200010c5780820380516001836020036101000a031916815260200191505b50604052602001805160405193929190846401000000008211156200013057600080fd5b9083019060208201858111156200014657600080fd5b82516401000000008111828201881017156200016157600080fd5b82525081516020918201929091019080838360005b838110156200019057818101518382015260200162000176565b50505050905090810190601f168015620001be5780820380516001836020036101000a031916815260200191505b506040526020015191508190508383620001df6301ffc9a760e01b620002b4565b8151620001f490600690602085019062000339565b5080516200020a90600790602084019062000339565b506200021d6380ac58cd60e01b620002b4565b6200022f635b5e139f60e01b620002b4565b6200024163780e9d6360e01b620002b4565b50506001600160a01b0381166200028a5760405162461bcd60e51b8152600401808060200182810382526039815260200180620028166039913960400191505060405180910390fd5b600b80546001600160a01b0319166001600160a01b039290921691909117905550620003d5915050565b6001600160e01b0319808216141562000314576040805162461bcd60e51b815260206004820152601c60248201527f4552433136353a20696e76616c696420696e7465726661636520696400000000604482015290519081900360640190fd5b6001600160e01b0319166000908152602081905260409020805460ff19166001179055565b828054600181600116156101000203166002900490600052602060002090601f016020900481019282601f106200037c57805160ff1916838001178555620003ac565b82800160010185558215620003ac579182015b82811115620003ac5782518255916020019190600101906200038f565b50620003ba929150620003be565b5090565b5b80821115620003ba5760008155600101620003bf565b61243180620003e56000396000f3fe608060405234801561001057600080fd5b506004361061014d5760003560e01c806370a08231116100c3578063a22cb4651161007c578063a22cb46514610638578063ad61ccd514610666578063b88d4fde1461066e578063c87b56dd14610732578063e06e0e221461074f578063e985e9c5146108005761014d565b806370a082311461036557806374e861d61461038b57806380274db71461039357806383947ea01461043757806395d89b4114610613578063a0712d681461061b5761014d565b806323b872dd1161011557806323b872dd1461028b5780632f745c59146102c157806342842e0e146102ed5780634f6ccce7146103235780636352211e146103405780636c0360eb1461035d5761014d565b806301ffc9a71461015257806306fdde031461018d578063081812fc1461020a578063095ea7b31461024357806318160ddd14610271575b600080fd5b6101796004803603602081101561016857600080fd5b50356001600160e01b03191661082e565b604080519115158252519081900360200190f35b610195610851565b6040805160208082528351818301528351919283929083019185019080838360005b838110156101cf5781810151838201526020016101b7565b50505050905090810190601f1680156101fc5780820380516001836020036101000a031916815260200191505b509250505060405180910390f35b6102276004803603602081101561022057600080fd5b50356108e8565b604080516001600160a01b039092168252519081900360200190f35b61026f6004803603604081101561025957600080fd5b506001600160a01b03813516906020013561094a565b005b610279610a25565b60408051918252519081900360200190f35b61026f600480360360608110156102a157600080fd5b506001600160a01b03813581169160208101359091169060400135610a36565b610279600480360360408110156102d757600080fd5b506001600160a01b038135169060200135610a8d565b61026f6004803603606081101561030357600080fd5b506001600160a01b03813581169160208101359091169060400135610ab8565b6102796004803603602081101561033957600080fd5b5035610ad3565b6102276004803603602081101561035657600080fd5b5035610ae9565b610195610b11565b6102796004803603602081101561037b57600080fd5b50356001600160a01b0316610b72565b610227610bda565b610279600480360360208110156103a957600080fd5b810190602081018135600160201b8111156103c357600080fd5b8201836020820111156103d557600080fd5b803590602001918460018302840111600160201b831117156103f657600080fd5b91908080601f016020809104026020016040519081016040528093929190818152602001838380828437600092019190915250929550610be9945050505050565b610594600480360361012081101561044e57600080fd5b6001600160a01b038235811692602081013590911691810190606081016040820135600160201b81111561048157600080fd5b82018360208201111561049357600080fd5b803590602001918460018302840111600160201b831117156104b457600080fd5b91908080601f016020809104026020016040519081016040528093929190818152602001838380828437600092019190915250929584359560208601359560408101359550606081013594509192509060a081019060800135600160201b81111561051e57600080fd5b82018360208201111561053057600080fd5b803590602001918460018302840111600160201b8311171561055157600080fd5b91908080601f0160208091040260200160405190810160405280939291908181526020018383808284376000920191909152509295505091359250610c4b915050565b6040518083815260200180602001828103825283818151815260200191508051906020019080838360005b838110156105d75781810151838201526020016105bf565b50505050905090810190601f1680156106045780820380516001836020036101000a031916815260200191505b50935050505060405180910390f35b610195610d8c565b61026f6004803603602081101561063157600080fd5b5035610ded565b61026f6004803603604081101561064e57600080fd5b506001600160a01b0381351690602001351515610e01565b610195610f06565b61026f6004803603608081101561068457600080fd5b6001600160a01b03823581169260208101359091169160408201359190810190608081016060820135600160201b8111156106be57600080fd5b8201836020820111156106d057600080fd5b803590602001918460018302840111600160201b831117156106f157600080fd5b91908080601f016020809104026020016040519081016040528093929190818152602001838380828437600092019190915250929550610f25945050505050565b6101956004803603602081101561074857600080fd5b5035610f83565b61026f6004803603608081101561076557600080fd5b810190602081018135600160201b81111561077f57600080fd5b82018360208201111561079157600080fd5b803590602001918460018302840111600160201b831117156107b257600080fd5b91908080601f01602080910402602001604051908101604052809392919081815260200183838082843760009201919091525092955050505080351515915060208101359060400135611206565b6101796004803603604081101561081657600080fd5b506001600160a01b0381358116916020013516611269565b6001600160e01b0319811660009081526020819052604090205460ff165b919050565b60068054604080516020601f60026000196101006001881615020190951694909404938401819004810282018101909252828152606093909290918301828280156108dd5780601f106108b2576101008083540402835291602001916108dd565b820191906000526020600020905b8154815290600101906020018083116108c057829003601f168201915b505050505090505b90565b60006108f382611297565b61092e5760405162461bcd60e51b815260040180806020018281038252602c815260200180612302602c913960400191505060405180910390fd5b506000908152600460205260409020546001600160a01b031690565b600061095582610ae9565b9050806001600160a01b0316836001600160a01b031614156109a85760405162461bcd60e51b81526004018080602001828103825260218152602001806123866021913960400191505060405180910390fd5b806001600160a01b03166109ba6112a4565b6001600160a01b031614806109db57506109db816109d66112a4565b611269565b610a165760405162461bcd60e51b81526004018080602001828103825260388152602001806122336038913960400191505060405180910390fd5b610a2083836112ae565b505050565b6000610a31600261131c565b905090565b610a47610a416112a4565b82611327565b610a825760405162461bcd60e51b81526004018080602001828103825260318152602001806123cb6031913960400191505060405180910390fd5b610a208383836113cb565b6001600160a01b0382166000908152600160205260408120610aaf9083611517565b90505b92915050565b610a2083838360405180602001604052806000815250610f25565b600080610ae1600284611523565b509392505050565b6000610ab282604051806060016040528060298152602001612295602991396002919061153f565b60098054604080516020601f60026000196101006001881615020190951694909404938401819004810282018101909252828152606093909290918301828280156108dd5780601f106108b2576101008083540402835291602001916108dd565b60006001600160a01b038216610bb95760405162461bcd60e51b815260040180806020018281038252602a81526020018061226b602a913960400191505060405180910390fd5b6001600160a01b0382166000908152600160205260409020610ab29061131c565b600a546001600160a01b031690565b6000610bf3610bda565b6001600160a01b0316336001600160a01b031614610c425760405162461bcd60e51b81526004018080602001828103825260248152602001806123a76024913960400191505060405180910390fd5b610ab282611556565b60006060808b8b8b8b8b8b8b610c5f610bda565b30604051602001808a6001600160a01b031660601b8152601401896001600160a01b031660601b815260140188805190602001908083835b60208310610cb65780518252601f199092019160209182019101610c97565b51815160209384036101000a6000190180199092169116179052920198895250878101969096525060408087019490945260608087019390935290821b6bffffffffffffffffffffffff199081166080870152911b1660948401528051808403608801815260a89093019052600b548251918301919091209195506001600160a01b03169350610d539250889150610d4d9061155c565b906115ad565b6001600160a01b03161415610d7457610d6a61162d565b9250925050610d7e565b610d6a6000611651565b995099975050505050505050565b60078054604080516020601f60026000196101006001881615020190951694909404938401819004810282018101909252828152606093909290918301828280156108dd5780601f106108b2576101008083540402835291602001916108dd565b610dfe610df86112a4565b82611669565b50565b610e096112a4565b6001600160a01b0316826001600160a01b03161415610e6f576040805162461bcd60e51b815260206004820152601960248201527f4552433732313a20617070726f766520746f2063616c6c657200000000000000604482015290519081900360640190fd5b8060056000610e7c6112a4565b6001600160a01b03908116825260208083019390935260409182016000908120918716808252919093529120805460ff191692151592909217909155610ec06112a4565b6001600160a01b03167f17307eab39ab6107e8899845ad3d59bd9653f200f220920489ca2b5937696c318360405180821515815260200191505060405180910390a35050565b6040805180820190915260058152640312e302e360dc1b602082015290565b610f36610f306112a4565b83611327565b610f715760405162461bcd60e51b81526004018080602001828103825260318152602001806123cb6031913960400191505060405180910390fd5b610f7d84848484611797565b50505050565b6060610f8e82611297565b610fc95760405162461bcd60e51b815260040180806020018281038252602f815260200180612357602f913960400191505060405180910390fd5b60008281526008602090815260409182902080548351601f600260001961010060018616150201909316929092049182018490048402810184019094528084526060939283018282801561105e5780601f106110335761010080835404028352916020019161105e565b820191906000526020600020905b81548152906001019060200180831161104157829003601f168201915b50505050509050606061106f610b11565b90508051600014156110835750905061084c565b8151156111445780826040516020018083805190602001908083835b602083106110be5780518252601f19909201916020918201910161109f565b51815160209384036101000a600019018019909216911617905285519190930192850191508083835b602083106111065780518252601f1990920191602091820191016110e7565b6001836020036101000a038019825116818451168082178552505050505050905001925050506040516020818303038152906040529250505061084c565b8061114e856117e9565b6040516020018083805190602001908083835b602083106111805780518252601f199092019160209182019101611161565b51815160209384036101000a600019018019909216911617905285519190930192850191508083835b602083106111c85780518252601f1990920191602091820191016111a9565b6001836020036101000a0380198251168184511680821785525050505050509050019250505060405160208183030381529060405292505050919050565b61120e610bda565b6001600160a01b0316336001600160a01b03161461125d5760405162461bcd60e51b81526004018080602001828103825260248152602001806123a76024913960400191505060405180910390fd5b610f7d84848484610f7d565b6001600160a01b03918216600090815260056020908152604080832093909416825291909152205460ff1690565b6000610ab26002836118c4565b6000610a316118d0565b600081815260046020526040902080546001600160a01b0319166001600160a01b03841690811790915581906112e382610ae9565b6001600160a01b03167f8c5be1e5ebec7d5bd14f71427d1e84f3dd0314c0f7b2291e5b200ac8c7c3b92560405160405180910390a45050565b6000610ab282611908565b600061133282611297565b61136d5760405162461bcd60e51b815260040180806020018281038252602c815260200180612207602c913960400191505060405180910390fd5b600061137883610ae9565b9050806001600160a01b0316846001600160a01b031614806113b35750836001600160a01b03166113a8846108e8565b6001600160a01b0316145b806113c357506113c38185611269565b949350505050565b826001600160a01b03166113de82610ae9565b6001600160a01b0316146114235760405162461bcd60e51b815260040180806020018281038252602981526020018061232e6029913960400191505060405180910390fd5b6001600160a01b0382166114685760405162461bcd60e51b81526004018080602001828103825260248152602001806121c16024913960400191505060405180910390fd5b611473838383610a20565b61147e6000826112ae565b6001600160a01b03831660009081526001602052604090206114a0908261190c565b506001600160a01b03821660009081526001602052604090206114c39082611918565b506114d060028284611924565b5080826001600160a01b0316846001600160a01b03167fddf252ad1be2c89b69c2b068fc378daa952ba7f163c4a11628f55a4df523b3ef60405160405180910390a4505050565b6000610aaf838361193a565b6000808080611532868661199e565b9097909650945050505050565b600061154c848484611a19565b90505b9392505050565b50600090565b604080517f19457468657265756d205369676e6564204d6573736167653a0a333200000000602080830191909152603c8083019490945282518083039094018452605c909101909152815191012090565b60008151604114611605576040805162461bcd60e51b815260206004820152601f60248201527f45434453413a20696e76616c6964207369676e6174757265206c656e67746800604482015290519081900360640190fd5b60208201516040830151606084015160001a61162386828585611ae3565b9695505050505050565b6000606061164960405180602001604052806000815250611c61565b915091509091565b604080516020810190915260008152600b9190910191565b6001600160a01b0382166116c4576040805162461bcd60e51b815260206004820181905260248201527f4552433732313a206d696e7420746f20746865207a65726f2061646472657373604482015290519081900360640190fd5b6116cd81611297565b1561171f576040805162461bcd60e51b815260206004820152601c60248201527f4552433732313a20746f6b656e20616c7265616479206d696e74656400000000604482015290519081900360640190fd5b61172b60008383610a20565b6001600160a01b038216600090815260016020526040902061174d9082611918565b5061175a60028284611924565b5060405181906001600160a01b038416906000907fddf252ad1be2c89b69c2b068fc378daa952ba7f163c4a11628f55a4df523b3ef908290a45050565b6117a28484846113cb565b6117ae84848484611c66565b610f7d5760405162461bcd60e51b815260040180806020018281038252603281526020018061218f6032913960400191505060405180910390fd5b60608161180e57506040805180820190915260018152600360fc1b602082015261084c565b8160005b811561182657600101600a82049150611812565b60608167ffffffffffffffff8111801561183f57600080fd5b506040519080825280601f01601f19166020018201604052801561186a576020820181803683370190505b50859350905060001982015b83156118bb57600a840660300160f81b8282806001900393508151811061189957fe5b60200101906001600160f81b031916908160001a905350600a84049350611876565b50949350505050565b6000610aaf8383611dce565b60006118da610bda565b6001600160a01b0316336001600160a01b0316146118f95750336108e5565b611901611de6565b90506108e5565b5490565b6000610aaf8383611e33565b6000610aaf8383611ef9565b600061154c84846001600160a01b038516611f43565b8154600090821061197c5760405162461bcd60e51b815260040180806020018281038252602281526020018061216d6022913960400191505060405180910390fd5b82600001828154811061198b57fe5b9060005260206000200154905092915050565b8154600090819083106119e25760405162461bcd60e51b81526004018080602001828103825260228152602001806122e06022913960400191505060405180910390fd5b60008460000184815481106119f357fe5b906000526020600020906002020190508060000154816001015492509250509250929050565b60008281526001840160205260408120548281611ab45760405162461bcd60e51b81526004018080602001828103825283818151815260200191508051906020019080838360005b83811015611a79578181015183820152602001611a61565b50505050905090810190601f168015611aa65780820380516001836020036101000a031916815260200191505b509250505060405180910390fd5b50846000016001820381548110611ac757fe5b9060005260206000209060020201600101549150509392505050565b60007f7fffffffffffffffffffffffffffffff5d576e7357a4501ddfe92f46681b20a0821115611b445760405162461bcd60e51b81526004018080602001828103825260228152602001806121e56022913960400191505060405180910390fd5b8360ff16601b1480611b5957508360ff16601c145b611b945760405162461bcd60e51b81526004018080602001828103825260228152602001806122be6022913960400191505060405180910390fd5b600060018686868660405160008152602001604052604051808581526020018460ff1681526020018381526020018281526020019450505050506020604051602081039080840390855afa158015611bf0573d6000803e3d6000fd5b5050604051601f1901519150506001600160a01b038116611c58576040805162461bcd60e51b815260206004820152601860248201527f45434453413a20696e76616c6964207369676e61747572650000000000000000604482015290519081900360640190fd5b95945050505050565b600091565b6000611c7a846001600160a01b0316611fda565b611c86575060016113c3565b6060611d94630a85bd0160e11b611c9b6112a4565b88878760405160240180856001600160a01b03168152602001846001600160a01b0316815260200183815260200180602001828103825283818151815260200191508051906020019080838360005b83811015611d02578181015183820152602001611cea565b50505050905090810190601f168015611d2f5780820380516001836020036101000a031916815260200191505b5095505050505050604051602081830303815290604052906001600160e01b0319166020820180516001600160e01b03838183161783525050505060405180606001604052806032815260200161218f603291396001600160a01b0388169190611fe0565b90506000818060200190516020811015611dad57600080fd5b50516001600160e01b031916630a85bd0160e11b1492505050949350505050565b60009081526001919091016020526040902054151590565b600060606000368080601f0160208091040260200160405190810160405280939291908181526020018383808284376000920191909152505050503601516001600160a01b031692915050565b60008181526001830160205260408120548015611eef5783546000198083019190810190600090879083908110611e6657fe5b9060005260206000200154905080876000018481548110611e8357fe5b600091825260208083209091019290925582815260018981019092526040902090840190558654879080611eb357fe5b60019003818190600052602060002001600090559055866001016000878152602001908152602001600020600090556001945050505050610ab2565b6000915050610ab2565b6000611f058383611dce565b611f3b57508154600181810184556000848152602080822090930184905584548482528286019093526040902091909155610ab2565b506000610ab2565b600082815260018401602052604081205480611fa857505060408051808201825283815260208082018481528654600181810189556000898152848120955160029093029095019182559151908201558654868452818801909252929091205561154f565b82856000016001830381548110611fbb57fe5b906000526020600020906002020160010181905550600091505061154f565b3b151590565b606061154c848460008585611ff485611fda565b612045576040805162461bcd60e51b815260206004820152601d60248201527f416464726573733a2063616c6c20746f206e6f6e2d636f6e7472616374000000604482015290519081900360640190fd5b60006060866001600160a01b031685876040518082805190602001908083835b602083106120845780518252601f199092019160209182019101612065565b6001836020036101000a03801982511681845116808217855250505050505090500191505060006040518083038185875af1925050503d80600081146120e6576040519150601f19603f3d011682016040523d82523d6000602084013e6120eb565b606091505b50915091506120fb828286612106565b979650505050505050565b6060831561211557508161154f565b8251156121255782518084602001fd5b60405162461bcd60e51b8152602060048201818152845160248401528451859391928392604401919085019080838360008315611a79578181015183820152602001611a6156fe456e756d657261626c655365743a20696e646578206f7574206f6620626f756e64734552433732313a207472616e7366657220746f206e6f6e20455243373231526563656976657220696d706c656d656e7465724552433732313a207472616e7366657220746f20746865207a65726f206164647265737345434453413a20696e76616c6964207369676e6174757265202773272076616c75654552433732313a206f70657261746f7220717565727920666f72206e6f6e6578697374656e7420746f6b656e4552433732313a20617070726f76652063616c6c6572206973206e6f74206f776e6572206e6f7220617070726f76656420666f7220616c6c4552433732313a2062616c616e636520717565727920666f7220746865207a65726f20616464726573734552433732313a206f776e657220717565727920666f72206e6f6e6578697374656e7420746f6b656e45434453413a20696e76616c6964207369676e6174757265202776272076616c7565456e756d657261626c654d61703a20696e646578206f7574206f6620626f756e64734552433732313a20617070726f76656420717565727920666f72206e6f6e6578697374656e7420746f6b656e4552433732313a207472616e73666572206f6620746f6b656e2074686174206973206e6f74206f776e4552433732314d657461646174613a2055524920717565727920666f72206e6f6e6578697374656e7420746f6b656e4552433732313a20617070726f76616c20746f2063757272656e74206f776e657247534e526563697069656e743a2063616c6c6572206973206e6f742052656c61794875624552433732313a207472616e736665722063616c6c6572206973206e6f74206f776e6572206e6f7220617070726f766564a2646970667358221220f09bca316c40c920f2d08519213ce49d8eefb7277a7786d31c69cda4f8f694cf64736f6c634300060c003347534e526563697069656e745369676e61747572653a2074727573746564207369676e657220697320746865207a65726f2061646472657373",
  "linkReferences": {},
  "deployedLinkReferences": {}
}