{
  "_format": "hh-sol-artifact-1",
  "contractName": "ClashingImplementationUpgradeable",
  "sourceName": "contracts/contracts-upgradeable-v3_4/mocks/ClashingImplementationUpgradeable.sol",
  "abi": [
    {
      "inputs": [],
      "name": "admin",
      "outputs": [
        {
          "internalType": "address",
          "name": "",
          "type": "address"
        }
      ],
      "stateMutability": "pure",
      "type": "function"
    },
    {
      "inputs": [],
      "name": "delegatedFunction",
      "outputs": [
        {
          "internalType": "bool",
          "name": "",
          "type": "bool"
        }
      ],
      "stateMutability": "pure",
      "type": "function"
    }
  ],
  "bytecode": "0x608060405234801561001057600080fd5b5060b68061001f6000396000f3fe6080604052348015600f57600080fd5b506004361060325760003560e01c8063abf8e0e7146037578063f851a440146051575b600080fd5b603d6073565b604080519115158252519081900360200190f35b60576078565b604080516001600160a01b039092168252519081900360200190f35b600190565b63111111429056fea2646970667358221220d2661409c24e1d7d54611fa4dd1a1441482aa18bc363494af7e53b01206dac6664736f6c634300060c0033",
  "linkReferences": {},
  "deployedLinkReferences": {}
}