{
  "_format": "hh-sol-artifact-1",
  "contractName": "ERC1155PresetMinterPauserUpgradeable",
  "sourceName": "contracts/contracts-upgradeable-v3_4/presets/ERC1155PresetMinterPauserUpgradeable.sol",
  "abi": [
    {
      "anonymous": false,
      "inputs": [
        {
          "indexed": true,
          "internalType": "address",
          "name": "account",
          "type": "address"
        },
        {
          "indexed": true,
          "internalType": "address",
          "name": "operator",
          "type": "address"
        },
        {
          "indexed": false,
          "internalType": "bool",
          "name": "approved",
          "type": "bool"
        }
      ],
      "name": "ApprovalForAll",
      "type": "event"
    },
    {
      "anonymous": false,
      "inputs": [
        {
          "indexed": false,
          "internalType": "address",
          "name": "account",
          "type": "address"
        }
      ],
      "name": "Paused",
      "type": "event"
    },
    {
      "anonymous": false,
      "inputs": [
        {
          "indexed": true,
          "internalType": "bytes32",
          "name": "role",
          "type": "bytes32"
        },
        {
          "indexed": true,
          "internalType": "bytes32",
          "name": "previousAdminRole",
          "type": "bytes32"
        },
        {
          "indexed": true,
          "internalType": "bytes32",
          "name": "newAdminRole",
          "type": "bytes32"
        }
      ],
      "name": "RoleAdminChanged",
      "type": "event"
    },
    {
      "anonymous": false,
      "inputs": [
        {
          "indexed": true,
          "internalType": "bytes32",
          "name": "role",
          "type": "bytes32"
        },
        {
          "indexed": true,
          "internalType": "address",
          "name": "account",
          "type": "address"
        },
        {
          "indexed": true,
          "internalType": "address",
          "name": "sender",
          "type": "address"
        }
      ],
      "name": "RoleGranted",
      "type": "event"
    },
    {
      "anonymous": false,
      "inputs": [
        {
          "indexed": true,
          "internalType": "bytes32",
          "name": "role",
          "type": "bytes32"
        },
        {
          "indexed": true,
          "internalType": "address",
          "name": "account",
          "type": "address"
        },
        {
          "indexed": true,
          "internalType": "address",
          "name": "sender",
          "type": "address"
        }
      ],
      "name": "RoleRevoked",
      "type": "event"
    },
    {
      "anonymous": false,
      "inputs": [
        {
          "indexed": true,
          "internalType": "address",
          "name": "operator",
          "type": "address"
        },
        {
          "indexed": true,
          "internalType": "address",
          "name": "from",
          "type": "address"
        },
        {
          "indexed": true,
          "internalType": "address",
          "name": "to",
          "type": "address"
        },
        {
          "indexed": false,
          "internalType": "uint256[]",
          "name": "ids",
          "type": "uint256[]"
        },
        {
          "indexed": false,
          "internalType": "uint256[]",
          "name": "values",
          "type": "uint256[]"
        }
      ],
      "name": "TransferBatch",
      "type": "event"
    },
    {
      "anonymous": false,
      "inputs": [
        {
          "indexed": true,
          "internalType": "address",
          "name": "operator",
          "type": "address"
        },
        {
          "indexed": true,
          "internalType": "address",
          "name": "from",
          "type": "address"
        },
        {
          "indexed": true,
          "internalType": "address",
          "name": "to",
          "type": "address"
        },
        {
          "indexed": false,
          "internalType": "uint256",
          "name": "id",
          "type": "uint256"
        },
        {
          "indexed": false,
          "internalType": "uint256",
          "name": "value",
          "type": "uint256"
        }
      ],
      "name": "TransferSingle",
      "type": "event"
    },
    {
      "anonymous": false,
      "inputs": [
        {
          "indexed": false,
          "internalType": "string",
          "name": "value",
          "type": "string"
        },
        {
          "indexed": true,
          "internalType": "uint256",
          "name": "id",
          "type": "uint256"
        }
      ],
      "name": "URI",
      "type": "event"
    },
    {
      "anonymous": false,
      "inputs": [
        {
          "indexed": false,
          "internalType": "address",
          "name": "account",
          "type": "address"
        }
      ],
      "name": "Unpaused",
      "type": "event"
    },
    {
      "inputs": [],
      "name": "DEFAULT_ADMIN_ROLE",
      "outputs": [
        {
          "internalType": "bytes32",
          "name": "",
          "type": "bytes32"
        }
      ],
      "stateMutability": "view",
      "type": "function"
    },
    {
      "inputs": [],
      "name": "MINTER_ROLE",
      "outputs": [
        {
          "internalType": "bytes32",
          "name": "",
          "type": "bytes32"
        }
      ],
      "stateMutability": "view",
      "type": "function"
    },
    {
      "inputs": [],
      "name": "PAUSER_ROLE",
      "outputs": [
        {
          "internalType": "bytes32",
          "name": "",
          "type": "bytes32"
        }
      ],
      "stateMutability": "view",
      "type": "function"
    },
    {
      "inputs": [
        {
          "internalType": "address",
          "name": "account",
          "type": "address"
        },
        {
          "internalType": "uint256",
          "name": "id",
          "type": "uint256"
        }
      ],
      "name": "balanceOf",
      "outputs": [
        {
          "internalType": "uint256",
          "name": "",
          "type": "uint256"
        }
      ],
      "stateMutability": "view",
      "type": "function"
    },
    {
      "inputs": [
        {
          "internalType": "address[]",
          "name": "accounts",
          "type": "address[]"
        },
        {
          "internalType": "uint256[]",
          "name": "ids",
          "type": "uint256[]"
        }
      ],
      "name": "balanceOfBatch",
      "outputs": [
        {
          "internalType": "uint256[]",
          "name": "",
          "type": "uint256[]"
        }
      ],
      "stateMutability": "view",
      "type": "function"
    },
    {
      "inputs": [
        {
          "internalType": "address",
          "name": "account",
          "type": "address"
        },
        {
          "internalType": "uint256",
          "name": "id",
          "type": "uint256"
        },
        {
          "internalType": "uint256",
          "name": "value",
          "type": "uint256"
        }
      ],
      "name": "burn",
      "outputs": [],
      "stateMutability": "nonpayable",
      "type": "function"
    },
    {
      "inputs": [
        {
          "internalType": "address",
          "name": "account",
          "type": "address"
        },
        {
          "internalType": "uint256[]",
          "name": "ids",
          "type": "uint256[]"
        },
        {
          "internalType": "uint256[]",
          "name": "values",
          "type": "uint256[]"
        }
      ],
      "name": "burnBatch",
      "outputs": [],
      "stateMutability": "nonpayable",
      "type": "function"
    },
    {
      "inputs": [
        {
          "internalType": "bytes32",
          "name": "role",
          "type": "bytes32"
        }
      ],
      "name": "getRoleAdmin",
      "outputs": [
        {
          "internalType": "bytes32",
          "name": "",
          "type": "bytes32"
        }
      ],
      "stateMutability": "view",
      "type": "function"
    },
    {
      "inputs": [
        {
          "internalType": "bytes32",
          "name": "role",
          "type": "bytes32"
        },
        {
          "internalType": "uint256",
          "name": "index",
          "type": "uint256"
        }
      ],
      "name": "getRoleMember",
      "outputs": [
        {
          "internalType": "address",
          "name": "",
          "type": "address"
        }
      ],
      "stateMutability": "view",
      "type": "function"
    },
    {
      "inputs": [
        {
          "internalType": "bytes32",
          "name": "role",
          "type": "bytes32"
        }
      ],
      "name": "getRoleMemberCount",
      "outputs": [
        {
          "internalType": "uint256",
          "name": "",
          "type": "uint256"
        }
      ],
      "stateMutability": "view",
      "type": "function"
    },
    {
      "inputs": [
        {
          "internalType": "bytes32",
          "name": "role",
          "type": "bytes32"
        },
        {
          "internalType": "address",
          "name": "account",
          "type": "address"
        }
      ],
      "name": "grantRole",
      "outputs": [],
      "stateMutability": "nonpayable",
      "type": "function"
    },
    {
      "inputs": [
        {
          "internalType": "bytes32",
          "name": "role",
          "type": "bytes32"
        },
        {
          "internalType": "address",
          "name": "account",
          "type": "address"
        }
      ],
      "name": "hasRole",
      "outputs": [
        {
          "internalType": "bool",
          "name": "",
          "type": "bool"
        }
      ],
      "stateMutability": "view",
      "type": "function"
    },
    {
      "inputs": [
        {
          "internalType": "string",
          "name": "uri",
          "type": "string"
        }
      ],
      "name": "initialize",
      "outputs": [],
      "stateMutability": "nonpayable",
      "type": "function"
    },
    {
      "inputs": [
        {
          "internalType": "address",
          "name": "account",
          "type": "address"
        },
        {
          "internalType": "address",
          "name": "operator",
          "type": "address"
        }
      ],
      "name": "isApprovedForAll",
      "outputs": [
        {
          "internalType": "bool",
          "name": "",
          "type": "bool"
        }
      ],
      "stateMutability": "view",
      "type": "function"
    },
    {
      "inputs": [
        {
          "internalType": "address",
          "name": "to",
          "type": "address"
        },
        {
          "internalType": "uint256",
          "name": "id",
          "type": "uint256"
        },
        {
          "internalType": "uint256",
          "name": "amount",
          "type": "uint256"
        },
        {
          "internalType": "bytes",
          "name": "data",
          "type": "bytes"
        }
      ],
      "name": "mint",
      "outputs": [],
      "stateMutability": "nonpayable",
      "type": "function"
    },
    {
      "inputs": [
        {
          "internalType": "address",
          "name": "to",
          "type": "address"
        },
        {
          "internalType": "uint256[]",
          "name": "ids",
          "type": "uint256[]"
        },
        {
          "internalType": "uint256[]",
          "name": "amounts",
          "type": "uint256[]"
        },
        {
          "internalType": "bytes",
          "name": "data",
          "type": "bytes"
        }
      ],
      "name": "mintBatch",
      "outputs": [],
      "stateMutability": "nonpayable",
      "type": "function"
    },
    {
      "inputs": [],
      "name": "pause",
      "outputs": [],
      "stateMutability": "nonpayable",
      "type": "function"
    },
    {
      "inputs": [],
      "name": "paused",
      "outputs": [
        {
          "internalType": "bool",
          "name": "",
          "type": "bool"
        }
      ],
      "stateMutability": "view",
      "type": "function"
    },
    {
      "inputs": [
        {
          "internalType": "bytes32",
          "name": "role",
          "type": "bytes32"
        },
        {
          "internalType": "address",
          "name": "account",
          "type": "address"
        }
      ],
      "name": "renounceRole",
      "outputs": [],
      "stateMutability": "nonpayable",
      "type": "function"
    },
    {
      "inputs": [
        {
          "internalType": "bytes32",
          "name": "role",
          "type": "bytes32"
        },
        {
          "internalType": "address",
          "name": "account",
          "type": "address"
        }
      ],
      "name": "revokeRole",
      "outputs": [],
      "stateMutability": "nonpayable",
      "type": "function"
    },
    {
      "inputs": [
        {
          "internalType": "address",
          "name": "from",
          "type": "address"
        },
        {
          "internalType": "address",
          "name": "to",
          "type": "address"
        },
        {
          "internalType": "uint256[]",
          "name": "ids",
          "type": "uint256[]"
        },
        {
          "internalType": "uint256[]",
          "name": "amounts",
          "type": "uint256[]"
        },
        {
          "internalType": "bytes",
          "name": "data",
          "type": "bytes"
        }
      ],
      "name": "safeBatchTransferFrom",
      "outputs": [],
      "stateMutability": "nonpayable",
      "type": "function"
    },
    {
      "inputs": [
        {
          "internalType": "address",
          "name": "from",
          "type": "address"
        },
        {
          "internalType": "address",
          "name": "to",
          "type": "address"
        },
        {
          "internalType": "uint256",
          "name": "id",
          "type": "uint256"
        },
        {
          "internalType": "uint256",
          "name": "amount",
          "type": "uint256"
        },
        {
          "internalType": "bytes",
          "name": "data",
          "type": "bytes"
        }
      ],
      "name": "safeTransferFrom",
      "outputs": [],
      "stateMutability": "nonpayable",
      "type": "function"
    },
    {
      "inputs": [
        {
          "internalType": "address",
          "name": "operator",
          "type": "address"
        },
        {
          "internalType": "bool",
          "name": "approved",
          "type": "bool"
        }
      ],
      "name": "setApprovalForAll",
      "outputs": [],
      "stateMutability": "nonpayable",
      "type": "function"
    },
    {
      "inputs": [
        {
          "internalType": "bytes4",
          "name": "interfaceId",
          "type": "bytes4"
        }
      ],
      "name": "supportsInterface",
      "outputs": [
        {
          "internalType": "bool",
          "name": "",
          "type": "bool"
        }
      ],
      "stateMutability": "view",
      "type": "function"
    },
    {
      "inputs": [],
      "name": "unpause",
      "outputs": [],
      "stateMutability": "nonpayable",
      "type": "function"
    },
    {
      "inputs": [
        {
          "internalType": "uint256",
          "name": "",
          "type": "uint256"
        }
      ],
      "name": "uri",
      "outputs": [
        {
          "internalType": "string",
          "name": "",
          "type": "string"
        }
      ],
      "stateMutability": "view",
      "type": "function"
    }
  ],
  "bytecode": "0x608060405234801561001057600080fd5b5061346d806100206000396000f3fe608060405234801561001057600080fd5b506004361061018d5760003560e01c80638456cb59116100de578063d539139311610097578063e985e9c511610071578063e985e9c514610b05578063f242432a14610b33578063f5298aca14610bfc578063f62d188814610c2e5761018d565b8063d539139314610ac9578063d547741f14610ad1578063e63ab1e914610afd5761018d565b80638456cb5914610a035780639010d07c14610a0b57806391d1485414610a4a578063a217fddf14610a76578063a22cb46514610a7e578063ca15c87314610aac5761018d565b80632f2ff15d1161014b5780634e1273f4116101255780634e1273f4146106955780635c975abb146108085780636b20c45414610810578063731133e9146109435761018d565b80632f2ff15d1461063557806336568abe146106615780633f4ba83a1461068d5761018d565b8062fdd58e1461019257806301ffc9a7146101d05780630e89341c1461020b5780631f7fdffa1461029d578063248a9ca3146104575780632eb2c2d614610474575b600080fd5b6101be600480360360408110156101a857600080fd5b506001600160a01b038135169060200135610cd2565b60408051918252519081900360200190f35b6101f7600480360360208110156101e657600080fd5b50356001600160e01b031916610d44565b604080519115158252519081900360200190f35b6102286004803603602081101561022157600080fd5b5035610d63565b6040805160208082528351818301528351919283929083019185019080838360005b8381101561026257818101518382015260200161024a565b50505050905090810190601f16801561028f5780820380516001836020036101000a031916815260200191505b509250505060405180910390f35b610455600480360360808110156102b357600080fd5b6001600160a01b038235169190810190604081016020820135600160201b8111156102dd57600080fd5b8201836020820111156102ef57600080fd5b803590602001918460208302840111600160201b8311171561031057600080fd5b9190808060200260200160405190810160405280939291908181526020018383602002808284376000920191909152509295949360208101935035915050600160201b81111561035f57600080fd5b82018360208201111561037157600080fd5b803590602001918460208302840111600160201b8311171561039257600080fd5b9190808060200260200160405190810160405280939291908181526020018383602002808284376000920191909152509295949360208101935035915050600160201b8111156103e157600080fd5b8201836020820111156103f357600080fd5b803590602001918460018302840111600160201b8311171561041457600080fd5b91908080601f016020809104026020016040519081016040528093929190818152602001838380828437600092019190915250929550610dfb945050505050565b005b6101be6004803603602081101561046d57600080fd5b5035610e67565b610455600480360360a081101561048a57600080fd5b6001600160a01b038235811692602081013590911691810190606081016040820135600160201b8111156104bd57600080fd5b8201836020820111156104cf57600080fd5b803590602001918460208302840111600160201b831117156104f057600080fd5b9190808060200260200160405190810160405280939291908181526020018383602002808284376000920191909152509295949360208101935035915050600160201b81111561053f57600080fd5b82018360208201111561055157600080fd5b803590602001918460208302840111600160201b8311171561057257600080fd5b9190808060200260200160405190810160405280939291908181526020018383602002808284376000920191909152509295949360208101935035915050600160201b8111156105c157600080fd5b8201836020820111156105d357600080fd5b803590602001918460018302840111600160201b831117156105f457600080fd5b91908080601f016020809104026020016040519081016040528093929190818152602001838380828437600092019190915250929550610e7c945050505050565b6104556004803603604081101561064b57600080fd5b50803590602001356001600160a01b031661117f565b6104556004803603604081101561067757600080fd5b50803590602001356001600160a01b03166111e6565b610455611247565b6107b8600480360360408110156106ab57600080fd5b810190602081018135600160201b8111156106c557600080fd5b8201836020820111156106d757600080fd5b803590602001918460208302840111600160201b831117156106f857600080fd5b9190808060200260200160405190810160405280939291908181526020018383602002808284376000920191909152509295949360208101935035915050600160201b81111561074757600080fd5b82018360208201111561075957600080fd5b803590602001918460208302840111600160201b8311171561077a57600080fd5b9190808060200260200160405190810160405280939291908181526020018383602002808284376000920191909152509295506112a6945050505050565b60408051602080825283518183015283519192839290830191858101910280838360005b838110156107f45781810151838201526020016107dc565b505050509050019250505060405180910390f35b6101f7611392565b6104556004803603606081101561082657600080fd5b6001600160a01b038235169190810190604081016020820135600160201b81111561085057600080fd5b82018360208201111561086257600080fd5b803590602001918460208302840111600160201b8311171561088357600080fd5b9190808060200260200160405190810160405280939291908181526020018383602002808284376000920191909152509295949360208101935035915050600160201b8111156108d257600080fd5b8201836020820111156108e457600080fd5b803590602001918460208302840111600160201b8311171561090557600080fd5b91908080602002602001604051908101604052809392919081815260200183836020028082843760009201919091525092955061139c945050505050565b6104556004803603608081101561095957600080fd5b6001600160a01b038235169160208101359160408201359190810190608081016060820135600160201b81111561098f57600080fd5b8201836020820111156109a157600080fd5b803590602001918460018302840111600160201b831117156109c257600080fd5b91908080601f016020809104026020016040519081016040528093929190818152602001838380828437600092019190915250929550611415945050505050565b610455611476565b610a2e60048036036040811015610a2157600080fd5b50803590602001356114d3565b604080516001600160a01b039092168252519081900360200190f35b6101f760048036036040811015610a6057600080fd5b50803590602001356001600160a01b03166114f2565b6101be61150a565b61045560048036036040811015610a9457600080fd5b506001600160a01b038135169060200135151561150f565b6101be60048036036020811015610ac257600080fd5b50356115fe565b6101be611615565b61045560048036036040811015610ae757600080fd5b50803590602001356001600160a01b0316611627565b6101be611680565b6101f760048036036040811015610b1b57600080fd5b506001600160a01b0381358116916020013516611692565b610455600480360360a0811015610b4957600080fd5b6001600160a01b03823581169260208101359091169160408201359160608101359181019060a081016080820135600160201b811115610b8857600080fd5b820183602082011115610b9a57600080fd5b803590602001918460018302840111600160201b83111715610bbb57600080fd5b91908080601f0160208091040260200160405190810160405280939291908181526020018383808284376000920191909152509295506116c0945050505050565b61045560048036036060811015610c1257600080fd5b506001600160a01b03813516906020810135906040013561188b565b61045560048036036020811015610c4457600080fd5b810190602081018135600160201b811115610c5e57600080fd5b820183602082011115610c7057600080fd5b803590602001918460018302840111600160201b83111715610c9157600080fd5b91908080601f0160208091040260200160405190810160405280939291908181526020018383808284376000920191909152509295506118ff945050505050565b60006001600160a01b038316610d195760405162461bcd60e51b815260040180806020018281038252602b8152602001806130dc602b913960400191505060405180910390fd5b5060008181526097602090815260408083206001600160a01b03861684529091529020545b92915050565b6001600160e01b03191660009081526065602052604090205460ff1690565b60998054604080516020601f6002600019610100600188161502019095169490940493840181900481028201810190925282815260609390929091830182828015610def5780601f10610dc457610100808354040283529160200191610def565b820191906000526020600020905b815481529060010190602001808311610dd257829003601f168201915b50505050509050919050565b610e1a6000805160206132da833981519152610e156119aa565b6114f2565b610e555760405162461bcd60e51b81526004018080602001828103825260388152602001806132586038913960400191505060405180910390fd5b610e61848484846119ae565b50505050565b60009081526033602052604090206002015490565b8151835114610ebc5760405162461bcd60e51b81526004018080602001828103825260288152602001806133c06028913960400191505060405180910390fd5b6001600160a01b038416610f015760405162461bcd60e51b81526004018080602001828103825260258152602001806131b06025913960400191505060405180910390fd5b610f096119aa565b6001600160a01b0316856001600160a01b03161480610f345750610f3485610f2f6119aa565b611692565b610f6f5760405162461bcd60e51b81526004018080602001828103825260328152602001806131d56032913960400191505060405180910390fd5b6000610f796119aa565b9050610f89818787878787611c03565b60005b845181101561108f576000858281518110610fa357fe5b602002602001015190506000858381518110610fbb57fe5b60200260200101519050611028816040518060600160405280602a8152602001613290602a91396097600086815260200190815260200160002060008d6001600160a01b03166001600160a01b0316815260200190815260200160002054611c119092919063ffffffff16565b60008381526097602090815260408083206001600160a01b038e811685529252808320939093558a168152205461105f9082611ca8565b60009283526097602090815260408085206001600160a01b038c1686529091529092209190915550600101610f8c565b50846001600160a01b0316866001600160a01b0316826001600160a01b03167f4a39dc06d4c0dbc64b70af90fd698a233a518aa5d07e595d983b8c0526c8f7fb8787604051808060200180602001838103835285818151815260200191508051906020019060200280838360005b838110156111155781810151838201526020016110fd565b50505050905001838103825284818151815260200191508051906020019060200280838360005b8381101561115457818101518382015260200161113c565b5050505090500194505050505060405180910390a4611177818787878787611d02565b505050505050565b60008281526033602052604090206002015461119d90610e156119aa565b6111d85760405162461bcd60e51b815260040180806020018281038252602f8152602001806130ad602f913960400191505060405180910390fd5b6111e28282611f81565b5050565b6111ee6119aa565b6001600160a01b0316816001600160a01b03161461123d5760405162461bcd60e51b815260040180806020018281038252602f815260200180613409602f913960400191505060405180910390fd5b6111e28282611fea565b6112616000805160206132ba833981519152610e156119aa565b61129c5760405162461bcd60e51b815260040180806020018281038252603b8152602001806132fa603b913960400191505060405180910390fd5b6112a4612053565b565b606081518351146112e85760405162461bcd60e51b81526004018080602001828103825260298152602001806133976029913960400191505060405180910390fd5b6060835167ffffffffffffffff8111801561130257600080fd5b5060405190808252806020026020018201604052801561132c578160200160208202803683370190505b50905060005b845181101561138a5761136b85828151811061134a57fe5b602002602001015185838151811061135e57fe5b6020026020010151610cd2565b82828151811061137757fe5b6020908102919091010152600101611332565b509392505050565b60fb5460ff165b90565b6113a46119aa565b6001600160a01b0316836001600160a01b031614806113ca57506113ca83610f2f6119aa565b6114055760405162461bcd60e51b81526004018080602001828103825260298152602001806131576029913960400191505060405180910390fd5b6114108383836120f3565b505050565b61142f6000805160206132da833981519152610e156119aa565b61146a5760405162461bcd60e51b81526004018080602001828103825260388152602001806132586038913960400191505060405180910390fd5b610e6184848484612361565b6114906000805160206132ba833981519152610e156119aa565b6114cb5760405162461bcd60e51b81526004018080602001828103825260398152602001806133356039913960400191505060405180910390fd5b6112a4612462565b60008281526033602052604081206114eb90836124e5565b9392505050565b60008281526033602052604081206114eb90836124f1565b600081565b816001600160a01b03166115216119aa565b6001600160a01b031614156115675760405162461bcd60e51b815260040180806020018281038252602981526020018061336e6029913960400191505060405180910390fd5b80609860006115746119aa565b6001600160a01b03908116825260208083019390935260409182016000908120918716808252919093529120805460ff1916921515929092179091556115b86119aa565b6001600160a01b03167f17307eab39ab6107e8899845ad3d59bd9653f200f220920489ca2b5937696c318360405180821515815260200191505060405180910390a35050565b6000818152603360205260408120610d3e90612506565b6000805160206132da83398151915281565b60008281526033602052604090206002015461164590610e156119aa565b61123d5760405162461bcd60e51b81526004018080602001828103825260308152602001806131806030913960400191505060405180910390fd5b6000805160206132ba83398151915281565b6001600160a01b03918216600090815260986020908152604080832093909416825291909152205460ff1690565b6001600160a01b0384166117055760405162461bcd60e51b81526004018080602001828103825260258152602001806131b06025913960400191505060405180910390fd5b61170d6119aa565b6001600160a01b0316856001600160a01b03161480611733575061173385610f2f6119aa565b61176e5760405162461bcd60e51b81526004018080602001828103825260298152602001806131576029913960400191505060405180910390fd5b60006117786119aa565b905061179881878761178988612511565b61179288612511565b87611c03565b6117df836040518060600160405280602a8152602001613290602a913960008781526097602090815260408083206001600160a01b038d1684529091529020549190611c11565b60008581526097602090815260408083206001600160a01b038b811685529252808320939093558716815220546118169084611ca8565b60008581526097602090815260408083206001600160a01b03808b168086529184529382902094909455805188815291820187905280518a8416938616927fc3d58168c5ae7397731d063d5bbf3d657854427343f4c083240f7aacaa2d0f6292908290030190a4611177818787878787612555565b6118936119aa565b6001600160a01b0316836001600160a01b031614806118b957506118b983610f2f6119aa565b6118f45760405162461bcd60e51b81526004018080602001828103825260298152602001806131576029913960400191505060405180910390fd5b6114108383836126c6565b600054610100900460ff168061191857506119186127f9565b80611926575060005460ff16155b6119615760405162461bcd60e51b815260040180806020018281038252602e815260200180613207602e913960400191505060405180910390fd5b600054610100900460ff1615801561198c576000805460ff1961ff0019909116610100171660011790555b6119958261280a565b80156111e2576000805461ff00191690555050565b3390565b6001600160a01b0384166119f35760405162461bcd60e51b81526004018080602001828103825260218152602001806133e86021913960400191505060405180910390fd5b8151835114611a335760405162461bcd60e51b81526004018080602001828103825260288152602001806133c06028913960400191505060405180910390fd5b6000611a3d6119aa565b9050611a4e81600087878787611c03565b60005b8451811015611b1257611ac960976000878481518110611a6d57fe5b602002602001015181526020019081526020016000206000886001600160a01b03166001600160a01b0316815260200190815260200160002054858381518110611ab357fe5b6020026020010151611ca890919063ffffffff16565b60976000878481518110611ad957fe5b602090810291909101810151825281810192909252604090810160009081206001600160a01b038b168252909252902055600101611a51565b50846001600160a01b031660006001600160a01b0316826001600160a01b03167f4a39dc06d4c0dbc64b70af90fd698a233a518aa5d07e595d983b8c0526c8f7fb8787604051808060200180602001838103835285818151815260200191508051906020019060200280838360005b83811015611b99578181015183820152602001611b81565b50505050905001838103825284818151815260200191508051906020019060200280838360005b83811015611bd8578181015183820152602001611bc0565b5050505090500194505050505060405180910390a4611bfc81600087878787611d02565b5050505050565b6111778686868686866128d9565b60008184841115611ca05760405162461bcd60e51b81526004018080602001828103825283818151815260200191508051906020019080838360005b83811015611c65578181015183820152602001611c4d565b50505050905090810190601f168015611c925780820380516001836020036101000a031916815260200191505b509250505060405180910390fd5b505050900390565b6000828201838110156114eb576040805162461bcd60e51b815260206004820152601b60248201527f536166654d6174683a206164646974696f6e206f766572666c6f770000000000604482015290519081900360640190fd5b611d14846001600160a01b031661292b565b1561117757836001600160a01b031663bc197c8187878686866040518663ffffffff1660e01b815260040180866001600160a01b03168152602001856001600160a01b03168152602001806020018060200180602001848103845287818151815260200191508051906020019060200280838360005b83811015611da2578181015183820152602001611d8a565b50505050905001848103835286818151815260200191508051906020019060200280838360005b83811015611de1578181015183820152602001611dc9565b50505050905001848103825285818151815260200191508051906020019080838360005b83811015611e1d578181015183820152602001611e05565b50505050905090810190601f168015611e4a5780820380516001836020036101000a031916815260200191505b5098505050505050505050602060405180830381600087803b158015611e6f57600080fd5b505af1925050508015611e9457506040513d6020811015611e8f57600080fd5b505160015b611f2957611ea0612f89565b80611eab5750611ef2565b60405162461bcd60e51b8152602060048201818152835160248401528351849391928392604401919085019080838360008315611c65578181015183820152602001611c4d565b60405162461bcd60e51b815260040180806020018281038252603481526020018061302f6034913960400191505060405180910390fd5b6001600160e01b0319811663bc197c8160e01b14611f785760405162461bcd60e51b81526004018080602001828103825260288152602001806130856028913960400191505060405180910390fd5b50505050505050565b6000828152603360205260409020611f999082612931565b156111e257611fa66119aa565b6001600160a01b0316816001600160a01b0316837f2f8788117e7eff1d82e926ec794901d17c78024a50270940304540a733656f0d60405160405180910390a45050565b60008281526033602052604090206120029082612946565b156111e25761200f6119aa565b6001600160a01b0316816001600160a01b0316837ff6391f5c32d9c69d2a47ea670b442974b53935d1edc7fd64eb21e047a839171b60405160405180910390a45050565b61205b611392565b6120a3576040805162461bcd60e51b815260206004820152601460248201527314185d5cd8589b194e881b9bdd081c185d5cd95960621b604482015290519081900360640190fd5b60fb805460ff191690557f5db9ee0a495bf2e6ff9c91a7834c1ba4fdd244a5e8aa4e537bd38aeae4b073aa6120d66119aa565b604080516001600160a01b039092168252519081900360200190a1565b6001600160a01b0383166121385760405162461bcd60e51b81526004018080602001828103825260238152602001806132356023913960400191505060405180910390fd5b80518251146121785760405162461bcd60e51b81526004018080602001828103825260288152602001806133c06028913960400191505060405180910390fd5b60006121826119aa565b90506121a281856000868660405180602001604052806000815250611c03565b60005b8351811015612280576122378382815181106121bd57fe5b602002602001015160405180606001604052806024815260200161310760249139609760008886815181106121ee57fe5b602002602001015181526020019081526020016000206000896001600160a01b03166001600160a01b0316815260200190815260200160002054611c119092919063ffffffff16565b6097600086848151811061224757fe5b602090810291909101810151825281810192909252604090810160009081206001600160a01b038a1682529092529020556001016121a5565b5060006001600160a01b0316846001600160a01b0316826001600160a01b03167f4a39dc06d4c0dbc64b70af90fd698a233a518aa5d07e595d983b8c0526c8f7fb8686604051808060200180602001838103835285818151815260200191508051906020019060200280838360005b838110156123075781810151838201526020016122ef565b50505050905001838103825284818151815260200191508051906020019060200280838360005b8381101561234657818101518382015260200161232e565b5050505090500194505050505060405180910390a450505050565b6001600160a01b0384166123a65760405162461bcd60e51b81526004018080602001828103825260218152602001806133e86021913960400191505060405180910390fd5b60006123b06119aa565b90506123c28160008761178988612511565b60008481526097602090815260408083206001600160a01b03891684529091529020546123ef9084611ca8565b60008581526097602090815260408083206001600160a01b03808b16808652918452828520959095558151898152928301889052815190948616927fc3d58168c5ae7397731d063d5bbf3d657854427343f4c083240f7aacaa2d0f6292908290030190a4611bfc81600087878787612555565b61246a611392565b156124af576040805162461bcd60e51b815260206004820152601060248201526f14185d5cd8589b194e881c185d5cd95960821b604482015290519081900360640190fd5b60fb805460ff191660011790557f62e78cea01bee320cd4e420270b5ea74000d11b0c9f74754ebdbfc544b05a2586120d66119aa565b60006114eb838361295b565b60006114eb836001600160a01b0384166129bf565b6000610d3e826129d7565b60408051600180825281830190925260609182919060208083019080368337019050509050828160008151811061254457fe5b602090810291909101015292915050565b612567846001600160a01b031661292b565b1561117757836001600160a01b031663f23a6e6187878686866040518663ffffffff1660e01b815260040180866001600160a01b03168152602001856001600160a01b0316815260200184815260200183815260200180602001828103825283818151815260200191508051906020019080838360005b838110156125f65781810151838201526020016125de565b50505050905090810190601f1680156126235780820380516001836020036101000a031916815260200191505b509650505050505050602060405180830381600087803b15801561264657600080fd5b505af192505050801561266b57506040513d602081101561266657600080fd5b505160015b61267757611ea0612f89565b6001600160e01b0319811663f23a6e6160e01b14611f785760405162461bcd60e51b81526004018080602001828103825260288152602001806130856028913960400191505060405180910390fd5b6001600160a01b03831661270b5760405162461bcd60e51b81526004018080602001828103825260238152602001806132356023913960400191505060405180910390fd5b60006127156119aa565b90506127458185600061272787612511565b61273087612511565b60405180602001604052806000815250611c03565b61278c826040518060600160405280602481526020016131076024913960008681526097602090815260408083206001600160a01b038b1684529091529020549190611c11565b60008481526097602090815260408083206001600160a01b03808a16808652918452828520959095558151888152928301879052815193949093908616927fc3d58168c5ae7397731d063d5bbf3d657854427343f4c083240f7aacaa2d0f6292908290030190a450505050565b60006128043061292b565b15905090565b600054610100900460ff168061282357506128236127f9565b80612831575060005460ff16155b61286c5760405162461bcd60e51b815260040180806020018281038252602e815260200180613207602e913960400191505060405180910390fd5b600054610100900460ff16158015612897576000805460ff1961ff0019909116610100171660011790555b61289f6129db565b6128a76129db565b6128af612a7d565b6128b882612b1a565b6128c06129db565b6128c8612bd0565b6128d06129db565b61199582612c7b565b6128e7868686868686611177565b6128ef611392565b156111775760405162461bcd60e51b815260040180806020018281038252602c81526020018061312b602c913960400191505060405180910390fd5b3b151590565b60006114eb836001600160a01b038416612d4e565b60006114eb836001600160a01b038416612d98565b8154600090821061299d5760405162461bcd60e51b81526004018080602001828103825260228152602001806130636022913960400191505060405180910390fd5b8260000182815481106129ac57fe5b9060005260206000200154905092915050565b60009081526001919091016020526040902054151590565b5490565b600054610100900460ff16806129f457506129f46127f9565b80612a02575060005460ff16155b612a3d5760405162461bcd60e51b815260040180806020018281038252602e815260200180613207602e913960400191505060405180910390fd5b600054610100900460ff16158015612a68576000805460ff1961ff0019909116610100171660011790555b8015612a7a576000805461ff00191690555b50565b600054610100900460ff1680612a965750612a966127f9565b80612aa4575060005460ff16155b612adf5760405162461bcd60e51b815260040180806020018281038252602e815260200180613207602e913960400191505060405180910390fd5b600054610100900460ff16158015612b0a576000805460ff1961ff0019909116610100171660011790555b612a686301ffc9a760e01b612e5e565b600054610100900460ff1680612b335750612b336127f9565b80612b41575060005460ff16155b612b7c5760405162461bcd60e51b815260040180806020018281038252602e815260200180613207602e913960400191505060405180910390fd5b600054610100900460ff16158015612ba7576000805460ff1961ff0019909116610100171660011790555b612bb082612ee2565b612bc0636cdb3d1360e11b612e5e565b6119956303a24d0760e21b612e5e565b600054610100900460ff1680612be95750612be96127f9565b80612bf7575060005460ff16155b612c325760405162461bcd60e51b815260040180806020018281038252602e815260200180613207602e913960400191505060405180910390fd5b600054610100900460ff16158015612c5d576000805460ff1961ff0019909116610100171660011790555b60fb805460ff191690558015612a7a576000805461ff001916905550565b600054610100900460ff1680612c945750612c946127f9565b80612ca2575060005460ff16155b612cdd5760405162461bcd60e51b815260040180806020018281038252602e815260200180613207602e913960400191505060405180910390fd5b600054610100900460ff16158015612d08576000805460ff1961ff0019909116610100171660011790555b612d1a6000612d156119aa565b6111d8565b612d346000805160206132da833981519152612d156119aa565b6119956000805160206132ba833981519152612d156119aa565b6000612d5a83836129bf565b612d9057508154600181810184556000848152602080822090930184905584548482528286019093526040902091909155610d3e565b506000610d3e565b60008181526001830160205260408120548015612e545783546000198083019190810190600090879083908110612dcb57fe5b9060005260206000200154905080876000018481548110612de857fe5b600091825260208083209091019290925582815260018981019092526040902090840190558654879080612e1857fe5b60019003818190600052602060002001600090559055866001016000878152602001908152602001600020600090556001945050505050610d3e565b6000915050610d3e565b6001600160e01b03198082161415612ebd576040805162461bcd60e51b815260206004820152601c60248201527f4552433136353a20696e76616c696420696e7465726661636520696400000000604482015290519081900360640190fd5b6001600160e01b0319166000908152606560205260409020805460ff19166001179055565b80516111e2906099906020840190828054600181600116156101000203166002900490600052602060002090601f016020900481019282601f10612f3157805160ff1916838001178555612f5e565b82800160010185558215612f5e579182015b82811115612f5e578251825591602001919060010190612f43565b50612f6a929150612f6e565b5090565b5b80821115612f6a5760008155600101612f6f565b60e01c90565b600060443d1015612f9957611399565b600481823e6308c379a0612fad8251612f83565b14612fb757611399565b6040513d600319016004823e80513d67ffffffffffffffff8160248401118184111715612fe75750505050611399565b828401925082519150808211156130015750505050611399565b503d8301602082840101111561301957505050611399565b601f01601f191681016020016040529150509056fe455243313135353a207472616e7366657220746f206e6f6e2045524331313535526563656976657220696d706c656d656e746572456e756d657261626c655365743a20696e646578206f7574206f6620626f756e6473455243313135353a204552433131353552656365697665722072656a656374656420746f6b656e73416363657373436f6e74726f6c3a2073656e646572206d75737420626520616e2061646d696e20746f206772616e74455243313135353a2062616c616e636520717565727920666f7220746865207a65726f2061646472657373455243313135353a206275726e20616d6f756e7420657863656564732062616c616e6365455243313135355061757361626c653a20746f6b656e207472616e73666572207768696c6520706175736564455243313135353a2063616c6c6572206973206e6f74206f776e6572206e6f7220617070726f766564416363657373436f6e74726f6c3a2073656e646572206d75737420626520616e2061646d696e20746f207265766f6b65455243313135353a207472616e7366657220746f20746865207a65726f2061646472657373455243313135353a207472616e736665722063616c6c6572206973206e6f74206f776e6572206e6f7220617070726f766564496e697469616c697a61626c653a20636f6e747261637420697320616c726561647920696e697469616c697a6564455243313135353a206275726e2066726f6d20746865207a65726f2061646472657373455243313135355072657365744d696e7465725061757365723a206d7573742068617665206d696e74657220726f6c6520746f206d696e74455243313135353a20696e73756666696369656e742062616c616e636520666f72207472616e7366657265d7a28e3265b37a6474929f336521b332c1681b933f6cb9f3376673440d862a9f2df0fed2c77648de5860a4cc508cd0818c85b8b8a1ab4ceeef8d981c8956a6455243313135355072657365744d696e7465725061757365723a206d75737420686176652070617573657220726f6c6520746f20756e7061757365455243313135355072657365744d696e7465725061757365723a206d75737420686176652070617573657220726f6c6520746f207061757365455243313135353a2073657474696e6720617070726f76616c2073746174757320666f722073656c66455243313135353a206163636f756e747320616e6420696473206c656e677468206d69736d61746368455243313135353a2069647320616e6420616d6f756e7473206c656e677468206d69736d61746368455243313135353a206d696e7420746f20746865207a65726f2061646472657373416363657373436f6e74726f6c3a2063616e206f6e6c792072656e6f756e636520726f6c657320666f722073656c66a2646970667358221220633940be9188a997754ac59d4f4a47a8d0144c0e34a18d09bb21b95e93bb99c064736f6c634300060c0033",
  "linkReferences": {},
  "deployedLinkReferences": {}
}