{
  "_format": "hh-sol-artifact-1",
  "contractName": "CallReceiverMockUpgradeable",
  "sourceName": "contracts/contracts-upgradeable-v3_4/mocks/CallReceiverMockUpgradeable.sol",
  "abi": [
    {
      "anonymous": false,
      "inputs": [],
      "name": "MockFunctionCalled",
      "type": "event"
    },
    {
      "inputs": [],
      "name": "mockFunction",
      "outputs": [
        {
          "internalType": "string",
          "name": "",
          "type": "string"
        }
      ],
      "stateMutability": "payable",
      "type": "function"
    },
    {
      "inputs": [],
      "name": "mockFunctionNonPayable",
      "outputs": [
        {
          "internalType": "string",
          "name": "",
          "type": "string"
        }
      ],
      "stateMutability": "nonpayable",
      "type": "function"
    },
    {
      "inputs": [],
      "name": "mockFunctionOutOfGas",
      "outputs": [],
      "stateMutability": "payable",
      "type": "function"
    },
    {
      "inputs": [],
      "name": "mockFunctionRevertsNoReason",
      "outputs": [],
      "stateMutability": "payable",
      "type": "function"
    },
    {
      "inputs": [],
      "name": "mockFunctionRevertsReason",
      "outputs": [],
      "stateMutability": "payable",
      "type": "function"
    },
    {
      "inputs": [],
      "name": "mockFunctionThrows",
      "outputs": [],
      "stateMutability": "payable",
      "type": "function"
    },
    {
      "inputs": [],
      "name": "mockFunctionWritesStorage",
      "outputs": [
        {
          "internalType": "string",
          "name": "",
          "type": "string"
        }
      ],
      "stateMutability": "nonpayable",
      "type": "function"
    },
    {
      "inputs": [],
      "name": "mockStaticFunction",
      "outputs": [
        {
          "internalType": "string",
          "name": "",
          "type": "string"
        }
      ],
      "stateMutability": "pure",
      "type": "function"
    },
    {
      "inputs": [],
      "name": "sharedAnswer",
      "outputs": [
        {
          "internalType": "string",
          "name": "",
          "type": "string"
        }
      ],
      "stateMutability": "view",
      "type": "function"
    }
  ],
  "bytecode": "0x608060405234801561001057600080fd5b5061041e806100206000396000f3fe6080604052600436106100865760003560e01c80633e6fec04116100595780633e6fec041461012f578063a793ab4714610137578063aa04f77e1461013f578063c8fc769614610154578063fc40cf731461016957610086565b80630c0349681461008b5780630f63e42c146100955780632c81d6381461011f5780633bcfaa1414610127575b600080fd5b61009361017e565b005b3480156100a157600080fd5b506100aa6101cb565b6040805160208082528351818301528351919283929083019185019080838360005b838110156100e45781810151838201526020016100cc565b50505050905090810190601f1680156101115780820380516001836020036101000a031916815260200191505b509250505060405180910390f35b610093610086565b610093610218565b6100aa6101cb565b61009361021a565b34801561014b57600080fd5b506100aa610259565b34801561016057600080fd5b506100aa6102a8565b34801561017557600080fd5b506100aa6102c8565b6040805162461bcd60e51b815260206004820152601b60248201527f43616c6c52656365697665724d6f636b3a20726576657274696e670000000000604482015290519081900360640190fd5b6040516060907f52c66ed6ec9ca819cba26fe2b2650059270d8981b295af300187a964f54a8c2390600090a1506040805180820190915260068152650c1e0c4c8ccd60d21b602082015290565bfe5b60005b60028054600181810183556000929092527f405787fa12a823e0f2b7631cc41b3ba8828b3321ca811111fa75cd3aa3bb5ace018290550161021d565b604080518082019091526002808252611a1960f11b60209092019182526060916102869160019190610355565b50506040805180820190915260068152650c1e0c4c8ccd60d21b602082015290565b6040805180820190915260068152650c1e0c4c8ccd60d21b602082015290565b60018054604080516020600284861615610100026000190190941693909304601f8101849004840282018401909252818152929183018282801561034d5780601f106103225761010080835404028352916020019161034d565b820191906000526020600020905b81548152906001019060200180831161033057829003601f168201915b505050505081565b828054600181600116156101000203166002900490600052602060002090601f016020900481019282601f1061039657805160ff19168380011785556103c3565b828001600101855582156103c3579182015b828111156103c35782518255916020019190600101906103a8565b506103cf9291506103d3565b5090565b5b808211156103cf57600081556001016103d456fea2646970667358221220b1e0d134426ddd4614fd6808d446f128d1a7d418c9bd9a317b6e506510d8c0fa64736f6c634300060c0033",
  "linkReferences": {},
  "deployedLinkReferences": {}
}