{
  "_format": "hh-sol-artifact-1",
  "contractName": "CountersImpl",
  "sourceName": "contracts/contracts-v3_4/mocks/CountersImpl.sol",
  "abi": [
    {
      "inputs": [],
      "name": "current",
      "outputs": [
        {
          "internalType": "uint256",
          "name": "",
          "type": "uint256"
        }
      ],
      "stateMutability": "view",
      "type": "function"
    },
    {
      "inputs": [],
      "name": "decrement",
      "outputs": [],
      "stateMutability": "nonpayable",
      "type": "function"
    },
    {
      "inputs": [],
      "name": "increment",
      "outputs": [],
      "stateMutability": "nonpayable",
      "type": "function"
    }
  ],
  "bytecode": "0x608060405234801561001057600080fd5b5061014a806100206000396000f3fe608060405234801561001057600080fd5b50600436106100415760003560e01c80632baeceb7146100465780639fa6a6e314610050578063d09de08a1461006a575b600080fd5b61004e610072565b005b61005861007e565b60408051918252519081900360200190f35b61004e61008f565b61007c6000610099565b565b600061008a60006100aa565b905090565b61007c60006100ae565b80546100a69060016100b7565b9055565b5490565b80546001019055565b60008282111561010e576040805162461bcd60e51b815260206004820152601e60248201527f536166654d6174683a207375627472616374696f6e206f766572666c6f770000604482015290519081900360640190fd5b5090039056fea26469706673582212209425c38029a25253d6940f7b5ff7122d49e43b337cd5cbcd85ad197eddda603e64736f6c634300060c0033",
  "linkReferences": {},
  "deployedLinkReferences": {}
}