{
  "_format": "hh-sol-artifact-1",
  "contractName": "ERC20PresetFixedSupplyUpgradeable",
  "sourceName": "contracts/contracts-upgradeable-v3_4/presets/ERC20PresetFixedSupplyUpgradeable.sol",
  "abi": [
    {
      "anonymous": false,
      "inputs": [
        {
          "indexed": true,
          "internalType": "address",
          "name": "owner",
          "type": "address"
        },
        {
          "indexed": true,
          "internalType": "address",
          "name": "spender",
          "type": "address"
        },
        {
          "indexed": false,
          "internalType": "uint256",
          "name": "value",
          "type": "uint256"
        }
      ],
      "name": "Approval",
      "type": "event"
    },
    {
      "anonymous": false,
      "inputs": [
        {
          "indexed": true,
          "internalType": "address",
          "name": "from",
          "type": "address"
        },
        {
          "indexed": true,
          "internalType": "address",
          "name": "to",
          "type": "address"
        },
        {
          "indexed": false,
          "internalType": "uint256",
          "name": "value",
          "type": "uint256"
        }
      ],
      "name": "Transfer",
      "type": "event"
    },
    {
      "inputs": [
        {
          "internalType": "address",
          "name": "owner",
          "type": "address"
        },
        {
          "internalType": "address",
          "name": "spender",
          "type": "address"
        }
      ],
      "name": "allowance",
      "outputs": [
        {
          "internalType": "uint256",
          "name": "",
          "type": "uint256"
        }
      ],
      "stateMutability": "view",
      "type": "function"
    },
    {
      "inputs": [
        {
          "internalType": "address",
          "name": "spender",
          "type": "address"
        },
        {
          "internalType": "uint256",
          "name": "amount",
          "type": "uint256"
        }
      ],
      "name": "approve",
      "outputs": [
        {
          "internalType": "bool",
          "name": "",
          "type": "bool"
        }
      ],
      "stateMutability": "nonpayable",
      "type": "function"
    },
    {
      "inputs": [
        {
          "internalType": "address",
          "name": "account",
          "type": "address"
        }
      ],
      "name": "balanceOf",
      "outputs": [
        {
          "internalType": "uint256",
          "name": "",
          "type": "uint256"
        }
      ],
      "stateMutability": "view",
      "type": "function"
    },
    {
      "inputs": [
        {
          "internalType": "uint256",
          "name": "amount",
          "type": "uint256"
        }
      ],
      "name": "burn",
      "outputs": [],
      "stateMutability": "nonpayable",
      "type": "function"
    },
    {
      "inputs": [
        {
          "internalType": "address",
          "name": "account",
          "type": "address"
        },
        {
          "internalType": "uint256",
          "name": "amount",
          "type": "uint256"
        }
      ],
      "name": "burnFrom",
      "outputs": [],
      "stateMutability": "nonpayable",
      "type": "function"
    },
    {
      "inputs": [],
      "name": "decimals",
      "outputs": [
        {
          "internalType": "uint8",
          "name": "",
          "type": "uint8"
        }
      ],
      "stateMutability": "view",
      "type": "function"
    },
    {
      "inputs": [
        {
          "internalType": "address",
          "name": "spender",
          "type": "address"
        },
        {
          "internalType": "uint256",
          "name": "subtractedValue",
          "type": "uint256"
        }
      ],
      "name": "decreaseAllowance",
      "outputs": [
        {
          "internalType": "bool",
          "name": "",
          "type": "bool"
        }
      ],
      "stateMutability": "nonpayable",
      "type": "function"
    },
    {
      "inputs": [
        {
          "internalType": "address",
          "name": "spender",
          "type": "address"
        },
        {
          "internalType": "uint256",
          "name": "addedValue",
          "type": "uint256"
        }
      ],
      "name": "increaseAllowance",
      "outputs": [
        {
          "internalType": "bool",
          "name": "",
          "type": "bool"
        }
      ],
      "stateMutability": "nonpayable",
      "type": "function"
    },
    {
      "inputs": [
        {
          "internalType": "string",
          "name": "name",
          "type": "string"
        },
        {
          "internalType": "string",
          "name": "symbol",
          "type": "string"
        },
        {
          "internalType": "uint256",
          "name": "initialSupply",
          "type": "uint256"
        },
        {
          "internalType": "address",
          "name": "owner",
          "type": "address"
        }
      ],
      "name": "initialize",
      "outputs": [],
      "stateMutability": "nonpayable",
      "type": "function"
    },
    {
      "inputs": [],
      "name": "name",
      "outputs": [
        {
          "internalType": "string",
          "name": "",
          "type": "string"
        }
      ],
      "stateMutability": "view",
      "type": "function"
    },
    {
      "inputs": [],
      "name": "symbol",
      "outputs": [
        {
          "internalType": "string",
          "name": "",
          "type": "string"
        }
      ],
      "stateMutability": "view",
      "type": "function"
    },
    {
      "inputs": [],
      "name": "totalSupply",
      "outputs": [
        {
          "internalType": "uint256",
          "name": "",
          "type": "uint256"
        }
      ],
      "stateMutability": "view",
      "type": "function"
    },
    {
      "inputs": [
        {
          "internalType": "address",
          "name": "recipient",
          "type": "address"
        },
        {
          "internalType": "uint256",
          "name": "amount",
          "type": "uint256"
        }
      ],
      "name": "transfer",
      "outputs": [
        {
          "internalType": "bool",
          "name": "",
          "type": "bool"
        }
      ],
      "stateMutability": "nonpayable",
      "type": "function"
    },
    {
      "inputs": [
        {
          "internalType": "address",
          "name": "sender",
          "type": "address"
        },
        {
          "internalType": "address",
          "name": "recipient",
          "type": "address"
        },
        {
          "internalType": "uint256",
          "name": "amount",
          "type": "uint256"
        }
      ],
      "name": "transferFrom",
      "outputs": [
        {
          "internalType": "bool",
          "name": "",
          "type": "bool"
        }
      ],
      "stateMutability": "nonpayable",
      "type": "function"
    }
  ],
  "bytecode": "0x608060405234801561001057600080fd5b5061131e806100206000396000f3fe608060405234801561001057600080fd5b50600436106100ea5760003560e01c806370a082311161008c578063a457c2d711610066578063a457c2d7146102bf578063a9059cbb146102eb578063bd3a13f614610317578063dd62ed3e14610452576100ea565b806370a082311461026557806379cc67901461028b57806395d89b41146102b7576100ea565b806323b872dd116100c857806323b872dd146101c6578063313ce567146101fc578063395093511461021a57806342966c6814610246576100ea565b806306fdde03146100ef578063095ea7b31461016c57806318160ddd146101ac575b600080fd5b6100f7610480565b6040805160208082528351818301528351919283929083019185019080838360005b83811015610131578181015183820152602001610119565b50505050905090810190601f16801561015e5780820380516001836020036101000a031916815260200191505b509250505060405180910390f35b6101986004803603604081101561018257600080fd5b506001600160a01b038135169060200135610516565b604080519115158252519081900360200190f35b6101b4610533565b60408051918252519081900360200190f35b610198600480360360608110156101dc57600080fd5b506001600160a01b03813581169160208101359091169060400135610539565b6102046105c0565b6040805160ff9092168252519081900360200190f35b6101986004803603604081101561023057600080fd5b506001600160a01b0381351690602001356105c9565b6102636004803603602081101561025c57600080fd5b5035610617565b005b6101b46004803603602081101561027b57600080fd5b50356001600160a01b031661062b565b610263600480360360408110156102a157600080fd5b506001600160a01b038135169060200135610646565b6100f76106a0565b610198600480360360408110156102d557600080fd5b506001600160a01b038135169060200135610701565b6101986004803603604081101561030157600080fd5b506001600160a01b038135169060200135610769565b6102636004803603608081101561032d57600080fd5b81019060208101813564010000000081111561034857600080fd5b82018360208201111561035a57600080fd5b8035906020019184600183028401116401000000008311171561037c57600080fd5b91908080601f01602080910402602001604051908101604052809392919081815260200183838082843760009201919091525092959493602081019350359150506401000000008111156103cf57600080fd5b8201836020820111156103e157600080fd5b8035906020019184600183028401116401000000008311171561040357600080fd5b91908080601f01602080910402602001604051908101604052809392919081815260200183838082843760009201919091525092955050823593505050602001356001600160a01b031661077d565b6101b46004803603604081101561046857600080fd5b506001600160a01b038135811691602001351661082f565b60368054604080516020601f600260001961010060018816150201909516949094049384018190048102820181019092528281526060939092909183018282801561050c5780601f106104e15761010080835404028352916020019161050c565b820191906000526020600020905b8154815290600101906020018083116104ef57829003601f168201915b5050505050905090565b600061052a61052361085a565b848461085e565b50600192915050565b60355490565b600061054684848461094a565b6105b68461055261085a565b6105b18560405180606001604052806028815260200161120e602891396001600160a01b038a1660009081526034602052604081209061059061085a565b6001600160a01b031681526020810191909152604001600020549190610aa7565b61085e565b5060019392505050565b60385460ff1690565b600061052a6105d661085a565b846105b185603460006105e761085a565b6001600160a01b03908116825260208083019390935260409182016000908120918c168152925290205490610b3e565b61062861062261085a565b82610b9f565b50565b6001600160a01b031660009081526033602052604090205490565b600061067d82604051806060016040528060248152602001611236602491396106768661067161085a565b61082f565b9190610aa7565b90506106918361068b61085a565b8361085e565b61069b8383610b9f565b505050565b60378054604080516020601f600260001961010060018816150201909516949094049384018190048102820181019092528281526060939092909183018282801561050c5780601f106104e15761010080835404028352916020019161050c565b600061052a61070e61085a565b846105b1856040518060600160405280602581526020016112c4602591396034600061073861085a565b6001600160a01b03908116825260208083019390935260409182016000908120918d16815292529020549190610aa7565b600061052a61077661085a565b848461094a565b600054610100900460ff16806107965750610796610c9b565b806107a4575060005460ff16155b6107df5760405162461bcd60e51b815260040180806020018281038252602e8152602001806111e0602e913960400191505060405180910390fd5b600054610100900460ff1615801561080a576000805460ff1961ff0019909116610100171660011790555b61081685858585610cac565b8015610828576000805461ff00191690555b5050505050565b6001600160a01b03918216600090815260346020908152604080832093909416825291909152205490565b3390565b6001600160a01b0383166108a35760405162461bcd60e51b81526004018080602001828103825260248152602001806112a06024913960400191505060405180910390fd5b6001600160a01b0382166108e85760405162461bcd60e51b81526004018080602001828103825260228152602001806111986022913960400191505060405180910390fd5b6001600160a01b03808416600081815260346020908152604080832094871680845294825291829020859055815185815291517f8c5be1e5ebec7d5bd14f71427d1e84f3dd0314c0f7b2291e5b200ac8c7c3b9259281900390910190a3505050565b6001600160a01b03831661098f5760405162461bcd60e51b815260040180806020018281038252602581526020018061127b6025913960400191505060405180910390fd5b6001600160a01b0382166109d45760405162461bcd60e51b81526004018080602001828103825260238152602001806111536023913960400191505060405180910390fd5b6109df83838361069b565b610a1c816040518060600160405280602681526020016111ba602691396001600160a01b0386166000908152603360205260409020549190610aa7565b6001600160a01b038085166000908152603360205260408082209390935590841681522054610a4b9082610b3e565b6001600160a01b0380841660008181526033602090815260409182902094909455805185815290519193928716927fddf252ad1be2c89b69c2b068fc378daa952ba7f163c4a11628f55a4df523b3ef92918290030190a3505050565b60008184841115610b365760405162461bcd60e51b81526004018080602001828103825283818151815260200191508051906020019080838360005b83811015610afb578181015183820152602001610ae3565b50505050905090810190601f168015610b285780820380516001836020036101000a031916815260200191505b509250505060405180910390fd5b505050900390565b600082820183811015610b98576040805162461bcd60e51b815260206004820152601b60248201527f536166654d6174683a206164646974696f6e206f766572666c6f770000000000604482015290519081900360640190fd5b9392505050565b6001600160a01b038216610be45760405162461bcd60e51b815260040180806020018281038252602181526020018061125a6021913960400191505060405180910390fd5b610bf08260008361069b565b610c2d81604051806060016040528060228152602001611176602291396001600160a01b0385166000908152603360205260409020549190610aa7565b6001600160a01b038316600090815260336020526040902055603554610c539082610d5f565b6035556040805182815290516000916001600160a01b038516917fddf252ad1be2c89b69c2b068fc378daa952ba7f163c4a11628f55a4df523b3ef9181900360200190a35050565b6000610ca630610dbc565b15905090565b600054610100900460ff1680610cc55750610cc5610c9b565b80610cd3575060005460ff16155b610d0e5760405162461bcd60e51b815260040180806020018281038252602e8152602001806111e0602e913960400191505060405180910390fd5b600054610100900460ff16158015610d39576000805460ff1961ff0019909116610100171660011790555b610d41610dc2565b610d4b8585610e63565b610d53610dc2565b61081685858585610f3b565b600082821115610db6576040805162461bcd60e51b815260206004820152601e60248201527f536166654d6174683a207375627472616374696f6e206f766572666c6f770000604482015290519081900360640190fd5b50900390565b3b151590565b600054610100900460ff1680610ddb5750610ddb610c9b565b80610de9575060005460ff16155b610e245760405162461bcd60e51b815260040180806020018281038252602e8152602001806111e0602e913960400191505060405180910390fd5b600054610100900460ff16158015610e4f576000805460ff1961ff0019909116610100171660011790555b8015610628576000805461ff001916905550565b600054610100900460ff1680610e7c5750610e7c610c9b565b80610e8a575060005460ff16155b610ec55760405162461bcd60e51b815260040180806020018281038252602e8152602001806111e0602e913960400191505060405180910390fd5b600054610100900460ff16158015610ef0576000805460ff1961ff0019909116610100171660011790555b8251610f039060369060208601906110bf565b508151610f179060379060208501906110bf565b506038805460ff19166012179055801561069b576000805461ff0019169055505050565b600054610100900460ff1680610f545750610f54610c9b565b80610f62575060005460ff16155b610f9d5760405162461bcd60e51b815260040180806020018281038252602e8152602001806111e0602e913960400191505060405180910390fd5b600054610100900460ff16158015610fc8576000805460ff1961ff0019909116610100171660011790555b61081682846001600160a01b038216611028576040805162461bcd60e51b815260206004820152601f60248201527f45524332303a206d696e7420746f20746865207a65726f206164647265737300604482015290519081900360640190fd5b6110346000838361069b565b6035546110419082610b3e565b6035556001600160a01b0382166000908152603360205260409020546110679082610b3e565b6001600160a01b03831660008181526033602090815260408083209490945583518581529351929391927fddf252ad1be2c89b69c2b068fc378daa952ba7f163c4a11628f55a4df523b3ef9281900390910190a35050565b828054600181600116156101000203166002900490600052602060002090601f016020900481019282601f1061110057805160ff191683800117855561112d565b8280016001018555821561112d579182015b8281111561112d578251825591602001919060010190611112565b5061113992915061113d565b5090565b5b80821115611139576000815560010161113e56fe45524332303a207472616e7366657220746f20746865207a65726f206164647265737345524332303a206275726e20616d6f756e7420657863656564732062616c616e636545524332303a20617070726f766520746f20746865207a65726f206164647265737345524332303a207472616e7366657220616d6f756e7420657863656564732062616c616e6365496e697469616c697a61626c653a20636f6e747261637420697320616c726561647920696e697469616c697a656445524332303a207472616e7366657220616d6f756e74206578636565647320616c6c6f77616e636545524332303a206275726e20616d6f756e74206578636565647320616c6c6f77616e636545524332303a206275726e2066726f6d20746865207a65726f206164647265737345524332303a207472616e736665722066726f6d20746865207a65726f206164647265737345524332303a20617070726f76652066726f6d20746865207a65726f206164647265737345524332303a2064656372656173656420616c6c6f77616e63652062656c6f77207a65726fa26469706673582212202f319ebd611f03e20417a3829e0a95734c38a9897c55a1d9d2af3e750a6421c264736f6c634300060c0033",
  "linkReferences": {},
  "deployedLinkReferences": {}
}