{
  "_format": "hh-sol-artifact-1",
  "contractName": "attemptBalanceCheck",
  "sourceName": "contracts/mocks/AttemptBalanceCheck.sol",
  "abi": [
    {
      "inputs": [
        {
          "internalType": "address",
          "name": "_token",
          "type": "address"
        },
        {
          "internalType": "address",
          "name": "_account",
          "type": "address"
        }
      ],
      "name": "attemptBalaceCheck",
      "outputs": [
        {
          "internalType": "uint256",
          "name": "",
          "type": "uint256"
        }
      ],
      "stateMutability": "nonpayable",
      "type": "function"
    }
  ],
  "bytecode": "0x608060405234801561001057600080fd5b5061011f806100206000396000f3fe6080604052348015600f57600080fd5b506004361060285760003560e01c80633068199914602d575b600080fd5b605860048036036040811015604157600080fd5b506001600160a01b0381358116916020013516606a565b60408051918252519081900360200190f35b6000826001600160a01b03166370a08231836040518263ffffffff1660e01b815260040180826001600160a01b0316815260200191505060206040518083038186803b15801560b857600080fd5b505afa15801560cb573d6000803e3d6000fd5b505050506040513d602081101560e057600080fd5b5051939250505056fea26469706673582212205330ab6d6c8c1453f9c40a92db622a4fc6fd65d67aad93332cc55ebef794b38c64736f6c634300060c0033",
  "linkReferences": {},
  "deployedLinkReferences": {}
}