{
  "_format": "hh-sol-artifact-1",
  "contractName": "SwapDeployerV1",
  "sourceName": "contracts/SwapDeployerV1.sol",
  "abi": [
    {
      "inputs": [],
      "stateMutability": "nonpayable",
      "type": "constructor"
    },
    {
      "anonymous": false,
      "inputs": [
        {
          "indexed": true,
          "internalType": "address",
          "name": "deployer",
          "type": "address"
        },
        {
          "indexed": false,
          "internalType": "address",
          "name": "swapAddress",
          "type": "address"
        },
        {
          "indexed": false,
          "internalType": "contract IERC20[]",
          "name": "pooledTokens",
          "type": "address[]"
        }
      ],
      "name": "NewSwapPool",
      "type": "event"
    },
    {
      "anonymous": false,
      "inputs": [
        {
          "indexed": true,
          "internalType": "address",
          "name": "previousOwner",
          "type": "address"
        },
        {
          "indexed": true,
          "internalType": "address",
          "name": "newOwner",
          "type": "address"
        }
      ],
      "name": "OwnershipTransferred",
      "type": "event"
    },
    {
      "inputs": [
        {
          "internalType": "address",
          "name": "swapFlashLoanAddress",
          "type": "address"
        },
        {
          "internalType": "contract IERC20[]",
          "name": "_pooledTokens",
          "type": "address[]"
        },
        {
          "internalType": "uint8[]",
          "name": "decimals",
          "type": "uint8[]"
        },
        {
          "internalType": "string",
          "name": "lpTokenName",
          "type": "string"
        },
        {
          "internalType": "string",
          "name": "lpTokenSymbol",
          "type": "string"
        },
        {
          "internalType": "uint256",
          "name": "_a",
          "type": "uint256"
        },
        {
          "internalType": "uint256",
          "name": "_fee",
          "type": "uint256"
        },
        {
          "internalType": "uint256",
          "name": "_adminFee",
          "type": "uint256"
        },
        {
          "internalType": "uint256",
          "name": "_withdrawFee",
          "type": "uint256"
        },
        {
          "internalType": "address",
          "name": "lpTokenTargetAddress",
          "type": "address"
        }
      ],
      "name": "deploy",
      "outputs": [
        {
          "internalType": "address",
          "name": "",
          "type": "address"
        }
      ],
      "stateMutability": "nonpayable",
      "type": "function"
    },
    {
      "inputs": [],
      "name": "owner",
      "outputs": [
        {
          "internalType": "address",
          "name": "",
          "type": "address"
        }
      ],
      "stateMutability": "view",
      "type": "function"
    },
    {
      "inputs": [],
      "name": "renounceOwnership",
      "outputs": [],
      "stateMutability": "nonpayable",
      "type": "function"
    },
    {
      "inputs": [
        {
          "internalType": "address",
          "name": "newOwner",
          "type": "address"
        }
      ],
      "name": "transferOwnership",
      "outputs": [],
      "stateMutability": "nonpayable",
      "type": "function"
    }
  ],
  "bytecode": "0x608060405234801561001057600080fd5b50600061001b61006a565b600080546001600160a01b0319166001600160a01b0383169081178255604051929350917f8be0079c531659141344cd1fd0a4f28419497f9722a3daafe3b4186f6b6457e0908290a35061006e565b3390565b6108e58061007d6000396000f3fe608060405234801561001057600080fd5b506004361061004c5760003560e01c8063249a41aa14610051578063715018a6146102cb5780638da5cb5b146102d5578063f2fde38b146102dd575b600080fd5b6102af600480360361014081101561006857600080fd5b6001600160a01b038235169190810190604081016020820135600160201b81111561009257600080fd5b8201836020820111156100a457600080fd5b803590602001918460208302840111600160201b831117156100c557600080fd5b9190808060200260200160405190810160405280939291908181526020018383602002808284376000920191909152509295949360208101935035915050600160201b81111561011457600080fd5b82018360208201111561012657600080fd5b803590602001918460208302840111600160201b8311171561014757600080fd5b9190808060200260200160405190810160405280939291908181526020018383602002808284376000920191909152509295949360208101935035915050600160201b81111561019657600080fd5b8201836020820111156101a857600080fd5b803590602001918460018302840111600160201b831117156101c957600080fd5b91908080601f0160208091040260200160405190810160405280939291908181526020018383808284376000920191909152509295949360208101935035915050600160201b81111561021b57600080fd5b82018360208201111561022d57600080fd5b803590602001918460018302840111600160201b8311171561024e57600080fd5b91908080601f01602080910402602001604051908101604052809392919081815260200183838082843760009201919091525092955050823593505050602081013590604081013590606081013590608001356001600160a01b0316610303565b604080516001600160a01b039092168252519081900360200190f35b6102d3610602565b005b6102af6106c0565b6102d3600480360360208110156102f357600080fd5b50356001600160a01b03166106cf565b60008061030f8c6107e3565b9050806001600160a01b031663df3ed68d8c8c8c8c8c8c8c8c8c6040518a63ffffffff1660e01b815260040180806020018060200180602001806020018a8152602001898152602001888152602001878152602001866001600160a01b0316815260200185810385528e818151815260200191508051906020019060200280838360005b838110156103ab578181015183820152602001610393565b5050505090500185810384528d818151815260200191508051906020019060200280838360005b838110156103ea5781810151838201526020016103d2565b5050505090500185810383528c818151815260200191508051906020019080838360005b8381101561042657818101518382015260200161040e565b50505050905090810190601f1680156104535780820380516001836020036101000a031916815260200191505b5085810382528b5181528b516020918201918d019080838360005b8381101561048657818101518382015260200161046e565b50505050905090810190601f1680156104b35780820380516001836020036101000a031916815260200191505b509d5050505050505050505050505050600060405180830381600087803b1580156104dd57600080fd5b505af11580156104f1573d6000803e3d6000fd5b50505050806001600160a01b031663f2fde38b61050c6106c0565b6040518263ffffffff1660e01b815260040180826001600160a01b03168152602001915050600060405180830381600087803b15801561054b57600080fd5b505af115801561055f573d6000803e3d6000fd5b50505050336001600160a01b03167f0838512b7934222cec571cf3fde1cf3e9e864bbc431bd5d1ef4d9ed3079093d9828d60405180836001600160a01b0316815260200180602001828103825283818151815260200191508051906020019060200280838360005b838110156105df5781810151838201526020016105c7565b50505050905001935050505060405180910390a29b9a5050505050505050505050565b61060a610885565b6001600160a01b031661061b6106c0565b6001600160a01b031614610676576040805162461bcd60e51b815260206004820181905260248201527f4f776e61626c653a2063616c6c6572206973206e6f7420746865206f776e6572604482015290519081900360640190fd5b600080546040516001600160a01b03909116907f8be0079c531659141344cd1fd0a4f28419497f9722a3daafe3b4186f6b6457e0908390a3600080546001600160a01b0319169055565b6000546001600160a01b031690565b6106d7610885565b6001600160a01b03166106e86106c0565b6001600160a01b031614610743576040805162461bcd60e51b815260206004820181905260248201527f4f776e61626c653a2063616c6c6572206973206e6f7420746865206f776e6572604482015290519081900360640190fd5b6001600160a01b0381166107885760405162461bcd60e51b815260040180806020018281038252602681526020018061088a6026913960400191505060405180910390fd5b600080546040516001600160a01b03808516939216917f8be0079c531659141344cd1fd0a4f28419497f9722a3daafe3b4186f6b6457e091a3600080546001600160a01b0319166001600160a01b0392909216919091179055565b6000604051733d602d80600a3d3981f3363d3d373d3d3d363d7360601b81528260601b60148201526e5af43d82803e903d91602b57fd5bf360881b60288201526037816000f09150506001600160a01b038116610880576040805162461bcd60e51b8152602060048201526016602482015275115490cc4c4d8dce8818dc99585d194819985a5b195960521b604482015290519081900360640190fd5b919050565b339056fe4f776e61626c653a206e6577206f776e657220697320746865207a65726f2061646472657373a264697066735822122003b8d27b73d36df185f0a287f616ab7dd4baffcb5ba8da1f8d9266bfe088ace264736f6c634300060c0033",
  "linkReferences": {},
  "deployedLinkReferences": {}
}