{
  "_format": "hh-sol-artifact-1",
  "contractName": "SwapUtilsV1",
  "sourceName": "contracts/SwapUtilsV1.sol",
  "abi": [
    {
      "anonymous": false,
      "inputs": [
        {
          "indexed": true,
          "internalType": "address",
          "name": "provider",
          "type": "address"
        },
        {
          "indexed": false,
          "internalType": "uint256[]",
          "name": "tokenAmounts",
          "type": "uint256[]"
        },
        {
          "indexed": false,
          "internalType": "uint256[]",
          "name": "fees",
          "type": "uint256[]"
        },
        {
          "indexed": false,
          "internalType": "uint256",
          "name": "invariant",
          "type": "uint256"
        },
        {
          "indexed": false,
          "internalType": "uint256",
          "name": "lpTokenSupply",
          "type": "uint256"
        }
      ],
      "name": "AddLiquidity",
      "type": "event"
    },
    {
      "anonymous": false,
      "inputs": [
        {
          "indexed": false,
          "internalType": "uint256",
          "name": "newAdminFee",
          "type": "uint256"
        }
      ],
      "name": "NewAdminFee",
      "type": "event"
    },
    {
      "anonymous": false,
      "inputs": [
        {
          "indexed": false,
          "internalType": "uint256",
          "name": "newSwapFee",
          "type": "uint256"
        }
      ],
      "name": "NewSwapFee",
      "type": "event"
    },
    {
      "anonymous": false,
      "inputs": [
        {
          "indexed": false,
          "internalType": "uint256",
          "name": "newWithdrawFee",
          "type": "uint256"
        }
      ],
      "name": "NewWithdrawFee",
      "type": "event"
    },
    {
      "anonymous": false,
      "inputs": [
        {
          "indexed": true,
          "internalType": "address",
          "name": "provider",
          "type": "address"
        },
        {
          "indexed": false,
          "internalType": "uint256[]",
          "name": "tokenAmounts",
          "type": "uint256[]"
        },
        {
          "indexed": false,
          "internalType": "uint256",
          "name": "lpTokenSupply",
          "type": "uint256"
        }
      ],
      "name": "RemoveLiquidity",
      "type": "event"
    },
    {
      "anonymous": false,
      "inputs": [
        {
          "indexed": true,
          "internalType": "address",
          "name": "provider",
          "type": "address"
        },
        {
          "indexed": false,
          "internalType": "uint256[]",
          "name": "tokenAmounts",
          "type": "uint256[]"
        },
        {
          "indexed": false,
          "internalType": "uint256[]",
          "name": "fees",
          "type": "uint256[]"
        },
        {
          "indexed": false,
          "internalType": "uint256",
          "name": "invariant",
          "type": "uint256"
        },
        {
          "indexed": false,
          "internalType": "uint256",
          "name": "lpTokenSupply",
          "type": "uint256"
        }
      ],
      "name": "RemoveLiquidityImbalance",
      "type": "event"
    },
    {
      "anonymous": false,
      "inputs": [
        {
          "indexed": true,
          "internalType": "address",
          "name": "provider",
          "type": "address"
        },
        {
          "indexed": false,
          "internalType": "uint256",
          "name": "lpTokenAmount",
          "type": "uint256"
        },
        {
          "indexed": false,
          "internalType": "uint256",
          "name": "lpTokenSupply",
          "type": "uint256"
        },
        {
          "indexed": false,
          "internalType": "uint256",
          "name": "boughtId",
          "type": "uint256"
        },
        {
          "indexed": false,
          "internalType": "uint256",
          "name": "tokensBought",
          "type": "uint256"
        }
      ],
      "name": "RemoveLiquidityOne",
      "type": "event"
    },
    {
      "anonymous": false,
      "inputs": [
        {
          "indexed": true,
          "internalType": "address",
          "name": "buyer",
          "type": "address"
        },
        {
          "indexed": false,
          "internalType": "uint256",
          "name": "tokensSold",
          "type": "uint256"
        },
        {
          "indexed": false,
          "internalType": "uint256",
          "name": "tokensBought",
          "type": "uint256"
        },
        {
          "indexed": false,
          "internalType": "uint128",
          "name": "soldId",
          "type": "uint128"
        },
        {
          "indexed": false,
          "internalType": "uint128",
          "name": "boughtId",
          "type": "uint128"
        }
      ],
      "name": "TokenSwap",
      "type": "event"
    },
    {
      "inputs": [],
      "name": "MAX_ADMIN_FEE",
      "outputs": [
        {
          "internalType": "uint256",
          "name": "",
          "type": "uint256"
        }
      ],
      "stateMutability": "view",
      "type": "function"
    },
    {
      "inputs": [],
      "name": "MAX_SWAP_FEE",
      "outputs": [
        {
          "internalType": "uint256",
          "name": "",
          "type": "uint256"
        }
      ],
      "stateMutability": "view",
      "type": "function"
    },
    {
      "inputs": [],
      "name": "MAX_WITHDRAW_FEE",
      "outputs": [
        {
          "internalType": "uint256",
          "name": "",
          "type": "uint256"
        }
      ],
      "stateMutability": "view",
      "type": "function"
    },
    {
      "inputs": [],
      "name": "POOL_PRECISION_DECIMALS",
      "outputs": [
        {
          "internalType": "uint8",
          "name": "",
          "type": "uint8"
        }
      ],
      "stateMutability": "view",
      "type": "function"
    },
    {
      "inputs": [],
      "name": "WITHDRAW_FEE_DECAY_TIME",
      "outputs": [
        {
          "internalType": "uint256",
          "name": "",
          "type": "uint256"
        }
      ],
      "stateMutability": "view",
      "type": "function"
    }
  ],
  "bytecode": "0x614247610026600b82828239805160001a60731461001957fe5b30600052607381538281f3fe73000000000000000000000000000000000000000030146080604052600436106101565760003560e01c806371a58329116100cd578063bb8ca1ae11610086578063bb8ca1ae146105d6578063becfcccd14610606578063cc09aa9a14610632578063d4b0de2f146105ce578063de3eac3c146106e9578063f3de03621461073257610156565b806371a58329146104ea57806373a0e73f146104f25780637d28ae92146105315780638e8b53b714610563578063a190453614610593578063ab3d8544146105ce57610156565b806348ab1a861161011f57806348ab1a861461025e5780635050b040146102e357806364f219b01461030057806367ecb955146103235780636b114d9b146103da5780636d429288146104b157610156565b8062f59a951461015b5780630296ab501461018d578063092e14e5146101ab5780632272322d146101e95780633efb4cfd14610228575b600080fd5b81801561016757600080fd5b5061018b6004803603604081101561017e57600080fd5b508035906020013561073a565b005b6101956107c3565b6040805160ff9092168252519081900360200190f35b6101d7600480360360408110156101c157600080fd5b50803590602001356001600160a01b03166107c8565b60408051918252519081900360200190f35b8180156101f557600080fd5b5061018b6004803603606081101561020c57600080fd5b508035906001600160a01b0360208201351690604001356107ea565b6101d76004803603608081101561023e57600080fd5b5080359060ff602082013581169160408101359091169060600135610954565b6101d76004803603608081101561027457600080fd5b8135916001600160a01b0360208201351691810190606081016040820135600160201b8111156102a357600080fd5b8201836020820111156102b557600080fd5b803590602001918460208302840111600160201b831117156102d657600080fd5b91935091503515156109bf565b6101d7600480360360208110156102f957600080fd5b5035610c65565b6101d76004803603604081101561031657600080fd5b5080359060200135610d3c565b81801561032f57600080fd5b506101d76004803603606081101561034657600080fd5b81359190810190604081016020820135600160201b81111561036757600080fd5b82018360208201111561037957600080fd5b803590602001918460208302840111600160201b8311171561039a57600080fd5b9190808060200260200160405190810160405280939291908181526020018383602002808284376000920191909152509295505091359250610e46915050565b8180156103e657600080fd5b50610461600480360360608110156103fd57600080fd5b813591602081013591810190606081016040820135600160201b81111561042357600080fd5b82018360208201111561043557600080fd5b803590602001918460208302840111600160201b8311171561045657600080fd5b5090925090506116f7565b60408051602080825283518183015283519192839290830191858101910280838360005b8381101561049d578181015183820152602001610485565b505050509050019250505060405180910390f35b8180156104bd57600080fd5b5061018b600480360360408110156104d457600080fd5b50803590602001356001600160a01b0316611bc3565b6101d7611d50565b8180156104fe57600080fd5b506101d76004803603608081101561051557600080fd5b5080359060208101359060ff6040820135169060600135611d55565b6104616004803603606081101561054757600080fd5b508035906001600160a01b03602082013516906040013561215e565b81801561056f57600080fd5b5061018b6004803603604081101561058657600080fd5b508035906020013561223a565b6101d7600480360360808110156105a957600080fd5b5080359060208101356001600160a01b0316906040810135906060013560ff166122c4565b6101d761235a565b8180156105e257600080fd5b5061018b600480360360408110156105f957600080fd5b5080359060200135612362565b6101d76004803603604081101561061c57600080fd5b50803590602001356001600160a01b03166123eb565b81801561063e57600080fd5b506101d76004803603606081101561065557600080fd5b81359190810190604081016020820135600160201b81111561067657600080fd5b82018360208201111561068857600080fd5b803590602001918460208302840111600160201b831117156106a957600080fd5b91908080602002602001604051908101604052809392919081815260200183836020028082843760009201919091525092955050913592506123f7915050565b8180156106f557600080fd5b506101d7600480360360a081101561070c57600080fd5b5080359060ff602082013581169160408101359091169060608101359060800135612bea565b6101d761308d565b6305f5e100811115610785576040805162461bcd60e51b815260206004820152600f60248201526e08ccaca40d2e640e8dede40d0d2ced608b1b604482015290519081900360640190fd5b600682018190556040805182815290517fd5fe46099fa396290a7f57e36c3c3c8774e2562c18ed5d1dcc0fa75071e03f1d9181900360200190a15050565b601281565b6001600160a01b0381166000908152600b830160205260409020545b92915050565b6001600160a01b0382166107fd5761094f565b600683015461082d576001600160a01b0382166000908152600c8401602052604090206402540be4009055610931565b60006108398484613096565b6007850154604080516370a0823160e01b81526001600160a01b038781166004830152915193945060009391909216916370a08231916024808301926020929190829003018186803b15801561088e57600080fd5b505afa1580156108a2573d6000803e3d6000fd5b505050506040513d60208110156108b857600080fd5b50516006860154909150610913906108da906108d48685613138565b90613192565b61090d6402540be4006108d46108fd8a600601548961319290919063ffffffff16565b6109078789613192565b90613138565b906131eb565b6001600160a01b0385166000908152600c8701602052604090205550505b6001600160a01b0382166000908152600b8401602052604090204290555b505050565b60006109b58585858589600a018054806020026020016040519081016040528092919081815260200182805480156109ab57602002820191906000526020600020905b815481526020019060010190808311610997575b5050505050613252565b5095945050505050565b6000806109cb876133f5565b9050606087600a01805480602002602001604051908101604052809291908181526020018280548015610a1d57602002820191906000526020600020905b815481526020019060010190808311610a09575b50505050509050606088600901805480602002602001604051908101604052809291908181526020018280548015610a7457602002820191906000526020600020905b815481526020019060010190808311610a60575b505050505090506000610a90610a8a8484613400565b856134f7565b905060005b8351811015610b6c578615610af957610adc898983818110610ab357fe5b90506020020135858381518110610ac657fe5b602002602001015161313890919063ffffffff16565b848281518110610ae857fe5b602002602001018181525050610b64565b610b4b898983818110610b0857fe5b905060200201356040518060600160405280602381526020016141ef60239139868481518110610b3457fe5b60200260200101516136539092919063ffffffff16565b848281518110610b5757fe5b6020026020010181815250505b600101610a95565b506000610b82610b7c8585613400565b866134f7565b905060008b60070160009054906101000a90046001600160a01b03166001600160a01b03166318160ddd6040518163ffffffff1660e01b815260040160206040518083038186803b158015610bd657600080fd5b505afa158015610bea573d6000803e3d6000fd5b505050506040513d6020811015610c0057600080fd5b505190508715610c2957610c1c8361090d836108d486846136ea565b9650505050505050610c5c565b610c1c610c45610c398e8e613096565b6402540be400906136ea565b61090d6402540be4006108d487838783838b6136ea565b95945050505050565b600080610c82610c7484613747565b610c7d856133f5565b6134f7565b905060008360070160009054906101000a90046001600160a01b031690506000816001600160a01b03166318160ddd6040518163ffffffff1660e01b815260040160206040518083038186803b158015610cdb57600080fd5b505afa158015610cef573d6000803e3d6000fd5b505050506040513d6020811015610d0557600080fd5b505190508015610d2f57610d258161090d85670de0b6b3a7640000613192565b9350505050610d37565b600093505050505b919050565b60088201546000908210610d92576040805162461bcd60e51b8152602060048201526018602482015277546f6b656e20696e646578206f7574206f662072616e676560401b604482015290519081900360640190fd5b610e3f83600a018381548110610da457fe5b9060005260206000200154846008018481548110610dbe57fe5b60009182526020918290200154604080516370a0823160e01b815230600482015290516001600160a01b03909216926370a0823192602480840193829003018186803b158015610e0d57600080fd5b505afa158015610e21573d6000803e3d6000fd5b505050506040513d6020811015610e3757600080fd5b5051906136ea565b9392505050565b6000606084600801805480602002602001604051908101604052809291908181526020018280548015610ea257602002820191906000526020600020905b81546001600160a01b03168152600190910190602001808311610e84575b505050505090508051845114610eff576040805162461bcd60e51b815260206004820181905260248201527f416d6f756e7473206d757374206d6174636820706f6f6c656420746f6b656e73604482015290519081900360640190fd5b610f076140f0565b604051806101000160405280600081526020016000815260200160008152602001610f31886133f5565b81526020018760070160009054906101000a90046001600160a01b03166001600160a01b031681526020016000815260200187600a01805480602002602001604051908101604052809291908181526020018280548015610fb157602002820191906000526020600020905b815481526020019060010190808311610f9d575b505050505081526020018760090180548060200260200160405190810160405280929190818152602001828054801561100957602002820191906000526020600020905b815481526020019060010190808311610ff5575b5050505050815250905080608001516001600160a01b03166318160ddd6040518163ffffffff1660e01b815260040160206040518083038186803b15801561105057600080fd5b505afa158015611064573d6000803e3d6000fd5b505050506040513d602081101561107a57600080fd5b505160a08201819052156110aa576110a761109d8260c001518360e00151613400565b82606001516134f7565b81525b6060825167ffffffffffffffff811180156110c457600080fd5b506040519080825280602002602001820160405280156110ee578160200160208202803683370190505b50905060005b835181101561128f5760a08301511515806111225750600087828151811061111857fe5b6020026020010151115b611173576040805162461bcd60e51b815260206004820152601e60248201527f4d75737420737570706c7920616c6c20746f6b656e7320696e20706f6f6c0000604482015290519081900360640190fd5b86818151811061117f57fe5b60200260200101516000146112495783818151811061119a57fe5b60200260200101516001600160a01b03166323b872dd33308a85815181106111be57fe5b60200260200101516040518463ffffffff1660e01b815260040180846001600160a01b03168152602001836001600160a01b031681526020018281526020019350505050602060405180830381600087803b15801561121c57600080fd5b505af1158015611230573d6000803e3d6000fd5b505050506040513d602081101561124657600080fd5b50505b61127087828151811061125857fe5b60200260200101518460c001518381518110610ac657fe5b82828151811061127c57fe5b60209081029190910101526001016110f4565b506112ab6112a1828460e00151613400565b83606001516134f7565b602083018190528251106112fa576040805162461bcd60e51b8152602060048201526011602482015270442073686f756c6420696e63726561736560781b604482015290519081900360640190fd5b60208201516040830152825160609067ffffffffffffffff8111801561131f57600080fd5b50604051908082528060200260200182016040528015611349578160200160208202803683370190505b5090508260a001516000146114e1576000611369896004015486516137f7565b905060005b85518110156114ba5760006113af866000015161090d8860c00151858151811061139457fe5b6020026020010151896020015161319290919063ffffffff16565b90506113ea6402540be40061090d6113e38886815181106113cc57fe5b60200260200101518561381690919063ffffffff16565b8690613192565b8483815181106113f657fe5b60200260200101818152505061145a6114386402540be40061090d8e6005015488878151811061142257fe5b602002602001015161319290919063ffffffff16565b86848151811061144457fe5b60200260200101516136ea90919063ffffffff16565b8b600a01838154811061146957fe5b906000526020600020018190555061149a84838151811061148657fe5b602002602001015186848151811061144457fe5b8583815181106114a657fe5b60209081029190910101525060010161136e565b506114d66114cc848660e00151613400565b85606001516134f7565b6040850152506114f8565b81516114f690600a8a0190602085019061413e565b505b60008360a001516000141561151257506020830151611534565b835160a08501516040860151611531929161090d916108d490846136ea565b90505b86811015611589576040805162461bcd60e51b815260206004820152601b60248201527f436f756c646e2774206d696e74206d696e207265717565737465640000000000604482015290519081900360640190fd5b83608001516001600160a01b03166340c10f1933836040518363ffffffff1660e01b815260040180836001600160a01b0316815260200182815260200192505050600060405180830381600087803b1580156115e457600080fd5b505af11580156115f8573d6000803e3d6000fd5b50505050336001600160a01b03167f189c623b666b1b45b83d7178f39b8c087cb09774317ca2f53c2d3c3726f222a289848760200151611645868a60a0015161313890919063ffffffff16565b604051808060200180602001858152602001848152602001838103835287818151815260200191508051906020019060200280838360005b8381101561169557818101518382015260200161167d565b50505050905001838103825286818151815260200191508051906020019060200280838360005b838110156116d45781810151838201526020016116bc565b50505050905001965050505050505060405180910390a298975050505050505050565b6007840154600885018054604080516020808402820181019092528281526060946001600160a01b0316938593919290919083018282801561176257602002820191906000526020600020905b81546001600160a01b03168152600190910190602001808311611744575b50505050509050816001600160a01b03166370a08231336040518263ffffffff1660e01b815260040180826001600160a01b0316815260200191505060206040518083038186803b1580156117b657600080fd5b505afa1580156117ca573d6000803e3d6000fd5b505050506040513d60208110156117e057600080fd5b5051861115611826576040805162461bcd60e51b815260206004820152600d60248201526c1f2628173130b630b731b2a7b360991b604482015290519081900360640190fd5b8051841461187b576040805162461bcd60e51b815260206004820181905260248201527f6d696e416d6f756e7473206d757374206d6174636820706f6f6c546f6b656e73604482015290519081900360640190fd5b606087600a018054806020026020016040519081016040528092919081815260200182805480156118cb57602002820191906000526020600020905b8154815260200190600101908083116118b7575b505050505090506000836001600160a01b03166318160ddd6040518163ffffffff1660e01b815260040160206040518083038186803b15801561190d57600080fd5b505afa158015611921573d6000803e3d6000fd5b505050506040513d602081101561193757600080fd5b50519050606061194a8a84338c8661382e565b905060005b8151811015611ac35788888281811061196457fe5b9050602002013582828151811061197757fe5b602002602001015110156119d2576040805162461bcd60e51b815260206004820152601a60248201527f616d6f756e74735b695d203c206d696e416d6f756e74735b695d000000000000604482015290519081900360640190fd5b6119f58282815181106119e157fe5b602002602001015185838151811061144457fe5b8b600a018281548110611a0457fe5b9060005260206000200181905550848181518110611a1e57fe5b60200260200101516001600160a01b031663a9059cbb33848481518110611a4157fe5b60200260200101516040518363ffffffff1660e01b815260040180836001600160a01b0316815260200182815260200192505050602060405180830381600087803b158015611a8f57600080fd5b505af1158015611aa3573d6000803e3d6000fd5b505050506040513d6020811015611ab957600080fd5b505060010161194f565b506040805163079cc67960e41b8152336004820152602481018b905290516001600160a01b038716916379cc679091604480830192600092919082900301818387803b158015611b1257600080fd5b505af1158015611b26573d6000803e3d6000fd5b503392507f88d38ed598fdd809c2bf01ee49cd24b7fdabf379a83d29567952b60324d58cef9150839050611b5a858d6136ea565b6040518080602001838152602001828103825284818151815260200191508051906020019060200280838360005b83811015611ba0578181015183820152602001611b88565b50505050905001935050505060405180910390a29450505050505b949350505050565b606082600801805480602002602001604051908101604052809291908181526020018280548015611c1d57602002820191906000526020600020905b81546001600160a01b03168152600190910190602001808311611bff575b5050505050905060005b8151811015611d4a576000828281518110611c3e57fe5b602002602001015190506000611cb486600a018481548110611c5c57fe5b9060005260206000200154836001600160a01b03166370a08231306040518263ffffffff1660e01b815260040180826001600160a01b0316815260200191505060206040518083038186803b158015610e0d57600080fd5b90508015611d4057816001600160a01b031663a9059cbb86836040518363ffffffff1660e01b815260040180836001600160a01b0316815260200182815260200192505050602060405180830381600087803b158015611d1357600080fd5b505af1158015611d27573d6000803e3d6000fd5b505050506040513d6020811015611d3d57600080fd5b50505b5050600101611c27565b50505050565b600081565b6007840154600885018054604080516020808402820181019092528281526000946001600160a01b0316936060939192909190830182828015611dc157602002820191906000526020600020905b81546001600160a01b03168152600190910190602001808311611da3575b50505050509050816001600160a01b03166370a08231336040518263ffffffff1660e01b815260040180826001600160a01b0316815260200191505060206040518083038186803b158015611e1557600080fd5b505afa158015611e29573d6000803e3d6000fd5b505050506040513d6020811015611e3f57600080fd5b5051861115611e85576040805162461bcd60e51b815260206004820152600d60248201526c1f2628173130b630b731b2a7b360991b604482015290519081900360640190fd5b80518560ff1610611ecf576040805162461bcd60e51b815260206004820152600f60248201526e151bdad95b881b9bdd08199bdd5b99608a1b604482015290519081900360640190fd5b6000826001600160a01b03166318160ddd6040518163ffffffff1660e01b815260040160206040518083038186803b158015611f0a57600080fd5b505afa158015611f1e573d6000803e3d6000fd5b505050506040513d6020811015611f3457600080fd5b50519050600080611f488a338b8b8761393b565b9150915086821015611f92576040805162461bcd60e51b815260206004820152600e60248201526d191e480f081b5a5b905b5bdd5b9d60921b604482015290519081900360640190fd5b611fea611fbf611fb86402540be40061090d8e600501548661319290919063ffffffff16565b8490613138565b8b600a018a60ff1681548110611fd157fe5b90600052602060002001546136ea90919063ffffffff16565b8a600a018960ff1681548110611ffc57fe5b60009182526020822001919091556040805163079cc67960e41b8152336004820152602481018c905290516001600160a01b038816926379cc6790926044808201939182900301818387803b15801561205457600080fd5b505af1158015612068573d6000803e3d6000fd5b50505050838860ff168151811061207b57fe5b60200260200101516001600160a01b031663a9059cbb33846040518363ffffffff1660e01b815260040180836001600160a01b0316815260200182815260200192505050602060405180830381600087803b1580156120d957600080fd5b505af11580156120ed573d6000803e3d6000fd5b505050506040513d602081101561210357600080fd5b5050604080518a81526020810185905260ff8a168183015260608101849052905133917f43fb02998f4e03da2e0e6fff53fdbf0c40a9f45f145dc377fc30615d7d7a8a64919081900360800190a25098975050505050505050565b6060611bbb8485600a018054806020026020016040519081016040528092919081815260200182805480156121b257602002820191906000526020600020905b81548152602001906001019080831161219e575b505050505085858860070160009054906101000a90046001600160a01b03166001600160a01b03166318160ddd6040518163ffffffff1660e01b815260040160206040518083038186803b15801561220957600080fd5b505afa15801561221d573d6000803e3d6000fd5b505050506040513d602081101561223357600080fd5b505161382e565b6402540be400811115612286576040805162461bcd60e51b815260206004820152600f60248201526e08ccaca40d2e640e8dede40d0d2ced608b1b604482015290519081900360640190fd5b600582018190556040805182815290517fab599d640ca80cde2b09b128a4154a8dfe608cb80f4c9399c8b954b01fd35f389181900360200190a15050565b60008061234f868686868a60070160009054906101000a90046001600160a01b03166001600160a01b03166318160ddd6040518163ffffffff1660e01b815260040160206040518083038186803b15801561231e57600080fd5b505afa158015612332573d6000803e3d6000fd5b505050506040513d602081101561234857600080fd5b505161393b565b509695505050505050565b6305f5e10081565b6305f5e1008111156123ad576040805162461bcd60e51b815260206004820152600f60248201526e08ccaca40d2e640e8dede40d0d2ced608b1b604482015290519081900360640190fd5b600482018190556040805182815290517fd88ea5155021c6f8dafa1a741e173f595cdf77ce7c17d43342131d7f06afdfe59181900360200190a15050565b6000610e3f8383613096565b60006124016140f0565b60405180610100016040528060008152602001600081526020016000815260200161242b876133f5565b81526020018660070160009054906101000a90046001600160a01b03166001600160a01b031681526020016000815260200186600a018054806020026020016040519081016040528092919081815260200182805480156124ab57602002820191906000526020600020905b815481526020019060010190808311612497575b505050505081526020018660090180548060200260200160405190810160405280929190818152602001828054801561250357602002820191906000526020600020905b8154815260200190600101908083116124ef575b5050505050815250905080608001516001600160a01b03166318160ddd6040518163ffffffff1660e01b815260040160206040518083038186803b15801561254a57600080fd5b505afa15801561255e573d6000803e3d6000fd5b505050506040513d602081101561257457600080fd5b505160a082015260088501805460408051602083810282018101909252828152606093909290918301828280156125d457602002820191906000526020600020905b81546001600160a01b031681526001909101906020018083116125b6575b505050505090508051855114612631576040805162461bcd60e51b815260206004820181905260248201527f416d6f756e74732073686f756c64206d6174636820706f6f6c20746f6b656e73604482015290519081900360640190fd5b81608001516001600160a01b03166370a08231336040518263ffffffff1660e01b815260040180826001600160a01b0316815260200191505060206040518083038186803b15801561268257600080fd5b505afa158015612696573d6000803e3d6000fd5b505050506040513d60208110156126ac57600080fd5b505184118015906126bc57508315155b6126fd576040805162461bcd60e51b815260206004820152600d60248201526c1f2628173130b630b731b2a7b360991b604482015290519081900360640190fd5b600061270e876004015483516137f7565b90506060825167ffffffffffffffff8111801561272a57600080fd5b50604051908082528060200260200182016040528015612754578160200160208202803683370190505b5090506060835167ffffffffffffffff8111801561277157600080fd5b5060405190808252806020026020018201604052801561279b578160200160208202803683370190505b5090506127bd6127b38660c001518760e00151613400565b86606001516134f7565b855260005b845181101561282a5761280b8982815181106127da57fe5b60200260200101516040518060600160405280602381526020016141ef602391398860c001518481518110610b3457fe5b82828151811061281757fe5b60209081029190910101526001016127c2565b5061283c6127b3828760e00151613400565b602086015260005b8451811015612969576000612885876000015161090d8960c00151858151811061286a57fe5b60200260200101518a6020015161319290919063ffffffff16565b905060006128af84848151811061289857fe5b60200260200101518361381690919063ffffffff16565b90506128c46402540be40061090d8884613192565b8584815181106128d057fe5b6020026020010181815250506129086128fc6402540be40061090d8f6005015489888151811061142257fe5b85858151811061144457fe5b8c600a01848154811061291757fe5b906000526020600020018190555061294885848151811061293457fe5b602002602001015185858151811061144457fe5b84848151811061295457fe5b60209081029190910101525050600101612844565b5061297b6127b3828760e00151613400565b60408601819052855160a0870151600093506129a19261090d91906108d49084906136ea565b9050806129f5576040805162461bcd60e51b815260206004820152601b60248201527f4275726e7420616d6f756e742063616e6e6f74206265207a65726f0000000000604482015290519081900360640190fd5b612a19612a05610c398b33613096565b61090d6402540be4006108d4856001613138565b905086811115612a70576040805162461bcd60e51b815260206004820152601b60248201527f746f6b656e416d6f756e74203e206d61784275726e416d6f756e740000000000604482015290519081900360640190fd5b84608001516001600160a01b03166379cc679033836040518363ffffffff1660e01b815260040180836001600160a01b0316815260200182815260200192505050600060405180830381600087803b158015612acb57600080fd5b505af1158015612adf573d6000803e3d6000fd5b5050505060005b8451811015612ba057848181518110612afb57fe5b60200260200101516001600160a01b031663a9059cbb338b8481518110612b1e57fe5b60200260200101516040518363ffffffff1660e01b815260040180836001600160a01b0316815260200182815260200192505050602060405180830381600087803b158015612b6c57600080fd5b505af1158015612b80573d6000803e3d6000fd5b505050506040513d6020811015612b9657600080fd5b5050600101612ae6565b50336001600160a01b03167f3631c28b1f9dd213e0319fb167b554d76b6c283a41143eb400a0d1adb1af175589848860200151611645868b60a001516136ea90919063ffffffff16565b600080866008018660ff1681548110612bff57fe5b60009182526020918290200154604080516370a0823160e01b815233600482015290516001600160a01b03909216935083926370a0823192602480840193829003018186803b158015612c5157600080fd5b505afa158015612c65573d6000803e3d6000fd5b505050506040513d6020811015612c7b57600080fd5b5051841115612cd1576040805162461bcd60e51b815260206004820152601d60248201527f43616e6e6f742073776170206d6f7265207468616e20796f75206f776e000000604482015290519081900360640190fd5b6000816001600160a01b03166370a08231306040518263ffffffff1660e01b815260040180826001600160a01b0316815260200191505060206040518083038186803b158015612d2057600080fd5b505afa158015612d34573d6000803e3d6000fd5b505050506040513d6020811015612d4a57600080fd5b5051604080516323b872dd60e01b81523360048201523060248201526044810188905290519192506001600160a01b038416916323b872dd916064808201926020929091908290030181600087803b158015612da557600080fd5b505af1158015612db9573d6000803e3d6000fd5b505050506040513d6020811015612dcf57600080fd5b5050604080516370a0823160e01b81523060048201529051612e1d9183916001600160a01b038616916370a08231916024808301926020929190829003018186803b158015610e0d57600080fd5b94505050600080606088600a01805480602002602001604051908101604052809291908181526020018280548015612e7457602002820191906000526020600020905b815481526020019060010190808311612e60575b50505050509050612e888989898985613252565b909350915084831015612ee2576040805162461bcd60e51b815260206004820181905260248201527f53776170206469646e277420726573756c7420696e206d696e20746f6b656e73604482015290519081900360640190fd5b6000612f248a6009018960ff1681548110612ef957fe5b906000526020600020015461090d6402540be40061090d8e600501548861319290919063ffffffff16565b9050612f3987838b60ff1681518110610ac657fe5b8a600a018a60ff1681548110612f4b57fe5b9060005260206000200181905550612f7681612f7086858c60ff168151811061144457fe5b906136ea565b8a600a018960ff1681548110612f8857fe5b9060005260206000200181905550896008018860ff1681548110612fa857fe5b60009182526020808320909101546040805163a9059cbb60e01b81523360048201526024810189905290516001600160a01b039092169363a9059cbb9360448084019491939192918390030190829087803b15801561300657600080fd5b505af115801561301a573d6000803e3d6000fd5b505050506040513d602081101561303057600080fd5b5050604080518881526020810186905260ff808c16828401528a166060820152905133917fc6c1e0630dbe9130cc068028486c0d118ddcea348550819defd5cb8c257f8a38919081900360800190a2509198975050505050505050565b6402540be40081565b6001600160a01b0381166000908152600b8301602052604081205481906130bd9082613138565b90504281111561312e5760006130d382426136ea565b90506131256402540be40061090d600061090d856108d48b600c0160008c6001600160a01b03166001600160a01b03168152602001908152602001600020548c6006015461319290919063ffffffff16565b925050506107e4565b5060009392505050565b600082820183811015610e3f576040805162461bcd60e51b815260206004820152601b60248201527f536166654d6174683a206164646974696f6e206f766572666c6f770000000000604482015290519081900360640190fd5b6000826131a1575060006107e4565b828202828482816131ae57fe5b0414610e3f5760405162461bcd60e51b81526004018080602001828103825260218152602001806141ce6021913960400191505060405180910390fd5b6000808211613241576040805162461bcd60e51b815260206004820152601a60248201527f536166654d6174683a206469766973696f6e206279207a65726f000000000000604482015290519081900360640190fd5b81838161324a57fe5b049392505050565b6000806060876009018054806020026020016040519081016040528092919081815260200182805480156132a557602002820191906000526020600020905b815481526020019060010190808311613291575b5050505050905060606132b88583613400565b905080518860ff161080156132d0575080518760ff16105b61331c576040805162461bcd60e51b8152602060048201526018602482015277546f6b656e20696e646578206f7574206f662072616e676560401b604482015290519081900360640190fd5b6000613361828a60ff168151811061333057fe5b6020026020010151610907858c60ff168151811061334a57fe5b60200260200101518a61319290919063ffffffff16565b9050600061337a6133718c6133f5565b8b8b85876139b7565b90506133946001612f7083868d60ff168151811061144457fe5b95506133b66402540be40061090d8d600401548961319290919063ffffffff16565b94506133e5848a60ff16815181106133ca57fe5b602002602001015161090d87896136ea90919063ffffffff16565b9550505050509550959350505050565b60006107e482613bf6565b8151815160609190811461345b576040805162461bcd60e51b815260206004820152601f60248201527f42616c616e636573206d757374206d61746368206d756c7469706c6965727300604482015290519081900360640190fd5b60608167ffffffffffffffff8111801561347457600080fd5b5060405190808252806020026020018201604052801561349e578160200160208202803683370190505b50905060005b828110156134ee576134cf8582815181106134bb57fe5b602002602001015187838151811061142257fe5b8282815181106134db57fe5b60209081029190910101526001016134a4565b50949350505050565b815160009081805b828110156135375761352d86828151811061351657fe5b60200260200101518361313890919063ffffffff16565b91506001016134ff565b5080613548576000925050506107e4565b600081816135568786613192565b905060005b61010081101561360f578260005b878110156135985761358e613584898d848151811061142257fe5b61090d8488613192565b9150600101613569565b5092935083926135e66135c66135b3836108d48b6001613138565b610907606461090d896108d48a846136ea565b61090d866108d46135d7868d613192565b610907606461090d8b8f613192565b93506135f28486613c8b565b1561360657839750505050505050506107e4565b5060010161355b565b506040805162461bcd60e51b81526020600482015260136024820152724420646f6573206e6f7420636f6e766572676560681b604482015290519081900360640190fd5b600081848411156136e25760405162461bcd60e51b81526004018080602001828103825283818151815260200191508051906020019080838360005b838110156136a757818101518382015260200161368f565b50505050905090810190601f1680156136d45780820380516001836020036101000a031916815260200191505b509250505060405180910390fd5b505050900390565b600082821115613741576040805162461bcd60e51b815260206004820152601e60248201527f536166654d6174683a207375627472616374696f6e206f766572666c6f770000604482015290519081900360640190fd5b50900390565b60606107e482600a0180548060200260200160405190810160405280929190818152602001828054801561379a57602002820191906000526020600020905b815481526020019060010190808311613786575b5050505050836009018054806020026020016040519081016040528092919081815260200182805480156137ed57602002820191906000526020600020905b8154815260200190600101908083116137d9575b5050505050613400565b6000610e3f61380c60046108d48560016136ea565b61090d8585613192565b60008183111561382957508082036107e4565b500390565b606081831115613885576040805162461bcd60e51b815260206004820152601a60248201527f43616e6e6f742065786365656420746f74616c20737570706c79000000000000604482015290519081900360640190fd5b60006138a76402540be40061090d6138a0610c398b8a613096565b8790613192565b90506060865167ffffffffffffffff811180156138c357600080fd5b506040519080825280602002602001820160405280156138ed578160200160208202803683370190505b50905060005b875181101561392f576139108561090d858b858151811061142257fe5b82828151811061391c57fe5b60209081029190910101526001016138f3565b50979650505050505050565b600080600080600061394f8a888a89613ca2565b809350819450829550505050600061398c84612f708d6009018b60ff168154811061397657fe5b60009182526020909120015461090d86886136ea565b90506139a76402540be40061090d6138a0610c398f8f613096565b9b909a5098505050505050505050565b805160009060ff8681169086161415613a17576040805162461bcd60e51b815260206004820152601d60248201527f43616e277420636f6d7061726520746f6b656e20746f20697473656c66000000604482015290519081900360640190fd5b808660ff16108015613a2b5750808560ff16105b613a75576040805162461bcd60e51b8152602060048201526016602482015275151bdad95b9cc81b5d5cdd081899481a5b881c1bdbdb60521b604482015290519081900360640190fd5b6000613a8184896134f7565b905080600080613a91858c613192565b90506000805b86811015613b0a578b60ff16811415613ab257899150613adc565b8a60ff168114613ad757888181518110613ac857fe5b60200260200101519150613adc565b613b02565b613ae68483613138565b9350613aff613af58389613192565b61090d8789613192565b94505b600101613a97565b50613b27613b188388613192565b61090d60646108d4888a613192565b93506000613b44613b3d8461090d896064613192565b8590613138565b9050600086815b610100811015613ba8579091508190613b7e613b708a612f7087610907876002613192565b61090d8a6109078680613192565b9150613b8a8284613c8b565b15613ba057509850610c5c975050505050505050565b600101613b4b565b506040805162461bcd60e51b815260206004820152601e60248201527f417070726f78696d6174696f6e20646964206e6f7420636f6e76657267650000604482015290519081900360640190fd5b600381015460018201546000919042821115613c82576002840154845480831115613c5457613c49613c42613c2b86856136ea565b61090d613c3842876136ea565b6108d488876136ea565b8290613138565b945050505050610d37565b613c49613c7b613c6486856136ea565b61090d613c7142876136ea565b6108d486896136ea565b82906136ea565b9150610d379050565b60006001613c998484613816565b11159392505050565b60008060006060613cb288613747565b905080518760ff1610613d07576040805162461bcd60e51b8152602060048201526018602482015277546f6b656e20696e646578206f7574206f662072616e676560401b604482015290519081900360640190fd5b613d0f614189565b6040518060a001604052806000815260200160008152602001600081526020016000815260200160008152509050613d46896133f5565b60808201819052613d589083906134f7565b808252613d7890613d7090889061090d908b90613192565b8251906136ea565b60208201528151829060ff8a16908110613d8e57fe5b6020026020010151871115613dea576040805162461bcd60e51b815260206004820152601a60248201527f5769746864726177206578636565647320617661696c61626c65000000000000604482015290519081900360640190fd5b613dfe816080015189848460200151613f98565b6040820152815160609067ffffffffffffffff81118015613e1e57600080fd5b50604051908082528060200260200182016040528015613e48578160200160208202803683370190505b509050613e5a8a6004015484516137f7565b606083015260005b8351811015613f0e576000848281518110613e7957fe5b60200260200101519050613eee613c7b6402540be40061090d87606001518f60ff168714613ec757885160208a0151613ec291613ebb9161090d908a90613192565b87906136ea565b6108d4565b6108d48960400151612f708b6000015161090d8d602001518b61319290919063ffffffff16565b838381518110613efa57fe5b602090810291909101015250600101613e62565b506000613f37613f2884608001518c858760200151613f98565b838c60ff168151811061144457fe5b9050613f658b6009018b60ff1681548110613f4e57fe5b60009182526020909120015461090d8360016136ea565b9050808360400151858c60ff1681518110613f7c57fe5b6020026020010151965096509650505050509450945094915050565b815160009060ff85168111613fe6576040805162461bcd60e51b815260206004820152600f60248201526e151bdad95b881b9bdd08199bdd5b99608a1b604482015290519081900360640190fd5b82600080613ff48985613192565b905060005b8481101561405b578860ff1681146140535761403188828151811061401a57fe5b60200260200101518461313890919063ffffffff16565b9250614050614046868a848151811061142257fe5b61090d868a613192565b93505b600101613ff9565b506140786140698286613192565b61090d60646108d4878b613192565b9250600061408e611fb88361090d8a6064613192565b9050600087815b610100811015613ba85790915081906140c86140ba8b612f7087610907876002613192565b61090d896109078680613192565b91506140d48284613c8b565b156140e857509650611bbb95505050505050565b600101614095565b6040518061010001604052806000815260200160008152602001600081526020016000815260200160006001600160a01b031681526020016000815260200160608152602001606081525090565b828054828255906000526020600020908101928215614179579160200282015b8281111561417957825182559160200191906001019061415e565b506141859291506141b8565b5090565b6040518060a0016040528060008152602001600081526020016000815260200160008152602001600081525090565b5b8082111561418557600081556001016141b956fe536166654d6174683a206d756c7469706c69636174696f6e206f766572666c6f7743616e6e6f74207769746864726177206d6f7265207468616e20617661696c61626c65a2646970667358221220cf71c3f652127bc6343b39453ea2c9cdb02ac1bef641df536a57cc792dff876564736f6c634300060c0033",
  "linkReferences": {},
  "deployedLinkReferences": {}
}