{
  "_format": "hh-sol-artifact-1",
  "contractName": "__unstable__ERC20OwnedUpgradeableWithInit",
  "sourceName": "contracts/contracts-upgradeable-v3_4/mocks/WithInit.sol",
  "abi": [
    {
      "inputs": [
        {
          "internalType": "string",
          "name": "name",
          "type": "string"
        },
        {
          "internalType": "string",
          "name": "symbol",
          "type": "string"
        }
      ],
      "stateMutability": "payable",
      "type": "constructor"
    },
    {
      "anonymous": false,
      "inputs": [
        {
          "indexed": true,
          "internalType": "address",
          "name": "owner",
          "type": "address"
        },
        {
          "indexed": true,
          "internalType": "address",
          "name": "spender",
          "type": "address"
        },
        {
          "indexed": false,
          "internalType": "uint256",
          "name": "value",
          "type": "uint256"
        }
      ],
      "name": "Approval",
      "type": "event"
    },
    {
      "anonymous": false,
      "inputs": [
        {
          "indexed": true,
          "internalType": "address",
          "name": "previousOwner",
          "type": "address"
        },
        {
          "indexed": true,
          "internalType": "address",
          "name": "newOwner",
          "type": "address"
        }
      ],
      "name": "OwnershipTransferred",
      "type": "event"
    },
    {
      "anonymous": false,
      "inputs": [
        {
          "indexed": true,
          "internalType": "address",
          "name": "from",
          "type": "address"
        },
        {
          "indexed": true,
          "internalType": "address",
          "name": "to",
          "type": "address"
        },
        {
          "indexed": false,
          "internalType": "uint256",
          "name": "value",
          "type": "uint256"
        }
      ],
      "name": "Transfer",
      "type": "event"
    },
    {
      "inputs": [
        {
          "internalType": "address",
          "name": "tokenOwner",
          "type": "address"
        },
        {
          "internalType": "address",
          "name": "spender",
          "type": "address"
        }
      ],
      "name": "allowance",
      "outputs": [
        {
          "internalType": "uint256",
          "name": "",
          "type": "uint256"
        }
      ],
      "stateMutability": "view",
      "type": "function"
    },
    {
      "inputs": [
        {
          "internalType": "address",
          "name": "spender",
          "type": "address"
        },
        {
          "internalType": "uint256",
          "name": "amount",
          "type": "uint256"
        }
      ],
      "name": "approve",
      "outputs": [
        {
          "internalType": "bool",
          "name": "",
          "type": "bool"
        }
      ],
      "stateMutability": "nonpayable",
      "type": "function"
    },
    {
      "inputs": [
        {
          "internalType": "address",
          "name": "account",
          "type": "address"
        }
      ],
      "name": "balanceOf",
      "outputs": [
        {
          "internalType": "uint256",
          "name": "",
          "type": "uint256"
        }
      ],
      "stateMutability": "view",
      "type": "function"
    },
    {
      "inputs": [],
      "name": "decimals",
      "outputs": [
        {
          "internalType": "uint8",
          "name": "",
          "type": "uint8"
        }
      ],
      "stateMutability": "view",
      "type": "function"
    },
    {
      "inputs": [
        {
          "internalType": "address",
          "name": "spender",
          "type": "address"
        },
        {
          "internalType": "uint256",
          "name": "subtractedValue",
          "type": "uint256"
        }
      ],
      "name": "decreaseAllowance",
      "outputs": [
        {
          "internalType": "bool",
          "name": "",
          "type": "bool"
        }
      ],
      "stateMutability": "nonpayable",
      "type": "function"
    },
    {
      "inputs": [
        {
          "internalType": "address",
          "name": "spender",
          "type": "address"
        },
        {
          "internalType": "uint256",
          "name": "addedValue",
          "type": "uint256"
        }
      ],
      "name": "increaseAllowance",
      "outputs": [
        {
          "internalType": "bool",
          "name": "",
          "type": "bool"
        }
      ],
      "stateMutability": "nonpayable",
      "type": "function"
    },
    {
      "inputs": [
        {
          "internalType": "string",
          "name": "name",
          "type": "string"
        },
        {
          "internalType": "string",
          "name": "symbol",
          "type": "string"
        }
      ],
      "name": "initialize",
      "outputs": [],
      "stateMutability": "nonpayable",
      "type": "function"
    },
    {
      "inputs": [
        {
          "internalType": "address",
          "name": "account",
          "type": "address"
        },
        {
          "internalType": "uint256",
          "name": "amount",
          "type": "uint256"
        }
      ],
      "name": "mint",
      "outputs": [],
      "stateMutability": "nonpayable",
      "type": "function"
    },
    {
      "inputs": [],
      "name": "name",
      "outputs": [
        {
          "internalType": "string",
          "name": "",
          "type": "string"
        }
      ],
      "stateMutability": "view",
      "type": "function"
    },
    {
      "inputs": [],
      "name": "owner",
      "outputs": [
        {
          "internalType": "address",
          "name": "",
          "type": "address"
        }
      ],
      "stateMutability": "view",
      "type": "function"
    },
    {
      "inputs": [],
      "name": "renounceOwnership",
      "outputs": [],
      "stateMutability": "nonpayable",
      "type": "function"
    },
    {
      "inputs": [],
      "name": "symbol",
      "outputs": [
        {
          "internalType": "string",
          "name": "",
          "type": "string"
        }
      ],
      "stateMutability": "view",
      "type": "function"
    },
    {
      "inputs": [],
      "name": "totalSupply",
      "outputs": [
        {
          "internalType": "uint256",
          "name": "",
          "type": "uint256"
        }
      ],
      "stateMutability": "view",
      "type": "function"
    },
    {
      "inputs": [
        {
          "internalType": "address",
          "name": "recipient",
          "type": "address"
        },
        {
          "internalType": "uint256",
          "name": "amount",
          "type": "uint256"
        }
      ],
      "name": "transfer",
      "outputs": [
        {
          "internalType": "bool",
          "name": "",
          "type": "bool"
        }
      ],
      "stateMutability": "nonpayable",
      "type": "function"
    },
    {
      "inputs": [
        {
          "internalType": "address",
          "name": "sender",
          "type": "address"
        },
        {
          "internalType": "address",
          "name": "recipient",
          "type": "address"
        },
        {
          "internalType": "uint256",
          "name": "amount",
          "type": "uint256"
        }
      ],
      "name": "transferFrom",
      "outputs": [
        {
          "internalType": "bool",
          "name": "",
          "type": "bool"
        }
      ],
      "stateMutability": "nonpayable",
      "type": "function"
    },
    {
      "inputs": [
        {
          "internalType": "address",
          "name": "newOwner",
          "type": "address"
        }
      ],
      "name": "transferOwnership",
      "outputs": [],
      "stateMutability": "nonpayable",
      "type": "function"
    }
  ],
  "bytecode": "0x6080604052604051620019cf380380620019cf83398101604081905262000026916200052b565b6200003282826200003a565b5050620005e0565b600054610100900460ff168062000056575062000056620000fd565b8062000065575060005460ff16155b6200008d5760405162461bcd60e51b8152600401620000849062000592565b60405180910390fd5b600054610100900460ff16158015620000b9576000805460ff1961ff0019909116610100171660011790555b620000c36200011b565b620000cf8383620001a7565b620000d96200026d565b620000e5838362000352565b8015620000f8576000805461ff00191690555b505050565b60006200011530620003de60201b620007131760201c565b15905090565b600054610100900460ff168062000137575062000137620000fd565b8062000146575060005460ff16155b620001655760405162461bcd60e51b8152600401620000849062000592565b600054610100900460ff1615801562000191576000805460ff1961ff0019909116610100171660011790555b8015620001a4576000805461ff00191690555b50565b600054610100900460ff1680620001c35750620001c3620000fd565b80620001d2575060005460ff16155b620001f15760405162461bcd60e51b8152600401620000849062000592565b600054610100900460ff161580156200021d576000805460ff1961ff0019909116610100171660011790555b825162000232906036906020860190620003e8565b50815162000248906037906020850190620003e8565b506038805460ff191660121790558015620000f8576000805461ff0019169055505050565b600054610100900460ff168062000289575062000289620000fd565b8062000298575060005460ff16155b620002b75760405162461bcd60e51b8152600401620000849062000592565b600054610100900460ff16158015620002e3576000805460ff1961ff0019909116610100171660011790555b6000620002ef620003e4565b606580546001600160a01b0319166001600160a01b038316908117909155604051919250906000907f8be0079c531659141344cd1fd0a4f28419497f9722a3daafe3b4186f6b6457e0908290a3508015620001a4576000805461ff001916905550565b600054610100900460ff16806200036e57506200036e620000fd565b806200037d575060005460ff16155b6200039c5760405162461bcd60e51b8152600401620000849062000592565b600054610100900460ff16158015620000e5576000805460ff1961ff0019909116610100171660011790558015620000f8576000805461ff0019169055505050565b3b151590565b3390565b828054600181600116156101000203166002900490600052602060002090601f016020900481019282601f106200042b57805160ff19168380011785556200045b565b828001600101855582156200045b579182015b828111156200045b5782518255916020019190600101906200043e565b50620004699291506200046d565b5090565b5b808211156200046957600081556001016200046e565b600082601f83011262000495578081fd5b81516001600160401b0380821115620004ac578283fd5b6040516020601f8401601f1916820181018381118382101715620004ce578586fd5b80604052508194508382528681858801011115620004eb57600080fd5b600092505b838310156200050f5785830181015182840182015291820191620004f0565b83831115620005215760008185840101525b5050505092915050565b600080604083850312156200053e578182fd5b82516001600160401b038082111562000555578384fd5b620005638683870162000484565b9350602085015191508082111562000579578283fd5b50620005888582860162000484565b9150509250929050565b6020808252602e908201527f496e697469616c697a61626c653a20636f6e747261637420697320616c72656160408201526d191e481a5b9a5d1a585b1a5e995960921b606082015260800190565b6113df80620005f06000396000f3fe608060405234801561001057600080fd5b50600436106101005760003560e01c806370a0823111610097578063a457c2d711610066578063a457c2d7146101f3578063a9059cbb14610206578063dd62ed3e14610219578063f2fde38b1461022c57610100565b806370a08231146101bb578063715018a6146101ce5780638da5cb5b146101d657806395d89b41146101eb57610100565b8063313ce567116100d3578063313ce5671461016b578063395093511461018057806340c10f19146101935780634cd88b76146101a857610100565b806306fdde0314610105578063095ea7b31461012357806318160ddd1461014357806323b872dd14610158575b600080fd5b61010d61023f565b60405161011a9190611072565b60405180910390f35b610136610131366004610fc8565b6102d5565b60405161011a9190611067565b61014b6102f3565b60405161011a919061130a565b610136610166366004610f88565b6102f9565b610173610344565b60405161011a9190611313565b61013661018e366004610fc8565b61034d565b6101a66101a1366004610fc8565b6103a0565b005b6101a66101b6366004610ff2565b6103f6565b61014b6101c9366004610f39565b610485565b6101a66104a0565b6101de610529565b60405161011a9190611053565b61010d610538565b610136610201366004610fc8565b610599565b610136610214366004610fc8565b610601565b61014b610227366004610f54565b610615565b6101a661023a366004610f39565b610652565b60368054604080516020601f60026000196101006001881615020190951694909404938401819004810282018101909252828152606093909290918301828280156102cb5780601f106102a0576101008083540402835291602001916102cb565b820191906000526020600020905b8154815290600101906020018083116102ae57829003601f168201915b5050505050905090565b60006102e96102e2610719565b848461071d565b5060015b92915050565b60355490565b6000610303610529565b6001600160a01b0316836001600160a01b0316141561032f5761032784848461074e565b50600161033d565b61033a848484610870565b90505b9392505050565b60385460ff1690565b60006102e961035a610719565b8461039b856034600061036b610719565b6001600160a01b03908116825260208083019390935260409182016000908120918c1681529252902054906108f2565b61071d565b6103a8610719565b6001600160a01b03166103b9610529565b6001600160a01b0316146103e85760405162461bcd60e51b81526004016103df90611215565b60405180910390fd5b6103f28282610917565b5050565b600054610100900460ff168061040f575061040f6109d7565b8061041d575060005460ff16155b6104395760405162461bcd60e51b81526004016103df906111c7565b600054610100900460ff16158015610464576000805460ff1961ff0019909116610100171660011790555b61046e83836109e8565b8015610480576000805461ff00191690555b505050565b6001600160a01b031660009081526033602052604090205490565b6104a8610719565b6001600160a01b03166104b9610529565b6001600160a01b0316146104df5760405162461bcd60e51b81526004016103df90611215565b6065546040516000916001600160a01b0316907f8be0079c531659141344cd1fd0a4f28419497f9722a3daafe3b4186f6b6457e0908390a3606580546001600160a01b0319169055565b6065546001600160a01b031690565b60378054604080516020601f60026000196101006001881615020190951694909404938401819004810282018101909252828152606093909290918301828280156102cb5780601f106102a0576101008083540402835291602001916102cb565b60006102e96105a6610719565b8461039b8560405180606001604052806025815260200161138560259139603460006105d0610719565b6001600160a01b03908116825260208083019390935260409182016000908120918d16815292529020549190610a7a565b60006102e961060e610719565b848461074e565b600061061f610529565b6001600160a01b0316826001600160a01b0316141561064157506000196102ed565b61064b8383610aa6565b90506102ed565b61065a610719565b6001600160a01b031661066b610529565b6001600160a01b0316146106915760405162461bcd60e51b81526004016103df90611215565b6001600160a01b0381166106b75760405162461bcd60e51b81526004016103df90611108565b6065546040516001600160a01b038084169216907f8be0079c531659141344cd1fd0a4f28419497f9722a3daafe3b4186f6b6457e090600090a3606580546001600160a01b0319166001600160a01b0392909216919091179055565b3b151590565b3390565b610725610529565b6001600160a01b0316826001600160a01b0316141561074357610480565b610480838383610ad1565b6001600160a01b0383166107745760405162461bcd60e51b81526004016103df9061124a565b6001600160a01b03821661079a5760405162461bcd60e51b81526004016103df906110c5565b6107a5838383610480565b6107e281604051806060016040528060268152602001611337602691396001600160a01b0386166000908152603360205260409020549190610a7a565b6001600160a01b03808516600090815260336020526040808220939093559084168152205461081190826108f2565b6001600160a01b0380841660008181526033602052604090819020939093559151908516907fddf252ad1be2c89b69c2b068fc378daa952ba7f163c4a11628f55a4df523b3ef9061086390859061130a565b60405180910390a3505050565b600061087d84848461074e565b6108e884610889610719565b61039b8560405180606001604052806028815260200161135d602891396001600160a01b038a166000908152603460205260408120906108c7610719565b6001600160a01b031681526020810191909152604001600020549190610a7a565b5060019392505050565b60008282018381101561033d5760405162461bcd60e51b81526004016103df90611190565b6001600160a01b03821661093d5760405162461bcd60e51b81526004016103df906112d3565b61094960008383610480565b60355461095690826108f2565b6035556001600160a01b03821660009081526033602052604090205461097c90826108f2565b6001600160a01b0383166000818152603360205260408082209390935591519091907fddf252ad1be2c89b69c2b068fc378daa952ba7f163c4a11628f55a4df523b3ef906109cb90859061130a565b60405180910390a35050565b60006109e230610713565b15905090565b600054610100900460ff1680610a015750610a016109d7565b80610a0f575060005460ff16155b610a2b5760405162461bcd60e51b81526004016103df906111c7565b600054610100900460ff16158015610a56576000805460ff1961ff0019909116610100171660011790555b610a5e610b78565b610a688383610bfb565b610a70610cb4565b61046e8383610d8e565b60008184841115610a9e5760405162461bcd60e51b81526004016103df9190611072565b505050900390565b6001600160a01b03918216600090815260346020908152604080832093909416825291909152205490565b6001600160a01b038316610af75760405162461bcd60e51b81526004016103df9061128f565b6001600160a01b038216610b1d5760405162461bcd60e51b81526004016103df9061114e565b6001600160a01b0380841660008181526034602090815260408083209487168084529490915290819020849055517f8c5be1e5ebec7d5bd14f71427d1e84f3dd0314c0f7b2291e5b200ac8c7c3b9259061086390859061130a565b600054610100900460ff1680610b915750610b916109d7565b80610b9f575060005460ff16155b610bbb5760405162461bcd60e51b81526004016103df906111c7565b600054610100900460ff16158015610be6576000805460ff1961ff0019909116610100171660011790555b8015610bf8576000805461ff00191690555b50565b600054610100900460ff1680610c145750610c146109d7565b80610c22575060005460ff16155b610c3e5760405162461bcd60e51b81526004016103df906111c7565b600054610100900460ff16158015610c69576000805460ff1961ff0019909116610100171660011790555b8251610c7c906036906020860190610e11565b508151610c90906037906020850190610e11565b506038805460ff191660121790558015610480576000805461ff0019169055505050565b600054610100900460ff1680610ccd5750610ccd6109d7565b80610cdb575060005460ff16155b610cf75760405162461bcd60e51b81526004016103df906111c7565b600054610100900460ff16158015610d22576000805460ff1961ff0019909116610100171660011790555b6000610d2c610719565b606580546001600160a01b0319166001600160a01b038316908117909155604051919250906000907f8be0079c531659141344cd1fd0a4f28419497f9722a3daafe3b4186f6b6457e0908290a3508015610bf8576000805461ff001916905550565b600054610100900460ff1680610da75750610da76109d7565b80610db5575060005460ff16155b610dd15760405162461bcd60e51b81526004016103df906111c7565b600054610100900460ff1615801561046e576000805460ff1961ff0019909116610100171660011790558015610480576000805461ff0019169055505050565b828054600181600116156101000203166002900490600052602060002090601f016020900481019282601f10610e5257805160ff1916838001178555610e7f565b82800160010185558215610e7f579182015b82811115610e7f578251825591602001919060010190610e64565b50610e8b929150610e8f565b5090565b5b80821115610e8b5760008155600101610e90565b80356001600160a01b03811681146102ed57600080fd5b600082601f830112610ecb578081fd5b813567ffffffffffffffff80821115610ee2578283fd5b604051601f8301601f191681016020018281118282101715610f02578485fd5b604052828152925082848301602001861015610f1d57600080fd5b8260208601602083013760006020848301015250505092915050565b600060208284031215610f4a578081fd5b61033d8383610ea4565b60008060408385031215610f66578081fd5b610f708484610ea4565b9150610f7f8460208501610ea4565b90509250929050565b600080600060608486031215610f9c578081fd5b8335610fa781611321565b92506020840135610fb781611321565b929592945050506040919091013590565b60008060408385031215610fda578182fd5b610fe48484610ea4565b946020939093013593505050565b60008060408385031215611004578182fd5b823567ffffffffffffffff8082111561101b578384fd5b61102786838701610ebb565b9350602085013591508082111561103c578283fd5b5061104985828601610ebb565b9150509250929050565b6001600160a01b0391909116815260200190565b901515815260200190565b6000602080835283518082850152825b8181101561109e57858101830151858201604001528201611082565b818111156110af5783604083870101525b50601f01601f1916929092016040019392505050565b60208082526023908201527f45524332303a207472616e7366657220746f20746865207a65726f206164647260408201526265737360e81b606082015260800190565b60208082526026908201527f4f776e61626c653a206e6577206f776e657220697320746865207a65726f206160408201526564647265737360d01b606082015260800190565b60208082526022908201527f45524332303a20617070726f766520746f20746865207a65726f206164647265604082015261737360f01b606082015260800190565b6020808252601b908201527f536166654d6174683a206164646974696f6e206f766572666c6f770000000000604082015260600190565b6020808252602e908201527f496e697469616c697a61626c653a20636f6e747261637420697320616c72656160408201526d191e481a5b9a5d1a585b1a5e995960921b606082015260800190565b6020808252818101527f4f776e61626c653a2063616c6c6572206973206e6f7420746865206f776e6572604082015260600190565b60208082526025908201527f45524332303a207472616e736665722066726f6d20746865207a65726f206164604082015264647265737360d81b606082015260800190565b60208082526024908201527f45524332303a20617070726f76652066726f6d20746865207a65726f206164646040820152637265737360e01b606082015260800190565b6020808252601f908201527f45524332303a206d696e7420746f20746865207a65726f206164647265737300604082015260600190565b90815260200190565b60ff91909116815260200190565b6001600160a01b0381168114610bf857600080fdfe45524332303a207472616e7366657220616d6f756e7420657863656564732062616c616e636545524332303a207472616e7366657220616d6f756e74206578636565647320616c6c6f77616e636545524332303a2064656372656173656420616c6c6f77616e63652062656c6f77207a65726fa2646970667358221220c28a69f5a0b4ad7ac28b33a14a2d8d49f4b277732e8b376e9d3b3c123669e45864736f6c634300060c0033",
  "linkReferences": {},
  "deployedLinkReferences": {}
}