{
  "_format": "hh-sol-artifact-1",
  "contractName": "AccessControlMockUpgradeableWithInit",
  "sourceName": "contracts/contracts-upgradeable-v3_4/mocks/WithInit.sol",
  "abi": [
    {
      "inputs": [],
      "stateMutability": "payable",
      "type": "constructor"
    },
    {
      "anonymous": false,
      "inputs": [
        {
          "indexed": true,
          "internalType": "bytes32",
          "name": "role",
          "type": "bytes32"
        },
        {
          "indexed": true,
          "internalType": "bytes32",
          "name": "previousAdminRole",
          "type": "bytes32"
        },
        {
          "indexed": true,
          "internalType": "bytes32",
          "name": "newAdminRole",
          "type": "bytes32"
        }
      ],
      "name": "RoleAdminChanged",
      "type": "event"
    },
    {
      "anonymous": false,
      "inputs": [
        {
          "indexed": true,
          "internalType": "bytes32",
          "name": "role",
          "type": "bytes32"
        },
        {
          "indexed": true,
          "internalType": "address",
          "name": "account",
          "type": "address"
        },
        {
          "indexed": true,
          "internalType": "address",
          "name": "sender",
          "type": "address"
        }
      ],
      "name": "RoleGranted",
      "type": "event"
    },
    {
      "anonymous": false,
      "inputs": [
        {
          "indexed": true,
          "internalType": "bytes32",
          "name": "role",
          "type": "bytes32"
        },
        {
          "indexed": true,
          "internalType": "address",
          "name": "account",
          "type": "address"
        },
        {
          "indexed": true,
          "internalType": "address",
          "name": "sender",
          "type": "address"
        }
      ],
      "name": "RoleRevoked",
      "type": "event"
    },
    {
      "inputs": [],
      "name": "DEFAULT_ADMIN_ROLE",
      "outputs": [
        {
          "internalType": "bytes32",
          "name": "",
          "type": "bytes32"
        }
      ],
      "stateMutability": "view",
      "type": "function"
    },
    {
      "inputs": [
        {
          "internalType": "bytes32",
          "name": "role",
          "type": "bytes32"
        }
      ],
      "name": "getRoleAdmin",
      "outputs": [
        {
          "internalType": "bytes32",
          "name": "",
          "type": "bytes32"
        }
      ],
      "stateMutability": "view",
      "type": "function"
    },
    {
      "inputs": [
        {
          "internalType": "bytes32",
          "name": "role",
          "type": "bytes32"
        },
        {
          "internalType": "uint256",
          "name": "index",
          "type": "uint256"
        }
      ],
      "name": "getRoleMember",
      "outputs": [
        {
          "internalType": "address",
          "name": "",
          "type": "address"
        }
      ],
      "stateMutability": "view",
      "type": "function"
    },
    {
      "inputs": [
        {
          "internalType": "bytes32",
          "name": "role",
          "type": "bytes32"
        }
      ],
      "name": "getRoleMemberCount",
      "outputs": [
        {
          "internalType": "uint256",
          "name": "",
          "type": "uint256"
        }
      ],
      "stateMutability": "view",
      "type": "function"
    },
    {
      "inputs": [
        {
          "internalType": "bytes32",
          "name": "role",
          "type": "bytes32"
        },
        {
          "internalType": "address",
          "name": "account",
          "type": "address"
        }
      ],
      "name": "grantRole",
      "outputs": [],
      "stateMutability": "nonpayable",
      "type": "function"
    },
    {
      "inputs": [
        {
          "internalType": "bytes32",
          "name": "role",
          "type": "bytes32"
        },
        {
          "internalType": "address",
          "name": "account",
          "type": "address"
        }
      ],
      "name": "hasRole",
      "outputs": [
        {
          "internalType": "bool",
          "name": "",
          "type": "bool"
        }
      ],
      "stateMutability": "view",
      "type": "function"
    },
    {
      "inputs": [
        {
          "internalType": "bytes32",
          "name": "role",
          "type": "bytes32"
        },
        {
          "internalType": "address",
          "name": "account",
          "type": "address"
        }
      ],
      "name": "renounceRole",
      "outputs": [],
      "stateMutability": "nonpayable",
      "type": "function"
    },
    {
      "inputs": [
        {
          "internalType": "bytes32",
          "name": "role",
          "type": "bytes32"
        },
        {
          "internalType": "address",
          "name": "account",
          "type": "address"
        }
      ],
      "name": "revokeRole",
      "outputs": [],
      "stateMutability": "nonpayable",
      "type": "function"
    },
    {
      "inputs": [
        {
          "internalType": "bytes32",
          "name": "roleId",
          "type": "bytes32"
        },
        {
          "internalType": "bytes32",
          "name": "adminRoleId",
          "type": "bytes32"
        }
      ],
      "name": "setRoleAdmin",
      "outputs": [],
      "stateMutability": "nonpayable",
      "type": "function"
    }
  ],
  "bytecode": "0x60806040526200000e62000014565b62000365565b600054610100900460ff168062000030575062000030620000c7565b806200003f575060005460ff16155b620000675760405162461bcd60e51b81526004016200005e9062000317565b60405180910390fd5b600054610100900460ff1615801562000093576000805460ff1961ff0019909116610100171660011790555b6200009d620000e5565b620000a7620000e5565b620000b16200016f565b8015620000c4576000805461ff00191690555b50565b6000620000df30620001fb60201b620002ab1760201c565b15905090565b600054610100900460ff168062000101575062000101620000c7565b8062000110575060005460ff16155b6200012f5760405162461bcd60e51b81526004016200005e9062000317565b600054610100900460ff16158015620000b1576000805460ff1961ff0019909116610100171660011790558015620000c4576000805461ff001916905550565b600054610100900460ff16806200018b57506200018b620000c7565b806200019a575060005460ff16155b620001b95760405162461bcd60e51b81526004016200005e9062000317565b600054610100900460ff16158015620001e5576000805460ff1961ff0019909116610100171660011790555b620000b16000620001f562000201565b62000205565b3b151590565b3390565b62000211828262000215565b5050565b60008281526033602090815260409091206200023c918390620002b162000290821b17901c565b1562000211576200024c62000201565b6001600160a01b0316816001600160a01b0316837f2f8788117e7eff1d82e926ec794901d17c78024a50270940304540a733656f0d60405160405180910390a45050565b6000620002a7836001600160a01b038416620002b0565b90505b92915050565b6000620002be8383620002ff565b620002f657508154600181810184556000848152602080822090930184905584548482528286019093526040902091909155620002aa565b506000620002aa565b60009081526001919091016020526040902054151590565b6020808252602e908201527f496e697469616c697a61626c653a20636f6e747261637420697320616c72656160408201526d191e481a5b9a5d1a585b1a5e995960921b606082015260800190565b6107a180620003756000396000f3fe608060405234801561001057600080fd5b50600436106100935760003560e01c80639010d07c116100665780639010d07c146100fc57806391d148541461011c578063a217fddf1461013c578063ca15c87314610144578063d547741f1461015757610093565b80631e4e009114610098578063248a9ca3146100ad5780632f2ff15d146100d657806336568abe146100e9575b600080fd5b6100ab6100a63660046105f2565b61016a565b005b6100c06100bb3660046105a0565b610178565b6040516100cd9190610632565b60405180910390f35b6100ab6100e43660046105b8565b61018d565b6100ab6100f73660046105b8565b6101da565b61010f61010a3660046105f2565b61021c565b6040516100cd9190610613565b61012f61012a3660046105b8565b61023d565b6040516100cd9190610627565b6100c0610255565b6100c06101523660046105a0565b61025a565b6100ab6101653660046105b8565b610271565b61017482826102c6565b5050565b60009081526033602052604090206002015490565b6000828152603360205260409020600201546101ab9061012a610318565b6101d05760405162461bcd60e51b81526004016101c79061067d565b60405180910390fd5b610174828261031c565b6101e2610318565b6001600160a01b0316816001600160a01b0316146102125760405162461bcd60e51b81526004016101c79061071c565b6101748282610385565b600082815260336020526040812061023490836103ee565b90505b92915050565b600082815260336020526040812061023490836103fa565b600081565b60008181526033602052604081206102379061040f565b60008281526033602052604090206002015461028f9061012a610318565b6102125760405162461bcd60e51b81526004016101c7906106cc565b3b151590565b6000610234836001600160a01b03841661041a565b600082815260336020526040808220600201549051839285917fbd79b86ffe0ab8e8776151514217cd7cacd52c909f66475c3af44e129f0b00ff9190a460009182526033602052604090912060020155565b3390565b600082815260336020526040902061033490826102b1565b1561017457610341610318565b6001600160a01b0316816001600160a01b0316837f2f8788117e7eff1d82e926ec794901d17c78024a50270940304540a733656f0d60405160405180910390a45050565b600082815260336020526040902061039d9082610464565b15610174576103aa610318565b6001600160a01b0316816001600160a01b0316837ff6391f5c32d9c69d2a47ea670b442974b53935d1edc7fd64eb21e047a839171b60405160405180910390a45050565b60006102348383610479565b6000610234836001600160a01b0384166104be565b6000610237826104d6565b600061042683836104be565b61045c57508154600181810184556000848152602080822090930184905584548482528286019093526040902091909155610237565b506000610237565b6000610234836001600160a01b0384166104da565b8154600090821061049c5760405162461bcd60e51b81526004016101c79061063b565b8260000182815481106104ab57fe5b9060005260206000200154905092915050565b60009081526001919091016020526040902054151590565b5490565b60008181526001830160205260408120548015610596578354600019808301919081019060009087908390811061050d57fe5b906000526020600020015490508087600001848154811061052a57fe5b60009182526020808320909101929092558281526001898101909252604090209084019055865487908061055a57fe5b60019003818190600052602060002001600090559055866001016000878152602001908152602001600020600090556001945050505050610237565b6000915050610237565b6000602082840312156105b1578081fd5b5035919050565b600080604083850312156105ca578081fd5b8235915060208301356001600160a01b03811681146105e7578182fd5b809150509250929050565b60008060408385031215610604578182fd5b50508035926020909101359150565b6001600160a01b0391909116815260200190565b901515815260200190565b90815260200190565b60208082526022908201527f456e756d657261626c655365743a20696e646578206f7574206f6620626f756e604082015261647360f01b606082015260800190565b6020808252602f908201527f416363657373436f6e74726f6c3a2073656e646572206d75737420626520616e60408201526e0818591b5a5b881d1bc819dc985b9d608a1b606082015260800190565b60208082526030908201527f416363657373436f6e74726f6c3a2073656e646572206d75737420626520616e60408201526f2061646d696e20746f207265766f6b6560801b606082015260800190565b6020808252602f908201527f416363657373436f6e74726f6c3a2063616e206f6e6c792072656e6f756e636560408201526e103937b632b9903337b91039b2b63360891b60608201526080019056fea26469706673582212201f052bffedbdd2533699902bc203940b818e679e9e7ea01b10d0d644c3f5276a64736f6c634300060c0033",
  "linkReferences": {},
  "deployedLinkReferences": {}
}