{
  "_format": "hh-sol-artifact-1",
  "contractName": "AddressImplUpgradeableWithInit",
  "sourceName": "contracts/contracts-upgradeable-v3_4/mocks/WithInit.sol",
  "abi": [
    {
      "inputs": [],
      "stateMutability": "payable",
      "type": "constructor"
    },
    {
      "anonymous": false,
      "inputs": [
        {
          "indexed": false,
          "internalType": "string",
          "name": "data",
          "type": "string"
        }
      ],
      "name": "CallReturnValue",
      "type": "event"
    },
    {
      "inputs": [
        {
          "internalType": "address",
          "name": "target",
          "type": "address"
        },
        {
          "internalType": "bytes",
          "name": "data",
          "type": "bytes"
        }
      ],
      "name": "functionCall",
      "outputs": [],
      "stateMutability": "nonpayable",
      "type": "function"
    },
    {
      "inputs": [
        {
          "internalType": "address",
          "name": "target",
          "type": "address"
        },
        {
          "internalType": "bytes",
          "name": "data",
          "type": "bytes"
        },
        {
          "internalType": "uint256",
          "name": "value",
          "type": "uint256"
        }
      ],
      "name": "functionCallWithValue",
      "outputs": [],
      "stateMutability": "payable",
      "type": "function"
    },
    {
      "inputs": [
        {
          "internalType": "address",
          "name": "target",
          "type": "address"
        },
        {
          "internalType": "bytes",
          "name": "data",
          "type": "bytes"
        }
      ],
      "name": "functionStaticCall",
      "outputs": [],
      "stateMutability": "nonpayable",
      "type": "function"
    },
    {
      "inputs": [
        {
          "internalType": "address",
          "name": "account",
          "type": "address"
        }
      ],
      "name": "isContract",
      "outputs": [
        {
          "internalType": "bool",
          "name": "",
          "type": "bool"
        }
      ],
      "stateMutability": "view",
      "type": "function"
    },
    {
      "inputs": [
        {
          "internalType": "address payable",
          "name": "receiver",
          "type": "address"
        },
        {
          "internalType": "uint256",
          "name": "amount",
          "type": "uint256"
        }
      ],
      "name": "sendValue",
      "outputs": [],
      "stateMutability": "nonpayable",
      "type": "function"
    },
    {
      "inputs": [],
      "name": "sharedAnswer",
      "outputs": [
        {
          "internalType": "string",
          "name": "",
          "type": "string"
        }
      ],
      "stateMutability": "view",
      "type": "function"
    },
    {
      "stateMutability": "payable",
      "type": "receive"
    }
  ],
  "bytecode": "0x60806040526200000e62000014565b620001af565b600054610100900460ff168062000030575062000030620000b3565b806200003f575060005460ff16155b620000675760405162461bcd60e51b81526004016200005e9062000161565b60405180910390fd5b600054610100900460ff1615801562000093576000805460ff1961ff0019909116610100171660011790555b6200009d620000d1565b8015620000b0576000805461ff00191690555b50565b6000620000cb306200015b60201b6200034b1760201c565b15905090565b600054610100900460ff1680620000ed5750620000ed620000b3565b80620000fc575060005460ff16155b6200011b5760405162461bcd60e51b81526004016200005e9062000161565b600054610100900460ff161580156200009d576000805460ff1961ff0019909116610100171660011790558015620000b0576000805461ff001916905550565b3b151590565b6020808252602e908201527f496e697469616c697a61626c653a20636f6e747261637420697320616c72656160408201526d191e481a5b9a5d1a585b1a5e995960921b606082015260800190565b610a8280620001bf6000396000f3fe6080604052600436106100595760003560e01c8063162790551461006557806324a084df1461009b5780632a011594146100bd578063a0b5ffb0146100d0578063c21d36f3146100f0578063fc40cf731461011057610060565b3661006057005b600080fd5b34801561007157600080fd5b5061008561008036600461067f565b610132565b6040516100929190610823565b60405180910390f35b3480156100a757600080fd5b506100bb6100b636600461069b565b610143565b005b6100bb6100cb366004610719565b610151565b3480156100dc57600080fd5b506100bb6100eb3660046106c6565b6101e8565b3480156100fc57600080fd5b506100bb61010b3660046106c6565b61027c565b34801561011c57600080fd5b506101256102be565b604051610092919061082e565b600061013d8261034b565b92915050565b61014d8282610351565b5050565b60606101958585858080601f0160208091040260200160405190810160405280939291908181526020018383808284376000920191909152508792506103fb915050565b90507fe518073da644d0626295bee74d5d5c51447a33857c62913bb30f35e2fba3db7c818060200190518101906101cc9190610773565b6040516101d9919061082e565b60405180910390a15050505050565b606061022a8484848080601f01602080910402602001604051908101604052809392919081815260200183838082843760009201919091525061042b92505050565b90507fe518073da644d0626295bee74d5d5c51447a33857c62913bb30f35e2fba3db7c818060200190518101906102619190610773565b60405161026e919061082e565b60405180910390a150505050565b606061022a8484848080601f01602080910402602001604051908101604052809392919081815260200183838082843760009201919091525061046d92505050565b60018054604080516020600284861615610100026000190190941693909304601f810184900484028201840190925281815292918301828280156103435780601f1061031857610100808354040283529160200191610343565b820191906000526020600020905b81548152906001019060200180831161032657829003601f168201915b505050505081565b3b151590565b8047101561037a5760405162461bcd60e51b8152600401610371906108be565b60405180910390fd5b6000826001600160a01b03168260405161039390610820565b60006040518083038185875af1925050503d80600081146103d0576040519150601f19603f3d011682016040523d82523d6000602084013e6103d5565b606091505b50509050806103f65760405162461bcd60e51b815260040161037190610861565b505050565b60606104218484846040518060600160405280602981526020016109ff60299139610492565b90505b9392505050565b606061042483836040518060400160405280601e81526020017f416464726573733a206c6f772d6c6576656c2063616c6c206661696c65640000815250610553565b60606104248383604051806060016040528060258152602001610a2860259139610562565b6060824710156104b45760405162461bcd60e51b8152600401610371906108f5565b6104bd8561034b565b6104d95760405162461bcd60e51b81526004016103719061097f565b60006060866001600160a01b031685876040516104f69190610804565b60006040518083038185875af1925050503d8060008114610533576040519150601f19603f3d011682016040523d82523d6000602084013e610538565b606091505b50915091506105488282866105ff565b979650505050505050565b60606104218484600085610492565b606061056d8461034b565b6105895760405162461bcd60e51b81526004016103719061093b565b60006060856001600160a01b0316856040516105a59190610804565b600060405180830381855afa9150503d80600081146105e0576040519150601f19603f3d011682016040523d82523d6000602084013e6105e5565b606091505b50915091506105f58282866105ff565b9695505050505050565b6060831561060e575081610424565b82511561061e5782518084602001fd5b8160405162461bcd60e51b8152600401610371919061082e565b60008083601f840112610649578182fd5b50813567ffffffffffffffff811115610660578182fd5b60208301915083602082850101111561067857600080fd5b9250929050565b600060208284031215610690578081fd5b8135610424816109e6565b600080604083850312156106ad578081fd5b82356106b8816109e6565b946020939093013593505050565b6000806000604084860312156106da578081fd5b83356106e5816109e6565b9250602084013567ffffffffffffffff811115610700578182fd5b61070c86828701610638565b9497909650939450505050565b6000806000806060858703121561072e578081fd5b8435610739816109e6565b9350602085013567ffffffffffffffff811115610754578182fd5b61076087828801610638565b9598909750949560400135949350505050565b600060208284031215610784578081fd5b815167ffffffffffffffff8082111561079b578283fd5b818401915084601f8301126107ae578283fd5b8151818111156107bc578384fd5b604051601f8201601f1916810160200183811182821017156107dc578586fd5b6040528181528382016020018710156107f3578485fd5b6105f58260208301602087016109b6565b600082516108168184602087016109b6565b9190910192915050565b90565b901515815260200190565b600060208252825180602084015261084d8160408501602087016109b6565b601f01601f19169190910160400192915050565b6020808252603a908201527f416464726573733a20756e61626c6520746f2073656e642076616c75652c207260408201527f6563697069656e74206d61792068617665207265766572746564000000000000606082015260800190565b6020808252601d908201527f416464726573733a20696e73756666696369656e742062616c616e6365000000604082015260600190565b60208082526026908201527f416464726573733a20696e73756666696369656e742062616c616e636520666f6040820152651c8818d85b1b60d21b606082015260800190565b60208082526024908201527f416464726573733a207374617469632063616c6c20746f206e6f6e2d636f6e746040820152631c9858dd60e21b606082015260800190565b6020808252601d908201527f416464726573733a2063616c6c20746f206e6f6e2d636f6e7472616374000000604082015260600190565b60005b838110156109d15781810151838201526020016109b9565b838111156109e0576000848401525b50505050565b6001600160a01b03811681146109fb57600080fd5b5056fe416464726573733a206c6f772d6c6576656c2063616c6c20776974682076616c7565206661696c6564416464726573733a206c6f772d6c6576656c207374617469632063616c6c206661696c6564a2646970667358221220be6ed909d092ca98d7a2e5d34971bf1a99df00547d40855312f8ee1351fa37dd64736f6c634300060c0033",
  "linkReferences": {},
  "deployedLinkReferences": {}
}