{
  "_format": "hh-sol-artifact-1",
  "contractName": "ArraysImplUpgradeableWithInit",
  "sourceName": "contracts/contracts-upgradeable-v3_4/mocks/WithInit.sol",
  "abi": [
    {
      "inputs": [
        {
          "internalType": "uint256[]",
          "name": "array",
          "type": "uint256[]"
        }
      ],
      "stateMutability": "payable",
      "type": "constructor"
    },
    {
      "inputs": [
        {
          "internalType": "uint256",
          "name": "element",
          "type": "uint256"
        }
      ],
      "name": "findUpperBound",
      "outputs": [
        {
          "internalType": "uint256",
          "name": "",
          "type": "uint256"
        }
      ],
      "stateMutability": "view",
      "type": "function"
    }
  ],
  "bytecode": "0x60806040526040516104a43803806104a4833981016040819052610022916101df565b61002b81610031565b50610306565b600054610100900460ff168061004a575061004a6100c7565b80610058575060005460ff16155b61007d5760405162461bcd60e51b815260040161007490610273565b60405180910390fd5b600054610100900460ff161580156100a8576000805460ff1961ff0019909116610100171660011790555b6100b1826100e2565b80156100c3576000805461ff00191690555b5050565b60006100dc3061017960201b61006c1760201c565b15905090565b600054610100900460ff16806100fb57506100fb6100c7565b80610109575060005460ff16155b6101255760405162461bcd60e51b815260040161007490610273565b600054610100900460ff16158015610150576000805460ff1961ff0019909116610100171660011790555b815161016390600190602085019061017f565b5080156100c3576000805461ff00191690555050565b3b151590565b8280548282559060005260206000209081019282156101ba579160200282015b828111156101ba57825182559160200191906001019061019f565b506101c69291506101ca565b5090565b5b808211156101c657600081556001016101cb565b600060208083850312156101f1578182fd5b82516001600160401b03811115610206578283fd5b8301601f81018513610216578283fd5b8051610229610224826102e7565b6102c1565b8181528381019083850185840285018601891015610245578687fd5b8694505b83851015610267578051835260019490940193918501918501610249565b50979650505050505050565b6020808252602e908201527f496e697469616c697a61626c653a20636f6e747261637420697320616c72656160408201526d191e481a5b9a5d1a585b1a5e995960921b606082015260800190565b6040518181016001600160401b03811182821017156102df57600080fd5b604052919050565b60006001600160401b038211156102fc578081fd5b5060209081020190565b61018f806103156000396000f3fe608060405234801561001057600080fd5b506004361061002b5760003560e01c806333e3a58a14610030575b600080fd5b61004361003e366004610138565b610059565b6040516100509190610150565b60405180910390f35b6000610066600183610072565b92915050565b3b151590565b815460009061008357506000610066565b82546000905b808210156100d257600061009d8383610113565b9050848682815481106100ac57fe5b906000526020600020015411156100c5578091506100cc565b8060010192505b50610089565b6000821180156100fa5750838560018403815481106100ed57fe5b9060005260206000200154145b1561010b5750600019019050610066565b509392505050565b6000600280830660028506018161012657fe5b04600283046002850401019392505050565b600060208284031215610149578081fd5b5035919050565b9081526020019056fea26469706673582212208ec28f604e8f4ffc846d0110eab658108d8ce375be27270e16a99e2d269fa8de64736f6c634300060c0033",
  "linkReferences": {},
  "deployedLinkReferences": {}
}