{
  "_format": "hh-sol-artifact-1",
  "contractName": "CallReceiverMockUpgradeableWithInit",
  "sourceName": "contracts/contracts-upgradeable-v3_4/mocks/WithInit.sol",
  "abi": [
    {
      "inputs": [],
      "stateMutability": "payable",
      "type": "constructor"
    },
    {
      "anonymous": false,
      "inputs": [],
      "name": "MockFunctionCalled",
      "type": "event"
    },
    {
      "inputs": [],
      "name": "mockFunction",
      "outputs": [
        {
          "internalType": "string",
          "name": "",
          "type": "string"
        }
      ],
      "stateMutability": "payable",
      "type": "function"
    },
    {
      "inputs": [],
      "name": "mockFunctionNonPayable",
      "outputs": [
        {
          "internalType": "string",
          "name": "",
          "type": "string"
        }
      ],
      "stateMutability": "nonpayable",
      "type": "function"
    },
    {
      "inputs": [],
      "name": "mockFunctionOutOfGas",
      "outputs": [],
      "stateMutability": "payable",
      "type": "function"
    },
    {
      "inputs": [],
      "name": "mockFunctionRevertsNoReason",
      "outputs": [],
      "stateMutability": "payable",
      "type": "function"
    },
    {
      "inputs": [],
      "name": "mockFunctionRevertsReason",
      "outputs": [],
      "stateMutability": "payable",
      "type": "function"
    },
    {
      "inputs": [],
      "name": "mockFunctionThrows",
      "outputs": [],
      "stateMutability": "payable",
      "type": "function"
    },
    {
      "inputs": [],
      "name": "mockFunctionWritesStorage",
      "outputs": [
        {
          "internalType": "string",
          "name": "",
          "type": "string"
        }
      ],
      "stateMutability": "nonpayable",
      "type": "function"
    },
    {
      "inputs": [],
      "name": "mockStaticFunction",
      "outputs": [
        {
          "internalType": "string",
          "name": "",
          "type": "string"
        }
      ],
      "stateMutability": "pure",
      "type": "function"
    },
    {
      "inputs": [],
      "name": "sharedAnswer",
      "outputs": [
        {
          "internalType": "string",
          "name": "",
          "type": "string"
        }
      ],
      "stateMutability": "view",
      "type": "function"
    }
  ],
  "bytecode": "0x608060405261000c610011565b610195565b600054610100900460ff168061002a575061002a6100a5565b80610038575060005460ff16155b61005d5760405162461bcd60e51b815260040161005490610147565b60405180910390fd5b600054610100900460ff16158015610088576000805460ff1961ff0019909116610100171660011790555b6100906100c0565b80156100a2576000805461ff00191690555b50565b60006100ba3061014160201b6102ca1760201c565b15905090565b600054610100900460ff16806100d957506100d96100a5565b806100e7575060005460ff16155b6101035760405162461bcd60e51b815260040161005490610147565b600054610100900460ff16158015610090576000805460ff1961ff00199091166101001716600117905580156100a2576000805461ff001916905550565b3b151590565b6020808252602e908201527f496e697469616c697a61626c653a20636f6e747261637420697320616c72656160408201526d191e481a5b9a5d1a585b1a5e995960921b606082015260800190565b610423806101a46000396000f3fe6080604052600436106100865760003560e01c80633e6fec04116100595780633e6fec04146100d0578063a793ab47146100d8578063aa04f77e146100e0578063c8fc7696146100f5578063fc40cf731461010a57610086565b80630c0349681461008b5780630f63e42c146100955780632c81d638146100c05780633bcfaa14146100c8575b600080fd5b61009361011f565b005b3480156100a157600080fd5b506100aa610140565b6040516100b79190610363565b60405180910390f35b610093610086565b61009361018d565b6100aa610140565b61009361018f565b3480156100ec57600080fd5b506100aa6101ce565b34801561010157600080fd5b506100aa61021d565b34801561011657600080fd5b506100aa61023d565b60405162461bcd60e51b8152600401610137906103b6565b60405180910390fd5b6040516060907f52c66ed6ec9ca819cba26fe2b2650059270d8981b295af300187a964f54a8c2390600090a1506040805180820190915260068152650c1e0c4c8ccd60d21b602082015290565bfe5b60005b60028054600181810183556000929092527f405787fa12a823e0f2b7631cc41b3ba8828b3321ca811111fa75cd3aa3bb5ace0182905501610192565b604080518082019091526002808252611a1960f11b60209092019182526060916101fb91600191906102d0565b50506040805180820190915260068152650c1e0c4c8ccd60d21b602082015290565b6040805180820190915260068152650c1e0c4c8ccd60d21b602082015290565b60018054604080516020600284861615610100026000190190941693909304601f810184900484028201840190925281815292918301828280156102c25780601f10610297576101008083540402835291602001916102c2565b820191906000526020600020905b8154815290600101906020018083116102a557829003601f168201915b505050505081565b3b151590565b828054600181600116156101000203166002900490600052602060002090601f016020900481019282601f1061031157805160ff191683800117855561033e565b8280016001018555821561033e579182015b8281111561033e578251825591602001919060010190610323565b5061034a92915061034e565b5090565b5b8082111561034a576000815560010161034f565b6000602080835283518082850152825b8181101561038f57858101830151858201604001528201610373565b818111156103a05783604083870101525b50601f01601f1916929092016040019392505050565b6020808252601b908201527f43616c6c52656365697665724d6f636b3a20726576657274696e67000000000060408201526060019056fea2646970667358221220025a6dfe6928b2b23fb8f49ee70f3d0ad1a1944cb8b7a51e3615c7db671616fa64736f6c634300060c0033",
  "linkReferences": {},
  "deployedLinkReferences": {}
}