{
  "_format": "hh-sol-artifact-1",
  "contractName": "ClonesMockUpgradeableWithInit",
  "sourceName": "contracts/contracts-upgradeable-v3_4/mocks/WithInit.sol",
  "abi": [
    {
      "inputs": [],
      "stateMutability": "payable",
      "type": "constructor"
    },
    {
      "anonymous": false,
      "inputs": [
        {
          "indexed": false,
          "internalType": "address",
          "name": "instance",
          "type": "address"
        }
      ],
      "name": "NewInstance",
      "type": "event"
    },
    {
      "inputs": [
        {
          "internalType": "address",
          "name": "master",
          "type": "address"
        },
        {
          "internalType": "bytes",
          "name": "initdata",
          "type": "bytes"
        }
      ],
      "name": "clone",
      "outputs": [],
      "stateMutability": "payable",
      "type": "function"
    },
    {
      "inputs": [
        {
          "internalType": "address",
          "name": "master",
          "type": "address"
        },
        {
          "internalType": "bytes32",
          "name": "salt",
          "type": "bytes32"
        },
        {
          "internalType": "bytes",
          "name": "initdata",
          "type": "bytes"
        }
      ],
      "name": "cloneDeterministic",
      "outputs": [],
      "stateMutability": "payable",
      "type": "function"
    },
    {
      "inputs": [
        {
          "internalType": "address",
          "name": "master",
          "type": "address"
        },
        {
          "internalType": "bytes32",
          "name": "salt",
          "type": "bytes32"
        }
      ],
      "name": "predictDeterministicAddress",
      "outputs": [
        {
          "internalType": "address",
          "name": "predicted",
          "type": "address"
        }
      ],
      "stateMutability": "view",
      "type": "function"
    }
  ],
  "bytecode": "0x608060405261000c610011565b610195565b600054610100900460ff168061002a575061002a6100a5565b80610038575060005460ff16155b61005d5760405162461bcd60e51b815260040161005490610147565b60405180910390fd5b600054610100900460ff16158015610088576000805460ff1961ff0019909116610100171660011790555b6100906100c0565b80156100a2576000805461ff00191690555b50565b60006100ba3061014160201b6101271760201c565b15905090565b600054610100900460ff16806100d957506100d96100a5565b806100e7575060005460ff16155b6101035760405162461bcd60e51b815260040161005490610147565b600054610100900460ff16158015610090576000805460ff1961ff00199091166101001716600117905580156100a2576000805461ff001916905550565b3b151590565b6020808252602e908201527f496e697469616c697a61626c653a20636f6e747261637420697320616c72656160408201526d191e481a5b9a5d1a585b1a5e995960921b606082015260800190565b610717806101a46000396000f3fe6080604052600436106100345760003560e01c80630fbe133c14610039578063360d0fad1461004e5780636e9ebc8114610084575b600080fd5b61004c6100473660046104e7565b610097565b005b34801561005a57600080fd5b5061006e610069366004610464565b6100ed565b60405161007b9190610561565b60405180910390f35b61004c61009236600461048e565b61010b565b6100e86100ac846001600160a01b0316610131565b83838080601f0160208091040260200160405190810160405280939291908181526020018383808284376000920191909152506101a992505050565b505050565b60006101026001600160a01b03841683610201565b90505b92915050565b6101216100ac6001600160a01b0386168561020e565b50505050565b803b15155b919050565b6000604051733d602d80600a3d3981f3363d3d373d3d3d363d7360601b81528260601b60148201526e5af43d82803e903d91602b57fd5bf360881b60288201526037816000f09150506001600160a01b03811661012c5760405162461bcd60e51b81526004016101a090610625565b60405180910390fd5b8051156101c6576101c46001600160a01b038316823461027e565b505b7f39a773f10839d86923d91d5ce7d6642f2f63a95d850495abb1f162e38aa04ea5826040516101f59190610561565b60405180910390a15050565b60006101028383306102ae565b6000604051733d602d80600a3d3981f3363d3d373d3d3d363d7360601b81528360601b60148201526e5af43d82803e903d91602b57fd5bf360881b6028820152826037826000f59150506001600160a01b0381166101055760405162461bcd60e51b81526004016101a0906105a8565b60606102a48484846040518060600160405280602981526020016106b96029913961030c565b90505b9392505050565b604051733d602d80600a3d3981f3363d3d373d3d3d363d7360601b8152606093841b60148201526f5af43d82803e903d91602b57fd5bf3ff60801b6028820152921b6038830152604c8201526037808220606c830152605591012090565b60608247101561032e5760405162461bcd60e51b81526004016101a0906105df565b61033785610127565b6103535760405162461bcd60e51b81526004016101a090610655565b60006060866001600160a01b031685876040516103709190610545565b60006040518083038185875af1925050503d80600081146103ad576040519150601f19603f3d011682016040523d82523d6000602084013e6103b2565b606091505b50915091506103c28282866103cd565b979650505050505050565b606083156103dc5750816102a7565b8251156103ec5782518084602001fd5b8160405162461bcd60e51b81526004016101a09190610575565b80356001600160a01b038116811461010557600080fd5b60008083601f84011261042e578182fd5b50813567ffffffffffffffff811115610445578182fd5b60208301915083602082850101111561045d57600080fd5b9250929050565b60008060408385031215610476578182fd5b6104808484610406565b946020939093013593505050565b600080600080606085870312156104a3578182fd5b6104ad8686610406565b935060208501359250604085013567ffffffffffffffff8111156104cf578283fd5b6104db8782880161041d565b95989497509550505050565b6000806000604084860312156104fb578283fd5b83356001600160a01b0381168114610511578384fd5b9250602084013567ffffffffffffffff81111561052c578283fd5b6105388682870161041d565b9497909650939450505050565b6000825161055781846020870161068c565b9190910192915050565b6001600160a01b0391909116815260200190565b600060208252825180602084015261059481604085016020870161068c565b601f01601f19169190910160400192915050565b60208082526017908201527f455243313136373a2063726561746532206661696c6564000000000000000000604082015260600190565b60208082526026908201527f416464726573733a20696e73756666696369656e742062616c616e636520666f6040820152651c8818d85b1b60d21b606082015260800190565b602080825260169082015275115490cc4c4d8dce8818dc99585d194819985a5b195960521b604082015260600190565b6020808252601d908201527f416464726573733a2063616c6c20746f206e6f6e2d636f6e7472616374000000604082015260600190565b60005b838110156106a757818101518382015260200161068f565b83811115610121575050600091015256fe416464726573733a206c6f772d6c6576656c2063616c6c20776974682076616c7565206661696c6564a2646970667358221220eee3cf99d37971b86077e5b7072c7e63ad352d01f5a45594e0b10ae551d3ea8764736f6c634300060c0033",
  "linkReferences": {},
  "deployedLinkReferences": {}
}