{
  "_format": "hh-sol-artifact-1",
  "contractName": "ConditionalEscrowMockUpgradeableWithInit",
  "sourceName": "contracts/contracts-upgradeable-v3_4/mocks/WithInit.sol",
  "abi": [
    {
      "inputs": [],
      "stateMutability": "payable",
      "type": "constructor"
    },
    {
      "anonymous": false,
      "inputs": [
        {
          "indexed": true,
          "internalType": "address",
          "name": "payee",
          "type": "address"
        },
        {
          "indexed": false,
          "internalType": "uint256",
          "name": "weiAmount",
          "type": "uint256"
        }
      ],
      "name": "Deposited",
      "type": "event"
    },
    {
      "anonymous": false,
      "inputs": [
        {
          "indexed": true,
          "internalType": "address",
          "name": "previousOwner",
          "type": "address"
        },
        {
          "indexed": true,
          "internalType": "address",
          "name": "newOwner",
          "type": "address"
        }
      ],
      "name": "OwnershipTransferred",
      "type": "event"
    },
    {
      "anonymous": false,
      "inputs": [
        {
          "indexed": true,
          "internalType": "address",
          "name": "payee",
          "type": "address"
        },
        {
          "indexed": false,
          "internalType": "uint256",
          "name": "weiAmount",
          "type": "uint256"
        }
      ],
      "name": "Withdrawn",
      "type": "event"
    },
    {
      "inputs": [
        {
          "internalType": "address",
          "name": "payee",
          "type": "address"
        }
      ],
      "name": "deposit",
      "outputs": [],
      "stateMutability": "payable",
      "type": "function"
    },
    {
      "inputs": [
        {
          "internalType": "address",
          "name": "payee",
          "type": "address"
        }
      ],
      "name": "depositsOf",
      "outputs": [
        {
          "internalType": "uint256",
          "name": "",
          "type": "uint256"
        }
      ],
      "stateMutability": "view",
      "type": "function"
    },
    {
      "inputs": [],
      "name": "initialize",
      "outputs": [],
      "stateMutability": "nonpayable",
      "type": "function"
    },
    {
      "inputs": [],
      "name": "owner",
      "outputs": [
        {
          "internalType": "address",
          "name": "",
          "type": "address"
        }
      ],
      "stateMutability": "view",
      "type": "function"
    },
    {
      "inputs": [],
      "name": "renounceOwnership",
      "outputs": [],
      "stateMutability": "nonpayable",
      "type": "function"
    },
    {
      "inputs": [
        {
          "internalType": "address",
          "name": "payee",
          "type": "address"
        },
        {
          "internalType": "bool",
          "name": "allowed",
          "type": "bool"
        }
      ],
      "name": "setAllowed",
      "outputs": [],
      "stateMutability": "nonpayable",
      "type": "function"
    },
    {
      "inputs": [
        {
          "internalType": "address",
          "name": "newOwner",
          "type": "address"
        }
      ],
      "name": "transferOwnership",
      "outputs": [],
      "stateMutability": "nonpayable",
      "type": "function"
    },
    {
      "inputs": [
        {
          "internalType": "address payable",
          "name": "payee",
          "type": "address"
        }
      ],
      "name": "withdraw",
      "outputs": [],
      "stateMutability": "nonpayable",
      "type": "function"
    },
    {
      "inputs": [
        {
          "internalType": "address",
          "name": "payee",
          "type": "address"
        }
      ],
      "name": "withdrawalAllowed",
      "outputs": [
        {
          "internalType": "bool",
          "name": "",
          "type": "bool"
        }
      ],
      "stateMutability": "view",
      "type": "function"
    }
  ],
  "bytecode": "0x60806040526200000e62000014565b620002c0565b600054610100900460ff168062000030575062000030620000db565b806200003f575060005460ff16155b620000675760405162461bcd60e51b81526004016200005e9062000272565b60405180910390fd5b600054610100900460ff1615801562000093576000805460ff1961ff0019909116610100171660011790555b6200009d620000f9565b620000a762000183565b620000b1620000f9565b620000bb620000f9565b620000c5620000f9565b8015620000d8576000805461ff00191690555b50565b6000620000f3306200026860201b620004ed1760201c565b15905090565b600054610100900460ff168062000115575062000115620000db565b8062000124575060005460ff16155b620001435760405162461bcd60e51b81526004016200005e9062000272565b600054610100900460ff16158015620000c5576000805460ff1961ff0019909116610100171660011790558015620000d8576000805461ff001916905550565b600054610100900460ff16806200019f57506200019f620000db565b80620001ae575060005460ff16155b620001cd5760405162461bcd60e51b81526004016200005e9062000272565b600054610100900460ff16158015620001f9576000805460ff1961ff0019909116610100171660011790555b6000620002056200026e565b603380546001600160a01b0319166001600160a01b038316908117909155604051919250906000907f8be0079c531659141344cd1fd0a4f28419497f9722a3daafe3b4186f6b6457e0908290a3508015620000d8576000805461ff001916905550565b3b151590565b3390565b6020808252602e908201527f496e697469616c697a61626c653a20636f6e747261637420697320616c72656160408201526d191e481a5b9a5d1a585b1a5e995960921b606082015260800190565b610b0b80620002d06000396000f3fe6080604052600436106100865760003560e01c80638129fc1c116100595780638129fc1c146101185780638da5cb5b1461012d578063e3a9db1a1461014f578063f2fde38b1461017c578063f340fa011461019c57610086565b80634697f05d1461008b57806351cff8d9146100ad578063685ca194146100cd578063715018a614610103575b600080fd5b34801561009757600080fd5b506100ab6100a6366004610872565b6101af565b005b3480156100b957600080fd5b506100ab6100c8366004610856565b6101da565b3480156100d957600080fd5b506100ed6100e8366004610856565b610214565b6040516100fa91906108c5565b60405180910390f35b34801561010f57600080fd5b506100ab610232565b34801561012457600080fd5b506100ab6102bb565b34801561013957600080fd5b50610142610345565b6040516100fa91906108b1565b34801561015b57600080fd5b5061016f61016a366004610856565b610354565b6040516100fa9190610ab7565b34801561018857600080fd5b506100ab610197366004610856565b61036f565b6100ab6101aa366004610856565b610430565b6001600160a01b0391909116600090815260c960205260409020805460ff1916911515919091179055565b6101e381610214565b6102085760405162461bcd60e51b81526004016101ff90610a2f565b60405180910390fd5b610211816104f3565b50565b6001600160a01b0316600090815260c9602052604090205460ff1690565b61023a610593565b6001600160a01b031661024b610345565b6001600160a01b0316146102715760405162461bcd60e51b81526004016101ff90610a82565b6033546040516000916001600160a01b0316907f8be0079c531659141344cd1fd0a4f28419497f9722a3daafe3b4186f6b6457e0908390a3603380546001600160a01b0319169055565b600054610100900460ff16806102d457506102d4610597565b806102e2575060005460ff16155b6102fe5760405162461bcd60e51b81526004016101ff906109e1565b600054610100900460ff16158015610329576000805460ff1961ff0019909116610100171660011790555b6103316105a8565b8015610211576000805461ff001916905550565b6033546001600160a01b031690565b6001600160a01b031660009081526065602052604090205490565b610377610593565b6001600160a01b0316610388610345565b6001600160a01b0316146103ae5760405162461bcd60e51b81526004016101ff90610a82565b6001600160a01b0381166103d45760405162461bcd60e51b81526004016101ff906108d0565b6033546040516001600160a01b038084169216907f8be0079c531659141344cd1fd0a4f28419497f9722a3daafe3b4186f6b6457e090600090a3603380546001600160a01b0319166001600160a01b0392909216919091179055565b610438610593565b6001600160a01b0316610449610345565b6001600160a01b03161461046f5760405162461bcd60e51b81526004016101ff90610a82565b6001600160a01b0381166000908152606560205260409020543490610494908261062e565b6001600160a01b038316600081815260656020526040908190209290925590517f2da466a7b24304f47e87fa2e1e5a81b9831ce54fec19055ce277ca2f39ba42c4906104e1908490610ab7565b60405180910390a25050565b3b151590565b6104fb610593565b6001600160a01b031661050c610345565b6001600160a01b0316146105325760405162461bcd60e51b81526004016101ff90610a82565b6001600160a01b038116600081815260656020526040812080549190559061055a908261065a565b816001600160a01b03167f7084f5476618d8e60b11ef0d7d3f06914655adb8793e28ff7f018d4c76d505d5826040516104e19190610ab7565b3390565b60006105a2306104ed565b15905090565b600054610100900460ff16806105c157506105c1610597565b806105cf575060005460ff16155b6105eb5760405162461bcd60e51b81526004016101ff906109e1565b600054610100900460ff16158015610616576000805460ff1961ff0019909116610100171660011790555b61061e6106fb565b61062661077c565b6103316106fb565b6000828201838110156106535760405162461bcd60e51b81526004016101ff90610916565b9392505050565b8047101561067a5760405162461bcd60e51b81526004016101ff906109aa565b6000826001600160a01b031682604051610693906108ae565b60006040518083038185875af1925050503d80600081146106d0576040519150601f19603f3d011682016040523d82523d6000602084013e6106d5565b606091505b50509050806106f65760405162461bcd60e51b81526004016101ff9061094d565b505050565b600054610100900460ff16806107145750610714610597565b80610722575060005460ff16155b61073e5760405162461bcd60e51b81526004016101ff906109e1565b600054610100900460ff16158015610331576000805460ff1961ff0019909116610100171660011790558015610211576000805461ff001916905550565b600054610100900460ff16806107955750610795610597565b806107a3575060005460ff16155b6107bf5760405162461bcd60e51b81526004016101ff906109e1565b600054610100900460ff161580156107ea576000805460ff1961ff0019909116610100171660011790555b60006107f4610593565b603380546001600160a01b0319166001600160a01b038316908117909155604051919250906000907f8be0079c531659141344cd1fd0a4f28419497f9722a3daafe3b4186f6b6457e0908290a3508015610211576000805461ff001916905550565b600060208284031215610867578081fd5b813561065381610ac0565b60008060408385031215610884578081fd5b823561088f81610ac0565b9150602083013580151581146108a3578182fd5b809150509250929050565b90565b6001600160a01b0391909116815260200190565b901515815260200190565b60208082526026908201527f4f776e61626c653a206e6577206f776e657220697320746865207a65726f206160408201526564647265737360d01b606082015260800190565b6020808252601b908201527f536166654d6174683a206164646974696f6e206f766572666c6f770000000000604082015260600190565b6020808252603a908201527f416464726573733a20756e61626c6520746f2073656e642076616c75652c207260408201527f6563697069656e74206d61792068617665207265766572746564000000000000606082015260800190565b6020808252601d908201527f416464726573733a20696e73756666696369656e742062616c616e6365000000604082015260600190565b6020808252602e908201527f496e697469616c697a61626c653a20636f6e747261637420697320616c72656160408201526d191e481a5b9a5d1a585b1a5e995960921b606082015260800190565b60208082526033908201527f436f6e646974696f6e616c457363726f773a207061796565206973206e6f7420604082015272616c6c6f77656420746f20776974686472617760681b606082015260800190565b6020808252818101527f4f776e61626c653a2063616c6c6572206973206e6f7420746865206f776e6572604082015260600190565b90815260200190565b6001600160a01b038116811461021157600080fdfea2646970667358221220aad68116817238120bfd1559eef206e852cab3629a3cd81e972e8985153c850664736f6c634300060c0033",
  "linkReferences": {},
  "deployedLinkReferences": {}
}