{
  "_format": "hh-sol-artifact-1",
  "contractName": "Create2ImplUpgradeableWithInit",
  "sourceName": "contracts/contracts-upgradeable-v3_4/mocks/WithInit.sol",
  "abi": [
    {
      "inputs": [],
      "stateMutability": "payable",
      "type": "constructor"
    },
    {
      "inputs": [
        {
          "internalType": "bytes32",
          "name": "salt",
          "type": "bytes32"
        },
        {
          "internalType": "bytes32",
          "name": "codeHash",
          "type": "bytes32"
        }
      ],
      "name": "computeAddress",
      "outputs": [
        {
          "internalType": "address",
          "name": "",
          "type": "address"
        }
      ],
      "stateMutability": "view",
      "type": "function"
    },
    {
      "inputs": [
        {
          "internalType": "bytes32",
          "name": "salt",
          "type": "bytes32"
        },
        {
          "internalType": "bytes32",
          "name": "codeHash",
          "type": "bytes32"
        },
        {
          "internalType": "address",
          "name": "deployer",
          "type": "address"
        }
      ],
      "name": "computeAddressWithDeployer",
      "outputs": [
        {
          "internalType": "address",
          "name": "",
          "type": "address"
        }
      ],
      "stateMutability": "pure",
      "type": "function"
    },
    {
      "inputs": [
        {
          "internalType": "uint256",
          "name": "value",
          "type": "uint256"
        },
        {
          "internalType": "bytes32",
          "name": "salt",
          "type": "bytes32"
        },
        {
          "internalType": "bytes",
          "name": "code",
          "type": "bytes"
        }
      ],
      "name": "deploy",
      "outputs": [],
      "stateMutability": "nonpayable",
      "type": "function"
    },
    {
      "inputs": [
        {
          "internalType": "uint256",
          "name": "value",
          "type": "uint256"
        },
        {
          "internalType": "bytes32",
          "name": "salt",
          "type": "bytes32"
        }
      ],
      "name": "deployERC1820Implementer",
      "outputs": [],
      "stateMutability": "nonpayable",
      "type": "function"
    },
    {
      "stateMutability": "payable",
      "type": "receive"
    }
  ],
  "bytecode": "0x608060405261000c610011565b610195565b600054610100900460ff168061002a575061002a6100a5565b80610038575060005460ff16155b61005d5760405162461bcd60e51b815260040161005490610147565b60405180910390fd5b600054610100900460ff16158015610088576000805460ff1961ff0019909116610100171660011790555b6100906100c0565b80156100a2576000805461ff00191690555b50565b60006100ba3061014160201b6101521760201c565b15905090565b600054610100900460ff16806100d957506100d96100a5565b806100e7575060005460ff16155b6101035760405162461bcd60e51b815260040161005490610147565b600054610100900460ff16158015610090576000805460ff1961ff00199091166101001716600117905580156100a2576000805461ff001916905550565b3b151590565b6020808252602e908201527f496e697469616c697a61626c653a20636f6e747261637420697320616c72656160408201526d191e481a5b9a5d1a585b1a5e995960921b606082015260800190565b6105b9806101a46000396000f3fe6080604052600436106100435760003560e01c8063076c37b21461004f578063481286e61461007157806356299481146100a757806366cfa057146100c75761004a565b3661004a57005b600080fd5b34801561005b57600080fd5b5061006f61006a366004610228565b6100e7565b005b34801561007d57600080fd5b5061009161008c366004610228565b610119565b60405161009e9190610366565b60405180910390f35b3480156100b357600080fd5b506100916100c2366004610249565b61012c565b3480156100d357600080fd5b5061006f6100e236600461028c565b610141565b6101148282604051806020016100fc9061021b565b601f1982820381018352601f90910116604052610158565b505050565b600061012583836101d3565b9392505050565b60006101398484846101dc565b949350505050565b61014c838383610158565b50505050565b3b151590565b600080844710156101845760405162461bcd60e51b815260040161017b906103e6565b60405180910390fd5b82516101a25760405162461bcd60e51b815260040161017b9061037a565b8383516020850187f590506001600160a01b0381166101395760405162461bcd60e51b815260040161017b906103af565b60006101258383305b60008060ff60f81b8386866040516020016101fa949392919061032d565b60408051808303601f19018152919052805160209091012095945050505050565b6101338061045183390190565b6000806040838503121561023a578182fd5b50508035926020909101359150565b60008060006060848603121561025d578081fd5b833592506020840135915060408401356001600160a01b0381168114610281578182fd5b809150509250925092565b6000806000606084860312156102a0578283fd5b8335925060208401359150604084013567ffffffffffffffff808211156102c5578283fd5b818601915086601f8301126102d8578283fd5b8135818111156102e6578384fd5b6102f9601f8201601f191660200161041d565b915080825287602082850101111561030f578384fd5b610320816020840160208601610444565b5080925050509250925092565b6001600160f81b031994909416845260609290921b6bffffffffffffffffffffffff191660018401526015830152603582015260550190565b6001600160a01b0391909116815260200190565b6020808252818101527f437265617465323a2062797465636f6465206c656e677468206973207a65726f604082015260600190565b60208082526019908201527f437265617465323a204661696c6564206f6e206465706c6f7900000000000000604082015260600190565b6020808252601d908201527f437265617465323a20696e73756666696369656e742062616c616e6365000000604082015260600190565b60405181810167ffffffffffffffff8111828210171561043c57600080fd5b604052919050565b8281833750600091015256fe608060405234801561001057600080fd5b50610113806100206000396000f3fe6080604052348015600f57600080fd5b506004361060285760003560e01c8063249cb3fa14602d575b600080fd5b605660048036036040811015604157600080fd5b50803590602001356001600160a01b03166068565b60408051918252519081900360200190f35b60008281526001602090815260408083206001600160a01b038516845290915281205460ff16609757600060d6565b604051602001808073455243313832305f4143434550545f4d4147494360601b8152506014019050604051602081830303815290604052805190602001205b939250505056fea26469706673582212203c938aacfd7e06158330e1497e69909eaacf274d5abb658d213c415eec706b7064736f6c634300060c0033a2646970667358221220e3c506ac76182e38772daa600bb4758754d32a0af68827bf1798d14ef3e11add64736f6c634300060c0033",
  "linkReferences": {},
  "deployedLinkReferences": {}
}