{
  "_format": "hh-sol-artifact-1",
  "contractName": "EIP712ExternalUpgradeableWithInit",
  "sourceName": "contracts/contracts-upgradeable-v3_4/mocks/WithInit.sol",
  "abi": [
    {
      "inputs": [
        {
          "internalType": "string",
          "name": "name",
          "type": "string"
        },
        {
          "internalType": "string",
          "name": "version",
          "type": "string"
        }
      ],
      "stateMutability": "payable",
      "type": "constructor"
    },
    {
      "inputs": [],
      "name": "domainSeparator",
      "outputs": [
        {
          "internalType": "bytes32",
          "name": "",
          "type": "bytes32"
        }
      ],
      "stateMutability": "view",
      "type": "function"
    },
    {
      "inputs": [],
      "name": "getChainId",
      "outputs": [
        {
          "internalType": "uint256",
          "name": "chainId",
          "type": "uint256"
        }
      ],
      "stateMutability": "view",
      "type": "function"
    },
    {
      "inputs": [
        {
          "internalType": "bytes",
          "name": "signature",
          "type": "bytes"
        },
        {
          "internalType": "address",
          "name": "signer",
          "type": "address"
        },
        {
          "internalType": "address",
          "name": "mailTo",
          "type": "address"
        },
        {
          "internalType": "string",
          "name": "mailContents",
          "type": "string"
        }
      ],
      "name": "verify",
      "outputs": [],
      "stateMutability": "view",
      "type": "function"
    }
  ],
  "bytecode": "0x6080604052604051620009b6380380620009b68339810160408190526200002691620002ea565b6200003282826200003a565b50506200039f565b600054610100900460ff168062000056575062000056620000e9565b8062000065575060005460ff16155b6200008d5760405162461bcd60e51b8152600401620000849062000351565b60405180910390fd5b600054610100900460ff16158015620000b9576000805460ff1961ff0019909116610100171660011790555b620000c5838362000107565b620000d18383620001b1565b8015620000e4576000805461ff00191690555b505050565b600062000101306200023d60201b620001261760201c565b15905090565b600054610100900460ff168062000123575062000123620000e9565b8062000132575060005460ff16155b620001515760405162461bcd60e51b8152600401620000849062000351565b600054610100900460ff161580156200017d576000805460ff1961ff0019909116610100171660011790555b82516020808501919091208351918401919091206001919091556002558015620000e4576000805461ff0019169055505050565b600054610100900460ff1680620001cd5750620001cd620000e9565b80620001dc575060005460ff16155b620001fb5760405162461bcd60e51b8152600401620000849062000351565b600054610100900460ff16158015620000d1576000805460ff1961ff0019909116610100171660011790558015620000e4576000805461ff0019169055505050565b3b151590565b600082601f83011262000254578081fd5b81516001600160401b03808211156200026b578283fd5b6040516020601f8401601f19168201810183811183821017156200028d578586fd5b80604052508194508382528681858801011115620002aa57600080fd5b600092505b83831015620002ce5785830181015182840182015291820191620002af565b83831115620002e05760008185840101525b5050505092915050565b60008060408385031215620002fd578182fd5b82516001600160401b038082111562000314578384fd5b620003228683870162000243565b9350602085015191508082111562000338578283fd5b50620003478582860162000243565b9150509250929050565b6020808252602e908201527f496e697469616c697a61626c653a20636f6e747261637420697320616c72656160408201526d191e481a5b9a5d1a585b1a5e995960921b606082015260800190565b61060780620003af6000396000f3fe608060405234801561001057600080fd5b50600436106100415760003560e01c806308c6e079146100465780633408e4701461005b578063f698da2514610079575b600080fd5b6100596100543660046103ce565b610081565b005b610063610113565b604051610070919061046d565b60405180910390f35b610063610117565b60006100dd7f847fc9da8ec3c72cae85ca691245eaeb0a4a1e74f77c3a919c43afda231d39ba8484805190602001206040516020016100c293929190610476565b6040516020818303038152906040528051906020012061012c565b905060006100eb8287610165565b9050846001600160a01b0316816001600160a01b03161461010b57600080fd5b505050505050565b4690565b60006101216101bb565b905090565b3b151590565b60006101366101bb565b82604051602001610148929190610452565b604051602081830303815290604052805190602001209050919050565b600081516041146101915760405162461bcd60e51b815260040161018890610516565b60405180910390fd5b60208201516040830151606084015160001a6101af868285856101f6565b93505050505b92915050565b60006101217f8b73c3c69bb8fe3d512ecc4cf759cc79239f7b179b0ffacaa9a75d522b39400f6101e96102ec565b6101f16102f2565b6102f8565b60007f7fffffffffffffffffffffffffffffff5d576e7357a4501ddfe92f46681b20a08211156102385760405162461bcd60e51b81526004016101889061054d565b8360ff16601b148061024d57508360ff16601c145b6102695760405162461bcd60e51b81526004016101889061058f565b60006001868686866040516000815260200160405260405161028e94939291906104c1565b6020604051602081039080840390855afa1580156102b0573d6000803e3d6000fd5b5050604051601f1901519150506001600160a01b0381166102e35760405162461bcd60e51b8152600401610188906104df565b95945050505050565b60015490565b60025490565b6000838383610305610113565b3060405160200161031a959493929190610495565b6040516020818303038152906040528051906020012090509392505050565b80356001600160a01b03811681146101b557600080fd5b600082601f830112610360578081fd5b813567ffffffffffffffff80821115610377578283fd5b604051601f8301601f191681016020018281118282101715610397578485fd5b6040528281529250828483016020018610156103b257600080fd5b8260208601602083013760006020848301015250505092915050565b600080600080608085870312156103e3578384fd5b843567ffffffffffffffff808211156103fa578586fd5b61040688838901610350565b95506104158860208901610339565b94506104248860408901610339565b93506060870135915080821115610439578283fd5b5061044687828801610350565b91505092959194509250565b61190160f01b81526002810192909252602282015260420190565b90815260200190565b9283526001600160a01b03919091166020830152604082015260600190565b9485526020850193909352604084019190915260608301526001600160a01b0316608082015260a00190565b93845260ff9290921660208401526040830152606082015260800190565b60208082526018908201527f45434453413a20696e76616c6964207369676e61747572650000000000000000604082015260600190565b6020808252601f908201527f45434453413a20696e76616c6964207369676e6174757265206c656e67746800604082015260600190565b60208082526022908201527f45434453413a20696e76616c6964207369676e6174757265202773272076616c604082015261756560f01b606082015260800190565b60208082526022908201527f45434453413a20696e76616c6964207369676e6174757265202776272076616c604082015261756560f01b60608201526080019056fea2646970667358221220d05142233d7aa1650df03abab52949c28430eaea5b98d3244e19b1cbae62fae464736f6c634300060c0033",
  "linkReferences": {},
  "deployedLinkReferences": {}
}