{
  "_format": "hh-sol-artifact-1",
  "contractName": "EnumerableBytes32SetMockUpgradeableWithInit",
  "sourceName": "contracts/contracts-upgradeable-v3_4/mocks/WithInit.sol",
  "abi": [
    {
      "inputs": [],
      "stateMutability": "payable",
      "type": "constructor"
    },
    {
      "anonymous": false,
      "inputs": [
        {
          "indexed": false,
          "internalType": "bool",
          "name": "result",
          "type": "bool"
        }
      ],
      "name": "OperationResult",
      "type": "event"
    },
    {
      "inputs": [
        {
          "internalType": "bytes32",
          "name": "value",
          "type": "bytes32"
        }
      ],
      "name": "add",
      "outputs": [],
      "stateMutability": "nonpayable",
      "type": "function"
    },
    {
      "inputs": [
        {
          "internalType": "uint256",
          "name": "index",
          "type": "uint256"
        }
      ],
      "name": "at",
      "outputs": [
        {
          "internalType": "bytes32",
          "name": "",
          "type": "bytes32"
        }
      ],
      "stateMutability": "view",
      "type": "function"
    },
    {
      "inputs": [
        {
          "internalType": "bytes32",
          "name": "value",
          "type": "bytes32"
        }
      ],
      "name": "contains",
      "outputs": [
        {
          "internalType": "bool",
          "name": "",
          "type": "bool"
        }
      ],
      "stateMutability": "view",
      "type": "function"
    },
    {
      "inputs": [],
      "name": "length",
      "outputs": [
        {
          "internalType": "uint256",
          "name": "",
          "type": "uint256"
        }
      ],
      "stateMutability": "view",
      "type": "function"
    },
    {
      "inputs": [
        {
          "internalType": "bytes32",
          "name": "value",
          "type": "bytes32"
        }
      ],
      "name": "remove",
      "outputs": [],
      "stateMutability": "nonpayable",
      "type": "function"
    }
  ],
  "bytecode": "0x608060405261000c610011565b610195565b600054610100900460ff168061002a575061002a6100a5565b80610038575060005460ff16155b61005d5760405162461bcd60e51b815260040161005490610147565b60405180910390fd5b600054610100900460ff16158015610088576000805460ff1961ff0019909116610100171660011790555b6100906100c0565b80156100a2576000805461ff00191690555b50565b60006100ba3061014160201b61015d1760201c565b15905090565b600054610100900460ff16806100d957506100d96100a5565b806100e7575060005460ff16155b6101035760405162461bcd60e51b815260040161005490610147565b600054610100900460ff16158015610090576000805460ff1961ff00199091166101001716600117905580156100a2576000805461ff001916905550565b3b151590565b6020808252602e908201527f496e697469616c697a61626c653a20636f6e747261637420697320616c72656160408201526d191e481a5b9a5d1a585b1a5e995960921b606082015260800190565b6103c3806101a46000396000f3fe608060405234801561001057600080fd5b50600436106100575760003560e01c80631d1a696d1461005c5780631f7b6d3214610085578063446bffba1461009a57806395bc2673146100af578063e0886f90146100c2575b600080fd5b61006f61006a36600461031f565b6100d5565b60405161007c9190610337565b60405180910390f35b61008d6100e8565b60405161007c9190610342565b6100ad6100a836600461031f565b6100f9565b005b6100ad6100bd36600461031f565b610143565b61008d6100d036600461031f565b610150565b60006100e2600183610163565b92915050565b60006100f46001610176565b905090565b6000610106600183610181565b90507fed9840e0775590557ad736875d96c95cf1458b766335f74339951a32c82a9e33816040516101379190610337565b60405180910390a15050565b600061010660018361018d565b60006100e2600183610199565b3b151590565b600061016f83836101a5565b9392505050565b60006100e2826101bd565b600061016f83836101c1565b600061016f838361020b565b600061016f83836102d1565b60009081526001919091016020526040902054151590565b5490565b60006101cd83836101a5565b610203575081546001818101845560008481526020808220909301849055845484825282860190935260409020919091556100e2565b5060006100e2565b600081815260018301602052604081205480156102c7578354600019808301919081019060009087908390811061023e57fe5b906000526020600020015490508087600001848154811061025b57fe5b60009182526020808320909101929092558281526001898101909252604090209084019055865487908061028b57fe5b600190038181906000526020600020016000905590558660010160008781526020019081526020016000206000905560019450505050506100e2565b60009150506100e2565b815460009082106102fd5760405162461bcd60e51b81526004016102f49061034b565b60405180910390fd5b82600001828154811061030c57fe5b9060005260206000200154905092915050565b600060208284031215610330578081fd5b5035919050565b901515815260200190565b90815260200190565b60208082526022908201527f456e756d657261626c655365743a20696e646578206f7574206f6620626f756e604082015261647360f01b60608201526080019056fea264697066735822122048c4144ee43e90ed4deee7cf271a3ea2ea7510c712fbf3a6a06147b05096d7d164736f6c634300060c0033",
  "linkReferences": {},
  "deployedLinkReferences": {}
}