{
  "_format": "hh-sol-artifact-1",
  "contractName": "EnumerableAddressSetMockUpgradeableWithInit",
  "sourceName": "contracts/contracts-upgradeable-v3_4/mocks/WithInit.sol",
  "abi": [
    {
      "inputs": [],
      "stateMutability": "payable",
      "type": "constructor"
    },
    {
      "anonymous": false,
      "inputs": [
        {
          "indexed": false,
          "internalType": "bool",
          "name": "result",
          "type": "bool"
        }
      ],
      "name": "OperationResult",
      "type": "event"
    },
    {
      "inputs": [
        {
          "internalType": "address",
          "name": "value",
          "type": "address"
        }
      ],
      "name": "add",
      "outputs": [],
      "stateMutability": "nonpayable",
      "type": "function"
    },
    {
      "inputs": [
        {
          "internalType": "uint256",
          "name": "index",
          "type": "uint256"
        }
      ],
      "name": "at",
      "outputs": [
        {
          "internalType": "address",
          "name": "",
          "type": "address"
        }
      ],
      "stateMutability": "view",
      "type": "function"
    },
    {
      "inputs": [
        {
          "internalType": "address",
          "name": "value",
          "type": "address"
        }
      ],
      "name": "contains",
      "outputs": [
        {
          "internalType": "bool",
          "name": "",
          "type": "bool"
        }
      ],
      "stateMutability": "view",
      "type": "function"
    },
    {
      "inputs": [],
      "name": "length",
      "outputs": [
        {
          "internalType": "uint256",
          "name": "",
          "type": "uint256"
        }
      ],
      "stateMutability": "view",
      "type": "function"
    },
    {
      "inputs": [
        {
          "internalType": "address",
          "name": "value",
          "type": "address"
        }
      ],
      "name": "remove",
      "outputs": [],
      "stateMutability": "nonpayable",
      "type": "function"
    }
  ],
  "bytecode": "0x608060405261000c610011565b610195565b600054610100900460ff168061002a575061002a6100a5565b80610038575060005460ff16155b61005d5760405162461bcd60e51b815260040161005490610147565b60405180910390fd5b600054610100900460ff16158015610088576000805460ff1961ff0019909116610100171660011790555b6100906100c0565b80156100a2576000805461ff00191690555b50565b60006100ba3061014160201b61016a1760201c565b15905090565b600054610100900460ff16806100d957506100d96100a5565b806100e7575060005460ff16155b6101035760405162461bcd60e51b815260040161005490610147565b600054610100900460ff16158015610090576000805460ff1961ff00199091166101001716600117905580156100a2576000805461ff001916905550565b3b151590565b6020808252602e908201527f496e697469616c697a61626c653a20636f6e747261637420697320616c72656160408201526d191e481a5b9a5d1a585b1a5e995960921b606082015260800190565b610426806101a46000396000f3fe608060405234801561001057600080fd5b50600436106100575760003560e01c80630a3b0a4f1461005c5780631f7b6d321461007157806329092d0e1461008f5780635dbe47e8146100a2578063e0886f90146100c2575b600080fd5b61006f61006a366004610347565b6100e2565b005b61007961012c565b60405161008691906103e7565b60405180910390f35b61006f61009d366004610347565b61013d565b6100b56100b0366004610347565b61014a565b604051610086919061039a565b6100d56100d036600461036e565b61015d565b6040516100869190610386565b60006100ef600183610170565b90507fed9840e0775590557ad736875d96c95cf1458b766335f74339951a32c82a9e3381604051610120919061039a565b60405180910390a15050565b6000610138600161018c565b905090565b60006100ef600183610197565b60006101576001836101ac565b92915050565b60006101576001836101c1565b3b151590565b6000610185836001600160a01b0384166101cd565b9392505050565b600061015782610217565b6000610185836001600160a01b03841661021b565b6000610185836001600160a01b0384166102e1565b600061018583836102f9565b60006101d983836102e1565b61020f57508154600181810184556000848152602080822090930184905584548482528286019093526040902091909155610157565b506000610157565b5490565b600081815260018301602052604081205480156102d7578354600019808301919081019060009087908390811061024e57fe5b906000526020600020015490508087600001848154811061026b57fe5b60009182526020808320909101929092558281526001898101909252604090209084019055865487908061029b57fe5b60019003818190600052602060002001600090559055866001016000878152602001908152602001600020600090556001945050505050610157565b6000915050610157565b60009081526001919091016020526040902054151590565b815460009082106103255760405162461bcd60e51b815260040161031c906103a5565b60405180910390fd5b82600001828154811061033457fe5b9060005260206000200154905092915050565b600060208284031215610358578081fd5b81356001600160a01b0381168114610185578182fd5b60006020828403121561037f578081fd5b5035919050565b6001600160a01b0391909116815260200190565b901515815260200190565b60208082526022908201527f456e756d657261626c655365743a20696e646578206f7574206f6620626f756e604082015261647360f01b606082015260800190565b9081526020019056fea2646970667358221220e850b017f9b062fc77fe859d0cf7dd60d288c83b66db711a0c5aef4874e510de64736f6c634300060c0033",
  "linkReferences": {},
  "deployedLinkReferences": {}
}