{
  "_format": "hh-sol-artifact-1",
  "contractName": "EnumerableUintSetMockUpgradeableWithInit",
  "sourceName": "contracts/contracts-upgradeable-v3_4/mocks/WithInit.sol",
  "abi": [
    {
      "inputs": [],
      "stateMutability": "payable",
      "type": "constructor"
    },
    {
      "anonymous": false,
      "inputs": [
        {
          "indexed": false,
          "internalType": "bool",
          "name": "result",
          "type": "bool"
        }
      ],
      "name": "OperationResult",
      "type": "event"
    },
    {
      "inputs": [
        {
          "internalType": "uint256",
          "name": "value",
          "type": "uint256"
        }
      ],
      "name": "add",
      "outputs": [],
      "stateMutability": "nonpayable",
      "type": "function"
    },
    {
      "inputs": [
        {
          "internalType": "uint256",
          "name": "index",
          "type": "uint256"
        }
      ],
      "name": "at",
      "outputs": [
        {
          "internalType": "uint256",
          "name": "",
          "type": "uint256"
        }
      ],
      "stateMutability": "view",
      "type": "function"
    },
    {
      "inputs": [
        {
          "internalType": "uint256",
          "name": "value",
          "type": "uint256"
        }
      ],
      "name": "contains",
      "outputs": [
        {
          "internalType": "bool",
          "name": "",
          "type": "bool"
        }
      ],
      "stateMutability": "view",
      "type": "function"
    },
    {
      "inputs": [],
      "name": "length",
      "outputs": [
        {
          "internalType": "uint256",
          "name": "",
          "type": "uint256"
        }
      ],
      "stateMutability": "view",
      "type": "function"
    },
    {
      "inputs": [
        {
          "internalType": "uint256",
          "name": "value",
          "type": "uint256"
        }
      ],
      "name": "remove",
      "outputs": [],
      "stateMutability": "nonpayable",
      "type": "function"
    }
  ],
  "bytecode": "0x608060405261000c610011565b610195565b600054610100900460ff168061002a575061002a6100a5565b80610038575060005460ff16155b61005d5760405162461bcd60e51b815260040161005490610147565b60405180910390fd5b600054610100900460ff16158015610088576000805460ff1961ff0019909116610100171660011790555b6100906100c0565b80156100a2576000805461ff00191690555b50565b60006100ba3061014160201b61015d1760201c565b15905090565b600054610100900460ff16806100d957506100d96100a5565b806100e7575060005460ff16155b6101035760405162461bcd60e51b815260040161005490610147565b600054610100900460ff16158015610090576000805460ff1961ff00199091166101001716600117905580156100a2576000805461ff001916905550565b3b151590565b6020808252602e908201527f496e697469616c697a61626c653a20636f6e747261637420697320616c72656160408201526d191e481a5b9a5d1a585b1a5e995960921b606082015260800190565b6103c3806101a46000396000f3fe608060405234801561001057600080fd5b50600436106100575760003560e01c80631003e2d21461005c5780631f7b6d32146100715780634cc822151461008f578063c34052e0146100a2578063e0886f90146100c2575b600080fd5b61006f61006a36600461031f565b6100d5565b005b61007961011f565b6040516100869190610384565b60405180910390f35b61006f61009d36600461031f565b610130565b6100b56100b036600461031f565b61013d565b6040516100869190610337565b6100796100d036600461031f565b610150565b60006100e2600183610163565b90507fed9840e0775590557ad736875d96c95cf1458b766335f74339951a32c82a9e33816040516101139190610337565b60405180910390a15050565b600061012b6001610176565b905090565b60006100e2600183610181565b600061014a60018361018d565b92915050565b600061014a600183610199565b3b151590565b600061016f83836101a5565b9392505050565b600061014a826101ef565b600061016f83836101f3565b600061016f83836102b9565b600061016f83836102d1565b60006101b183836102b9565b6101e75750815460018181018455600084815260208082209093018490558454848252828601909352604090209190915561014a565b50600061014a565b5490565b600081815260018301602052604081205480156102af578354600019808301919081019060009087908390811061022657fe5b906000526020600020015490508087600001848154811061024357fe5b60009182526020808320909101929092558281526001898101909252604090209084019055865487908061027357fe5b6001900381819060005260206000200160009055905586600101600087815260200190815260200160002060009055600194505050505061014a565b600091505061014a565b60009081526001919091016020526040902054151590565b815460009082106102fd5760405162461bcd60e51b81526004016102f490610342565b60405180910390fd5b82600001828154811061030c57fe5b9060005260206000200154905092915050565b600060208284031215610330578081fd5b5035919050565b901515815260200190565b60208082526022908201527f456e756d657261626c655365743a20696e646578206f7574206f6620626f756e604082015261647360f01b606082015260800190565b9081526020019056fea264697066735822122037c0c5a2a21d7bda423fe0c001129986272ef16510a798f39c28e4c140da290964736f6c634300060c0033",
  "linkReferences": {},
  "deployedLinkReferences": {}
}