{
  "_format": "hh-sol-artifact-1",
  "contractName": "ERC1155PausableMockUpgradeableWithInit",
  "sourceName": "contracts/contracts-upgradeable-v3_4/mocks/WithInit.sol",
  "abi": [
    {
      "inputs": [
        {
          "internalType": "string",
          "name": "uri",
          "type": "string"
        }
      ],
      "stateMutability": "payable",
      "type": "constructor"
    },
    {
      "anonymous": false,
      "inputs": [
        {
          "indexed": true,
          "internalType": "address",
          "name": "account",
          "type": "address"
        },
        {
          "indexed": true,
          "internalType": "address",
          "name": "operator",
          "type": "address"
        },
        {
          "indexed": false,
          "internalType": "bool",
          "name": "approved",
          "type": "bool"
        }
      ],
      "name": "ApprovalForAll",
      "type": "event"
    },
    {
      "anonymous": false,
      "inputs": [
        {
          "indexed": false,
          "internalType": "address",
          "name": "account",
          "type": "address"
        }
      ],
      "name": "Paused",
      "type": "event"
    },
    {
      "anonymous": false,
      "inputs": [
        {
          "indexed": true,
          "internalType": "address",
          "name": "operator",
          "type": "address"
        },
        {
          "indexed": true,
          "internalType": "address",
          "name": "from",
          "type": "address"
        },
        {
          "indexed": true,
          "internalType": "address",
          "name": "to",
          "type": "address"
        },
        {
          "indexed": false,
          "internalType": "uint256[]",
          "name": "ids",
          "type": "uint256[]"
        },
        {
          "indexed": false,
          "internalType": "uint256[]",
          "name": "values",
          "type": "uint256[]"
        }
      ],
      "name": "TransferBatch",
      "type": "event"
    },
    {
      "anonymous": false,
      "inputs": [
        {
          "indexed": true,
          "internalType": "address",
          "name": "operator",
          "type": "address"
        },
        {
          "indexed": true,
          "internalType": "address",
          "name": "from",
          "type": "address"
        },
        {
          "indexed": true,
          "internalType": "address",
          "name": "to",
          "type": "address"
        },
        {
          "indexed": false,
          "internalType": "uint256",
          "name": "id",
          "type": "uint256"
        },
        {
          "indexed": false,
          "internalType": "uint256",
          "name": "value",
          "type": "uint256"
        }
      ],
      "name": "TransferSingle",
      "type": "event"
    },
    {
      "anonymous": false,
      "inputs": [
        {
          "indexed": false,
          "internalType": "string",
          "name": "value",
          "type": "string"
        },
        {
          "indexed": true,
          "internalType": "uint256",
          "name": "id",
          "type": "uint256"
        }
      ],
      "name": "URI",
      "type": "event"
    },
    {
      "anonymous": false,
      "inputs": [
        {
          "indexed": false,
          "internalType": "address",
          "name": "account",
          "type": "address"
        }
      ],
      "name": "Unpaused",
      "type": "event"
    },
    {
      "inputs": [
        {
          "internalType": "address",
          "name": "account",
          "type": "address"
        },
        {
          "internalType": "uint256",
          "name": "id",
          "type": "uint256"
        }
      ],
      "name": "balanceOf",
      "outputs": [
        {
          "internalType": "uint256",
          "name": "",
          "type": "uint256"
        }
      ],
      "stateMutability": "view",
      "type": "function"
    },
    {
      "inputs": [
        {
          "internalType": "address[]",
          "name": "accounts",
          "type": "address[]"
        },
        {
          "internalType": "uint256[]",
          "name": "ids",
          "type": "uint256[]"
        }
      ],
      "name": "balanceOfBatch",
      "outputs": [
        {
          "internalType": "uint256[]",
          "name": "",
          "type": "uint256[]"
        }
      ],
      "stateMutability": "view",
      "type": "function"
    },
    {
      "inputs": [
        {
          "internalType": "address",
          "name": "owner",
          "type": "address"
        },
        {
          "internalType": "uint256",
          "name": "id",
          "type": "uint256"
        },
        {
          "internalType": "uint256",
          "name": "value",
          "type": "uint256"
        }
      ],
      "name": "burn",
      "outputs": [],
      "stateMutability": "nonpayable",
      "type": "function"
    },
    {
      "inputs": [
        {
          "internalType": "address",
          "name": "owner",
          "type": "address"
        },
        {
          "internalType": "uint256[]",
          "name": "ids",
          "type": "uint256[]"
        },
        {
          "internalType": "uint256[]",
          "name": "values",
          "type": "uint256[]"
        }
      ],
      "name": "burnBatch",
      "outputs": [],
      "stateMutability": "nonpayable",
      "type": "function"
    },
    {
      "inputs": [
        {
          "internalType": "address",
          "name": "account",
          "type": "address"
        },
        {
          "internalType": "address",
          "name": "operator",
          "type": "address"
        }
      ],
      "name": "isApprovedForAll",
      "outputs": [
        {
          "internalType": "bool",
          "name": "",
          "type": "bool"
        }
      ],
      "stateMutability": "view",
      "type": "function"
    },
    {
      "inputs": [
        {
          "internalType": "address",
          "name": "to",
          "type": "address"
        },
        {
          "internalType": "uint256",
          "name": "id",
          "type": "uint256"
        },
        {
          "internalType": "uint256",
          "name": "value",
          "type": "uint256"
        },
        {
          "internalType": "bytes",
          "name": "data",
          "type": "bytes"
        }
      ],
      "name": "mint",
      "outputs": [],
      "stateMutability": "nonpayable",
      "type": "function"
    },
    {
      "inputs": [
        {
          "internalType": "address",
          "name": "to",
          "type": "address"
        },
        {
          "internalType": "uint256[]",
          "name": "ids",
          "type": "uint256[]"
        },
        {
          "internalType": "uint256[]",
          "name": "values",
          "type": "uint256[]"
        },
        {
          "internalType": "bytes",
          "name": "data",
          "type": "bytes"
        }
      ],
      "name": "mintBatch",
      "outputs": [],
      "stateMutability": "nonpayable",
      "type": "function"
    },
    {
      "inputs": [],
      "name": "pause",
      "outputs": [],
      "stateMutability": "nonpayable",
      "type": "function"
    },
    {
      "inputs": [],
      "name": "paused",
      "outputs": [
        {
          "internalType": "bool",
          "name": "",
          "type": "bool"
        }
      ],
      "stateMutability": "view",
      "type": "function"
    },
    {
      "inputs": [
        {
          "internalType": "address",
          "name": "from",
          "type": "address"
        },
        {
          "internalType": "address",
          "name": "to",
          "type": "address"
        },
        {
          "internalType": "uint256[]",
          "name": "ids",
          "type": "uint256[]"
        },
        {
          "internalType": "uint256[]",
          "name": "amounts",
          "type": "uint256[]"
        },
        {
          "internalType": "bytes",
          "name": "data",
          "type": "bytes"
        }
      ],
      "name": "safeBatchTransferFrom",
      "outputs": [],
      "stateMutability": "nonpayable",
      "type": "function"
    },
    {
      "inputs": [
        {
          "internalType": "address",
          "name": "from",
          "type": "address"
        },
        {
          "internalType": "address",
          "name": "to",
          "type": "address"
        },
        {
          "internalType": "uint256",
          "name": "id",
          "type": "uint256"
        },
        {
          "internalType": "uint256",
          "name": "amount",
          "type": "uint256"
        },
        {
          "internalType": "bytes",
          "name": "data",
          "type": "bytes"
        }
      ],
      "name": "safeTransferFrom",
      "outputs": [],
      "stateMutability": "nonpayable",
      "type": "function"
    },
    {
      "inputs": [
        {
          "internalType": "address",
          "name": "operator",
          "type": "address"
        },
        {
          "internalType": "bool",
          "name": "approved",
          "type": "bool"
        }
      ],
      "name": "setApprovalForAll",
      "outputs": [],
      "stateMutability": "nonpayable",
      "type": "function"
    },
    {
      "inputs": [
        {
          "internalType": "string",
          "name": "newuri",
          "type": "string"
        }
      ],
      "name": "setURI",
      "outputs": [],
      "stateMutability": "nonpayable",
      "type": "function"
    },
    {
      "inputs": [
        {
          "internalType": "bytes4",
          "name": "interfaceId",
          "type": "bytes4"
        }
      ],
      "name": "supportsInterface",
      "outputs": [
        {
          "internalType": "bool",
          "name": "",
          "type": "bool"
        }
      ],
      "stateMutability": "view",
      "type": "function"
    },
    {
      "inputs": [],
      "name": "unpause",
      "outputs": [],
      "stateMutability": "nonpayable",
      "type": "function"
    },
    {
      "inputs": [
        {
          "internalType": "uint256",
          "name": "",
          "type": "uint256"
        }
      ],
      "name": "uri",
      "outputs": [
        {
          "internalType": "string",
          "name": "",
          "type": "string"
        }
      ],
      "stateMutability": "view",
      "type": "function"
    }
  ],
  "bytecode": "0x6080604052604051620025f5380380620025f5833981016040819052620000269162000511565b620000318162000038565b506200066b565b600054610100900460ff16806200005457506200005462000117565b8062000063575060005460ff16155b6200008b5760405162461bcd60e51b81526004016200008290620005ea565b60405180910390fd5b600054610100900460ff16158015620000b7576000805460ff1961ff0019909116610100171660011790555b620000c162000135565b620000cb620001c1565b620000d68262000249565b620000e182620002ee565b620000eb62000379565b620000f562000135565b6200010082620002ee565b801562000113576000805461ff00191690555b5050565b60006200012f306200040e60201b620009421760201c565b15905090565b600054610100900460ff16806200015157506200015162000117565b8062000160575060005460ff16155b6200017f5760405162461bcd60e51b81526004016200008290620005ea565b600054610100900460ff16158015620001ab576000805460ff1961ff0019909116610100171660011790555b8015620001be576000805461ff00191690555b50565b600054610100900460ff1680620001dd5750620001dd62000117565b80620001ec575060005460ff16155b6200020b5760405162461bcd60e51b81526004016200008290620005ea565b600054610100900460ff1615801562000237576000805460ff1961ff0019909116610100171660011790555b620001ab6301ffc9a760e01b62000414565b600054610100900460ff16806200026557506200026562000117565b8062000274575060005460ff16155b620002935760405162461bcd60e51b81526004016200008290620005ea565b600054610100900460ff16158015620002bf576000805460ff1961ff0019909116610100171660011790555b620002ca8262000466565b620002dc636cdb3d1360e11b62000414565b620001006303a24d0760e21b62000414565b600054610100900460ff16806200030a57506200030a62000117565b8062000319575060005460ff16155b620003385760405162461bcd60e51b81526004016200008290620005ea565b600054610100900460ff1615801562000100576000805460ff1961ff001990911661010017166001179055801562000113576000805461ff00191690555050565b600054610100900460ff16806200039557506200039562000117565b80620003a4575060005460ff16155b620003c35760405162461bcd60e51b81526004016200008290620005ea565b600054610100900460ff16158015620003ef576000805460ff1961ff0019909116610100171660011790555b60c9805460ff191690558015620001be576000805461ff001916905550565b3b151590565b6001600160e01b03198082161415620004415760405162461bcd60e51b81526004016200008290620005b3565b6001600160e01b0319166000908152603360205260409020805460ff19166001179055565b805162000113906067906020840190828054600181600116156101000203166002900490600052602060002090601f016020900481019282601f10620004b857805160ff1916838001178555620004e8565b82800160010185558215620004e8579182015b82811115620004e8578251825591602001919060010190620004cb565b50620004f6929150620004fa565b5090565b5b80821115620004f65760008155600101620004fb565b60006020828403121562000523578081fd5b81516001600160401b03808211156200053a578283fd5b818401915084601f8301126200054e578283fd5b8151818111156200055d578384fd5b604051601f8201601f1916810160200183811182821017156200057e578586fd5b60405281815283820160200187101562000596578485fd5b620005a982602083016020870162000638565b9695505050505050565b6020808252601c908201527f4552433136353a20696e76616c696420696e7465726661636520696400000000604082015260600190565b6020808252602e908201527f496e697469616c697a61626c653a20636f6e747261637420697320616c72656160408201526d191e481a5b9a5d1a585b1a5e995960921b606082015260800190565b60005b83811015620006555781810151838201526020016200063b565b8381111562000665576000848401525b50505050565b611f7a806200067b6000396000f3fe608060405234801561001057600080fd5b50600436106100ff5760003560e01c80635c975abb11610097578063a22cb46511610066578063a22cb46514610206578063e985e9c514610219578063f242432a1461022c578063f5298aca1461023f576100ff565b80635c975abb146101d05780636b20c454146101d8578063731133e9146101eb5780638456cb59146101fe576100ff565b80631f7fdffa116100d35780631f7fdffa146101825780632eb2c2d6146101955780633f4ba83a146101a85780634e1273f4146101b0576100ff565b8062fdd58e1461010457806301ffc9a71461012d57806302fe53051461014d5780630e89341c14610162575b600080fd5b610117610112366004611628565b610252565b6040516101249190611dc2565b60405180910390f35b61014061013b36600461179c565b6102ae565b60405161012491906119a4565b61016061015b3660046117d4565b6102cd565b005b61017561017036600461180f565b6102d9565b60405161012491906119af565b610160610190366004611557565b610371565b6101606101a33660046113d5565b610383565b6101606105a2565b6101c36101be3660046116da565b6105ac565b6040516101249190611963565b610140610679565b6101606101e63660046114e4565b610683565b6101606101f9366004611685565b610693565b61016061069f565b6101606102143660046115ed565b6106a7565b6101406102273660046113a1565b610775565b61016061023a36600461147f565b6107a3565b61016061024d366004611652565b610937565b60006001600160a01b0383166102835760405162461bcd60e51b815260040161027a90611a8c565b60405180910390fd5b5060008181526065602090815260408083206001600160a01b03861684529091529020545b92915050565b6001600160e01b03191660009081526033602052604090205460ff1690565b6102d681610948565b50565b60678054604080516020601f60026000196101006001881615020190951694909404938401819004810282018101909252828152606093909290918301828280156103655780601f1061033a57610100808354040283529160200191610365565b820191906000526020600020905b81548152906001019060200180831161034857829003601f168201915b50505050509050919050565b61037d8484848461095f565b50505050565b81518351146103a45760405162461bcd60e51b815260040161027a90611d39565b6001600160a01b0384166103ca5760405162461bcd60e51b815260040161027a90611bcd565b6103d2610af4565b6001600160a01b0316856001600160a01b031614806103f857506103f885610227610af4565b6104145760405162461bcd60e51b815260040161027a90611c12565b600061041e610af4565b905061042e818787878787610af8565b60005b845181101561053457600085828151811061044857fe5b60200260200101519050600085838151811061046057fe5b602002602001015190506104cd816040518060600160405280602a8152602001611f1b602a91396065600086815260200190815260200160002060008d6001600160a01b03166001600160a01b0316815260200190815260200160002054610b069092919063ffffffff16565b60008381526065602090815260408083206001600160a01b038e811685529252808320939093558a16815220546105049082610b32565b60009283526065602090815260408085206001600160a01b038c1686529091529092209190915550600101610431565b50846001600160a01b0316866001600160a01b0316826001600160a01b03167f4a39dc06d4c0dbc64b70af90fd698a233a518aa5d07e595d983b8c0526c8f7fb8787604051610584929190611976565b60405180910390a461059a818787878787610b5e565b505050505050565b6105aa610c75565b565b606081518351146105cf5760405162461bcd60e51b815260040161027a90611cf0565b6060835167ffffffffffffffff811180156105e957600080fd5b50604051908082528060200260200182016040528015610613578160200160208202803683370190505b50905060005b84518110156106715761065285828151811061063157fe5b602002602001015185838151811061064557fe5b6020026020010151610252565b82828151811061065e57fe5b6020908102919091010152600101610619565b509392505050565b60c95460ff165b90565b61068e838383610ce3565b505050565b61037d84848484610e91565b6105aa610f75565b816001600160a01b03166106b9610af4565b6001600160a01b031614156106e05760405162461bcd60e51b815260040161027a90611ca7565b80606660006106ed610af4565b6001600160a01b03908116825260208083019390935260409182016000908120918716808252919093529120805460ff191692151592909217909155610731610af4565b6001600160a01b03167f17307eab39ab6107e8899845ad3d59bd9653f200f220920489ca2b5937696c318360405161076991906119a4565b60405180910390a35050565b6001600160a01b03918216600090815260666020908152604080832093909416825291909152205460ff1690565b6001600160a01b0384166107c95760405162461bcd60e51b815260040161027a90611bcd565b6107d1610af4565b6001600160a01b0316856001600160a01b031614806107f757506107f785610227610af4565b6108135760405162461bcd60e51b815260040161027a90611b5a565b600061081d610af4565b905061083d81878761082e88610fd0565b61083788610fd0565b87610af8565b610884836040518060600160405280602a8152602001611f1b602a913960008781526065602090815260408083206001600160a01b038d1684529091529020549190610b06565b60008581526065602090815260408083206001600160a01b038b811685529252808320939093558716815220546108bb9084610b32565b60008581526065602090815260408083206001600160a01b03808b168086529190935292819020939093559151909188811691908416907fc3d58168c5ae7397731d063d5bbf3d657854427343f4c083240f7aacaa2d0f62906109219089908990611dcb565b60405180910390a461059a818787878787611014565b61068e8383836110e5565b3b151590565b805161095b906067906020840190611220565b5050565b6001600160a01b0384166109855760405162461bcd60e51b815260040161027a90611d81565b81518351146109a65760405162461bcd60e51b815260040161027a90611d39565b60006109b0610af4565b90506109c181600087878787610af8565b60005b8451811015610a8557610a3c606560008784815181106109e057fe5b602002602001015181526020019081526020016000206000886001600160a01b03166001600160a01b0316815260200190815260200160002054858381518110610a2657fe5b6020026020010151610b3290919063ffffffff16565b60656000878481518110610a4c57fe5b602090810291909101810151825281810192909252604090810160009081206001600160a01b038b1682529092529020556001016109c4565b50846001600160a01b031660006001600160a01b0316826001600160a01b03167f4a39dc06d4c0dbc64b70af90fd698a233a518aa5d07e595d983b8c0526c8f7fb8787604051610ad6929190611976565b60405180910390a4610aed81600087878787610b5e565b5050505050565b3390565b61059a8686868686866111ed565b60008184841115610b2a5760405162461bcd60e51b815260040161027a91906119af565b505050900390565b600082820183811015610b575760405162461bcd60e51b815260040161027a90611ad7565b9392505050565b610b70846001600160a01b0316610942565b1561059a5760405163bc197c8160e01b81526001600160a01b0385169063bc197c8190610ba990899089908890889088906004016118c0565b602060405180830381600087803b158015610bc357600080fd5b505af1925050508015610bf3575060408051601f3d908101601f19168201909252610bf0918101906117b8565b60015b610c3c57610bff611e26565b80610c0a5750610c24565b8060405162461bcd60e51b815260040161027a91906119af565b60405162461bcd60e51b815260040161027a906119c2565b6001600160e01b0319811663bc197c8160e01b14610c6c5760405162461bcd60e51b815260040161027a90611a16565b50505050505050565b610c7d610679565b610c995760405162461bcd60e51b815260040161027a90611a5e565b60c9805460ff191690557f5db9ee0a495bf2e6ff9c91a7834c1ba4fdd244a5e8aa4e537bd38aeae4b073aa610ccc610af4565b604051610cd991906118ac565b60405180910390a1565b6001600160a01b038316610d095760405162461bcd60e51b815260040161027a90611c64565b8051825114610d2a5760405162461bcd60e51b815260040161027a90611d39565b6000610d34610af4565b9050610d5481856000868660405180602001604052806000815250610af8565b60005b8351811015610e3257610de9838281518110610d6f57fe5b6020026020010151604051806060016040528060248152602001611ef76024913960656000888681518110610da057fe5b602002602001015181526020019081526020016000206000896001600160a01b03166001600160a01b0316815260200190815260200160002054610b069092919063ffffffff16565b60656000868481518110610df957fe5b602090810291909101810151825281810192909252604090810160009081206001600160a01b038a168252909252902055600101610d57565b5060006001600160a01b0316846001600160a01b0316826001600160a01b03167f4a39dc06d4c0dbc64b70af90fd698a233a518aa5d07e595d983b8c0526c8f7fb8686604051610e83929190611976565b60405180910390a450505050565b6001600160a01b038416610eb75760405162461bcd60e51b815260040161027a90611d81565b6000610ec1610af4565b9050610ed38160008761082e88610fd0565b60008481526065602090815260408083206001600160a01b0389168452909152902054610f009084610b32565b60008581526065602090815260408083206001600160a01b03808b16808652919093528184209490945551908416907fc3d58168c5ae7397731d063d5bbf3d657854427343f4c083240f7aacaa2d0f6290610f5e9089908990611dcb565b60405180910390a4610aed81600087878787611014565b610f7d610679565b15610f9a5760405162461bcd60e51b815260040161027a90611ba3565b60c9805460ff191660011790557f62e78cea01bee320cd4e420270b5ea74000d11b0c9f74754ebdbfc544b05a258610ccc610af4565b60408051600180825281830190925260609182919060208083019080368337019050509050828160008151811061100357fe5b602090810291909101015292915050565b611026846001600160a01b0316610942565b1561059a5760405163f23a6e6160e01b81526001600160a01b0385169063f23a6e619061105f908990899088908890889060040161191e565b602060405180830381600087803b15801561107957600080fd5b505af19250505080156110a9575060408051601f3d908101601f191682019092526110a6918101906117b8565b60015b6110b557610bff611e26565b6001600160e01b0319811663f23a6e6160e01b14610c6c5760405162461bcd60e51b815260040161027a90611a16565b6001600160a01b03831661110b5760405162461bcd60e51b815260040161027a90611c64565b6000611115610af4565b90506111458185600061112787610fd0565b61113087610fd0565b60405180602001604052806000815250610af8565b61118c82604051806060016040528060248152602001611ef76024913960008681526065602090815260408083206001600160a01b038b1684529091529020549190610b06565b60008481526065602090815260408083206001600160a01b03808a16808652919093528184209490945551919291908416907fc3d58168c5ae7397731d063d5bbf3d657854427343f4c083240f7aacaa2d0f6290610e839088908890611dcb565b6111fb86868686868661059a565b611203610679565b1561059a5760405162461bcd60e51b815260040161027a90611b0e565b828054600181600116156101000203166002900490600052602060002090601f016020900481019282601f1061126157805160ff191683800117855561128e565b8280016001018555821561128e579182015b8281111561128e578251825591602001919060010190611273565b5061129a92915061129e565b5090565b5b8082111561129a576000815560010161129f565b80356001600160a01b03811681146102a857600080fd5b600082601f8301126112da578081fd5b81356112ed6112e882611e00565b611dd9565b81815291506020808301908481018184028601820187101561130e57600080fd5b60005b8481101561132d57813584529282019290820190600101611311565b505050505092915050565b600082601f830112611348578081fd5b813567ffffffffffffffff81111561135e578182fd5b611371601f8201601f1916602001611dd9565b915080825283602082850101111561138857600080fd5b8060208401602084013760009082016020015292915050565b600080604083850312156113b3578182fd5b6113bd84846112b3565b91506113cc84602085016112b3565b90509250929050565b600080600080600060a086880312156113ec578081fd5b85356113f781611ecb565b9450602086013561140781611ecb565b9350604086013567ffffffffffffffff80821115611423578283fd5b61142f89838a016112ca565b94506060880135915080821115611444578283fd5b61145089838a016112ca565b93506080880135915080821115611465578283fd5b5061147288828901611338565b9150509295509295909350565b600080600080600060a08688031215611496578081fd5b6114a087876112b3565b94506114af87602088016112b3565b93506040860135925060608601359150608086013567ffffffffffffffff8111156114d8578182fd5b61147288828901611338565b6000806000606084860312156114f8578283fd5b833561150381611ecb565b9250602084013567ffffffffffffffff8082111561151f578384fd5b61152b878388016112ca565b93506040860135915080821115611540578283fd5b5061154d868287016112ca565b9150509250925092565b6000806000806080858703121561156c578384fd5b61157686866112b3565b9350602085013567ffffffffffffffff80821115611592578485fd5b61159e888389016112ca565b945060408701359150808211156115b3578384fd5b6115bf888389016112ca565b935060608701359150808211156115d4578283fd5b506115e187828801611338565b91505092959194509250565b600080604083850312156115ff578182fd5b61160984846112b3565b91506020830135801515811461161d578182fd5b809150509250929050565b6000806040838503121561163a578182fd5b61164484846112b3565b946020939093013593505050565b600080600060608486031215611666578283fd5b61167085856112b3565b95602085013595506040909401359392505050565b6000806000806080858703121561169a578182fd5b84356116a581611ecb565b93506020850135925060408501359150606085013567ffffffffffffffff8111156116ce578182fd5b6115e187828801611338565b600080604083850312156116ec578182fd5b823567ffffffffffffffff80821115611703578384fd5b818501915085601f830112611716578384fd5b81356117246112e882611e00565b80828252602080830192508086018a828387028901011115611744578889fd5b8896505b8487101561176e5761175a8b826112b3565b845260019690960195928101928101611748565b509096508701359350505080821115611785578283fd5b50611792858286016112ca565b9150509250929050565b6000602082840312156117ad578081fd5b8135610b5781611ee0565b6000602082840312156117c9578081fd5b8151610b5781611ee0565b6000602082840312156117e5578081fd5b813567ffffffffffffffff8111156117fb578182fd5b61180784828501611338565b949350505050565b600060208284031215611820578081fd5b5035919050565b6000815180845260208085019450808401835b838110156118565781518752958201959082019060010161183a565b509495945050505050565b60008151808452815b818110156118865760208185018101518683018201520161186a565b818111156118975782602083870101525b50601f01601f19169290920160200192915050565b6001600160a01b0391909116815260200190565b6001600160a01b0386811682528516602082015260a0604082018190526000906118ec90830186611827565b82810360608401526118fe8186611827565b905082810360808401526119128185611861565b98975050505050505050565b6001600160a01b03868116825285166020820152604081018490526060810183905260a06080820181905260009061195890830184611861565b979650505050505050565b600060208252610b576020830184611827565b6000604082526119896040830185611827565b828103602084015261199b8185611827565b95945050505050565b901515815260200190565b600060208252610b576020830184611861565b60208082526034908201527f455243313135353a207472616e7366657220746f206e6f6e20455243313135356040820152732932b1b2b4bb32b91034b6b83632b6b2b73a32b960611b606082015260800190565b60208082526028908201527f455243313135353a204552433131353552656365697665722072656a656374656040820152676420746f6b656e7360c01b606082015260800190565b60208082526014908201527314185d5cd8589b194e881b9bdd081c185d5cd95960621b604082015260600190565b6020808252602b908201527f455243313135353a2062616c616e636520717565727920666f7220746865207a60408201526a65726f206164647265737360a81b606082015260800190565b6020808252601b908201527f536166654d6174683a206164646974696f6e206f766572666c6f770000000000604082015260600190565b6020808252602c908201527f455243313135355061757361626c653a20746f6b656e207472616e736665722060408201526b1dda1a5b19481c185d5cd95960a21b606082015260800190565b60208082526029908201527f455243313135353a2063616c6c6572206973206e6f74206f776e6572206e6f7260408201526808185c1c1c9bdd995960ba1b606082015260800190565b60208082526010908201526f14185d5cd8589b194e881c185d5cd95960821b604082015260600190565b60208082526025908201527f455243313135353a207472616e7366657220746f20746865207a65726f206164604082015264647265737360d81b606082015260800190565b60208082526032908201527f455243313135353a207472616e736665722063616c6c6572206973206e6f74206040820152711bdddb995c881b9bdc88185c1c1c9bdd995960721b606082015260800190565b60208082526023908201527f455243313135353a206275726e2066726f6d20746865207a65726f206164647260408201526265737360e81b606082015260800190565b60208082526029908201527f455243313135353a2073657474696e6720617070726f76616c20737461747573604082015268103337b91039b2b63360b91b606082015260800190565b60208082526029908201527f455243313135353a206163636f756e747320616e6420696473206c656e677468604082015268040dad2e6dac2e8c6d60bb1b606082015260800190565b60208082526028908201527f455243313135353a2069647320616e6420616d6f756e7473206c656e677468206040820152670dad2e6dac2e8c6d60c31b606082015260800190565b60208082526021908201527f455243313135353a206d696e7420746f20746865207a65726f206164647265736040820152607360f81b606082015260800190565b90815260200190565b918252602082015260400190565b60405181810167ffffffffffffffff81118282101715611df857600080fd5b604052919050565b600067ffffffffffffffff821115611e16578081fd5b5060209081020190565b60e01c90565b600060443d1015611e3657610680565b600481823e6308c379a0611e4a8251611e20565b14611e5457610680565b6040513d600319016004823e80513d67ffffffffffffffff8160248401118184111715611e845750505050610680565b82840192508251915080821115611e9e5750505050610680565b503d83016020828401011115611eb657505050610680565b601f01601f1916810160200160405291505090565b6001600160a01b03811681146102d657600080fd5b6001600160e01b0319811681146102d657600080fdfe455243313135353a206275726e20616d6f756e7420657863656564732062616c616e6365455243313135353a20696e73756666696369656e742062616c616e636520666f72207472616e73666572a264697066735822122024ed5e2e904722c7972740e064878b110d709777eeade1704c55907033908f5a64736f6c634300060c0033",
  "linkReferences": {},
  "deployedLinkReferences": {}
}