{
  "_format": "hh-sol-artifact-1",
  "contractName": "ERC1155PresetMinterPauserUpgradeableWithInit",
  "sourceName": "contracts/contracts-upgradeable-v3_4/mocks/WithInit.sol",
  "abi": [
    {
      "inputs": [
        {
          "internalType": "string",
          "name": "uri",
          "type": "string"
        }
      ],
      "stateMutability": "payable",
      "type": "constructor"
    },
    {
      "anonymous": false,
      "inputs": [
        {
          "indexed": true,
          "internalType": "address",
          "name": "account",
          "type": "address"
        },
        {
          "indexed": true,
          "internalType": "address",
          "name": "operator",
          "type": "address"
        },
        {
          "indexed": false,
          "internalType": "bool",
          "name": "approved",
          "type": "bool"
        }
      ],
      "name": "ApprovalForAll",
      "type": "event"
    },
    {
      "anonymous": false,
      "inputs": [
        {
          "indexed": false,
          "internalType": "address",
          "name": "account",
          "type": "address"
        }
      ],
      "name": "Paused",
      "type": "event"
    },
    {
      "anonymous": false,
      "inputs": [
        {
          "indexed": true,
          "internalType": "bytes32",
          "name": "role",
          "type": "bytes32"
        },
        {
          "indexed": true,
          "internalType": "bytes32",
          "name": "previousAdminRole",
          "type": "bytes32"
        },
        {
          "indexed": true,
          "internalType": "bytes32",
          "name": "newAdminRole",
          "type": "bytes32"
        }
      ],
      "name": "RoleAdminChanged",
      "type": "event"
    },
    {
      "anonymous": false,
      "inputs": [
        {
          "indexed": true,
          "internalType": "bytes32",
          "name": "role",
          "type": "bytes32"
        },
        {
          "indexed": true,
          "internalType": "address",
          "name": "account",
          "type": "address"
        },
        {
          "indexed": true,
          "internalType": "address",
          "name": "sender",
          "type": "address"
        }
      ],
      "name": "RoleGranted",
      "type": "event"
    },
    {
      "anonymous": false,
      "inputs": [
        {
          "indexed": true,
          "internalType": "bytes32",
          "name": "role",
          "type": "bytes32"
        },
        {
          "indexed": true,
          "internalType": "address",
          "name": "account",
          "type": "address"
        },
        {
          "indexed": true,
          "internalType": "address",
          "name": "sender",
          "type": "address"
        }
      ],
      "name": "RoleRevoked",
      "type": "event"
    },
    {
      "anonymous": false,
      "inputs": [
        {
          "indexed": true,
          "internalType": "address",
          "name": "operator",
          "type": "address"
        },
        {
          "indexed": true,
          "internalType": "address",
          "name": "from",
          "type": "address"
        },
        {
          "indexed": true,
          "internalType": "address",
          "name": "to",
          "type": "address"
        },
        {
          "indexed": false,
          "internalType": "uint256[]",
          "name": "ids",
          "type": "uint256[]"
        },
        {
          "indexed": false,
          "internalType": "uint256[]",
          "name": "values",
          "type": "uint256[]"
        }
      ],
      "name": "TransferBatch",
      "type": "event"
    },
    {
      "anonymous": false,
      "inputs": [
        {
          "indexed": true,
          "internalType": "address",
          "name": "operator",
          "type": "address"
        },
        {
          "indexed": true,
          "internalType": "address",
          "name": "from",
          "type": "address"
        },
        {
          "indexed": true,
          "internalType": "address",
          "name": "to",
          "type": "address"
        },
        {
          "indexed": false,
          "internalType": "uint256",
          "name": "id",
          "type": "uint256"
        },
        {
          "indexed": false,
          "internalType": "uint256",
          "name": "value",
          "type": "uint256"
        }
      ],
      "name": "TransferSingle",
      "type": "event"
    },
    {
      "anonymous": false,
      "inputs": [
        {
          "indexed": false,
          "internalType": "string",
          "name": "value",
          "type": "string"
        },
        {
          "indexed": true,
          "internalType": "uint256",
          "name": "id",
          "type": "uint256"
        }
      ],
      "name": "URI",
      "type": "event"
    },
    {
      "anonymous": false,
      "inputs": [
        {
          "indexed": false,
          "internalType": "address",
          "name": "account",
          "type": "address"
        }
      ],
      "name": "Unpaused",
      "type": "event"
    },
    {
      "inputs": [],
      "name": "DEFAULT_ADMIN_ROLE",
      "outputs": [
        {
          "internalType": "bytes32",
          "name": "",
          "type": "bytes32"
        }
      ],
      "stateMutability": "view",
      "type": "function"
    },
    {
      "inputs": [],
      "name": "MINTER_ROLE",
      "outputs": [
        {
          "internalType": "bytes32",
          "name": "",
          "type": "bytes32"
        }
      ],
      "stateMutability": "view",
      "type": "function"
    },
    {
      "inputs": [],
      "name": "PAUSER_ROLE",
      "outputs": [
        {
          "internalType": "bytes32",
          "name": "",
          "type": "bytes32"
        }
      ],
      "stateMutability": "view",
      "type": "function"
    },
    {
      "inputs": [
        {
          "internalType": "address",
          "name": "account",
          "type": "address"
        },
        {
          "internalType": "uint256",
          "name": "id",
          "type": "uint256"
        }
      ],
      "name": "balanceOf",
      "outputs": [
        {
          "internalType": "uint256",
          "name": "",
          "type": "uint256"
        }
      ],
      "stateMutability": "view",
      "type": "function"
    },
    {
      "inputs": [
        {
          "internalType": "address[]",
          "name": "accounts",
          "type": "address[]"
        },
        {
          "internalType": "uint256[]",
          "name": "ids",
          "type": "uint256[]"
        }
      ],
      "name": "balanceOfBatch",
      "outputs": [
        {
          "internalType": "uint256[]",
          "name": "",
          "type": "uint256[]"
        }
      ],
      "stateMutability": "view",
      "type": "function"
    },
    {
      "inputs": [
        {
          "internalType": "address",
          "name": "account",
          "type": "address"
        },
        {
          "internalType": "uint256",
          "name": "id",
          "type": "uint256"
        },
        {
          "internalType": "uint256",
          "name": "value",
          "type": "uint256"
        }
      ],
      "name": "burn",
      "outputs": [],
      "stateMutability": "nonpayable",
      "type": "function"
    },
    {
      "inputs": [
        {
          "internalType": "address",
          "name": "account",
          "type": "address"
        },
        {
          "internalType": "uint256[]",
          "name": "ids",
          "type": "uint256[]"
        },
        {
          "internalType": "uint256[]",
          "name": "values",
          "type": "uint256[]"
        }
      ],
      "name": "burnBatch",
      "outputs": [],
      "stateMutability": "nonpayable",
      "type": "function"
    },
    {
      "inputs": [
        {
          "internalType": "bytes32",
          "name": "role",
          "type": "bytes32"
        }
      ],
      "name": "getRoleAdmin",
      "outputs": [
        {
          "internalType": "bytes32",
          "name": "",
          "type": "bytes32"
        }
      ],
      "stateMutability": "view",
      "type": "function"
    },
    {
      "inputs": [
        {
          "internalType": "bytes32",
          "name": "role",
          "type": "bytes32"
        },
        {
          "internalType": "uint256",
          "name": "index",
          "type": "uint256"
        }
      ],
      "name": "getRoleMember",
      "outputs": [
        {
          "internalType": "address",
          "name": "",
          "type": "address"
        }
      ],
      "stateMutability": "view",
      "type": "function"
    },
    {
      "inputs": [
        {
          "internalType": "bytes32",
          "name": "role",
          "type": "bytes32"
        }
      ],
      "name": "getRoleMemberCount",
      "outputs": [
        {
          "internalType": "uint256",
          "name": "",
          "type": "uint256"
        }
      ],
      "stateMutability": "view",
      "type": "function"
    },
    {
      "inputs": [
        {
          "internalType": "bytes32",
          "name": "role",
          "type": "bytes32"
        },
        {
          "internalType": "address",
          "name": "account",
          "type": "address"
        }
      ],
      "name": "grantRole",
      "outputs": [],
      "stateMutability": "nonpayable",
      "type": "function"
    },
    {
      "inputs": [
        {
          "internalType": "bytes32",
          "name": "role",
          "type": "bytes32"
        },
        {
          "internalType": "address",
          "name": "account",
          "type": "address"
        }
      ],
      "name": "hasRole",
      "outputs": [
        {
          "internalType": "bool",
          "name": "",
          "type": "bool"
        }
      ],
      "stateMutability": "view",
      "type": "function"
    },
    {
      "inputs": [
        {
          "internalType": "string",
          "name": "uri",
          "type": "string"
        }
      ],
      "name": "initialize",
      "outputs": [],
      "stateMutability": "nonpayable",
      "type": "function"
    },
    {
      "inputs": [
        {
          "internalType": "address",
          "name": "account",
          "type": "address"
        },
        {
          "internalType": "address",
          "name": "operator",
          "type": "address"
        }
      ],
      "name": "isApprovedForAll",
      "outputs": [
        {
          "internalType": "bool",
          "name": "",
          "type": "bool"
        }
      ],
      "stateMutability": "view",
      "type": "function"
    },
    {
      "inputs": [
        {
          "internalType": "address",
          "name": "to",
          "type": "address"
        },
        {
          "internalType": "uint256",
          "name": "id",
          "type": "uint256"
        },
        {
          "internalType": "uint256",
          "name": "amount",
          "type": "uint256"
        },
        {
          "internalType": "bytes",
          "name": "data",
          "type": "bytes"
        }
      ],
      "name": "mint",
      "outputs": [],
      "stateMutability": "nonpayable",
      "type": "function"
    },
    {
      "inputs": [
        {
          "internalType": "address",
          "name": "to",
          "type": "address"
        },
        {
          "internalType": "uint256[]",
          "name": "ids",
          "type": "uint256[]"
        },
        {
          "internalType": "uint256[]",
          "name": "amounts",
          "type": "uint256[]"
        },
        {
          "internalType": "bytes",
          "name": "data",
          "type": "bytes"
        }
      ],
      "name": "mintBatch",
      "outputs": [],
      "stateMutability": "nonpayable",
      "type": "function"
    },
    {
      "inputs": [],
      "name": "pause",
      "outputs": [],
      "stateMutability": "nonpayable",
      "type": "function"
    },
    {
      "inputs": [],
      "name": "paused",
      "outputs": [
        {
          "internalType": "bool",
          "name": "",
          "type": "bool"
        }
      ],
      "stateMutability": "view",
      "type": "function"
    },
    {
      "inputs": [
        {
          "internalType": "bytes32",
          "name": "role",
          "type": "bytes32"
        },
        {
          "internalType": "address",
          "name": "account",
          "type": "address"
        }
      ],
      "name": "renounceRole",
      "outputs": [],
      "stateMutability": "nonpayable",
      "type": "function"
    },
    {
      "inputs": [
        {
          "internalType": "bytes32",
          "name": "role",
          "type": "bytes32"
        },
        {
          "internalType": "address",
          "name": "account",
          "type": "address"
        }
      ],
      "name": "revokeRole",
      "outputs": [],
      "stateMutability": "nonpayable",
      "type": "function"
    },
    {
      "inputs": [
        {
          "internalType": "address",
          "name": "from",
          "type": "address"
        },
        {
          "internalType": "address",
          "name": "to",
          "type": "address"
        },
        {
          "internalType": "uint256[]",
          "name": "ids",
          "type": "uint256[]"
        },
        {
          "internalType": "uint256[]",
          "name": "amounts",
          "type": "uint256[]"
        },
        {
          "internalType": "bytes",
          "name": "data",
          "type": "bytes"
        }
      ],
      "name": "safeBatchTransferFrom",
      "outputs": [],
      "stateMutability": "nonpayable",
      "type": "function"
    },
    {
      "inputs": [
        {
          "internalType": "address",
          "name": "from",
          "type": "address"
        },
        {
          "internalType": "address",
          "name": "to",
          "type": "address"
        },
        {
          "internalType": "uint256",
          "name": "id",
          "type": "uint256"
        },
        {
          "internalType": "uint256",
          "name": "amount",
          "type": "uint256"
        },
        {
          "internalType": "bytes",
          "name": "data",
          "type": "bytes"
        }
      ],
      "name": "safeTransferFrom",
      "outputs": [],
      "stateMutability": "nonpayable",
      "type": "function"
    },
    {
      "inputs": [
        {
          "internalType": "address",
          "name": "operator",
          "type": "address"
        },
        {
          "internalType": "bool",
          "name": "approved",
          "type": "bool"
        }
      ],
      "name": "setApprovalForAll",
      "outputs": [],
      "stateMutability": "nonpayable",
      "type": "function"
    },
    {
      "inputs": [
        {
          "internalType": "bytes4",
          "name": "interfaceId",
          "type": "bytes4"
        }
      ],
      "name": "supportsInterface",
      "outputs": [
        {
          "internalType": "bool",
          "name": "",
          "type": "bool"
        }
      ],
      "stateMutability": "view",
      "type": "function"
    },
    {
      "inputs": [],
      "name": "unpause",
      "outputs": [],
      "stateMutability": "nonpayable",
      "type": "function"
    },
    {
      "inputs": [
        {
          "internalType": "uint256",
          "name": "",
          "type": "uint256"
        }
      ],
      "name": "uri",
      "outputs": [
        {
          "internalType": "string",
          "name": "",
          "type": "string"
        }
      ],
      "stateMutability": "view",
      "type": "function"
    }
  ],
  "bytecode": "0x6080604052604051620035a5380380620035a583398101604081905262000026916200068b565b620000318162000038565b50620007e5565b600054610100900460ff16806200005457506200005462000120565b8062000063575060005460ff16155b6200008b5760405162461bcd60e51b8152600401620000829062000764565b60405180910390fd5b600054610100900460ff16158015620000b7576000805460ff1961ff0019909116610100171660011790555b620000c16200013e565b620000cb6200013e565b620000d5620001ca565b620000e08262000252565b620000ea6200013e565b620000f4620002f7565b620000fe6200013e565b62000109826200038c565b80156200011c576000805461ff00191690555b5050565b600062000138306200047660201b62000db61760201c565b15905090565b600054610100900460ff16806200015a57506200015a62000120565b8062000169575060005460ff16155b620001885760405162461bcd60e51b8152600401620000829062000764565b600054610100900460ff16158015620001b4576000805460ff1961ff0019909116610100171660011790555b8015620001c7576000805461ff00191690555b50565b600054610100900460ff1680620001e65750620001e662000120565b80620001f5575060005460ff16155b620002145760405162461bcd60e51b8152600401620000829062000764565b600054610100900460ff1615801562000240576000805460ff1961ff0019909116610100171660011790555b620001b46301ffc9a760e01b6200047c565b600054610100900460ff16806200026e57506200026e62000120565b806200027d575060005460ff16155b6200029c5760405162461bcd60e51b8152600401620000829062000764565b600054610100900460ff16158015620002c8576000805460ff1961ff0019909116610100171660011790555b620002d382620004ce565b620002e5636cdb3d1360e11b6200047c565b620001096303a24d0760e21b6200047c565b600054610100900460ff16806200031357506200031362000120565b8062000322575060005460ff16155b620003415760405162461bcd60e51b8152600401620000829062000764565b600054610100900460ff161580156200036d576000805460ff1961ff0019909116610100171660011790555b60fb805460ff191690558015620001c7576000805461ff001916905550565b600054610100900460ff1680620003a85750620003a862000120565b80620003b7575060005460ff16155b620003d65760405162461bcd60e51b8152600401620000829062000764565b600054610100900460ff1615801562000402576000805460ff1961ff0019909116610100171660011790555b62000418600062000412620004e3565b620004e7565b620004477f9f2df0fed2c77648de5860a4cc508cd0818c85b8b8a1ab4ceeef8d981c8956a662000412620004e3565b620001097f65d7a28e3265b37a6474929f336521b332c1681b933f6cb9f3376673440d862a62000412620004e3565b3b151590565b6001600160e01b03198082161415620004a95760405162461bcd60e51b815260040162000082906200072d565b6001600160e01b0319166000908152606560205260409020805460ff19166001179055565b80516200011c906099906020840190620005ef565b3390565b6200011c828260008281526033602090815260409091206200051491839062000dbc62000568821b17901c565b156200011c5762000524620004e3565b6001600160a01b0316816001600160a01b0316837f2f8788117e7eff1d82e926ec794901d17c78024a50270940304540a733656f0d60405160405180910390a45050565b60006200057f836001600160a01b03841662000588565b90505b92915050565b6000620005968383620005d7565b620005ce5750815460018181018455600084815260208082209093018490558454848252828601909352604090209190915562000582565b50600062000582565b60009081526001919091016020526040902054151590565b828054600181600116156101000203166002900490600052602060002090601f016020900481019282601f106200063257805160ff191683800117855562000662565b8280016001018555821562000662579182015b828111156200066257825182559160200191906001019062000645565b506200067092915062000674565b5090565b5b8082111562000670576000815560010162000675565b6000602082840312156200069d578081fd5b81516001600160401b0380821115620006b4578283fd5b818401915084601f830112620006c8578283fd5b815181811115620006d7578384fd5b604051601f8201601f191681016020018381118282101715620006f8578586fd5b60405281815283820160200187101562000710578485fd5b62000723826020830160208701620007b2565b9695505050505050565b6020808252601c908201527f4552433136353a20696e76616c696420696e7465726661636520696400000000604082015260600190565b6020808252602e908201527f496e697469616c697a61626c653a20636f6e747261637420697320616c72656160408201526d191e481a5b9a5d1a585b1a5e995960921b606082015260800190565b60005b83811015620007cf578181015183820152602001620007b5565b83811115620007df576000848401525b50505050565b612db080620007f56000396000f3fe608060405234801561001057600080fd5b506004361061018d5760003560e01c80638456cb59116100de578063d539139311610097578063e985e9c511610071578063e985e9c51461033e578063f242432a14610351578063f5298aca14610364578063f62d1888146103775761018d565b8063d53913931461031b578063d547741f14610323578063e63ab1e9146103365761018d565b80638456cb59146102b25780639010d07c146102ba57806391d14854146102da578063a217fddf146102ed578063a22cb465146102f5578063ca15c873146103085761018d565b80632f2ff15d1161014b5780634e1273f4116101255780634e1273f4146102645780635c975abb146102845780636b20c4541461028c578063731133e91461029f5761018d565b80632f2ff15d1461023657806336568abe146102495780633f4ba83a1461025c5761018d565b8062fdd58e1461019257806301ffc9a7146101bb5780630e89341c146101db5780631f7fdffa146101fb578063248a9ca3146102105780632eb2c2d614610223575b600080fd5b6101a56101a036600461210d565b61038a565b6040516101b291906124d9565b60405180910390f35b6101ce6101c93660046122de565b6103e6565b6040516101b291906124ce565b6101ee6101e9366004612281565b610405565b6040516101b291906124e2565b61020e61020936600461203c565b61049d565b005b6101a561021e366004612281565b6104e5565b61020e610231366004611eba565b6104fa565b61020e610244366004612299565b610719565b61020e610257366004612299565b610761565b61020e6107a3565b6102776102723660046121bf565b6107e3565b6040516101b2919061248d565b6101ce6108b0565b61020e61029a366004611fc9565b6108ba565b61020e6102ad36600461216a565b610914565b61020e610956565b6102cd6102c83660046122bd565b610994565b6040516101b291906123d6565b6101ce6102e8366004612299565b6109b3565b6101a56109cb565b61020e6103033660046120d2565b6109d0565b6101a5610316366004612281565b610a9e565b6101a5610ab5565b61020e610331366004612299565b610ac7565b6101a5610b01565b6101ce61034c366004611e86565b610b13565b61020e61035f366004611f64565b610b41565b61020e610372366004612137565b610cd5565b61020e610385366004612316565b610d2a565b60006001600160a01b0383166103bb5760405162461bcd60e51b81526004016103b290612650565b60405180910390fd5b5060008181526097602090815260408083206001600160a01b03861684529091529020545b92915050565b6001600160e01b03191660009081526065602052604090205460ff1690565b60998054604080516020601f60026000196101006001881615020190951694909404938401819004810282018101909252828152606093909290918301828280156104915780601f1061046657610100808354040283529160200191610491565b820191906000526020600020905b81548152906001019060200180831161047457829003601f168201915b50505050509050919050565b6104b7600080516020612d5b8339815191526102e8610dd1565b6104d35760405162461bcd60e51b81526004016103b290612940565b6104df84848484610dd5565b50505050565b60009081526033602052604090206002015490565b815183511461051b5760405162461bcd60e51b81526004016103b290612ae9565b6001600160a01b0384166105415760405162461bcd60e51b81526004016103b290612818565b610549610dd1565b6001600160a01b0316856001600160a01b0316148061056f575061056f8561034c610dd1565b61058b5760405162461bcd60e51b81526004016103b29061285d565b6000610595610dd1565b90506105a5818787878787610f6a565b60005b84518110156106ab5760008582815181106105bf57fe5b6020026020010151905060008583815181106105d757fe5b60200260200101519050610644816040518060600160405280602a8152602001612d11602a91396097600086815260200190815260200160002060008d6001600160a01b03166001600160a01b0316815260200190815260200160002054610f789092919063ffffffff16565b60008381526097602090815260408083206001600160a01b038e811685529252808320939093558a168152205461067b9082610fa4565b60009283526097602090815260408085206001600160a01b038c16865290915290922091909155506001016105a8565b50846001600160a01b0316866001600160a01b0316826001600160a01b03167f4a39dc06d4c0dbc64b70af90fd698a233a518aa5d07e595d983b8c0526c8f7fb87876040516106fb9291906124a0565b60405180910390a4610711818787878787610fc9565b505050505050565b600082815260336020526040902060020154610737906102e8610dd1565b6107535760405162461bcd60e51b81526004016103b2906125d3565b61075d82826110e0565b5050565b610769610dd1565b6001600160a01b0316816001600160a01b0316146107995760405162461bcd60e51b81526004016103b290612b72565b61075d8282611149565b6107bd600080516020612d3b8339815191526102e8610dd1565b6107d95760405162461bcd60e51b81526004016103b29061299d565b6107e16111b2565b565b606081518351146108065760405162461bcd60e51b81526004016103b290612aa0565b6060835167ffffffffffffffff8111801561082057600080fd5b5060405190808252806020026020018201604052801561084a578160200160208202803683370190505b50905060005b84518110156108a85761088985828151811061086857fe5b602002602001015185838151811061087c57fe5b602002602001015161038a565b82828151811061089557fe5b6020908102919091010152600101610850565b509392505050565b60fb5460ff165b90565b6108c2610dd1565b6001600160a01b0316836001600160a01b031614806108e857506108e88361034c610dd1565b6109045760405162461bcd60e51b81526004016103b290612755565b61090f838383611220565b505050565b61092e600080516020612d5b8339815191526102e8610dd1565b61094a5760405162461bcd60e51b81526004016103b290612940565b6104df848484846113ce565b610970600080516020612d3b8339815191526102e8610dd1565b61098c5760405162461bcd60e51b81526004016103b2906129fa565b6107e16114b2565b60008281526033602052604081206109ac908361150d565b9392505050565b60008281526033602052604081206109ac9083611519565b600081565b816001600160a01b03166109e2610dd1565b6001600160a01b03161415610a095760405162461bcd60e51b81526004016103b290612a57565b8060986000610a16610dd1565b6001600160a01b03908116825260208083019390935260409182016000908120918716808252919093529120805460ff191692151592909217909155610a5a610dd1565b6001600160a01b03167f17307eab39ab6107e8899845ad3d59bd9653f200f220920489ca2b5937696c3183604051610a9291906124ce565b60405180910390a35050565b60008181526033602052604081206103e09061152e565b600080516020612d5b83398151915281565b600082815260336020526040902060020154610ae5906102e8610dd1565b6107995760405162461bcd60e51b81526004016103b29061279e565b600080516020612d3b83398151915281565b6001600160a01b03918216600090815260986020908152604080832093909416825291909152205460ff1690565b6001600160a01b038416610b675760405162461bcd60e51b81526004016103b290612818565b610b6f610dd1565b6001600160a01b0316856001600160a01b03161480610b955750610b958561034c610dd1565b610bb15760405162461bcd60e51b81526004016103b290612755565b6000610bbb610dd1565b9050610bdb818787610bcc88611539565b610bd588611539565b87610f6a565b610c22836040518060600160405280602a8152602001612d11602a913960008781526097602090815260408083206001600160a01b038d1684529091529020549190610f78565b60008581526097602090815260408083206001600160a01b038b81168552925280832093909355871681522054610c599084610fa4565b60008581526097602090815260408083206001600160a01b03808b168086529190935292819020939093559151909188811691908416907fc3d58168c5ae7397731d063d5bbf3d657854427343f4c083240f7aacaa2d0f6290610cbf9089908990612bc1565b60405180910390a461071181878787878761157d565b610cdd610dd1565b6001600160a01b0316836001600160a01b03161480610d035750610d038361034c610dd1565b610d1f5760405162461bcd60e51b81526004016103b290612755565b61090f83838361164e565b600054610100900460ff1680610d435750610d43611756565b80610d51575060005460ff16155b610d6d5760405162461bcd60e51b81526004016103b2906128af565b600054610100900460ff16158015610d98576000805460ff1961ff0019909116610100171660011790555b610da182611767565b801561075d576000805461ff00191690555050565b3b151590565b60006109ac836001600160a01b038416611817565b3390565b6001600160a01b038416610dfb5760405162461bcd60e51b81526004016103b290612b31565b8151835114610e1c5760405162461bcd60e51b81526004016103b290612ae9565b6000610e26610dd1565b9050610e3781600087878787610f6a565b60005b8451811015610efb57610eb260976000878481518110610e5657fe5b602002602001015181526020019081526020016000206000886001600160a01b03166001600160a01b0316815260200190815260200160002054858381518110610e9c57fe5b6020026020010151610fa490919063ffffffff16565b60976000878481518110610ec257fe5b602090810291909101810151825281810192909252604090810160009081206001600160a01b038b168252909252902055600101610e3a565b50846001600160a01b031660006001600160a01b0316826001600160a01b03167f4a39dc06d4c0dbc64b70af90fd698a233a518aa5d07e595d983b8c0526c8f7fb8787604051610f4c9291906124a0565b60405180910390a4610f6381600087878787610fc9565b5050505050565b610711868686868686611861565b60008184841115610f9c5760405162461bcd60e51b81526004016103b291906124e2565b505050900390565b6000828201838110156109ac5760405162461bcd60e51b81526004016103b2906126d2565b610fdb846001600160a01b0316610db6565b156107115760405163bc197c8160e01b81526001600160a01b0385169063bc197c819061101490899089908890889088906004016123ea565b602060405180830381600087803b15801561102e57600080fd5b505af192505050801561105e575060408051601f3d908101601f1916820190925261105b918101906122fa565b60015b6110a75761106a612c1c565b80611075575061108f565b8060405162461bcd60e51b81526004016103b291906124e2565b60405162461bcd60e51b81526004016103b2906124f5565b6001600160e01b0319811663bc197c8160e01b146110d75760405162461bcd60e51b81526004016103b29061258b565b50505050505050565b60008281526033602052604090206110f89082610dbc565b1561075d57611105610dd1565b6001600160a01b0316816001600160a01b0316837f2f8788117e7eff1d82e926ec794901d17c78024a50270940304540a733656f0d60405160405180910390a45050565b60008281526033602052604090206111619082611894565b1561075d5761116e610dd1565b6001600160a01b0316816001600160a01b0316837ff6391f5c32d9c69d2a47ea670b442974b53935d1edc7fd64eb21e047a839171b60405160405180910390a45050565b6111ba6108b0565b6111d65760405162461bcd60e51b81526004016103b290612622565b60fb805460ff191690557f5db9ee0a495bf2e6ff9c91a7834c1ba4fdd244a5e8aa4e537bd38aeae4b073aa611209610dd1565b60405161121691906123d6565b60405180910390a1565b6001600160a01b0383166112465760405162461bcd60e51b81526004016103b2906128fd565b80518251146112675760405162461bcd60e51b81526004016103b290612ae9565b6000611271610dd1565b905061129181856000868660405180602001604052806000815250610f6a565b60005b835181101561136f576113268382815181106112ac57fe5b6020026020010151604051806060016040528060248152602001612ced60249139609760008886815181106112dd57fe5b602002602001015181526020019081526020016000206000896001600160a01b03166001600160a01b0316815260200190815260200160002054610f789092919063ffffffff16565b6097600086848151811061133657fe5b602090810291909101810151825281810192909252604090810160009081206001600160a01b038a168252909252902055600101611294565b5060006001600160a01b0316846001600160a01b0316826001600160a01b03167f4a39dc06d4c0dbc64b70af90fd698a233a518aa5d07e595d983b8c0526c8f7fb86866040516113c09291906124a0565b60405180910390a450505050565b6001600160a01b0384166113f45760405162461bcd60e51b81526004016103b290612b31565b60006113fe610dd1565b905061141081600087610bcc88611539565b60008481526097602090815260408083206001600160a01b038916845290915290205461143d9084610fa4565b60008581526097602090815260408083206001600160a01b03808b16808652919093528184209490945551908416907fc3d58168c5ae7397731d063d5bbf3d657854427343f4c083240f7aacaa2d0f629061149b9089908990612bc1565b60405180910390a4610f638160008787878761157d565b6114ba6108b0565b156114d75760405162461bcd60e51b81526004016103b2906127ee565b60fb805460ff191660011790557f62e78cea01bee320cd4e420270b5ea74000d11b0c9f74754ebdbfc544b05a258611209610dd1565b60006109ac83836118a9565b60006109ac836001600160a01b0384166118ee565b60006103e082611906565b60408051600180825281830190925260609182919060208083019080368337019050509050828160008151811061156c57fe5b602090810291909101015292915050565b61158f846001600160a01b0316610db6565b156107115760405163f23a6e6160e01b81526001600160a01b0385169063f23a6e61906115c89089908990889088908890600401612448565b602060405180830381600087803b1580156115e257600080fd5b505af1925050508015611612575060408051601f3d908101601f1916820190925261160f918101906122fa565b60015b61161e5761106a612c1c565b6001600160e01b0319811663f23a6e6160e01b146110d75760405162461bcd60e51b81526004016103b29061258b565b6001600160a01b0383166116745760405162461bcd60e51b81526004016103b2906128fd565b600061167e610dd1565b90506116ae8185600061169087611539565b61169987611539565b60405180602001604052806000815250610f6a565b6116f582604051806060016040528060248152602001612ced6024913960008681526097602090815260408083206001600160a01b038b1684529091529020549190610f78565b60008481526097602090815260408083206001600160a01b03808a16808652919093528184209490945551919291908416907fc3d58168c5ae7397731d063d5bbf3d657854427343f4c083240f7aacaa2d0f62906113c09088908890612bc1565b600061176130610db6565b15905090565b600054610100900460ff16806117805750611780611756565b8061178e575060005460ff16155b6117aa5760405162461bcd60e51b81526004016103b2906128af565b600054610100900460ff161580156117d5576000805460ff1961ff0019909116610100171660011790555b6117dd61190a565b6117e561190a565b6117ed61198d565b6117f682611a0b565b6117fe61190a565b611806611aa2565b61180e61190a565b610da182611b2e565b600061182383836118ee565b611859575081546001818101845560008481526020808220909301849055845484825282860190935260409020919091556103e0565b5060006103e0565b61186f868686868686610711565b6118776108b0565b156107115760405162461bcd60e51b81526004016103b290612709565b60006109ac836001600160a01b038416611be2565b815460009082106118cc5760405162461bcd60e51b81526004016103b290612549565b8260000182815481106118db57fe5b9060005260206000200154905092915050565b60009081526001919091016020526040902054151590565b5490565b600054610100900460ff16806119235750611923611756565b80611931575060005460ff16155b61194d5760405162461bcd60e51b81526004016103b2906128af565b600054610100900460ff16158015611978576000805460ff1961ff0019909116610100171660011790555b801561198a576000805461ff00191690555b50565b600054610100900460ff16806119a657506119a6611756565b806119b4575060005460ff16155b6119d05760405162461bcd60e51b81526004016103b2906128af565b600054610100900460ff161580156119fb576000805460ff1961ff0019909116610100171660011790555b6119786301ffc9a760e01b611ca8565b600054610100900460ff1680611a245750611a24611756565b80611a32575060005460ff16155b611a4e5760405162461bcd60e51b81526004016103b2906128af565b600054610100900460ff16158015611a79576000805460ff1961ff0019909116610100171660011790555b611a8282611cf7565b611a92636cdb3d1360e11b611ca8565b610da16303a24d0760e21b611ca8565b600054610100900460ff1680611abb5750611abb611756565b80611ac9575060005460ff16155b611ae55760405162461bcd60e51b81526004016103b2906128af565b600054610100900460ff16158015611b10576000805460ff1961ff0019909116610100171660011790555b60fb805460ff19169055801561198a576000805461ff001916905550565b600054610100900460ff1680611b475750611b47611756565b80611b55575060005460ff16155b611b715760405162461bcd60e51b81526004016103b2906128af565b600054610100900460ff16158015611b9c576000805460ff1961ff0019909116610100171660011790555b611bae6000611ba9610dd1565b610753565b611bc8600080516020612d5b833981519152611ba9610dd1565b610da1600080516020612d3b833981519152611ba9610dd1565b60008181526001830160205260408120548015611c9e5783546000198083019190810190600090879083908110611c1557fe5b9060005260206000200154905080876000018481548110611c3257fe5b600091825260208083209091019290925582815260018981019092526040902090840190558654879080611c6257fe5b600190038181906000526020600020016000905590558660010160008781526020019081526020016000206000905560019450505050506103e0565b60009150506103e0565b6001600160e01b03198082161415611cd25760405162461bcd60e51b81526004016103b29061269b565b6001600160e01b0319166000908152606560205260409020805460ff19166001179055565b805161075d906099906020840190828054600181600116156101000203166002900490600052602060002090601f016020900481019282601f10611d4657805160ff1916838001178555611d73565b82800160010185558215611d73579182015b82811115611d73578251825591602001919060010190611d58565b50611d7f929150611d83565b5090565b5b80821115611d7f5760008155600101611d84565b80356001600160a01b03811681146103e057600080fd5b600082601f830112611dbf578081fd5b8135611dd2611dcd82612bf6565b612bcf565b818152915060208083019084810181840286018201871015611df357600080fd5b60005b84811015611e1257813584529282019290820190600101611df6565b505050505092915050565b600082601f830112611e2d578081fd5b813567ffffffffffffffff811115611e43578182fd5b611e56601f8201601f1916602001612bcf565b9150808252836020828501011115611e6d57600080fd5b8060208401602084013760009082016020015292915050565b60008060408385031215611e98578182fd5b611ea28484611d98565b9150611eb18460208501611d98565b90509250929050565b600080600080600060a08688031215611ed1578081fd5b8535611edc81612cc1565b94506020860135611eec81612cc1565b9350604086013567ffffffffffffffff80821115611f08578283fd5b611f1489838a01611daf565b94506060880135915080821115611f29578283fd5b611f3589838a01611daf565b93506080880135915080821115611f4a578283fd5b50611f5788828901611e1d565b9150509295509295909350565b600080600080600060a08688031215611f7b578081fd5b611f858787611d98565b9450611f948760208801611d98565b93506040860135925060608601359150608086013567ffffffffffffffff811115611fbd578182fd5b611f5788828901611e1d565b600080600060608486031215611fdd578283fd5b8335611fe881612cc1565b9250602084013567ffffffffffffffff80821115612004578384fd5b61201087838801611daf565b93506040860135915080821115612025578283fd5b5061203286828701611daf565b9150509250925092565b60008060008060808587031215612051578384fd5b61205b8686611d98565b9350602085013567ffffffffffffffff80821115612077578485fd5b61208388838901611daf565b94506040870135915080821115612098578384fd5b6120a488838901611daf565b935060608701359150808211156120b9578283fd5b506120c687828801611e1d565b91505092959194509250565b600080604083850312156120e4578182fd5b6120ee8484611d98565b915060208301358015158114612102578182fd5b809150509250929050565b6000806040838503121561211f578182fd5b6121298484611d98565b946020939093013593505050565b60008060006060848603121561214b578283fd5b6121558585611d98565b95602085013595506040909401359392505050565b6000806000806080858703121561217f578182fd5b843561218a81612cc1565b93506020850135925060408501359150606085013567ffffffffffffffff8111156121b3578182fd5b6120c687828801611e1d565b600080604083850312156121d1578182fd5b823567ffffffffffffffff808211156121e8578384fd5b818501915085601f8301126121fb578384fd5b8135612209611dcd82612bf6565b80828252602080830192508086018a828387028901011115612229578889fd5b8896505b848710156122535761223f8b82611d98565b84526001969096019592810192810161222d565b50909650870135935050508082111561226a578283fd5b5061227785828601611daf565b9150509250929050565b600060208284031215612292578081fd5b5035919050565b600080604083850312156122ab578182fd5b82359150602083013561210281612cc1565b600080604083850312156122cf578182fd5b50508035926020909101359150565b6000602082840312156122ef578081fd5b81356109ac81612cd6565b60006020828403121561230b578081fd5b81516109ac81612cd6565b600060208284031215612327578081fd5b813567ffffffffffffffff81111561233d578182fd5b61234984828501611e1d565b949350505050565b6000815180845260208085019450808401835b8381101561238057815187529582019590820190600101612364565b509495945050505050565b60008151808452815b818110156123b057602081850181015186830182015201612394565b818111156123c15782602083870101525b50601f01601f19169290920160200192915050565b6001600160a01b0391909116815260200190565b6001600160a01b0386811682528516602082015260a06040820181905260009061241690830186612351565b82810360608401526124288186612351565b9050828103608084015261243c818561238b565b98975050505050505050565b6001600160a01b03868116825285166020820152604081018490526060810183905260a0608082018190526000906124829083018461238b565b979650505050505050565b6000602082526109ac6020830184612351565b6000604082526124b36040830185612351565b82810360208401526124c58185612351565b95945050505050565b901515815260200190565b90815260200190565b6000602082526109ac602083018461238b565b60208082526034908201527f455243313135353a207472616e7366657220746f206e6f6e20455243313135356040820152732932b1b2b4bb32b91034b6b83632b6b2b73a32b960611b606082015260800190565b60208082526022908201527f456e756d657261626c655365743a20696e646578206f7574206f6620626f756e604082015261647360f01b606082015260800190565b60208082526028908201527f455243313135353a204552433131353552656365697665722072656a656374656040820152676420746f6b656e7360c01b606082015260800190565b6020808252602f908201527f416363657373436f6e74726f6c3a2073656e646572206d75737420626520616e60408201526e0818591b5a5b881d1bc819dc985b9d608a1b606082015260800190565b60208082526014908201527314185d5cd8589b194e881b9bdd081c185d5cd95960621b604082015260600190565b6020808252602b908201527f455243313135353a2062616c616e636520717565727920666f7220746865207a60408201526a65726f206164647265737360a81b606082015260800190565b6020808252601c908201527f4552433136353a20696e76616c696420696e7465726661636520696400000000604082015260600190565b6020808252601b908201527f536166654d6174683a206164646974696f6e206f766572666c6f770000000000604082015260600190565b6020808252602c908201527f455243313135355061757361626c653a20746f6b656e207472616e736665722060408201526b1dda1a5b19481c185d5cd95960a21b606082015260800190565b60208082526029908201527f455243313135353a2063616c6c6572206973206e6f74206f776e6572206e6f7260408201526808185c1c1c9bdd995960ba1b606082015260800190565b60208082526030908201527f416363657373436f6e74726f6c3a2073656e646572206d75737420626520616e60408201526f2061646d696e20746f207265766f6b6560801b606082015260800190565b60208082526010908201526f14185d5cd8589b194e881c185d5cd95960821b604082015260600190565b60208082526025908201527f455243313135353a207472616e7366657220746f20746865207a65726f206164604082015264647265737360d81b606082015260800190565b60208082526032908201527f455243313135353a207472616e736665722063616c6c6572206973206e6f74206040820152711bdddb995c881b9bdc88185c1c1c9bdd995960721b606082015260800190565b6020808252602e908201527f496e697469616c697a61626c653a20636f6e747261637420697320616c72656160408201526d191e481a5b9a5d1a585b1a5e995960921b606082015260800190565b60208082526023908201527f455243313135353a206275726e2066726f6d20746865207a65726f206164647260408201526265737360e81b606082015260800190565b60208082526038908201527f455243313135355072657365744d696e7465725061757365723a206d7573742060408201527f68617665206d696e74657220726f6c6520746f206d696e740000000000000000606082015260800190565b6020808252603b908201527f455243313135355072657365744d696e7465725061757365723a206d7573742060408201527f686176652070617573657220726f6c6520746f20756e70617573650000000000606082015260800190565b60208082526039908201527f455243313135355072657365744d696e7465725061757365723a206d7573742060408201527f686176652070617573657220726f6c6520746f20706175736500000000000000606082015260800190565b60208082526029908201527f455243313135353a2073657474696e6720617070726f76616c20737461747573604082015268103337b91039b2b63360b91b606082015260800190565b60208082526029908201527f455243313135353a206163636f756e747320616e6420696473206c656e677468604082015268040dad2e6dac2e8c6d60bb1b606082015260800190565b60208082526028908201527f455243313135353a2069647320616e6420616d6f756e7473206c656e677468206040820152670dad2e6dac2e8c6d60c31b606082015260800190565b60208082526021908201527f455243313135353a206d696e7420746f20746865207a65726f206164647265736040820152607360f81b606082015260800190565b6020808252602f908201527f416363657373436f6e74726f6c3a2063616e206f6e6c792072656e6f756e636560408201526e103937b632b9903337b91039b2b63360891b606082015260800190565b918252602082015260400190565b60405181810167ffffffffffffffff81118282101715612bee57600080fd5b604052919050565b600067ffffffffffffffff821115612c0c578081fd5b5060209081020190565b60e01c90565b600060443d1015612c2c576108b7565b600481823e6308c379a0612c408251612c16565b14612c4a576108b7565b6040513d600319016004823e80513d67ffffffffffffffff8160248401118184111715612c7a57505050506108b7565b82840192508251915080821115612c9457505050506108b7565b503d83016020828401011115612cac575050506108b7565b601f01601f1916810160200160405291505090565b6001600160a01b038116811461198a57600080fd5b6001600160e01b03198116811461198a57600080fdfe455243313135353a206275726e20616d6f756e7420657863656564732062616c616e6365455243313135353a20696e73756666696369656e742062616c616e636520666f72207472616e7366657265d7a28e3265b37a6474929f336521b332c1681b933f6cb9f3376673440d862a9f2df0fed2c77648de5860a4cc508cd0818c85b8b8a1ab4ceeef8d981c8956a6a26469706673582212202446b8280306bf9fb8185c1828ddb7cfd2a3520bc5ab491cd1fd824d84b4794d64736f6c634300060c0033",
  "linkReferences": {},
  "deployedLinkReferences": {}
}