{
  "_format": "hh-sol-artifact-1",
  "contractName": "ERC165CheckerMockUpgradeableWithInit",
  "sourceName": "contracts/contracts-upgradeable-v3_4/mocks/WithInit.sol",
  "abi": [
    {
      "inputs": [],
      "stateMutability": "payable",
      "type": "constructor"
    },
    {
      "inputs": [
        {
          "internalType": "address",
          "name": "account",
          "type": "address"
        },
        {
          "internalType": "bytes4[]",
          "name": "interfaceIds",
          "type": "bytes4[]"
        }
      ],
      "name": "getSupportedInterfaces",
      "outputs": [
        {
          "internalType": "bool[]",
          "name": "",
          "type": "bool[]"
        }
      ],
      "stateMutability": "view",
      "type": "function"
    },
    {
      "inputs": [
        {
          "internalType": "address",
          "name": "account",
          "type": "address"
        },
        {
          "internalType": "bytes4[]",
          "name": "interfaceIds",
          "type": "bytes4[]"
        }
      ],
      "name": "supportsAllInterfaces",
      "outputs": [
        {
          "internalType": "bool",
          "name": "",
          "type": "bool"
        }
      ],
      "stateMutability": "view",
      "type": "function"
    },
    {
      "inputs": [
        {
          "internalType": "address",
          "name": "account",
          "type": "address"
        }
      ],
      "name": "supportsERC165",
      "outputs": [
        {
          "internalType": "bool",
          "name": "",
          "type": "bool"
        }
      ],
      "stateMutability": "view",
      "type": "function"
    },
    {
      "inputs": [
        {
          "internalType": "address",
          "name": "account",
          "type": "address"
        },
        {
          "internalType": "bytes4",
          "name": "interfaceId",
          "type": "bytes4"
        }
      ],
      "name": "supportsInterface",
      "outputs": [
        {
          "internalType": "bool",
          "name": "",
          "type": "bool"
        }
      ],
      "stateMutability": "view",
      "type": "function"
    }
  ],
  "bytecode": "0x608060405261000c610011565b610195565b600054610100900460ff168061002a575061002a6100a5565b80610038575060005460ff16155b61005d5760405162461bcd60e51b815260040161005490610147565b60405180910390fd5b600054610100900460ff16158015610088576000805460ff1961ff0019909116610100171660011790555b6100906100c0565b80156100a2576000805461ff00191690555b50565b60006100ba3061014160201b61011c1760201c565b15905090565b600054610100900460ff16806100d957506100d96100a5565b806100e7575060005460ff16155b6101035760405162461bcd60e51b815260040161005490610147565b600054610100900460ff16158015610090576000805460ff1961ff00199091166101001716600117905580156100a2576000805461ff001916905550565b3b151590565b6020808252602e908201527f496e697469616c697a61626c653a20636f6e747261637420697320616c72656160408201526d191e481a5b9a5d1a585b1a5e995960921b606082015260800190565b6105ee806101a46000396000f3fe608060405234801561001057600080fd5b506004361061004c5760003560e01c80634b9dd9041461005157806377e6b4cc1461007a578063c398a9251461009a578063d9057007146100ad575b600080fd5b61006461005f3660046103d0565b6100c0565b6040516100719190610571565b60405180910390f35b61008d6100883660046103d0565b6100de565b604051610071919061052b565b6100646100a83660046103b5565b6100f3565b6100646100bb36600461048f565b610107565b60006100d56001600160a01b03841683610122565b90505b92915050565b60606100d56001600160a01b03841683610182565b60006100d8826001600160a01b0316610220565b60006100d56001600160a01b03841683610253565b3b151590565b600061012d83610220565b610139575060006100d8565b60005b8251811015610178576101628484838151811061015557fe5b602002602001015161026b565b6101705760009150506100d8565b60010161013c565b5060019392505050565b606080825167ffffffffffffffff8111801561019d57600080fd5b506040519080825280602002602001820160405280156101c7578160200160208202803683370190505b5090506101d384610220565b156100d55760005b8351811015610218576101f48585838151811061015557fe5b82828151811061020057fe5b911515602092830291909101909101526001016101db565b509392505050565b6000610233826301ffc9a760e01b61026b565b80156100d8575061024c826001600160e01b031961026b565b1592915050565b600061025e83610220565b80156100d557506100d583835b600080600061027a8585610291565b915091508180156102885750805b95945050505050565b60008060606301ffc9a760e01b846040516024016102af919061057c565b604051602081830303815290604052906001600160e01b0319166020820180516001600160e01b038381831617835250505050905060006060866001600160a01b03166175308460405161030391906104f2565b6000604051808303818686fa925050503d806000811461033f576040519150601f19603f3d011682016040523d82523d6000602084013e610344565b606091505b5091509150602081511015610362576000809450945050505061037f565b818180602001905181019061037791906104d2565b945094505050505b9250929050565b80356001600160a01b03811681146100d857600080fd5b80356001600160e01b0319811681146100d857600080fd5b6000602082840312156103c6578081fd5b6100d58383610386565b600080604083850312156103e2578081fd5b6103ec8484610386565b915060208084013567ffffffffffffffff80821115610409578384fd5b818601915086601f83011261041c578384fd5b81358181111561042a578485fd5b838102915061043a848301610591565b8181528481019084860184860187018b1015610454578788fd5b8795505b8386101561047e5761046a8b8261039d565b835260019590950194918601918601610458565b508096505050505050509250929050565b600080604083850312156104a1578182fd5b6104ab8484610386565b915060208301356001600160e01b0319811681146104c7578182fd5b809150509250929050565b6000602082840312156104e3578081fd5b815180151581146100d5578182fd5b60008251815b8181101561051257602081860181015185830152016104f8565b818111156105205782828501525b509190910192915050565b6020808252825182820181905260009190848201906040850190845b81811015610565578351151583529284019291840191600101610547565b50909695505050505050565b901515815260200190565b6001600160e01b031991909116815260200190565b60405181810167ffffffffffffffff811182821017156105b057600080fd5b60405291905056fea264697066735822122077561525a6d5d535c60bc80757e5e2ddedf26526ef8f157d1db097e4ceff05be64736f6c634300060c0033",
  "linkReferences": {},
  "deployedLinkReferences": {}
}