{
  "_format": "hh-sol-artifact-1",
  "contractName": "ERC165MockUpgradeableWithInit",
  "sourceName": "contracts/contracts-upgradeable-v3_4/mocks/WithInit.sol",
  "abi": [
    {
      "inputs": [],
      "stateMutability": "payable",
      "type": "constructor"
    },
    {
      "inputs": [
        {
          "internalType": "bytes4",
          "name": "interfaceId",
          "type": "bytes4"
        }
      ],
      "name": "registerInterface",
      "outputs": [],
      "stateMutability": "nonpayable",
      "type": "function"
    },
    {
      "inputs": [
        {
          "internalType": "bytes4",
          "name": "interfaceId",
          "type": "bytes4"
        }
      ],
      "name": "supportsInterface",
      "outputs": [
        {
          "internalType": "bool",
          "name": "",
          "type": "bool"
        }
      ],
      "stateMutability": "view",
      "type": "function"
    }
  ],
  "bytecode": "0x608060405261000c610011565b6102a4565b600054610100900460ff168061002a575061002a6100ad565b80610038575060005460ff16155b61005d5760405162461bcd60e51b815260040161005490610256565b60405180910390fd5b600054610100900460ff16158015610088576000805460ff1961ff0019909116610100171660011790555b6100906100c8565b610098610146565b80156100aa576000805461ff00191690555b50565b60006100c2306101c760201b6100a41760201c565b15905090565b600054610100900460ff16806100e157506100e16100ad565b806100ef575060005460ff16155b61010b5760405162461bcd60e51b815260040161005490610256565b600054610100900460ff16158015610136576000805460ff1961ff0019909116610100171660011790555b6100986301ffc9a760e01b6101cd565b600054610100900460ff168061015f575061015f6100ad565b8061016d575060005460ff16155b6101895760405162461bcd60e51b815260040161005490610256565b600054610100900460ff16158015610098576000805460ff1961ff00199091166101001716600117905580156100aa576000805461ff001916905550565b3b151590565b6001600160e01b031980821614156101f75760405162461bcd60e51b81526004016100549061021f565b6001600160e01b0319166000908152600160208190526040909120805460ff19169091179055565b6020808252601c908201527f4552433136353a20696e76616c696420696e7465726661636520696400000000604082015260600190565b6020808252602e908201527f496e697469616c697a61626c653a20636f6e747261637420697320616c72656160408201526d191e481a5b9a5d1a585b1a5e995960921b606082015260800190565b6101ac806102b36000396000f3fe608060405234801561001057600080fd5b50600436106100365760003560e01c806301ffc9a71461003b578063214cdb8014610064575b600080fd5b61004e610049366004610105565b610079565b60405161005b9190610134565b60405180910390f35b610077610072366004610105565b610098565b005b6001600160e01b03191660009081526001602052604090205460ff1690565b6100a1816100aa565b50565b3b151590565b6001600160e01b031980821614156100dd5760405162461bcd60e51b81526004016100d49061013f565b60405180910390fd5b6001600160e01b0319166000908152600160208190526040909120805460ff19169091179055565b600060208284031215610116578081fd5b81356001600160e01b03198116811461012d578182fd5b9392505050565b901515815260200190565b6020808252601c908201527f4552433136353a20696e76616c696420696e746572666163652069640000000060408201526060019056fea2646970667358221220b453aef250871fc360231b6a19fc1e77b00aaf6aa8098046dc0ee25e5c7fd9aa64736f6c634300060c0033",
  "linkReferences": {},
  "deployedLinkReferences": {}
}