{
  "_format": "hh-sol-artifact-1",
  "contractName": "ERC1155ReceiverMockUpgradeableWithInit",
  "sourceName": "contracts/contracts-upgradeable-v3_4/mocks/WithInit.sol",
  "abi": [
    {
      "inputs": [
        {
          "internalType": "bytes4",
          "name": "recRetval",
          "type": "bytes4"
        },
        {
          "internalType": "bool",
          "name": "recReverts",
          "type": "bool"
        },
        {
          "internalType": "bytes4",
          "name": "batRetval",
          "type": "bytes4"
        },
        {
          "internalType": "bool",
          "name": "batReverts",
          "type": "bool"
        }
      ],
      "stateMutability": "payable",
      "type": "constructor"
    },
    {
      "anonymous": false,
      "inputs": [
        {
          "indexed": false,
          "internalType": "address",
          "name": "operator",
          "type": "address"
        },
        {
          "indexed": false,
          "internalType": "address",
          "name": "from",
          "type": "address"
        },
        {
          "indexed": false,
          "internalType": "uint256[]",
          "name": "ids",
          "type": "uint256[]"
        },
        {
          "indexed": false,
          "internalType": "uint256[]",
          "name": "values",
          "type": "uint256[]"
        },
        {
          "indexed": false,
          "internalType": "bytes",
          "name": "data",
          "type": "bytes"
        },
        {
          "indexed": false,
          "internalType": "uint256",
          "name": "gas",
          "type": "uint256"
        }
      ],
      "name": "BatchReceived",
      "type": "event"
    },
    {
      "anonymous": false,
      "inputs": [
        {
          "indexed": false,
          "internalType": "address",
          "name": "operator",
          "type": "address"
        },
        {
          "indexed": false,
          "internalType": "address",
          "name": "from",
          "type": "address"
        },
        {
          "indexed": false,
          "internalType": "uint256",
          "name": "id",
          "type": "uint256"
        },
        {
          "indexed": false,
          "internalType": "uint256",
          "name": "value",
          "type": "uint256"
        },
        {
          "indexed": false,
          "internalType": "bytes",
          "name": "data",
          "type": "bytes"
        },
        {
          "indexed": false,
          "internalType": "uint256",
          "name": "gas",
          "type": "uint256"
        }
      ],
      "name": "Received",
      "type": "event"
    },
    {
      "inputs": [
        {
          "internalType": "address",
          "name": "operator",
          "type": "address"
        },
        {
          "internalType": "address",
          "name": "from",
          "type": "address"
        },
        {
          "internalType": "uint256[]",
          "name": "ids",
          "type": "uint256[]"
        },
        {
          "internalType": "uint256[]",
          "name": "values",
          "type": "uint256[]"
        },
        {
          "internalType": "bytes",
          "name": "data",
          "type": "bytes"
        }
      ],
      "name": "onERC1155BatchReceived",
      "outputs": [
        {
          "internalType": "bytes4",
          "name": "",
          "type": "bytes4"
        }
      ],
      "stateMutability": "nonpayable",
      "type": "function"
    },
    {
      "inputs": [
        {
          "internalType": "address",
          "name": "operator",
          "type": "address"
        },
        {
          "internalType": "address",
          "name": "from",
          "type": "address"
        },
        {
          "internalType": "uint256",
          "name": "id",
          "type": "uint256"
        },
        {
          "internalType": "uint256",
          "name": "value",
          "type": "uint256"
        },
        {
          "internalType": "bytes",
          "name": "data",
          "type": "bytes"
        }
      ],
      "name": "onERC1155Received",
      "outputs": [
        {
          "internalType": "bytes4",
          "name": "",
          "type": "bytes4"
        }
      ],
      "stateMutability": "nonpayable",
      "type": "function"
    },
    {
      "inputs": [
        {
          "internalType": "bytes4",
          "name": "interfaceId",
          "type": "bytes4"
        }
      ],
      "name": "registerInterface",
      "outputs": [],
      "stateMutability": "nonpayable",
      "type": "function"
    },
    {
      "inputs": [
        {
          "internalType": "bytes4",
          "name": "interfaceId",
          "type": "bytes4"
        }
      ],
      "name": "supportsInterface",
      "outputs": [
        {
          "internalType": "bool",
          "name": "",
          "type": "bool"
        }
      ],
      "stateMutability": "view",
      "type": "function"
    }
  ],
  "bytecode": "0x608060405260405162000b6838038062000b688339810160408190526200002691620003b2565b62000034848484846200003e565b5050505062000497565b600054610100900460ff16806200005a57506200005a620000f9565b8062000069575060005460ff16155b620000915760405162461bcd60e51b8152600401620000889062000449565b60405180910390fd5b600054610100900460ff16158015620000bd576000805460ff1961ff0019909116610100171660011790555b620000c762000117565b620000d1620001b5565b620000df858585856200023f565b8015620000f2576000805461ff00191690555b5050505050565b600062000111306200032760201b6200020e1760201c565b15905090565b600054610100900460ff168062000133575062000133620000f9565b8062000142575060005460ff16155b620001615760405162461bcd60e51b8152600401620000889062000449565b600054610100900460ff161580156200018d576000805460ff1961ff0019909116610100171660011790555b6200019f6301ffc9a760e01b6200032d565b8015620001b2576000805461ff00191690555b50565b600054610100900460ff1680620001d15750620001d1620000f9565b80620001e0575060005460ff16155b620001ff5760405162461bcd60e51b8152600401620000889062000449565b600054610100900460ff161580156200019f576000805460ff1961ff0019909116610100171660011790558015620001b2576000805461ff001916905550565b600054610100900460ff16806200025b57506200025b620000f9565b806200026a575060005460ff16155b620002895760405162461bcd60e51b8152600401620000889062000449565b600054610100900460ff16158015620002b5576000805460ff1961ff0019909116610100171660011790555b6065805463ffffffff191660e087811c9190911760ff60201b1916640100000000871515021763ffffffff60281b1916650100000000009186901c919091021760ff60481b19166901000000000000000000841515021790558015620000f2576000805461ff00191690555050505050565b3b151590565b6001600160e01b031980821614156200035a5760405162461bcd60e51b8152600401620000889062000412565b6001600160e01b0319166000908152600160208190526040909120805460ff19169091179055565b805180151581146200039357600080fd5b92915050565b80516001600160e01b0319811681146200039357600080fd5b60008060008060808587031215620003c8578384fd5b620003d4868662000399565b9350620003e5866020870162000382565b9250620003f6866040870162000399565b915062000407866060870162000382565b905092959194509250565b6020808252601c908201527f4552433136353a20696e76616c696420696e7465726661636520696400000000604082015260600190565b6020808252602e908201527f496e697469616c697a61626c653a20636f6e747261637420697320616c72656160408201526d191e481a5b9a5d1a585b1a5e995960921b606082015260800190565b6106c180620004a76000396000f3fe608060405234801561001057600080fd5b506004361061004c5760003560e01c806301ffc9a714610051578063214cdb801461007a578063bc197c811461008f578063f23a6e61146100af575b600080fd5b61006461005f36600461043f565b6100c2565b6040516100719190610587565b60405180910390f35b61008d61008836600461043f565b6100e1565b005b6100a261009d36600461030c565b6100ed565b6040516100719190610592565b6100a26100bd3660046103c5565b61018c565b6001600160e01b03191660009081526001602052604090205460ff1690565b6100ea81610214565b50565b6065546000906901000000000000000000900460ff16156101295760405162461bcd60e51b815260040161012090610627565b60405180910390fd5b7f0bcad9224ba33b574e9c85298de2f44b4c80015a21aa5df474896444909863d889898989898989895a604051610168999897969594939291906104cc565b60405180910390a15060655465010000000000900460e01b98975050505050505050565b606554600090640100000000900460ff16156101ba5760405162461bcd60e51b8152600401610120906105de565b7f20dfa9f79060c8c4d7fe892c97c71bcf6e3b63d1dcf66fea7aefc0211628cf298787878787875a6040516101f59796959493929190610538565b60405180910390a15060655460e01b9695505050505050565b3b151590565b6001600160e01b0319808216141561023e5760405162461bcd60e51b8152600401610120906105a7565b6001600160e01b0319166000908152600160208190526040909120805460ff19169091179055565b80356001600160a01b038116811461027d57600080fd5b92915050565b60008083601f840112610294578182fd5b50813567ffffffffffffffff8111156102ab578182fd5b60208301915083602080830285010111156102c557600080fd5b9250929050565b60008083601f8401126102dd578182fd5b50813567ffffffffffffffff8111156102f4578182fd5b6020830191508360208285010111156102c557600080fd5b60008060008060008060008060a0898b031215610327578384fd5b6103318a8a610266565b97506103408a60208b01610266565b9650604089013567ffffffffffffffff8082111561035c578586fd5b6103688c838d01610283565b909850965060608b0135915080821115610380578586fd5b61038c8c838d01610283565b909650945060808b01359150808211156103a4578384fd5b506103b18b828c016102cc565b999c989b5096995094979396929594505050565b60008060008060008060a087890312156103dd578182fd5b86356103e881610676565b955060208701356103f881610676565b94506040870135935060608701359250608087013567ffffffffffffffff811115610421578283fd5b61042d89828a016102cc565b979a9699509497509295939492505050565b600060208284031215610450578081fd5b81356001600160e01b031981168114610467578182fd5b9392505050565b81835260006001600160fb1b03831115610486578081fd5b6020830280836020870137939093016020019283525090919050565b60008284528282602086013780602084860101526020601f19601f85011685010190509392505050565b6001600160a01b038a811682528916602082015260c0604082018190526000906104f9908301898b61046e565b828103606084015261050c81888a61046e565b905082810360808401526105218186886104a2565b9150508260a08301529a9950505050505050505050565b6001600160a01b03888116825287166020820152604081018690526060810185905260c06080820181905260009061057390830185876104a2565b90508260a083015298975050505050505050565b901515815260200190565b6001600160e01b031991909116815260200190565b6020808252601c908201527f4552433136353a20696e76616c696420696e7465726661636520696400000000604082015260600190565b60208082526029908201527f4552433131353552656365697665724d6f636b3a20726576657274696e67206f6040820152686e207265636569766560b81b606082015260800190565b6020808252602f908201527f4552433131353552656365697665724d6f636b3a20726576657274696e67206f60408201526e6e206261746368207265636569766560881b606082015260800190565b6001600160a01b03811681146100ea57600080fdfea264697066735822122009e36f72372ea42f1d3063d71f5b6d14687a268770c6ba292c55b5423229026664736f6c634300060c0033",
  "linkReferences": {},
  "deployedLinkReferences": {}
}