{
  "_format": "hh-sol-artifact-1",
  "contractName": "ERC20PresetMinterPauserUpgradeableWithInit",
  "sourceName": "contracts/contracts-upgradeable-v3_4/mocks/WithInit.sol",
  "abi": [
    {
      "inputs": [
        {
          "internalType": "string",
          "name": "name",
          "type": "string"
        },
        {
          "internalType": "string",
          "name": "symbol",
          "type": "string"
        }
      ],
      "stateMutability": "payable",
      "type": "constructor"
    },
    {
      "anonymous": false,
      "inputs": [
        {
          "indexed": true,
          "internalType": "address",
          "name": "owner",
          "type": "address"
        },
        {
          "indexed": true,
          "internalType": "address",
          "name": "spender",
          "type": "address"
        },
        {
          "indexed": false,
          "internalType": "uint256",
          "name": "value",
          "type": "uint256"
        }
      ],
      "name": "Approval",
      "type": "event"
    },
    {
      "anonymous": false,
      "inputs": [
        {
          "indexed": false,
          "internalType": "address",
          "name": "account",
          "type": "address"
        }
      ],
      "name": "Paused",
      "type": "event"
    },
    {
      "anonymous": false,
      "inputs": [
        {
          "indexed": true,
          "internalType": "bytes32",
          "name": "role",
          "type": "bytes32"
        },
        {
          "indexed": true,
          "internalType": "bytes32",
          "name": "previousAdminRole",
          "type": "bytes32"
        },
        {
          "indexed": true,
          "internalType": "bytes32",
          "name": "newAdminRole",
          "type": "bytes32"
        }
      ],
      "name": "RoleAdminChanged",
      "type": "event"
    },
    {
      "anonymous": false,
      "inputs": [
        {
          "indexed": true,
          "internalType": "bytes32",
          "name": "role",
          "type": "bytes32"
        },
        {
          "indexed": true,
          "internalType": "address",
          "name": "account",
          "type": "address"
        },
        {
          "indexed": true,
          "internalType": "address",
          "name": "sender",
          "type": "address"
        }
      ],
      "name": "RoleGranted",
      "type": "event"
    },
    {
      "anonymous": false,
      "inputs": [
        {
          "indexed": true,
          "internalType": "bytes32",
          "name": "role",
          "type": "bytes32"
        },
        {
          "indexed": true,
          "internalType": "address",
          "name": "account",
          "type": "address"
        },
        {
          "indexed": true,
          "internalType": "address",
          "name": "sender",
          "type": "address"
        }
      ],
      "name": "RoleRevoked",
      "type": "event"
    },
    {
      "anonymous": false,
      "inputs": [
        {
          "indexed": true,
          "internalType": "address",
          "name": "from",
          "type": "address"
        },
        {
          "indexed": true,
          "internalType": "address",
          "name": "to",
          "type": "address"
        },
        {
          "indexed": false,
          "internalType": "uint256",
          "name": "value",
          "type": "uint256"
        }
      ],
      "name": "Transfer",
      "type": "event"
    },
    {
      "anonymous": false,
      "inputs": [
        {
          "indexed": false,
          "internalType": "address",
          "name": "account",
          "type": "address"
        }
      ],
      "name": "Unpaused",
      "type": "event"
    },
    {
      "inputs": [],
      "name": "DEFAULT_ADMIN_ROLE",
      "outputs": [
        {
          "internalType": "bytes32",
          "name": "",
          "type": "bytes32"
        }
      ],
      "stateMutability": "view",
      "type": "function"
    },
    {
      "inputs": [],
      "name": "MINTER_ROLE",
      "outputs": [
        {
          "internalType": "bytes32",
          "name": "",
          "type": "bytes32"
        }
      ],
      "stateMutability": "view",
      "type": "function"
    },
    {
      "inputs": [],
      "name": "PAUSER_ROLE",
      "outputs": [
        {
          "internalType": "bytes32",
          "name": "",
          "type": "bytes32"
        }
      ],
      "stateMutability": "view",
      "type": "function"
    },
    {
      "inputs": [
        {
          "internalType": "address",
          "name": "owner",
          "type": "address"
        },
        {
          "internalType": "address",
          "name": "spender",
          "type": "address"
        }
      ],
      "name": "allowance",
      "outputs": [
        {
          "internalType": "uint256",
          "name": "",
          "type": "uint256"
        }
      ],
      "stateMutability": "view",
      "type": "function"
    },
    {
      "inputs": [
        {
          "internalType": "address",
          "name": "spender",
          "type": "address"
        },
        {
          "internalType": "uint256",
          "name": "amount",
          "type": "uint256"
        }
      ],
      "name": "approve",
      "outputs": [
        {
          "internalType": "bool",
          "name": "",
          "type": "bool"
        }
      ],
      "stateMutability": "nonpayable",
      "type": "function"
    },
    {
      "inputs": [
        {
          "internalType": "address",
          "name": "account",
          "type": "address"
        }
      ],
      "name": "balanceOf",
      "outputs": [
        {
          "internalType": "uint256",
          "name": "",
          "type": "uint256"
        }
      ],
      "stateMutability": "view",
      "type": "function"
    },
    {
      "inputs": [
        {
          "internalType": "uint256",
          "name": "amount",
          "type": "uint256"
        }
      ],
      "name": "burn",
      "outputs": [],
      "stateMutability": "nonpayable",
      "type": "function"
    },
    {
      "inputs": [
        {
          "internalType": "address",
          "name": "account",
          "type": "address"
        },
        {
          "internalType": "uint256",
          "name": "amount",
          "type": "uint256"
        }
      ],
      "name": "burnFrom",
      "outputs": [],
      "stateMutability": "nonpayable",
      "type": "function"
    },
    {
      "inputs": [],
      "name": "decimals",
      "outputs": [
        {
          "internalType": "uint8",
          "name": "",
          "type": "uint8"
        }
      ],
      "stateMutability": "view",
      "type": "function"
    },
    {
      "inputs": [
        {
          "internalType": "address",
          "name": "spender",
          "type": "address"
        },
        {
          "internalType": "uint256",
          "name": "subtractedValue",
          "type": "uint256"
        }
      ],
      "name": "decreaseAllowance",
      "outputs": [
        {
          "internalType": "bool",
          "name": "",
          "type": "bool"
        }
      ],
      "stateMutability": "nonpayable",
      "type": "function"
    },
    {
      "inputs": [
        {
          "internalType": "bytes32",
          "name": "role",
          "type": "bytes32"
        }
      ],
      "name": "getRoleAdmin",
      "outputs": [
        {
          "internalType": "bytes32",
          "name": "",
          "type": "bytes32"
        }
      ],
      "stateMutability": "view",
      "type": "function"
    },
    {
      "inputs": [
        {
          "internalType": "bytes32",
          "name": "role",
          "type": "bytes32"
        },
        {
          "internalType": "uint256",
          "name": "index",
          "type": "uint256"
        }
      ],
      "name": "getRoleMember",
      "outputs": [
        {
          "internalType": "address",
          "name": "",
          "type": "address"
        }
      ],
      "stateMutability": "view",
      "type": "function"
    },
    {
      "inputs": [
        {
          "internalType": "bytes32",
          "name": "role",
          "type": "bytes32"
        }
      ],
      "name": "getRoleMemberCount",
      "outputs": [
        {
          "internalType": "uint256",
          "name": "",
          "type": "uint256"
        }
      ],
      "stateMutability": "view",
      "type": "function"
    },
    {
      "inputs": [
        {
          "internalType": "bytes32",
          "name": "role",
          "type": "bytes32"
        },
        {
          "internalType": "address",
          "name": "account",
          "type": "address"
        }
      ],
      "name": "grantRole",
      "outputs": [],
      "stateMutability": "nonpayable",
      "type": "function"
    },
    {
      "inputs": [
        {
          "internalType": "bytes32",
          "name": "role",
          "type": "bytes32"
        },
        {
          "internalType": "address",
          "name": "account",
          "type": "address"
        }
      ],
      "name": "hasRole",
      "outputs": [
        {
          "internalType": "bool",
          "name": "",
          "type": "bool"
        }
      ],
      "stateMutability": "view",
      "type": "function"
    },
    {
      "inputs": [
        {
          "internalType": "address",
          "name": "spender",
          "type": "address"
        },
        {
          "internalType": "uint256",
          "name": "addedValue",
          "type": "uint256"
        }
      ],
      "name": "increaseAllowance",
      "outputs": [
        {
          "internalType": "bool",
          "name": "",
          "type": "bool"
        }
      ],
      "stateMutability": "nonpayable",
      "type": "function"
    },
    {
      "inputs": [
        {
          "internalType": "string",
          "name": "name",
          "type": "string"
        },
        {
          "internalType": "string",
          "name": "symbol",
          "type": "string"
        }
      ],
      "name": "initialize",
      "outputs": [],
      "stateMutability": "nonpayable",
      "type": "function"
    },
    {
      "inputs": [
        {
          "internalType": "address",
          "name": "to",
          "type": "address"
        },
        {
          "internalType": "uint256",
          "name": "amount",
          "type": "uint256"
        }
      ],
      "name": "mint",
      "outputs": [],
      "stateMutability": "nonpayable",
      "type": "function"
    },
    {
      "inputs": [],
      "name": "name",
      "outputs": [
        {
          "internalType": "string",
          "name": "",
          "type": "string"
        }
      ],
      "stateMutability": "view",
      "type": "function"
    },
    {
      "inputs": [],
      "name": "pause",
      "outputs": [],
      "stateMutability": "nonpayable",
      "type": "function"
    },
    {
      "inputs": [],
      "name": "paused",
      "outputs": [
        {
          "internalType": "bool",
          "name": "",
          "type": "bool"
        }
      ],
      "stateMutability": "view",
      "type": "function"
    },
    {
      "inputs": [
        {
          "internalType": "bytes32",
          "name": "role",
          "type": "bytes32"
        },
        {
          "internalType": "address",
          "name": "account",
          "type": "address"
        }
      ],
      "name": "renounceRole",
      "outputs": [],
      "stateMutability": "nonpayable",
      "type": "function"
    },
    {
      "inputs": [
        {
          "internalType": "bytes32",
          "name": "role",
          "type": "bytes32"
        },
        {
          "internalType": "address",
          "name": "account",
          "type": "address"
        }
      ],
      "name": "revokeRole",
      "outputs": [],
      "stateMutability": "nonpayable",
      "type": "function"
    },
    {
      "inputs": [],
      "name": "symbol",
      "outputs": [
        {
          "internalType": "string",
          "name": "",
          "type": "string"
        }
      ],
      "stateMutability": "view",
      "type": "function"
    },
    {
      "inputs": [],
      "name": "totalSupply",
      "outputs": [
        {
          "internalType": "uint256",
          "name": "",
          "type": "uint256"
        }
      ],
      "stateMutability": "view",
      "type": "function"
    },
    {
      "inputs": [
        {
          "internalType": "address",
          "name": "recipient",
          "type": "address"
        },
        {
          "internalType": "uint256",
          "name": "amount",
          "type": "uint256"
        }
      ],
      "name": "transfer",
      "outputs": [
        {
          "internalType": "bool",
          "name": "",
          "type": "bool"
        }
      ],
      "stateMutability": "nonpayable",
      "type": "function"
    },
    {
      "inputs": [
        {
          "internalType": "address",
          "name": "sender",
          "type": "address"
        },
        {
          "internalType": "address",
          "name": "recipient",
          "type": "address"
        },
        {
          "internalType": "uint256",
          "name": "amount",
          "type": "uint256"
        }
      ],
      "name": "transferFrom",
      "outputs": [
        {
          "internalType": "bool",
          "name": "",
          "type": "bool"
        }
      ],
      "stateMutability": "nonpayable",
      "type": "function"
    },
    {
      "inputs": [],
      "name": "unpause",
      "outputs": [],
      "stateMutability": "nonpayable",
      "type": "function"
    }
  ],
  "bytecode": "0x60806040526040516200251d3803806200251d833981016040819052620000269162000669565b6200003282826200003a565b50506200071e565b600054610100900460ff1680620000565750620000566200011b565b8062000065575060005460ff16155b6200008d5760405162461bcd60e51b81526004016200008490620006d0565b60405180910390fd5b600054610100900460ff16158015620000b9576000805460ff1961ff0019909116610100171660011790555b620000c362000139565b620000cd62000139565b620000d98383620001c5565b620000e362000139565b620000ed6200028b565b620000f762000139565b62000103838362000320565b801562000116576000805461ff00191690555b505050565b600062000133306200040a60201b620009ad1760201c565b15905090565b600054610100900460ff1680620001555750620001556200011b565b8062000164575060005460ff16155b620001835760405162461bcd60e51b81526004016200008490620006d0565b600054610100900460ff16158015620001af576000805460ff1961ff0019909116610100171660011790555b8015620001c2576000805461ff00191690555b50565b600054610100900460ff1680620001e15750620001e16200011b565b80620001f0575060005460ff16155b6200020f5760405162461bcd60e51b81526004016200008490620006d0565b600054610100900460ff161580156200023b576000805460ff1961ff0019909116610100171660011790555b82516200025090606890602086019062000526565b5081516200026690606990602085019062000526565b50606a805460ff19166012179055801562000116576000805461ff0019169055505050565b600054610100900460ff1680620002a75750620002a76200011b565b80620002b6575060005460ff16155b620002d55760405162461bcd60e51b81526004016200008490620006d0565b600054610100900460ff1615801562000301576000805460ff1961ff0019909116610100171660011790555b60c9805460ff191690558015620001c2576000805461ff001916905550565b600054610100900460ff16806200033c57506200033c6200011b565b806200034b575060005460ff16155b6200036a5760405162461bcd60e51b81526004016200008490620006d0565b600054610100900460ff1615801562000396576000805460ff1961ff0019909116610100171660011790555b620003ac6000620003a662000410565b62000414565b620003db7f9f2df0fed2c77648de5860a4cc508cd0818c85b8b8a1ab4ceeef8d981c8956a6620003a662000410565b620001037f65d7a28e3265b37a6474929f336521b332c1681b933f6cb9f3376673440d862a620003a662000410565b3b151590565b3390565b62000420828262000424565b5050565b60008281526033602090815260409091206200044b918390620009b36200049f821b17901c565b1562000420576200045b62000410565b6001600160a01b0316816001600160a01b0316837f2f8788117e7eff1d82e926ec794901d17c78024a50270940304540a733656f0d60405160405180910390a45050565b6000620004b6836001600160a01b038416620004bf565b90505b92915050565b6000620004cd83836200050e565b6200050557508154600181810184556000848152602080822090930184905584548482528286019093526040902091909155620004b9565b506000620004b9565b60009081526001919091016020526040902054151590565b828054600181600116156101000203166002900490600052602060002090601f016020900481019282601f106200056957805160ff191683800117855562000599565b8280016001018555821562000599579182015b82811115620005995782518255916020019190600101906200057c565b50620005a7929150620005ab565b5090565b5b80821115620005a75760008155600101620005ac565b600082601f830112620005d3578081fd5b81516001600160401b0380821115620005ea578283fd5b6040516020601f8401601f19168201810183811183821017156200060c578586fd5b806040525081945083825286818588010111156200062957600080fd5b600092505b838310156200064d57858301810151828401820152918201916200062e565b838311156200065f5760008185840101525b5050505092915050565b600080604083850312156200067c578182fd5b82516001600160401b038082111562000693578384fd5b620006a186838701620005c2565b93506020850151915080821115620006b7578283fd5b50620006c685828601620005c2565b9150509250929050565b6020808252602e908201527f496e697469616c697a61626c653a20636f6e747261637420697320616c72656160408201526d191e481a5b9a5d1a585b1a5e995960921b606082015260800190565b611def806200072e6000396000f3fe608060405234801561001057600080fd5b50600436106101c45760003560e01c806370a08231116100f9578063a457c2d711610097578063d539139311610071578063d539139314610385578063d547741f1461038d578063dd62ed3e146103a0578063e63ab1e9146103b3576101c4565b8063a457c2d71461034c578063a9059cbb1461035f578063ca15c87314610372576101c4565b80639010d07c116100d35780639010d07c1461030957806391d148541461032957806395d89b411461033c578063a217fddf14610344576101c4565b806370a08231146102db57806379cc6790146102ee5780638456cb5914610301576101c4565b806336568abe1161016657806340c10f191161014057806340c10f191461029a57806342966c68146102ad5780634cd88b76146102c05780635c975abb146102d3576101c4565b806336568abe1461026c578063395093511461027f5780633f4ba83a14610292576101c4565b806323b872dd116101a257806323b872dd1461021c578063248a9ca31461022f5780632f2ff15d14610242578063313ce56714610257576101c4565b806306fdde03146101c9578063095ea7b3146101e757806318160ddd14610207575b600080fd5b6101d16103bb565b6040516101de9190611746565b60405180910390f35b6101fa6101f536600461162b565b610451565b6040516101de9190611732565b61020f61046f565b6040516101de919061173d565b6101fa61022a3660046115eb565b610475565b61020f61023d366004611655565b6104fc565b61025561025036600461166d565b610511565b005b61025f610562565b6040516101de9190611cbd565b61025561027a36600461166d565b61056b565b6101fa61028d36600461162b565b6105ad565b6102556105fb565b6102556102a836600461162b565b61063b565b6102556102bb366004611655565b61068d565b6102556102ce3660046116bd565b6106a1565b6101fa610730565b61020f6102e936600461159c565b610739565b6102556102fc36600461162b565b610754565b6102556107a4565b61031c61031736600461169c565b6107e2565b6040516101de919061171e565b6101fa61033736600461166d565b610801565b6101d1610819565b61020f61087a565b6101fa61035a36600461162b565b61087f565b6101fa61036d36600461162b565b6108e7565b61020f610380366004611655565b6108fb565b61020f610912565b61025561039b36600461166d565b610936565b61020f6103ae3660046115b7565b610970565b61020f61099b565b60688054604080516020601f60026000196101006001881615020190951694909404938401819004810282018101909252828152606093909290918301828280156104475780601f1061041c57610100808354040283529160200191610447565b820191906000526020600020905b81548152906001019060200180831161042a57829003601f168201915b5050505050905090565b600061046561045e6109c8565b84846109cc565b5060015b92915050565b60675490565b6000610482848484610a80565b6104f28461048e6109c8565b6104ed85604051806060016040528060288152602001611d29602891396001600160a01b038a166000908152606660205260408120906104cc6109c8565b6001600160a01b031681526020810191909152604001600020549190610b95565b6109cc565b5060019392505050565b60009081526033602052604090206002015490565b60008281526033602052604090206002015461052f906103376109c8565b6105545760405162461bcd60e51b815260040161054b9061181e565b60405180910390fd5b61055e8282610bc1565b5050565b606a5460ff1690565b6105736109c8565b6001600160a01b0316816001600160a01b0316146105a35760405162461bcd60e51b815260040161054b90611bed565b61055e8282610c2a565b60006104656105ba6109c8565b846104ed85606660006105cb6109c8565b6001600160a01b03908116825260208083019390935260409182016000908120918c168152925290205490610c93565b610615600080516020611d518339815191526103376109c8565b6106315760405162461bcd60e51b815260040161054b9061189b565b610639610cb8565b565b6106677f9f2df0fed2c77648de5860a4cc508cd0818c85b8b8a1ab4ceeef8d981c8956a66103376109c8565b6106835760405162461bcd60e51b815260040161054b90611a70565b61055e8282610d26565b61069e6106986109c8565b82610de6565b50565b600054610100900460ff16806106ba57506106ba610ebc565b806106c8575060005460ff16155b6106e45760405162461bcd60e51b815260040161054b90611a22565b600054610100900460ff1615801561070f576000805460ff1961ff0019909116610100171660011790555b6107198383610ecd565b801561072b576000805461ff00191690555b505050565b60c95460ff1690565b6001600160a01b031660009081526065602052604090205490565b600061078682604051806060016040528060248152602001611d716024913961077f866103ae6109c8565b9190610b95565b905061079a836107946109c8565b836109cc565b61072b8383610de6565b6107be600080516020611d518339815191526103376109c8565b6107da5760405162461bcd60e51b815260040161054b90611b90565b610639610f77565b60008281526033602052604081206107fa9083610fd2565b9392505050565b60008281526033602052604081206107fa9083610fde565b60698054604080516020601f60026000196101006001881615020190951694909404938401819004810282018101909252828152606093909290918301828280156104475780601f1061041c57610100808354040283529160200191610447565b600081565b600061046561088c6109c8565b846104ed85604051806060016040528060258152602001611d9560259139606660006108b66109c8565b6001600160a01b03908116825260208083019390935260409182016000908120918d16815292529020549190610b95565b60006104656108f46109c8565b8484610a80565b600081815260336020526040812061046990610ff3565b7f9f2df0fed2c77648de5860a4cc508cd0818c85b8b8a1ab4ceeef8d981c8956a681565b600082815260336020526040902060020154610954906103376109c8565b6105a35760405162461bcd60e51b815260040161054b906119a8565b6001600160a01b03918216600090815260666020908152604080832093909416825291909152205490565b600080516020611d5183398151915281565b3b151590565b60006107fa836001600160a01b038416610ffe565b3390565b6001600160a01b0383166109f25760405162461bcd60e51b815260040161054b90611b4c565b6001600160a01b038216610a185760405162461bcd60e51b815260040161054b906118f8565b6001600160a01b0380841660008181526066602090815260408083209487168084529490915290819020849055517f8c5be1e5ebec7d5bd14f71427d1e84f3dd0314c0f7b2291e5b200ac8c7c3b92590610a7390859061173d565b60405180910390a3505050565b6001600160a01b038316610aa65760405162461bcd60e51b815260040161054b90611b07565b6001600160a01b038216610acc5760405162461bcd60e51b815260040161054b906117db565b610ad7838383611048565b610b1481604051806060016040528060268152602001611d03602691396001600160a01b0386166000908152606560205260409020549190610b95565b6001600160a01b038085166000908152606560205260408082209390935590841681522054610b439082610c93565b6001600160a01b0380841660008181526065602052604090819020939093559151908516907fddf252ad1be2c89b69c2b068fc378daa952ba7f163c4a11628f55a4df523b3ef90610a7390859061173d565b60008184841115610bb95760405162461bcd60e51b815260040161054b9190611746565b505050900390565b6000828152603360205260409020610bd990826109b3565b1561055e57610be66109c8565b6001600160a01b0316816001600160a01b0316837f2f8788117e7eff1d82e926ec794901d17c78024a50270940304540a733656f0d60405160405180910390a45050565b6000828152603360205260409020610c429082611053565b1561055e57610c4f6109c8565b6001600160a01b0316816001600160a01b0316837ff6391f5c32d9c69d2a47ea670b442974b53935d1edc7fd64eb21e047a839171b60405160405180910390a45050565b6000828201838110156107fa5760405162461bcd60e51b815260040161054b9061193a565b610cc0610730565b610cdc5760405162461bcd60e51b815260040161054b9061186d565b60c9805460ff191690557f5db9ee0a495bf2e6ff9c91a7834c1ba4fdd244a5e8aa4e537bd38aeae4b073aa610d0f6109c8565b604051610d1c919061171e565b60405180910390a1565b6001600160a01b038216610d4c5760405162461bcd60e51b815260040161054b90611c3c565b610d5860008383611048565b606754610d659082610c93565b6067556001600160a01b038216600090815260656020526040902054610d8b9082610c93565b6001600160a01b0383166000818152606560205260408082209390935591519091907fddf252ad1be2c89b69c2b068fc378daa952ba7f163c4a11628f55a4df523b3ef90610dda90859061173d565b60405180910390a35050565b6001600160a01b038216610e0c5760405162461bcd60e51b815260040161054b90611ac6565b610e1882600083611048565b610e5581604051806060016040528060228152602001611ce1602291396001600160a01b0385166000908152606560205260409020549190610b95565b6001600160a01b038316600090815260656020526040902055606754610e7b9082611068565b6067556040516000906001600160a01b038416907fddf252ad1be2c89b69c2b068fc378daa952ba7f163c4a11628f55a4df523b3ef90610dda90859061173d565b6000610ec7306109ad565b15905090565b600054610100900460ff1680610ee65750610ee6610ebc565b80610ef4575060005460ff16155b610f105760405162461bcd60e51b815260040161054b90611a22565b600054610100900460ff16158015610f3b576000805460ff1961ff0019909116610100171660011790555b610f43611090565b610f4b611090565b610f558383611112565b610f5d611090565b610f656111cb565b610f6d611090565b6107198383611257565b610f7f610730565b15610f9c5760405162461bcd60e51b815260040161054b906119f8565b60c9805460ff191660011790557f62e78cea01bee320cd4e420270b5ea74000d11b0c9f74754ebdbfc544b05a258610d0f6109c8565b60006107fa838361131d565b60006107fa836001600160a01b038416611362565b60006104698261137a565b600061100a8383611362565b61104057508154600181810184556000848152602080822090930184905584548482528286019093526040902091909155610469565b506000610469565b61072b83838361137e565b60006107fa836001600160a01b0384166113ae565b60008282111561108a5760405162461bcd60e51b815260040161054b90611971565b50900390565b600054610100900460ff16806110a957506110a9610ebc565b806110b7575060005460ff16155b6110d35760405162461bcd60e51b815260040161054b90611a22565b600054610100900460ff161580156110fe576000805460ff1961ff0019909116610100171660011790555b801561069e576000805461ff001916905550565b600054610100900460ff168061112b575061112b610ebc565b80611139575060005460ff16155b6111555760405162461bcd60e51b815260040161054b90611a22565b600054610100900460ff16158015611180576000805460ff1961ff0019909116610100171660011790555b8251611193906068906020860190611474565b5081516111a7906069906020850190611474565b50606a805460ff19166012179055801561072b576000805461ff0019169055505050565b600054610100900460ff16806111e457506111e4610ebc565b806111f2575060005460ff16155b61120e5760405162461bcd60e51b815260040161054b90611a22565b600054610100900460ff16158015611239576000805460ff1961ff0019909116610100171660011790555b60c9805460ff19169055801561069e576000805461ff001916905550565b600054610100900460ff16806112705750611270610ebc565b8061127e575060005460ff16155b61129a5760405162461bcd60e51b815260040161054b90611a22565b600054610100900460ff161580156112c5576000805460ff1961ff0019909116610100171660011790555b6112d760006112d26109c8565b610554565b6113037f9f2df0fed2c77648de5860a4cc508cd0818c85b8b8a1ab4ceeef8d981c8956a66112d26109c8565b610719600080516020611d518339815191526112d26109c8565b815460009082106113405760405162461bcd60e51b815260040161054b90611799565b82600001828154811061134f57fe5b9060005260206000200154905092915050565b60009081526001919091016020526040902054151590565b5490565b61138983838361072b565b611391610730565b1561072b5760405162461bcd60e51b815260040161054b90611c73565b6000818152600183016020526040812054801561146a57835460001980830191908101906000908790839081106113e157fe5b90600052602060002001549050808760000184815481106113fe57fe5b60009182526020808320909101929092558281526001898101909252604090209084019055865487908061142e57fe5b60019003818190600052602060002001600090559055866001016000878152602001908152602001600020600090556001945050505050610469565b6000915050610469565b828054600181600116156101000203166002900490600052602060002090601f016020900481019282601f106114b557805160ff19168380011785556114e2565b828001600101855582156114e2579182015b828111156114e25782518255916020019190600101906114c7565b506114ee9291506114f2565b5090565b5b808211156114ee57600081556001016114f3565b80356001600160a01b038116811461046957600080fd5b600082601f83011261152e578081fd5b813567ffffffffffffffff80821115611545578283fd5b604051601f8301601f191681016020018281118282101715611565578485fd5b60405282815292508284830160200186101561158057600080fd5b8260208601602083013760006020848301015250505092915050565b6000602082840312156115ad578081fd5b6107fa8383611507565b600080604083850312156115c9578081fd5b6115d38484611507565b91506115e28460208501611507565b90509250929050565b6000806000606084860312156115ff578081fd5b833561160a81611ccb565b9250602084013561161a81611ccb565b929592945050506040919091013590565b6000806040838503121561163d578182fd5b6116478484611507565b946020939093013593505050565b600060208284031215611666578081fd5b5035919050565b6000806040838503121561167f578182fd5b82359150602083013561169181611ccb565b809150509250929050565b600080604083850312156116ae578182fd5b50508035926020909101359150565b600080604083850312156116cf578182fd5b823567ffffffffffffffff808211156116e6578384fd5b6116f28683870161151e565b93506020850135915080821115611707578283fd5b506117148582860161151e565b9150509250929050565b6001600160a01b0391909116815260200190565b901515815260200190565b90815260200190565b6000602080835283518082850152825b8181101561177257858101830151858201604001528201611756565b818111156117835783604083870101525b50601f01601f1916929092016040019392505050565b60208082526022908201527f456e756d657261626c655365743a20696e646578206f7574206f6620626f756e604082015261647360f01b606082015260800190565b60208082526023908201527f45524332303a207472616e7366657220746f20746865207a65726f206164647260408201526265737360e81b606082015260800190565b6020808252602f908201527f416363657373436f6e74726f6c3a2073656e646572206d75737420626520616e60408201526e0818591b5a5b881d1bc819dc985b9d608a1b606082015260800190565b60208082526014908201527314185d5cd8589b194e881b9bdd081c185d5cd95960621b604082015260600190565b60208082526039908201527f45524332305072657365744d696e7465725061757365723a206d75737420686160408201527f76652070617573657220726f6c6520746f20756e706175736500000000000000606082015260800190565b60208082526022908201527f45524332303a20617070726f766520746f20746865207a65726f206164647265604082015261737360f01b606082015260800190565b6020808252601b908201527f536166654d6174683a206164646974696f6e206f766572666c6f770000000000604082015260600190565b6020808252601e908201527f536166654d6174683a207375627472616374696f6e206f766572666c6f770000604082015260600190565b60208082526030908201527f416363657373436f6e74726f6c3a2073656e646572206d75737420626520616e60408201526f2061646d696e20746f207265766f6b6560801b606082015260800190565b60208082526010908201526f14185d5cd8589b194e881c185d5cd95960821b604082015260600190565b6020808252602e908201527f496e697469616c697a61626c653a20636f6e747261637420697320616c72656160408201526d191e481a5b9a5d1a585b1a5e995960921b606082015260800190565b60208082526036908201527f45524332305072657365744d696e7465725061757365723a206d7573742068616040820152751d99481b5a5b9d195c881c9bdb19481d1bc81b5a5b9d60521b606082015260800190565b60208082526021908201527f45524332303a206275726e2066726f6d20746865207a65726f206164647265736040820152607360f81b606082015260800190565b60208082526025908201527f45524332303a207472616e736665722066726f6d20746865207a65726f206164604082015264647265737360d81b606082015260800190565b60208082526024908201527f45524332303a20617070726f76652066726f6d20746865207a65726f206164646040820152637265737360e01b606082015260800190565b60208082526037908201527f45524332305072657365744d696e7465725061757365723a206d75737420686160408201527f76652070617573657220726f6c6520746f207061757365000000000000000000606082015260800190565b6020808252602f908201527f416363657373436f6e74726f6c3a2063616e206f6e6c792072656e6f756e636560408201526e103937b632b9903337b91039b2b63360891b606082015260800190565b6020808252601f908201527f45524332303a206d696e7420746f20746865207a65726f206164647265737300604082015260600190565b6020808252602a908201527f45524332305061757361626c653a20746f6b656e207472616e736665722077686040820152691a5b19481c185d5cd95960b21b606082015260800190565b60ff91909116815260200190565b6001600160a01b038116811461069e57600080fdfe45524332303a206275726e20616d6f756e7420657863656564732062616c616e636545524332303a207472616e7366657220616d6f756e7420657863656564732062616c616e636545524332303a207472616e7366657220616d6f756e74206578636565647320616c6c6f77616e636565d7a28e3265b37a6474929f336521b332c1681b933f6cb9f3376673440d862a45524332303a206275726e20616d6f756e74206578636565647320616c6c6f77616e636545524332303a2064656372656173656420616c6c6f77616e63652062656c6f77207a65726fa2646970667358221220d8f37448285c1b7e0dbdb1d2ab9915e52494c9e924a69185942d7c7ce76abcdb64736f6c634300060c0033",
  "linkReferences": {},
  "deployedLinkReferences": {}
}