{
  "_format": "hh-sol-artifact-1",
  "contractName": "ERC20NoReturnMockUpgradeableWithInit",
  "sourceName": "contracts/contracts-upgradeable-v3_4/mocks/WithInit.sol",
  "abi": [
    {
      "inputs": [],
      "stateMutability": "payable",
      "type": "constructor"
    },
    {
      "inputs": [
        {
          "internalType": "address",
          "name": "owner",
          "type": "address"
        },
        {
          "internalType": "address",
          "name": "",
          "type": "address"
        }
      ],
      "name": "allowance",
      "outputs": [
        {
          "internalType": "uint256",
          "name": "",
          "type": "uint256"
        }
      ],
      "stateMutability": "view",
      "type": "function"
    },
    {
      "inputs": [
        {
          "internalType": "address",
          "name": "",
          "type": "address"
        },
        {
          "internalType": "uint256",
          "name": "",
          "type": "uint256"
        }
      ],
      "name": "approve",
      "outputs": [],
      "stateMutability": "nonpayable",
      "type": "function"
    },
    {
      "inputs": [
        {
          "internalType": "uint256",
          "name": "allowance_",
          "type": "uint256"
        }
      ],
      "name": "setAllowance",
      "outputs": [],
      "stateMutability": "nonpayable",
      "type": "function"
    },
    {
      "inputs": [
        {
          "internalType": "address",
          "name": "",
          "type": "address"
        },
        {
          "internalType": "uint256",
          "name": "",
          "type": "uint256"
        }
      ],
      "name": "transfer",
      "outputs": [],
      "stateMutability": "nonpayable",
      "type": "function"
    },
    {
      "inputs": [
        {
          "internalType": "address",
          "name": "",
          "type": "address"
        },
        {
          "internalType": "address",
          "name": "",
          "type": "address"
        },
        {
          "internalType": "uint256",
          "name": "",
          "type": "uint256"
        }
      ],
      "name": "transferFrom",
      "outputs": [],
      "stateMutability": "nonpayable",
      "type": "function"
    }
  ],
  "bytecode": "0x608060405261000c610011565b61019d565b600054610100900460ff168061002a575061002a6100ad565b80610038575060005460ff16155b61005d5760405162461bcd60e51b81526004016100549061014f565b60405180910390fd5b600054610100900460ff16158015610088576000805460ff1961ff0019909116610100171660011790555b6100906100c8565b6100986100c8565b80156100aa576000805461ff00191690555b50565b60006100c23061014960201b61011d1760201c565b15905090565b600054610100900460ff16806100e157506100e16100ad565b806100ef575060005460ff16155b61010b5760405162461bcd60e51b81526004016100549061014f565b600054610100900460ff16158015610098576000805460ff1961ff00199091166101001716600117905580156100aa576000805461ff001916905550565b3b151590565b6020808252602e908201527f496e697469616c697a61626c653a20636f6e747261637420697320616c72656160408201526d191e481a5b9a5d1a585b1a5e995960921b606082015260800190565b61024b806101ac6000396000f3fe608060405234801561001057600080fd5b50600436106100575760003560e01c8063095ea7b31461005c57806323b872dd146100715780633ba93f2614610084578063a9059cbb1461005c578063dd62ed3e14610097575b600080fd5b61006f61006a3660046101b2565b6100c0565b005b61006f61007f366004610172565b6100c9565b61006f6100923660046101dc565b6100d3565b6100aa6100a536600461013e565b6100fd565b6040516100b791906101f4565b60405180910390f35b50506000603455565b5050600060345550565b80603360006100e0610123565b6001600160a01b0316815260208101919091526040016000205550565b6001600160a01b0382166000908152603360205260409020545b92915050565b3b151590565b3390565b80356001600160a01b038116811461011757600080fd5b60008060408385031215610150578182fd5b61015a8484610127565b91506101698460208501610127565b90509250929050565b600080600060608486031215610186578081fd5b8335610191816101fd565b925060208401356101a1816101fd565b929592945050506040919091013590565b600080604083850312156101c4578182fd5b6101ce8484610127565b946020939093013593505050565b6000602082840312156101ed578081fd5b5035919050565b90815260200190565b6001600160a01b038116811461021257600080fd5b5056fea264697066735822122084b9cd6a9dca9a6273dfe4eff2961c79f9837dc37091e74d33714283b71f6b6664736f6c634300060c0033",
  "linkReferences": {},
  "deployedLinkReferences": {}
}