{
  "_format": "hh-sol-artifact-1",
  "contractName": "ERC20ReturnFalseMockUpgradeableWithInit",
  "sourceName": "contracts/contracts-upgradeable-v3_4/mocks/WithInit.sol",
  "abi": [
    {
      "inputs": [],
      "stateMutability": "payable",
      "type": "constructor"
    },
    {
      "inputs": [
        {
          "internalType": "address",
          "name": "",
          "type": "address"
        },
        {
          "internalType": "address",
          "name": "",
          "type": "address"
        }
      ],
      "name": "allowance",
      "outputs": [
        {
          "internalType": "uint256",
          "name": "",
          "type": "uint256"
        }
      ],
      "stateMutability": "view",
      "type": "function"
    },
    {
      "inputs": [
        {
          "internalType": "address",
          "name": "",
          "type": "address"
        },
        {
          "internalType": "uint256",
          "name": "",
          "type": "uint256"
        }
      ],
      "name": "approve",
      "outputs": [
        {
          "internalType": "bool",
          "name": "",
          "type": "bool"
        }
      ],
      "stateMutability": "nonpayable",
      "type": "function"
    },
    {
      "inputs": [
        {
          "internalType": "address",
          "name": "",
          "type": "address"
        },
        {
          "internalType": "uint256",
          "name": "",
          "type": "uint256"
        }
      ],
      "name": "transfer",
      "outputs": [
        {
          "internalType": "bool",
          "name": "",
          "type": "bool"
        }
      ],
      "stateMutability": "nonpayable",
      "type": "function"
    },
    {
      "inputs": [
        {
          "internalType": "address",
          "name": "",
          "type": "address"
        },
        {
          "internalType": "address",
          "name": "",
          "type": "address"
        },
        {
          "internalType": "uint256",
          "name": "",
          "type": "uint256"
        }
      ],
      "name": "transferFrom",
      "outputs": [
        {
          "internalType": "bool",
          "name": "",
          "type": "bool"
        }
      ],
      "stateMutability": "nonpayable",
      "type": "function"
    }
  ],
  "bytecode": "0x608060405261000c610011565b61019d565b600054610100900460ff168061002a575061002a6100ad565b80610038575060005460ff16155b61005d5760405162461bcd60e51b81526004016100549061014f565b60405180910390fd5b600054610100900460ff16158015610088576000805460ff1961ff0019909116610100171660011790555b6100906100c8565b6100986100c8565b80156100aa576000805461ff00191690555b50565b60006100c23061014960201b6100e31760201c565b15905090565b600054610100900460ff16806100e157506100e16100ad565b806100ef575060005460ff16155b61010b5760405162461bcd60e51b81526004016100549061014f565b600054610100900460ff16158015610098576000805460ff1961ff00199091166101001716600117905580156100aa576000805461ff001916905550565b3b151590565b6020808252602e908201527f496e697469616c697a61626c653a20636f6e747261637420697320616c72656160408201526d191e481a5b9a5d1a585b1a5e995960921b606082015260800190565b610200806101ac6000396000f3fe608060405234801561001057600080fd5b506004361061004c5760003560e01c8063095ea7b31461005157806323b872dd1461007a578063a9059cbb14610051578063dd62ed3e1461008d575b600080fd5b61006461005f366004610174565b6100ad565b604051610071919061019e565b60405180910390f35b610064610088366004610134565b6100bb565b6100a061009b366004610100565b6100c9565b60405161007191906101a9565b600060348190555b92915050565b600060348190559392505050565b60006034546000146100da57600080fd5b50600092915050565b3b151590565b80356001600160a01b03811681146100b557600080fd5b60008060408385031215610112578182fd5b61011c84846100e9565b915061012b84602085016100e9565b90509250929050565b600080600060608486031215610148578081fd5b8335610153816101b2565b92506020840135610163816101b2565b929592945050506040919091013590565b60008060408385031215610186578182fd5b61019084846100e9565b946020939093013593505050565b901515815260200190565b90815260200190565b6001600160a01b03811681146101c757600080fd5b5056fea26469706673582212204cc35e6bdfce6ad2714e3ae2ab98aefbfb5643302267a45e1abf1e13b55bcbc264736f6c634300060c0033",
  "linkReferences": {},
  "deployedLinkReferences": {}
}