{
  "_format": "hh-sol-artifact-1",
  "contractName": "ERC20PresetFixedSupplyUpgradeableWithInit",
  "sourceName": "contracts/contracts-upgradeable-v3_4/mocks/WithInit.sol",
  "abi": [
    {
      "inputs": [
        {
          "internalType": "string",
          "name": "name",
          "type": "string"
        },
        {
          "internalType": "string",
          "name": "symbol",
          "type": "string"
        },
        {
          "internalType": "uint256",
          "name": "initialSupply",
          "type": "uint256"
        },
        {
          "internalType": "address",
          "name": "owner",
          "type": "address"
        }
      ],
      "stateMutability": "payable",
      "type": "constructor"
    },
    {
      "anonymous": false,
      "inputs": [
        {
          "indexed": true,
          "internalType": "address",
          "name": "owner",
          "type": "address"
        },
        {
          "indexed": true,
          "internalType": "address",
          "name": "spender",
          "type": "address"
        },
        {
          "indexed": false,
          "internalType": "uint256",
          "name": "value",
          "type": "uint256"
        }
      ],
      "name": "Approval",
      "type": "event"
    },
    {
      "anonymous": false,
      "inputs": [
        {
          "indexed": true,
          "internalType": "address",
          "name": "from",
          "type": "address"
        },
        {
          "indexed": true,
          "internalType": "address",
          "name": "to",
          "type": "address"
        },
        {
          "indexed": false,
          "internalType": "uint256",
          "name": "value",
          "type": "uint256"
        }
      ],
      "name": "Transfer",
      "type": "event"
    },
    {
      "inputs": [
        {
          "internalType": "address",
          "name": "owner",
          "type": "address"
        },
        {
          "internalType": "address",
          "name": "spender",
          "type": "address"
        }
      ],
      "name": "allowance",
      "outputs": [
        {
          "internalType": "uint256",
          "name": "",
          "type": "uint256"
        }
      ],
      "stateMutability": "view",
      "type": "function"
    },
    {
      "inputs": [
        {
          "internalType": "address",
          "name": "spender",
          "type": "address"
        },
        {
          "internalType": "uint256",
          "name": "amount",
          "type": "uint256"
        }
      ],
      "name": "approve",
      "outputs": [
        {
          "internalType": "bool",
          "name": "",
          "type": "bool"
        }
      ],
      "stateMutability": "nonpayable",
      "type": "function"
    },
    {
      "inputs": [
        {
          "internalType": "address",
          "name": "account",
          "type": "address"
        }
      ],
      "name": "balanceOf",
      "outputs": [
        {
          "internalType": "uint256",
          "name": "",
          "type": "uint256"
        }
      ],
      "stateMutability": "view",
      "type": "function"
    },
    {
      "inputs": [
        {
          "internalType": "uint256",
          "name": "amount",
          "type": "uint256"
        }
      ],
      "name": "burn",
      "outputs": [],
      "stateMutability": "nonpayable",
      "type": "function"
    },
    {
      "inputs": [
        {
          "internalType": "address",
          "name": "account",
          "type": "address"
        },
        {
          "internalType": "uint256",
          "name": "amount",
          "type": "uint256"
        }
      ],
      "name": "burnFrom",
      "outputs": [],
      "stateMutability": "nonpayable",
      "type": "function"
    },
    {
      "inputs": [],
      "name": "decimals",
      "outputs": [
        {
          "internalType": "uint8",
          "name": "",
          "type": "uint8"
        }
      ],
      "stateMutability": "view",
      "type": "function"
    },
    {
      "inputs": [
        {
          "internalType": "address",
          "name": "spender",
          "type": "address"
        },
        {
          "internalType": "uint256",
          "name": "subtractedValue",
          "type": "uint256"
        }
      ],
      "name": "decreaseAllowance",
      "outputs": [
        {
          "internalType": "bool",
          "name": "",
          "type": "bool"
        }
      ],
      "stateMutability": "nonpayable",
      "type": "function"
    },
    {
      "inputs": [
        {
          "internalType": "address",
          "name": "spender",
          "type": "address"
        },
        {
          "internalType": "uint256",
          "name": "addedValue",
          "type": "uint256"
        }
      ],
      "name": "increaseAllowance",
      "outputs": [
        {
          "internalType": "bool",
          "name": "",
          "type": "bool"
        }
      ],
      "stateMutability": "nonpayable",
      "type": "function"
    },
    {
      "inputs": [
        {
          "internalType": "string",
          "name": "name",
          "type": "string"
        },
        {
          "internalType": "string",
          "name": "symbol",
          "type": "string"
        },
        {
          "internalType": "uint256",
          "name": "initialSupply",
          "type": "uint256"
        },
        {
          "internalType": "address",
          "name": "owner",
          "type": "address"
        }
      ],
      "name": "initialize",
      "outputs": [],
      "stateMutability": "nonpayable",
      "type": "function"
    },
    {
      "inputs": [],
      "name": "name",
      "outputs": [
        {
          "internalType": "string",
          "name": "",
          "type": "string"
        }
      ],
      "stateMutability": "view",
      "type": "function"
    },
    {
      "inputs": [],
      "name": "symbol",
      "outputs": [
        {
          "internalType": "string",
          "name": "",
          "type": "string"
        }
      ],
      "stateMutability": "view",
      "type": "function"
    },
    {
      "inputs": [],
      "name": "totalSupply",
      "outputs": [
        {
          "internalType": "uint256",
          "name": "",
          "type": "uint256"
        }
      ],
      "stateMutability": "view",
      "type": "function"
    },
    {
      "inputs": [
        {
          "internalType": "address",
          "name": "recipient",
          "type": "address"
        },
        {
          "internalType": "uint256",
          "name": "amount",
          "type": "uint256"
        }
      ],
      "name": "transfer",
      "outputs": [
        {
          "internalType": "bool",
          "name": "",
          "type": "bool"
        }
      ],
      "stateMutability": "nonpayable",
      "type": "function"
    },
    {
      "inputs": [
        {
          "internalType": "address",
          "name": "sender",
          "type": "address"
        },
        {
          "internalType": "address",
          "name": "recipient",
          "type": "address"
        },
        {
          "internalType": "uint256",
          "name": "amount",
          "type": "uint256"
        }
      ],
      "name": "transferFrom",
      "outputs": [
        {
          "internalType": "bool",
          "name": "",
          "type": "bool"
        }
      ],
      "stateMutability": "nonpayable",
      "type": "function"
    }
  ],
  "bytecode": "0x6080604052604051620018f4380380620018f4833981016040819052620000269162000555565b62000034848484846200003e565b50505050620006ab565b600054610100900460ff16806200005a57506200005a62000105565b8062000069575060005460ff16155b620000915760405162461bcd60e51b815260040162000088906200061d565b60405180910390fd5b600054610100900460ff16158015620000bd576000805460ff1961ff0019909116610100171660011790555b620000c762000123565b620000d38585620001af565b620000dd62000123565b620000eb8585858562000276565b8015620000fe576000805461ff00191690555b5050505050565b60006200011d30620002f860201b620005cc1760201c565b15905090565b600054610100900460ff16806200013f57506200013f62000105565b806200014e575060005460ff16155b6200016d5760405162461bcd60e51b815260040162000088906200061d565b600054610100900460ff1615801562000199576000805460ff1961ff0019909116610100171660011790555b8015620001ac576000805461ff00191690555b50565b600054610100900460ff1680620001cb5750620001cb62000105565b80620001da575060005460ff16155b620001f95760405162461bcd60e51b815260040162000088906200061d565b600054610100900460ff1615801562000225576000805460ff1961ff0019909116610100171660011790555b82516200023a90603690602086019062000412565b5081516200025090603790602085019062000412565b506038805460ff19166012179055801562000271576000805461ff00191690555b505050565b600054610100900460ff16806200029257506200029262000105565b80620002a1575060005460ff16155b620002c05760405162461bcd60e51b815260040162000088906200061d565b600054610100900460ff16158015620002ec576000805460ff1961ff0019909116610100171660011790555b620000eb8284620002fe565b3b151590565b6001600160a01b038216620003275760405162461bcd60e51b815260040162000088906200066b565b620003356000838362000271565b6200035181603554620003e360201b620005d21790919060201c565b6035556001600160a01b03821660009081526033602090815260409091205462000386918390620005d2620003e3821b17901c565b6001600160a01b0383166000818152603360205260408082209390935591519091907fddf252ad1be2c89b69c2b068fc378daa952ba7f163c4a11628f55a4df523b3ef90620003d7908590620006a2565b60405180910390a35050565b6000828201838110156200040b5760405162461bcd60e51b81526004016200008890620005e6565b9392505050565b828054600181600116156101000203166002900490600052602060002090601f016020900481019282601f106200045557805160ff191683800117855562000485565b8280016001018555821562000485579182015b828111156200048557825182559160200191906001019062000468565b506200049392915062000497565b5090565b5b8082111562000493576000815560010162000498565b600082601f830112620004bf578081fd5b81516001600160401b0380821115620004d6578283fd5b6040516020601f8401601f1916820181018381118382101715620004f8578586fd5b806040525081945083825286818588010111156200051557600080fd5b600092505b838310156200053957858301810151828401820152918201916200051a565b838311156200054b5760008185840101525b5050505092915050565b600080600080608085870312156200056b578384fd5b84516001600160401b038082111562000582578586fd5b6200059088838901620004ae565b95506020870151915080821115620005a6578485fd5b50620005b587828801620004ae565b60408701516060880151919550935090506001600160a01b0381168114620005db578182fd5b939692955090935050565b6020808252601b908201527f536166654d6174683a206164646974696f6e206f766572666c6f770000000000604082015260600190565b6020808252602e908201527f496e697469616c697a61626c653a20636f6e747261637420697320616c72656160408201526d191e481a5b9a5d1a585b1a5e995960921b606082015260800190565b6020808252601f908201527f45524332303a206d696e7420746f20746865207a65726f206164647265737300604082015260600190565b90815260200190565b61123980620006bb6000396000f3fe608060405234801561001057600080fd5b50600436106100ea5760003560e01c806370a082311161008c578063a457c2d711610066578063a457c2d7146101c0578063a9059cbb146101d3578063bd3a13f6146101e6578063dd62ed3e146101f9576100ea565b806370a082311461019257806379cc6790146101a557806395d89b41146101b8576100ea565b806323b872dd116100c857806323b872dd14610142578063313ce56714610155578063395093511461016a57806342966c681461017d576100ea565b806306fdde03146100ef578063095ea7b31461010d57806318160ddd1461012d575b600080fd5b6100f761020c565b6040516101049190610e89565b60405180910390f35b61012061011b366004610dbf565b6102a2565b6040516101049190610e7e565b6101356102c0565b604051610104919061111e565b610120610150366004610d7f565b6102c6565b61015d61034d565b6040516101049190611127565b610120610178366004610dbf565b610356565b61019061018b366004610e66565b6103a4565b005b6101356101a0366004610d30565b6103b8565b6101906101b3366004610dbf565b6103d3565b6100f7610428565b6101206101ce366004610dbf565b610489565b6101206101e1366004610dbf565b6104f1565b6101906101f4366004610de9565b610505565b610135610207366004610d4b565b6105a1565b60368054604080516020601f60026000196101006001881615020190951694909404938401819004810282018101909252828152606093909290918301828280156102985780601f1061026d57610100808354040283529160200191610298565b820191906000526020600020905b81548152906001019060200180831161027b57829003601f168201915b5050505050905090565b60006102b66102af6105fe565b8484610602565b5060015b92915050565b60355490565b60006102d38484846106b6565b610343846102df6105fe565b61033e85604051806060016040528060288152602001611193602891396001600160a01b038a1660009081526034602052604081209061031d6105fe565b6001600160a01b0316815260208101919091526040016000205491906107cb565b610602565b5060019392505050565b60385460ff1690565b60006102b66103636105fe565b8461033e85603460006103746105fe565b6001600160a01b03908116825260208083019390935260409182016000908120918c1681529252902054906105d2565b6103b56103af6105fe565b826107f7565b50565b6001600160a01b031660009081526033602052604090205490565b6000610405826040518060600160405280602481526020016111bb602491396103fe866102076105fe565b91906107cb565b9050610419836104136105fe565b83610602565b61042383836107f7565b505050565b60378054604080516020601f60026000196101006001881615020190951694909404938401819004810282018101909252828152606093909290918301828280156102985780601f1061026d57610100808354040283529160200191610298565b60006102b66104966105fe565b8461033e856040518060600160405280602581526020016111df60259139603460006104c06105fe565b6001600160a01b03908116825260208083019390935260409182016000908120918d168152925290205491906107cb565b60006102b66104fe6105fe565b84846106b6565b600054610100900460ff168061051e575061051e6108d9565b8061052c575060005460ff16155b6105515760405162461bcd60e51b815260040161054890610fcf565b60405180910390fd5b600054610100900460ff1615801561057c576000805460ff1961ff0019909116610100171660011790555b610588858585856108ea565b801561059a576000805461ff00191690555b5050505050565b6001600160a01b03918216600090815260346020908152604080832093909416825291909152205490565b3b151590565b6000828201838110156105f75760405162461bcd60e51b815260040161054890610f61565b9392505050565b3390565b6001600160a01b0383166106285760405162461bcd60e51b8152600401610548906110a3565b6001600160a01b03821661064e5760405162461bcd60e51b815260040161054890610f1f565b6001600160a01b0380841660008181526034602090815260408083209487168084529490915290819020849055517f8c5be1e5ebec7d5bd14f71427d1e84f3dd0314c0f7b2291e5b200ac8c7c3b925906106a990859061111e565b60405180910390a3505050565b6001600160a01b0383166106dc5760405162461bcd60e51b81526004016105489061105e565b6001600160a01b0382166107025760405162461bcd60e51b815260040161054890610edc565b61070d838383610423565b61074a8160405180606001604052806026815260200161116d602691396001600160a01b03861660009081526033602052604090205491906107cb565b6001600160a01b03808516600090815260336020526040808220939093559084168152205461077990826105d2565b6001600160a01b0380841660008181526033602052604090819020939093559151908516907fddf252ad1be2c89b69c2b068fc378daa952ba7f163c4a11628f55a4df523b3ef906106a990859061111e565b600081848411156107ef5760405162461bcd60e51b81526004016105489190610e89565b505050900390565b6001600160a01b03821661081d5760405162461bcd60e51b81526004016105489061101d565b61082982600083610423565b6108668160405180606001604052806022815260200161114b602291396001600160a01b03851660009081526033602052604090205491906107cb565b6001600160a01b03831660009081526033602052604090205560355461088c908261097e565b6035556040516000906001600160a01b038416907fddf252ad1be2c89b69c2b068fc378daa952ba7f163c4a11628f55a4df523b3ef906108cd90859061111e565b60405180910390a35050565b60006108e4306105cc565b15905090565b600054610100900460ff168061090357506109036108d9565b80610911575060005460ff16155b61092d5760405162461bcd60e51b815260040161054890610fcf565b600054610100900460ff16158015610958576000805460ff1961ff0019909116610100171660011790555b6109606109a6565b61096a8585610a28565b6109726109a6565b61058885858585610ae1565b6000828211156109a05760405162461bcd60e51b815260040161054890610f98565b50900390565b600054610100900460ff16806109bf57506109bf6108d9565b806109cd575060005460ff16155b6109e95760405162461bcd60e51b815260040161054890610fcf565b600054610100900460ff16158015610a14576000805460ff1961ff0019909116610100171660011790555b80156103b5576000805461ff001916905550565b600054610100900460ff1680610a415750610a416108d9565b80610a4f575060005460ff16155b610a6b5760405162461bcd60e51b815260040161054890610fcf565b600054610100900460ff16158015610a96576000805460ff1961ff0019909116610100171660011790555b8251610aa9906036906020860190610c08565b508151610abd906037906020850190610c08565b506038805460ff191660121790558015610423576000805461ff0019169055505050565b600054610100900460ff1680610afa5750610afa6108d9565b80610b08575060005460ff16155b610b245760405162461bcd60e51b815260040161054890610fcf565b600054610100900460ff16158015610b4f576000805460ff1961ff0019909116610100171660011790555b61058882846001600160a01b038216610b7a5760405162461bcd60e51b8152600401610548906110e7565b610b8660008383610423565b603554610b9390826105d2565b6035556001600160a01b038216600090815260336020526040902054610bb990826105d2565b6001600160a01b0383166000818152603360205260408082209390935591519091907fddf252ad1be2c89b69c2b068fc378daa952ba7f163c4a11628f55a4df523b3ef906108cd90859061111e565b828054600181600116156101000203166002900490600052602060002090601f016020900481019282601f10610c4957805160ff1916838001178555610c76565b82800160010185558215610c76579182015b82811115610c76578251825591602001919060010190610c5b565b50610c82929150610c86565b5090565b5b80821115610c825760008155600101610c87565b80356001600160a01b03811681146102ba57600080fd5b600082601f830112610cc2578081fd5b813567ffffffffffffffff80821115610cd9578283fd5b604051601f8301601f191681016020018281118282101715610cf9578485fd5b604052828152925082848301602001861015610d1457600080fd5b8260208601602083013760006020848301015250505092915050565b600060208284031215610d41578081fd5b6105f78383610c9b565b60008060408385031215610d5d578081fd5b610d678484610c9b565b9150610d768460208501610c9b565b90509250929050565b600080600060608486031215610d93578081fd5b8335610d9e81611135565b92506020840135610dae81611135565b929592945050506040919091013590565b60008060408385031215610dd1578182fd5b610ddb8484610c9b565b946020939093013593505050565b60008060008060808587031215610dfe578081fd5b843567ffffffffffffffff80821115610e15578283fd5b610e2188838901610cb2565b95506020870135915080821115610e36578283fd5b50610e4387828801610cb2565b935050604085013591506060850135610e5b81611135565b939692955090935050565b600060208284031215610e77578081fd5b5035919050565b901515815260200190565b6000602080835283518082850152825b81811015610eb557858101830151858201604001528201610e99565b81811115610ec65783604083870101525b50601f01601f1916929092016040019392505050565b60208082526023908201527f45524332303a207472616e7366657220746f20746865207a65726f206164647260408201526265737360e81b606082015260800190565b60208082526022908201527f45524332303a20617070726f766520746f20746865207a65726f206164647265604082015261737360f01b606082015260800190565b6020808252601b908201527f536166654d6174683a206164646974696f6e206f766572666c6f770000000000604082015260600190565b6020808252601e908201527f536166654d6174683a207375627472616374696f6e206f766572666c6f770000604082015260600190565b6020808252602e908201527f496e697469616c697a61626c653a20636f6e747261637420697320616c72656160408201526d191e481a5b9a5d1a585b1a5e995960921b606082015260800190565b60208082526021908201527f45524332303a206275726e2066726f6d20746865207a65726f206164647265736040820152607360f81b606082015260800190565b60208082526025908201527f45524332303a207472616e736665722066726f6d20746865207a65726f206164604082015264647265737360d81b606082015260800190565b60208082526024908201527f45524332303a20617070726f76652066726f6d20746865207a65726f206164646040820152637265737360e01b606082015260800190565b6020808252601f908201527f45524332303a206d696e7420746f20746865207a65726f206164647265737300604082015260600190565b90815260200190565b60ff91909116815260200190565b6001600160a01b03811681146103b557600080fdfe45524332303a206275726e20616d6f756e7420657863656564732062616c616e636545524332303a207472616e7366657220616d6f756e7420657863656564732062616c616e636545524332303a207472616e7366657220616d6f756e74206578636565647320616c6c6f77616e636545524332303a206275726e20616d6f756e74206578636565647320616c6c6f77616e636545524332303a2064656372656173656420616c6c6f77616e63652062656c6f77207a65726fa2646970667358221220ee01639f1e576c7d308bcab6f0ca1eb7b36795896bfe295e7f70f95ea27b014264736f6c634300060c0033",
  "linkReferences": {},
  "deployedLinkReferences": {}
}