{
  "_format": "hh-sol-artifact-1",
  "contractName": "ERC721MockUpgradeableWithInit",
  "sourceName": "contracts/contracts-upgradeable-v3_4/mocks/WithInit.sol",
  "abi": [
    {
      "inputs": [
        {
          "internalType": "string",
          "name": "name",
          "type": "string"
        },
        {
          "internalType": "string",
          "name": "symbol",
          "type": "string"
        }
      ],
      "stateMutability": "payable",
      "type": "constructor"
    },
    {
      "anonymous": false,
      "inputs": [
        {
          "indexed": true,
          "internalType": "address",
          "name": "owner",
          "type": "address"
        },
        {
          "indexed": true,
          "internalType": "address",
          "name": "approved",
          "type": "address"
        },
        {
          "indexed": true,
          "internalType": "uint256",
          "name": "tokenId",
          "type": "uint256"
        }
      ],
      "name": "Approval",
      "type": "event"
    },
    {
      "anonymous": false,
      "inputs": [
        {
          "indexed": true,
          "internalType": "address",
          "name": "owner",
          "type": "address"
        },
        {
          "indexed": true,
          "internalType": "address",
          "name": "operator",
          "type": "address"
        },
        {
          "indexed": false,
          "internalType": "bool",
          "name": "approved",
          "type": "bool"
        }
      ],
      "name": "ApprovalForAll",
      "type": "event"
    },
    {
      "anonymous": false,
      "inputs": [
        {
          "indexed": true,
          "internalType": "address",
          "name": "from",
          "type": "address"
        },
        {
          "indexed": true,
          "internalType": "address",
          "name": "to",
          "type": "address"
        },
        {
          "indexed": true,
          "internalType": "uint256",
          "name": "tokenId",
          "type": "uint256"
        }
      ],
      "name": "Transfer",
      "type": "event"
    },
    {
      "inputs": [
        {
          "internalType": "address",
          "name": "to",
          "type": "address"
        },
        {
          "internalType": "uint256",
          "name": "tokenId",
          "type": "uint256"
        }
      ],
      "name": "approve",
      "outputs": [],
      "stateMutability": "nonpayable",
      "type": "function"
    },
    {
      "inputs": [
        {
          "internalType": "address",
          "name": "owner",
          "type": "address"
        }
      ],
      "name": "balanceOf",
      "outputs": [
        {
          "internalType": "uint256",
          "name": "",
          "type": "uint256"
        }
      ],
      "stateMutability": "view",
      "type": "function"
    },
    {
      "inputs": [],
      "name": "baseURI",
      "outputs": [
        {
          "internalType": "string",
          "name": "",
          "type": "string"
        }
      ],
      "stateMutability": "view",
      "type": "function"
    },
    {
      "inputs": [
        {
          "internalType": "uint256",
          "name": "tokenId",
          "type": "uint256"
        }
      ],
      "name": "burn",
      "outputs": [],
      "stateMutability": "nonpayable",
      "type": "function"
    },
    {
      "inputs": [
        {
          "internalType": "uint256",
          "name": "tokenId",
          "type": "uint256"
        }
      ],
      "name": "exists",
      "outputs": [
        {
          "internalType": "bool",
          "name": "",
          "type": "bool"
        }
      ],
      "stateMutability": "view",
      "type": "function"
    },
    {
      "inputs": [
        {
          "internalType": "uint256",
          "name": "tokenId",
          "type": "uint256"
        }
      ],
      "name": "getApproved",
      "outputs": [
        {
          "internalType": "address",
          "name": "",
          "type": "address"
        }
      ],
      "stateMutability": "view",
      "type": "function"
    },
    {
      "inputs": [
        {
          "internalType": "address",
          "name": "owner",
          "type": "address"
        },
        {
          "internalType": "address",
          "name": "operator",
          "type": "address"
        }
      ],
      "name": "isApprovedForAll",
      "outputs": [
        {
          "internalType": "bool",
          "name": "",
          "type": "bool"
        }
      ],
      "stateMutability": "view",
      "type": "function"
    },
    {
      "inputs": [
        {
          "internalType": "address",
          "name": "to",
          "type": "address"
        },
        {
          "internalType": "uint256",
          "name": "tokenId",
          "type": "uint256"
        }
      ],
      "name": "mint",
      "outputs": [],
      "stateMutability": "nonpayable",
      "type": "function"
    },
    {
      "inputs": [],
      "name": "name",
      "outputs": [
        {
          "internalType": "string",
          "name": "",
          "type": "string"
        }
      ],
      "stateMutability": "view",
      "type": "function"
    },
    {
      "inputs": [
        {
          "internalType": "uint256",
          "name": "tokenId",
          "type": "uint256"
        }
      ],
      "name": "ownerOf",
      "outputs": [
        {
          "internalType": "address",
          "name": "",
          "type": "address"
        }
      ],
      "stateMutability": "view",
      "type": "function"
    },
    {
      "inputs": [
        {
          "internalType": "address",
          "name": "to",
          "type": "address"
        },
        {
          "internalType": "uint256",
          "name": "tokenId",
          "type": "uint256"
        },
        {
          "internalType": "bytes",
          "name": "_data",
          "type": "bytes"
        }
      ],
      "name": "safeMint",
      "outputs": [],
      "stateMutability": "nonpayable",
      "type": "function"
    },
    {
      "inputs": [
        {
          "internalType": "address",
          "name": "to",
          "type": "address"
        },
        {
          "internalType": "uint256",
          "name": "tokenId",
          "type": "uint256"
        }
      ],
      "name": "safeMint",
      "outputs": [],
      "stateMutability": "nonpayable",
      "type": "function"
    },
    {
      "inputs": [
        {
          "internalType": "address",
          "name": "from",
          "type": "address"
        },
        {
          "internalType": "address",
          "name": "to",
          "type": "address"
        },
        {
          "internalType": "uint256",
          "name": "tokenId",
          "type": "uint256"
        }
      ],
      "name": "safeTransferFrom",
      "outputs": [],
      "stateMutability": "nonpayable",
      "type": "function"
    },
    {
      "inputs": [
        {
          "internalType": "address",
          "name": "from",
          "type": "address"
        },
        {
          "internalType": "address",
          "name": "to",
          "type": "address"
        },
        {
          "internalType": "uint256",
          "name": "tokenId",
          "type": "uint256"
        },
        {
          "internalType": "bytes",
          "name": "_data",
          "type": "bytes"
        }
      ],
      "name": "safeTransferFrom",
      "outputs": [],
      "stateMutability": "nonpayable",
      "type": "function"
    },
    {
      "inputs": [
        {
          "internalType": "address",
          "name": "operator",
          "type": "address"
        },
        {
          "internalType": "bool",
          "name": "approved",
          "type": "bool"
        }
      ],
      "name": "setApprovalForAll",
      "outputs": [],
      "stateMutability": "nonpayable",
      "type": "function"
    },
    {
      "inputs": [
        {
          "internalType": "string",
          "name": "baseURI",
          "type": "string"
        }
      ],
      "name": "setBaseURI",
      "outputs": [],
      "stateMutability": "nonpayable",
      "type": "function"
    },
    {
      "inputs": [
        {
          "internalType": "uint256",
          "name": "tokenId",
          "type": "uint256"
        },
        {
          "internalType": "string",
          "name": "uri",
          "type": "string"
        }
      ],
      "name": "setTokenURI",
      "outputs": [],
      "stateMutability": "nonpayable",
      "type": "function"
    },
    {
      "inputs": [
        {
          "internalType": "bytes4",
          "name": "interfaceId",
          "type": "bytes4"
        }
      ],
      "name": "supportsInterface",
      "outputs": [
        {
          "internalType": "bool",
          "name": "",
          "type": "bool"
        }
      ],
      "stateMutability": "view",
      "type": "function"
    },
    {
      "inputs": [],
      "name": "symbol",
      "outputs": [
        {
          "internalType": "string",
          "name": "",
          "type": "string"
        }
      ],
      "stateMutability": "view",
      "type": "function"
    },
    {
      "inputs": [
        {
          "internalType": "uint256",
          "name": "index",
          "type": "uint256"
        }
      ],
      "name": "tokenByIndex",
      "outputs": [
        {
          "internalType": "uint256",
          "name": "",
          "type": "uint256"
        }
      ],
      "stateMutability": "view",
      "type": "function"
    },
    {
      "inputs": [
        {
          "internalType": "address",
          "name": "owner",
          "type": "address"
        },
        {
          "internalType": "uint256",
          "name": "index",
          "type": "uint256"
        }
      ],
      "name": "tokenOfOwnerByIndex",
      "outputs": [
        {
          "internalType": "uint256",
          "name": "",
          "type": "uint256"
        }
      ],
      "stateMutability": "view",
      "type": "function"
    },
    {
      "inputs": [
        {
          "internalType": "uint256",
          "name": "tokenId",
          "type": "uint256"
        }
      ],
      "name": "tokenURI",
      "outputs": [
        {
          "internalType": "string",
          "name": "",
          "type": "string"
        }
      ],
      "stateMutability": "view",
      "type": "function"
    },
    {
      "inputs": [],
      "name": "totalSupply",
      "outputs": [
        {
          "internalType": "uint256",
          "name": "",
          "type": "uint256"
        }
      ],
      "stateMutability": "view",
      "type": "function"
    },
    {
      "inputs": [
        {
          "internalType": "address",
          "name": "from",
          "type": "address"
        },
        {
          "internalType": "address",
          "name": "to",
          "type": "address"
        },
        {
          "internalType": "uint256",
          "name": "tokenId",
          "type": "uint256"
        }
      ],
      "name": "transferFrom",
      "outputs": [],
      "stateMutability": "nonpayable",
      "type": "function"
    }
  ],
  "bytecode": "0x60806040526040516200254c3803806200254c83398101604081905262000026916200052e565b6200003282826200003a565b50506200061a565b600054610100900460ff168062000056575062000056620000fd565b8062000065575060005460ff16155b6200008d5760405162461bcd60e51b81526004016200008490620005cc565b60405180910390fd5b600054610100900460ff16158015620000b9576000805460ff1961ff0019909116610100171660011790555b620000c36200011b565b620000cd620001a7565b620000d983836200022f565b620000e5838362000307565b8015620000f8576000805461ff00191690555b505050565b600062000115306200039360201b6200097b1760201c565b15905090565b600054610100900460ff168062000137575062000137620000fd565b8062000146575060005460ff16155b620001655760405162461bcd60e51b81526004016200008490620005cc565b600054610100900460ff1615801562000191576000805460ff1961ff0019909116610100171660011790555b8015620001a4576000805461ff00191690555b50565b600054610100900460ff1680620001c35750620001c3620000fd565b80620001d2575060005460ff16155b620001f15760405162461bcd60e51b81526004016200008490620005cc565b600054610100900460ff161580156200021d576000805460ff1961ff0019909116610100171660011790555b620001916301ffc9a760e01b62000399565b600054610100900460ff16806200024b57506200024b620000fd565b806200025a575060005460ff16155b620002795760405162461bcd60e51b81526004016200008490620005cc565b600054610100900460ff16158015620002a5576000805460ff1961ff0019909116610100171660011790555b8251620002ba90606a906020860190620003eb565b508151620002d090606b906020850190620003eb565b50620002e36380ac58cd60e01b62000399565b620002f5635b5e139f60e01b62000399565b620000e563780e9d6360e01b62000399565b600054610100900460ff168062000323575062000323620000fd565b8062000332575060005460ff16155b620003515760405162461bcd60e51b81526004016200008490620005cc565b600054610100900460ff16158015620000e5576000805460ff1961ff0019909116610100171660011790558015620000f8576000805461ff0019169055505050565b3b151590565b6001600160e01b03198082161415620003c65760405162461bcd60e51b8152600401620000849062000595565b6001600160e01b0319166000908152603360205260409020805460ff19166001179055565b828054600181600116156101000203166002900490600052602060002090601f016020900481019282601f106200042e57805160ff19168380011785556200045e565b828001600101855582156200045e579182015b828111156200045e57825182559160200191906001019062000441565b506200046c92915062000470565b5090565b5b808211156200046c576000815560010162000471565b600082601f83011262000498578081fd5b81516001600160401b0380821115620004af578283fd5b6040516020601f8401601f1916820181018381118382101715620004d1578586fd5b80604052508194508382528681858801011115620004ee57600080fd5b600092505b83831015620005125785830181015182840182015291820191620004f3565b83831115620005245760008185840101525b5050505092915050565b6000806040838503121562000541578182fd5b82516001600160401b038082111562000558578384fd5b620005668683870162000487565b935060208501519150808211156200057c578283fd5b506200058b8582860162000487565b9150509250929050565b6020808252601c908201527f4552433136353a20696e76616c696420696e7465726661636520696400000000604082015260600190565b6020808252602e908201527f496e697469616c697a61626c653a20636f6e747261637420697320616c72656160408201526d191e481a5b9a5d1a585b1a5e995960921b606082015260800190565b611f22806200062a6000396000f3fe608060405234801561001057600080fd5b50600436106101585760003560e01c80634f6ccce7116100c357806395d89b411161007c57806395d89b41146102d1578063a1448194146102d9578063a22cb465146102ec578063b88d4fde146102ff578063c87b56dd14610312578063e985e9c51461032557610158565b80634f6ccce71461026a57806355f804b31461027d5780636352211e146102905780636c0360eb146102a357806370a08231146102ab5780638832e6e3146102be57610158565b806323b872dd1161011557806323b872dd146101f85780632f745c591461020b57806340c10f191461021e57806342842e0e1461023157806342966c68146102445780634f558e791461025757610158565b806301ffc9a71461015d57806306fdde0314610186578063081812fc1461019b578063095ea7b3146101bb578063162094c4146101d057806318160ddd146101e3575b600080fd5b61017061016b3660046117da565b610338565b60405161017d919061196a565b60405180910390f35b61018e61035b565b60405161017d9190611975565b6101ae6101a9366004611845565b6103f1565b60405161017d9190611919565b6101ce6101c9366004611759565b61043d565b005b6101ce6101de36600461185d565b6104d5565b6101eb6104e3565b60405161017d9190611e31565b6101ce610206366004611676565b6104f4565b6101eb610219366004611759565b61052c565b6101ce61022c366004611759565b610557565b6101ce61023f366004611676565b610561565b6101ce610252366004611845565b61057c565b610170610265366004611845565b610588565b6101eb610278366004611845565b610593565b6101ce61028b366004611812565b6105a9565b6101ae61029e366004611845565b6105b2565b61018e6105da565b6101eb6102b9366004611627565b61063b565b6101ce6102cc366004611783565b610684565b61018e61068f565b6101ce6102e7366004611759565b6106f0565b6101ce6102fa36600461171e565b6106fa565b6101ce61030d3660046116b6565b6107c8565b61018e610320366004611845565b610807565b610170610333366004611642565b61094d565b6001600160e01b0319811660009081526033602052604090205460ff165b919050565b606a8054604080516020601f60026000196101006001881615020190951694909404938401819004810282018101909252828152606093909290918301828280156103e75780601f106103bc576101008083540402835291602001916103e7565b820191906000526020600020905b8154815290600101906020018083116103ca57829003601f168201915b5050505050905090565b60006103fc82610981565b6104215760405162461bcd60e51b815260040161041890611c38565b60405180910390fd5b506000908152606860205260409020546001600160a01b031690565b6000610448826105b2565b9050806001600160a01b0316836001600160a01b0316141561047c5760405162461bcd60e51b815260040161041890611d68565b806001600160a01b031661048e61098e565b6001600160a01b031614806104aa57506104aa8161033361098e565b6104c65760405162461bcd60e51b815260040161041890611b1a565b6104d08383610992565b505050565b6104df8282610a00565b5050565b60006104ef6066610a44565b905090565b6105056104ff61098e565b82610a4f565b6105215760405162461bcd60e51b815260040161041890611da9565b6104d0838383610ad4565b6001600160a01b038216600090815260656020526040812061054e9083610be2565b90505b92915050565b6104df8282610bee565b6104d0838383604051806020016040528060008152506107c8565b61058581610cb2565b50565b600061055182610981565b6000806105a1606684610d7f565b509392505050565b61058581610d9b565b600061055182604051806060016040528060298152602001611ec46029913960669190610dae565b606d8054604080516020601f60026000196101006001881615020190951694909404938401819004810282018101909252828152606093909290918301828280156103e75780601f106103bc576101008083540402835291602001916103e7565b60006001600160a01b0382166106635760405162461bcd60e51b815260040161041890611b77565b6001600160a01b038216600090815260656020526040902061055190610a44565b6104d0838383610dc5565b606b8054604080516020601f60026000196101006001881615020190951694909404938401819004810282018101909252828152606093909290918301828280156103e75780601f106103bc576101008083540402835291602001916103e7565b6104df8282610df8565b61070261098e565b6001600160a01b0316826001600160a01b031614156107335760405162461bcd60e51b815260040161041890611a97565b806069600061074061098e565b6001600160a01b03908116825260208083019390935260409182016000908120918716808252919093529120805460ff19169215159290921790915561078461098e565b6001600160a01b03167f17307eab39ab6107e8899845ad3d59bd9653f200f220920489ca2b5937696c31836040516107bc919061196a565b60405180910390a35050565b6107d96107d361098e565b83610a4f565b6107f55760405162461bcd60e51b815260040161041890611da9565b61080184848484610e12565b50505050565b606061081282610981565b61082e5760405162461bcd60e51b815260040161041890611d19565b6000828152606c602090815260409182902080548351601f60026000196101006001861615020190931692909204918201849004840281018401909452808452606093928301828280156108c35780601f10610898576101008083540402835291602001916108c3565b820191906000526020600020905b8154815290600101906020018083116108a657829003601f168201915b5050505050905060606108d46105da565b90508051600014156108e857509050610356565b81511561091a5780826040516020016109029291906118ea565b60405160208183030381529060405292505050610356565b8061092485610e45565b6040516020016109359291906118ea565b60405160208183030381529060405292505050919050565b6001600160a01b03918216600090815260696020908152604080832093909416825291909152205460ff1690565b3b151590565b6000610551606683610f20565b3390565b600081815260686020526040902080546001600160a01b0319166001600160a01b03841690811790915581906109c7826105b2565b6001600160a01b03167f8c5be1e5ebec7d5bd14f71427d1e84f3dd0314c0f7b2291e5b200ac8c7c3b92560405160405180910390a45050565b610a0982610981565b610a255760405162461bcd60e51b815260040161041890611c84565b6000828152606c6020908152604090912082516104d0928401906114bf565b600061055182610f2c565b6000610a5a82610981565b610a765760405162461bcd60e51b815260040161041890611ace565b6000610a81836105b2565b9050806001600160a01b0316846001600160a01b03161480610abc5750836001600160a01b0316610ab1846103f1565b6001600160a01b0316145b80610acc5750610acc818561094d565b949350505050565b826001600160a01b0316610ae7826105b2565b6001600160a01b031614610b0d5760405162461bcd60e51b815260040161041890611cd0565b6001600160a01b038216610b335760405162461bcd60e51b815260040161041890611a53565b610b3e8383836104d0565b610b49600082610992565b6001600160a01b0383166000908152606560205260409020610b6b9082610f30565b506001600160a01b0382166000908152606560205260409020610b8e9082610f3c565b50610b9b60668284610f48565b5080826001600160a01b0316846001600160a01b03167fddf252ad1be2c89b69c2b068fc378daa952ba7f163c4a11628f55a4df523b3ef60405160405180910390a4505050565b600061054e8383610f5e565b6001600160a01b038216610c145760405162461bcd60e51b815260040161041890611c03565b610c1d81610981565b15610c3a5760405162461bcd60e51b815260040161041890611a1c565b610c46600083836104d0565b6001600160a01b0382166000908152606560205260409020610c689082610f3c565b50610c7560668284610f48565b5060405181906001600160a01b038416906000907fddf252ad1be2c89b69c2b068fc378daa952ba7f163c4a11628f55a4df523b3ef908290a45050565b6000610cbd826105b2565b9050610ccb816000846104d0565b610cd6600083610992565b6000828152606c60205260409020546002600019610100600184161502019091160415610d14576000828152606c60205260408120610d149161153d565b6001600160a01b0381166000908152606560205260409020610d369083610f30565b50610d42606683610fa3565b5060405182906000906001600160a01b038416907fddf252ad1be2c89b69c2b068fc378daa952ba7f163c4a11628f55a4df523b3ef908390a45050565b6000808080610d8e8686610faf565b9097909650945050505050565b80516104df90606d9060208401906114bf565b6000610dbb84848461100b565b90505b9392505050565b610dcf8383610bee565b610ddc600084848461106a565b6104d05760405162461bcd60e51b8152600401610418906119ca565b6104df828260405180602001604052806000815250610dc5565b610e1d848484610ad4565b610e298484848461106a565b6108015760405162461bcd60e51b8152600401610418906119ca565b606081610e6a57506040805180820190915260018152600360fc1b6020820152610356565b8160005b8115610e8257600101600a82049150610e6e565b60608167ffffffffffffffff81118015610e9b57600080fd5b506040519080825280601f01601f191660200182016040528015610ec6576020820181803683370190505b50859350905060001982015b8315610f1757600a840660300160f81b82828060019003935081518110610ef557fe5b60200101906001600160f81b031916908160001a905350600a84049350610ed2565b50949350505050565b600061054e8383611149565b5490565b600061054e8383611161565b600061054e8383611227565b6000610dbb84846001600160a01b038516611271565b81546000908210610f815760405162461bcd60e51b815260040161041890611988565b826000018281548110610f9057fe5b9060005260206000200154905092915050565b600061054e8383611308565b815460009081908310610fd45760405162461bcd60e51b815260040161041890611bc1565b6000846000018481548110610fe557fe5b906000526020600020906002020190508060000154816001015492509250509250929050565b6000828152600184016020526040812054828161103b5760405162461bcd60e51b81526004016104189190611975565b5084600001600182038154811061104e57fe5b9060005260206000209060020201600101549150509392505050565b600061107e846001600160a01b031661097b565b61108a57506001610acc565b6060611112630a85bd0160e11b61109f61098e565b8887876040516024016110b5949392919061192d565b604051602081830303815290604052906001600160e01b0319166020820180516001600160e01b038381831617835250505050604051806060016040528060328152602001611e92603291396001600160a01b03881691906113dc565b905060008180602001905181019061112a91906117f6565b6001600160e01b031916630a85bd0160e11b1492505050949350505050565b60009081526001919091016020526040902054151590565b6000818152600183016020526040812054801561121d578354600019808301919081019060009087908390811061119457fe5b90600052602060002001549050808760000184815481106111b157fe5b6000918252602080832090910192909255828152600189810190925260409020908401905586548790806111e157fe5b60019003818190600052602060002001600090559055866001016000878152602001908152602001600020600090556001945050505050610551565b6000915050610551565b60006112338383611149565b61126957508154600181810184556000848152602080822090930184905584548482528286019093526040902091909155610551565b506000610551565b6000828152600184016020526040812054806112d6575050604080518082018252838152602080820184815286546001818101895560008981528481209551600290930290950191825591519082015586548684528188019092529290912055610dbe565b828560000160018303815481106112e957fe5b9060005260206000209060020201600101819055506000915050610dbe565b6000818152600183016020526040812054801561121d578354600019808301919081019060009087908390811061133b57fe5b906000526020600020906002020190508087600001848154811061135b57fe5b60009182526020808320845460029093020191825560019384015491840191909155835482528983019052604090209084019055865487908061139a57fe5b60008281526020808220600260001990940193840201828155600190810183905592909355888152898201909252604082209190915594506105519350505050565b6060610dbb8484600085856113f08561097b565b61140c5760405162461bcd60e51b815260040161041890611dfa565b60006060866001600160a01b0316858760405161142991906118ce565b60006040518083038185875af1925050503d8060008114611466576040519150601f19603f3d011682016040523d82523d6000602084013e61146b565b606091505b509150915061147b828286611486565b979650505050505050565b60608315611495575081610dbe565b8251156114a55782518084602001fd5b8160405162461bcd60e51b81526004016104189190611975565b828054600181600116156101000203166002900490600052602060002090601f016020900481019282601f1061150057805160ff191683800117855561152d565b8280016001018555821561152d579182015b8281111561152d578251825591602001919060010190611512565b5061153992915061157d565b5090565b50805460018160011615610100020316600290046000825580601f106115635750610585565b601f01602090049060005260206000209081019061058591905b5b80821115611539576000815560010161157e565b80356001600160a01b038116811461055157600080fd5b600082601f8301126115b9578081fd5b813567ffffffffffffffff808211156115d0578283fd5b604051601f8301601f1916810160200182811182821017156115f0578485fd5b60405282815292508284830160200186101561160b57600080fd5b8260208601602083013760006020848301015250505092915050565b600060208284031215611638578081fd5b61054e8383611592565b60008060408385031215611654578081fd5b61165e8484611592565b915061166d8460208501611592565b90509250929050565b60008060006060848603121561168a578081fd5b833561169581611e66565b925060208401356116a581611e66565b929592945050506040919091013590565b600080600080608085870312156116cb578081fd5b6116d58686611592565b93506116e48660208701611592565b925060408501359150606085013567ffffffffffffffff811115611706578182fd5b611712878288016115a9565b91505092959194509250565b60008060408385031215611730578182fd5b61173a8484611592565b91506020830135801515811461174e578182fd5b809150509250929050565b6000806040838503121561176b578182fd5b6117758484611592565b946020939093013593505050565b600080600060608486031215611797578283fd5b83356117a281611e66565b925060208401359150604084013567ffffffffffffffff8111156117c4578182fd5b6117d0868287016115a9565b9150509250925092565b6000602082840312156117eb578081fd5b8135610dbe81611e7b565b600060208284031215611807578081fd5b8151610dbe81611e7b565b600060208284031215611823578081fd5b813567ffffffffffffffff811115611839578182fd5b610acc848285016115a9565b600060208284031215611856578081fd5b5035919050565b6000806040838503121561186f578182fd5b82359150602083013567ffffffffffffffff81111561188c578182fd5b611898858286016115a9565b9150509250929050565b600081518084526118ba816020860160208601611e3a565b601f01601f19169290920160200192915050565b600082516118e0818460208701611e3a565b9190910192915050565b600083516118fc818460208801611e3a565b835190830190611910818360208801611e3a565b01949350505050565b6001600160a01b0391909116815260200190565b6001600160a01b0385811682528416602082015260408101839052608060608201819052600090611960908301846118a2565b9695505050505050565b901515815260200190565b60006020825261054e60208301846118a2565b60208082526022908201527f456e756d657261626c655365743a20696e646578206f7574206f6620626f756e604082015261647360f01b606082015260800190565b60208082526032908201527f4552433732313a207472616e7366657220746f206e6f6e20455243373231526560408201527131b2b4bb32b91034b6b83632b6b2b73a32b960711b606082015260800190565b6020808252601c908201527f4552433732313a20746f6b656e20616c7265616479206d696e74656400000000604082015260600190565b60208082526024908201527f4552433732313a207472616e7366657220746f20746865207a65726f206164646040820152637265737360e01b606082015260800190565b60208082526019908201527f4552433732313a20617070726f766520746f2063616c6c657200000000000000604082015260600190565b6020808252602c908201527f4552433732313a206f70657261746f7220717565727920666f72206e6f6e657860408201526b34b9ba32b73a103a37b5b2b760a11b606082015260800190565b60208082526038908201527f4552433732313a20617070726f76652063616c6c6572206973206e6f74206f7760408201527f6e6572206e6f7220617070726f76656420666f7220616c6c0000000000000000606082015260800190565b6020808252602a908201527f4552433732313a2062616c616e636520717565727920666f7220746865207a65604082015269726f206164647265737360b01b606082015260800190565b60208082526022908201527f456e756d657261626c654d61703a20696e646578206f7574206f6620626f756e604082015261647360f01b606082015260800190565b6020808252818101527f4552433732313a206d696e7420746f20746865207a65726f2061646472657373604082015260600190565b6020808252602c908201527f4552433732313a20617070726f76656420717565727920666f72206e6f6e657860408201526b34b9ba32b73a103a37b5b2b760a11b606082015260800190565b6020808252602c908201527f4552433732314d657461646174613a2055524920736574206f66206e6f6e657860408201526b34b9ba32b73a103a37b5b2b760a11b606082015260800190565b60208082526029908201527f4552433732313a207472616e73666572206f6620746f6b656e2074686174206960408201526839903737ba1037bbb760b91b606082015260800190565b6020808252602f908201527f4552433732314d657461646174613a2055524920717565727920666f72206e6f60408201526e3732bc34b9ba32b73a103a37b5b2b760891b606082015260800190565b60208082526021908201527f4552433732313a20617070726f76616c20746f2063757272656e74206f776e656040820152603960f91b606082015260800190565b60208082526031908201527f4552433732313a207472616e736665722063616c6c6572206973206e6f74206f6040820152701ddb995c881b9bdc88185c1c1c9bdd9959607a1b606082015260800190565b6020808252601d908201527f416464726573733a2063616c6c20746f206e6f6e2d636f6e7472616374000000604082015260600190565b90815260200190565b60005b83811015611e55578181015183820152602001611e3d565b838111156108015750506000910152565b6001600160a01b038116811461058557600080fd5b6001600160e01b03198116811461058557600080fdfe4552433732313a207472616e7366657220746f206e6f6e20455243373231526563656976657220696d706c656d656e7465724552433732313a206f776e657220717565727920666f72206e6f6e6578697374656e7420746f6b656ea2646970667358221220fb0a0fbe165c1eb79c46fc9d98c63895a990812cebe092ab96ba70da3743094164736f6c634300060c0033",
  "linkReferences": {},
  "deployedLinkReferences": {}
}