{
  "_format": "hh-sol-artifact-1",
  "contractName": "ERC777MockUpgradeableWithInit",
  "sourceName": "contracts/contracts-upgradeable-v3_4/mocks/WithInit.sol",
  "abi": [
    {
      "inputs": [
        {
          "internalType": "address",
          "name": "initialHolder",
          "type": "address"
        },
        {
          "internalType": "uint256",
          "name": "initialBalance",
          "type": "uint256"
        },
        {
          "internalType": "string",
          "name": "name",
          "type": "string"
        },
        {
          "internalType": "string",
          "name": "symbol",
          "type": "string"
        },
        {
          "internalType": "address[]",
          "name": "defaultOperators",
          "type": "address[]"
        }
      ],
      "stateMutability": "payable",
      "type": "constructor"
    },
    {
      "anonymous": false,
      "inputs": [
        {
          "indexed": true,
          "internalType": "address",
          "name": "owner",
          "type": "address"
        },
        {
          "indexed": true,
          "internalType": "address",
          "name": "spender",
          "type": "address"
        },
        {
          "indexed": false,
          "internalType": "uint256",
          "name": "value",
          "type": "uint256"
        }
      ],
      "name": "Approval",
      "type": "event"
    },
    {
      "anonymous": false,
      "inputs": [
        {
          "indexed": true,
          "internalType": "address",
          "name": "operator",
          "type": "address"
        },
        {
          "indexed": true,
          "internalType": "address",
          "name": "tokenHolder",
          "type": "address"
        }
      ],
      "name": "AuthorizedOperator",
      "type": "event"
    },
    {
      "anonymous": false,
      "inputs": [],
      "name": "BeforeTokenTransfer",
      "type": "event"
    },
    {
      "anonymous": false,
      "inputs": [
        {
          "indexed": true,
          "internalType": "address",
          "name": "operator",
          "type": "address"
        },
        {
          "indexed": true,
          "internalType": "address",
          "name": "from",
          "type": "address"
        },
        {
          "indexed": false,
          "internalType": "uint256",
          "name": "amount",
          "type": "uint256"
        },
        {
          "indexed": false,
          "internalType": "bytes",
          "name": "data",
          "type": "bytes"
        },
        {
          "indexed": false,
          "internalType": "bytes",
          "name": "operatorData",
          "type": "bytes"
        }
      ],
      "name": "Burned",
      "type": "event"
    },
    {
      "anonymous": false,
      "inputs": [
        {
          "indexed": true,
          "internalType": "address",
          "name": "operator",
          "type": "address"
        },
        {
          "indexed": true,
          "internalType": "address",
          "name": "to",
          "type": "address"
        },
        {
          "indexed": false,
          "internalType": "uint256",
          "name": "amount",
          "type": "uint256"
        },
        {
          "indexed": false,
          "internalType": "bytes",
          "name": "data",
          "type": "bytes"
        },
        {
          "indexed": false,
          "internalType": "bytes",
          "name": "operatorData",
          "type": "bytes"
        }
      ],
      "name": "Minted",
      "type": "event"
    },
    {
      "anonymous": false,
      "inputs": [
        {
          "indexed": true,
          "internalType": "address",
          "name": "operator",
          "type": "address"
        },
        {
          "indexed": true,
          "internalType": "address",
          "name": "tokenHolder",
          "type": "address"
        }
      ],
      "name": "RevokedOperator",
      "type": "event"
    },
    {
      "anonymous": false,
      "inputs": [
        {
          "indexed": true,
          "internalType": "address",
          "name": "operator",
          "type": "address"
        },
        {
          "indexed": true,
          "internalType": "address",
          "name": "from",
          "type": "address"
        },
        {
          "indexed": true,
          "internalType": "address",
          "name": "to",
          "type": "address"
        },
        {
          "indexed": false,
          "internalType": "uint256",
          "name": "amount",
          "type": "uint256"
        },
        {
          "indexed": false,
          "internalType": "bytes",
          "name": "data",
          "type": "bytes"
        },
        {
          "indexed": false,
          "internalType": "bytes",
          "name": "operatorData",
          "type": "bytes"
        }
      ],
      "name": "Sent",
      "type": "event"
    },
    {
      "anonymous": false,
      "inputs": [
        {
          "indexed": true,
          "internalType": "address",
          "name": "from",
          "type": "address"
        },
        {
          "indexed": true,
          "internalType": "address",
          "name": "to",
          "type": "address"
        },
        {
          "indexed": false,
          "internalType": "uint256",
          "name": "value",
          "type": "uint256"
        }
      ],
      "name": "Transfer",
      "type": "event"
    },
    {
      "inputs": [
        {
          "internalType": "address",
          "name": "holder",
          "type": "address"
        },
        {
          "internalType": "address",
          "name": "spender",
          "type": "address"
        }
      ],
      "name": "allowance",
      "outputs": [
        {
          "internalType": "uint256",
          "name": "",
          "type": "uint256"
        }
      ],
      "stateMutability": "view",
      "type": "function"
    },
    {
      "inputs": [
        {
          "internalType": "address",
          "name": "spender",
          "type": "address"
        },
        {
          "internalType": "uint256",
          "name": "value",
          "type": "uint256"
        }
      ],
      "name": "approve",
      "outputs": [
        {
          "internalType": "bool",
          "name": "",
          "type": "bool"
        }
      ],
      "stateMutability": "nonpayable",
      "type": "function"
    },
    {
      "inputs": [
        {
          "internalType": "address",
          "name": "holder",
          "type": "address"
        },
        {
          "internalType": "address",
          "name": "spender",
          "type": "address"
        },
        {
          "internalType": "uint256",
          "name": "value",
          "type": "uint256"
        }
      ],
      "name": "approveInternal",
      "outputs": [],
      "stateMutability": "nonpayable",
      "type": "function"
    },
    {
      "inputs": [
        {
          "internalType": "address",
          "name": "operator",
          "type": "address"
        }
      ],
      "name": "authorizeOperator",
      "outputs": [],
      "stateMutability": "nonpayable",
      "type": "function"
    },
    {
      "inputs": [
        {
          "internalType": "address",
          "name": "tokenHolder",
          "type": "address"
        }
      ],
      "name": "balanceOf",
      "outputs": [
        {
          "internalType": "uint256",
          "name": "",
          "type": "uint256"
        }
      ],
      "stateMutability": "view",
      "type": "function"
    },
    {
      "inputs": [
        {
          "internalType": "uint256",
          "name": "amount",
          "type": "uint256"
        },
        {
          "internalType": "bytes",
          "name": "data",
          "type": "bytes"
        }
      ],
      "name": "burn",
      "outputs": [],
      "stateMutability": "nonpayable",
      "type": "function"
    },
    {
      "inputs": [],
      "name": "decimals",
      "outputs": [
        {
          "internalType": "uint8",
          "name": "",
          "type": "uint8"
        }
      ],
      "stateMutability": "pure",
      "type": "function"
    },
    {
      "inputs": [],
      "name": "defaultOperators",
      "outputs": [
        {
          "internalType": "address[]",
          "name": "",
          "type": "address[]"
        }
      ],
      "stateMutability": "view",
      "type": "function"
    },
    {
      "inputs": [],
      "name": "granularity",
      "outputs": [
        {
          "internalType": "uint256",
          "name": "",
          "type": "uint256"
        }
      ],
      "stateMutability": "view",
      "type": "function"
    },
    {
      "inputs": [
        {
          "internalType": "address",
          "name": "operator",
          "type": "address"
        },
        {
          "internalType": "address",
          "name": "tokenHolder",
          "type": "address"
        }
      ],
      "name": "isOperatorFor",
      "outputs": [
        {
          "internalType": "bool",
          "name": "",
          "type": "bool"
        }
      ],
      "stateMutability": "view",
      "type": "function"
    },
    {
      "inputs": [
        {
          "internalType": "address",
          "name": "to",
          "type": "address"
        },
        {
          "internalType": "uint256",
          "name": "amount",
          "type": "uint256"
        },
        {
          "internalType": "bytes",
          "name": "userData",
          "type": "bytes"
        },
        {
          "internalType": "bytes",
          "name": "operatorData",
          "type": "bytes"
        }
      ],
      "name": "mintInternal",
      "outputs": [],
      "stateMutability": "nonpayable",
      "type": "function"
    },
    {
      "inputs": [],
      "name": "name",
      "outputs": [
        {
          "internalType": "string",
          "name": "",
          "type": "string"
        }
      ],
      "stateMutability": "view",
      "type": "function"
    },
    {
      "inputs": [
        {
          "internalType": "address",
          "name": "account",
          "type": "address"
        },
        {
          "internalType": "uint256",
          "name": "amount",
          "type": "uint256"
        },
        {
          "internalType": "bytes",
          "name": "data",
          "type": "bytes"
        },
        {
          "internalType": "bytes",
          "name": "operatorData",
          "type": "bytes"
        }
      ],
      "name": "operatorBurn",
      "outputs": [],
      "stateMutability": "nonpayable",
      "type": "function"
    },
    {
      "inputs": [
        {
          "internalType": "address",
          "name": "sender",
          "type": "address"
        },
        {
          "internalType": "address",
          "name": "recipient",
          "type": "address"
        },
        {
          "internalType": "uint256",
          "name": "amount",
          "type": "uint256"
        },
        {
          "internalType": "bytes",
          "name": "data",
          "type": "bytes"
        },
        {
          "internalType": "bytes",
          "name": "operatorData",
          "type": "bytes"
        }
      ],
      "name": "operatorSend",
      "outputs": [],
      "stateMutability": "nonpayable",
      "type": "function"
    },
    {
      "inputs": [
        {
          "internalType": "address",
          "name": "operator",
          "type": "address"
        }
      ],
      "name": "revokeOperator",
      "outputs": [],
      "stateMutability": "nonpayable",
      "type": "function"
    },
    {
      "inputs": [
        {
          "internalType": "address",
          "name": "recipient",
          "type": "address"
        },
        {
          "internalType": "uint256",
          "name": "amount",
          "type": "uint256"
        },
        {
          "internalType": "bytes",
          "name": "data",
          "type": "bytes"
        }
      ],
      "name": "send",
      "outputs": [],
      "stateMutability": "nonpayable",
      "type": "function"
    },
    {
      "inputs": [],
      "name": "symbol",
      "outputs": [
        {
          "internalType": "string",
          "name": "",
          "type": "string"
        }
      ],
      "stateMutability": "view",
      "type": "function"
    },
    {
      "inputs": [],
      "name": "totalSupply",
      "outputs": [
        {
          "internalType": "uint256",
          "name": "",
          "type": "uint256"
        }
      ],
      "stateMutability": "view",
      "type": "function"
    },
    {
      "inputs": [
        {
          "internalType": "address",
          "name": "recipient",
          "type": "address"
        },
        {
          "internalType": "uint256",
          "name": "amount",
          "type": "uint256"
        }
      ],
      "name": "transfer",
      "outputs": [
        {
          "internalType": "bool",
          "name": "",
          "type": "bool"
        }
      ],
      "stateMutability": "nonpayable",
      "type": "function"
    },
    {
      "inputs": [
        {
          "internalType": "address",
          "name": "holder",
          "type": "address"
        },
        {
          "internalType": "address",
          "name": "recipient",
          "type": "address"
        },
        {
          "internalType": "uint256",
          "name": "amount",
          "type": "uint256"
        }
      ],
      "name": "transferFrom",
      "outputs": [
        {
          "internalType": "bool",
          "name": "",
          "type": "bool"
        }
      ],
      "stateMutability": "nonpayable",
      "type": "function"
    }
  ],
  "bytecode": "0x608060405260405162002929380380620029298339810160408190526200002691620009cd565b62000035858585858562000040565b505050505062000d93565b600054610100900460ff16806200005c57506200005c62000100565b806200006b575060005460ff16155b620000935760405162461bcd60e51b81526004016200008a9062000be5565b60405180910390fd5b600054610100900460ff16158015620000bf576000805460ff1961ff0019909116610100171660011790555b620000c96200011e565b620000d6848484620001aa565b620000e58686868686620003fd565b8015620000f8576000805461ff00191690555b505050505050565b60006200011830620004a560201b62000a661760201c565b15905090565b600054610100900460ff16806200013a57506200013a62000100565b8062000149575060005460ff16155b620001685760405162461bcd60e51b81526004016200008a9062000be5565b600054610100900460ff1615801562000194576000805460ff1961ff0019909116610100171660011790555b8015620001a7576000805461ff00191690555b50565b600054610100900460ff1680620001c65750620001c662000100565b80620001d5575060005460ff16155b620001f45760405162461bcd60e51b81526004016200008a9062000be5565b600054610100900460ff1615801562000220576000805460ff1961ff0019909116610100171660011790555b835162000235906035906020870190620007ff565b5082516200024b906036906020860190620007ff565b5081516200026190603790602085019062000884565b5060005b603754811015620002c157600160386000603784815481106200028457fe5b6000918252602080832091909101546001600160a01b031683528201929092526040019020805460ff191691151591909117905560010162000265565b506040516329965a1d60e01b8152731820a4b7618bde71dce8cdc73aab6c95905fad24906329965a1d906200031f9030907fac7fbab5f54a3ca8194167523c6753bfeb96a445279294b6125b68cce217705490829060040162000b8b565b600060405180830381600087803b1580156200033a57600080fd5b505af11580156200034f573d6000803e3d6000fd5b50506040516329965a1d60e01b8152731820a4b7618bde71dce8cdc73aab6c95905fad2492506329965a1d9150620003b09030907faea199e31a596269b42cdafd93407f14436db6e4cad65417994c2eb37381e05a90829060040162000b8b565b600060405180830381600087803b158015620003cb57600080fd5b505af1158015620003e0573d6000803e3d6000fd5b505050508015620003f7576000805461ff00191690555b50505050565b600054610100900460ff16806200041957506200041962000100565b8062000428575060005460ff16155b620004475760405162461bcd60e51b81526004016200008a9062000be5565b600054610100900460ff1615801562000473576000805460ff1961ff0019909116610100171660011790555b620000e586866040518060200160405280600081525060405180602001604052806000815250620004ab60201b60201c565b3b151590565b6001600160a01b038416620004d45760405162461bcd60e51b81526004016200008a9062000c33565b6000620004e062000617565b9050620004f181600087876200061b565b6200050d846034546200064a60201b62000a6c1790919060201c565b6034556001600160a01b0385166000908152603360209081526040909120546200054291869062000a6c6200064a821b17901c565b6001600160a01b038616600090815260336020526040812091909155620005719082908787878760016200067b565b846001600160a01b0316816001600160a01b03167f2fe5be0146f74c5bce36c0b80911af6c7d86ff27e89d5cfa61fc681327954e5d868686604051620005ba9392919062000ce4565b60405180910390a3846001600160a01b031660006001600160a01b03167fddf252ad1be2c89b69c2b068fc378daa952ba7f163c4a11628f55a4df523b3ef8660405162000608919062000cdb565b60405180910390a35050505050565b3390565b6040517f52316ab8e8b0687ce803e403dfe429541bccd4f6c4683ec65d254d382f15a26590600090a150505050565b600082820183811015620006725760405162461bcd60e51b81526004016200008a9062000bae565b90505b92915050565b60405163555ddc6560e11b8152600090731820a4b7618bde71dce8cdc73aab6c95905fad249063aabbb8ca90620006d99089907fb281fc8c12954d22544db45de3159a39272895b169a852b314f9cc762e44c53b9060040162000b72565b60206040518083038186803b158015620006f257600080fd5b505afa15801562000707573d6000803e3d6000fd5b505050506040513d601f19601f820116820180604052508101906200072d9190620009a8565b90506001600160a01b03811615620007af576040516223de2960e01b81526001600160a01b038216906223de299062000775908b908b908b908b908b908b9060040162000b14565b600060405180830381600087803b1580156200079057600080fd5b505af1158015620007a5573d6000803e3d6000fd5b50505050620007f5565b8115620007f557620007d5866001600160a01b0316620004a560201b62000a661760201c565b15620007f55760405162461bcd60e51b81526004016200008a9062000c68565b5050505050505050565b828054600181600116156101000203166002900490600052602060002090601f016020900481019282601f106200084257805160ff191683800117855562000872565b8280016001018555821562000872579182015b828111156200087257825182559160200191906001019062000855565b5062000880929150620008ea565b5090565b828054828255906000526020600020908101928215620008dc579160200282015b82811115620008dc57825182546001600160a01b0319166001600160a01b03909116178255602090920191600190910190620008a5565b506200088092915062000901565b5b80821115620008805760008155600101620008eb565b5b80821115620008805780546001600160a01b031916815560010162000902565b80516001600160a01b03811681146200067557600080fd5b600082601f8301126200094b578081fd5b81516001600160401b0381111562000961578182fd5b62000976601f8201601f191660200162000d1d565b91508082528360208285010111156200098e57600080fd5b620009a181602084016020860162000d64565b5092915050565b600060208284031215620009ba578081fd5b620009c6838362000922565b9392505050565b600080600080600060a08688031215620009e5578081fd5b620009f1878762000922565b60208781015160408901519297509550906001600160401b038082111562000a17578384fd5b62000a258a838b016200093a565b9550606089015191508082111562000a3b578384fd5b62000a498a838b016200093a565b9450608089015191508082111562000a5f578384fd5b508701601f8101891362000a71578283fd5b805162000a8862000a828262000d44565b62000d1d565b81815283810190838501858402850186018d101562000aa5578687fd5b8694505b8385101562000ad35762000abe8d8262000922565b83526001949094019391850191850162000aa9565b5080955050505050509295509295909350565b6000815180845262000b0081602086016020860162000d64565b601f01601f19169290920160200192915050565b6001600160a01b0387811682528681166020830152851660408201526060810184905260c06080820181905260009062000b519083018562000ae6565b82810360a084015262000b65818562000ae6565b9998505050505050505050565b6001600160a01b03929092168252602082015260400190565b6001600160a01b0393841681526020810192909252909116604082015260600190565b6020808252601b908201527f536166654d6174683a206164646974696f6e206f766572666c6f770000000000604082015260600190565b6020808252602e908201527f496e697469616c697a61626c653a20636f6e747261637420697320616c72656160408201526d191e481a5b9a5d1a585b1a5e995960921b606082015260800190565b6020808252818101527f4552433737373a206d696e7420746f20746865207a65726f2061646472657373604082015260600190565b6020808252604d908201527f4552433737373a20746f6b656e20726563697069656e7420636f6e747261637460408201527f20686173206e6f20696d706c656d656e74657220666f7220455243373737546f60608201526c1ad95b9cd49958da5c1a595b9d609a1b608082015260a00190565b90815260200190565b60008482526060602083015262000cff606083018562000ae6565b828103604084015262000d13818562000ae6565b9695505050505050565b6040518181016001600160401b038111828210171562000d3c57600080fd5b604052919050565b60006001600160401b0382111562000d5a578081fd5b5060209081020190565b60005b8381101562000d8157818101518382015260200162000d67565b83811115620003f75750506000910152565b611b868062000da36000396000f3fe608060405234801561001057600080fd5b506004361061012c5760003560e01c8063959b8c3f116100ad578063d95b637111610071578063d95b637114610258578063dd62ed3e1461026b578063fad8b32a1461027e578063fc673c4f14610291578063fe9d9303146102a45761012c565b8063959b8c3f1461020457806395d89b41146102175780639bd9bbc61461021f578063a9059cbb14610232578063b1f0b5be146102455761012c565b8063313ce567116100f4578063313ce567146101ac578063556f0dc7146101c157806356189cb4146101c957806362ad1b83146101de57806370a08231146101f15761012c565b806306e485381461013157806306fdde031461014f578063095ea7b31461016457806318160ddd1461018457806323b872dd14610199575b600080fd5b6101396102b7565b604051610146919061165c565b60405180910390f35b610157610319565b60405161014691906116b4565b61017761017236600461145a565b6103a6565b60405161014691906116a9565b61018c6103c8565b6040516101469190611a79565b6101776101a736600461138a565b6103ce565b6101b4610516565b6040516101469190611ab7565b61018c61051b565b6101dc6101d736600461138a565b610520565b005b6101dc6101ec3660046113ca565b610530565b61018c6101ff36600461131a565b610573565b6101dc61021236600461131a565b61058e565b6101576106bb565b6101dc61022d366004611485565b61071c565b61017761024036600461145a565b610741565b6101dc6102533660046114dc565b6107fb565b610177610266366004611352565b61080d565b61018c610279366004611352565b6108af565b6101dc61028c36600461131a565b6108da565b6101dc61029f3660046114dc565b610a07565b6101dc6102b2366004611559565b610a40565b6060603780548060200260200160405190810160405280929190818152602001828054801561030f57602002820191906000526020600020905b81546001600160a01b031681526001909101906020018083116102f1575b5050505050905090565b60358054604080516020601f600260001961010060018816150201909516949094049384018190048102820181019092528281526060939092909183018282801561030f5780601f1061037a5761010080835404028352916020019161030f565b820191906000526020600020905b81548152906001019060200180831161038857509395945050505050565b6000806103b1610a91565b90506103be818585610a95565b5060019392505050565b60345490565b60006001600160a01b0383166103ff5760405162461bcd60e51b81526004016103f69061192b565b60405180910390fd5b6001600160a01b0384166104255760405162461bcd60e51b81526004016103f6906119bb565b600061042f610a91565b905061045d818686866040518060200160405280600081525060405180602001604052806000815250610b49565b610489818686866040518060200160405280600081525060405180602001604052806000815250610c78565b6104dd85826104d886604051806060016040528060298152602001611b05602991396001600160a01b03808c166000908152603b60209081526040808320938b16835292905220549190610da4565b610a95565b61050b8186868660405180602001604052806000815250604051806020016040528060008152506000610dd0565b506001949350505050565b601290565b600190565b61052b838383610a95565b505050565b61054161053b610a91565b8661080d565b61055d5760405162461bcd60e51b81526004016103f69061196f565b61056c85858585856001610f37565b5050505050565b6001600160a01b031660009081526033602052604090205490565b806001600160a01b03166105a0610a91565b6001600160a01b031614156105c75760405162461bcd60e51b81526004016103f6906117c7565b6001600160a01b03811660009081526038602052604090205460ff161561062a57603a60006105f4610a91565b6001600160a01b03908116825260208083019390935260409182016000908120918516815292529020805460ff19169055610671565b600160396000610638610a91565b6001600160a01b03908116825260208083019390935260409182016000908120918616815292529020805460ff19169115159190911790555b610679610a91565b6001600160a01b0316816001600160a01b03167ff4caeb2d6ca8932a215a353d0703c326ec2d81fc68170f320eb2ab49e9df61f960405160405180910390a350565b60368054604080516020601f600260001961010060018816150201909516949094049384018190048102820181019092528281526060939092909183018282801561030f5780601f1061037a5761010080835404028352916020019161030f565b61052b610727610a91565b848484604051806020016040528060008152506001610f37565b60006001600160a01b0383166107695760405162461bcd60e51b81526004016103f69061192b565b6000610773610a91565b90506107a1818286866040518060200160405280600081525060405180602001604052806000815250610b49565b6107cd818286866040518060200160405280600081525060405180602001604052806000815250610c78565b6103be8182868660405180602001604052806000815250604051806020016040528060008152506000610dd0565b61080784848484610fba565b50505050565b6000816001600160a01b0316836001600160a01b0316148061087857506001600160a01b03831660009081526038602052604090205460ff16801561087857506001600160a01b038083166000908152603a602090815260408083209387168352929052205460ff16155b806108a857506001600160a01b0380831660009081526039602090815260408083209387168352929052205460ff165b9392505050565b6001600160a01b039182166000908152603b6020908152604080832093909416825291909152205490565b6108e2610a91565b6001600160a01b0316816001600160a01b031614156109135760405162461bcd60e51b81526004016103f690611842565b6001600160a01b03811660009081526038602052604090205460ff161561097f576001603a6000610942610a91565b6001600160a01b03908116825260208083019390935260409182016000908120918616815292529020805460ff19169115159190911790556109bd565b6039600061098b610a91565b6001600160a01b03908116825260208083019390935260409182016000908120918516815292529020805460ff191690555b6109c5610a91565b6001600160a01b0316816001600160a01b03167f50546e66e5f44d728365dc3908c63bc5cfeeab470722c1677e3073a6ac294aa160405160405180910390a350565b610a18610a12610a91565b8561080d565b610a345760405162461bcd60e51b81526004016103f69061196f565b610807848484846110fb565b610a62610a4b610a91565b8383604051806020016040528060008152506110fb565b5050565b3b151590565b6000828201838110156108a85760405162461bcd60e51b81526004016103f69061174e565b3390565b6001600160a01b038316610abb5760405162461bcd60e51b81526004016103f6906116c7565b6001600160a01b038216610ae15760405162461bcd60e51b81526004016103f690611a36565b6001600160a01b038084166000818152603b602090815260408083209487168084529490915290819020849055517f8c5be1e5ebec7d5bd14f71427d1e84f3dd0314c0f7b2291e5b200ac8c7c3b92590610b3c908590611a79565b60405180910390a3505050565b60405163555ddc6560e11b8152600090731820a4b7618bde71dce8cdc73aab6c95905fad249063aabbb8ca90610ba59089907f29ddb589b1fb5fc7cf394961c1adf5f8c6454761adf795e67fe149f658abe89590600401611643565b60206040518083038186803b158015610bbd57600080fd5b505afa158015610bd1573d6000803e3d6000fd5b505050506040513d601f19601f82011682018060405250810190610bf59190611336565b90506001600160a01b03811615610c6f57604051633ad5cbc160e11b81526001600160a01b038216906375ab978290610c3c908a908a908a908a908a908a906004016115e9565b600060405180830381600087803b158015610c5657600080fd5b505af1158015610c6a573d6000803e3d6000fd5b505050505b50505050505050565b610c8486868686611245565b610cc183604051806060016040528060278152602001611ade602791396001600160a01b0388166000908152603360205260409020549190610da4565b6001600160a01b038087166000908152603360205260408082209390935590861681522054610cf09084610a6c565b6001600160a01b0380861660008181526033602052604090819020939093559151878216918916907f06b541ddaa720db2b10a4d0cdac39b8d360425fc073085fac19bc8261467798790610d4990889088908890611a82565b60405180910390a4836001600160a01b0316856001600160a01b03167fddf252ad1be2c89b69c2b068fc378daa952ba7f163c4a11628f55a4df523b3ef85604051610d949190611a79565b60405180910390a3505050505050565b60008184841115610dc85760405162461bcd60e51b81526004016103f691906116b4565b505050900390565b60405163555ddc6560e11b8152600090731820a4b7618bde71dce8cdc73aab6c95905fad249063aabbb8ca90610e2c9089907fb281fc8c12954d22544db45de3159a39272895b169a852b314f9cc762e44c53b90600401611643565b60206040518083038186803b158015610e4457600080fd5b505afa158015610e58573d6000803e3d6000fd5b505050506040513d601f19601f82011682018060405250810190610e7c9190611336565b90506001600160a01b03811615610ef8576040516223de2960e01b81526001600160a01b038216906223de2990610ec1908b908b908b908b908b908b906004016115e9565b600060405180830381600087803b158015610edb57600080fd5b505af1158015610eef573d6000803e3d6000fd5b50505050610f2d565b8115610f2d57610f10866001600160a01b0316610a66565b15610f2d5760405162461bcd60e51b81526004016103f6906118b8565b5050505050505050565b6001600160a01b038616610f5d5760405162461bcd60e51b81526004016103f69061170c565b6001600160a01b038516610f835760405162461bcd60e51b81526004016103f690611a01565b6000610f8d610a91565b9050610f9d818888888888610b49565b610fab818888888888610c78565b610c6f81888888888888610dd0565b6001600160a01b038416610fe05760405162461bcd60e51b81526004016103f690611883565b6000610fea610a91565b9050610ff98160008787611245565b6034546110069085610a6c565b6034556001600160a01b03851660009081526033602052604090205461102c9085610a6c565b6001600160a01b038616600090815260336020526040812091909155611059908290878787876001610dd0565b846001600160a01b0316816001600160a01b03167f2fe5be0146f74c5bce36c0b80911af6c7d86ff27e89d5cfa61fc681327954e5d8686866040516110a093929190611a82565b60405180910390a3846001600160a01b031660006001600160a01b03167fddf252ad1be2c89b69c2b068fc378daa952ba7f163c4a11628f55a4df523b3ef866040516110ec9190611a79565b60405180910390a35050505050565b6001600160a01b0384166111215760405162461bcd60e51b81526004016103f690611785565b600061112b610a91565b905061113c81866000878787610b49565b6111498186600087611245565b61118684604051806060016040528060238152602001611b2e602391396001600160a01b0388166000908152603360205260409020549190610da4565b6001600160a01b0386166000908152603360205260409020556034546111ac9085611274565b603481905550846001600160a01b0316816001600160a01b03167fa78a9be3a7b862d26933ad85fb11d80ef66b8f972d7cbba06621d583943a40988686866040516111f993929190611a82565b60405180910390a360006001600160a01b0316856001600160a01b03167fddf252ad1be2c89b69c2b068fc378daa952ba7f163c4a11628f55a4df523b3ef866040516110ec9190611a79565b6040517f52316ab8e8b0687ce803e403dfe429541bccd4f6c4683ec65d254d382f15a26590600090a150505050565b6000828211156112965760405162461bcd60e51b81526004016103f69061180b565b50900390565b600082601f8301126112ac578081fd5b813567ffffffffffffffff808211156112c3578283fd5b604051601f8301601f1916810160200182811182821017156112e3578485fd5b6040528281529250828483016020018610156112fe57600080fd5b8260208601602083013760006020848301015250505092915050565b60006020828403121561132b578081fd5b81356108a881611ac5565b600060208284031215611347578081fd5b81516108a881611ac5565b60008060408385031215611364578081fd5b823561136f81611ac5565b9150602083013561137f81611ac5565b809150509250929050565b60008060006060848603121561139e578081fd5b83356113a981611ac5565b925060208401356113b981611ac5565b929592945050506040919091013590565b600080600080600060a086880312156113e1578081fd5b85356113ec81611ac5565b945060208601356113fc81611ac5565b935060408601359250606086013567ffffffffffffffff8082111561141f578283fd5b61142b89838a0161129c565b93506080880135915080821115611440578283fd5b5061144d8882890161129c565b9150509295509295909350565b6000806040838503121561146c578182fd5b823561147781611ac5565b946020939093013593505050565b600080600060608486031215611499578283fd5b83356114a481611ac5565b925060208401359150604084013567ffffffffffffffff8111156114c6578182fd5b6114d28682870161129c565b9150509250925092565b600080600080608085870312156114f1578384fd5b84356114fc81611ac5565b935060208501359250604085013567ffffffffffffffff8082111561151f578384fd5b61152b8883890161129c565b93506060870135915080821115611540578283fd5b5061154d8782880161129c565b91505092959194509250565b6000806040838503121561156b578182fd5b82359150602083013567ffffffffffffffff811115611588578182fd5b6115948582860161129c565b9150509250929050565b60008151808452815b818110156115c3576020818501810151868301820152016115a7565b818111156115d45782602083870101525b50601f01601f19169290920160200192915050565b6001600160a01b0387811682528681166020830152851660408201526060810184905260c0608082018190526000906116249083018561159e565b82810360a0840152611636818561159e565b9998505050505050505050565b6001600160a01b03929092168252602082015260400190565b6020808252825182820181905260009190848201906040850190845b8181101561169d5783516001600160a01b031683529284019291840191600101611678565b50909695505050505050565b901515815260200190565b6000602082526108a8602083018461159e565b60208082526025908201527f4552433737373a20617070726f76652066726f6d20746865207a65726f206164604082015264647265737360d81b606082015260800190565b60208082526022908201527f4552433737373a2073656e642066726f6d20746865207a65726f206164647265604082015261737360f01b606082015260800190565b6020808252601b908201527f536166654d6174683a206164646974696f6e206f766572666c6f770000000000604082015260600190565b60208082526022908201527f4552433737373a206275726e2066726f6d20746865207a65726f206164647265604082015261737360f01b606082015260800190565b60208082526024908201527f4552433737373a20617574686f72697a696e672073656c66206173206f70657260408201526330ba37b960e11b606082015260800190565b6020808252601e908201527f536166654d6174683a207375627472616374696f6e206f766572666c6f770000604082015260600190565b60208082526021908201527f4552433737373a207265766f6b696e672073656c66206173206f70657261746f6040820152603960f91b606082015260800190565b6020808252818101527f4552433737373a206d696e7420746f20746865207a65726f2061646472657373604082015260600190565b6020808252604d908201527f4552433737373a20746f6b656e20726563697069656e7420636f6e747261637460408201527f20686173206e6f20696d706c656d656e74657220666f7220455243373737546f60608201526c1ad95b9cd49958da5c1a595b9d609a1b608082015260a00190565b60208082526024908201527f4552433737373a207472616e7366657220746f20746865207a65726f206164646040820152637265737360e01b606082015260800190565b6020808252602c908201527f4552433737373a2063616c6c6572206973206e6f7420616e206f70657261746f60408201526b39103337b9103437b63232b960a11b606082015260800190565b60208082526026908201527f4552433737373a207472616e736665722066726f6d20746865207a65726f206160408201526564647265737360d01b606082015260800190565b6020808252818101527f4552433737373a2073656e6420746f20746865207a65726f2061646472657373604082015260600190565b60208082526023908201527f4552433737373a20617070726f766520746f20746865207a65726f206164647260408201526265737360e81b606082015260800190565b90815260200190565b600084825260606020830152611a9b606083018561159e565b8281036040840152611aad818561159e565b9695505050505050565b60ff91909116815260200190565b6001600160a01b0381168114611ada57600080fd5b5056fe4552433737373a207472616e7366657220616d6f756e7420657863656564732062616c616e63654552433737373a207472616e7366657220616d6f756e74206578636565647320616c6c6f77616e63654552433737373a206275726e20616d6f756e7420657863656564732062616c616e6365a2646970667358221220ecddef14e0d56afc238dfe2ea26820b2768471ddc0b87cb7bbad7384ae4532fe64736f6c634300060c0033",
  "linkReferences": {},
  "deployedLinkReferences": {}
}