{
  "_format": "hh-sol-artifact-1",
  "contractName": "ERC721BurnableMockUpgradeableWithInit",
  "sourceName": "contracts/contracts-upgradeable-v3_4/mocks/WithInit.sol",
  "abi": [
    {
      "inputs": [
        {
          "internalType": "string",
          "name": "name",
          "type": "string"
        },
        {
          "internalType": "string",
          "name": "symbol",
          "type": "string"
        }
      ],
      "stateMutability": "payable",
      "type": "constructor"
    },
    {
      "anonymous": false,
      "inputs": [
        {
          "indexed": true,
          "internalType": "address",
          "name": "owner",
          "type": "address"
        },
        {
          "indexed": true,
          "internalType": "address",
          "name": "approved",
          "type": "address"
        },
        {
          "indexed": true,
          "internalType": "uint256",
          "name": "tokenId",
          "type": "uint256"
        }
      ],
      "name": "Approval",
      "type": "event"
    },
    {
      "anonymous": false,
      "inputs": [
        {
          "indexed": true,
          "internalType": "address",
          "name": "owner",
          "type": "address"
        },
        {
          "indexed": true,
          "internalType": "address",
          "name": "operator",
          "type": "address"
        },
        {
          "indexed": false,
          "internalType": "bool",
          "name": "approved",
          "type": "bool"
        }
      ],
      "name": "ApprovalForAll",
      "type": "event"
    },
    {
      "anonymous": false,
      "inputs": [
        {
          "indexed": true,
          "internalType": "address",
          "name": "from",
          "type": "address"
        },
        {
          "indexed": true,
          "internalType": "address",
          "name": "to",
          "type": "address"
        },
        {
          "indexed": true,
          "internalType": "uint256",
          "name": "tokenId",
          "type": "uint256"
        }
      ],
      "name": "Transfer",
      "type": "event"
    },
    {
      "inputs": [
        {
          "internalType": "address",
          "name": "to",
          "type": "address"
        },
        {
          "internalType": "uint256",
          "name": "tokenId",
          "type": "uint256"
        }
      ],
      "name": "approve",
      "outputs": [],
      "stateMutability": "nonpayable",
      "type": "function"
    },
    {
      "inputs": [
        {
          "internalType": "address",
          "name": "owner",
          "type": "address"
        }
      ],
      "name": "balanceOf",
      "outputs": [
        {
          "internalType": "uint256",
          "name": "",
          "type": "uint256"
        }
      ],
      "stateMutability": "view",
      "type": "function"
    },
    {
      "inputs": [],
      "name": "baseURI",
      "outputs": [
        {
          "internalType": "string",
          "name": "",
          "type": "string"
        }
      ],
      "stateMutability": "view",
      "type": "function"
    },
    {
      "inputs": [
        {
          "internalType": "uint256",
          "name": "tokenId",
          "type": "uint256"
        }
      ],
      "name": "burn",
      "outputs": [],
      "stateMutability": "nonpayable",
      "type": "function"
    },
    {
      "inputs": [
        {
          "internalType": "uint256",
          "name": "tokenId",
          "type": "uint256"
        }
      ],
      "name": "getApproved",
      "outputs": [
        {
          "internalType": "address",
          "name": "",
          "type": "address"
        }
      ],
      "stateMutability": "view",
      "type": "function"
    },
    {
      "inputs": [
        {
          "internalType": "address",
          "name": "owner",
          "type": "address"
        },
        {
          "internalType": "address",
          "name": "operator",
          "type": "address"
        }
      ],
      "name": "isApprovedForAll",
      "outputs": [
        {
          "internalType": "bool",
          "name": "",
          "type": "bool"
        }
      ],
      "stateMutability": "view",
      "type": "function"
    },
    {
      "inputs": [
        {
          "internalType": "address",
          "name": "to",
          "type": "address"
        },
        {
          "internalType": "uint256",
          "name": "tokenId",
          "type": "uint256"
        }
      ],
      "name": "mint",
      "outputs": [],
      "stateMutability": "nonpayable",
      "type": "function"
    },
    {
      "inputs": [],
      "name": "name",
      "outputs": [
        {
          "internalType": "string",
          "name": "",
          "type": "string"
        }
      ],
      "stateMutability": "view",
      "type": "function"
    },
    {
      "inputs": [
        {
          "internalType": "uint256",
          "name": "tokenId",
          "type": "uint256"
        }
      ],
      "name": "ownerOf",
      "outputs": [
        {
          "internalType": "address",
          "name": "",
          "type": "address"
        }
      ],
      "stateMutability": "view",
      "type": "function"
    },
    {
      "inputs": [
        {
          "internalType": "address",
          "name": "from",
          "type": "address"
        },
        {
          "internalType": "address",
          "name": "to",
          "type": "address"
        },
        {
          "internalType": "uint256",
          "name": "tokenId",
          "type": "uint256"
        }
      ],
      "name": "safeTransferFrom",
      "outputs": [],
      "stateMutability": "nonpayable",
      "type": "function"
    },
    {
      "inputs": [
        {
          "internalType": "address",
          "name": "from",
          "type": "address"
        },
        {
          "internalType": "address",
          "name": "to",
          "type": "address"
        },
        {
          "internalType": "uint256",
          "name": "tokenId",
          "type": "uint256"
        },
        {
          "internalType": "bytes",
          "name": "_data",
          "type": "bytes"
        }
      ],
      "name": "safeTransferFrom",
      "outputs": [],
      "stateMutability": "nonpayable",
      "type": "function"
    },
    {
      "inputs": [
        {
          "internalType": "address",
          "name": "operator",
          "type": "address"
        },
        {
          "internalType": "bool",
          "name": "approved",
          "type": "bool"
        }
      ],
      "name": "setApprovalForAll",
      "outputs": [],
      "stateMutability": "nonpayable",
      "type": "function"
    },
    {
      "inputs": [
        {
          "internalType": "bytes4",
          "name": "interfaceId",
          "type": "bytes4"
        }
      ],
      "name": "supportsInterface",
      "outputs": [
        {
          "internalType": "bool",
          "name": "",
          "type": "bool"
        }
      ],
      "stateMutability": "view",
      "type": "function"
    },
    {
      "inputs": [],
      "name": "symbol",
      "outputs": [
        {
          "internalType": "string",
          "name": "",
          "type": "string"
        }
      ],
      "stateMutability": "view",
      "type": "function"
    },
    {
      "inputs": [
        {
          "internalType": "uint256",
          "name": "index",
          "type": "uint256"
        }
      ],
      "name": "tokenByIndex",
      "outputs": [
        {
          "internalType": "uint256",
          "name": "",
          "type": "uint256"
        }
      ],
      "stateMutability": "view",
      "type": "function"
    },
    {
      "inputs": [
        {
          "internalType": "address",
          "name": "owner",
          "type": "address"
        },
        {
          "internalType": "uint256",
          "name": "index",
          "type": "uint256"
        }
      ],
      "name": "tokenOfOwnerByIndex",
      "outputs": [
        {
          "internalType": "uint256",
          "name": "",
          "type": "uint256"
        }
      ],
      "stateMutability": "view",
      "type": "function"
    },
    {
      "inputs": [
        {
          "internalType": "uint256",
          "name": "tokenId",
          "type": "uint256"
        }
      ],
      "name": "tokenURI",
      "outputs": [
        {
          "internalType": "string",
          "name": "",
          "type": "string"
        }
      ],
      "stateMutability": "view",
      "type": "function"
    },
    {
      "inputs": [],
      "name": "totalSupply",
      "outputs": [
        {
          "internalType": "uint256",
          "name": "",
          "type": "uint256"
        }
      ],
      "stateMutability": "view",
      "type": "function"
    },
    {
      "inputs": [
        {
          "internalType": "address",
          "name": "from",
          "type": "address"
        },
        {
          "internalType": "address",
          "name": "to",
          "type": "address"
        },
        {
          "internalType": "uint256",
          "name": "tokenId",
          "type": "uint256"
        }
      ],
      "name": "transferFrom",
      "outputs": [],
      "stateMutability": "nonpayable",
      "type": "function"
    }
  ],
  "bytecode": "0x6080604052604051620022aa380380620022aa833981016040819052620000269162000538565b6200003282826200003a565b505062000624565b600054610100900460ff16806200005657506200005662000107565b8062000065575060005460ff16155b6200008d5760405162461bcd60e51b81526004016200008490620005d6565b60405180910390fd5b600054610100900460ff16158015620000b9576000805460ff1961ff0019909116610100171660011790555b620000c362000125565b620000cd620001b1565b620000d9838362000239565b620000e362000125565b620000ef838362000311565b801562000102576000805461ff00191690555b505050565b60006200011f306200039d60201b620008d91760201c565b15905090565b600054610100900460ff16806200014157506200014162000107565b8062000150575060005460ff16155b6200016f5760405162461bcd60e51b81526004016200008490620005d6565b600054610100900460ff161580156200019b576000805460ff1961ff0019909116610100171660011790555b8015620001ae576000805461ff00191690555b50565b600054610100900460ff1680620001cd5750620001cd62000107565b80620001dc575060005460ff16155b620001fb5760405162461bcd60e51b81526004016200008490620005d6565b600054610100900460ff1615801562000227576000805460ff1961ff0019909116610100171660011790555b6200019b6301ffc9a760e01b620003a3565b600054610100900460ff16806200025557506200025562000107565b8062000264575060005460ff16155b620002835760405162461bcd60e51b81526004016200008490620005d6565b600054610100900460ff16158015620002af576000805460ff1961ff0019909116610100171660011790555b8251620002c490606a906020860190620003f5565b508151620002da90606b906020850190620003f5565b50620002ed6380ac58cd60e01b620003a3565b620002ff635b5e139f60e01b620003a3565b620000ef63780e9d6360e01b620003a3565b600054610100900460ff16806200032d57506200032d62000107565b806200033c575060005460ff16155b6200035b5760405162461bcd60e51b81526004016200008490620005d6565b600054610100900460ff16158015620000ef576000805460ff1961ff001990911661010017166001179055801562000102576000805461ff0019169055505050565b3b151590565b6001600160e01b03198082161415620003d05760405162461bcd60e51b815260040162000084906200059f565b6001600160e01b0319166000908152603360205260409020805460ff19166001179055565b828054600181600116156101000203166002900490600052602060002090601f016020900481019282601f106200043857805160ff191683800117855562000468565b8280016001018555821562000468579182015b82811115620004685782518255916020019190600101906200044b565b50620004769291506200047a565b5090565b5b808211156200047657600081556001016200047b565b600082601f830112620004a2578081fd5b81516001600160401b0380821115620004b9578283fd5b6040516020601f8401601f1916820181018381118382101715620004db578586fd5b80604052508194508382528681858801011115620004f857600080fd5b600092505b838310156200051c5785830181015182840182015291820191620004fd565b838311156200052e5760008185840101525b5050505092915050565b600080604083850312156200054b578182fd5b82516001600160401b038082111562000562578384fd5b620005708683870162000491565b9350602085015191508082111562000586578283fd5b50620005958582860162000491565b9150509250929050565b6020808252601c908201527f4552433136353a20696e76616c696420696e7465726661636520696400000000604082015260600190565b6020808252602e908201527f496e697469616c697a61626c653a20636f6e747261637420697320616c72656160408201526d191e481a5b9a5d1a585b1a5e995960921b606082015260800190565b611c7680620006346000396000f3fe608060405234801561001057600080fd5b50600436106101215760003560e01c806342966c68116100ad57806395d89b411161007157806395d89b411461024e578063a22cb46514610256578063b88d4fde14610269578063c87b56dd1461027c578063e985e9c51461028f57610121565b806342966c68146101fa5780634f6ccce71461020d5780636352211e146102205780636c0360eb1461023357806370a082311461023b57610121565b806318160ddd116100f457806318160ddd1461019957806323b872dd146101ae5780632f745c59146101c157806340c10f19146101d457806342842e0e146101e757610121565b806301ffc9a71461012657806306fdde031461014f578063081812fc14610164578063095ea7b314610184575b600080fd5b6101396101343660046115a2565b6102a2565b60405161014691906116ba565b60405180910390f35b6101576102c5565b60405161014691906116c5565b6101776101723660046115da565b61035b565b6040516101469190611669565b610197610192366004611578565b6103a7565b005b6101a161043f565b6040516101469190611b85565b6101976101bc366004611437565b610450565b6101a16101cf366004611578565b610488565b6101976101e2366004611578565b6104b3565b6101976101f5366004611437565b6104c1565b6101976102083660046115da565b6104dc565b6101a161021b3660046115da565b61050f565b61017761022e3660046115da565b610525565b61015761054d565b6101a16102493660046113e8565b6105ae565b6101576105f7565b61019761026436600461153d565b610658565b610197610277366004611477565b610726565b61015761028a3660046115da565b610765565b61013961029d366004611403565b6108ab565b6001600160e01b0319811660009081526033602052604090205460ff165b919050565b606a8054604080516020601f60026000196101006001881615020190951694909404938401819004810282018101909252828152606093909290918301828280156103515780601f1061032657610100808354040283529160200191610351565b820191906000526020600020905b81548152906001019060200180831161033457829003601f168201915b5050505050905090565b6000610366826108df565b61038b5760405162461bcd60e51b815260040161038290611988565b60405180910390fd5b506000908152606860205260409020546001600160a01b031690565b60006103b282610525565b9050806001600160a01b0316836001600160a01b031614156103e65760405162461bcd60e51b815260040161038290611a6c565b806001600160a01b03166103f86108ec565b6001600160a01b0316148061041457506104148161029d6108ec565b6104305760405162461bcd60e51b81526004016103829061186a565b61043a83836108f0565b505050565b600061044b606661095e565b905090565b61046161045b6108ec565b82610969565b61047d5760405162461bcd60e51b815260040161038290611aad565b61043a8383836109ee565b6001600160a01b03821660009081526065602052604081206104aa9083610afc565b90505b92915050565b6104bd8282610b08565b5050565b61043a83838360405180602001604052806000815250610726565b6104e761045b6108ec565b6105035760405162461bcd60e51b815260040161038290611b35565b61050c81610bcc565b50565b60008061051d606684610c99565b509392505050565b60006104ad82604051806060016040528060298152602001611c186029913960669190610cb5565b606d8054604080516020601f60026000196101006001881615020190951694909404938401819004810282018101909252828152606093909290918301828280156103515780601f1061032657610100808354040283529160200191610351565b60006001600160a01b0382166105d65760405162461bcd60e51b8152600401610382906118c7565b6001600160a01b03821660009081526065602052604090206104ad9061095e565b606b8054604080516020601f60026000196101006001881615020190951694909404938401819004810282018101909252828152606093909290918301828280156103515780601f1061032657610100808354040283529160200191610351565b6106606108ec565b6001600160a01b0316826001600160a01b031614156106915760405162461bcd60e51b8152600401610382906117e7565b806069600061069e6108ec565b6001600160a01b03908116825260208083019390935260409182016000908120918716808252919093529120805460ff1916921515929092179091556106e26108ec565b6001600160a01b03167f17307eab39ab6107e8899845ad3d59bd9653f200f220920489ca2b5937696c318360405161071a91906116ba565b60405180910390a35050565b6107376107316108ec565b83610969565b6107535760405162461bcd60e51b815260040161038290611aad565b61075f84848484610ccc565b50505050565b6060610770826108df565b61078c5760405162461bcd60e51b815260040161038290611a1d565b6000828152606c602090815260409182902080548351601f60026000196101006001861615020190931692909204918201849004840281018401909452808452606093928301828280156108215780601f106107f657610100808354040283529160200191610821565b820191906000526020600020905b81548152906001019060200180831161080457829003601f168201915b50505050509050606061083261054d565b9050805160001415610846575090506102c0565b81511561087857808260405160200161086092919061163a565b604051602081830303815290604052925050506102c0565b8061088285610cff565b60405160200161089392919061163a565b60405160208183030381529060405292505050919050565b6001600160a01b03918216600090815260696020908152604080832093909416825291909152205460ff1690565b3b151590565b60006104ad606683610dda565b3390565b600081815260686020526040902080546001600160a01b0319166001600160a01b038416908117909155819061092582610525565b6001600160a01b03167f8c5be1e5ebec7d5bd14f71427d1e84f3dd0314c0f7b2291e5b200ac8c7c3b92560405160405180910390a45050565b60006104ad82610de6565b6000610974826108df565b6109905760405162461bcd60e51b81526004016103829061181e565b600061099b83610525565b9050806001600160a01b0316846001600160a01b031614806109d65750836001600160a01b03166109cb8461035b565b6001600160a01b0316145b806109e657506109e681856108ab565b949350505050565b826001600160a01b0316610a0182610525565b6001600160a01b031614610a275760405162461bcd60e51b8152600401610382906119d4565b6001600160a01b038216610a4d5760405162461bcd60e51b8152600401610382906117a3565b610a5883838361043a565b610a636000826108f0565b6001600160a01b0383166000908152606560205260409020610a859082610dea565b506001600160a01b0382166000908152606560205260409020610aa89082610df6565b50610ab560668284610e02565b5080826001600160a01b0316846001600160a01b03167fddf252ad1be2c89b69c2b068fc378daa952ba7f163c4a11628f55a4df523b3ef60405160405180910390a4505050565b60006104aa8383610e18565b6001600160a01b038216610b2e5760405162461bcd60e51b815260040161038290611953565b610b37816108df565b15610b545760405162461bcd60e51b81526004016103829061176c565b610b606000838361043a565b6001600160a01b0382166000908152606560205260409020610b829082610df6565b50610b8f60668284610e02565b5060405181906001600160a01b038416906000907fddf252ad1be2c89b69c2b068fc378daa952ba7f163c4a11628f55a4df523b3ef908290a45050565b6000610bd782610525565b9050610be58160008461043a565b610bf06000836108f0565b6000828152606c60205260409020546002600019610100600184161502019091160415610c2e576000828152606c60205260408120610c2e91611379565b6001600160a01b0381166000908152606560205260409020610c509083610dea565b50610c5c606683610e5d565b5060405182906000906001600160a01b038416907fddf252ad1be2c89b69c2b068fc378daa952ba7f163c4a11628f55a4df523b3ef908390a45050565b6000808080610ca88686610e69565b9097909650945050505050565b6000610cc2848484610ec5565b90505b9392505050565b610cd78484846109ee565b610ce384848484610f24565b61075f5760405162461bcd60e51b81526004016103829061171a565b606081610d2457506040805180820190915260018152600360fc1b60208201526102c0565b8160005b8115610d3c57600101600a82049150610d28565b60608167ffffffffffffffff81118015610d5557600080fd5b506040519080825280601f01601f191660200182016040528015610d80576020820181803683370190505b50859350905060001982015b8315610dd157600a840660300160f81b82828060019003935081518110610daf57fe5b60200101906001600160f81b031916908160001a905350600a84049350610d8c565b50949350505050565b60006104aa8383611003565b5490565b60006104aa838361101b565b60006104aa83836110e1565b6000610cc284846001600160a01b03851661112b565b81546000908210610e3b5760405162461bcd60e51b8152600401610382906116d8565b826000018281548110610e4a57fe5b9060005260206000200154905092915050565b60006104aa83836111c2565b815460009081908310610e8e5760405162461bcd60e51b815260040161038290611911565b6000846000018481548110610e9f57fe5b906000526020600020906002020190508060000154816001015492509250509250929050565b60008281526001840160205260408120548281610ef55760405162461bcd60e51b815260040161038291906116c5565b50846000016001820381548110610f0857fe5b9060005260206000209060020201600101549150509392505050565b6000610f38846001600160a01b03166108d9565b610f44575060016109e6565b6060610fcc630a85bd0160e11b610f596108ec565b888787604051602401610f6f949392919061167d565b604051602081830303815290604052906001600160e01b0319166020820180516001600160e01b038381831617835250505050604051806060016040528060328152602001611be6603291396001600160a01b0388169190611296565b9050600081806020019051810190610fe491906115be565b6001600160e01b031916630a85bd0160e11b1492505050949350505050565b60009081526001919091016020526040902054151590565b600081815260018301602052604081205480156110d7578354600019808301919081019060009087908390811061104e57fe5b906000526020600020015490508087600001848154811061106b57fe5b60009182526020808320909101929092558281526001898101909252604090209084019055865487908061109b57fe5b600190038181906000526020600020016000905590558660010160008781526020019081526020016000206000905560019450505050506104ad565b60009150506104ad565b60006110ed8383611003565b611123575081546001818101845560008481526020808220909301849055845484825282860190935260409020919091556104ad565b5060006104ad565b600082815260018401602052604081205480611190575050604080518082018252838152602080820184815286546001818101895560008981528481209551600290930290950191825591519082015586548684528188019092529290912055610cc5565b828560000160018303815481106111a357fe5b9060005260206000209060020201600101819055506000915050610cc5565b600081815260018301602052604081205480156110d757835460001980830191908101906000908790839081106111f557fe5b906000526020600020906002020190508087600001848154811061121557fe5b60009182526020808320845460029093020191825560019384015491840191909155835482528983019052604090209084019055865487908061125457fe5b60008281526020808220600260001990940193840201828155600190810183905592909355888152898201909252604082209190915594506104ad9350505050565b6060610cc28484600085856112aa856108d9565b6112c65760405162461bcd60e51b815260040161038290611afe565b60006060866001600160a01b031685876040516112e3919061161e565b60006040518083038185875af1925050503d8060008114611320576040519150601f19603f3d011682016040523d82523d6000602084013e611325565b606091505b5091509150611335828286611340565b979650505050505050565b6060831561134f575081610cc5565b82511561135f5782518084602001fd5b8160405162461bcd60e51b815260040161038291906116c5565b50805460018160011615610100020316600290046000825580601f1061139f575061050c565b601f01602090049060005260206000209081019061050c91905b808211156113cd57600081556001016113b9565b5090565b80356001600160a01b03811681146104ad57600080fd5b6000602082840312156113f9578081fd5b6104aa83836113d1565b60008060408385031215611415578081fd5b61141f84846113d1565b915061142e84602085016113d1565b90509250929050565b60008060006060848603121561144b578081fd5b833561145681611bba565b9250602084013561146681611bba565b929592945050506040919091013590565b6000806000806080858703121561148c578081fd5b61149686866113d1565b935060206114a6878288016113d1565b935060408601359250606086013567ffffffffffffffff808211156114c9578384fd5b818801915088601f8301126114dc578384fd5b8135818111156114ea578485fd5b604051601f8201601f1916810185018381118282101715611509578687fd5b60405281815283820185018b101561151f578586fd5b81858501868301379081019093019390935250939692955090935050565b6000806040838503121561154f578182fd5b61155984846113d1565b91506020830135801515811461156d578182fd5b809150509250929050565b6000806040838503121561158a578182fd5b61159484846113d1565b946020939093013593505050565b6000602082840312156115b3578081fd5b8135610cc581611bcf565b6000602082840312156115cf578081fd5b8151610cc581611bcf565b6000602082840312156115eb578081fd5b5035919050565b6000815180845261160a816020860160208601611b8e565b601f01601f19169290920160200192915050565b60008251611630818460208701611b8e565b9190910192915050565b6000835161164c818460208801611b8e565b835190830190611660818360208801611b8e565b01949350505050565b6001600160a01b0391909116815260200190565b6001600160a01b03858116825284166020820152604081018390526080606082018190526000906116b0908301846115f2565b9695505050505050565b901515815260200190565b6000602082526104aa60208301846115f2565b60208082526022908201527f456e756d657261626c655365743a20696e646578206f7574206f6620626f756e604082015261647360f01b606082015260800190565b60208082526032908201527f4552433732313a207472616e7366657220746f206e6f6e20455243373231526560408201527131b2b4bb32b91034b6b83632b6b2b73a32b960711b606082015260800190565b6020808252601c908201527f4552433732313a20746f6b656e20616c7265616479206d696e74656400000000604082015260600190565b60208082526024908201527f4552433732313a207472616e7366657220746f20746865207a65726f206164646040820152637265737360e01b606082015260800190565b60208082526019908201527f4552433732313a20617070726f766520746f2063616c6c657200000000000000604082015260600190565b6020808252602c908201527f4552433732313a206f70657261746f7220717565727920666f72206e6f6e657860408201526b34b9ba32b73a103a37b5b2b760a11b606082015260800190565b60208082526038908201527f4552433732313a20617070726f76652063616c6c6572206973206e6f74206f7760408201527f6e6572206e6f7220617070726f76656420666f7220616c6c0000000000000000606082015260800190565b6020808252602a908201527f4552433732313a2062616c616e636520717565727920666f7220746865207a65604082015269726f206164647265737360b01b606082015260800190565b60208082526022908201527f456e756d657261626c654d61703a20696e646578206f7574206f6620626f756e604082015261647360f01b606082015260800190565b6020808252818101527f4552433732313a206d696e7420746f20746865207a65726f2061646472657373604082015260600190565b6020808252602c908201527f4552433732313a20617070726f76656420717565727920666f72206e6f6e657860408201526b34b9ba32b73a103a37b5b2b760a11b606082015260800190565b60208082526029908201527f4552433732313a207472616e73666572206f6620746f6b656e2074686174206960408201526839903737ba1037bbb760b91b606082015260800190565b6020808252602f908201527f4552433732314d657461646174613a2055524920717565727920666f72206e6f60408201526e3732bc34b9ba32b73a103a37b5b2b760891b606082015260800190565b60208082526021908201527f4552433732313a20617070726f76616c20746f2063757272656e74206f776e656040820152603960f91b606082015260800190565b60208082526031908201527f4552433732313a207472616e736665722063616c6c6572206973206e6f74206f6040820152701ddb995c881b9bdc88185c1c1c9bdd9959607a1b606082015260800190565b6020808252601d908201527f416464726573733a2063616c6c20746f206e6f6e2d636f6e7472616374000000604082015260600190565b60208082526030908201527f4552433732314275726e61626c653a2063616c6c6572206973206e6f74206f7760408201526f1b995c881b9bdc88185c1c1c9bdd995960821b606082015260800190565b90815260200190565b60005b83811015611ba9578181015183820152602001611b91565b8381111561075f5750506000910152565b6001600160a01b038116811461050c57600080fd5b6001600160e01b03198116811461050c57600080fdfe4552433732313a207472616e7366657220746f206e6f6e20455243373231526563656976657220696d706c656d656e7465724552433732313a206f776e657220717565727920666f72206e6f6e6578697374656e7420746f6b656ea2646970667358221220c00cd9cc9be2e5d02b4b74564f6866e4e3333c8d202406398591a8d17b4fb83164736f6c634300060c0033",
  "linkReferences": {},
  "deployedLinkReferences": {}
}