{
  "_format": "hh-sol-artifact-1",
  "contractName": "ERC777PresetFixedSupplyUpgradeableWithInit",
  "sourceName": "contracts/contracts-upgradeable-v3_4/mocks/WithInit.sol",
  "abi": [
    {
      "inputs": [
        {
          "internalType": "string",
          "name": "name",
          "type": "string"
        },
        {
          "internalType": "string",
          "name": "symbol",
          "type": "string"
        },
        {
          "internalType": "address[]",
          "name": "defaultOperators",
          "type": "address[]"
        },
        {
          "internalType": "uint256",
          "name": "initialSupply",
          "type": "uint256"
        },
        {
          "internalType": "address",
          "name": "owner",
          "type": "address"
        }
      ],
      "stateMutability": "payable",
      "type": "constructor"
    },
    {
      "anonymous": false,
      "inputs": [
        {
          "indexed": true,
          "internalType": "address",
          "name": "owner",
          "type": "address"
        },
        {
          "indexed": true,
          "internalType": "address",
          "name": "spender",
          "type": "address"
        },
        {
          "indexed": false,
          "internalType": "uint256",
          "name": "value",
          "type": "uint256"
        }
      ],
      "name": "Approval",
      "type": "event"
    },
    {
      "anonymous": false,
      "inputs": [
        {
          "indexed": true,
          "internalType": "address",
          "name": "operator",
          "type": "address"
        },
        {
          "indexed": true,
          "internalType": "address",
          "name": "tokenHolder",
          "type": "address"
        }
      ],
      "name": "AuthorizedOperator",
      "type": "event"
    },
    {
      "anonymous": false,
      "inputs": [
        {
          "indexed": true,
          "internalType": "address",
          "name": "operator",
          "type": "address"
        },
        {
          "indexed": true,
          "internalType": "address",
          "name": "from",
          "type": "address"
        },
        {
          "indexed": false,
          "internalType": "uint256",
          "name": "amount",
          "type": "uint256"
        },
        {
          "indexed": false,
          "internalType": "bytes",
          "name": "data",
          "type": "bytes"
        },
        {
          "indexed": false,
          "internalType": "bytes",
          "name": "operatorData",
          "type": "bytes"
        }
      ],
      "name": "Burned",
      "type": "event"
    },
    {
      "anonymous": false,
      "inputs": [
        {
          "indexed": true,
          "internalType": "address",
          "name": "operator",
          "type": "address"
        },
        {
          "indexed": true,
          "internalType": "address",
          "name": "to",
          "type": "address"
        },
        {
          "indexed": false,
          "internalType": "uint256",
          "name": "amount",
          "type": "uint256"
        },
        {
          "indexed": false,
          "internalType": "bytes",
          "name": "data",
          "type": "bytes"
        },
        {
          "indexed": false,
          "internalType": "bytes",
          "name": "operatorData",
          "type": "bytes"
        }
      ],
      "name": "Minted",
      "type": "event"
    },
    {
      "anonymous": false,
      "inputs": [
        {
          "indexed": true,
          "internalType": "address",
          "name": "operator",
          "type": "address"
        },
        {
          "indexed": true,
          "internalType": "address",
          "name": "tokenHolder",
          "type": "address"
        }
      ],
      "name": "RevokedOperator",
      "type": "event"
    },
    {
      "anonymous": false,
      "inputs": [
        {
          "indexed": true,
          "internalType": "address",
          "name": "operator",
          "type": "address"
        },
        {
          "indexed": true,
          "internalType": "address",
          "name": "from",
          "type": "address"
        },
        {
          "indexed": true,
          "internalType": "address",
          "name": "to",
          "type": "address"
        },
        {
          "indexed": false,
          "internalType": "uint256",
          "name": "amount",
          "type": "uint256"
        },
        {
          "indexed": false,
          "internalType": "bytes",
          "name": "data",
          "type": "bytes"
        },
        {
          "indexed": false,
          "internalType": "bytes",
          "name": "operatorData",
          "type": "bytes"
        }
      ],
      "name": "Sent",
      "type": "event"
    },
    {
      "anonymous": false,
      "inputs": [
        {
          "indexed": true,
          "internalType": "address",
          "name": "from",
          "type": "address"
        },
        {
          "indexed": true,
          "internalType": "address",
          "name": "to",
          "type": "address"
        },
        {
          "indexed": false,
          "internalType": "uint256",
          "name": "value",
          "type": "uint256"
        }
      ],
      "name": "Transfer",
      "type": "event"
    },
    {
      "inputs": [
        {
          "internalType": "address",
          "name": "holder",
          "type": "address"
        },
        {
          "internalType": "address",
          "name": "spender",
          "type": "address"
        }
      ],
      "name": "allowance",
      "outputs": [
        {
          "internalType": "uint256",
          "name": "",
          "type": "uint256"
        }
      ],
      "stateMutability": "view",
      "type": "function"
    },
    {
      "inputs": [
        {
          "internalType": "address",
          "name": "spender",
          "type": "address"
        },
        {
          "internalType": "uint256",
          "name": "value",
          "type": "uint256"
        }
      ],
      "name": "approve",
      "outputs": [
        {
          "internalType": "bool",
          "name": "",
          "type": "bool"
        }
      ],
      "stateMutability": "nonpayable",
      "type": "function"
    },
    {
      "inputs": [
        {
          "internalType": "address",
          "name": "operator",
          "type": "address"
        }
      ],
      "name": "authorizeOperator",
      "outputs": [],
      "stateMutability": "nonpayable",
      "type": "function"
    },
    {
      "inputs": [
        {
          "internalType": "address",
          "name": "tokenHolder",
          "type": "address"
        }
      ],
      "name": "balanceOf",
      "outputs": [
        {
          "internalType": "uint256",
          "name": "",
          "type": "uint256"
        }
      ],
      "stateMutability": "view",
      "type": "function"
    },
    {
      "inputs": [
        {
          "internalType": "uint256",
          "name": "amount",
          "type": "uint256"
        },
        {
          "internalType": "bytes",
          "name": "data",
          "type": "bytes"
        }
      ],
      "name": "burn",
      "outputs": [],
      "stateMutability": "nonpayable",
      "type": "function"
    },
    {
      "inputs": [],
      "name": "decimals",
      "outputs": [
        {
          "internalType": "uint8",
          "name": "",
          "type": "uint8"
        }
      ],
      "stateMutability": "pure",
      "type": "function"
    },
    {
      "inputs": [],
      "name": "defaultOperators",
      "outputs": [
        {
          "internalType": "address[]",
          "name": "",
          "type": "address[]"
        }
      ],
      "stateMutability": "view",
      "type": "function"
    },
    {
      "inputs": [],
      "name": "granularity",
      "outputs": [
        {
          "internalType": "uint256",
          "name": "",
          "type": "uint256"
        }
      ],
      "stateMutability": "view",
      "type": "function"
    },
    {
      "inputs": [
        {
          "internalType": "string",
          "name": "name",
          "type": "string"
        },
        {
          "internalType": "string",
          "name": "symbol",
          "type": "string"
        },
        {
          "internalType": "address[]",
          "name": "defaultOperators",
          "type": "address[]"
        },
        {
          "internalType": "uint256",
          "name": "initialSupply",
          "type": "uint256"
        },
        {
          "internalType": "address",
          "name": "owner",
          "type": "address"
        }
      ],
      "name": "initialize",
      "outputs": [],
      "stateMutability": "nonpayable",
      "type": "function"
    },
    {
      "inputs": [
        {
          "internalType": "address",
          "name": "operator",
          "type": "address"
        },
        {
          "internalType": "address",
          "name": "tokenHolder",
          "type": "address"
        }
      ],
      "name": "isOperatorFor",
      "outputs": [
        {
          "internalType": "bool",
          "name": "",
          "type": "bool"
        }
      ],
      "stateMutability": "view",
      "type": "function"
    },
    {
      "inputs": [],
      "name": "name",
      "outputs": [
        {
          "internalType": "string",
          "name": "",
          "type": "string"
        }
      ],
      "stateMutability": "view",
      "type": "function"
    },
    {
      "inputs": [
        {
          "internalType": "address",
          "name": "account",
          "type": "address"
        },
        {
          "internalType": "uint256",
          "name": "amount",
          "type": "uint256"
        },
        {
          "internalType": "bytes",
          "name": "data",
          "type": "bytes"
        },
        {
          "internalType": "bytes",
          "name": "operatorData",
          "type": "bytes"
        }
      ],
      "name": "operatorBurn",
      "outputs": [],
      "stateMutability": "nonpayable",
      "type": "function"
    },
    {
      "inputs": [
        {
          "internalType": "address",
          "name": "sender",
          "type": "address"
        },
        {
          "internalType": "address",
          "name": "recipient",
          "type": "address"
        },
        {
          "internalType": "uint256",
          "name": "amount",
          "type": "uint256"
        },
        {
          "internalType": "bytes",
          "name": "data",
          "type": "bytes"
        },
        {
          "internalType": "bytes",
          "name": "operatorData",
          "type": "bytes"
        }
      ],
      "name": "operatorSend",
      "outputs": [],
      "stateMutability": "nonpayable",
      "type": "function"
    },
    {
      "inputs": [
        {
          "internalType": "address",
          "name": "operator",
          "type": "address"
        }
      ],
      "name": "revokeOperator",
      "outputs": [],
      "stateMutability": "nonpayable",
      "type": "function"
    },
    {
      "inputs": [
        {
          "internalType": "address",
          "name": "recipient",
          "type": "address"
        },
        {
          "internalType": "uint256",
          "name": "amount",
          "type": "uint256"
        },
        {
          "internalType": "bytes",
          "name": "data",
          "type": "bytes"
        }
      ],
      "name": "send",
      "outputs": [],
      "stateMutability": "nonpayable",
      "type": "function"
    },
    {
      "inputs": [],
      "name": "symbol",
      "outputs": [
        {
          "internalType": "string",
          "name": "",
          "type": "string"
        }
      ],
      "stateMutability": "view",
      "type": "function"
    },
    {
      "inputs": [],
      "name": "totalSupply",
      "outputs": [
        {
          "internalType": "uint256",
          "name": "",
          "type": "uint256"
        }
      ],
      "stateMutability": "view",
      "type": "function"
    },
    {
      "inputs": [
        {
          "internalType": "address",
          "name": "recipient",
          "type": "address"
        },
        {
          "internalType": "uint256",
          "name": "amount",
          "type": "uint256"
        }
      ],
      "name": "transfer",
      "outputs": [
        {
          "internalType": "bool",
          "name": "",
          "type": "bool"
        }
      ],
      "stateMutability": "nonpayable",
      "type": "function"
    },
    {
      "inputs": [
        {
          "internalType": "address",
          "name": "holder",
          "type": "address"
        },
        {
          "internalType": "address",
          "name": "recipient",
          "type": "address"
        },
        {
          "internalType": "uint256",
          "name": "amount",
          "type": "uint256"
        }
      ],
      "name": "transferFrom",
      "outputs": [
        {
          "internalType": "bool",
          "name": "",
          "type": "bool"
        }
      ],
      "stateMutability": "nonpayable",
      "type": "function"
    }
  ],
  "bytecode": "0x608060405260405162002fc538038062002fc583398101604081905262000026916200099e565b62000035858585858562000040565b505050505062000d49565b600054610100900460ff16806200005c57506200005c62000100565b806200006b575060005460ff16155b620000935760405162461bcd60e51b81526004016200008a9062000bbb565b60405180910390fd5b600054610100900460ff16158015620000bf576000805460ff1961ff0019909116610100171660011790555b620000c96200011e565b620000d6868686620001aa565b620000e58686868686620003fd565b8015620000f8576000805461ff00191690555b505050505050565b60006200011830620004a560201b62000ac81760201c565b15905090565b600054610100900460ff16806200013a57506200013a62000100565b8062000149575060005460ff16155b620001685760405162461bcd60e51b81526004016200008a9062000bbb565b600054610100900460ff1615801562000194576000805460ff1961ff0019909116610100171660011790555b8015620001a7576000805461ff00191690555b50565b600054610100900460ff1680620001c65750620001c662000100565b80620001d5575060005460ff16155b620001f45760405162461bcd60e51b81526004016200008a9062000bbb565b600054610100900460ff1615801562000220576000805460ff1961ff0019909116610100171660011790555b835162000235906035906020870190620007d0565b5082516200024b906036906020860190620007d0565b5081516200026190603790602085019062000855565b5060005b603754811015620002c157600160386000603784815481106200028457fe5b6000918252602080832091909101546001600160a01b031683528201929092526040019020805460ff191691151591909117905560010162000265565b506040516329965a1d60e01b8152731820a4b7618bde71dce8cdc73aab6c95905fad24906329965a1d906200031f9030907fac7fbab5f54a3ca8194167523c6753bfeb96a445279294b6125b68cce217705490829060040162000b61565b600060405180830381600087803b1580156200033a57600080fd5b505af11580156200034f573d6000803e3d6000fd5b50506040516329965a1d60e01b8152731820a4b7618bde71dce8cdc73aab6c95905fad2492506329965a1d9150620003b09030907faea199e31a596269b42cdafd93407f14436db6e4cad65417994c2eb37381e05a90829060040162000b61565b600060405180830381600087803b158015620003cb57600080fd5b505af1158015620003e0573d6000803e3d6000fd5b505050508015620003f7576000805461ff00191690555b50505050565b600054610100900460ff16806200041957506200041962000100565b8062000428575060005460ff16155b620004475760405162461bcd60e51b81526004016200008a9062000bbb565b600054610100900460ff1615801562000473576000805460ff1961ff0019909116610100171660011790555b620000e582846040518060200160405280600081525060405180602001604052806000815250620004ab60201b60201c565b3b151590565b6001600160a01b038416620004d45760405162461bcd60e51b81526004016200008a9062000c09565b6000620004e062000617565b9050620004f18160008787620003f7565b6200050d846034546200061b60201b62000ace1790919060201c565b6034556001600160a01b0385166000908152603360209081526040909120546200054291869062000ace6200061b821b17901c565b6001600160a01b038616600090815260336020526040812091909155620005719082908787878760016200064c565b846001600160a01b0316816001600160a01b03167f2fe5be0146f74c5bce36c0b80911af6c7d86ff27e89d5cfa61fc681327954e5d868686604051620005ba9392919062000cba565b60405180910390a3846001600160a01b031660006001600160a01b03167fddf252ad1be2c89b69c2b068fc378daa952ba7f163c4a11628f55a4df523b3ef8660405162000608919062000cb1565b60405180910390a35050505050565b3390565b600082820183811015620006435760405162461bcd60e51b81526004016200008a9062000b84565b90505b92915050565b60405163555ddc6560e11b8152600090731820a4b7618bde71dce8cdc73aab6c95905fad249063aabbb8ca90620006aa9089907fb281fc8c12954d22544db45de3159a39272895b169a852b314f9cc762e44c53b9060040162000b48565b60206040518083038186803b158015620006c357600080fd5b505afa158015620006d8573d6000803e3d6000fd5b505050506040513d601f19601f82011682018060405250810190620006fe919062000979565b90506001600160a01b0381161562000780576040516223de2960e01b81526001600160a01b038216906223de299062000746908b908b908b908b908b908b9060040162000aea565b600060405180830381600087803b1580156200076157600080fd5b505af115801562000776573d6000803e3d6000fd5b50505050620007c6565b8115620007c657620007a6866001600160a01b0316620004a560201b62000ac81760201c565b15620007c65760405162461bcd60e51b81526004016200008a9062000c3e565b5050505050505050565b828054600181600116156101000203166002900490600052602060002090601f016020900481019282601f106200081357805160ff191683800117855562000843565b8280016001018555821562000843579182015b828111156200084357825182559160200191906001019062000826565b5062000851929150620008bb565b5090565b828054828255906000526020600020908101928215620008ad579160200282015b82811115620008ad57825182546001600160a01b0319166001600160a01b0390911617825560209092019160019091019062000876565b5062000851929150620008d2565b5b80821115620008515760008155600101620008bc565b5b80821115620008515780546001600160a01b0319168155600101620008d3565b80516001600160a01b03811681146200064657600080fd5b600082601f8301126200091c578081fd5b81516001600160401b0381111562000932578182fd5b62000947601f8201601f191660200162000cf3565b91508082528360208285010111156200095f57600080fd5b6200097281602084016020860162000d1a565b5092915050565b6000602082840312156200098b578081fd5b620009978383620008f3565b9392505050565b600080600080600060a08688031215620009b6578081fd5b85516001600160401b0380821115620009cd578283fd5b620009db89838a016200090b565b9650602091508188015181811115620009f2578384fd5b62000a008a828b016200090b565b96505060408801518181111562000a15578384fd5b8801601f81018a1362000a26578384fd5b80518281111562000a35578485fd5b838102925062000a4784840162000cf3565b8181528481019083860185850187018e101562000a62578788fd5b8795505b8386101562000a905762000a7b8e82620008f3565b83526001959095019491860191860162000a66565b508098505050505050506060860151915062000ab08760808801620008f3565b90509295509295909350565b6000815180845262000ad681602086016020860162000d1a565b601f01601f19169290920160200192915050565b6001600160a01b0387811682528681166020830152851660408201526060810184905260c06080820181905260009062000b279083018562000abc565b82810360a084015262000b3b818562000abc565b9998505050505050505050565b6001600160a01b03929092168252602082015260400190565b6001600160a01b0393841681526020810192909252909116604082015260600190565b6020808252601b908201527f536166654d6174683a206164646974696f6e206f766572666c6f770000000000604082015260600190565b6020808252602e908201527f496e697469616c697a61626c653a20636f6e747261637420697320616c72656160408201526d191e481a5b9a5d1a585b1a5e995960921b606082015260800190565b6020808252818101527f4552433737373a206d696e7420746f20746865207a65726f2061646472657373604082015260600190565b6020808252604d908201527f4552433737373a20746f6b656e20726563697069656e7420636f6e747261637460408201527f20686173206e6f20696d706c656d656e74657220666f7220455243373737546f60608201526c1ad95b9cd49958da5c1a595b9d609a1b608082015260a00190565b90815260200190565b60008482526060602083015262000cd5606083018562000abc565b828103604084015262000ce9818562000abc565b9695505050505050565b6040518181016001600160401b038111828210171562000d1257600080fd5b604052919050565b60005b8381101562000d3757818101518382015260200162000d1d565b83811115620003f75750506000910152565b61226c8062000d596000396000f3fe608060405234801561001057600080fd5b50600436106101215760003560e01c8063768f950a116100ad578063d95b637111610071578063d95b63711461023a578063dd62ed3e1461024d578063fad8b32a14610260578063fc673c4f14610273578063fe9d93031461028657610121565b8063768f950a146101e6578063959b8c3f146101f957806395d89b411461020c5780639bd9bbc614610214578063a9059cbb1461022757610121565b806323b872dd116100f457806323b872dd1461018e578063313ce567146101a1578063556f0dc7146101b657806362ad1b83146101be57806370a08231146101d357610121565b806306e485381461012657806306fdde0314610144578063095ea7b31461015957806318160ddd14610179575b600080fd5b61012e610299565b60405161013b9190611cb0565b60405180910390f35b61014c6102fb565b60405161013b9190611d08565b61016c610167366004611988565b610388565b60405161013b9190611cfd565b6101816103ac565b60405161013b919061211b565b61016c61019c3660046118b8565b6103b2565b6101a96104fa565b60405161013b9190612159565b6101816104ff565b6101d16101cc3660046118f8565b610504565b005b6101816101e1366004611848565b610547565b6101d16101f4366004611a87565b610562565b6101d1610207366004611848565b6105f7565b61014c610724565b6101d16102223660046119b3565b610785565b61016c610235366004611988565b6107af565b61016c610248366004611880565b610869565b61018161025b366004611880565b61090b565b6101d161026e366004611848565b610936565b6101d1610281366004611a0a565b610a63565b6101d1610294366004611b8a565b610aa2565b606060378054806020026020016040519081016040528092919081815260200182805480156102f157602002820191906000526020600020905b81546001600160a01b031681526001909101906020018083116102d3575b5050505050905090565b60358054604080516020601f60026000196101006001881615020190951694909404938401819004810282018101909252828152606093909290918301828280156102f15780601f1061035c576101008083540402835291602001916102f1565b820191906000526020600020905b81548152906001019060200180831161036a57509395945050505050565b600080610393610af3565b90506103a0818585610af7565b60019150505b92915050565b60345490565b60006001600160a01b0383166103e35760405162461bcd60e51b81526004016103da90611fcd565b60405180910390fd5b6001600160a01b0384166104095760405162461bcd60e51b81526004016103da9061205d565b6000610413610af3565b9050610441818686866040518060200160405280600081525060405180602001604052806000815250610bab565b61046d818686866040518060200160405280600081525060405180602001604052806000815250610cda565b6104c185826104bc866040518060600160405280602981526020016121eb602991396001600160a01b03808c166000908152603b60209081526040808320938b16835292905220549190610e06565b610af7565b6104ef8186868660405180602001604052806000815250604051806020016040528060008152506000610e32565b506001949350505050565b601290565b600190565b61051561050f610af3565b86610869565b6105315760405162461bcd60e51b81526004016103da90612011565b61054085858585856001610f99565b5050505050565b6001600160a01b031660009081526033602052604090205490565b600054610100900460ff168061057b575061057b61101c565b80610589575060005460ff16155b6105a55760405162461bcd60e51b81526004016103da90611ed7565b600054610100900460ff161580156105d0576000805460ff1961ff0019909116610100171660011790555b6105dd868686868661102d565b80156105ef576000805461ff00191690555b505050505050565b806001600160a01b0316610609610af3565b6001600160a01b031614156106305760405162461bcd60e51b81526004016103da90611e1b565b6001600160a01b03811660009081526038602052604090205460ff161561069357603a600061065d610af3565b6001600160a01b03908116825260208083019390935260409182016000908120918516815292529020805460ff191690556106da565b6001603960006106a1610af3565b6001600160a01b03908116825260208083019390935260409182016000908120918616815292529020805460ff19169115159190911790555b6106e2610af3565b6001600160a01b0316816001600160a01b03167ff4caeb2d6ca8932a215a353d0703c326ec2d81fc68170f320eb2ab49e9df61f960405160405180910390a350565b60368054604080516020601f60026000196101006001881615020190951694909404938401819004810282018101909252828152606093909290918301828280156102f15780601f1061035c576101008083540402835291602001916102f1565b6107aa610790610af3565b848484604051806020016040528060008152506001610f99565b505050565b60006001600160a01b0383166107d75760405162461bcd60e51b81526004016103da90611fcd565b60006107e1610af3565b905061080f818286866040518060200160405280600081525060405180602001604052806000815250610bab565b61083b818286866040518060200160405280600081525060405180602001604052806000815250610cda565b6103a08182868660405180602001604052806000815250604051806020016040528060008152506000610e32565b6000816001600160a01b0316836001600160a01b031614806108d457506001600160a01b03831660009081526038602052604090205460ff1680156108d457506001600160a01b038083166000908152603a602090815260408083209387168352929052205460ff16155b8061090457506001600160a01b0380831660009081526039602090815260408083209387168352929052205460ff165b9392505050565b6001600160a01b039182166000908152603b6020908152604080832093909416825291909152205490565b61093e610af3565b6001600160a01b0316816001600160a01b0316141561096f5760405162461bcd60e51b81526004016103da90611e96565b6001600160a01b03811660009081526038602052604090205460ff16156109db576001603a600061099e610af3565b6001600160a01b03908116825260208083019390935260409182016000908120918616815292529020805460ff1916911515919091179055610a19565b603960006109e7610af3565b6001600160a01b03908116825260208083019390935260409182016000908120918516815292529020805460ff191690555b610a21610af3565b6001600160a01b0316816001600160a01b03167f50546e66e5f44d728365dc3908c63bc5cfeeab470722c1677e3073a6ac294aa160405160405180910390a350565b610a74610a6e610af3565b85610869565b610a905760405162461bcd60e51b81526004016103da90612011565b610a9c848484846110bb565b50505050565b610ac4610aad610af3565b8383604051806020016040528060008152506110bb565b5050565b3b151590565b6000828201838110156109045760405162461bcd60e51b81526004016103da90611da2565b3390565b6001600160a01b038316610b1d5760405162461bcd60e51b81526004016103da90611d1b565b6001600160a01b038216610b435760405162461bcd60e51b81526004016103da906120d8565b6001600160a01b038084166000818152603b602090815260408083209487168084529490915290819020849055517f8c5be1e5ebec7d5bd14f71427d1e84f3dd0314c0f7b2291e5b200ac8c7c3b92590610b9e90859061211b565b60405180910390a3505050565b60405163555ddc6560e11b8152600090731820a4b7618bde71dce8cdc73aab6c95905fad249063aabbb8ca90610c079089907f29ddb589b1fb5fc7cf394961c1adf5f8c6454761adf795e67fe149f658abe89590600401611c74565b60206040518083038186803b158015610c1f57600080fd5b505afa158015610c33573d6000803e3d6000fd5b505050506040513d601f19601f82011682018060405250810190610c579190611864565b90506001600160a01b03811615610cd157604051633ad5cbc160e11b81526001600160a01b038216906375ab978290610c9e908a908a908a908a908a908a90600401611c1a565b600060405180830381600087803b158015610cb857600080fd5b505af1158015610ccc573d6000803e3d6000fd5b505050505b50505050505050565b610ce686868686610a9c565b610d23836040518060600160405280602781526020016121c4602791396001600160a01b0388166000908152603360205260409020549190610e06565b6001600160a01b038087166000908152603360205260408082209390935590861681522054610d529084610ace565b6001600160a01b0380861660008181526033602052604090819020939093559151878216918916907f06b541ddaa720db2b10a4d0cdac39b8d360425fc073085fac19bc8261467798790610dab90889088908890612124565b60405180910390a4836001600160a01b0316856001600160a01b03167fddf252ad1be2c89b69c2b068fc378daa952ba7f163c4a11628f55a4df523b3ef85604051610df6919061211b565b60405180910390a3505050505050565b60008184841115610e2a5760405162461bcd60e51b81526004016103da9190611d08565b505050900390565b60405163555ddc6560e11b8152600090731820a4b7618bde71dce8cdc73aab6c95905fad249063aabbb8ca90610e8e9089907fb281fc8c12954d22544db45de3159a39272895b169a852b314f9cc762e44c53b90600401611c74565b60206040518083038186803b158015610ea657600080fd5b505afa158015610eba573d6000803e3d6000fd5b505050506040513d601f19601f82011682018060405250810190610ede9190611864565b90506001600160a01b03811615610f5a576040516223de2960e01b81526001600160a01b038216906223de2990610f23908b908b908b908b908b908b90600401611c1a565b600060405180830381600087803b158015610f3d57600080fd5b505af1158015610f51573d6000803e3d6000fd5b50505050610f8f565b8115610f8f57610f72866001600160a01b0316610ac8565b15610f8f5760405162461bcd60e51b81526004016103da90611f5a565b5050505050505050565b6001600160a01b038616610fbf5760405162461bcd60e51b81526004016103da90611d60565b6001600160a01b038516610fe55760405162461bcd60e51b81526004016103da906120a3565b6000610fef610af3565b9050610fff818888888888610bab565b61100d818888888888610cda565b610cd181888888888888610e32565b600061102730610ac8565b15905090565b600054610100900460ff1680611046575061104661101c565b80611054575060005460ff16155b6110705760405162461bcd60e51b81526004016103da90611ed7565b600054610100900460ff1615801561109b576000805460ff1961ff0019909116610100171660011790555b6110a3611214565b6110ae868686611297565b6105dd86868686866114cf565b6001600160a01b0384166110e15760405162461bcd60e51b81526004016103da90611dd9565b60006110eb610af3565b90506110fc81866000878787610bab565b6111098186600087610a9c565b61114684604051806060016040528060238152602001612214602391396001600160a01b0388166000908152603360205260409020549190610e06565b6001600160a01b03861660009081526033602052604090205560345461116c9085611567565b603481905550846001600160a01b0316816001600160a01b03167fa78a9be3a7b862d26933ad85fb11d80ef66b8f972d7cbba06621d583943a40988686866040516111b993929190612124565b60405180910390a360006001600160a01b0316856001600160a01b03167fddf252ad1be2c89b69c2b068fc378daa952ba7f163c4a11628f55a4df523b3ef86604051611205919061211b565b60405180910390a35050505050565b600054610100900460ff168061122d575061122d61101c565b8061123b575060005460ff16155b6112575760405162461bcd60e51b81526004016103da90611ed7565b600054610100900460ff16158015611282576000805460ff1961ff0019909116610100171660011790555b8015611294576000805461ff00191690555b50565b600054610100900460ff16806112b057506112b061101c565b806112be575060005460ff16155b6112da5760405162461bcd60e51b81526004016103da90611ed7565b600054610100900460ff16158015611305576000805460ff1961ff0019909116610100171660011790555b83516113189060359060208701906116c1565b50825161132c9060369060208601906116c1565b50815161134090603790602085019061173f565b5060005b60375481101561139d576001603860006037848154811061136157fe5b6000918252602080832091909101546001600160a01b031683528201929092526040019020805460ff1916911515919091179055600101611344565b506040516329965a1d60e01b8152731820a4b7618bde71dce8cdc73aab6c95905fad24906329965a1d906113f99030907fac7fbab5f54a3ca8194167523c6753bfeb96a445279294b6125b68cce2177054908290600401611c8d565b600060405180830381600087803b15801561141357600080fd5b505af1158015611427573d6000803e3d6000fd5b50506040516329965a1d60e01b8152731820a4b7618bde71dce8cdc73aab6c95905fad2492506329965a1d91506114869030907faea199e31a596269b42cdafd93407f14436db6e4cad65417994c2eb37381e05a908290600401611c8d565b600060405180830381600087803b1580156114a057600080fd5b505af11580156114b4573d6000803e3d6000fd5b505050508015610a9c576000805461ff001916905550505050565b600054610100900460ff16806114e857506114e861101c565b806114f6575060005460ff16155b6115125760405162461bcd60e51b81526004016103da90611ed7565b600054610100900460ff1615801561153d576000805460ff1961ff0019909116610100171660011790555b6105dd8284604051806020016040528060008152506040518060200160405280600081525061158f565b6000828211156115895760405162461bcd60e51b81526004016103da90611e5f565b50900390565b6001600160a01b0384166115b55760405162461bcd60e51b81526004016103da90611f25565b60006115bf610af3565b90506115ce8160008787610a9c565b6034546115db9085610ace565b6034556001600160a01b0385166000908152603360205260409020546116019085610ace565b6001600160a01b03861660009081526033602052604081209190915561162e908290878787876001610e32565b846001600160a01b0316816001600160a01b03167f2fe5be0146f74c5bce36c0b80911af6c7d86ff27e89d5cfa61fc681327954e5d86868660405161167593929190612124565b60405180910390a3846001600160a01b031660006001600160a01b03167fddf252ad1be2c89b69c2b068fc378daa952ba7f163c4a11628f55a4df523b3ef86604051611205919061211b565b828054600181600116156101000203166002900490600052602060002090601f016020900481019282601f1061170257805160ff191683800117855561172f565b8280016001018555821561172f579182015b8281111561172f578251825591602001919060010190611714565b5061173b9291506117a0565b5090565b828054828255906000526020600020908101928215611794579160200282015b8281111561179457825182546001600160a01b0319166001600160a01b0390911617825560209092019160019091019061175f565b5061173b9291506117b5565b5b8082111561173b57600081556001016117a1565b5b8082111561173b5780546001600160a01b03191681556001016117b6565b80356103a6816121ae565b600082601f8301126117ef578081fd5b813567ffffffffffffffff811115611805578182fd5b611818601f8201601f1916602001612167565b915080825283602082850101111561182f57600080fd5b8060208401602084013760009082016020015292915050565b600060208284031215611859578081fd5b8135610904816121ae565b600060208284031215611875578081fd5b8151610904816121ae565b60008060408385031215611892578081fd5b823561189d816121ae565b915060208301356118ad816121ae565b809150509250929050565b6000806000606084860312156118cc578081fd5b83356118d7816121ae565b925060208401356118e7816121ae565b929592945050506040919091013590565b600080600080600060a0868803121561190f578081fd5b853561191a816121ae565b9450602086013561192a816121ae565b935060408601359250606086013567ffffffffffffffff8082111561194d578283fd5b61195989838a016117df565b9350608088013591508082111561196e578283fd5b5061197b888289016117df565b9150509295509295909350565b6000806040838503121561199a578182fd5b82356119a5816121ae565b946020939093013593505050565b6000806000606084860312156119c7578283fd5b83356119d2816121ae565b925060208401359150604084013567ffffffffffffffff8111156119f4578182fd5b611a00868287016117df565b9150509250925092565b60008060008060808587031215611a1f578384fd5b8435611a2a816121ae565b935060208501359250604085013567ffffffffffffffff80821115611a4d578384fd5b611a59888389016117df565b93506060870135915080821115611a6e578283fd5b50611a7b878288016117df565b91505092959194509250565b600080600080600060a08688031215611a9e578081fd5b853567ffffffffffffffff80821115611ab5578283fd5b611ac189838a016117df565b9650602091508188013581811115611ad7578384fd5b611ae38a828b016117df565b965050604088013581811115611af7578384fd5b88019050601f81018913611b09578283fd5b8035611b1c611b178261218e565b612167565b81815283810190838501858402850186018d1015611b38578687fd5b8694505b83851015611b6257611b4e8d826117d4565b835260019490940193918501918501611b3c565b50965050505060608701359250611b7e905087608088016117d4565b90509295509295909350565b60008060408385031215611b9c578182fd5b82359150602083013567ffffffffffffffff811115611bb9578182fd5b611bc5858286016117df565b9150509250929050565b60008151808452815b81811015611bf457602081850181015186830182015201611bd8565b81811115611c055782602083870101525b50601f01601f19169290920160200192915050565b6001600160a01b0387811682528681166020830152851660408201526060810184905260c060808201819052600090611c5590830185611bcf565b82810360a0840152611c678185611bcf565b9998505050505050505050565b6001600160a01b03929092168252602082015260400190565b6001600160a01b0393841681526020810192909252909116604082015260600190565b6020808252825182820181905260009190848201906040850190845b81811015611cf15783516001600160a01b031683529284019291840191600101611ccc565b50909695505050505050565b901515815260200190565b6000602082526109046020830184611bcf565b60208082526025908201527f4552433737373a20617070726f76652066726f6d20746865207a65726f206164604082015264647265737360d81b606082015260800190565b60208082526022908201527f4552433737373a2073656e642066726f6d20746865207a65726f206164647265604082015261737360f01b606082015260800190565b6020808252601b908201527f536166654d6174683a206164646974696f6e206f766572666c6f770000000000604082015260600190565b60208082526022908201527f4552433737373a206275726e2066726f6d20746865207a65726f206164647265604082015261737360f01b606082015260800190565b60208082526024908201527f4552433737373a20617574686f72697a696e672073656c66206173206f70657260408201526330ba37b960e11b606082015260800190565b6020808252601e908201527f536166654d6174683a207375627472616374696f6e206f766572666c6f770000604082015260600190565b60208082526021908201527f4552433737373a207265766f6b696e672073656c66206173206f70657261746f6040820152603960f91b606082015260800190565b6020808252602e908201527f496e697469616c697a61626c653a20636f6e747261637420697320616c72656160408201526d191e481a5b9a5d1a585b1a5e995960921b606082015260800190565b6020808252818101527f4552433737373a206d696e7420746f20746865207a65726f2061646472657373604082015260600190565b6020808252604d908201527f4552433737373a20746f6b656e20726563697069656e7420636f6e747261637460408201527f20686173206e6f20696d706c656d656e74657220666f7220455243373737546f60608201526c1ad95b9cd49958da5c1a595b9d609a1b608082015260a00190565b60208082526024908201527f4552433737373a207472616e7366657220746f20746865207a65726f206164646040820152637265737360e01b606082015260800190565b6020808252602c908201527f4552433737373a2063616c6c6572206973206e6f7420616e206f70657261746f60408201526b39103337b9103437b63232b960a11b606082015260800190565b60208082526026908201527f4552433737373a207472616e736665722066726f6d20746865207a65726f206160408201526564647265737360d01b606082015260800190565b6020808252818101527f4552433737373a2073656e6420746f20746865207a65726f2061646472657373604082015260600190565b60208082526023908201527f4552433737373a20617070726f766520746f20746865207a65726f206164647260408201526265737360e81b606082015260800190565b90815260200190565b60008482526060602083015261213d6060830185611bcf565b828103604084015261214f8185611bcf565b9695505050505050565b60ff91909116815260200190565b60405181810167ffffffffffffffff8111828210171561218657600080fd5b604052919050565b600067ffffffffffffffff8211156121a4578081fd5b5060209081020190565b6001600160a01b038116811461129457600080fdfe4552433737373a207472616e7366657220616d6f756e7420657863656564732062616c616e63654552433737373a207472616e7366657220616d6f756e74206578636565647320616c6c6f77616e63654552433737373a206275726e20616d6f756e7420657863656564732062616c616e6365a2646970667358221220e5ca6fbbd7b2483c8c9a9536a019063fec9c5a620436e7c20b6fa93445ff4ceb64736f6c634300060c0033",
  "linkReferences": {},
  "deployedLinkReferences": {}
}