{
  "_format": "hh-sol-artifact-1",
  "contractName": "ERC721GSNRecipientMockUpgradeableWithInit",
  "sourceName": "contracts/contracts-upgradeable-v3_4/mocks/WithInit.sol",
  "abi": [
    {
      "inputs": [
        {
          "internalType": "string",
          "name": "name",
          "type": "string"
        },
        {
          "internalType": "string",
          "name": "symbol",
          "type": "string"
        },
        {
          "internalType": "address",
          "name": "trustedSigner",
          "type": "address"
        }
      ],
      "stateMutability": "payable",
      "type": "constructor"
    },
    {
      "anonymous": false,
      "inputs": [
        {
          "indexed": true,
          "internalType": "address",
          "name": "owner",
          "type": "address"
        },
        {
          "indexed": true,
          "internalType": "address",
          "name": "approved",
          "type": "address"
        },
        {
          "indexed": true,
          "internalType": "uint256",
          "name": "tokenId",
          "type": "uint256"
        }
      ],
      "name": "Approval",
      "type": "event"
    },
    {
      "anonymous": false,
      "inputs": [
        {
          "indexed": true,
          "internalType": "address",
          "name": "owner",
          "type": "address"
        },
        {
          "indexed": true,
          "internalType": "address",
          "name": "operator",
          "type": "address"
        },
        {
          "indexed": false,
          "internalType": "bool",
          "name": "approved",
          "type": "bool"
        }
      ],
      "name": "ApprovalForAll",
      "type": "event"
    },
    {
      "anonymous": false,
      "inputs": [
        {
          "indexed": true,
          "internalType": "address",
          "name": "oldRelayHub",
          "type": "address"
        },
        {
          "indexed": true,
          "internalType": "address",
          "name": "newRelayHub",
          "type": "address"
        }
      ],
      "name": "RelayHubChanged",
      "type": "event"
    },
    {
      "anonymous": false,
      "inputs": [
        {
          "indexed": true,
          "internalType": "address",
          "name": "from",
          "type": "address"
        },
        {
          "indexed": true,
          "internalType": "address",
          "name": "to",
          "type": "address"
        },
        {
          "indexed": true,
          "internalType": "uint256",
          "name": "tokenId",
          "type": "uint256"
        }
      ],
      "name": "Transfer",
      "type": "event"
    },
    {
      "inputs": [
        {
          "internalType": "address",
          "name": "relay",
          "type": "address"
        },
        {
          "internalType": "address",
          "name": "from",
          "type": "address"
        },
        {
          "internalType": "bytes",
          "name": "encodedFunction",
          "type": "bytes"
        },
        {
          "internalType": "uint256",
          "name": "transactionFee",
          "type": "uint256"
        },
        {
          "internalType": "uint256",
          "name": "gasPrice",
          "type": "uint256"
        },
        {
          "internalType": "uint256",
          "name": "gasLimit",
          "type": "uint256"
        },
        {
          "internalType": "uint256",
          "name": "nonce",
          "type": "uint256"
        },
        {
          "internalType": "bytes",
          "name": "approvalData",
          "type": "bytes"
        },
        {
          "internalType": "uint256",
          "name": "",
          "type": "uint256"
        }
      ],
      "name": "acceptRelayedCall",
      "outputs": [
        {
          "internalType": "uint256",
          "name": "",
          "type": "uint256"
        },
        {
          "internalType": "bytes",
          "name": "",
          "type": "bytes"
        }
      ],
      "stateMutability": "view",
      "type": "function"
    },
    {
      "inputs": [
        {
          "internalType": "address",
          "name": "to",
          "type": "address"
        },
        {
          "internalType": "uint256",
          "name": "tokenId",
          "type": "uint256"
        }
      ],
      "name": "approve",
      "outputs": [],
      "stateMutability": "nonpayable",
      "type": "function"
    },
    {
      "inputs": [
        {
          "internalType": "address",
          "name": "owner",
          "type": "address"
        }
      ],
      "name": "balanceOf",
      "outputs": [
        {
          "internalType": "uint256",
          "name": "",
          "type": "uint256"
        }
      ],
      "stateMutability": "view",
      "type": "function"
    },
    {
      "inputs": [],
      "name": "baseURI",
      "outputs": [
        {
          "internalType": "string",
          "name": "",
          "type": "string"
        }
      ],
      "stateMutability": "view",
      "type": "function"
    },
    {
      "inputs": [
        {
          "internalType": "uint256",
          "name": "tokenId",
          "type": "uint256"
        }
      ],
      "name": "getApproved",
      "outputs": [
        {
          "internalType": "address",
          "name": "",
          "type": "address"
        }
      ],
      "stateMutability": "view",
      "type": "function"
    },
    {
      "inputs": [],
      "name": "getHubAddr",
      "outputs": [
        {
          "internalType": "address",
          "name": "",
          "type": "address"
        }
      ],
      "stateMutability": "view",
      "type": "function"
    },
    {
      "inputs": [
        {
          "internalType": "address",
          "name": "owner",
          "type": "address"
        },
        {
          "internalType": "address",
          "name": "operator",
          "type": "address"
        }
      ],
      "name": "isApprovedForAll",
      "outputs": [
        {
          "internalType": "bool",
          "name": "",
          "type": "bool"
        }
      ],
      "stateMutability": "view",
      "type": "function"
    },
    {
      "inputs": [
        {
          "internalType": "uint256",
          "name": "tokenId",
          "type": "uint256"
        }
      ],
      "name": "mint",
      "outputs": [],
      "stateMutability": "nonpayable",
      "type": "function"
    },
    {
      "inputs": [],
      "name": "name",
      "outputs": [
        {
          "internalType": "string",
          "name": "",
          "type": "string"
        }
      ],
      "stateMutability": "view",
      "type": "function"
    },
    {
      "inputs": [
        {
          "internalType": "uint256",
          "name": "tokenId",
          "type": "uint256"
        }
      ],
      "name": "ownerOf",
      "outputs": [
        {
          "internalType": "address",
          "name": "",
          "type": "address"
        }
      ],
      "stateMutability": "view",
      "type": "function"
    },
    {
      "inputs": [
        {
          "internalType": "bytes",
          "name": "context",
          "type": "bytes"
        },
        {
          "internalType": "bool",
          "name": "success",
          "type": "bool"
        },
        {
          "internalType": "uint256",
          "name": "actualCharge",
          "type": "uint256"
        },
        {
          "internalType": "bytes32",
          "name": "preRetVal",
          "type": "bytes32"
        }
      ],
      "name": "postRelayedCall",
      "outputs": [],
      "stateMutability": "nonpayable",
      "type": "function"
    },
    {
      "inputs": [
        {
          "internalType": "bytes",
          "name": "context",
          "type": "bytes"
        }
      ],
      "name": "preRelayedCall",
      "outputs": [
        {
          "internalType": "bytes32",
          "name": "",
          "type": "bytes32"
        }
      ],
      "stateMutability": "nonpayable",
      "type": "function"
    },
    {
      "inputs": [],
      "name": "relayHubVersion",
      "outputs": [
        {
          "internalType": "string",
          "name": "",
          "type": "string"
        }
      ],
      "stateMutability": "view",
      "type": "function"
    },
    {
      "inputs": [
        {
          "internalType": "address",
          "name": "from",
          "type": "address"
        },
        {
          "internalType": "address",
          "name": "to",
          "type": "address"
        },
        {
          "internalType": "uint256",
          "name": "tokenId",
          "type": "uint256"
        }
      ],
      "name": "safeTransferFrom",
      "outputs": [],
      "stateMutability": "nonpayable",
      "type": "function"
    },
    {
      "inputs": [
        {
          "internalType": "address",
          "name": "from",
          "type": "address"
        },
        {
          "internalType": "address",
          "name": "to",
          "type": "address"
        },
        {
          "internalType": "uint256",
          "name": "tokenId",
          "type": "uint256"
        },
        {
          "internalType": "bytes",
          "name": "_data",
          "type": "bytes"
        }
      ],
      "name": "safeTransferFrom",
      "outputs": [],
      "stateMutability": "nonpayable",
      "type": "function"
    },
    {
      "inputs": [
        {
          "internalType": "address",
          "name": "operator",
          "type": "address"
        },
        {
          "internalType": "bool",
          "name": "approved",
          "type": "bool"
        }
      ],
      "name": "setApprovalForAll",
      "outputs": [],
      "stateMutability": "nonpayable",
      "type": "function"
    },
    {
      "inputs": [
        {
          "internalType": "bytes4",
          "name": "interfaceId",
          "type": "bytes4"
        }
      ],
      "name": "supportsInterface",
      "outputs": [
        {
          "internalType": "bool",
          "name": "",
          "type": "bool"
        }
      ],
      "stateMutability": "view",
      "type": "function"
    },
    {
      "inputs": [],
      "name": "symbol",
      "outputs": [
        {
          "internalType": "string",
          "name": "",
          "type": "string"
        }
      ],
      "stateMutability": "view",
      "type": "function"
    },
    {
      "inputs": [
        {
          "internalType": "uint256",
          "name": "index",
          "type": "uint256"
        }
      ],
      "name": "tokenByIndex",
      "outputs": [
        {
          "internalType": "uint256",
          "name": "",
          "type": "uint256"
        }
      ],
      "stateMutability": "view",
      "type": "function"
    },
    {
      "inputs": [
        {
          "internalType": "address",
          "name": "owner",
          "type": "address"
        },
        {
          "internalType": "uint256",
          "name": "index",
          "type": "uint256"
        }
      ],
      "name": "tokenOfOwnerByIndex",
      "outputs": [
        {
          "internalType": "uint256",
          "name": "",
          "type": "uint256"
        }
      ],
      "stateMutability": "view",
      "type": "function"
    },
    {
      "inputs": [
        {
          "internalType": "uint256",
          "name": "tokenId",
          "type": "uint256"
        }
      ],
      "name": "tokenURI",
      "outputs": [
        {
          "internalType": "string",
          "name": "",
          "type": "string"
        }
      ],
      "stateMutability": "view",
      "type": "function"
    },
    {
      "inputs": [],
      "name": "totalSupply",
      "outputs": [
        {
          "internalType": "uint256",
          "name": "",
          "type": "uint256"
        }
      ],
      "stateMutability": "view",
      "type": "function"
    },
    {
      "inputs": [
        {
          "internalType": "address",
          "name": "from",
          "type": "address"
        },
        {
          "internalType": "address",
          "name": "to",
          "type": "address"
        },
        {
          "internalType": "uint256",
          "name": "tokenId",
          "type": "uint256"
        }
      ],
      "name": "transferFrom",
      "outputs": [],
      "stateMutability": "nonpayable",
      "type": "function"
    }
  ],
  "bytecode": "0x6080604052604051620029d1380380620029d18339810160408190526200002691620006e2565b620000338383836200003c565b5050506200084d565b600054610100900460ff16806200005857506200005862000116565b8062000067575060005460ff16155b6200008f5760405162461bcd60e51b81526004016200008690620007a2565b60405180910390fd5b600054610100900460ff16158015620000bb576000805460ff1961ff0019909116610100171660011790555b620000c562000134565b620000cf620001c0565b620000db848462000248565b620000e562000338565b620000f082620003e9565b620000fd848484620004ba565b801562000110576000805461ff00191690555b50505050565b60006200012e306200054760201b62000a741760201c565b15905090565b600054610100900460ff16806200015057506200015062000116565b806200015f575060005460ff16155b6200017e5760405162461bcd60e51b81526004016200008690620007a2565b600054610100900460ff16158015620001aa576000805460ff1961ff0019909116610100171660011790555b8015620001bd576000805461ff00191690555b50565b600054610100900460ff1680620001dc5750620001dc62000116565b80620001eb575060005460ff16155b6200020a5760405162461bcd60e51b81526004016200008690620007a2565b600054610100900460ff1615801562000236576000805460ff1961ff0019909116610100171660011790555b620001aa6301ffc9a760e01b6200054d565b600054610100900460ff16806200026457506200026462000116565b8062000273575060005460ff16155b620002925760405162461bcd60e51b81526004016200008690620007a2565b600054610100900460ff16158015620002be576000805460ff1961ff0019909116610100171660011790555b8251620002d390606a9060208601906200059f565b508151620002e990606b9060208501906200059f565b50620002fc6380ac58cd60e01b6200054d565b6200030e635b5e139f60e01b6200054d565b6200032063780e9d6360e01b6200054d565b801562000333576000805461ff00191690555b505050565b600054610100900460ff16806200035457506200035462000116565b8062000363575060005460ff16155b620003825760405162461bcd60e51b81526004016200008690620007a2565b600054610100900460ff16158015620003ae576000805460ff1961ff0019909116610100171660011790555b609780546001600160a01b03191673d216153c06e857cd7f72665e0af1d7d82172f4941790558015620001bd576000805461ff001916905550565b600054610100900460ff16806200040557506200040562000116565b8062000414575060005460ff16155b620004335760405162461bcd60e51b81526004016200008690620007a2565b600054610100900460ff161580156200045f576000805460ff1961ff0019909116610100171660011790555b6001600160a01b038216620004885760405162461bcd60e51b81526004016200008690620007f0565b60c980546001600160a01b0319166001600160a01b0384161790558015620004b6576000805461ff00191690555b5050565b600054610100900460ff1680620004d65750620004d662000116565b80620004e5575060005460ff16155b620005045760405162461bcd60e51b81526004016200008690620007a2565b600054610100900460ff16158015620000fd576000805460ff1961ff001990911661010017166001179055801562000110576000805461ff001916905550505050565b3b151590565b6001600160e01b031980821614156200057a5760405162461bcd60e51b815260040162000086906200076b565b6001600160e01b0319166000908152603360205260409020805460ff19166001179055565b828054600181600116156101000203166002900490600052602060002090601f016020900481019282601f10620005e257805160ff191683800117855562000612565b8280016001018555821562000612579182015b8281111562000612578251825591602001919060010190620005f5565b506200062092915062000624565b5090565b5b8082111562000620576000815560010162000625565b600082601f8301126200064c578081fd5b81516001600160401b038082111562000663578283fd5b6040516020601f8401601f191682018101838111838210171562000685578586fd5b80604052508194508382528681858801011115620006a257600080fd5b600092505b83831015620006c65785830181015182840182015291820191620006a7565b83831115620006d85760008185840101525b5050505092915050565b600080600060608486031215620006f7578283fd5b83516001600160401b03808211156200070e578485fd5b6200071c878388016200063b565b9450602086015191508082111562000732578384fd5b5062000741868287016200063b565b604086015190935090506001600160a01b038116811462000760578182fd5b809150509250925092565b6020808252601c908201527f4552433136353a20696e76616c696420696e7465726661636520696400000000604082015260600190565b6020808252602e908201527f496e697469616c697a61626c653a20636f6e747261637420697320616c72656160408201526d191e481a5b9a5d1a585b1a5e995960921b606082015260800190565b60208082526039908201527f47534e526563697069656e745369676e61747572653a2074727573746564207360408201527f69676e657220697320746865207a65726f206164647265737300000000000000606082015260800190565b612174806200085d6000396000f3fe608060405234801561001057600080fd5b506004361061014d5760003560e01c806370a08231116100c3578063a22cb4651161007c578063a22cb465146102ab578063ad61ccd5146102be578063b88d4fde146102c6578063c87b56dd146102d9578063e06e0e22146102ec578063e985e9c5146102ff5761014d565b806370a082311461024157806374e861d61461025457806380274db71461025c57806383947ea01461026f57806395d89b4114610290578063a0712d68146102985761014d565b806323b872dd1161011557806323b872dd146101da5780632f745c59146101ed57806342842e0e146102005780634f6ccce7146102135780636352211e146102265780636c0360eb146102395761014d565b806301ffc9a71461015257806306fdde031461017b578063081812fc14610190578063095ea7b3146101b057806318160ddd146101c5575b600080fd5b610165610160366004611851565b610312565b6040516101729190611a9b565b60405180910390f35b610183610335565b6040516101729190611acd565b6101a361019e36600461191d565b6103cc565b6040516101729190611a54565b6101c36101be366004611827565b610418565b005b6101cd6104b0565b6040516101729190611aa6565b6101c36101e8366004611744565b6104c1565b6101cd6101fb366004611827565b6104f9565b6101c361020e366004611744565b610524565b6101cd61022136600461191d565b61053f565b6101a361023436600461191d565b610555565b61018361057d565b6101cd61024f36600461163f565b6105de565b6101a3610627565b6101cd61026a366004611889565b610636565b61028261027d36600461168e565b610679565b604051610172929190612073565b61018361071b565b6101c36102a636600461191d565b61077c565b6101c36102b93660046117ec565b610790565b61018361085e565b6101c36102d4366004611784565b61087d565b6101836102e736600461191d565b6108bc565b6101c36102fa3660046118bc565b610a02565b61016561030d36600461165a565b610a46565b6001600160e01b0319811660009081526033602052604090205460ff165b919050565b606a8054604080516020601f60026000196101006001881615020190951694909404938401819004810282018101909252828152606093909290918301828280156103c15780601f10610396576101008083540402835291602001916103c1565b820191906000526020600020905b8154815290600101906020018083116103a457829003601f168201915b505050505090505b90565b60006103d782610a7a565b6103fc5760405162461bcd60e51b81526004016103f390611e82565b60405180910390fd5b506000908152606860205260409020546001600160a01b031690565b600061042382610555565b9050806001600160a01b0316836001600160a01b031614156104575760405162461bcd60e51b81526004016103f390611f66565b806001600160a01b0316610469610a87565b6001600160a01b0316148061048557506104858161030d610a87565b6104a15760405162461bcd60e51b81526004016103f390611d22565b6104ab8383610a91565b505050565b60006104bc6066610aff565b905090565b6104d26104cc610a87565b82610b0a565b6104ee5760405162461bcd60e51b81526004016103f390611feb565b6104ab838383610b8f565b6001600160a01b038216600090815260656020526040812061051b9083610c9d565b90505b92915050565b6104ab8383836040518060200160405280600081525061087d565b60008061054d606684610ca9565b509392505050565b600061051e826040518060600160405280602981526020016121166029913960669190610cc5565b606d8054604080516020601f60026000196101006001881615020190951694909404938401819004810282018101909252828152606093909290918301828280156103c15780601f10610396576101008083540402835291602001916103c1565b60006001600160a01b0382166106065760405162461bcd60e51b81526004016103f390611d7f565b6001600160a01b038216600090815260656020526040902061051e90610aff565b6097546001600160a01b031690565b6000610640610627565b6001600160a01b0316336001600160a01b0316146106705760405162461bcd60e51b81526004016103f390611fa7565b61051e82610cdc565b60006060808b8b8b8b8b8b8b61068d610627565b306040516020016106a699989796959493929190611961565b60408051601f1981840301815291905260c954815160208301209192506001600160a01b0316906106e29087906106dc90610ce2565b90610d12565b6001600160a01b03161415610703576106f9610d5d565b925092505061070d565b6106f96000610d81565b995099975050505050505050565b606b8054604080516020601f60026000196101006001881615020190951694909404938401819004810282018101909252828152606093909290918301828280156103c15780601f10610396576101008083540402835291602001916103c1565b61078d610787610a87565b82610d99565b50565b610798610a87565b6001600160a01b0316826001600160a01b031614156107c95760405162461bcd60e51b81526004016103f390611c5d565b80606960006107d6610a87565b6001600160a01b03908116825260208083019390935260409182016000908120918716808252919093529120805460ff19169215159290921790915561081a610a87565b6001600160a01b03167f17307eab39ab6107e8899845ad3d59bd9653f200f220920489ca2b5937696c31836040516108529190611a9b565b60405180910390a35050565b6040805180820190915260058152640312e302e360dc1b602082015290565b61088e610888610a87565b83610b0a565b6108aa5760405162461bcd60e51b81526004016103f390611feb565b6108b684848484610e5d565b50505050565b60606108c782610a7a565b6108e35760405162461bcd60e51b81526004016103f390611f17565b6000828152606c602090815260409182902080548351601f60026000196101006001861615020190931692909204918201849004840281018401909452808452606093928301828280156109785780601f1061094d57610100808354040283529160200191610978565b820191906000526020600020905b81548152906001019060200180831161095b57829003601f168201915b50505050509050606061098961057d565b905080516000141561099d57509050610330565b8151156109cf5780826040516020016109b79291906119f4565b60405160208183030381529060405292505050610330565b806109d985610e90565b6040516020016109ea9291906119f4565b60405160208183030381529060405292505050919050565b610a0a610627565b6001600160a01b0316336001600160a01b031614610a3a5760405162461bcd60e51b81526004016103f390611fa7565b6108b6848484846108b6565b6001600160a01b03918216600090815260696020908152604080832093909416825291909152205460ff1690565b3b151590565b600061051e606683610f6b565b60006104bc610f77565b600081815260686020526040902080546001600160a01b0319166001600160a01b0384169081179091558190610ac682610555565b6001600160a01b03167f8c5be1e5ebec7d5bd14f71427d1e84f3dd0314c0f7b2291e5b200ac8c7c3b92560405160405180910390a45050565b600061051e82610faf565b6000610b1582610a7a565b610b315760405162461bcd60e51b81526004016103f390611cd6565b6000610b3c83610555565b9050806001600160a01b0316846001600160a01b03161480610b775750836001600160a01b0316610b6c846103cc565b6001600160a01b0316145b80610b875750610b878185610a46565b949350505050565b826001600160a01b0316610ba282610555565b6001600160a01b031614610bc85760405162461bcd60e51b81526004016103f390611ece565b6001600160a01b038216610bee5760405162461bcd60e51b81526004016103f390611c19565b610bf98383836104ab565b610c04600082610a91565b6001600160a01b0383166000908152606560205260409020610c269082610fb3565b506001600160a01b0382166000908152606560205260409020610c499082610fbf565b50610c5660668284610fcb565b5080826001600160a01b0316846001600160a01b03167fddf252ad1be2c89b69c2b068fc378daa952ba7f163c4a11628f55a4df523b3ef60405160405180910390a4505050565b600061051b8383610fe1565b6000808080610cb88686611026565b9097909650945050505050565b6000610cd2848484611082565b90505b9392505050565b50600090565b600081604051602001610cf59190611a23565b604051602081830303815290604052805190602001209050919050565b60008151604114610d355760405162461bcd60e51b81526004016103f390611b59565b60208201516040830151606084015160001a610d53868285856110e1565b9695505050505050565b60006060610d79604051806020016040528060008152506111d7565b915091509091565b604080516020810190915260008152600b9190910191565b6001600160a01b038216610dbf5760405162461bcd60e51b81526004016103f390611e4d565b610dc881610a7a565b15610de55760405162461bcd60e51b81526004016103f390611be2565b610df1600083836104ab565b6001600160a01b0382166000908152606560205260409020610e139082610fbf565b50610e2060668284610fcb565b5060405181906001600160a01b038416906000907fddf252ad1be2c89b69c2b068fc378daa952ba7f163c4a11628f55a4df523b3ef908290a45050565b610e68848484610b8f565b610e74848484846111dc565b6108b65760405162461bcd60e51b81526004016103f390611b90565b606081610eb557506040805180820190915260018152600360fc1b6020820152610330565b8160005b8115610ecd57600101600a82049150610eb9565b60608167ffffffffffffffff81118015610ee657600080fd5b506040519080825280601f01601f191660200182016040528015610f11576020820181803683370190505b50859350905060001982015b8315610f6257600a840660300160f81b82828060019003935081518110610f4057fe5b60200101906001600160f81b031916908160001a905350600a84049350610f1d565b50949350505050565b600061051b83836112bb565b6000610f81610627565b6001600160a01b0316336001600160a01b031614610fa05750336103c9565b610fa86112d3565b90506103c9565b5490565b600061051b8383611320565b600061051b83836113e6565b6000610cd284846001600160a01b038516611430565b815460009082106110045760405162461bcd60e51b81526004016103f390611b17565b82600001828154811061101357fe5b9060005260206000200154905092915050565b81546000908190831061104b5760405162461bcd60e51b81526004016103f390611e0b565b600084600001848154811061105c57fe5b906000526020600020906002020190508060000154816001015492509250509250929050565b600082815260018401602052604081205482816110b25760405162461bcd60e51b81526004016103f39190611acd565b508460000160018203815481106110c557fe5b9060005260206000209060020201600101549150509392505050565b60007f7fffffffffffffffffffffffffffffff5d576e7357a4501ddfe92f46681b20a08211156111235760405162461bcd60e51b81526004016103f390611c94565b8360ff16601b148061113857508360ff16601c145b6111545760405162461bcd60e51b81526004016103f390611dc9565b6000600186868686604051600081526020016040526040516111799493929190611aaf565b6020604051602081039080840390855afa15801561119b573d6000803e3d6000fd5b5050604051601f1901519150506001600160a01b0381166111ce5760405162461bcd60e51b81526004016103f390611ae0565b95945050505050565b600091565b60006111f0846001600160a01b0316610a74565b6111fc57506001610b87565b6060611284630a85bd0160e11b611211610a87565b8887876040516024016112279493929190611a68565b604051602081830303815290604052906001600160e01b0319166020820180516001600160e01b0383818316178352505050506040518060600160405280603281526020016120e4603291396001600160a01b03881691906114c7565b905060008180602001905181019061129c919061186d565b6001600160e01b031916630a85bd0160e11b1492505050949350505050565b60009081526001919091016020526040902054151590565b600060606000368080601f0160208091040260200160405190810160405280939291908181526020018383808284376000920191909152505050503601516001600160a01b031692915050565b600081815260018301602052604081205480156113dc578354600019808301919081019060009087908390811061135357fe5b906000526020600020015490508087600001848154811061137057fe5b6000918252602080832090910192909255828152600189810190925260409020908401905586548790806113a057fe5b6001900381819060005260206000200160009055905586600101600087815260200190815260200160002060009055600194505050505061051e565b600091505061051e565b60006113f283836112bb565b6114285750815460018181018455600084815260208082209093018490558454848252828601909352604090209190915561051e565b50600061051e565b600082815260018401602052604081205480611495575050604080518082018252838152602080820184815286546001818101895560008981528481209551600290930290950191825591519082015586548684528188019092529290912055610cd5565b828560000160018303815481106114a857fe5b9060005260206000209060020201600101819055506000915050610cd5565b6060610cd28484600085856114db85610a74565b6114f75760405162461bcd60e51b81526004016103f39061203c565b60006060866001600160a01b0316858760405161151491906119d8565b60006040518083038185875af1925050503d8060008114611551576040519150601f19603f3d011682016040523d82523d6000602084013e611556565b606091505b5091509150611566828286611571565b979650505050505050565b60608315611580575081610cd5565b8251156115905782518084602001fd5b8160405162461bcd60e51b81526004016103f39190611acd565b80356001600160a01b038116811461051e57600080fd5b600082601f8301126115d1578081fd5b813567ffffffffffffffff808211156115e8578283fd5b604051601f8301601f191681016020018281118282101715611608578485fd5b60405282815292508284830160200186101561162357600080fd5b8260208601602083013760006020848301015250505092915050565b600060208284031215611650578081fd5b61051b83836115aa565b6000806040838503121561166c578081fd5b61167684846115aa565b915061168584602085016115aa565b90509250929050565b60008060008060008060008060006101208a8c0312156116ac578485fd5b89356116b7816120b8565b98506116c68b60208c016115aa565b975060408a013567ffffffffffffffff808211156116e2578687fd5b6116ee8d838e016115c1565b985060608c0135975060808c0135965060a08c0135955060c08c0135945060e08c013591508082111561171f578384fd5b5061172c8c828d016115c1565b9250506101008a013590509295985092959850929598565b600080600060608486031215611758578283fd5b8335611763816120b8565b92506020840135611773816120b8565b929592945050506040919091013590565b60008060008060808587031215611799578384fd5b6117a386866115aa565b93506117b286602087016115aa565b925060408501359150606085013567ffffffffffffffff8111156117d4578182fd5b6117e0878288016115c1565b91505092959194509250565b600080604083850312156117fe578182fd5b61180884846115aa565b91506020830135801515811461181c578182fd5b809150509250929050565b60008060408385031215611839578182fd5b61184384846115aa565b946020939093013593505050565b600060208284031215611862578081fd5b8135610cd5816120cd565b60006020828403121561187e578081fd5b8151610cd5816120cd565b60006020828403121561189a578081fd5b813567ffffffffffffffff8111156118b0578182fd5b610b87848285016115c1565b600080600080608085870312156118d1578384fd5b843567ffffffffffffffff8111156118e7578485fd5b6118f3878288016115c1565b94505060208501358015158114611908578384fd5b93969395505050506040820135916060013590565b60006020828403121561192e578081fd5b5035919050565b6000815180845261194d81602086016020860161208c565b601f01601f19169290920160200192915050565b60006bffffffffffffffffffffffff19808c60601b168352808b60601b1660148401528951611997816028860160208e0161208c565b909201602881019890985250604887019590955260688601939093526088850191909152606090811b831660a88501521b1660bc82015260d0019392505050565b600082516119ea81846020870161208c565b9190910192915050565b60008351611a0681846020880161208c565b835190830190611a1a81836020880161208c565b01949350505050565b7f19457468657265756d205369676e6564204d6573736167653a0a3332000000008152601c810191909152603c0190565b6001600160a01b0391909116815260200190565b6001600160a01b0385811682528416602082015260408101839052608060608201819052600090610d5390830184611935565b901515815260200190565b90815260200190565b93845260ff9290921660208401526040830152606082015260800190565b60006020825261051b6020830184611935565b60208082526018908201527f45434453413a20696e76616c6964207369676e61747572650000000000000000604082015260600190565b60208082526022908201527f456e756d657261626c655365743a20696e646578206f7574206f6620626f756e604082015261647360f01b606082015260800190565b6020808252601f908201527f45434453413a20696e76616c6964207369676e6174757265206c656e67746800604082015260600190565b60208082526032908201527f4552433732313a207472616e7366657220746f206e6f6e20455243373231526560408201527131b2b4bb32b91034b6b83632b6b2b73a32b960711b606082015260800190565b6020808252601c908201527f4552433732313a20746f6b656e20616c7265616479206d696e74656400000000604082015260600190565b60208082526024908201527f4552433732313a207472616e7366657220746f20746865207a65726f206164646040820152637265737360e01b606082015260800190565b60208082526019908201527f4552433732313a20617070726f766520746f2063616c6c657200000000000000604082015260600190565b60208082526022908201527f45434453413a20696e76616c6964207369676e6174757265202773272076616c604082015261756560f01b606082015260800190565b6020808252602c908201527f4552433732313a206f70657261746f7220717565727920666f72206e6f6e657860408201526b34b9ba32b73a103a37b5b2b760a11b606082015260800190565b60208082526038908201527f4552433732313a20617070726f76652063616c6c6572206973206e6f74206f7760408201527f6e6572206e6f7220617070726f76656420666f7220616c6c0000000000000000606082015260800190565b6020808252602a908201527f4552433732313a2062616c616e636520717565727920666f7220746865207a65604082015269726f206164647265737360b01b606082015260800190565b60208082526022908201527f45434453413a20696e76616c6964207369676e6174757265202776272076616c604082015261756560f01b606082015260800190565b60208082526022908201527f456e756d657261626c654d61703a20696e646578206f7574206f6620626f756e604082015261647360f01b606082015260800190565b6020808252818101527f4552433732313a206d696e7420746f20746865207a65726f2061646472657373604082015260600190565b6020808252602c908201527f4552433732313a20617070726f76656420717565727920666f72206e6f6e657860408201526b34b9ba32b73a103a37b5b2b760a11b606082015260800190565b60208082526029908201527f4552433732313a207472616e73666572206f6620746f6b656e2074686174206960408201526839903737ba1037bbb760b91b606082015260800190565b6020808252602f908201527f4552433732314d657461646174613a2055524920717565727920666f72206e6f60408201526e3732bc34b9ba32b73a103a37b5b2b760891b606082015260800190565b60208082526021908201527f4552433732313a20617070726f76616c20746f2063757272656e74206f776e656040820152603960f91b606082015260800190565b60208082526024908201527f47534e526563697069656e743a2063616c6c6572206973206e6f742052656c616040820152633ca43ab160e11b606082015260800190565b60208082526031908201527f4552433732313a207472616e736665722063616c6c6572206973206e6f74206f6040820152701ddb995c881b9bdc88185c1c1c9bdd9959607a1b606082015260800190565b6020808252601d908201527f416464726573733a2063616c6c20746f206e6f6e2d636f6e7472616374000000604082015260600190565b600083825260406020830152610cd26040830184611935565b60005b838110156120a757818101518382015260200161208f565b838111156108b65750506000910152565b6001600160a01b038116811461078d57600080fd5b6001600160e01b03198116811461078d57600080fdfe4552433732313a207472616e7366657220746f206e6f6e20455243373231526563656976657220696d706c656d656e7465724552433732313a206f776e657220717565727920666f72206e6f6e6578697374656e7420746f6b656ea2646970667358221220d983ed9f4a5aafd21384b7a55b83d829f310ff70bca21bee5f0dacd2e6705a6a64736f6c634300060c0033",
  "linkReferences": {},
  "deployedLinkReferences": {}
}