{
  "_format": "hh-sol-artifact-1",
  "contractName": "ERC721PausableMockUpgradeableWithInit",
  "sourceName": "contracts/contracts-upgradeable-v3_4/mocks/WithInit.sol",
  "abi": [
    {
      "inputs": [
        {
          "internalType": "string",
          "name": "name",
          "type": "string"
        },
        {
          "internalType": "string",
          "name": "symbol",
          "type": "string"
        }
      ],
      "stateMutability": "payable",
      "type": "constructor"
    },
    {
      "anonymous": false,
      "inputs": [
        {
          "indexed": true,
          "internalType": "address",
          "name": "owner",
          "type": "address"
        },
        {
          "indexed": true,
          "internalType": "address",
          "name": "approved",
          "type": "address"
        },
        {
          "indexed": true,
          "internalType": "uint256",
          "name": "tokenId",
          "type": "uint256"
        }
      ],
      "name": "Approval",
      "type": "event"
    },
    {
      "anonymous": false,
      "inputs": [
        {
          "indexed": true,
          "internalType": "address",
          "name": "owner",
          "type": "address"
        },
        {
          "indexed": true,
          "internalType": "address",
          "name": "operator",
          "type": "address"
        },
        {
          "indexed": false,
          "internalType": "bool",
          "name": "approved",
          "type": "bool"
        }
      ],
      "name": "ApprovalForAll",
      "type": "event"
    },
    {
      "anonymous": false,
      "inputs": [
        {
          "indexed": false,
          "internalType": "address",
          "name": "account",
          "type": "address"
        }
      ],
      "name": "Paused",
      "type": "event"
    },
    {
      "anonymous": false,
      "inputs": [
        {
          "indexed": true,
          "internalType": "address",
          "name": "from",
          "type": "address"
        },
        {
          "indexed": true,
          "internalType": "address",
          "name": "to",
          "type": "address"
        },
        {
          "indexed": true,
          "internalType": "uint256",
          "name": "tokenId",
          "type": "uint256"
        }
      ],
      "name": "Transfer",
      "type": "event"
    },
    {
      "anonymous": false,
      "inputs": [
        {
          "indexed": false,
          "internalType": "address",
          "name": "account",
          "type": "address"
        }
      ],
      "name": "Unpaused",
      "type": "event"
    },
    {
      "inputs": [
        {
          "internalType": "address",
          "name": "to",
          "type": "address"
        },
        {
          "internalType": "uint256",
          "name": "tokenId",
          "type": "uint256"
        }
      ],
      "name": "approve",
      "outputs": [],
      "stateMutability": "nonpayable",
      "type": "function"
    },
    {
      "inputs": [
        {
          "internalType": "address",
          "name": "owner",
          "type": "address"
        }
      ],
      "name": "balanceOf",
      "outputs": [
        {
          "internalType": "uint256",
          "name": "",
          "type": "uint256"
        }
      ],
      "stateMutability": "view",
      "type": "function"
    },
    {
      "inputs": [],
      "name": "baseURI",
      "outputs": [
        {
          "internalType": "string",
          "name": "",
          "type": "string"
        }
      ],
      "stateMutability": "view",
      "type": "function"
    },
    {
      "inputs": [
        {
          "internalType": "uint256",
          "name": "tokenId",
          "type": "uint256"
        }
      ],
      "name": "burn",
      "outputs": [],
      "stateMutability": "nonpayable",
      "type": "function"
    },
    {
      "inputs": [
        {
          "internalType": "uint256",
          "name": "tokenId",
          "type": "uint256"
        }
      ],
      "name": "exists",
      "outputs": [
        {
          "internalType": "bool",
          "name": "",
          "type": "bool"
        }
      ],
      "stateMutability": "view",
      "type": "function"
    },
    {
      "inputs": [
        {
          "internalType": "uint256",
          "name": "tokenId",
          "type": "uint256"
        }
      ],
      "name": "getApproved",
      "outputs": [
        {
          "internalType": "address",
          "name": "",
          "type": "address"
        }
      ],
      "stateMutability": "view",
      "type": "function"
    },
    {
      "inputs": [
        {
          "internalType": "address",
          "name": "owner",
          "type": "address"
        },
        {
          "internalType": "address",
          "name": "operator",
          "type": "address"
        }
      ],
      "name": "isApprovedForAll",
      "outputs": [
        {
          "internalType": "bool",
          "name": "",
          "type": "bool"
        }
      ],
      "stateMutability": "view",
      "type": "function"
    },
    {
      "inputs": [
        {
          "internalType": "address",
          "name": "to",
          "type": "address"
        },
        {
          "internalType": "uint256",
          "name": "tokenId",
          "type": "uint256"
        }
      ],
      "name": "mint",
      "outputs": [],
      "stateMutability": "nonpayable",
      "type": "function"
    },
    {
      "inputs": [],
      "name": "name",
      "outputs": [
        {
          "internalType": "string",
          "name": "",
          "type": "string"
        }
      ],
      "stateMutability": "view",
      "type": "function"
    },
    {
      "inputs": [
        {
          "internalType": "uint256",
          "name": "tokenId",
          "type": "uint256"
        }
      ],
      "name": "ownerOf",
      "outputs": [
        {
          "internalType": "address",
          "name": "",
          "type": "address"
        }
      ],
      "stateMutability": "view",
      "type": "function"
    },
    {
      "inputs": [],
      "name": "pause",
      "outputs": [],
      "stateMutability": "nonpayable",
      "type": "function"
    },
    {
      "inputs": [],
      "name": "paused",
      "outputs": [
        {
          "internalType": "bool",
          "name": "",
          "type": "bool"
        }
      ],
      "stateMutability": "view",
      "type": "function"
    },
    {
      "inputs": [
        {
          "internalType": "address",
          "name": "from",
          "type": "address"
        },
        {
          "internalType": "address",
          "name": "to",
          "type": "address"
        },
        {
          "internalType": "uint256",
          "name": "tokenId",
          "type": "uint256"
        }
      ],
      "name": "safeTransferFrom",
      "outputs": [],
      "stateMutability": "nonpayable",
      "type": "function"
    },
    {
      "inputs": [
        {
          "internalType": "address",
          "name": "from",
          "type": "address"
        },
        {
          "internalType": "address",
          "name": "to",
          "type": "address"
        },
        {
          "internalType": "uint256",
          "name": "tokenId",
          "type": "uint256"
        },
        {
          "internalType": "bytes",
          "name": "_data",
          "type": "bytes"
        }
      ],
      "name": "safeTransferFrom",
      "outputs": [],
      "stateMutability": "nonpayable",
      "type": "function"
    },
    {
      "inputs": [
        {
          "internalType": "address",
          "name": "operator",
          "type": "address"
        },
        {
          "internalType": "bool",
          "name": "approved",
          "type": "bool"
        }
      ],
      "name": "setApprovalForAll",
      "outputs": [],
      "stateMutability": "nonpayable",
      "type": "function"
    },
    {
      "inputs": [
        {
          "internalType": "bytes4",
          "name": "interfaceId",
          "type": "bytes4"
        }
      ],
      "name": "supportsInterface",
      "outputs": [
        {
          "internalType": "bool",
          "name": "",
          "type": "bool"
        }
      ],
      "stateMutability": "view",
      "type": "function"
    },
    {
      "inputs": [],
      "name": "symbol",
      "outputs": [
        {
          "internalType": "string",
          "name": "",
          "type": "string"
        }
      ],
      "stateMutability": "view",
      "type": "function"
    },
    {
      "inputs": [
        {
          "internalType": "uint256",
          "name": "index",
          "type": "uint256"
        }
      ],
      "name": "tokenByIndex",
      "outputs": [
        {
          "internalType": "uint256",
          "name": "",
          "type": "uint256"
        }
      ],
      "stateMutability": "view",
      "type": "function"
    },
    {
      "inputs": [
        {
          "internalType": "address",
          "name": "owner",
          "type": "address"
        },
        {
          "internalType": "uint256",
          "name": "index",
          "type": "uint256"
        }
      ],
      "name": "tokenOfOwnerByIndex",
      "outputs": [
        {
          "internalType": "uint256",
          "name": "",
          "type": "uint256"
        }
      ],
      "stateMutability": "view",
      "type": "function"
    },
    {
      "inputs": [
        {
          "internalType": "uint256",
          "name": "tokenId",
          "type": "uint256"
        }
      ],
      "name": "tokenURI",
      "outputs": [
        {
          "internalType": "string",
          "name": "",
          "type": "string"
        }
      ],
      "stateMutability": "view",
      "type": "function"
    },
    {
      "inputs": [],
      "name": "totalSupply",
      "outputs": [
        {
          "internalType": "uint256",
          "name": "",
          "type": "uint256"
        }
      ],
      "stateMutability": "view",
      "type": "function"
    },
    {
      "inputs": [
        {
          "internalType": "address",
          "name": "from",
          "type": "address"
        },
        {
          "internalType": "address",
          "name": "to",
          "type": "address"
        },
        {
          "internalType": "uint256",
          "name": "tokenId",
          "type": "uint256"
        }
      ],
      "name": "transferFrom",
      "outputs": [],
      "stateMutability": "nonpayable",
      "type": "function"
    },
    {
      "inputs": [],
      "name": "unpause",
      "outputs": [],
      "stateMutability": "nonpayable",
      "type": "function"
    }
  ],
  "bytecode": "0x6080604052604051620024eb380380620024eb8339810160408190526200002691620005d7565b6200003282826200003a565b5050620006c3565b600054610100900460ff16806200005657506200005662000111565b8062000065575060005460ff16155b6200008d5760405162461bcd60e51b8152600401620000849062000675565b60405180910390fd5b600054610100900460ff16158015620000b9576000805460ff1961ff0019909116610100171660011790555b620000c36200012f565b620000cd620001bb565b620000d9838362000243565b620000e36200031b565b620000ed6200012f565b620000f98383620003b0565b80156200010c576000805461ff00191690555b505050565b600062000129306200043c60201b6200092f1760201c565b15905090565b600054610100900460ff16806200014b57506200014b62000111565b806200015a575060005460ff16155b620001795760405162461bcd60e51b8152600401620000849062000675565b600054610100900460ff16158015620001a5576000805460ff1961ff0019909116610100171660011790555b8015620001b8576000805461ff00191690555b50565b600054610100900460ff1680620001d75750620001d762000111565b80620001e6575060005460ff16155b620002055760405162461bcd60e51b8152600401620000849062000675565b600054610100900460ff1615801562000231576000805460ff1961ff0019909116610100171660011790555b620001a56301ffc9a760e01b62000442565b600054610100900460ff16806200025f57506200025f62000111565b806200026e575060005460ff16155b6200028d5760405162461bcd60e51b8152600401620000849062000675565b600054610100900460ff16158015620002b9576000805460ff1961ff0019909116610100171660011790555b8251620002ce90606a90602086019062000494565b508151620002e490606b90602085019062000494565b50620002f76380ac58cd60e01b62000442565b62000309635b5e139f60e01b62000442565b620000f963780e9d6360e01b62000442565b600054610100900460ff16806200033757506200033762000111565b8062000346575060005460ff16155b620003655760405162461bcd60e51b8152600401620000849062000675565b600054610100900460ff1615801562000391576000805460ff1961ff0019909116610100171660011790555b6097805460ff191690558015620001b8576000805461ff001916905550565b600054610100900460ff1680620003cc5750620003cc62000111565b80620003db575060005460ff16155b620003fa5760405162461bcd60e51b8152600401620000849062000675565b600054610100900460ff16158015620000f9576000805460ff1961ff00199091166101001716600117905580156200010c576000805461ff0019169055505050565b3b151590565b6001600160e01b031980821614156200046f5760405162461bcd60e51b815260040162000084906200063e565b6001600160e01b0319166000908152603360205260409020805460ff19166001179055565b828054600181600116156101000203166002900490600052602060002090601f016020900481019282601f10620004d757805160ff191683800117855562000507565b8280016001018555821562000507579182015b8281111562000507578251825591602001919060010190620004ea565b506200051592915062000519565b5090565b5b808211156200051557600081556001016200051a565b600082601f83011262000541578081fd5b81516001600160401b038082111562000558578283fd5b6040516020601f8401601f19168201810183811183821017156200057a578586fd5b806040525081945083825286818588010111156200059757600080fd5b600092505b83831015620005bb57858301810151828401820152918201916200059c565b83831115620005cd5760008185840101525b5050505092915050565b60008060408385031215620005ea578182fd5b82516001600160401b038082111562000601578384fd5b6200060f8683870162000530565b9350602085015191508082111562000625578283fd5b50620006348582860162000530565b9150509250929050565b6020808252601c908201527f4552433136353a20696e76616c696420696e7465726661636520696400000000604082015260600190565b6020808252602e908201527f496e697469616c697a61626c653a20636f6e747261637420697320616c72656160408201526d191e481a5b9a5d1a585b1a5e995960921b606082015260800190565b611e1880620006d36000396000f3fe608060405234801561001057600080fd5b506004361061014d5760003560e01c80634f558e79116100c35780638456cb591161007c5780638456cb591461029d57806395d89b41146102a5578063a22cb465146102ad578063b88d4fde146102c0578063c87b56dd146102d3578063e985e9c5146102e65761014d565b80634f558e79146102415780634f6ccce7146102545780635c975abb146102675780636352211e1461026f5780636c0360eb1461028257806370a082311461028a5761014d565b806323b872dd1161011557806323b872dd146101da5780632f745c59146101ed5780633f4ba83a1461020057806340c10f191461020857806342842e0e1461021b57806342966c681461022e5761014d565b806301ffc9a71461015257806306fdde031461017b578063081812fc14610190578063095ea7b3146101b057806318160ddd146101c5575b600080fd5b6101656101603660046116f1565b6102f9565b6040516101729190611809565b60405180910390f35b61018361031c565b6040516101729190611814565b6101a361019e366004611729565b6103b2565b60405161017291906117b8565b6101c36101be3660046116c7565b6103fe565b005b6101cd610496565b6040516101729190611d27565b6101c36101e8366004611586565b6104a7565b6101cd6101fb3660046116c7565b6104df565b6101c361050a565b6101c36102163660046116c7565b610514565b6101c3610229366004611586565b610522565b6101c361023c366004611729565b61053d565b61016561024f366004611729565b610549565b6101cd610262366004611729565b610554565b61016561056a565b6101a361027d366004611729565b610573565b61018361059b565b6101cd610298366004611537565b6105fc565b6101c3610645565b61018361064d565b6101c36102bb36600461168c565b6106ae565b6101c36102ce3660046115c6565b61077c565b6101836102e1366004611729565b6107bb565b6101656102f4366004611552565b610901565b6001600160e01b0319811660009081526033602052604090205460ff165b919050565b606a8054604080516020601f60026000196101006001881615020190951694909404938401819004810282018101909252828152606093909290918301828280156103a85780601f1061037d576101008083540402835291602001916103a8565b820191906000526020600020905b81548152906001019060200180831161038b57829003601f168201915b5050505050905090565b60006103bd82610935565b6103e25760405162461bcd60e51b81526004016103d990611b7a565b60405180910390fd5b506000908152606860205260409020546001600160a01b031690565b600061040982610573565b9050806001600160a01b0316836001600160a01b0316141561043d5760405162461bcd60e51b81526004016103d990611c5e565b806001600160a01b031661044f610942565b6001600160a01b0316148061046b575061046b816102f4610942565b6104875760405162461bcd60e51b81526004016103d990611a5c565b6104918383610946565b505050565b60006104a260666109b4565b905090565b6104b86104b2610942565b826109bf565b6104d45760405162461bcd60e51b81526004016103d990611c9f565b610491838383610a44565b6001600160a01b03821660009081526065602052604081206105019083610b52565b90505b92915050565b610512610b5e565b565b61051e8282610bcc565b5050565b6104918383836040518060200160405280600081525061077c565b61054681610c90565b50565b600061050482610935565b600080610562606684610d5d565b509392505050565b60975460ff1690565b600061050482604051806060016040528060298152602001611dba6029913960669190610d79565b606d8054604080516020601f60026000196101006001881615020190951694909404938401819004810282018101909252828152606093909290918301828280156103a85780601f1061037d576101008083540402835291602001916103a8565b60006001600160a01b0382166106245760405162461bcd60e51b81526004016103d990611ab9565b6001600160a01b0382166000908152606560205260409020610504906109b4565b610512610d90565b606b8054604080516020601f60026000196101006001881615020190951694909404938401819004810282018101909252828152606093909290918301828280156103a85780601f1061037d576101008083540402835291602001916103a8565b6106b6610942565b6001600160a01b0316826001600160a01b031614156106e75760405162461bcd60e51b81526004016103d9906119af565b80606960006106f4610942565b6001600160a01b03908116825260208083019390935260409182016000908120918716808252919093529120805460ff191692151592909217909155610738610942565b6001600160a01b03167f17307eab39ab6107e8899845ad3d59bd9653f200f220920489ca2b5937696c31836040516107709190611809565b60405180910390a35050565b61078d610787610942565b836109bf565b6107a95760405162461bcd60e51b81526004016103d990611c9f565b6107b584848484610deb565b50505050565b60606107c682610935565b6107e25760405162461bcd60e51b81526004016103d990611c0f565b6000828152606c602090815260409182902080548351601f60026000196101006001861615020190931692909204918201849004840281018401909452808452606093928301828280156108775780601f1061084c57610100808354040283529160200191610877565b820191906000526020600020905b81548152906001019060200180831161085a57829003601f168201915b50505050509050606061088861059b565b905080516000141561089c57509050610317565b8151156108ce5780826040516020016108b6929190611789565b60405160208183030381529060405292505050610317565b806108d885610e1e565b6040516020016108e9929190611789565b60405160208183030381529060405292505050919050565b6001600160a01b03918216600090815260696020908152604080832093909416825291909152205460ff1690565b3b151590565b6000610504606683610ef9565b3390565b600081815260686020526040902080546001600160a01b0319166001600160a01b038416908117909155819061097b82610573565b6001600160a01b03167f8c5be1e5ebec7d5bd14f71427d1e84f3dd0314c0f7b2291e5b200ac8c7c3b92560405160405180910390a45050565b600061050482610f05565b60006109ca82610935565b6109e65760405162461bcd60e51b81526004016103d9906119e6565b60006109f183610573565b9050806001600160a01b0316846001600160a01b03161480610a2c5750836001600160a01b0316610a21846103b2565b6001600160a01b0316145b80610a3c5750610a3c8185610901565b949350505050565b826001600160a01b0316610a5782610573565b6001600160a01b031614610a7d5760405162461bcd60e51b81526004016103d990611bc6565b6001600160a01b038216610aa35760405162461bcd60e51b81526004016103d99061196b565b610aae838383610f09565b610ab9600082610946565b6001600160a01b0383166000908152606560205260409020610adb9082610f39565b506001600160a01b0382166000908152606560205260409020610afe9082610f45565b50610b0b60668284610f51565b5080826001600160a01b0316846001600160a01b03167fddf252ad1be2c89b69c2b068fc378daa952ba7f163c4a11628f55a4df523b3ef60405160405180910390a4505050565b60006105018383610f67565b610b6661056a565b610b825760405162461bcd60e51b81526004016103d9906118b4565b6097805460ff191690557f5db9ee0a495bf2e6ff9c91a7834c1ba4fdd244a5e8aa4e537bd38aeae4b073aa610bb5610942565b604051610bc291906117b8565b60405180910390a1565b6001600160a01b038216610bf25760405162461bcd60e51b81526004016103d990611b45565b610bfb81610935565b15610c185760405162461bcd60e51b81526004016103d990611934565b610c2460008383610f09565b6001600160a01b0382166000908152606560205260409020610c469082610f45565b50610c5360668284610f51565b5060405181906001600160a01b038416906000907fddf252ad1be2c89b69c2b068fc378daa952ba7f163c4a11628f55a4df523b3ef908290a45050565b6000610c9b82610573565b9050610ca981600084610f09565b610cb4600083610946565b6000828152606c60205260409020546002600019610100600184161502019091160415610cf2576000828152606c60205260408120610cf2916114c8565b6001600160a01b0381166000908152606560205260409020610d149083610f39565b50610d20606683610fac565b5060405182906000906001600160a01b038416907fddf252ad1be2c89b69c2b068fc378daa952ba7f163c4a11628f55a4df523b3ef908390a45050565b6000808080610d6c8686610fb8565b9097909650945050505050565b6000610d86848484611014565b90505b9392505050565b610d9861056a565b15610db55760405162461bcd60e51b81526004016103d990611a32565b6097805460ff191660011790557f62e78cea01bee320cd4e420270b5ea74000d11b0c9f74754ebdbfc544b05a258610bb5610942565b610df6848484610a44565b610e0284848484611073565b6107b55760405162461bcd60e51b81526004016103d9906118e2565b606081610e4357506040805180820190915260018152600360fc1b6020820152610317565b8160005b8115610e5b57600101600a82049150610e47565b60608167ffffffffffffffff81118015610e7457600080fd5b506040519080825280601f01601f191660200182016040528015610e9f576020820181803683370190505b50859350905060001982015b8315610ef057600a840660300160f81b82828060019003935081518110610ece57fe5b60200101906001600160f81b031916908160001a905350600a84049350610eab565b50949350505050565b60006105018383611152565b5490565b610f14838383610491565b610f1c61056a565b156104915760405162461bcd60e51b81526004016103d990611869565b6000610501838361116a565b60006105018383611230565b6000610d8684846001600160a01b03851661127a565b81546000908210610f8a5760405162461bcd60e51b81526004016103d990611827565b826000018281548110610f9957fe5b9060005260206000200154905092915050565b60006105018383611311565b815460009081908310610fdd5760405162461bcd60e51b81526004016103d990611b03565b6000846000018481548110610fee57fe5b906000526020600020906002020190508060000154816001015492509250509250929050565b600082815260018401602052604081205482816110445760405162461bcd60e51b81526004016103d99190611814565b5084600001600182038154811061105757fe5b9060005260206000209060020201600101549150509392505050565b6000611087846001600160a01b031661092f565b61109357506001610a3c565b606061111b630a85bd0160e11b6110a8610942565b8887876040516024016110be94939291906117cc565b604051602081830303815290604052906001600160e01b0319166020820180516001600160e01b038381831617835250505050604051806060016040528060328152602001611d88603291396001600160a01b03881691906113e5565b9050600081806020019051810190611133919061170d565b6001600160e01b031916630a85bd0160e11b1492505050949350505050565b60009081526001919091016020526040902054151590565b60008181526001830160205260408120548015611226578354600019808301919081019060009087908390811061119d57fe5b90600052602060002001549050808760000184815481106111ba57fe5b6000918252602080832090910192909255828152600189810190925260409020908401905586548790806111ea57fe5b60019003818190600052602060002001600090559055866001016000878152602001908152602001600020600090556001945050505050610504565b6000915050610504565b600061123c8383611152565b61127257508154600181810184556000848152602080822090930184905584548482528286019093526040902091909155610504565b506000610504565b6000828152600184016020526040812054806112df575050604080518082018252838152602080820184815286546001818101895560008981528481209551600290930290950191825591519082015586548684528188019092529290912055610d89565b828560000160018303815481106112f257fe5b9060005260206000209060020201600101819055506000915050610d89565b60008181526001830160205260408120548015611226578354600019808301919081019060009087908390811061134457fe5b906000526020600020906002020190508087600001848154811061136457fe5b6000918252602080832084546002909302019182556001938401549184019190915583548252898301905260409020908401905586548790806113a357fe5b60008281526020808220600260001990940193840201828155600190810183905592909355888152898201909252604082209190915594506105049350505050565b6060610d868484600085856113f98561092f565b6114155760405162461bcd60e51b81526004016103d990611cf0565b60006060866001600160a01b03168587604051611432919061176d565b60006040518083038185875af1925050503d806000811461146f576040519150601f19603f3d011682016040523d82523d6000602084013e611474565b606091505b509150915061148482828661148f565b979650505050505050565b6060831561149e575081610d89565b8251156114ae5782518084602001fd5b8160405162461bcd60e51b81526004016103d99190611814565b50805460018160011615610100020316600290046000825580601f106114ee5750610546565b601f01602090049060005260206000209081019061054691905b8082111561151c5760008155600101611508565b5090565b80356001600160a01b038116811461050457600080fd5b600060208284031215611548578081fd5b6105018383611520565b60008060408385031215611564578081fd5b61156e8484611520565b915061157d8460208501611520565b90509250929050565b60008060006060848603121561159a578081fd5b83356115a581611d5c565b925060208401356115b581611d5c565b929592945050506040919091013590565b600080600080608085870312156115db578081fd5b6115e58686611520565b935060206115f587828801611520565b935060408601359250606086013567ffffffffffffffff80821115611618578384fd5b818801915088601f83011261162b578384fd5b813581811115611639578485fd5b604051601f8201601f1916810185018381118282101715611658578687fd5b60405281815283820185018b101561166e578586fd5b81858501868301379081019093019390935250939692955090935050565b6000806040838503121561169e578182fd5b6116a88484611520565b9150602083013580151581146116bc578182fd5b809150509250929050565b600080604083850312156116d9578182fd5b6116e38484611520565b946020939093013593505050565b600060208284031215611702578081fd5b8135610d8981611d71565b60006020828403121561171e578081fd5b8151610d8981611d71565b60006020828403121561173a578081fd5b5035919050565b60008151808452611759816020860160208601611d30565b601f01601f19169290920160200192915050565b6000825161177f818460208701611d30565b9190910192915050565b6000835161179b818460208801611d30565b8351908301906117af818360208801611d30565b01949350505050565b6001600160a01b0391909116815260200190565b6001600160a01b03858116825284166020820152604081018390526080606082018190526000906117ff90830184611741565b9695505050505050565b901515815260200190565b6000602082526105016020830184611741565b60208082526022908201527f456e756d657261626c655365743a20696e646578206f7574206f6620626f756e604082015261647360f01b606082015260800190565b6020808252602b908201527f4552433732315061757361626c653a20746f6b656e207472616e73666572207760408201526a1a1a5b19481c185d5cd95960aa1b606082015260800190565b60208082526014908201527314185d5cd8589b194e881b9bdd081c185d5cd95960621b604082015260600190565b60208082526032908201527f4552433732313a207472616e7366657220746f206e6f6e20455243373231526560408201527131b2b4bb32b91034b6b83632b6b2b73a32b960711b606082015260800190565b6020808252601c908201527f4552433732313a20746f6b656e20616c7265616479206d696e74656400000000604082015260600190565b60208082526024908201527f4552433732313a207472616e7366657220746f20746865207a65726f206164646040820152637265737360e01b606082015260800190565b60208082526019908201527f4552433732313a20617070726f766520746f2063616c6c657200000000000000604082015260600190565b6020808252602c908201527f4552433732313a206f70657261746f7220717565727920666f72206e6f6e657860408201526b34b9ba32b73a103a37b5b2b760a11b606082015260800190565b60208082526010908201526f14185d5cd8589b194e881c185d5cd95960821b604082015260600190565b60208082526038908201527f4552433732313a20617070726f76652063616c6c6572206973206e6f74206f7760408201527f6e6572206e6f7220617070726f76656420666f7220616c6c0000000000000000606082015260800190565b6020808252602a908201527f4552433732313a2062616c616e636520717565727920666f7220746865207a65604082015269726f206164647265737360b01b606082015260800190565b60208082526022908201527f456e756d657261626c654d61703a20696e646578206f7574206f6620626f756e604082015261647360f01b606082015260800190565b6020808252818101527f4552433732313a206d696e7420746f20746865207a65726f2061646472657373604082015260600190565b6020808252602c908201527f4552433732313a20617070726f76656420717565727920666f72206e6f6e657860408201526b34b9ba32b73a103a37b5b2b760a11b606082015260800190565b60208082526029908201527f4552433732313a207472616e73666572206f6620746f6b656e2074686174206960408201526839903737ba1037bbb760b91b606082015260800190565b6020808252602f908201527f4552433732314d657461646174613a2055524920717565727920666f72206e6f60408201526e3732bc34b9ba32b73a103a37b5b2b760891b606082015260800190565b60208082526021908201527f4552433732313a20617070726f76616c20746f2063757272656e74206f776e656040820152603960f91b606082015260800190565b60208082526031908201527f4552433732313a207472616e736665722063616c6c6572206973206e6f74206f6040820152701ddb995c881b9bdc88185c1c1c9bdd9959607a1b606082015260800190565b6020808252601d908201527f416464726573733a2063616c6c20746f206e6f6e2d636f6e7472616374000000604082015260600190565b90815260200190565b60005b83811015611d4b578181015183820152602001611d33565b838111156107b55750506000910152565b6001600160a01b038116811461054657600080fd5b6001600160e01b03198116811461054657600080fdfe4552433732313a207472616e7366657220746f206e6f6e20455243373231526563656976657220696d706c656d656e7465724552433732313a206f776e657220717565727920666f72206e6f6e6578697374656e7420746f6b656ea2646970667358221220283efb7392584bef6acb25f265a892f16a590b88eb60991067a4b99dd77fa06264736f6c634300060c0033",
  "linkReferences": {},
  "deployedLinkReferences": {}
}