{
  "_format": "hh-sol-artifact-1",
  "contractName": "ERC721PresetMinterPauserAutoIdUpgradeableWithInit",
  "sourceName": "contracts/contracts-upgradeable-v3_4/mocks/WithInit.sol",
  "abi": [
    {
      "inputs": [
        {
          "internalType": "string",
          "name": "name",
          "type": "string"
        },
        {
          "internalType": "string",
          "name": "symbol",
          "type": "string"
        },
        {
          "internalType": "string",
          "name": "baseURI",
          "type": "string"
        }
      ],
      "stateMutability": "payable",
      "type": "constructor"
    },
    {
      "anonymous": false,
      "inputs": [
        {
          "indexed": true,
          "internalType": "address",
          "name": "owner",
          "type": "address"
        },
        {
          "indexed": true,
          "internalType": "address",
          "name": "approved",
          "type": "address"
        },
        {
          "indexed": true,
          "internalType": "uint256",
          "name": "tokenId",
          "type": "uint256"
        }
      ],
      "name": "Approval",
      "type": "event"
    },
    {
      "anonymous": false,
      "inputs": [
        {
          "indexed": true,
          "internalType": "address",
          "name": "owner",
          "type": "address"
        },
        {
          "indexed": true,
          "internalType": "address",
          "name": "operator",
          "type": "address"
        },
        {
          "indexed": false,
          "internalType": "bool",
          "name": "approved",
          "type": "bool"
        }
      ],
      "name": "ApprovalForAll",
      "type": "event"
    },
    {
      "anonymous": false,
      "inputs": [
        {
          "indexed": false,
          "internalType": "address",
          "name": "account",
          "type": "address"
        }
      ],
      "name": "Paused",
      "type": "event"
    },
    {
      "anonymous": false,
      "inputs": [
        {
          "indexed": true,
          "internalType": "bytes32",
          "name": "role",
          "type": "bytes32"
        },
        {
          "indexed": true,
          "internalType": "bytes32",
          "name": "previousAdminRole",
          "type": "bytes32"
        },
        {
          "indexed": true,
          "internalType": "bytes32",
          "name": "newAdminRole",
          "type": "bytes32"
        }
      ],
      "name": "RoleAdminChanged",
      "type": "event"
    },
    {
      "anonymous": false,
      "inputs": [
        {
          "indexed": true,
          "internalType": "bytes32",
          "name": "role",
          "type": "bytes32"
        },
        {
          "indexed": true,
          "internalType": "address",
          "name": "account",
          "type": "address"
        },
        {
          "indexed": true,
          "internalType": "address",
          "name": "sender",
          "type": "address"
        }
      ],
      "name": "RoleGranted",
      "type": "event"
    },
    {
      "anonymous": false,
      "inputs": [
        {
          "indexed": true,
          "internalType": "bytes32",
          "name": "role",
          "type": "bytes32"
        },
        {
          "indexed": true,
          "internalType": "address",
          "name": "account",
          "type": "address"
        },
        {
          "indexed": true,
          "internalType": "address",
          "name": "sender",
          "type": "address"
        }
      ],
      "name": "RoleRevoked",
      "type": "event"
    },
    {
      "anonymous": false,
      "inputs": [
        {
          "indexed": true,
          "internalType": "address",
          "name": "from",
          "type": "address"
        },
        {
          "indexed": true,
          "internalType": "address",
          "name": "to",
          "type": "address"
        },
        {
          "indexed": true,
          "internalType": "uint256",
          "name": "tokenId",
          "type": "uint256"
        }
      ],
      "name": "Transfer",
      "type": "event"
    },
    {
      "anonymous": false,
      "inputs": [
        {
          "indexed": false,
          "internalType": "address",
          "name": "account",
          "type": "address"
        }
      ],
      "name": "Unpaused",
      "type": "event"
    },
    {
      "inputs": [],
      "name": "DEFAULT_ADMIN_ROLE",
      "outputs": [
        {
          "internalType": "bytes32",
          "name": "",
          "type": "bytes32"
        }
      ],
      "stateMutability": "view",
      "type": "function"
    },
    {
      "inputs": [],
      "name": "MINTER_ROLE",
      "outputs": [
        {
          "internalType": "bytes32",
          "name": "",
          "type": "bytes32"
        }
      ],
      "stateMutability": "view",
      "type": "function"
    },
    {
      "inputs": [],
      "name": "PAUSER_ROLE",
      "outputs": [
        {
          "internalType": "bytes32",
          "name": "",
          "type": "bytes32"
        }
      ],
      "stateMutability": "view",
      "type": "function"
    },
    {
      "inputs": [
        {
          "internalType": "address",
          "name": "to",
          "type": "address"
        },
        {
          "internalType": "uint256",
          "name": "tokenId",
          "type": "uint256"
        }
      ],
      "name": "approve",
      "outputs": [],
      "stateMutability": "nonpayable",
      "type": "function"
    },
    {
      "inputs": [
        {
          "internalType": "address",
          "name": "owner",
          "type": "address"
        }
      ],
      "name": "balanceOf",
      "outputs": [
        {
          "internalType": "uint256",
          "name": "",
          "type": "uint256"
        }
      ],
      "stateMutability": "view",
      "type": "function"
    },
    {
      "inputs": [],
      "name": "baseURI",
      "outputs": [
        {
          "internalType": "string",
          "name": "",
          "type": "string"
        }
      ],
      "stateMutability": "view",
      "type": "function"
    },
    {
      "inputs": [
        {
          "internalType": "uint256",
          "name": "tokenId",
          "type": "uint256"
        }
      ],
      "name": "burn",
      "outputs": [],
      "stateMutability": "nonpayable",
      "type": "function"
    },
    {
      "inputs": [
        {
          "internalType": "uint256",
          "name": "tokenId",
          "type": "uint256"
        }
      ],
      "name": "getApproved",
      "outputs": [
        {
          "internalType": "address",
          "name": "",
          "type": "address"
        }
      ],
      "stateMutability": "view",
      "type": "function"
    },
    {
      "inputs": [
        {
          "internalType": "bytes32",
          "name": "role",
          "type": "bytes32"
        }
      ],
      "name": "getRoleAdmin",
      "outputs": [
        {
          "internalType": "bytes32",
          "name": "",
          "type": "bytes32"
        }
      ],
      "stateMutability": "view",
      "type": "function"
    },
    {
      "inputs": [
        {
          "internalType": "bytes32",
          "name": "role",
          "type": "bytes32"
        },
        {
          "internalType": "uint256",
          "name": "index",
          "type": "uint256"
        }
      ],
      "name": "getRoleMember",
      "outputs": [
        {
          "internalType": "address",
          "name": "",
          "type": "address"
        }
      ],
      "stateMutability": "view",
      "type": "function"
    },
    {
      "inputs": [
        {
          "internalType": "bytes32",
          "name": "role",
          "type": "bytes32"
        }
      ],
      "name": "getRoleMemberCount",
      "outputs": [
        {
          "internalType": "uint256",
          "name": "",
          "type": "uint256"
        }
      ],
      "stateMutability": "view",
      "type": "function"
    },
    {
      "inputs": [
        {
          "internalType": "bytes32",
          "name": "role",
          "type": "bytes32"
        },
        {
          "internalType": "address",
          "name": "account",
          "type": "address"
        }
      ],
      "name": "grantRole",
      "outputs": [],
      "stateMutability": "nonpayable",
      "type": "function"
    },
    {
      "inputs": [
        {
          "internalType": "bytes32",
          "name": "role",
          "type": "bytes32"
        },
        {
          "internalType": "address",
          "name": "account",
          "type": "address"
        }
      ],
      "name": "hasRole",
      "outputs": [
        {
          "internalType": "bool",
          "name": "",
          "type": "bool"
        }
      ],
      "stateMutability": "view",
      "type": "function"
    },
    {
      "inputs": [
        {
          "internalType": "string",
          "name": "name",
          "type": "string"
        },
        {
          "internalType": "string",
          "name": "symbol",
          "type": "string"
        },
        {
          "internalType": "string",
          "name": "baseURI",
          "type": "string"
        }
      ],
      "name": "initialize",
      "outputs": [],
      "stateMutability": "nonpayable",
      "type": "function"
    },
    {
      "inputs": [
        {
          "internalType": "address",
          "name": "owner",
          "type": "address"
        },
        {
          "internalType": "address",
          "name": "operator",
          "type": "address"
        }
      ],
      "name": "isApprovedForAll",
      "outputs": [
        {
          "internalType": "bool",
          "name": "",
          "type": "bool"
        }
      ],
      "stateMutability": "view",
      "type": "function"
    },
    {
      "inputs": [
        {
          "internalType": "address",
          "name": "to",
          "type": "address"
        }
      ],
      "name": "mint",
      "outputs": [],
      "stateMutability": "nonpayable",
      "type": "function"
    },
    {
      "inputs": [],
      "name": "name",
      "outputs": [
        {
          "internalType": "string",
          "name": "",
          "type": "string"
        }
      ],
      "stateMutability": "view",
      "type": "function"
    },
    {
      "inputs": [
        {
          "internalType": "uint256",
          "name": "tokenId",
          "type": "uint256"
        }
      ],
      "name": "ownerOf",
      "outputs": [
        {
          "internalType": "address",
          "name": "",
          "type": "address"
        }
      ],
      "stateMutability": "view",
      "type": "function"
    },
    {
      "inputs": [],
      "name": "pause",
      "outputs": [],
      "stateMutability": "nonpayable",
      "type": "function"
    },
    {
      "inputs": [],
      "name": "paused",
      "outputs": [
        {
          "internalType": "bool",
          "name": "",
          "type": "bool"
        }
      ],
      "stateMutability": "view",
      "type": "function"
    },
    {
      "inputs": [
        {
          "internalType": "bytes32",
          "name": "role",
          "type": "bytes32"
        },
        {
          "internalType": "address",
          "name": "account",
          "type": "address"
        }
      ],
      "name": "renounceRole",
      "outputs": [],
      "stateMutability": "nonpayable",
      "type": "function"
    },
    {
      "inputs": [
        {
          "internalType": "bytes32",
          "name": "role",
          "type": "bytes32"
        },
        {
          "internalType": "address",
          "name": "account",
          "type": "address"
        }
      ],
      "name": "revokeRole",
      "outputs": [],
      "stateMutability": "nonpayable",
      "type": "function"
    },
    {
      "inputs": [
        {
          "internalType": "address",
          "name": "from",
          "type": "address"
        },
        {
          "internalType": "address",
          "name": "to",
          "type": "address"
        },
        {
          "internalType": "uint256",
          "name": "tokenId",
          "type": "uint256"
        }
      ],
      "name": "safeTransferFrom",
      "outputs": [],
      "stateMutability": "nonpayable",
      "type": "function"
    },
    {
      "inputs": [
        {
          "internalType": "address",
          "name": "from",
          "type": "address"
        },
        {
          "internalType": "address",
          "name": "to",
          "type": "address"
        },
        {
          "internalType": "uint256",
          "name": "tokenId",
          "type": "uint256"
        },
        {
          "internalType": "bytes",
          "name": "_data",
          "type": "bytes"
        }
      ],
      "name": "safeTransferFrom",
      "outputs": [],
      "stateMutability": "nonpayable",
      "type": "function"
    },
    {
      "inputs": [
        {
          "internalType": "address",
          "name": "operator",
          "type": "address"
        },
        {
          "internalType": "bool",
          "name": "approved",
          "type": "bool"
        }
      ],
      "name": "setApprovalForAll",
      "outputs": [],
      "stateMutability": "nonpayable",
      "type": "function"
    },
    {
      "inputs": [
        {
          "internalType": "bytes4",
          "name": "interfaceId",
          "type": "bytes4"
        }
      ],
      "name": "supportsInterface",
      "outputs": [
        {
          "internalType": "bool",
          "name": "",
          "type": "bool"
        }
      ],
      "stateMutability": "view",
      "type": "function"
    },
    {
      "inputs": [],
      "name": "symbol",
      "outputs": [
        {
          "internalType": "string",
          "name": "",
          "type": "string"
        }
      ],
      "stateMutability": "view",
      "type": "function"
    },
    {
      "inputs": [
        {
          "internalType": "uint256",
          "name": "index",
          "type": "uint256"
        }
      ],
      "name": "tokenByIndex",
      "outputs": [
        {
          "internalType": "uint256",
          "name": "",
          "type": "uint256"
        }
      ],
      "stateMutability": "view",
      "type": "function"
    },
    {
      "inputs": [
        {
          "internalType": "address",
          "name": "owner",
          "type": "address"
        },
        {
          "internalType": "uint256",
          "name": "index",
          "type": "uint256"
        }
      ],
      "name": "tokenOfOwnerByIndex",
      "outputs": [
        {
          "internalType": "uint256",
          "name": "",
          "type": "uint256"
        }
      ],
      "stateMutability": "view",
      "type": "function"
    },
    {
      "inputs": [
        {
          "internalType": "uint256",
          "name": "tokenId",
          "type": "uint256"
        }
      ],
      "name": "tokenURI",
      "outputs": [
        {
          "internalType": "string",
          "name": "",
          "type": "string"
        }
      ],
      "stateMutability": "view",
      "type": "function"
    },
    {
      "inputs": [],
      "name": "totalSupply",
      "outputs": [
        {
          "internalType": "uint256",
          "name": "",
          "type": "uint256"
        }
      ],
      "stateMutability": "view",
      "type": "function"
    },
    {
      "inputs": [
        {
          "internalType": "address",
          "name": "from",
          "type": "address"
        },
        {
          "internalType": "address",
          "name": "to",
          "type": "address"
        },
        {
          "internalType": "uint256",
          "name": "tokenId",
          "type": "uint256"
        }
      ],
      "name": "transferFrom",
      "outputs": [],
      "stateMutability": "nonpayable",
      "type": "function"
    },
    {
      "inputs": [],
      "name": "unpause",
      "outputs": [],
      "stateMutability": "nonpayable",
      "type": "function"
    }
  ],
  "bytecode": "0x6080604052604051620034cc380380620034cc83398101604081905262000026916200079b565b620000338383836200003c565b505050620008ad565b600054610100900460ff16806200005857506200005862000129565b8062000067575060005460ff16155b6200008f5760405162461bcd60e51b815260040162000086906200085f565b60405180910390fd5b600054610100900460ff16158015620000bb576000805460ff1961ff0019909116610100171660011790555b620000c562000147565b620000cf62000147565b620000d9620001d3565b620000e584846200025b565b620000ef62000147565b620000f96200034b565b6200010362000147565b62000110848484620003e0565b801562000123576000805461ff00191690555b50505050565b60006200014130620004d560201b62000d411760201c565b15905090565b600054610100900460ff16806200016357506200016362000129565b8062000172575060005460ff16155b620001915760405162461bcd60e51b815260040162000086906200085f565b600054610100900460ff16158015620001bd576000805460ff1961ff0019909116610100171660011790555b8015620001d0576000805461ff00191690555b50565b600054610100900460ff1680620001ef5750620001ef62000129565b80620001fe575060005460ff16155b6200021d5760405162461bcd60e51b815260040162000086906200085f565b600054610100900460ff1615801562000249576000805460ff1961ff0019909116610100171660011790555b620001bd6301ffc9a760e01b620004db565b600054610100900460ff16806200027757506200027762000129565b8062000286575060005460ff16155b620002a55760405162461bcd60e51b815260040162000086906200085f565b600054610100900460ff16158015620002d1576000805460ff1961ff0019909116610100171660011790555b8251620002e690609c90602086019062000658565b508151620002fc90609d90602085019062000658565b506200030f6380ac58cd60e01b620004db565b62000321635b5e139f60e01b620004db565b6200033363780e9d6360e01b620004db565b801562000346576000805461ff00191690555b505050565b600054610100900460ff16806200036757506200036762000129565b8062000376575060005460ff16155b620003955760405162461bcd60e51b815260040162000086906200085f565b600054610100900460ff16158015620003c1576000805460ff1961ff0019909116610100171660011790555b60fb805460ff191690558015620001d0576000805461ff001916905550565b600054610100900460ff1680620003fc5750620003fc62000129565b806200040b575060005460ff16155b6200042a5760405162461bcd60e51b815260040162000086906200085f565b600054610100900460ff1615801562000456576000805460ff1961ff0019909116610100171660011790555b6200046c6000620004666200052d565b62000531565b6200049b7f9f2df0fed2c77648de5860a4cc508cd0818c85b8b8a1ab4ceeef8d981c8956a6620004666200052d565b620004ca7f65d7a28e3265b37a6474929f336521b332c1681b933f6cb9f3376673440d862a620004666200052d565b620001108262000541565b3b151590565b6001600160e01b03198082161415620005085760405162461bcd60e51b8152600401620000869062000828565b6001600160e01b0319166000908152606560205260409020805460ff19166001179055565b3390565b6200053d828262000556565b5050565b80516200053d90609f90602084019062000658565b60008281526033602090815260409091206200057d91839062000d47620005d1821b17901c565b156200053d576200058d6200052d565b6001600160a01b0316816001600160a01b0316837f2f8788117e7eff1d82e926ec794901d17c78024a50270940304540a733656f0d60405160405180910390a45050565b6000620005e8836001600160a01b038416620005f1565b90505b92915050565b6000620005ff838362000640565b6200063757508154600181810184556000848152602080822090930184905584548482528286019093526040902091909155620005eb565b506000620005eb565b60009081526001919091016020526040902054151590565b828054600181600116156101000203166002900490600052602060002090601f016020900481019282601f106200069b57805160ff1916838001178555620006cb565b82800160010185558215620006cb579182015b82811115620006cb578251825591602001919060010190620006ae565b50620006d9929150620006dd565b5090565b5b80821115620006d95760008155600101620006de565b600082601f83011262000705578081fd5b81516001600160401b03808211156200071c578283fd5b6040516020601f8401601f19168201810183811183821017156200073e578586fd5b806040525081945083825286818588010111156200075b57600080fd5b600092505b838310156200077f578583018101518284018201529182019162000760565b83831115620007915760008185840101525b5050505092915050565b600080600060608486031215620007b0578283fd5b83516001600160401b0380821115620007c7578485fd5b620007d587838801620006f4565b94506020860151915080821115620007eb578384fd5b620007f987838801620006f4565b935060408601519150808211156200080f578283fd5b506200081e86828701620006f4565b9150509250925092565b6020808252601c908201527f4552433136353a20696e76616c696420696e7465726661636520696400000000604082015260600190565b6020808252602e908201527f496e697469616c697a61626c653a20636f6e747261637420697320616c72656160408201526d191e481a5b9a5d1a585b1a5e995960921b606082015260800190565b612c0f80620008bd6000396000f3fe608060405234801561001057600080fd5b50600436106101fb5760003560e01c80636a6278421161011a578063a22cb465116100ad578063ca15c8731161007c578063ca15c873146103fb578063d53913931461040e578063d547741f14610416578063e63ab1e914610429578063e985e9c514610431576101fb565b8063a22cb465146103af578063a6487c53146103c2578063b88d4fde146103d5578063c87b56dd146103e8576101fb565b80639010d07c116100e95780639010d07c1461037957806391d148541461038c57806395d89b411461039f578063a217fddf146103a7576101fb565b80636a627842146103435780636c0360eb1461035657806370a082311461035e5780638456cb5914610371576101fb565b80632f745c591161019257806342966c681161016157806342966c68146103025780634f6ccce7146103155780635c975abb146103285780636352211e14610330576101fb565b80632f745c59146102c157806336568abe146102d45780633f4ba83a146102e757806342842e0e146102ef576101fb565b806318160ddd116101ce57806318160ddd1461027357806323b872dd14610288578063248a9ca31461029b5780632f2ff15d146102ae576101fb565b806301ffc9a71461020057806306fdde0314610229578063081812fc1461023e578063095ea7b31461025e575b600080fd5b61021361020e366004612181565b610444565b6040516102209190612305565b60405180910390f35b610231610467565b6040516102209190612319565b61025161024c366004612124565b6104fd565b60405161022091906122b4565b61027161026c3660046120fa565b610549565b005b61027b6105e1565b6040516102209190612310565b610271610296366004612017565b6105f2565b61027b6102a9366004612124565b61062a565b6102716102bc36600461213c565b61063f565b61027b6102cf3660046120fa565b610687565b6102716102e236600461213c565b6106b2565b6102716106f4565b6102716102fd366004612017565b610734565b610271610310366004612124565b61074f565b61027b610323366004612124565b610782565b610213610798565b61025161033e366004612124565b6107a1565b610271610351366004611fc8565b6107c9565b610231610830565b61027b61036c366004611fc8565b610891565b6102716108da565b610251610387366004612160565b610918565b61021361039a36600461213c565b610930565b610231610948565b61027b6109a9565b6102716103bd3660046120bf565b6109ae565b6102716103d03660046121b9565b610a7c565b6102716103e3366004612057565b610b0d565b6102316103f6366004612124565b610b46565b61027b610409366004612124565b610c8c565b61027b610ca3565b61027161042436600461213c565b610cc7565b61027b610d01565b61021361043f366004611fe3565b610d13565b6001600160e01b0319811660009081526065602052604090205460ff165b919050565b609c8054604080516020601f60026000196101006001881615020190951694909404938401819004810282018101909252828152606093909290918301828280156104f35780601f106104c8576101008083540402835291602001916104f3565b820191906000526020600020905b8154815290600101906020018083116104d657829003601f168201915b5050505050905090565b600061050882610d5c565b61052d5760405162461bcd60e51b815260040161052490612800565b60405180910390fd5b506000908152609a60205260409020546001600160a01b031690565b6000610554826107a1565b9050806001600160a01b0316836001600160a01b031614156105885760405162461bcd60e51b8152600401610524906128e4565b806001600160a01b031661059a610d69565b6001600160a01b031614806105b657506105b68161043f610d69565b6105d25760405162461bcd60e51b815260040161052490612694565b6105dc8383610d6d565b505050565b60006105ed6098610ddb565b905090565b6106036105fd610d69565b82610de6565b61061f5760405162461bcd60e51b815260040161052490612925565b6105dc838383610e6b565b60009081526033602052604090206002015490565b60008281526033602052604090206002015461065d9061039a610d69565b6106795760405162461bcd60e51b8152600401610524906123b9565b6106838282610f79565b5050565b6001600160a01b03821660009081526097602052604081206106a99083610fe2565b90505b92915050565b6106ba610d69565b6001600160a01b0316816001600160a01b0316146106ea5760405162461bcd60e51b815260040161052490612ab8565b6106838282610fee565b61070e600080516020612bba83398151915261039a610d69565b61072a5760405162461bcd60e51b815260040161052490612a5a565b610732611057565b565b6105dc83838360405180602001604052806000815250610b0d565b61075a6105fd610d69565b6107765760405162461bcd60e51b815260040161052490612a0a565b61077f816110c5565b50565b600080610790609884611192565b509392505050565b60fb5460ff1690565b60006106ac82604051806060016040528060298152602001612b9160299139609891906111ae565b6107f57f9f2df0fed2c77648de5860a4cc508cd0818c85b8b8a1ab4ceeef8d981c8956a661039a610d69565b6108115760405162461bcd60e51b8152600401610524906129ad565b6108258161082061015f6111c5565b6111c9565b61077f61015f61128d565b609f8054604080516020601f60026000196101006001881615020190951694909404938401819004810282018101909252828152606093909290918301828280156104f35780601f106104c8576101008083540402835291602001916104f3565b60006001600160a01b0382166108b95760405162461bcd60e51b8152600401610524906126f1565b6001600160a01b03821660009081526097602052604090206106ac90610ddb565b6108f4600080516020612bba83398151915261039a610d69565b6109105760405162461bcd60e51b8152600401610524906124f6565b610732611296565b60008281526033602052604081206106a99083610fe2565b60008281526033602052604081206106a990836112f1565b609d8054604080516020601f60026000196101006001881615020190951694909404938401819004810282018101909252828152606093909290918301828280156104f35780601f106104c8576101008083540402835291602001916104f3565b600081565b6109b6610d69565b6001600160a01b0316826001600160a01b031614156109e75760405162461bcd60e51b815260040161052490612597565b80609b60006109f4610d69565b6001600160a01b03908116825260208083019390935260409182016000908120918716808252919093529120805460ff191692151592909217909155610a38610d69565b6001600160a01b03167f17307eab39ab6107e8899845ad3d59bd9653f200f220920489ca2b5937696c3183604051610a709190612305565b60405180910390a35050565b600054610100900460ff1680610a955750610a95611306565b80610aa3575060005460ff16155b610abf5760405162461bcd60e51b81526004016105249061273b565b600054610100900460ff16158015610aea576000805460ff1961ff0019909116610100171660011790555b610af5848484611317565b8015610b07576000805461ff00191690555b50505050565b610b1e610b18610d69565b83610de6565b610b3a5760405162461bcd60e51b815260040161052490612925565b610b07848484846113ca565b6060610b5182610d5c565b610b6d5760405162461bcd60e51b815260040161052490612895565b6000828152609e602090815260409182902080548351601f6002600019610100600186161502019093169290920491820184900484028101840190945280845260609392830182828015610c025780601f10610bd757610100808354040283529160200191610c02565b820191906000526020600020905b815481529060010190602001808311610be557829003601f168201915b505050505090506060610c13610830565b9050805160001415610c2757509050610462565b815115610c59578082604051602001610c41929190612285565b60405160208183030381529060405292505050610462565b80610c63856113fd565b604051602001610c74929190612285565b60405160208183030381529060405292505050919050565b60008181526033602052604081206106ac90610ddb565b7f9f2df0fed2c77648de5860a4cc508cd0818c85b8b8a1ab4ceeef8d981c8956a681565b600082815260336020526040902060020154610ce59061039a610d69565b6106ea5760405162461bcd60e51b81526004016105249061261a565b600080516020612bba83398151915281565b6001600160a01b039182166000908152609b6020908152604080832093909416825291909152205460ff1690565b3b151590565b60006106a9836001600160a01b0384166114d8565b60006106ac609883611522565b3390565b6000818152609a6020526040902080546001600160a01b0319166001600160a01b0384169081179091558190610da2826107a1565b6001600160a01b03167f8c5be1e5ebec7d5bd14f71427d1e84f3dd0314c0f7b2291e5b200ac8c7c3b92560405160405180910390a45050565b60006106ac826111c5565b6000610df182610d5c565b610e0d5760405162461bcd60e51b8152600401610524906125ce565b6000610e18836107a1565b9050806001600160a01b0316846001600160a01b03161480610e535750836001600160a01b0316610e48846104fd565b6001600160a01b0316145b80610e635750610e638185610d13565b949350505050565b826001600160a01b0316610e7e826107a1565b6001600160a01b031614610ea45760405162461bcd60e51b81526004016105249061284c565b6001600160a01b038216610eca5760405162461bcd60e51b815260040161052490612553565b610ed583838361152e565b610ee0600082610d6d565b6001600160a01b0383166000908152609760205260409020610f029082611539565b506001600160a01b0382166000908152609760205260409020610f259082611545565b50610f3260988284611551565b5080826001600160a01b0316846001600160a01b03167fddf252ad1be2c89b69c2b068fc378daa952ba7f163c4a11628f55a4df523b3ef60405160405180910390a4505050565b6000828152603360205260409020610f919082610d47565b1561068357610f9e610d69565b6001600160a01b0316816001600160a01b0316837f2f8788117e7eff1d82e926ec794901d17c78024a50270940304540a733656f0d60405160405180910390a45050565b60006106a98383611567565b600082815260336020526040902061100690826115ac565b1561068357611013610d69565b6001600160a01b0316816001600160a01b0316837ff6391f5c32d9c69d2a47ea670b442974b53935d1edc7fd64eb21e047a839171b60405160405180910390a45050565b61105f610798565b61107b5760405162461bcd60e51b815260040161052490612408565b60fb805460ff191690557f5db9ee0a495bf2e6ff9c91a7834c1ba4fdd244a5e8aa4e537bd38aeae4b073aa6110ae610d69565b6040516110bb91906122b4565b60405180910390a1565b60006110d0826107a1565b90506110de8160008461152e565b6110e9600083610d6d565b6000828152609e60205260409020546002600019610100600184161502019091160415611127576000828152609e6020526040812061112791611e5c565b6001600160a01b03811660009081526097602052604090206111499083611539565b506111556098836115c1565b5060405182906000906001600160a01b038416907fddf252ad1be2c89b69c2b068fc378daa952ba7f163c4a11628f55a4df523b3ef908390a45050565b60008080806111a186866115cd565b9097909650945050505050565b60006111bb848484611629565b90505b9392505050565b5490565b6001600160a01b0382166111ef5760405162461bcd60e51b8152600401610524906127cb565b6111f881610d5c565b156112155760405162461bcd60e51b8152600401610524906124bf565b6112216000838361152e565b6001600160a01b03821660009081526097602052604090206112439082611545565b5061125060988284611551565b5060405181906001600160a01b038416906000907fddf252ad1be2c89b69c2b068fc378daa952ba7f163c4a11628f55a4df523b3ef908290a45050565b80546001019055565b61129e610798565b156112bb5760405162461bcd60e51b81526004016105249061266a565b60fb805460ff191660011790557f62e78cea01bee320cd4e420270b5ea74000d11b0c9f74754ebdbfc544b05a2586110ae610d69565b60006106a9836001600160a01b038416611688565b600061131130610d41565b15905090565b600054610100900460ff16806113305750611330611306565b8061133e575060005460ff16155b61135a5760405162461bcd60e51b81526004016105249061273b565b600054610100900460ff16158015611385576000805460ff1961ff0019909116610100171660011790555b61138d6116a0565b6113956116a0565b61139d611722565b6113a784846117a0565b6113af6116a0565b6113b761187c565b6113bf6116a0565b610af5848484611908565b6113d5848484610e6b565b6113e1848484846119d7565b610b075760405162461bcd60e51b815260040161052490612436565b60608161142257506040805180820190915260018152600360fc1b6020820152610462565b8160005b811561143a57600101600a82049150611426565b60608167ffffffffffffffff8111801561145357600080fd5b506040519080825280601f01601f19166020018201604052801561147e576020820181803683370190505b50859350905060001982015b83156114cf57600a840660300160f81b828280600190039350815181106114ad57fe5b60200101906001600160f81b031916908160001a905350600a8404935061148a565b50949350505050565b60006114e48383611688565b61151a575081546001818101845560008481526020808220909301849055845484825282860190935260409020919091556106ac565b5060006106ac565b60006106a98383611688565b6105dc838383611ab6565b60006106a98383611ae6565b60006106a983836114d8565b60006111bb84846001600160a01b038516611bac565b8154600090821061158a5760405162461bcd60e51b81526004016105249061232c565b82600001828154811061159957fe5b9060005260206000200154905092915050565b60006106a9836001600160a01b038416611ae6565b60006106a98383611c43565b8154600090819083106115f25760405162461bcd60e51b815260040161052490612789565b600084600001848154811061160357fe5b906000526020600020906002020190508060000154816001015492509250509250929050565b600082815260018401602052604081205482816116595760405162461bcd60e51b81526004016105249190612319565b5084600001600182038154811061166c57fe5b9060005260206000209060020201600101549150509392505050565b60009081526001919091016020526040902054151590565b600054610100900460ff16806116b957506116b9611306565b806116c7575060005460ff16155b6116e35760405162461bcd60e51b81526004016105249061273b565b600054610100900460ff1615801561170e576000805460ff1961ff0019909116610100171660011790555b801561077f576000805461ff001916905550565b600054610100900460ff168061173b575061173b611306565b80611749575060005460ff16155b6117655760405162461bcd60e51b81526004016105249061273b565b600054610100900460ff16158015611790576000805460ff1961ff0019909116610100171660011790555b61170e6301ffc9a760e01b611d17565b600054610100900460ff16806117b957506117b9611306565b806117c7575060005460ff16155b6117e35760405162461bcd60e51b81526004016105249061273b565b600054610100900460ff1615801561180e576000805460ff1961ff0019909116610100171660011790555b825161182190609c906020860190611ea0565b50815161183590609d906020850190611ea0565b506118466380ac58cd60e01b611d17565b611856635b5e139f60e01b611d17565b61186663780e9d6360e01b611d17565b80156105dc576000805461ff0019169055505050565b600054610100900460ff16806118955750611895611306565b806118a3575060005460ff16155b6118bf5760405162461bcd60e51b81526004016105249061273b565b600054610100900460ff161580156118ea576000805460ff1961ff0019909116610100171660011790555b60fb805460ff19169055801561077f576000805461ff001916905550565b600054610100900460ff16806119215750611921611306565b8061192f575060005460ff16155b61194b5760405162461bcd60e51b81526004016105249061273b565b600054610100900460ff16158015611976576000805460ff1961ff0019909116610100171660011790555b6119886000611983610d69565b610679565b6119b47f9f2df0fed2c77648de5860a4cc508cd0818c85b8b8a1ab4ceeef8d981c8956a6611983610d69565b6119ce600080516020612bba833981519152611983610d69565b610af582611d66565b60006119eb846001600160a01b0316610d41565b6119f757506001610e63565b6060611a7f630a85bd0160e11b611a0c610d69565b888787604051602401611a2294939291906122c8565b604051602081830303815290604052906001600160e01b0319166020820180516001600160e01b038381831617835250505050604051806060016040528060328152602001612b5f603291396001600160a01b0388169190611d79565b9050600081806020019051810190611a97919061219d565b6001600160e01b031916630a85bd0160e11b1492505050949350505050565b611ac18383836105dc565b611ac9610798565b156105dc5760405162461bcd60e51b81526004016105249061236e565b60008181526001830160205260408120548015611ba25783546000198083019190810190600090879083908110611b1957fe5b9060005260206000200154905080876000018481548110611b3657fe5b600091825260208083209091019290925582815260018981019092526040902090840190558654879080611b6657fe5b600190038181906000526020600020016000905590558660010160008781526020019081526020016000206000905560019450505050506106ac565b60009150506106ac565b600082815260018401602052604081205480611c115750506040805180820182528381526020808201848152865460018181018955600089815284812095516002909302909501918255915190820155865486845281880190925292909120556111be565b82856000016001830381548110611c2457fe5b90600052602060002090600202016001018190555060009150506111be565b60008181526001830160205260408120548015611ba25783546000198083019190810190600090879083908110611c7657fe5b9060005260206000209060020201905080876000018481548110611c9657fe5b600091825260208083208454600290930201918255600193840154918401919091558354825289830190526040902090840190558654879080611cd557fe5b60008281526020808220600260001990940193840201828155600190810183905592909355888152898201909252604082209190915594506106ac9350505050565b6001600160e01b03198082161415611d415760405162461bcd60e51b815260040161052490612488565b6001600160e01b0319166000908152606560205260409020805460ff19166001179055565b805161068390609f906020840190611ea0565b60606111bb848460008585611d8d85610d41565b611da95760405162461bcd60e51b815260040161052490612976565b60006060866001600160a01b03168587604051611dc69190612269565b60006040518083038185875af1925050503d8060008114611e03576040519150601f19603f3d011682016040523d82523d6000602084013e611e08565b606091505b5091509150611e18828286611e23565b979650505050505050565b60608315611e325750816111be565b825115611e425782518084602001fd5b8160405162461bcd60e51b81526004016105249190612319565b50805460018160011615610100020316600290046000825580601f10611e82575061077f565b601f01602090049060005260206000209081019061077f9190611f1e565b828054600181600116156101000203166002900490600052602060002090601f016020900481019282601f10611ee157805160ff1916838001178555611f0e565b82800160010185558215611f0e579182015b82811115611f0e578251825591602001919060010190611ef3565b50611f1a929150611f1e565b5090565b5b80821115611f1a5760008155600101611f1f565b80356001600160a01b03811681146106ac57600080fd5b600082601f830112611f5a578081fd5b813567ffffffffffffffff80821115611f71578283fd5b604051601f8301601f191681016020018281118282101715611f91578485fd5b604052828152925082848301602001861015611fac57600080fd5b8260208601602083013760006020848301015250505092915050565b600060208284031215611fd9578081fd5b6106a98383611f33565b60008060408385031215611ff5578081fd5b611fff8484611f33565b915061200e8460208501611f33565b90509250929050565b60008060006060848603121561202b578081fd5b833561203681612b33565b9250602084013561204681612b33565b929592945050506040919091013590565b6000806000806080858703121561206c578081fd5b6120768686611f33565b93506120858660208701611f33565b925060408501359150606085013567ffffffffffffffff8111156120a7578182fd5b6120b387828801611f4a565b91505092959194509250565b600080604083850312156120d1578182fd5b6120db8484611f33565b9150602083013580151581146120ef578182fd5b809150509250929050565b6000806040838503121561210c578182fd5b6121168484611f33565b946020939093013593505050565b600060208284031215612135578081fd5b5035919050565b6000806040838503121561214e578182fd5b8235915060208301356120ef81612b33565b60008060408385031215612172578182fd5b50508035926020909101359150565b600060208284031215612192578081fd5b81356111be81612b48565b6000602082840312156121ae578081fd5b81516111be81612b48565b6000806000606084860312156121cd578283fd5b833567ffffffffffffffff808211156121e4578485fd5b6121f087838801611f4a565b94506020860135915080821115612205578384fd5b61221187838801611f4a565b93506040860135915080821115612226578283fd5b5061223386828701611f4a565b9150509250925092565b60008151808452612255816020860160208601612b07565b601f01601f19169290920160200192915050565b6000825161227b818460208701612b07565b9190910192915050565b60008351612297818460208801612b07565b8351908301906122ab818360208801612b07565b01949350505050565b6001600160a01b0391909116815260200190565b6001600160a01b03858116825284166020820152604081018390526080606082018190526000906122fb9083018461223d565b9695505050505050565b901515815260200190565b90815260200190565b6000602082526106a9602083018461223d565b60208082526022908201527f456e756d657261626c655365743a20696e646578206f7574206f6620626f756e604082015261647360f01b606082015260800190565b6020808252602b908201527f4552433732315061757361626c653a20746f6b656e207472616e73666572207760408201526a1a1a5b19481c185d5cd95960aa1b606082015260800190565b6020808252602f908201527f416363657373436f6e74726f6c3a2073656e646572206d75737420626520616e60408201526e0818591b5a5b881d1bc819dc985b9d608a1b606082015260800190565b60208082526014908201527314185d5cd8589b194e881b9bdd081c185d5cd95960621b604082015260600190565b60208082526032908201527f4552433732313a207472616e7366657220746f206e6f6e20455243373231526560408201527131b2b4bb32b91034b6b83632b6b2b73a32b960711b606082015260800190565b6020808252601c908201527f4552433136353a20696e76616c696420696e7465726661636520696400000000604082015260600190565b6020808252601c908201527f4552433732313a20746f6b656e20616c7265616479206d696e74656400000000604082015260600190565b6020808252603e908201527f4552433732315072657365744d696e7465725061757365724175746f49643a2060408201527f6d75737420686176652070617573657220726f6c6520746f2070617573650000606082015260800190565b60208082526024908201527f4552433732313a207472616e7366657220746f20746865207a65726f206164646040820152637265737360e01b606082015260800190565b60208082526019908201527f4552433732313a20617070726f766520746f2063616c6c657200000000000000604082015260600190565b6020808252602c908201527f4552433732313a206f70657261746f7220717565727920666f72206e6f6e657860408201526b34b9ba32b73a103a37b5b2b760a11b606082015260800190565b60208082526030908201527f416363657373436f6e74726f6c3a2073656e646572206d75737420626520616e60408201526f2061646d696e20746f207265766f6b6560801b606082015260800190565b60208082526010908201526f14185d5cd8589b194e881c185d5cd95960821b604082015260600190565b60208082526038908201527f4552433732313a20617070726f76652063616c6c6572206973206e6f74206f7760408201527f6e6572206e6f7220617070726f76656420666f7220616c6c0000000000000000606082015260800190565b6020808252602a908201527f4552433732313a2062616c616e636520717565727920666f7220746865207a65604082015269726f206164647265737360b01b606082015260800190565b6020808252602e908201527f496e697469616c697a61626c653a20636f6e747261637420697320616c72656160408201526d191e481a5b9a5d1a585b1a5e995960921b606082015260800190565b60208082526022908201527f456e756d657261626c654d61703a20696e646578206f7574206f6620626f756e604082015261647360f01b606082015260800190565b6020808252818101527f4552433732313a206d696e7420746f20746865207a65726f2061646472657373604082015260600190565b6020808252602c908201527f4552433732313a20617070726f76656420717565727920666f72206e6f6e657860408201526b34b9ba32b73a103a37b5b2b760a11b606082015260800190565b60208082526029908201527f4552433732313a207472616e73666572206f6620746f6b656e2074686174206960408201526839903737ba1037bbb760b91b606082015260800190565b6020808252602f908201527f4552433732314d657461646174613a2055524920717565727920666f72206e6f60408201526e3732bc34b9ba32b73a103a37b5b2b760891b606082015260800190565b60208082526021908201527f4552433732313a20617070726f76616c20746f2063757272656e74206f776e656040820152603960f91b606082015260800190565b60208082526031908201527f4552433732313a207472616e736665722063616c6c6572206973206e6f74206f6040820152701ddb995c881b9bdc88185c1c1c9bdd9959607a1b606082015260800190565b6020808252601d908201527f416464726573733a2063616c6c20746f206e6f6e2d636f6e7472616374000000604082015260600190565b6020808252603d908201527f4552433732315072657365744d696e7465725061757365724175746f49643a2060408201527f6d7573742068617665206d696e74657220726f6c6520746f206d696e74000000606082015260800190565b60208082526030908201527f4552433732314275726e61626c653a2063616c6c6572206973206e6f74206f7760408201526f1b995c881b9bdc88185c1c1c9bdd995960821b606082015260800190565b602080825260409082018190527f4552433732315072657365744d696e7465725061757365724175746f49643a20908201527f6d75737420686176652070617573657220726f6c6520746f20756e7061757365606082015260800190565b6020808252602f908201527f416363657373436f6e74726f6c3a2063616e206f6e6c792072656e6f756e636560408201526e103937b632b9903337b91039b2b63360891b606082015260800190565b60005b83811015612b22578181015183820152602001612b0a565b83811115610b075750506000910152565b6001600160a01b038116811461077f57600080fd5b6001600160e01b03198116811461077f57600080fdfe4552433732313a207472616e7366657220746f206e6f6e20455243373231526563656976657220696d706c656d656e7465724552433732313a206f776e657220717565727920666f72206e6f6e6578697374656e7420746f6b656e65d7a28e3265b37a6474929f336521b332c1681b933f6cb9f3376673440d862aa264697066735822122031e1fc2ebad776d27edec08203f6f3d07b313444fbfc2b8ee49585f0eabfe83f64736f6c634300060c0033",
  "linkReferences": {},
  "deployedLinkReferences": {}
}