{
  "_format": "hh-sol-artifact-1",
  "contractName": "EscrowUpgradeableWithInit",
  "sourceName": "contracts/contracts-upgradeable-v3_4/mocks/WithInit.sol",
  "abi": [
    {
      "inputs": [],
      "stateMutability": "payable",
      "type": "constructor"
    },
    {
      "anonymous": false,
      "inputs": [
        {
          "indexed": true,
          "internalType": "address",
          "name": "payee",
          "type": "address"
        },
        {
          "indexed": false,
          "internalType": "uint256",
          "name": "weiAmount",
          "type": "uint256"
        }
      ],
      "name": "Deposited",
      "type": "event"
    },
    {
      "anonymous": false,
      "inputs": [
        {
          "indexed": true,
          "internalType": "address",
          "name": "previousOwner",
          "type": "address"
        },
        {
          "indexed": true,
          "internalType": "address",
          "name": "newOwner",
          "type": "address"
        }
      ],
      "name": "OwnershipTransferred",
      "type": "event"
    },
    {
      "anonymous": false,
      "inputs": [
        {
          "indexed": true,
          "internalType": "address",
          "name": "payee",
          "type": "address"
        },
        {
          "indexed": false,
          "internalType": "uint256",
          "name": "weiAmount",
          "type": "uint256"
        }
      ],
      "name": "Withdrawn",
      "type": "event"
    },
    {
      "inputs": [
        {
          "internalType": "address",
          "name": "payee",
          "type": "address"
        }
      ],
      "name": "deposit",
      "outputs": [],
      "stateMutability": "payable",
      "type": "function"
    },
    {
      "inputs": [
        {
          "internalType": "address",
          "name": "payee",
          "type": "address"
        }
      ],
      "name": "depositsOf",
      "outputs": [
        {
          "internalType": "uint256",
          "name": "",
          "type": "uint256"
        }
      ],
      "stateMutability": "view",
      "type": "function"
    },
    {
      "inputs": [],
      "name": "initialize",
      "outputs": [],
      "stateMutability": "nonpayable",
      "type": "function"
    },
    {
      "inputs": [],
      "name": "owner",
      "outputs": [
        {
          "internalType": "address",
          "name": "",
          "type": "address"
        }
      ],
      "stateMutability": "view",
      "type": "function"
    },
    {
      "inputs": [],
      "name": "renounceOwnership",
      "outputs": [],
      "stateMutability": "nonpayable",
      "type": "function"
    },
    {
      "inputs": [
        {
          "internalType": "address",
          "name": "newOwner",
          "type": "address"
        }
      ],
      "name": "transferOwnership",
      "outputs": [],
      "stateMutability": "nonpayable",
      "type": "function"
    },
    {
      "inputs": [
        {
          "internalType": "address payable",
          "name": "payee",
          "type": "address"
        }
      ],
      "name": "withdraw",
      "outputs": [],
      "stateMutability": "nonpayable",
      "type": "function"
    }
  ],
  "bytecode": "0x60806040526200000e62000014565b620002ac565b600054610100900460ff168062000030575062000030620000c7565b806200003f575060005460ff16155b620000675760405162461bcd60e51b81526004016200005e906200025e565b60405180910390fd5b600054610100900460ff1615801562000093576000805460ff1961ff0019909116610100171660011790555b6200009d620000e5565b620000a76200016f565b620000b1620000e5565b8015620000c4576000805461ff00191690555b50565b6000620000df306200025460201b620004b11760201c565b15905090565b600054610100900460ff168062000101575062000101620000c7565b8062000110575060005460ff16155b6200012f5760405162461bcd60e51b81526004016200005e906200025e565b600054610100900460ff16158015620000b1576000805460ff1961ff0019909116610100171660011790558015620000c4576000805461ff001916905550565b600054610100900460ff16806200018b57506200018b620000c7565b806200019a575060005460ff16155b620001b95760405162461bcd60e51b81526004016200005e906200025e565b600054610100900460ff16158015620001e5576000805460ff1961ff0019909116610100171660011790555b6000620001f16200025a565b603380546001600160a01b0319166001600160a01b038316908117909155604051919250906000907f8be0079c531659141344cd1fd0a4f28419497f9722a3daafe3b4186f6b6457e0908290a3508015620000c4576000805461ff001916905550565b3b151590565b3390565b6020808252602e908201527f496e697469616c697a61626c653a20636f6e747261637420697320616c72656160408201526d191e481a5b9a5d1a585b1a5e995960921b606082015260800190565b61099580620002bc6000396000f3fe6080604052600436106100705760003560e01c80638da5cb5b1161004e5780638da5cb5b146100c1578063e3a9db1a146100ec578063f2fde38b14610119578063f340fa011461013957610070565b806351cff8d914610075578063715018a6146100975780638129fc1c146100ac575b600080fd5b34801561008157600080fd5b5061009561009036600461077a565b61014c565b005b3480156100a357600080fd5b50610095610201565b3480156100b857600080fd5b5061009561028a565b3480156100cd57600080fd5b506100d6610315565b6040516100e39190610799565b60405180910390f35b3480156100f857600080fd5b5061010c61010736600461077a565b610324565b6040516100e39190610941565b34801561012557600080fd5b5061009561013436600461077a565b61033f565b61009561014736600461077a565b610400565b6101546104b7565b6001600160a01b0316610165610315565b6001600160a01b0316146101945760405162461bcd60e51b815260040161018b9061090c565b60405180910390fd5b6001600160a01b03811660008181526065602052604081208054919055906101bc90826104bb565b816001600160a01b03167f7084f5476618d8e60b11ef0d7d3f06914655adb8793e28ff7f018d4c76d505d5826040516101f59190610941565b60405180910390a25050565b6102096104b7565b6001600160a01b031661021a610315565b6001600160a01b0316146102405760405162461bcd60e51b815260040161018b9061090c565b6033546040516000916001600160a01b0316907f8be0079c531659141344cd1fd0a4f28419497f9722a3daafe3b4186f6b6457e0908390a3603380546001600160a01b0319169055565b600054610100900460ff16806102a357506102a361055c565b806102b1575060005460ff16155b6102cd5760405162461bcd60e51b815260040161018b906108be565b600054610100900460ff161580156102f8576000805460ff1961ff0019909116610100171660011790555b61030061056d565b8015610312576000805461ff00191690555b50565b6033546001600160a01b031690565b6001600160a01b031660009081526065602052604090205490565b6103476104b7565b6001600160a01b0316610358610315565b6001600160a01b03161461037e5760405162461bcd60e51b815260040161018b9061090c565b6001600160a01b0381166103a45760405162461bcd60e51b815260040161018b906107ad565b6033546040516001600160a01b038084169216907f8be0079c531659141344cd1fd0a4f28419497f9722a3daafe3b4186f6b6457e090600090a3603380546001600160a01b0319166001600160a01b0392909216919091179055565b6104086104b7565b6001600160a01b0316610419610315565b6001600160a01b03161461043f5760405162461bcd60e51b815260040161018b9061090c565b6001600160a01b038116600090815260656020526040902054349061046490826105f3565b6001600160a01b038316600081815260656020526040908190209290925590517f2da466a7b24304f47e87fa2e1e5a81b9831ce54fec19055ce277ca2f39ba42c4906101f5908490610941565b3b151590565b3390565b804710156104db5760405162461bcd60e51b815260040161018b90610887565b6000826001600160a01b0316826040516104f490610796565b60006040518083038185875af1925050503d8060008114610531576040519150601f19603f3d011682016040523d82523d6000602084013e610536565b606091505b50509050806105575760405162461bcd60e51b815260040161018b9061082a565b505050565b6000610567306104b1565b15905090565b600054610100900460ff1680610586575061058661055c565b80610594575060005460ff16155b6105b05760405162461bcd60e51b815260040161018b906108be565b600054610100900460ff161580156105db576000805460ff1961ff0019909116610100171660011790555b6105e361061f565b6105eb6106a0565b61030061061f565b6000828201838110156106185760405162461bcd60e51b815260040161018b906107f3565b9392505050565b600054610100900460ff1680610638575061063861055c565b80610646575060005460ff16155b6106625760405162461bcd60e51b815260040161018b906108be565b600054610100900460ff16158015610300576000805460ff1961ff0019909116610100171660011790558015610312576000805461ff001916905550565b600054610100900460ff16806106b957506106b961055c565b806106c7575060005460ff16155b6106e35760405162461bcd60e51b815260040161018b906108be565b600054610100900460ff1615801561070e576000805460ff1961ff0019909116610100171660011790555b60006107186104b7565b603380546001600160a01b0319166001600160a01b038316908117909155604051919250906000907f8be0079c531659141344cd1fd0a4f28419497f9722a3daafe3b4186f6b6457e0908290a3508015610312576000805461ff001916905550565b60006020828403121561078b578081fd5b81356106188161094a565b90565b6001600160a01b0391909116815260200190565b60208082526026908201527f4f776e61626c653a206e6577206f776e657220697320746865207a65726f206160408201526564647265737360d01b606082015260800190565b6020808252601b908201527f536166654d6174683a206164646974696f6e206f766572666c6f770000000000604082015260600190565b6020808252603a908201527f416464726573733a20756e61626c6520746f2073656e642076616c75652c207260408201527f6563697069656e74206d61792068617665207265766572746564000000000000606082015260800190565b6020808252601d908201527f416464726573733a20696e73756666696369656e742062616c616e6365000000604082015260600190565b6020808252602e908201527f496e697469616c697a61626c653a20636f6e747261637420697320616c72656160408201526d191e481a5b9a5d1a585b1a5e995960921b606082015260800190565b6020808252818101527f4f776e61626c653a2063616c6c6572206973206e6f7420746865206f776e6572604082015260600190565b90815260200190565b6001600160a01b038116811461031257600080fdfea26469706673582212201292244e7fb31919b060751b1ec285fc0b1efe0cd4f87822bd83402993f6bd8a64736f6c634300060c0033",
  "linkReferences": {},
  "deployedLinkReferences": {}
}