{
  "_format": "hh-sol-artifact-1",
  "contractName": "GSNRecipientSignatureMockUpgradeableWithInit",
  "sourceName": "contracts/contracts-upgradeable-v3_4/mocks/WithInit.sol",
  "abi": [
    {
      "inputs": [
        {
          "internalType": "address",
          "name": "trustedSigner",
          "type": "address"
        }
      ],
      "stateMutability": "payable",
      "type": "constructor"
    },
    {
      "anonymous": false,
      "inputs": [],
      "name": "MockFunctionCalled",
      "type": "event"
    },
    {
      "anonymous": false,
      "inputs": [
        {
          "indexed": true,
          "internalType": "address",
          "name": "oldRelayHub",
          "type": "address"
        },
        {
          "indexed": true,
          "internalType": "address",
          "name": "newRelayHub",
          "type": "address"
        }
      ],
      "name": "RelayHubChanged",
      "type": "event"
    },
    {
      "inputs": [
        {
          "internalType": "address",
          "name": "relay",
          "type": "address"
        },
        {
          "internalType": "address",
          "name": "from",
          "type": "address"
        },
        {
          "internalType": "bytes",
          "name": "encodedFunction",
          "type": "bytes"
        },
        {
          "internalType": "uint256",
          "name": "transactionFee",
          "type": "uint256"
        },
        {
          "internalType": "uint256",
          "name": "gasPrice",
          "type": "uint256"
        },
        {
          "internalType": "uint256",
          "name": "gasLimit",
          "type": "uint256"
        },
        {
          "internalType": "uint256",
          "name": "nonce",
          "type": "uint256"
        },
        {
          "internalType": "bytes",
          "name": "approvalData",
          "type": "bytes"
        },
        {
          "internalType": "uint256",
          "name": "",
          "type": "uint256"
        }
      ],
      "name": "acceptRelayedCall",
      "outputs": [
        {
          "internalType": "uint256",
          "name": "",
          "type": "uint256"
        },
        {
          "internalType": "bytes",
          "name": "",
          "type": "bytes"
        }
      ],
      "stateMutability": "view",
      "type": "function"
    },
    {
      "inputs": [],
      "name": "getHubAddr",
      "outputs": [
        {
          "internalType": "address",
          "name": "",
          "type": "address"
        }
      ],
      "stateMutability": "view",
      "type": "function"
    },
    {
      "inputs": [],
      "name": "mockFunction",
      "outputs": [],
      "stateMutability": "nonpayable",
      "type": "function"
    },
    {
      "inputs": [
        {
          "internalType": "bytes",
          "name": "context",
          "type": "bytes"
        },
        {
          "internalType": "bool",
          "name": "success",
          "type": "bool"
        },
        {
          "internalType": "uint256",
          "name": "actualCharge",
          "type": "uint256"
        },
        {
          "internalType": "bytes32",
          "name": "preRetVal",
          "type": "bytes32"
        }
      ],
      "name": "postRelayedCall",
      "outputs": [],
      "stateMutability": "nonpayable",
      "type": "function"
    },
    {
      "inputs": [
        {
          "internalType": "bytes",
          "name": "context",
          "type": "bytes"
        }
      ],
      "name": "preRelayedCall",
      "outputs": [
        {
          "internalType": "bytes32",
          "name": "",
          "type": "bytes32"
        }
      ],
      "stateMutability": "nonpayable",
      "type": "function"
    },
    {
      "inputs": [],
      "name": "relayHubVersion",
      "outputs": [
        {
          "internalType": "string",
          "name": "",
          "type": "string"
        }
      ],
      "stateMutability": "view",
      "type": "function"
    }
  ],
  "bytecode": "0x608060405260405162000db438038062000db48339810160408190526200002691620003b4565b620000318162000038565b506200048f565b600054610100900460ff168062000054575062000054620000f8565b8062000063575060005460ff16155b6200008b5760405162461bcd60e51b81526004016200008290620003e4565b60405180910390fd5b600054610100900460ff16158015620000b7576000805460ff1961ff0019909116610100171660011790555b620000c162000116565b620000cb620001a2565b620000d68262000253565b620000e18262000323565b8015620000f4576000805461ff00191690555b5050565b60006200011030620003ae60201b6200028b1760201c565b15905090565b600054610100900460ff168062000132575062000132620000f8565b8062000141575060005460ff16155b620001605760405162461bcd60e51b81526004016200008290620003e4565b600054610100900460ff161580156200018c576000805460ff1961ff0019909116610100171660011790555b80156200019f576000805461ff00191690555b50565b600054610100900460ff1680620001be5750620001be620000f8565b80620001cd575060005460ff16155b620001ec5760405162461bcd60e51b81526004016200008290620003e4565b600054610100900460ff1615801562000218576000805460ff1961ff0019909116610100171660011790555b603380546001600160a01b03191673d216153c06e857cd7f72665e0af1d7d82172f49417905580156200019f576000805461ff001916905550565b600054610100900460ff16806200026f57506200026f620000f8565b806200027e575060005460ff16155b6200029d5760405162461bcd60e51b81526004016200008290620003e4565b600054610100900460ff16158015620002c9576000805460ff1961ff0019909116610100171660011790555b6001600160a01b038216620002f25760405162461bcd60e51b8152600401620000829062000432565b606580546001600160a01b0319166001600160a01b0384161790558015620000f4576000805461ff00191690555050565b600054610100900460ff16806200033f57506200033f620000f8565b806200034e575060005460ff16155b6200036d5760405162461bcd60e51b81526004016200008290620003e4565b600054610100900460ff16158015620000e1576000805460ff1961ff0019909116610100171660011790558015620000f4576000805461ff00191690555050565b3b151590565b600060208284031215620003c6578081fd5b81516001600160a01b0381168114620003dd578182fd5b9392505050565b6020808252602e908201527f496e697469616c697a61626c653a20636f6e747261637420697320616c72656160408201526d191e481a5b9a5d1a585b1a5e995960921b606082015260800190565b60208082526039908201527f47534e526563697069656e745369676e61747572653a2074727573746564207360408201527f69676e657220697320746865207a65726f206164647265737300000000000000606082015260800190565b610915806200049f6000396000f3fe608060405234801561001057600080fd5b50600436106100625760003560e01c80633e6fec041461006757806374e861d61461007157806380274db71461008f57806383947ea0146100af578063ad61ccd5146100d0578063e06e0e22146100e5575b600080fd5b61006f6100f8565b005b610079610123565b604051610086919061070f565b60405180910390f35b6100a261009d36600461059f565b610132565b6040516100869190610723565b6100c26100bd3660046104de565b610184565b60405161008692919061089a565b6100d8610226565b604051610086919061074a565b61006f6100f33660046105da565b610245565b6040517f52c66ed6ec9ca819cba26fe2b2650059270d8981b295af300187a964f54a8c2390600090a1565b6033546001600160a01b031690565b600061013c610123565b6001600160a01b0316336001600160a01b0316146101755760405162461bcd60e51b815260040161016c90610856565b60405180910390fd5b61017e82610291565b92915050565b60006060808b8b8b8b8b8b8b610198610123565b306040516020016101b199989796959493929190610667565b60408051601f19818403018152919052606554815160208301209192506001600160a01b0316906101ed9087906101e790610297565b906102c7565b6001600160a01b0316141561020e57610204610312565b9250925050610218565b6102046000610336565b995099975050505050505050565b6040805180820190915260058152640312e302e360dc1b602082015290565b61024d610123565b6001600160a01b0316336001600160a01b03161461027d5760405162461bcd60e51b815260040161016c90610856565b610285848484845b50505050565b3b151590565b50600090565b6000816040516020016102aa91906106de565b604051602081830303815290604052805190602001209050919050565b600081516041146102ea5760405162461bcd60e51b815260040161016c9061079b565b60208201516040830151606084015160001a6103088682858561034e565b9695505050505050565b6000606061032e60405180602001604052806000815250610444565b915091509091565b604080516020810190915260008152600b9190910191565b60007f7fffffffffffffffffffffffffffffff5d576e7357a4501ddfe92f46681b20a08211156103905760405162461bcd60e51b815260040161016c906107d2565b8360ff16601b14806103a557508360ff16601c145b6103c15760405162461bcd60e51b815260040161016c90610814565b6000600186868686604051600081526020016040526040516103e6949392919061072c565b6020604051602081039080840390855afa158015610408573d6000803e3d6000fd5b5050604051601f1901519150506001600160a01b03811661043b5760405162461bcd60e51b815260040161016c90610764565b95945050505050565b600091565b80356001600160a01b038116811461017e57600080fd5b600082601f830112610470578081fd5b813567ffffffffffffffff80821115610487578283fd5b604051601f8301601f1916810160200182811182821017156104a7578485fd5b6040528281529250828483016020018610156104c257600080fd5b8260208601602083013760006020848301015250505092915050565b60008060008060008060008060006101208a8c0312156104fc578485fd5b89356001600160a01b0381168114610512578586fd5b98506105218b60208c01610449565b975060408a013567ffffffffffffffff8082111561053d578687fd5b6105498d838e01610460565b985060608c0135975060808c0135965060a08c0135955060c08c0135945060e08c013591508082111561057a578384fd5b506105878c828d01610460565b9250506101008a013590509295985092959850929598565b6000602082840312156105b0578081fd5b813567ffffffffffffffff8111156105c6578182fd5b6105d284828501610460565b949350505050565b600080600080608085870312156105ef578384fd5b843567ffffffffffffffff811115610605578485fd5b61061187828801610460565b94505060208501358015158114610626578384fd5b93969395505050506040820135916060013590565b600081518084526106538160208601602086016108b3565b601f01601f19169290920160200192915050565b60006bffffffffffffffffffffffff19808c60601b168352808b60601b166014840152895161069d816028860160208e016108b3565b909201602881019890985250604887019590955260688601939093526088850191909152606090811b831660a88501521b1660bc82015260d0019392505050565b7f19457468657265756d205369676e6564204d6573736167653a0a3332000000008152601c810191909152603c0190565b6001600160a01b0391909116815260200190565b90815260200190565b93845260ff9290921660208401526040830152606082015260800190565b60006020825261075d602083018461063b565b9392505050565b60208082526018908201527f45434453413a20696e76616c6964207369676e61747572650000000000000000604082015260600190565b6020808252601f908201527f45434453413a20696e76616c6964207369676e6174757265206c656e67746800604082015260600190565b60208082526022908201527f45434453413a20696e76616c6964207369676e6174757265202773272076616c604082015261756560f01b606082015260800190565b60208082526022908201527f45434453413a20696e76616c6964207369676e6174757265202776272076616c604082015261756560f01b606082015260800190565b60208082526024908201527f47534e526563697069656e743a2063616c6c6572206973206e6f742052656c616040820152633ca43ab160e11b606082015260800190565b6000838252604060208301526105d2604083018461063b565b60005b838110156108ce5781810151838201526020016108b6565b83811115610285575050600091015256fea264697066735822122028784d43121770021715e18e1eea8e5f3f776d203ff9767d714a2a266ae1eb0064736f6c634300060c0033",
  "linkReferences": {},
  "deployedLinkReferences": {}
}