{
  "_format": "hh-sol-artifact-1",
  "contractName": "GSNRecipientERC20FeeMockUpgradeableWithInit",
  "sourceName": "contracts/contracts-upgradeable-v3_4/mocks/WithInit.sol",
  "abi": [
    {
      "inputs": [
        {
          "internalType": "string",
          "name": "name",
          "type": "string"
        },
        {
          "internalType": "string",
          "name": "symbol",
          "type": "string"
        }
      ],
      "stateMutability": "payable",
      "type": "constructor"
    },
    {
      "anonymous": false,
      "inputs": [
        {
          "indexed": false,
          "internalType": "uint256",
          "name": "senderBalance",
          "type": "uint256"
        }
      ],
      "name": "MockFunctionCalled",
      "type": "event"
    },
    {
      "anonymous": false,
      "inputs": [
        {
          "indexed": true,
          "internalType": "address",
          "name": "oldRelayHub",
          "type": "address"
        },
        {
          "indexed": true,
          "internalType": "address",
          "name": "newRelayHub",
          "type": "address"
        }
      ],
      "name": "RelayHubChanged",
      "type": "event"
    },
    {
      "inputs": [
        {
          "internalType": "address",
          "name": "",
          "type": "address"
        },
        {
          "internalType": "address",
          "name": "from",
          "type": "address"
        },
        {
          "internalType": "bytes",
          "name": "",
          "type": "bytes"
        },
        {
          "internalType": "uint256",
          "name": "transactionFee",
          "type": "uint256"
        },
        {
          "internalType": "uint256",
          "name": "gasPrice",
          "type": "uint256"
        },
        {
          "internalType": "uint256",
          "name": "",
          "type": "uint256"
        },
        {
          "internalType": "uint256",
          "name": "",
          "type": "uint256"
        },
        {
          "internalType": "bytes",
          "name": "",
          "type": "bytes"
        },
        {
          "internalType": "uint256",
          "name": "maxPossibleCharge",
          "type": "uint256"
        }
      ],
      "name": "acceptRelayedCall",
      "outputs": [
        {
          "internalType": "uint256",
          "name": "",
          "type": "uint256"
        },
        {
          "internalType": "bytes",
          "name": "",
          "type": "bytes"
        }
      ],
      "stateMutability": "view",
      "type": "function"
    },
    {
      "inputs": [],
      "name": "getHubAddr",
      "outputs": [
        {
          "internalType": "address",
          "name": "",
          "type": "address"
        }
      ],
      "stateMutability": "view",
      "type": "function"
    },
    {
      "inputs": [
        {
          "internalType": "address",
          "name": "account",
          "type": "address"
        },
        {
          "internalType": "uint256",
          "name": "amount",
          "type": "uint256"
        }
      ],
      "name": "mint",
      "outputs": [],
      "stateMutability": "nonpayable",
      "type": "function"
    },
    {
      "inputs": [],
      "name": "mockFunction",
      "outputs": [],
      "stateMutability": "nonpayable",
      "type": "function"
    },
    {
      "inputs": [
        {
          "internalType": "bytes",
          "name": "context",
          "type": "bytes"
        },
        {
          "internalType": "bool",
          "name": "success",
          "type": "bool"
        },
        {
          "internalType": "uint256",
          "name": "actualCharge",
          "type": "uint256"
        },
        {
          "internalType": "bytes32",
          "name": "preRetVal",
          "type": "bytes32"
        }
      ],
      "name": "postRelayedCall",
      "outputs": [],
      "stateMutability": "nonpayable",
      "type": "function"
    },
    {
      "inputs": [
        {
          "internalType": "bytes",
          "name": "context",
          "type": "bytes"
        }
      ],
      "name": "preRelayedCall",
      "outputs": [
        {
          "internalType": "bytes32",
          "name": "",
          "type": "bytes32"
        }
      ],
      "stateMutability": "nonpayable",
      "type": "function"
    },
    {
      "inputs": [],
      "name": "relayHubVersion",
      "outputs": [
        {
          "internalType": "string",
          "name": "",
          "type": "string"
        }
      ],
      "stateMutability": "view",
      "type": "function"
    },
    {
      "inputs": [],
      "name": "token",
      "outputs": [
        {
          "internalType": "contract __unstable__ERC20OwnedUpgradeable",
          "name": "",
          "type": "address"
        }
      ],
      "stateMutability": "view",
      "type": "function"
    }
  ],
  "bytecode": "0x6080604052604051620028d1380380620028d18339810160408190526200002691620004ac565b6200003282826200003a565b5050620005f4565b600054610100900460ff168062000056575062000056620000fd565b8062000065575060005460ff16155b6200008d5760405162461bcd60e51b8152600401620000849062000573565b60405180910390fd5b600054610100900460ff16158015620000b9576000805460ff1961ff0019909116610100171660011790555b620000c36200011b565b620000cd620001a7565b620000d9838362000258565b620000e583836200038b565b8015620000f8576000805461ff00191690555b505050565b600062000115306200041760201b620003c51760201c565b15905090565b600054610100900460ff168062000137575062000137620000fd565b8062000146575060005460ff16155b620001655760405162461bcd60e51b8152600401620000849062000573565b600054610100900460ff1615801562000191576000805460ff1961ff0019909116610100171660011790555b8015620001a4576000805461ff00191690555b50565b600054610100900460ff1680620001c35750620001c3620000fd565b80620001d2575060005460ff16155b620001f15760405162461bcd60e51b8152600401620000849062000573565b600054610100900460ff161580156200021d576000805460ff1961ff0019909116610100171660011790555b603380546001600160a01b03191673d216153c06e857cd7f72665e0af1d7d82172f4941790558015620001a4576000805461ff001916905550565b600054610100900460ff168062000274575062000274620000fd565b8062000283575060005460ff16155b620002a25760405162461bcd60e51b8152600401620000849062000573565b600054610100900460ff16158015620002ce576000805460ff1961ff0019909116610100171660011790555b604051620002dc906200041d565b604051809103906000f080158015620002f9573d6000803e3d6000fd5b50606580546001600160a01b0319166001600160a01b03928316179081905560405163266c45bb60e11b8152911690634cd88b769062000340908690869060040162000541565b600060405180830381600087803b1580156200035b57600080fd5b505af115801562000370573d6000803e3d6000fd5b505050508015620000f8576000805461ff0019169055505050565b600054610100900460ff1680620003a75750620003a7620000fd565b80620003b6575060005460ff16155b620003d55760405162461bcd60e51b8152600401620000849062000573565b600054610100900460ff16158015620000e5576000805460ff1961ff0019909116610100171660011790558015620000f8576000805461ff0019169055505050565b3b151590565b61158e806200134383390190565b600082601f8301126200043c578081fd5b81516001600160401b038082111562000453578283fd5b604051601f8301601f19168101602001828111828210171562000474578485fd5b6040528281529250828483016020018610156200049057600080fd5b620004a3836020830160208801620005c1565b50505092915050565b60008060408385031215620004bf578182fd5b82516001600160401b0380821115620004d6578384fd5b620004e4868387016200042b565b93506020850151915080821115620004fa578283fd5b5062000509858286016200042b565b9150509250929050565b600081518084526200052d816020860160208601620005c1565b601f01601f19169290920160200192915050565b60006040825262000556604083018562000513565b82810360208401526200056a818562000513565b95945050505050565b6020808252602e908201527f496e697469616c697a61626c653a20636f6e747261637420697320616c72656160408201526d191e481a5b9a5d1a585b1a5e995960921b606082015260800190565b60005b83811015620005de578181015183820152602001620005c4565b83811115620005ee576000848401525b50505050565b610d3f80620006046000396000f3fe608060405234801561001057600080fd5b50600436106100885760003560e01c806383947ea01161005b57806383947ea0146100e8578063ad61ccd514610109578063e06e0e221461011e578063fc0c546a1461013157610088565b80633e6fec041461008d57806340c10f191461009757806374e861d6146100aa57806380274db7146100c8575b600080fd5b610095610139565b005b6100956100a5366004610992565b6101fb565b6100b2610209565b6040516100bf9190610ac9565b60405180910390f35b6100db6100d63660046109d9565b610219565b6040516100bf9190610b40565b6100fb6100f63660046108db565b61026b565b6040516100bf929190610c9e565b61011161034d565b6040516100bf9190610b49565b61009561012c366004610a0c565b61036c565b6100b26103b6565b7fde4813f7525e49908b98ef6c9c80c5bc8c7d0842981a49420eb45ef36a60e0c06101626103b6565b6001600160a01b03166370a082316101786103cb565b6040518263ffffffff1660e01b81526004016101949190610ac9565b60206040518083038186803b1580156101ac57600080fd5b505afa1580156101c0573d6000803e3d6000fd5b505050506040513d601f19601f820116820180604052508101906101e49190610a69565b6040516101f19190610b40565b60405180910390a1565b6102058282610403565b5050565b6033546001600160a01b03165b90565b6000610223610209565b6001600160a01b0316336001600160a01b03161461025c5760405162461bcd60e51b815260040161025390610bd9565b60405180910390fd5b6102658261046e565b92915050565b60006060826102786103b6565b6001600160a01b03166370a082318c6040518263ffffffff1660e01b81526004016102a39190610ac9565b60206040518083038186803b1580156102bb57600080fd5b505afa1580156102cf573d6000803e3d6000fd5b505050506040513d601f19601f820116820180604052508101906102f39190610a69565b101561030c5761030360006104b4565b9150915061033f565b61033a8a848a8a6040516020016103269493929190610b1a565b6040516020818303038152906040526104cc565b915091505b995099975050505050505050565b6040805180820190915260058152640312e302e360dc1b602082015290565b610374610209565b6001600160a01b0316336001600160a01b0316146103a45760405162461bcd60e51b815260040161025390610bd9565b6103b0848484846104d1565b50505050565b6065546001600160a01b031690565b3b151590565b60006103d5610209565b6001600160a01b0316336001600160a01b0316146103f4575033610216565b6103fc61054f565b9050610216565b61040b6103b6565b6001600160a01b03166340c10f1983836040518363ffffffff1660e01b8152600401610438929190610b01565b600060405180830381600087803b15801561045257600080fd5b505af1158015610466573d6000803e3d6000fd5b505050505050565b6000806000838060200190518101906104879190610870565b915091506104aa8230836104996103b6565b6001600160a01b031692919061059c565b5060009392505050565b604080516020810190915260008152600b9190910191565b600091565b600080600080878060200190518101906104eb919061089d565b929650909450925090506000610510610509620186a06127106105f4565b838561061c565b905061051c87826105f4565b96506105448561052c868a6105f4565b6105346103b6565b6001600160a01b0316919061062e565b505050505050505050565b600060606000368080601f0160208091040260200160405190810160405280939291908181526020018383808284376000920191909152505050503601516001600160a01b031692915050565b6103b0846323b872dd60e01b8585856040516024016105bd93929190610add565b60408051601f198184030181529190526020810180516001600160e01b03166001600160e01b031990931692909217909152610652565b6000828211156106165760405162461bcd60e51b815260040161025390610b5c565b50900390565b606481810183850202045b9392505050565b61064d8363a9059cbb60e01b84846040516024016105bd929190610b01565b505050565b60606106a7826040518060400160405280602081526020017f5361666545524332303a206c6f772d6c6576656c2063616c6c206661696c6564815250856001600160a01b03166106e19092919063ffffffff16565b80519091501561064d57808060200190518101906106c591906109bd565b61064d5760405162461bcd60e51b815260040161025390610c54565b60606106f084846000856106f8565b949350505050565b60608247101561071a5760405162461bcd60e51b815260040161025390610b93565b610723856103c5565b61073f5760405162461bcd60e51b815260040161025390610c1d565b60006060866001600160a01b0316858760405161075c9190610aad565b60006040518083038185875af1925050503d8060008114610799576040519150601f19603f3d011682016040523d82523d6000602084013e61079e565b606091505b50915091506107ae8282866107b9565b979650505050505050565b606083156107c8575081610627565b8251156107d85782518084602001fd5b8160405162461bcd60e51b81526004016102539190610b49565b600082601f830112610802578081fd5b813567ffffffffffffffff80821115610819578283fd5b604051601f8301601f191681016020018281118282101715610839578485fd5b60405282815292508284830160200186101561085457600080fd5b8260208601602083013760006020848301015250505092915050565b60008060408385031215610882578182fd5b825161088d81610ce3565b6020939093015192949293505050565b600080600080608085870312156108b2578182fd5b84516108bd81610ce3565b60208601516040870151606090970151919890975090945092505050565b60008060008060008060008060006101208a8c0312156108f9578485fd5b893561090481610ce3565b985060208a013561091481610ce3565b975060408a013567ffffffffffffffff80821115610930578687fd5b61093c8d838e016107f2565b985060608c0135975060808c0135965060a08c0135955060c08c0135945060e08c013591508082111561096d578384fd5b5061097a8c828d016107f2565b9250506101008a013590509295985092959850929598565b600080604083850312156109a4578182fd5b82356109af81610ce3565b946020939093013593505050565b6000602082840312156109ce578081fd5b815161062781610cfb565b6000602082840312156109ea578081fd5b813567ffffffffffffffff811115610a00578182fd5b6106f0848285016107f2565b60008060008060808587031215610a21578384fd5b843567ffffffffffffffff811115610a37578485fd5b610a43878288016107f2565b9450506020850135610a5481610cfb565b93969395505050506040820135916060013590565b600060208284031215610a7a578081fd5b5051919050565b60008151808452610a99816020860160208601610cb7565b601f01601f19169290920160200192915050565b60008251610abf818460208701610cb7565b9190910192915050565b6001600160a01b0391909116815260200190565b6001600160a01b039384168152919092166020820152604081019190915260600190565b6001600160a01b03929092168252602082015260400190565b6001600160a01b0394909416845260208401929092526040830152606082015260800190565b90815260200190565b6000602082526106276020830184610a81565b6020808252601e908201527f536166654d6174683a207375627472616374696f6e206f766572666c6f770000604082015260600190565b60208082526026908201527f416464726573733a20696e73756666696369656e742062616c616e636520666f6040820152651c8818d85b1b60d21b606082015260800190565b60208082526024908201527f47534e526563697069656e743a2063616c6c6572206973206e6f742052656c616040820152633ca43ab160e11b606082015260800190565b6020808252601d908201527f416464726573733a2063616c6c20746f206e6f6e2d636f6e7472616374000000604082015260600190565b6020808252602a908201527f5361666545524332303a204552433230206f7065726174696f6e20646964206e6040820152691bdd081cdd58d8d9595960b21b606082015260800190565b6000838252604060208301526106f06040830184610a81565b60005b83811015610cd2578181015183820152602001610cba565b838111156103b05750506000910152565b6001600160a01b0381168114610cf857600080fd5b50565b8015158114610cf857600080fdfea2646970667358221220eca0582ffc1bbc6b998ebb64679fe2aa6720af2821a5ee68beb1c06dd657263364736f6c634300060c0033608060405234801561001057600080fd5b5061156e806100206000396000f3fe608060405234801561001057600080fd5b50600436106101005760003560e01c806370a0823111610097578063a457c2d711610066578063a457c2d714610411578063a9059cbb1461043d578063dd62ed3e14610469578063f2fde38b1461049757610100565b806370a08231146103b7578063715018a6146103dd5780638da5cb5b146103e557806395d89b411461040957610100565b8063313ce567116100d3578063313ce56714610212578063395093511461023057806340c10f191461025c5780634cd88b761461028a57610100565b806306fdde0314610105578063095ea7b31461018257806318160ddd146101c257806323b872dd146101dc575b600080fd5b61010d6104bd565b6040805160208082528351818301528351919283929083019185019080838360005b8381101561014757818101518382015260200161012f565b50505050905090810190601f1680156101745780820380516001836020036101000a031916815260200191505b509250505060405180910390f35b6101ae6004803603604081101561019857600080fd5b506001600160a01b038135169060200135610553565b604080519115158252519081900360200190f35b6101ca610571565b60408051918252519081900360200190f35b6101ae600480360360608110156101f257600080fd5b506001600160a01b03813581169160208101359091169060400135610577565b61021a6105c2565b6040805160ff9092168252519081900360200190f35b6101ae6004803603604081101561024657600080fd5b506001600160a01b0381351690602001356105cb565b6102886004803603604081101561027257600080fd5b506001600160a01b03813516906020013561061e565b005b610288600480360360408110156102a057600080fd5b8101906020810181356401000000008111156102bb57600080fd5b8201836020820111156102cd57600080fd5b803590602001918460018302840111640100000000831117156102ef57600080fd5b91908080601f016020809104026020016040519081016040528093929190818152602001838380828437600092019190915250929594936020810193503591505064010000000081111561034257600080fd5b82018360208201111561035457600080fd5b8035906020019184600183028401116401000000008311171561037657600080fd5b91908080601f0160208091040260200160405190810160405280939291908181526020018383808284376000920191909152509295506106a0945050505050565b6101ca600480360360208110156103cd57600080fd5b50356001600160a01b031661074e565b610288610769565b6103ed610827565b604080516001600160a01b039092168252519081900360200190f35b61010d610836565b6101ae6004803603604081101561042757600080fd5b506001600160a01b038135169060200135610897565b6101ae6004803603604081101561045357600080fd5b506001600160a01b0381351690602001356108ff565b6101ca6004803603604081101561047f57600080fd5b506001600160a01b0381358116916020013516610913565b610288600480360360208110156104ad57600080fd5b50356001600160a01b0316610950565b60368054604080516020601f60026000196101006001881615020190951694909404938401819004810282018101909252828152606093909290918301828280156105495780601f1061051e57610100808354040283529160200191610549565b820191906000526020600020905b81548152906001019060200180831161052c57829003601f168201915b5050505050905090565b6000610567610560610a65565b8484610a69565b5060015b92915050565b60355490565b6000610581610827565b6001600160a01b0316836001600160a01b031614156105ad576105a5848484610a9a565b5060016105bb565b6105b8848484610bf7565b90505b9392505050565b60385460ff1690565b60006105676105d8610a65565b8461061985603460006105e9610a65565b6001600160a01b03908116825260208083019390935260409182016000908120918c168152925290205490610c79565b610a69565b610626610a65565b6001600160a01b0316610637610827565b6001600160a01b031614610692576040805162461bcd60e51b815260206004820181905260248201527f4f776e61626c653a2063616c6c6572206973206e6f7420746865206f776e6572604482015290519081900360640190fd5b61069c8282610cd3565b5050565b600054610100900460ff16806106b957506106b9610dc5565b806106c7575060005460ff16155b6107025760405162461bcd60e51b815260040180806020018281038252602e815260200180611475602e913960400191505060405180910390fd5b600054610100900460ff1615801561072d576000805460ff1961ff0019909116610100171660011790555b6107378383610dd6565b8015610749576000805461ff00191690555b505050565b6001600160a01b031660009081526033602052604090205490565b610771610a65565b6001600160a01b0316610782610827565b6001600160a01b0316146107dd576040805162461bcd60e51b815260206004820181905260248201527f4f776e61626c653a2063616c6c6572206973206e6f7420746865206f776e6572604482015290519081900360640190fd5b6065546040516000916001600160a01b0316907f8be0079c531659141344cd1fd0a4f28419497f9722a3daafe3b4186f6b6457e0908390a3606580546001600160a01b0319169055565b6065546001600160a01b031690565b60378054604080516020601f60026000196101006001881615020190951694909404938401819004810282018101909252828152606093909290918301828280156105495780601f1061051e57610100808354040283529160200191610549565b60006105676108a4610a65565b846106198560405180606001604052806025815260200161151460259139603460006108ce610a65565b6001600160a01b03908116825260208083019390935260409182016000908120918d16815292529020549190610e87565b600061056761090c610a65565b8484610a9a565b600061091d610827565b6001600160a01b0316826001600160a01b0316141561093f575060001961056b565b6109498383610f1e565b905061056b565b610958610a65565b6001600160a01b0316610969610827565b6001600160a01b0316146109c4576040805162461bcd60e51b815260206004820181905260248201527f4f776e61626c653a2063616c6c6572206973206e6f7420746865206f776e6572604482015290519081900360640190fd5b6001600160a01b038116610a095760405162461bcd60e51b81526004018080602001828103825260268152602001806114076026913960400191505060405180910390fd5b6065546040516001600160a01b038084169216907f8be0079c531659141344cd1fd0a4f28419497f9722a3daafe3b4186f6b6457e090600090a3606580546001600160a01b0319166001600160a01b0392909216919091179055565b3390565b610a71610827565b6001600160a01b0316826001600160a01b03161415610a8f57610749565b610749838383610f49565b6001600160a01b038316610adf5760405162461bcd60e51b81526004018080602001828103825260258152602001806114cb6025913960400191505060405180910390fd5b6001600160a01b038216610b245760405162461bcd60e51b81526004018080602001828103825260238152602001806113e46023913960400191505060405180910390fd5b610b2f838383610749565b610b6c8160405180606001604052806026815260200161144f602691396001600160a01b0386166000908152603360205260409020549190610e87565b6001600160a01b038085166000908152603360205260408082209390935590841681522054610b9b9082610c79565b6001600160a01b0380841660008181526033602090815260409182902094909455805185815290519193928716927fddf252ad1be2c89b69c2b068fc378daa952ba7f163c4a11628f55a4df523b3ef92918290030190a3505050565b6000610c04848484610a9a565b610c6f84610c10610a65565b610619856040518060600160405280602881526020016114a3602891396001600160a01b038a16600090815260346020526040812090610c4e610a65565b6001600160a01b031681526020810191909152604001600020549190610e87565b5060019392505050565b6000828201838110156105bb576040805162461bcd60e51b815260206004820152601b60248201527f536166654d6174683a206164646974696f6e206f766572666c6f770000000000604482015290519081900360640190fd5b6001600160a01b038216610d2e576040805162461bcd60e51b815260206004820152601f60248201527f45524332303a206d696e7420746f20746865207a65726f206164647265737300604482015290519081900360640190fd5b610d3a60008383610749565b603554610d479082610c79565b6035556001600160a01b038216600090815260336020526040902054610d6d9082610c79565b6001600160a01b03831660008181526033602090815260408083209490945583518581529351929391927fddf252ad1be2c89b69c2b068fc378daa952ba7f163c4a11628f55a4df523b3ef9281900390910190a35050565b6000610dd030611035565b15905090565b600054610100900460ff1680610def5750610def610dc5565b80610dfd575060005460ff16155b610e385760405162461bcd60e51b815260040180806020018281038252602e815260200180611475602e913960400191505060405180910390fd5b600054610100900460ff16158015610e63576000805460ff1961ff0019909116610100171660011790555b610e6b61103b565b610e7583836110dd565b610e7d6111b5565b61073783836112ae565b60008184841115610f165760405162461bcd60e51b81526004018080602001828103825283818151815260200191508051906020019080838360005b83811015610edb578181015183820152602001610ec3565b50505050905090810190601f168015610f085780820380516001836020036101000a031916815260200191505b509250505060405180910390fd5b505050900390565b6001600160a01b03918216600090815260346020908152604080832093909416825291909152205490565b6001600160a01b038316610f8e5760405162461bcd60e51b81526004018080602001828103825260248152602001806114f06024913960400191505060405180910390fd5b6001600160a01b038216610fd35760405162461bcd60e51b815260040180806020018281038252602281526020018061142d6022913960400191505060405180910390fd5b6001600160a01b03808416600081815260346020908152604080832094871680845294825291829020859055815185815291517f8c5be1e5ebec7d5bd14f71427d1e84f3dd0314c0f7b2291e5b200ac8c7c3b9259281900390910190a3505050565b3b151590565b600054610100900460ff16806110545750611054610dc5565b80611062575060005460ff16155b61109d5760405162461bcd60e51b815260040180806020018281038252602e815260200180611475602e913960400191505060405180910390fd5b600054610100900460ff161580156110c8576000805460ff1961ff0019909116610100171660011790555b80156110da576000805461ff00191690555b50565b600054610100900460ff16806110f657506110f6610dc5565b80611104575060005460ff16155b61113f5760405162461bcd60e51b815260040180806020018281038252602e815260200180611475602e913960400191505060405180910390fd5b600054610100900460ff1615801561116a576000805460ff1961ff0019909116610100171660011790555b825161117d906036906020860190611350565b508151611191906037906020850190611350565b506038805460ff191660121790558015610749576000805461ff0019169055505050565b600054610100900460ff16806111ce57506111ce610dc5565b806111dc575060005460ff16155b6112175760405162461bcd60e51b815260040180806020018281038252602e815260200180611475602e913960400191505060405180910390fd5b600054610100900460ff16158015611242576000805460ff1961ff0019909116610100171660011790555b600061124c610a65565b606580546001600160a01b0319166001600160a01b038316908117909155604051919250906000907f8be0079c531659141344cd1fd0a4f28419497f9722a3daafe3b4186f6b6457e0908290a35080156110da576000805461ff001916905550565b600054610100900460ff16806112c757506112c7610dc5565b806112d5575060005460ff16155b6113105760405162461bcd60e51b815260040180806020018281038252602e815260200180611475602e913960400191505060405180910390fd5b600054610100900460ff16158015610737576000805460ff1961ff0019909116610100171660011790558015610749576000805461ff0019169055505050565b828054600181600116156101000203166002900490600052602060002090601f016020900481019282601f1061139157805160ff19168380011785556113be565b828001600101855582156113be579182015b828111156113be5782518255916020019190600101906113a3565b506113ca9291506113ce565b5090565b5b808211156113ca57600081556001016113cf56fe45524332303a207472616e7366657220746f20746865207a65726f20616464726573734f776e61626c653a206e6577206f776e657220697320746865207a65726f206164647265737345524332303a20617070726f766520746f20746865207a65726f206164647265737345524332303a207472616e7366657220616d6f756e7420657863656564732062616c616e6365496e697469616c697a61626c653a20636f6e747261637420697320616c726561647920696e697469616c697a656445524332303a207472616e7366657220616d6f756e74206578636565647320616c6c6f77616e636545524332303a207472616e736665722066726f6d20746865207a65726f206164647265737345524332303a20617070726f76652066726f6d20746865207a65726f206164647265737345524332303a2064656372656173656420616c6c6f77616e63652062656c6f77207a65726fa26469706673582212203b3e01e39bc5819f9c78f94c260803123b2e4fb5718717204eb5d7546d57459e64736f6c634300060c0033",
  "linkReferences": {},
  "deployedLinkReferences": {}
}