{
  "_format": "hh-sol-artifact-1",
  "contractName": "GSNRecipientMockUpgradeableWithInit",
  "sourceName": "contracts/contracts-upgradeable-v3_4/mocks/WithInit.sol",
  "abi": [
    {
      "inputs": [],
      "stateMutability": "payable",
      "type": "constructor"
    },
    {
      "anonymous": false,
      "inputs": [
        {
          "indexed": false,
          "internalType": "bytes",
          "name": "data",
          "type": "bytes"
        },
        {
          "indexed": false,
          "internalType": "uint256",
          "name": "integerValue",
          "type": "uint256"
        },
        {
          "indexed": false,
          "internalType": "string",
          "name": "stringValue",
          "type": "string"
        }
      ],
      "name": "Data",
      "type": "event"
    },
    {
      "anonymous": false,
      "inputs": [
        {
          "indexed": true,
          "internalType": "address",
          "name": "oldRelayHub",
          "type": "address"
        },
        {
          "indexed": true,
          "internalType": "address",
          "name": "newRelayHub",
          "type": "address"
        }
      ],
      "name": "RelayHubChanged",
      "type": "event"
    },
    {
      "anonymous": false,
      "inputs": [
        {
          "indexed": false,
          "internalType": "address",
          "name": "sender",
          "type": "address"
        }
      ],
      "name": "Sender",
      "type": "event"
    },
    {
      "inputs": [
        {
          "internalType": "address",
          "name": "",
          "type": "address"
        },
        {
          "internalType": "address",
          "name": "",
          "type": "address"
        },
        {
          "internalType": "bytes",
          "name": "",
          "type": "bytes"
        },
        {
          "internalType": "uint256",
          "name": "",
          "type": "uint256"
        },
        {
          "internalType": "uint256",
          "name": "",
          "type": "uint256"
        },
        {
          "internalType": "uint256",
          "name": "",
          "type": "uint256"
        },
        {
          "internalType": "uint256",
          "name": "",
          "type": "uint256"
        },
        {
          "internalType": "bytes",
          "name": "",
          "type": "bytes"
        },
        {
          "internalType": "uint256",
          "name": "",
          "type": "uint256"
        }
      ],
      "name": "acceptRelayedCall",
      "outputs": [
        {
          "internalType": "uint256",
          "name": "",
          "type": "uint256"
        },
        {
          "internalType": "bytes",
          "name": "",
          "type": "bytes"
        }
      ],
      "stateMutability": "view",
      "type": "function"
    },
    {
      "inputs": [],
      "name": "getHubAddr",
      "outputs": [
        {
          "internalType": "address",
          "name": "",
          "type": "address"
        }
      ],
      "stateMutability": "view",
      "type": "function"
    },
    {
      "inputs": [
        {
          "internalType": "uint256",
          "name": "integerValue",
          "type": "uint256"
        },
        {
          "internalType": "string",
          "name": "stringValue",
          "type": "string"
        }
      ],
      "name": "msgData",
      "outputs": [],
      "stateMutability": "nonpayable",
      "type": "function"
    },
    {
      "inputs": [],
      "name": "msgSender",
      "outputs": [],
      "stateMutability": "nonpayable",
      "type": "function"
    },
    {
      "inputs": [
        {
          "internalType": "bytes",
          "name": "context",
          "type": "bytes"
        },
        {
          "internalType": "bool",
          "name": "success",
          "type": "bool"
        },
        {
          "internalType": "uint256",
          "name": "actualCharge",
          "type": "uint256"
        },
        {
          "internalType": "bytes32",
          "name": "preRetVal",
          "type": "bytes32"
        }
      ],
      "name": "postRelayedCall",
      "outputs": [],
      "stateMutability": "nonpayable",
      "type": "function"
    },
    {
      "inputs": [
        {
          "internalType": "bytes",
          "name": "context",
          "type": "bytes"
        }
      ],
      "name": "preRelayedCall",
      "outputs": [
        {
          "internalType": "bytes32",
          "name": "",
          "type": "bytes32"
        }
      ],
      "stateMutability": "nonpayable",
      "type": "function"
    },
    {
      "inputs": [],
      "name": "relayHubVersion",
      "outputs": [
        {
          "internalType": "string",
          "name": "",
          "type": "string"
        }
      ],
      "stateMutability": "view",
      "type": "function"
    },
    {
      "inputs": [
        {
          "internalType": "address",
          "name": "newRelayHub",
          "type": "address"
        }
      ],
      "name": "upgradeRelayHub",
      "outputs": [],
      "stateMutability": "nonpayable",
      "type": "function"
    },
    {
      "inputs": [
        {
          "internalType": "uint256",
          "name": "amount",
          "type": "uint256"
        },
        {
          "internalType": "address payable",
          "name": "payee",
          "type": "address"
        }
      ],
      "name": "withdrawDeposits",
      "outputs": [],
      "stateMutability": "nonpayable",
      "type": "function"
    }
  ],
  "bytecode": "0x60806040526200000e62000014565b6200027e565b600054610100900460ff168062000030575062000030620000d1565b806200003f575060005460ff16155b620000675760405162461bcd60e51b81526004016200005e9062000230565b60405180910390fd5b600054610100900460ff1615801562000093576000805460ff1961ff0019909116610100171660011790555b6200009d620000ef565b620000a7620000ef565b620000b162000179565b620000bb620000ef565b8015620000ce576000805461ff00191690555b50565b6000620000e9306200022a60201b620002ea1760201c565b15905090565b600054610100900460ff16806200010b57506200010b620000d1565b806200011a575060005460ff16155b620001395760405162461bcd60e51b81526004016200005e9062000230565b600054610100900460ff16158015620000bb576000805460ff1961ff0019909116610100171660011790558015620000ce576000805461ff001916905550565b600054610100900460ff168062000195575062000195620000d1565b80620001a4575060005460ff16155b620001c35760405162461bcd60e51b81526004016200005e9062000230565b600054610100900460ff16158015620001ef576000805460ff1961ff0019909116610100171660011790555b606580546001600160a01b03191673d216153c06e857cd7f72665e0af1d7d82172f4941790558015620000ce576000805461ff001916905550565b3b151590565b6020808252602e908201527f496e697469616c697a61626c653a20636f6e747261637420697320616c72656160408201526d191e481a5b9a5d1a585b1a5e995960921b606082015260800190565b610a97806200028e6000396000f3fe608060405234801561001057600080fd5b50600436106100935760003560e01c80639e30a590116100665780639e30a5901461010c578063ad61ccd51461011f578063c2db1abe14610134578063d737d0c714610147578063e06e0e221461014f57610093565b8063376bf2621461009857806374e861d6146100ad57806380274db7146100cb57806383947ea0146100eb575b600080fd5b6100ab6100a6366004610848565b610162565b005b6100b56101a8565b6040516100c291906108d8565b60405180910390f35b6100de6100d936600461077d565b6101b8565b6040516100c291906108ec565b6100fe6100f93660046106b3565b61020a565b6040516100c2929190610a33565b6100ab61011a366004610690565b61022b565b610127610237565b6040516100c2919061092a565b6100ab610142366004610819565b610256565b6100ab610264565b6100ab61015d3660046107b8565b6102a4565b7faf235354a0a47c91ee171961326335cb2d1a8e55b8a89859b0e61eb049e50ea061018b6102f0565b838360405161019c939291906108f5565b60405180910390a15050565b6065546001600160a01b03165b90565b60006101c26101a8565b6001600160a01b0316336001600160a01b0316146101fb5760405162461bcd60e51b81526004016101f2906109d8565b60405180910390fd5b610204826102ff565b92915050565b60408051602081019091526000808252909b509b9950505050505050505050565b61023481610305565b50565b6040805180820190915260058152640312e302e360dc1b602082015290565b61026082826103c7565b5050565b7fd6558c3ed910d959271054471fd1c326679d9fece99c5091b00ed89627cf2bfc61028d610431565b60405161029a91906108d8565b60405180910390a1565b6102ac6101a8565b6001600160a01b0316336001600160a01b0316146102dc5760405162461bcd60e51b81526004016101f2906109d8565b6102e4848484845b50505050565b3b151590565b60606102fa61043b565b905090565b50600090565b6065546001600160a01b039081169082166103325760405162461bcd60e51b81526004016101f29061093d565b806001600160a01b0316826001600160a01b031614156103645760405162461bcd60e51b81526004016101f29061098b565b816001600160a01b0316816001600160a01b03167fb9f84b8e65164b14439ae3620df0a4d8786d896996c0282b683f9d8c08f046e860405160405180910390a350606580546001600160a01b0319166001600160a01b0392909216919091179055565b6103cf6101a8565b6001600160a01b031662f714ce83836040518363ffffffff1660e01b81526004016103fb929190610a1c565b600060405180830381600087803b15801561041557600080fd5b505af1158015610429573d6000803e3d6000fd5b505050505050565b60006102fa6104ac565b60606104456101a8565b6001600160a01b0316336001600160a01b03161461049d576000368080601f0160208091040260200160405190810160405280939291908181526020018383808284376000920191909152509293506101b592505050565b6104a56104dd565b90506101b5565b60006104b66101a8565b6001600160a01b0316336001600160a01b0316146104d55750336101b5565b6104a561057e565b60606013193601818167ffffffffffffffff811180156104fc57600080fd5b506040519080825280601f01601f191660200182016040528015610527576020820181803683370190505b50905060005b82811015610577576000368281811061054257fe5b9050013560f81c60f81b82828151811061055857fe5b60200101906001600160f81b031916908160001a90535060010161052d565b5091505090565b600060606000368080601f0160208091040260200160405190810160405280939291908181526020018383808284376000920191909152505050503601516001600160a01b031692915050565b60008083601f8401126105dc578182fd5b50813567ffffffffffffffff8111156105f3578182fd5b60208301915083602082850101111561060b57600080fd5b9250929050565b600082601f830112610622578081fd5b813567ffffffffffffffff80821115610639578283fd5b604051601f8301601f191681016020018281118282101715610659578485fd5b60405282815292508284830160200186101561067457600080fd5b8260208601602083013760006020848301015250505092915050565b6000602082840312156106a1578081fd5b81356106ac81610a4c565b9392505050565b60008060008060008060008060008060006101208c8e0312156106d4578687fd5b6106de8c35610a4c565b8b359a5060208c01356106f081610a4c565b995067ffffffffffffffff60408d013581101561070b578788fd5b61071b8e60408f01358f016105cb565b909a50985060608d0135975060808d0135965060a08d0135955060c08d0135945060e08d013581101561074c578384fd5b5061075d8d60e08e01358e016105cb565b81945080935050506101008c013590509295989b509295989b9093969950565b60006020828403121561078e578081fd5b813567ffffffffffffffff8111156107a4578182fd5b6107b084828501610612565b949350505050565b600080600080608085870312156107cd578384fd5b843567ffffffffffffffff8111156107e3578485fd5b6107ef87828801610612565b94505060208501358015158114610804578384fd5b93969395505050506040820135916060013590565b6000806040838503121561082b578182fd5b82359150602083013561083d81610a4c565b809150509250929050565b6000806040838503121561085a578182fd5b82359150602083013567ffffffffffffffff811115610877578182fd5b61088385828601610612565b9150509250929050565b60008151808452815b818110156108b257602081850181015186830182015201610896565b818111156108c35782602083870101525b50601f01601f19169290920160200192915050565b6001600160a01b0391909116815260200190565b90815260200190565b600060608252610908606083018661088d565b8460208401528281036040840152610920818561088d565b9695505050505050565b6000602082526106ac602083018461088d565b6020808252602e908201527f47534e526563697069656e743a206e65772052656c617948756220697320746860408201526d65207a65726f206164647265737360901b606082015260800190565b6020808252602d908201527f47534e526563697069656e743a206e65772052656c617948756220697320746860408201526c652063757272656e74206f6e6560981b606082015260800190565b60208082526024908201527f47534e526563697069656e743a2063616c6c6572206973206e6f742052656c616040820152633ca43ab160e11b606082015260800190565b9182526001600160a01b0316602082015260400190565b6000838252604060208301526107b0604083018461088d565b6001600160a01b038116811461023457600080fdfea26469706673582212205bd008528d4b43c891d38efeb2f893db15d7532be929a483bd0b0593dc51dc5564736f6c634300060c0033",
  "linkReferences": {},
  "deployedLinkReferences": {}
}