{
  "_format": "hh-sol-artifact-1",
  "contractName": "MerkleProofWrapperUpgradeableWithInit",
  "sourceName": "contracts/contracts-upgradeable-v3_4/mocks/WithInit.sol",
  "abi": [
    {
      "inputs": [],
      "stateMutability": "payable",
      "type": "constructor"
    },
    {
      "inputs": [
        {
          "internalType": "bytes32[]",
          "name": "proof",
          "type": "bytes32[]"
        },
        {
          "internalType": "bytes32",
          "name": "root",
          "type": "bytes32"
        },
        {
          "internalType": "bytes32",
          "name": "leaf",
          "type": "bytes32"
        }
      ],
      "name": "verify",
      "outputs": [
        {
          "internalType": "bool",
          "name": "",
          "type": "bool"
        }
      ],
      "stateMutability": "pure",
      "type": "function"
    }
  ],
  "bytecode": "0x608060405261000c610011565b610195565b600054610100900460ff168061002a575061002a6100a5565b80610038575060005460ff16155b61005d5760405162461bcd60e51b815260040161005490610147565b60405180910390fd5b600054610100900460ff16158015610088576000805460ff1961ff0019909116610100171660011790555b6100906100c0565b80156100a2576000805461ff00191690555b50565b60006100ba3061014160201b61006e1760201c565b15905090565b600054610100900460ff16806100d957506100d96100a5565b806100e7575060005460ff16155b6101035760405162461bcd60e51b815260040161005490610147565b600054610100900460ff16158015610090576000805460ff1961ff00199091166101001716600117905580156100a2576000805461ff001916905550565b3b151590565b6020808252602e908201527f496e697469616c697a61626c653a20636f6e747261637420697320616c72656160408201526d191e481a5b9a5d1a585b1a5e995960921b606082015260800190565b61024f806101a46000396000f3fe608060405234801561001057600080fd5b506004361061002b5760003560e01c80635a9a49c714610030575b600080fd5b61004361003e366004610111565b610059565b60405161005091906101c7565b60405180910390f35b6000610066848484610074565b949350505050565b3b151590565b600081815b855181101561010657600086828151811061009057fe5b602002602001015190508083116100d15782816040516020016100b49291906101b9565b6040516020818303038152906040528051906020012092506100fd565b80836040516020016100e49291906101b9565b6040516020818303038152906040528051906020012092505b50600101610079565b509092149392505050565b600080600060608486031215610125578283fd5b833567ffffffffffffffff81111561013b578384fd5b8401601f8101861361014b578384fd5b803561015e610159826101f9565b6101d2565b80828252602080830192508085018a82838702880101111561017e578889fd5b8895505b848610156101a0578035845260019590950194928101928101610182565b5090999088013598506040909701359695505050505050565b918252602082015260400190565b901515815260200190565b60405181810167ffffffffffffffff811182821017156101f157600080fd5b604052919050565b600067ffffffffffffffff82111561020f578081fd5b506020908102019056fea2646970667358221220e65dda55a1c0c536e9ed227c5cd58f00c155c2c144888eb21f213fb830508a2a64736f6c634300060c0033",
  "linkReferences": {},
  "deployedLinkReferences": {}
}