{
  "_format": "hh-sol-artifact-1",
  "contractName": "PausableMockUpgradeableWithInit",
  "sourceName": "contracts/contracts-upgradeable-v3_4/mocks/WithInit.sol",
  "abi": [
    {
      "inputs": [],
      "stateMutability": "payable",
      "type": "constructor"
    },
    {
      "anonymous": false,
      "inputs": [
        {
          "indexed": false,
          "internalType": "address",
          "name": "account",
          "type": "address"
        }
      ],
      "name": "Paused",
      "type": "event"
    },
    {
      "anonymous": false,
      "inputs": [
        {
          "indexed": false,
          "internalType": "address",
          "name": "account",
          "type": "address"
        }
      ],
      "name": "Unpaused",
      "type": "event"
    },
    {
      "inputs": [],
      "name": "count",
      "outputs": [
        {
          "internalType": "uint256",
          "name": "",
          "type": "uint256"
        }
      ],
      "stateMutability": "view",
      "type": "function"
    },
    {
      "inputs": [],
      "name": "drasticMeasure",
      "outputs": [],
      "stateMutability": "nonpayable",
      "type": "function"
    },
    {
      "inputs": [],
      "name": "drasticMeasureTaken",
      "outputs": [
        {
          "internalType": "bool",
          "name": "",
          "type": "bool"
        }
      ],
      "stateMutability": "view",
      "type": "function"
    },
    {
      "inputs": [],
      "name": "normalProcess",
      "outputs": [],
      "stateMutability": "nonpayable",
      "type": "function"
    },
    {
      "inputs": [],
      "name": "pause",
      "outputs": [],
      "stateMutability": "nonpayable",
      "type": "function"
    },
    {
      "inputs": [],
      "name": "paused",
      "outputs": [
        {
          "internalType": "bool",
          "name": "",
          "type": "bool"
        }
      ],
      "stateMutability": "view",
      "type": "function"
    },
    {
      "inputs": [],
      "name": "unpause",
      "outputs": [],
      "stateMutability": "nonpayable",
      "type": "function"
    }
  ],
  "bytecode": "0x608060405261000c610011565b6102c2565b600054610100900460ff168061002a575061002a6100b5565b80610038575060005460ff16155b61005d5760405162461bcd60e51b815260040161005490610274565b60405180910390fd5b600054610100900460ff16158015610088576000805460ff1961ff0019909116610100171660011790555b6100906100d0565b610098610151565b6100a06101dd565b80156100b2576000805461ff00191690555b50565b60006100ca3061026e60201b6101751760201c565b15905090565b600054610100900460ff16806100e957506100e96100b5565b806100f7575060005460ff16155b6101135760405162461bcd60e51b815260040161005490610274565b600054610100900460ff161580156100a0576000805460ff1961ff00199091166101001716600117905580156100b2576000805461ff001916905550565b600054610100900460ff168061016a575061016a6100b5565b80610178575060005460ff16155b6101945760405162461bcd60e51b815260040161005490610274565b600054610100900460ff161580156101bf576000805460ff1961ff0019909116610100171660011790555b6033805460ff1916905580156100b2576000805461ff001916905550565b600054610100900460ff16806101f657506101f66100b5565b80610204575060005460ff16155b6102205760405162461bcd60e51b815260040161005490610274565b600054610100900460ff1615801561024b576000805460ff1961ff0019909116610100171660011790555b6065805460ff19169055600060665580156100b2576000805461ff001916905550565b3b151590565b6020808252602e908201527f496e697469616c697a61626c653a20636f6e747261637420697320616c72656160408201526d191e481a5b9a5d1a585b1a5e995960921b606082015260800190565b6102fa806102d16000396000f3fe608060405234801561001057600080fd5b506004361061007d5760003560e01c806376657b8e1161005b57806376657b8e146100bf5780638456cb59146100c75780639958f045146100cf578063e7651d7a146100d75761007d565b806306661abd146100825780633f4ba83a146100a05780635c975abb146100aa575b600080fd5b61008a6100df565b60405161009791906102bb565b60405180910390f35b6100a86100e5565b005b6100b26100ef565b6040516100979190610258565b6100b26100f8565b6100a8610101565b6100a8610109565b6100a8610145565b60665481565b6100ed61017b565b565b60335460ff1690565b60655460ff1681565b6100ed6101e9565b6101116100ef565b6101365760405162461bcd60e51b815260040161012d90610263565b60405180910390fd5b6065805460ff19166001179055565b61014d6100ef565b1561016a5760405162461bcd60e51b815260040161012d90610291565b606680546001019055565b3b151590565b6101836100ef565b61019f5760405162461bcd60e51b815260040161012d90610263565b6033805460ff191690557f5db9ee0a495bf2e6ff9c91a7834c1ba4fdd244a5e8aa4e537bd38aeae4b073aa6101d2610240565b6040516101df9190610244565b60405180910390a1565b6101f16100ef565b1561020e5760405162461bcd60e51b815260040161012d90610291565b6033805460ff191660011790557f62e78cea01bee320cd4e420270b5ea74000d11b0c9f74754ebdbfc544b05a2586101d25b3390565b6001600160a01b0391909116815260200190565b901515815260200190565b60208082526014908201527314185d5cd8589b194e881b9bdd081c185d5cd95960621b604082015260600190565b60208082526010908201526f14185d5cd8589b194e881c185d5cd95960821b604082015260600190565b9081526020019056fea2646970667358221220c8f50b4740ce0f2dc78e178b8dc6381d478c583d4e4887807fc80d21fb2454f164736f6c634300060c0033",
  "linkReferences": {},
  "deployedLinkReferences": {}
}