{
  "_format": "hh-sol-artifact-1",
  "contractName": "PullPaymentMockUpgradeableWithInit",
  "sourceName": "contracts/contracts-upgradeable-v3_4/mocks/WithInit.sol",
  "abi": [
    {
      "inputs": [],
      "stateMutability": "payable",
      "type": "constructor"
    },
    {
      "inputs": [
        {
          "internalType": "address",
          "name": "dest",
          "type": "address"
        },
        {
          "internalType": "uint256",
          "name": "amount",
          "type": "uint256"
        }
      ],
      "name": "callTransfer",
      "outputs": [],
      "stateMutability": "nonpayable",
      "type": "function"
    },
    {
      "inputs": [
        {
          "internalType": "address",
          "name": "dest",
          "type": "address"
        }
      ],
      "name": "payments",
      "outputs": [
        {
          "internalType": "uint256",
          "name": "",
          "type": "uint256"
        }
      ],
      "stateMutability": "view",
      "type": "function"
    },
    {
      "inputs": [
        {
          "internalType": "address payable",
          "name": "payee",
          "type": "address"
        }
      ],
      "name": "withdrawPayments",
      "outputs": [],
      "stateMutability": "nonpayable",
      "type": "function"
    }
  ],
  "bytecode": "0x608060405261000c610011565b6102e3565b600054610100900460ff168061002a575061002a6100ad565b80610038575060005460ff16155b61005d5760405162461bcd60e51b815260040161005490610295565b60405180910390fd5b600054610100900460ff16158015610088576000805460ff1961ff0019909116610100171660011790555b6100906100c8565b610098610201565b80156100aa576000805461ff00191690555b50565b60006100c23061028260201b61019b1760201c565b15905090565b600054610100900460ff16806100e157506100e16100ad565b806100ef575060005460ff16155b61010b5760405162461bcd60e51b815260040161005490610295565b600054610100900460ff16158015610136576000805460ff1961ff0019909116610100171660011790555b60405161014290610288565b604051809103906000f08015801561015e573d6000803e3d6000fd5b50600060026101000a8154816001600160a01b0302191690836001600160a01b03160217905550600060029054906101000a90046001600160a01b03166001600160a01b0316638129fc1c6040518163ffffffff1660e01b8152600401600060405180830381600087803b1580156101d557600080fd5b505af11580156101e9573d6000803e3d6000fd5b5050505080156100aa576000805461ff001916905550565b600054610100900460ff168061021a575061021a6100ad565b80610228575060005460ff16155b6102445760405162461bcd60e51b815260040161005490610295565b600054610100900460ff16158015610098576000805460ff1961ff00199091166101001716600117905580156100aa576000805461ff001916905550565b3b151590565b610a78806105d183390190565b6020808252602e908201527f496e697469616c697a61626c653a20636f6e747261637420697320616c72656160408201526d191e481a5b9a5d1a585b1a5e995960921b606082015260800190565b6102df806102f26000396000f3fe608060405234801561001057600080fd5b50600436106100415760003560e01c806331b3eb9414610046578063d44409911461005b578063e2982c211461006e575b600080fd5b61005961005436600461020e565b610097565b005b610059610069366004610231565b610101565b61008161007c36600461020e565b61010f565b60405161008e9190610288565b60405180910390f35b6000546040516351cff8d960e01b8152620100009091046001600160a01b0316906351cff8d9906100cc908490600401610274565b600060405180830381600087803b1580156100e657600080fd5b505af11580156100fa573d6000803e3d6000fd5b5050505050565b61010b82826101a1565b5050565b600080546040516371d4ed8d60e11b8152620100009091046001600160a01b03169063e3a9db1a90610145908590600401610274565b60206040518083038186803b15801561015d57600080fd5b505afa158015610171573d6000803e3d6000fd5b505050506040513d601f19601f82011682018060405250810190610195919061025c565b92915050565b3b151590565b60005460405163f340fa0160e01b8152620100009091046001600160a01b03169063f340fa019083906101d8908690600401610274565b6000604051808303818588803b1580156101f157600080fd5b505af1158015610205573d6000803e3d6000fd5b50505050505050565b60006020828403121561021f578081fd5b813561022a81610291565b9392505050565b60008060408385031215610243578081fd5b823561024e81610291565b946020939093013593505050565b60006020828403121561026d578081fd5b5051919050565b6001600160a01b0391909116815260200190565b90815260200190565b6001600160a01b03811681146102a657600080fd5b5056fea26469706673582212201d9596497189c78b3a33d567c498e1a30a69a0aede46af0945eca229fe62a40b64736f6c634300060c0033608060405234801561001057600080fd5b50610a58806100206000396000f3fe6080604052600436106100705760003560e01c80638da5cb5b1161004e5780638da5cb5b146100d4578063e3a9db1a14610105578063f2fde38b1461014a578063f340fa011461017d57610070565b806351cff8d914610075578063715018a6146100aa5780638129fc1c146100bf575b600080fd5b34801561008157600080fd5b506100a86004803603602081101561009857600080fd5b50356001600160a01b03166101a3565b005b3480156100b657600080fd5b506100a8610270565b3480156100cb57600080fd5b506100a861031c565b3480156100e057600080fd5b506100e96103c6565b604080516001600160a01b039092168252519081900360200190f35b34801561011157600080fd5b506101386004803603602081101561012857600080fd5b50356001600160a01b03166103d5565b60408051918252519081900360200190f35b34801561015657600080fd5b506100a86004803603602081101561016d57600080fd5b50356001600160a01b03166103f0565b6100a86004803603602081101561019357600080fd5b50356001600160a01b03166104f3565b6101ab6105d0565b6001600160a01b03166101bc6103c6565b6001600160a01b031614610205576040805162461bcd60e51b81526020600482018190526024820152600080516020610a03833981519152604482015290519081900360640190fd5b6001600160a01b038116600081815260656020526040812080549190559061022d90826105d4565b6040805182815290516001600160a01b038416917f7084f5476618d8e60b11ef0d7d3f06914655adb8793e28ff7f018d4c76d505d5919081900360200190a25050565b6102786105d0565b6001600160a01b03166102896103c6565b6001600160a01b0316146102d2576040805162461bcd60e51b81526020600482018190526024820152600080516020610a03833981519152604482015290519081900360640190fd5b6033546040516000916001600160a01b0316907f8be0079c531659141344cd1fd0a4f28419497f9722a3daafe3b4186f6b6457e0908390a3603380546001600160a01b0319169055565b600054610100900460ff168061033557506103356106be565b80610343575060005460ff16155b61037e5760405162461bcd60e51b815260040180806020018281038252602e8152602001806109d5602e913960400191505060405180910390fd5b600054610100900460ff161580156103a9576000805460ff1961ff0019909116610100171660011790555b6103b16106cf565b80156103c3576000805461ff00191690555b50565b6033546001600160a01b031690565b6001600160a01b031660009081526065602052604090205490565b6103f86105d0565b6001600160a01b03166104096103c6565b6001600160a01b031614610452576040805162461bcd60e51b81526020600482018190526024820152600080516020610a03833981519152604482015290519081900360640190fd5b6001600160a01b0381166104975760405162461bcd60e51b81526004018080602001828103825260268152602001806109756026913960400191505060405180910390fd5b6033546040516001600160a01b038084169216907f8be0079c531659141344cd1fd0a4f28419497f9722a3daafe3b4186f6b6457e090600090a3603380546001600160a01b0319166001600160a01b0392909216919091179055565b6104fb6105d0565b6001600160a01b031661050c6103c6565b6001600160a01b031614610555576040805162461bcd60e51b81526020600482018190526024820152600080516020610a03833981519152604482015290519081900360640190fd5b6001600160a01b038116600090815260656020526040902054349061057a9082610774565b6001600160a01b038316600081815260656020908152604091829020939093558051848152905191927f2da466a7b24304f47e87fa2e1e5a81b9831ce54fec19055ce277ca2f39ba42c492918290030190a25050565b3390565b80471015610629576040805162461bcd60e51b815260206004820152601d60248201527f416464726573733a20696e73756666696369656e742062616c616e6365000000604482015290519081900360640190fd5b6040516000906001600160a01b0384169083908381818185875af1925050503d8060008114610674576040519150601f19603f3d011682016040523d82523d6000602084013e610679565b606091505b50509050806106b95760405162461bcd60e51b815260040180806020018281038252603a81526020018061099b603a913960400191505060405180910390fd5b505050565b60006106c9306107d5565b15905090565b600054610100900460ff16806106e857506106e86106be565b806106f6575060005460ff16155b6107315760405162461bcd60e51b815260040180806020018281038252602e8152602001806109d5602e913960400191505060405180910390fd5b600054610100900460ff1615801561075c576000805460ff1961ff0019909116610100171660011790555b6107646107db565b61076c61087b565b6103b16107db565b6000828201838110156107ce576040805162461bcd60e51b815260206004820152601b60248201527f536166654d6174683a206164646974696f6e206f766572666c6f770000000000604482015290519081900360640190fd5b9392505050565b3b151590565b600054610100900460ff16806107f457506107f46106be565b80610802575060005460ff16155b61083d5760405162461bcd60e51b815260040180806020018281038252602e8152602001806109d5602e913960400191505060405180910390fd5b600054610100900460ff161580156103b1576000805460ff1961ff00199091166101001716600117905580156103c3576000805461ff001916905550565b600054610100900460ff168061089457506108946106be565b806108a2575060005460ff16155b6108dd5760405162461bcd60e51b815260040180806020018281038252602e8152602001806109d5602e913960400191505060405180910390fd5b600054610100900460ff16158015610908576000805460ff1961ff0019909116610100171660011790555b60006109126105d0565b603380546001600160a01b0319166001600160a01b038316908117909155604051919250906000907f8be0079c531659141344cd1fd0a4f28419497f9722a3daafe3b4186f6b6457e0908290a35080156103c3576000805461ff00191690555056fe4f776e61626c653a206e6577206f776e657220697320746865207a65726f2061646472657373416464726573733a20756e61626c6520746f2073656e642076616c75652c20726563697069656e74206d61792068617665207265766572746564496e697469616c697a61626c653a20636f6e747261637420697320616c726561647920696e697469616c697a65644f776e61626c653a2063616c6c6572206973206e6f7420746865206f776e6572a2646970667358221220f32a2c36c3e2830b8666961c38a102ee6d4830de3861f49d926f256d607d35d564736f6c634300060c0033",
  "linkReferences": {},
  "deployedLinkReferences": {}
}