{
  "_format": "hh-sol-artifact-1",
  "contractName": "RefundEscrowUpgradeableWithInit",
  "sourceName": "contracts/contracts-upgradeable-v3_4/mocks/WithInit.sol",
  "abi": [
    {
      "inputs": [
        {
          "internalType": "address payable",
          "name": "beneficiary_",
          "type": "address"
        }
      ],
      "stateMutability": "payable",
      "type": "constructor"
    },
    {
      "anonymous": false,
      "inputs": [
        {
          "indexed": true,
          "internalType": "address",
          "name": "payee",
          "type": "address"
        },
        {
          "indexed": false,
          "internalType": "uint256",
          "name": "weiAmount",
          "type": "uint256"
        }
      ],
      "name": "Deposited",
      "type": "event"
    },
    {
      "anonymous": false,
      "inputs": [
        {
          "indexed": true,
          "internalType": "address",
          "name": "previousOwner",
          "type": "address"
        },
        {
          "indexed": true,
          "internalType": "address",
          "name": "newOwner",
          "type": "address"
        }
      ],
      "name": "OwnershipTransferred",
      "type": "event"
    },
    {
      "anonymous": false,
      "inputs": [],
      "name": "RefundsClosed",
      "type": "event"
    },
    {
      "anonymous": false,
      "inputs": [],
      "name": "RefundsEnabled",
      "type": "event"
    },
    {
      "anonymous": false,
      "inputs": [
        {
          "indexed": true,
          "internalType": "address",
          "name": "payee",
          "type": "address"
        },
        {
          "indexed": false,
          "internalType": "uint256",
          "name": "weiAmount",
          "type": "uint256"
        }
      ],
      "name": "Withdrawn",
      "type": "event"
    },
    {
      "inputs": [],
      "name": "beneficiary",
      "outputs": [
        {
          "internalType": "address payable",
          "name": "",
          "type": "address"
        }
      ],
      "stateMutability": "view",
      "type": "function"
    },
    {
      "inputs": [],
      "name": "beneficiaryWithdraw",
      "outputs": [],
      "stateMutability": "nonpayable",
      "type": "function"
    },
    {
      "inputs": [],
      "name": "close",
      "outputs": [],
      "stateMutability": "nonpayable",
      "type": "function"
    },
    {
      "inputs": [
        {
          "internalType": "address",
          "name": "refundee",
          "type": "address"
        }
      ],
      "name": "deposit",
      "outputs": [],
      "stateMutability": "payable",
      "type": "function"
    },
    {
      "inputs": [
        {
          "internalType": "address",
          "name": "payee",
          "type": "address"
        }
      ],
      "name": "depositsOf",
      "outputs": [
        {
          "internalType": "uint256",
          "name": "",
          "type": "uint256"
        }
      ],
      "stateMutability": "view",
      "type": "function"
    },
    {
      "inputs": [],
      "name": "enableRefunds",
      "outputs": [],
      "stateMutability": "nonpayable",
      "type": "function"
    },
    {
      "inputs": [],
      "name": "initialize",
      "outputs": [],
      "stateMutability": "nonpayable",
      "type": "function"
    },
    {
      "inputs": [],
      "name": "owner",
      "outputs": [
        {
          "internalType": "address",
          "name": "",
          "type": "address"
        }
      ],
      "stateMutability": "view",
      "type": "function"
    },
    {
      "inputs": [],
      "name": "renounceOwnership",
      "outputs": [],
      "stateMutability": "nonpayable",
      "type": "function"
    },
    {
      "inputs": [],
      "name": "state",
      "outputs": [
        {
          "internalType": "enum RefundEscrowUpgradeable.State",
          "name": "",
          "type": "uint8"
        }
      ],
      "stateMutability": "view",
      "type": "function"
    },
    {
      "inputs": [
        {
          "internalType": "address",
          "name": "newOwner",
          "type": "address"
        }
      ],
      "name": "transferOwnership",
      "outputs": [],
      "stateMutability": "nonpayable",
      "type": "function"
    },
    {
      "inputs": [
        {
          "internalType": "address payable",
          "name": "payee",
          "type": "address"
        }
      ],
      "name": "withdraw",
      "outputs": [],
      "stateMutability": "nonpayable",
      "type": "function"
    },
    {
      "inputs": [
        {
          "internalType": "address",
          "name": "",
          "type": "address"
        }
      ],
      "name": "withdrawalAllowed",
      "outputs": [
        {
          "internalType": "bool",
          "name": "",
          "type": "bool"
        }
      ],
      "stateMutability": "view",
      "type": "function"
    }
  ],
  "bytecode": "0x6080604052604051620012d4380380620012d4833981016040819052620000269162000373565b620000318162000038565b506200043e565b600054610100900460ff16806200005457506200005462000101565b8062000063575060005460ff16155b6200008b5760405162461bcd60e51b81526004016200008290620003a3565b60405180910390fd5b600054610100900460ff16158015620000b7576000805460ff1961ff0019909116610100171660011790555b620000c16200011f565b620000cb620001ab565b620000d56200011f565b620000df6200011f565b620000ea8262000290565b8015620000fd576000805461ff00191690555b5050565b600062000119306200036960201b620006901760201c565b15905090565b600054610100900460ff16806200013b57506200013b62000101565b806200014a575060005460ff16155b620001695760405162461bcd60e51b81526004016200008290620003a3565b600054610100900460ff1615801562000195576000805460ff1961ff0019909116610100171660011790555b8015620001a8576000805461ff00191690555b50565b600054610100900460ff1680620001c75750620001c762000101565b80620001d6575060005460ff16155b620001f55760405162461bcd60e51b81526004016200008290620003a3565b600054610100900460ff1615801562000221576000805460ff1961ff0019909116610100171660011790555b60006200022d6200036f565b603380546001600160a01b0319166001600160a01b038316908117909155604051919250906000907f8be0079c531659141344cd1fd0a4f28419497f9722a3daafe3b4186f6b6457e0908290a3508015620001a8576000805461ff001916905550565b600054610100900460ff1680620002ac5750620002ac62000101565b80620002bb575060005460ff16155b620002da5760405162461bcd60e51b81526004016200008290620003a3565b600054610100900460ff1615801562000306576000805460ff1961ff0019909116610100171660011790555b6001600160a01b0382166200032f5760405162461bcd60e51b81526004016200008290620003f1565b60c98054610100600160a81b0319166101006001600160a01b038516021760ff191690558015620000fd576000805461ff00191690555050565b3b151590565b3390565b60006020828403121562000385578081fd5b81516001600160a01b03811681146200039c578182fd5b9392505050565b6020808252602e908201527f496e697469616c697a61626c653a20636f6e747261637420697320616c72656160408201526d191e481a5b9a5d1a585b1a5e995960921b606082015260800190565b6020808252602d908201527f526566756e64457363726f773a2062656e65666963696172792069732074686560408201526c207a65726f206164647265737360981b606082015260800190565b610e86806200044e6000396000f3fe6080604052600436106100c25760003560e01c80638c52dc411161007f578063c19d93fb11610059578063c19d93fb146101bf578063e3a9db1a146101e1578063f2fde38b1461020e578063f340fa011461022e576100c2565b80638c52dc41146101805780638da5cb5b146101955780639af6549a146101aa576100c2565b806338af3eed146100c757806343d726d6146100f257806351cff8d914610109578063685ca19414610129578063715018a6146101565780638129fc1c1461016b575b600080fd5b3480156100d357600080fd5b506100dc610241565b6040516100e99190610ad5565b60405180910390f35b3480156100fe57600080fd5b50610107610255565b005b34801561011557600080fd5b50610107610124366004610ab6565b610307565b34801561013557600080fd5b50610149610144366004610ab6565b610338565b6040516100e99190610ae9565b34801561016257600080fd5b50610107610356565b34801561017757600080fd5b506101076103df565b34801561018c57600080fd5b50610107610469565b3480156101a157600080fd5b506100dc610512565b3480156101b657600080fd5b50610107610521565b3480156101cb57600080fd5b506101d4610570565b6040516100e99190610af4565b3480156101ed57600080fd5b506102016101fc366004610ab6565b610579565b6040516100e99190610e32565b34801561021a57600080fd5b50610107610229366004610ab6565b610594565b61010761023c366004610ab6565b610655565b60c95461010090046001600160a01b031690565b61025d610696565b6001600160a01b031661026e610512565b6001600160a01b03161461029d5760405162461bcd60e51b815260040161029490610dab565b60405180910390fd5b60006102a7610570565b60028111156102b257fe5b146102cf5760405162461bcd60e51b815260040161029490610d62565b60c9805460ff191660021790556040517f088672c3a6e342f7cd94a65ba63b79df24a8973927b4d05d803c44bbf787d12f90600090a1565b61031081610338565b61032c5760405162461bcd60e51b815260040161029490610d0f565b6103358161069a565b50565b60006001610344610570565b600281111561034f57fe5b1492915050565b61035e610696565b6001600160a01b031661036f610512565b6001600160a01b0316146103955760405162461bcd60e51b815260040161029490610dab565b6033546040516000916001600160a01b0316907f8be0079c531659141344cd1fd0a4f28419497f9722a3daafe3b4186f6b6457e0908390a3603380546001600160a01b0319169055565b600054610100900460ff16806103f857506103f8610746565b80610406575060005460ff16155b6104225760405162461bcd60e51b815260040161029490610cc1565b600054610100900460ff1615801561044d576000805460ff1961ff0019909116610100171660011790555b610455610757565b8015610335576000805461ff001916905550565b610471610696565b6001600160a01b0316610482610512565b6001600160a01b0316146104a85760405162461bcd60e51b815260040161029490610dab565b60006104b2610570565b60028111156104bd57fe5b146104da5760405162461bcd60e51b815260040161029490610de0565b60c9805460ff191660011790556040517f599d8e5a83cffb867d051598c4d70e805d59802d8081c1c7d6dffc5b6aca2b8990600090a1565b6033546001600160a01b031690565b600261052b610570565b600281111561053657fe5b146105535760405162461bcd60e51b815260040161029490610b08565b61056e4761055f610241565b6001600160a01b0316906107dd565b565b60c95460ff1690565b6001600160a01b031660009081526065602052604090205490565b61059c610696565b6001600160a01b03166105ad610512565b6001600160a01b0316146105d35760405162461bcd60e51b815260040161029490610dab565b6001600160a01b0381166105f95760405162461bcd60e51b815260040161029490610b65565b6033546040516001600160a01b038084169216907f8be0079c531659141344cd1fd0a4f28419497f9722a3daafe3b4186f6b6457e090600090a3603380546001600160a01b0319166001600160a01b0392909216919091179055565b600061065f610570565b600281111561066a57fe5b146106875760405162461bcd60e51b815260040161029490610c76565b6103358161087e565b3b151590565b3390565b6106a2610696565b6001600160a01b03166106b3610512565b6001600160a01b0316146106d95760405162461bcd60e51b815260040161029490610dab565b6001600160a01b038116600081815260656020526040812080549190559061070190826107dd565b816001600160a01b03167f7084f5476618d8e60b11ef0d7d3f06914655adb8793e28ff7f018d4c76d505d58260405161073a9190610e32565b60405180910390a25050565b600061075130610690565b15905090565b600054610100900460ff16806107705750610770610746565b8061077e575060005460ff16155b61079a5760405162461bcd60e51b815260040161029490610cc1565b600054610100900460ff161580156107c5576000805460ff1961ff0019909116610100171660011790555b6107cd61092f565b6107d56109b0565b61045561092f565b804710156107fd5760405162461bcd60e51b815260040161029490610c3f565b6000826001600160a01b03168260405161081690610ad2565b60006040518083038185875af1925050503d8060008114610853576040519150601f19603f3d011682016040523d82523d6000602084013e610858565b606091505b50509050806108795760405162461bcd60e51b815260040161029490610be2565b505050565b610886610696565b6001600160a01b0316610897610512565b6001600160a01b0316146108bd5760405162461bcd60e51b815260040161029490610dab565b6001600160a01b03811660009081526065602052604090205434906108e29082610a8a565b6001600160a01b038316600081815260656020526040908190209290925590517f2da466a7b24304f47e87fa2e1e5a81b9831ce54fec19055ce277ca2f39ba42c49061073a908490610e32565b600054610100900460ff16806109485750610948610746565b80610956575060005460ff16155b6109725760405162461bcd60e51b815260040161029490610cc1565b600054610100900460ff16158015610455576000805460ff1961ff0019909116610100171660011790558015610335576000805461ff001916905550565b600054610100900460ff16806109c957506109c9610746565b806109d7575060005460ff16155b6109f35760405162461bcd60e51b815260040161029490610cc1565b600054610100900460ff16158015610a1e576000805460ff1961ff0019909116610100171660011790555b6000610a28610696565b603380546001600160a01b0319166001600160a01b038316908117909155604051919250906000907f8be0079c531659141344cd1fd0a4f28419497f9722a3daafe3b4186f6b6457e0908290a3508015610335576000805461ff001916905550565b600082820183811015610aaf5760405162461bcd60e51b815260040161029490610bab565b9392505050565b600060208284031215610ac7578081fd5b8135610aaf81610e3b565b90565b6001600160a01b0391909116815260200190565b901515815260200190565b6020810160038310610b0257fe5b91905290565b60208082526038908201527f526566756e64457363726f773a2062656e65666963696172792063616e206f6e60408201527f6c79207769746864726177207768696c6520636c6f7365640000000000000000606082015260800190565b60208082526026908201527f4f776e61626c653a206e6577206f776e657220697320746865207a65726f206160408201526564647265737360d01b606082015260800190565b6020808252601b908201527f536166654d6174683a206164646974696f6e206f766572666c6f770000000000604082015260600190565b6020808252603a908201527f416464726573733a20756e61626c6520746f2073656e642076616c75652c207260408201527f6563697069656e74206d61792068617665207265766572746564000000000000606082015260800190565b6020808252601d908201527f416464726573733a20696e73756666696369656e742062616c616e6365000000604082015260600190565b6020808252602b908201527f526566756e64457363726f773a2063616e206f6e6c79206465706f736974207760408201526a68696c652061637469766560a81b606082015260800190565b6020808252602e908201527f496e697469616c697a61626c653a20636f6e747261637420697320616c72656160408201526d191e481a5b9a5d1a585b1a5e995960921b606082015260800190565b60208082526033908201527f436f6e646974696f6e616c457363726f773a207061796565206973206e6f7420604082015272616c6c6f77656420746f20776974686472617760681b606082015260800190565b60208082526029908201527f526566756e64457363726f773a2063616e206f6e6c7920636c6f7365207768696040820152686c652061637469766560b81b606082015260800190565b6020808252818101527f4f776e61626c653a2063616c6c6572206973206e6f7420746865206f776e6572604082015260600190565b60208082526032908201527f526566756e64457363726f773a2063616e206f6e6c7920656e61626c6520726560408201527166756e6473207768696c652061637469766560701b606082015260800190565b90815260200190565b6001600160a01b038116811461033557600080fdfea264697066735822122072d54cd770883dbe5f744b560d0c0c47b438ce4b5d4e7a1557877e76c7725f8864736f6c634300060c0033",
  "linkReferences": {},
  "deployedLinkReferences": {}
}