{
  "_format": "hh-sol-artifact-1",
  "contractName": "SafeMathMockUpgradeableWithInit",
  "sourceName": "contracts/contracts-upgradeable-v3_4/mocks/WithInit.sol",
  "abi": [
    {
      "inputs": [],
      "stateMutability": "payable",
      "type": "constructor"
    },
    {
      "inputs": [],
      "name": "addMemoryCheck",
      "outputs": [
        {
          "internalType": "uint256",
          "name": "mem",
          "type": "uint256"
        }
      ],
      "stateMutability": "pure",
      "type": "function"
    },
    {
      "inputs": [],
      "name": "divMemoryCheck",
      "outputs": [
        {
          "internalType": "uint256",
          "name": "mem",
          "type": "uint256"
        }
      ],
      "stateMutability": "pure",
      "type": "function"
    },
    {
      "inputs": [
        {
          "internalType": "uint256",
          "name": "a",
          "type": "uint256"
        },
        {
          "internalType": "uint256",
          "name": "b",
          "type": "uint256"
        },
        {
          "internalType": "string",
          "name": "errorMessage",
          "type": "string"
        }
      ],
      "name": "divWithMessage",
      "outputs": [
        {
          "internalType": "uint256",
          "name": "",
          "type": "uint256"
        }
      ],
      "stateMutability": "pure",
      "type": "function"
    },
    {
      "inputs": [
        {
          "internalType": "uint256",
          "name": "a",
          "type": "uint256"
        },
        {
          "internalType": "uint256",
          "name": "b",
          "type": "uint256"
        }
      ],
      "name": "doAdd",
      "outputs": [
        {
          "internalType": "uint256",
          "name": "",
          "type": "uint256"
        }
      ],
      "stateMutability": "pure",
      "type": "function"
    },
    {
      "inputs": [
        {
          "internalType": "uint256",
          "name": "a",
          "type": "uint256"
        },
        {
          "internalType": "uint256",
          "name": "b",
          "type": "uint256"
        }
      ],
      "name": "doDiv",
      "outputs": [
        {
          "internalType": "uint256",
          "name": "",
          "type": "uint256"
        }
      ],
      "stateMutability": "pure",
      "type": "function"
    },
    {
      "inputs": [
        {
          "internalType": "uint256",
          "name": "a",
          "type": "uint256"
        },
        {
          "internalType": "uint256",
          "name": "b",
          "type": "uint256"
        }
      ],
      "name": "doMod",
      "outputs": [
        {
          "internalType": "uint256",
          "name": "",
          "type": "uint256"
        }
      ],
      "stateMutability": "pure",
      "type": "function"
    },
    {
      "inputs": [
        {
          "internalType": "uint256",
          "name": "a",
          "type": "uint256"
        },
        {
          "internalType": "uint256",
          "name": "b",
          "type": "uint256"
        }
      ],
      "name": "doMul",
      "outputs": [
        {
          "internalType": "uint256",
          "name": "",
          "type": "uint256"
        }
      ],
      "stateMutability": "pure",
      "type": "function"
    },
    {
      "inputs": [
        {
          "internalType": "uint256",
          "name": "a",
          "type": "uint256"
        },
        {
          "internalType": "uint256",
          "name": "b",
          "type": "uint256"
        }
      ],
      "name": "doSub",
      "outputs": [
        {
          "internalType": "uint256",
          "name": "",
          "type": "uint256"
        }
      ],
      "stateMutability": "pure",
      "type": "function"
    },
    {
      "inputs": [],
      "name": "modMemoryCheck",
      "outputs": [
        {
          "internalType": "uint256",
          "name": "mem",
          "type": "uint256"
        }
      ],
      "stateMutability": "pure",
      "type": "function"
    },
    {
      "inputs": [
        {
          "internalType": "uint256",
          "name": "a",
          "type": "uint256"
        },
        {
          "internalType": "uint256",
          "name": "b",
          "type": "uint256"
        },
        {
          "internalType": "string",
          "name": "errorMessage",
          "type": "string"
        }
      ],
      "name": "modWithMessage",
      "outputs": [
        {
          "internalType": "uint256",
          "name": "",
          "type": "uint256"
        }
      ],
      "stateMutability": "pure",
      "type": "function"
    },
    {
      "inputs": [],
      "name": "mulMemoryCheck",
      "outputs": [
        {
          "internalType": "uint256",
          "name": "mem",
          "type": "uint256"
        }
      ],
      "stateMutability": "pure",
      "type": "function"
    },
    {
      "inputs": [],
      "name": "subMemoryCheck",
      "outputs": [
        {
          "internalType": "uint256",
          "name": "mem",
          "type": "uint256"
        }
      ],
      "stateMutability": "pure",
      "type": "function"
    },
    {
      "inputs": [
        {
          "internalType": "uint256",
          "name": "a",
          "type": "uint256"
        },
        {
          "internalType": "uint256",
          "name": "b",
          "type": "uint256"
        },
        {
          "internalType": "string",
          "name": "errorMessage",
          "type": "string"
        }
      ],
      "name": "subWithMessage",
      "outputs": [
        {
          "internalType": "uint256",
          "name": "",
          "type": "uint256"
        }
      ],
      "stateMutability": "pure",
      "type": "function"
    },
    {
      "inputs": [
        {
          "internalType": "uint256",
          "name": "a",
          "type": "uint256"
        },
        {
          "internalType": "uint256",
          "name": "b",
          "type": "uint256"
        }
      ],
      "name": "tryAdd",
      "outputs": [
        {
          "internalType": "bool",
          "name": "flag",
          "type": "bool"
        },
        {
          "internalType": "uint256",
          "name": "value",
          "type": "uint256"
        }
      ],
      "stateMutability": "pure",
      "type": "function"
    },
    {
      "inputs": [
        {
          "internalType": "uint256",
          "name": "a",
          "type": "uint256"
        },
        {
          "internalType": "uint256",
          "name": "b",
          "type": "uint256"
        }
      ],
      "name": "tryDiv",
      "outputs": [
        {
          "internalType": "bool",
          "name": "flag",
          "type": "bool"
        },
        {
          "internalType": "uint256",
          "name": "value",
          "type": "uint256"
        }
      ],
      "stateMutability": "pure",
      "type": "function"
    },
    {
      "inputs": [
        {
          "internalType": "uint256",
          "name": "a",
          "type": "uint256"
        },
        {
          "internalType": "uint256",
          "name": "b",
          "type": "uint256"
        }
      ],
      "name": "tryMod",
      "outputs": [
        {
          "internalType": "bool",
          "name": "flag",
          "type": "bool"
        },
        {
          "internalType": "uint256",
          "name": "value",
          "type": "uint256"
        }
      ],
      "stateMutability": "pure",
      "type": "function"
    },
    {
      "inputs": [
        {
          "internalType": "uint256",
          "name": "a",
          "type": "uint256"
        },
        {
          "internalType": "uint256",
          "name": "b",
          "type": "uint256"
        }
      ],
      "name": "tryMul",
      "outputs": [
        {
          "internalType": "bool",
          "name": "flag",
          "type": "bool"
        },
        {
          "internalType": "uint256",
          "name": "value",
          "type": "uint256"
        }
      ],
      "stateMutability": "pure",
      "type": "function"
    },
    {
      "inputs": [
        {
          "internalType": "uint256",
          "name": "a",
          "type": "uint256"
        },
        {
          "internalType": "uint256",
          "name": "b",
          "type": "uint256"
        }
      ],
      "name": "trySub",
      "outputs": [
        {
          "internalType": "bool",
          "name": "flag",
          "type": "bool"
        },
        {
          "internalType": "uint256",
          "name": "value",
          "type": "uint256"
        }
      ],
      "stateMutability": "pure",
      "type": "function"
    }
  ],
  "bytecode": "0x608060405261000c610011565b610195565b600054610100900460ff168061002a575061002a6100a5565b80610038575060005460ff16155b61005d5760405162461bcd60e51b815260040161005490610147565b60405180910390fd5b600054610100900460ff16158015610088576000805460ff1961ff0019909116610100171660011790555b6100906100c0565b80156100a2576000805461ff00191690555b50565b60006100ba3061014160201b6103dc1760201c565b15905090565b600054610100900460ff16806100d957506100d96100a5565b806100e7575060005460ff16155b6101035760405162461bcd60e51b815260040161005490610147565b600054610100900460ff16158015610090576000805460ff1961ff00199091166101001716600117905580156100a2576000805461ff001916905550565b3b151590565b6020808252602e908201527f496e697469616c697a61626c653a20636f6e747261637420697320616c72656160408201526d191e481a5b9a5d1a585b1a5e995960921b606082015260800190565b6108ef806101a46000396000f3fe608060405234801561001057600080fd5b50600436106101165760003560e01c80639f5cec89116100a2578063dcc721d211610071578063dcc721d214610215578063fb11919814610228578063fb24c8601461023b578063fb999ded14610243578063fc0ce5031461024b57610116565b80639f5cec89146101d4578063a155bd62146101e7578063a29962b1146101fa578063c460ae041461020d57610116565b80636f91e802116100e95780636f91e8021461018b578063736ecb18146101935780637e86d25c146101a6578063869f602f146101ae578063884557bf146101c157610116565b80633449b5fb1461011b57806338dc0867146101445780636281efa4146101655780636c7ac63714610178575b600080fd5b61012e61012936600461065c565b61025e565b60405161013b919061087d565b60405180910390f35b61015761015236600461063b565b610273565b60405161013b9291906106fd565b61015761017336600461063b565b61028c565b61012e61018636600461063b565b610299565b61012e6102ae565b6101576101a136600461063b565b6102db565b61012e6102e8565b61012e6101bc36600461063b565b61030c565b6101576101cf36600461063b565b610318565b61012e6101e236600461065c565b610325565b61012e6101f536600461065c565b610332565b61015761020836600461063b565b61033f565b61012e61034c565b61012e61022336600461063b565b610370565b61012e61023636600461063b565b61037c565b61012e610388565b61012e6103ac565b61012e61025936600461063b565b6103d0565b600061026b8484846103e2565b949350505050565b600080610280848461041f565b915091505b9250929050565b6000806102808484610449565b60006102a58383610489565b90505b92915050565b604051602060005b818110156102d2576102c96001806104b1565b506001016102b6565b50506040510390565b60008061028084846104e3565b604051602060005b818110156102d25761030360018061050d565b506001016102f0565b60006102a583836104b1565b6000806102808484610547565b600061026b848484610562565b600061026b84848461058e565b60008061028084846105c2565b604051602060005b818110156102d2576103676001806105e4565b50600101610354565b60006102a58383610616565b60006102a5838361050d565b604051602060005b818110156102d2576103a3600180610616565b50600101610390565b604051602060005b818110156102d2576103c7600180610489565b506001016103b4565b60006102a583836105e4565b3b151590565b6000818361040c5760405162461bcd60e51b8152600401610403919061070d565b60405180910390fd5b5082848161041657fe5b04949350505050565b6000808261043257506000905080610285565b600183858161043d57fe5b06915091509250929050565b6000808361045d5750600190506000610285565b8383028385828161046a57fe5b041461047d576000809250925050610285565b60019590945092505050565b6000828211156104ab5760405162461bcd60e51b815260040161040390610797565b50900390565b60008082116104d25760405162461bcd60e51b815260040161040390610805565b8183816104db57fe5b069392505050565b600080826104f657506000905080610285565b600183858161050157fe5b04915091509250929050565b60008261051c575060006102a8565b8282028284828161052957fe5b04146102a55760405162461bcd60e51b81526004016104039061083c565b6000808383018481101561047d576000809250925050610285565b600081848411156105865760405162461bcd60e51b8152600401610403919061070d565b505050900390565b600081836105af5760405162461bcd60e51b8152600401610403919061070d565b508284816105b957fe5b06949350505050565b600080838311156105d857506000905080610285565b50600193919092039150565b60008082116106055760405162461bcd60e51b8152600401610403906107ce565b81838161060e57fe5b049392505050565b6000828201838110156102a55760405162461bcd60e51b815260040161040390610760565b6000806040838503121561064d578182fd5b50508035926020909101359150565b600080600060608486031215610670578081fd5b8335925060208401359150604084013567ffffffffffffffff80821115610695578283fd5b818601915086601f8301126106a8578283fd5b8135818111156106b6578384fd5b6106c9601f8201601f1916602001610886565b91508082528760208285010111156106df578384fd5b6106f08160208401602086016108ad565b5080925050509250925092565b9115158252602082015260400190565b6000602080835283518082850152825b818110156107395785810183015185820160400152820161071d565b8181111561074a5783604083870101525b50601f01601f1916929092016040019392505050565b6020808252601b908201527f536166654d6174683a206164646974696f6e206f766572666c6f770000000000604082015260600190565b6020808252601e908201527f536166654d6174683a207375627472616374696f6e206f766572666c6f770000604082015260600190565b6020808252601a908201527f536166654d6174683a206469766973696f6e206279207a65726f000000000000604082015260600190565b60208082526018908201527f536166654d6174683a206d6f64756c6f206279207a65726f0000000000000000604082015260600190565b60208082526021908201527f536166654d6174683a206d756c7469706c69636174696f6e206f766572666c6f6040820152607760f81b606082015260800190565b90815260200190565b60405181810167ffffffffffffffff811182821017156108a557600080fd5b604052919050565b8281833750600091015256fea26469706673582212207546a3d14b3ad5aad7c88272c484f2d3429acfb6c6c3886a06f97f404946426764736f6c634300060c0033",
  "linkReferences": {},
  "deployedLinkReferences": {}
}