{
  "_format": "hh-sol-artifact-1",
  "contractName": "SafeERC20WrapperUpgradeableWithInit",
  "sourceName": "contracts/contracts-upgradeable-v3_4/mocks/WithInit.sol",
  "abi": [
    {
      "inputs": [
        {
          "internalType": "contract IERC20Upgradeable",
          "name": "token",
          "type": "address"
        }
      ],
      "stateMutability": "payable",
      "type": "constructor"
    },
    {
      "inputs": [],
      "name": "allowance",
      "outputs": [
        {
          "internalType": "uint256",
          "name": "",
          "type": "uint256"
        }
      ],
      "stateMutability": "view",
      "type": "function"
    },
    {
      "inputs": [
        {
          "internalType": "uint256",
          "name": "amount",
          "type": "uint256"
        }
      ],
      "name": "approve",
      "outputs": [],
      "stateMutability": "nonpayable",
      "type": "function"
    },
    {
      "inputs": [
        {
          "internalType": "uint256",
          "name": "amount",
          "type": "uint256"
        }
      ],
      "name": "decreaseAllowance",
      "outputs": [],
      "stateMutability": "nonpayable",
      "type": "function"
    },
    {
      "inputs": [
        {
          "internalType": "uint256",
          "name": "amount",
          "type": "uint256"
        }
      ],
      "name": "increaseAllowance",
      "outputs": [],
      "stateMutability": "nonpayable",
      "type": "function"
    },
    {
      "inputs": [
        {
          "internalType": "uint256",
          "name": "allowance_",
          "type": "uint256"
        }
      ],
      "name": "setAllowance",
      "outputs": [],
      "stateMutability": "nonpayable",
      "type": "function"
    },
    {
      "inputs": [],
      "name": "transfer",
      "outputs": [],
      "stateMutability": "nonpayable",
      "type": "function"
    },
    {
      "inputs": [],
      "name": "transferFrom",
      "outputs": [],
      "stateMutability": "nonpayable",
      "type": "function"
    }
  ],
  "bytecode": "0x608060405260405162000ca838038062000ca883398101604081905262000026916200023a565b620000318162000038565b50620002b8565b600054610100900460ff168062000054575062000054620000e3565b8062000063575060005460ff16155b6200008b5760405162461bcd60e51b815260040162000082906200026a565b60405180910390fd5b600054610100900460ff16158015620000b7576000805460ff1961ff0019909116610100171660011790555b620000c162000101565b620000cc826200018d565b8015620000df576000805461ff00191690555b5050565b6000620000fb306200023460201b620002691760201c565b15905090565b600054610100900460ff16806200011d57506200011d620000e3565b806200012c575060005460ff16155b6200014b5760405162461bcd60e51b815260040162000082906200026a565b600054610100900460ff1615801562000177576000805460ff1961ff0019909116610100171660011790555b80156200018a576000805461ff00191690555b50565b600054610100900460ff1680620001a95750620001a9620000e3565b80620001b8575060005460ff16155b620001d75760405162461bcd60e51b815260040162000082906200026a565b600054610100900460ff1615801562000203576000805460ff1961ff0019909116610100171660011790555b603380546001600160a01b0319166001600160a01b0384161790558015620000df576000805461ff00191690555050565b3b151590565b6000602082840312156200024c578081fd5b81516001600160a01b038116811462000263578182fd5b9392505050565b6020808252602e908201527f496e697469616c697a61626c653a20636f6e747261637420697320616c72656160408201526d191e481a5b9a5d1a585b1a5e995960921b606082015260800190565b6109e080620002c86000396000f3fe608060405234801561001057600080fd5b506004361061007d5760003560e01c8063811c34d31161005b578063811c34d3146100bd5780638a4068dd146100c5578063b759f954146100cd578063de242ff4146100e05761007d565b806310bad4cf1461008257806311e330b2146100975780633ba93f26146100aa575b600080fd5b610095610090366004610722565b6100fe565b005b6100956100a5366004610722565b610119565b6100956100b8366004610722565b610131565b610095610196565b6100956101b1565b6100956100db366004610722565b6101c9565b6100e86101e1565b6040516100f5919061094c565b60405180910390f35b603354610116906001600160a01b031660008361026f565b50565b603354610116906001600160a01b0316600083610371565b603354604051631dd49f9360e11b81526001600160a01b0390911690633ba93f269061016190849060040161094c565b600060405180830381600087803b15801561017b57600080fd5b505af115801561018f573d6000803e3d6000fd5b5050505050565b6033546101af906001600160a01b0316600080806103fb565b565b6033546101af906001600160a01b031660008061041c565b603354610116906001600160a01b0316600083610440565b603354604051636eb1769f60e11b81526000916001600160a01b03169063dd62ed3e90610214908490819060040161076e565b60206040518083038186803b15801561022c57600080fd5b505afa158015610240573d6000803e3d6000fd5b505050506040513d601f19601f82011682018060405250810190610264919061073a565b905090565b3b151590565b60006103138260405180606001604052806029815260200161098260299139604051636eb1769f60e11b81526001600160a01b0388169063dd62ed3e906102bc9030908a9060040161076e565b60206040518083038186803b1580156102d457600080fd5b505afa1580156102e8573d6000803e3d6000fd5b505050506040513d601f19601f8201168201806040525081019061030c919061073a565b919061050c565b905061036b8463095ea7b360e01b85846040516024016103349291906107ac565b60408051601f198184030181529190526020810180516001600160e01b03166001600160e01b03199093169290921790915261053d565b50505050565b600061031382856001600160a01b031663dd62ed3e30876040518363ffffffff1660e01b81526004016103a592919061076e565b60206040518083038186803b1580156103bd57600080fd5b505afa1580156103d1573d6000803e3d6000fd5b505050506040513d601f19601f820116820180604052508101906103f5919061073a565b906105cc565b61036b846323b872dd60e01b85858560405160240161033493929190610788565b61043b8363a9059cbb60e01b84846040516024016103349291906107ac565b505050565b8015806104c85750604051636eb1769f60e11b81526001600160a01b0384169063dd62ed3e90610476903090869060040161076e565b60206040518083038186803b15801561048e57600080fd5b505afa1580156104a2573d6000803e3d6000fd5b505050506040513d601f19601f820116820180604052508101906104c6919061073a565b155b6104ed5760405162461bcd60e51b81526004016104e4906108f6565b60405180910390fd5b61043b8363095ea7b360e01b84846040516024016103349291906107ac565b600081848411156105305760405162461bcd60e51b81526004016104e491906107c5565b50508183035b9392505050565b6060610592826040518060400160405280602081526020017f5361666545524332303a206c6f772d6c6576656c2063616c6c206661696c6564815250856001600160a01b03166105f19092919063ffffffff16565b80519091501561043b57808060200190518101906105b09190610702565b61043b5760405162461bcd60e51b81526004016104e4906108ac565b6000828201838110156105365760405162461bcd60e51b81526004016104e4906107f8565b60606106008484600085610608565b949350505050565b60608247101561062a5760405162461bcd60e51b81526004016104e49061082f565b61063385610269565b61064f5760405162461bcd60e51b81526004016104e490610875565b60006060866001600160a01b0316858760405161066c9190610752565b60006040518083038185875af1925050503d80600081146106a9576040519150601f19603f3d011682016040523d82523d6000602084013e6106ae565b606091505b50915091506106be8282866106c9565b979650505050505050565b606083156106d8575081610536565b8251156106e85782518084602001fd5b8160405162461bcd60e51b81526004016104e491906107c5565b600060208284031215610713578081fd5b81518015158114610536578182fd5b600060208284031215610733578081fd5b5035919050565b60006020828403121561074b578081fd5b5051919050565b60008251610764818460208701610955565b9190910192915050565b6001600160a01b0392831681529116602082015260400190565b6001600160a01b039384168152919092166020820152604081019190915260600190565b6001600160a01b03929092168252602082015260400190565b60006020825282518060208401526107e4816040850160208701610955565b601f01601f19169190910160400192915050565b6020808252601b908201527f536166654d6174683a206164646974696f6e206f766572666c6f770000000000604082015260600190565b60208082526026908201527f416464726573733a20696e73756666696369656e742062616c616e636520666f6040820152651c8818d85b1b60d21b606082015260800190565b6020808252601d908201527f416464726573733a2063616c6c20746f206e6f6e2d636f6e7472616374000000604082015260600190565b6020808252602a908201527f5361666545524332303a204552433230206f7065726174696f6e20646964206e6040820152691bdd081cdd58d8d9595960b21b606082015260800190565b60208082526036908201527f5361666545524332303a20617070726f76652066726f6d206e6f6e2d7a65726f60408201527520746f206e6f6e2d7a65726f20616c6c6f77616e636560501b606082015260800190565b90815260200190565b60005b83811015610970578181015183820152602001610958565b8381111561036b575050600091015256fe5361666545524332303a2064656372656173656420616c6c6f77616e63652062656c6f77207a65726fa2646970667358221220f7243e21d6935cb841027ac6b8b18f9561594150fbfdf274dd3f0a2c0903f7bc64736f6c634300060c0033",
  "linkReferences": {},
  "deployedLinkReferences": {}
}