{
  "_format": "hh-sol-artifact-1",
  "contractName": "StringsMockUpgradeableWithInit",
  "sourceName": "contracts/contracts-upgradeable-v3_4/mocks/WithInit.sol",
  "abi": [
    {
      "inputs": [],
      "stateMutability": "payable",
      "type": "constructor"
    },
    {
      "inputs": [
        {
          "internalType": "uint256",
          "name": "value",
          "type": "uint256"
        }
      ],
      "name": "fromUint256",
      "outputs": [
        {
          "internalType": "string",
          "name": "",
          "type": "string"
        }
      ],
      "stateMutability": "pure",
      "type": "function"
    }
  ],
  "bytecode": "0x608060405261000c610011565b610195565b600054610100900460ff168061002a575061002a6100a5565b80610038575060005460ff16155b61005d5760405162461bcd60e51b815260040161005490610147565b60405180910390fd5b600054610100900460ff16158015610088576000805460ff1961ff0019909116610100171660011790555b6100906100c0565b80156100a2576000805461ff00191690555b50565b60006100ba3061014160201b61006c1760201c565b15905090565b600054610100900460ff16806100d957506100d96100a5565b806100e7575060005460ff16155b6101035760405162461bcd60e51b815260040161005490610147565b600054610100900460ff16158015610090576000805460ff1961ff00199091166101001716600117905580156100a2576000805461ff001916905550565b3b151590565b6020808252602e908201527f496e697469616c697a61626c653a20636f6e747261637420697320616c72656160408201526d191e481a5b9a5d1a585b1a5e995960921b606082015260800190565b6101ee806101a46000396000f3fe608060405234801561001057600080fd5b506004361061002b5760003560e01c8063a2bd364414610030575b600080fd5b61004361003e36600461014d565b610059565b6040516100509190610165565b60405180910390f35b606061006482610072565b90505b919050565b3b151590565b60608161009757506040805180820190915260018152600360fc1b6020820152610067565b8160005b81156100af57600101600a8204915061009b565b60608167ffffffffffffffff811180156100c857600080fd5b506040519080825280601f01601f1916602001820160405280156100f3576020820181803683370190505b50859350905060001982015b831561014457600a840660300160f81b8282806001900393508151811061012257fe5b60200101906001600160f81b031916908160001a905350600a840493506100ff565b50949350505050565b60006020828403121561015e578081fd5b5035919050565b6000602080835283518082850152825b8181101561019157858101830151858201604001528201610175565b818111156101a25783604083870101525b50601f01601f191692909201604001939250505056fea26469706673582212201ef281408087f0e29725f299412a8b9fd4e11a71112bc91bf249f8c409c0e5e364736f6c634300060c0033",
  "linkReferences": {},
  "deployedLinkReferences": {}
}