{
  "_format": "hh-sol-artifact-1",
  "contractName": "SupportsInterfaceWithLookupMockUpgradeableWithInit",
  "sourceName": "contracts/contracts-upgradeable-v3_4/mocks/WithInit.sol",
  "abi": [
    {
      "inputs": [],
      "stateMutability": "payable",
      "type": "constructor"
    },
    {
      "inputs": [],
      "name": "INTERFACE_ID_ERC165",
      "outputs": [
        {
          "internalType": "bytes4",
          "name": "",
          "type": "bytes4"
        }
      ],
      "stateMutability": "view",
      "type": "function"
    },
    {
      "inputs": [
        {
          "internalType": "bytes4",
          "name": "interfaceId",
          "type": "bytes4"
        }
      ],
      "name": "supportsInterface",
      "outputs": [
        {
          "internalType": "bool",
          "name": "",
          "type": "bool"
        }
      ],
      "stateMutability": "view",
      "type": "function"
    }
  ],
  "bytecode": "0x608060405261000c610011565b610233565b600054610100900460ff168061002a575061002a6100a5565b80610038575060005460ff16155b61005d5760405162461bcd60e51b815260040161005490610196565b60405180910390fd5b600054610100900460ff16158015610088576000805460ff1961ff0019909116610100171660011790555b6100906100c0565b80156100a2576000805461ff00191690555b50565b60006100ba3061013e60201b6100951760201c565b15905090565b600054610100900460ff16806100d957506100d96100a5565b806100e7575060005460ff16155b6101035760405162461bcd60e51b815260040161005490610196565b600054610100900460ff1615801561012e576000805460ff1961ff0019909116610100171660011790555b6100906301ffc9a760e01b610144565b3b151590565b6001600160e01b0319808216141561016e5760405162461bcd60e51b8152600401610054906101e4565b6001600160e01b0319166000908152600160208190526040909120805460ff19169091179055565b6020808252602e908201527f496e697469616c697a61626c653a20636f6e747261637420697320616c72656160408201526d191e481a5b9a5d1a585b1a5e995960921b606082015260800190565b6020808252602f908201527f455243313635496e7465726661636573537570706f727465643a20696e76616c60408201526e1a59081a5b9d195c999858d9481a59608a1b606082015260800190565b61011e806102426000396000f3fe6080604052348015600f57600080fd5b506004361060325760003560e01c806301ffc9a714603757806334d7006c14605a575b600080fd5b60466042366004609b565b606b565b6040516051919060c8565b60405180910390f35b6060608a565b6040516051919060d3565b6001600160e01b03191660009081526001602052604090205460ff1690565b6301ffc9a760e01b81565b3b151590565b60006020828403121560ab578081fd5b81356001600160e01b03198116811460c1578182fd5b9392505050565b901515815260200190565b6001600160e01b03199190911681526020019056fea2646970667358221220e96b2d6a432343801fa16ba3018ee8ebbf7c56c7f16ba68b241fb39ebc9dcfcd64736f6c634300060c0033",
  "linkReferences": {},
  "deployedLinkReferences": {}
}