{
  "_format": "hh-sol-artifact-1",
  "contractName": "MockERC20Mintable",
  "sourceName": "contracts/mocks/MockERC20Mintable.sol",
  "abi": [
    {
      "inputs": [
        {
          "internalType": "string",
          "name": "name_",
          "type": "string"
        },
        {
          "internalType": "string",
          "name": "symbol_",
          "type": "string"
        },
        {
          "internalType": "uint8",
          "name": "decimals_",
          "type": "uint8"
        },
        {
          "internalType": "uint256",
          "name": "cap_",
          "type": "uint256"
        },
        {
          "internalType": "uint256",
          "name": "presetMintAmount_",
          "type": "uint256"
        }
      ],
      "stateMutability": "nonpayable",
      "type": "constructor"
    },
    {
      "anonymous": false,
      "inputs": [
        {
          "indexed": true,
          "internalType": "address",
          "name": "owner",
          "type": "address"
        },
        {
          "indexed": true,
          "internalType": "address",
          "name": "spender",
          "type": "address"
        },
        {
          "indexed": false,
          "internalType": "uint256",
          "name": "value",
          "type": "uint256"
        }
      ],
      "name": "Approval",
      "type": "event"
    },
    {
      "anonymous": false,
      "inputs": [
        {
          "indexed": true,
          "internalType": "address",
          "name": "from",
          "type": "address"
        },
        {
          "indexed": true,
          "internalType": "address",
          "name": "to",
          "type": "address"
        },
        {
          "indexed": false,
          "internalType": "uint256",
          "name": "value",
          "type": "uint256"
        }
      ],
      "name": "Transfer",
      "type": "event"
    },
    {
      "stateMutability": "nonpayable",
      "type": "fallback"
    },
    {
      "inputs": [
        {
          "internalType": "address",
          "name": "owner",
          "type": "address"
        },
        {
          "internalType": "address",
          "name": "spender",
          "type": "address"
        }
      ],
      "name": "allowance",
      "outputs": [
        {
          "internalType": "uint256",
          "name": "",
          "type": "uint256"
        }
      ],
      "stateMutability": "view",
      "type": "function"
    },
    {
      "inputs": [
        {
          "internalType": "address",
          "name": "spender",
          "type": "address"
        },
        {
          "internalType": "uint256",
          "name": "amount",
          "type": "uint256"
        }
      ],
      "name": "approve",
      "outputs": [
        {
          "internalType": "bool",
          "name": "",
          "type": "bool"
        }
      ],
      "stateMutability": "nonpayable",
      "type": "function"
    },
    {
      "inputs": [
        {
          "internalType": "address",
          "name": "account",
          "type": "address"
        }
      ],
      "name": "balanceOf",
      "outputs": [
        {
          "internalType": "uint256",
          "name": "",
          "type": "uint256"
        }
      ],
      "stateMutability": "view",
      "type": "function"
    },
    {
      "inputs": [],
      "name": "cap",
      "outputs": [
        {
          "internalType": "uint256",
          "name": "",
          "type": "uint256"
        }
      ],
      "stateMutability": "view",
      "type": "function"
    },
    {
      "inputs": [],
      "name": "decimals",
      "outputs": [
        {
          "internalType": "uint8",
          "name": "",
          "type": "uint8"
        }
      ],
      "stateMutability": "view",
      "type": "function"
    },
    {
      "inputs": [
        {
          "internalType": "address",
          "name": "spender",
          "type": "address"
        },
        {
          "internalType": "uint256",
          "name": "subtractedValue",
          "type": "uint256"
        }
      ],
      "name": "decreaseAllowance",
      "outputs": [
        {
          "internalType": "bool",
          "name": "",
          "type": "bool"
        }
      ],
      "stateMutability": "nonpayable",
      "type": "function"
    },
    {
      "inputs": [
        {
          "internalType": "address",
          "name": "spender",
          "type": "address"
        },
        {
          "internalType": "uint256",
          "name": "addedValue",
          "type": "uint256"
        }
      ],
      "name": "increaseAllowance",
      "outputs": [
        {
          "internalType": "bool",
          "name": "",
          "type": "bool"
        }
      ],
      "stateMutability": "nonpayable",
      "type": "function"
    },
    {
      "inputs": [
        {
          "internalType": "uint256",
          "name": "_mintAmount",
          "type": "uint256"
        }
      ],
      "name": "mintAmount",
      "outputs": [],
      "stateMutability": "nonpayable",
      "type": "function"
    },
    {
      "inputs": [
        {
          "internalType": "uint256",
          "name": "_mintAmount",
          "type": "uint256"
        },
        {
          "internalType": "address",
          "name": "_to",
          "type": "address"
        }
      ],
      "name": "mintAmountTo",
      "outputs": [],
      "stateMutability": "nonpayable",
      "type": "function"
    },
    {
      "inputs": [],
      "name": "mintPreset",
      "outputs": [],
      "stateMutability": "nonpayable",
      "type": "function"
    },
    {
      "inputs": [
        {
          "internalType": "address",
          "name": "_to",
          "type": "address"
        }
      ],
      "name": "mintPresetTo",
      "outputs": [],
      "stateMutability": "nonpayable",
      "type": "function"
    },
    {
      "inputs": [],
      "name": "name",
      "outputs": [
        {
          "internalType": "string",
          "name": "",
          "type": "string"
        }
      ],
      "stateMutability": "view",
      "type": "function"
    },
    {
      "inputs": [],
      "name": "presetMintAmount",
      "outputs": [
        {
          "internalType": "uint256",
          "name": "",
          "type": "uint256"
        }
      ],
      "stateMutability": "view",
      "type": "function"
    },
    {
      "inputs": [],
      "name": "symbol",
      "outputs": [
        {
          "internalType": "string",
          "name": "",
          "type": "string"
        }
      ],
      "stateMutability": "view",
      "type": "function"
    },
    {
      "inputs": [],
      "name": "totalSupply",
      "outputs": [
        {
          "internalType": "uint256",
          "name": "",
          "type": "uint256"
        }
      ],
      "stateMutability": "view",
      "type": "function"
    },
    {
      "inputs": [
        {
          "internalType": "address",
          "name": "recipient",
          "type": "address"
        },
        {
          "internalType": "uint256",
          "name": "amount",
          "type": "uint256"
        }
      ],
      "name": "transfer",
      "outputs": [
        {
          "internalType": "bool",
          "name": "",
          "type": "bool"
        }
      ],
      "stateMutability": "nonpayable",
      "type": "function"
    },
    {
      "inputs": [
        {
          "internalType": "address",
          "name": "sender",
          "type": "address"
        },
        {
          "internalType": "address",
          "name": "recipient",
          "type": "address"
        },
        {
          "internalType": "uint256",
          "name": "amount",
          "type": "uint256"
        }
      ],
      "name": "transferFrom",
      "outputs": [
        {
          "internalType": "bool",
          "name": "",
          "type": "bool"
        }
      ],
      "stateMutability": "nonpayable",
      "type": "function"
    }
  ],
  "bytecode": "0x60806040523480156200001157600080fd5b5060405162000fb038038062000fb0833981810160405260a08110156200003757600080fd5b81019080805160405193929190846401000000008211156200005857600080fd5b9083019060208201858111156200006e57600080fd5b82516401000000008111828201881017156200008957600080fd5b82525081516020918201929091019080838360005b83811015620000b85781810151838201526020016200009e565b50505050905090810190601f168015620000e65780820380516001836020036101000a031916815260200191505b50604052602001805160405193929190846401000000008211156200010a57600080fd5b9083019060208201858111156200012057600080fd5b82516401000000008111828201881017156200013b57600080fd5b82525081516020918201929091019080838360005b838110156200016a57818101518382015260200162000150565b50505050905090810190601f168015620001985780820380516001836020036101000a031916815260200191505b506040908152602082810151918301516060909301518751929550929350839187918791620001ce916003919085019062000279565b508051620001e490600490602084019062000279565b50506005805460ff19166012179055508062000247576040805162461bcd60e51b815260206004820152601560248201527f45524332304361707065643a2063617020697320300000000000000000000000604482015290519081900360640190fd5b600655620002558362000263565b600755506200031592505050565b6005805460ff191660ff92909216919091179055565b828054600181600116156101000203166002900490600052602060002090601f016020900481019282601f10620002bc57805160ff1916838001178555620002ec565b82800160010185558215620002ec579182015b82811115620002ec578251825591602001919060010190620002cf565b50620002fa929150620002fe565b5090565b5b80821115620002fa5760008155600101620002ff565b610c8b80620003256000396000f3fe608060405234801561001057600080fd5b506004361061010b5760003560e01c80633e4005ad116100a257806395d89b411161007157806395d89b41146102f4578063a457c2d7146102fc578063a9059cbb14610328578063dd62ed3e14610354578063e412c3c8146103825761010b565b80633e4005ad146102a05780634f5987da1461010b57806350785dbc146102a857806370a08231146102ce5761010b565b806323b872dd116100de57806323b872dd14610218578063313ce5671461024e578063355274ea1461026c57806339509351146102745761010b565b806306fdde0314610115578063095ea7b31461019257806318160ddd146101d257806322828b85146101ec575b61011361039f565b005b61011d6103ad565b6040805160208082528351818301528351919283929083019185019080838360005b8381101561015757818101518382015260200161013f565b50505050905090810190601f1680156101845780820380516001836020036101000a031916815260200191505b509250505060405180910390f35b6101be600480360360408110156101a857600080fd5b506001600160a01b038135169060200135610443565b604080519115158252519081900360200190f35b6101da610460565b60408051918252519081900360200190f35b6101136004803603604081101561020257600080fd5b50803590602001356001600160a01b0316610466565b6101be6004803603606081101561022e57600080fd5b506001600160a01b03813581169160208101359091169060400135610474565b6102566104fb565b6040805160ff9092168252519081900360200190f35b6101da610504565b6101be6004803603604081101561028a57600080fd5b506001600160a01b03813516906020013561050a565b6101da610558565b610113600480360360208110156102be57600080fd5b50356001600160a01b031661055e565b6101da600480360360208110156102e457600080fd5b50356001600160a01b031661056d565b61011d610588565b6101be6004803603604081101561031257600080fd5b506001600160a01b0381351690602001356105e9565b6101be6004803603604081101561033e57600080fd5b506001600160a01b038135169060200135610651565b6101da6004803603604081101561036a57600080fd5b506001600160a01b0381358116916020013516610665565b6101136004803603602081101561039857600080fd5b5035610690565b6103ab33600754610696565b565b60038054604080516020601f60026000196101006001881615020190951694909404938401819004810282018101909252828152606093909290918301828280156104395780601f1061040e57610100808354040283529160200191610439565b820191906000526020600020905b81548152906001019060200180831161041c57829003601f168201915b5050505050905090565b6000610457610450610786565b848461078a565b50600192915050565b60025490565b6104708183610696565b5050565b6000610481848484610876565b6104f18461048d610786565b6104ec85604051806060016040528060288152602001610bc0602891396001600160a01b038a166000908152600160205260408120906104cb610786565b6001600160a01b0316815260208101919091526040016000205491906109d1565b61078a565b5060019392505050565b60055460ff1690565b60065490565b6000610457610517610786565b846104ec8560016000610528610786565b6001600160a01b03908116825260208083019390935260409182016000908120918c168152925290205490610a68565b60075481565b61056a81600754610696565b50565b6001600160a01b031660009081526020819052604090205490565b60048054604080516020601f60026000196101006001881615020190951694909404938401819004810282018101909252828152606093909290918301828280156104395780601f1061040e57610100808354040283529160200191610439565b60006104576105f6610786565b846104ec85604051806060016040528060258152602001610c316025913960016000610620610786565b6001600160a01b03908116825260208083019390935260409182016000908120918d168152925290205491906109d1565b600061045761065e610786565b8484610876565b6001600160a01b03918216600090815260016020908152604080832093909416825291909152205490565b61056a33825b6001600160a01b0382166106f1576040805162461bcd60e51b815260206004820152601f60248201527f45524332303a206d696e7420746f20746865207a65726f206164647265737300604482015290519081900360640190fd5b6106fd60008383610ac9565b60025461070a9082610a68565b6002556001600160a01b0382166000908152602081905260409020546107309082610a68565b6001600160a01b0383166000818152602081815260408083209490945583518581529351929391927fddf252ad1be2c89b69c2b068fc378daa952ba7f163c4a11628f55a4df523b3ef9281900390910190a35050565b3390565b6001600160a01b0383166107cf5760405162461bcd60e51b8152600401808060200182810382526024815260200180610c0d6024913960400191505060405180910390fd5b6001600160a01b0382166108145760405162461bcd60e51b8152600401808060200182810382526022815260200180610b786022913960400191505060405180910390fd5b6001600160a01b03808416600081815260016020908152604080832094871680845294825291829020859055815185815291517f8c5be1e5ebec7d5bd14f71427d1e84f3dd0314c0f7b2291e5b200ac8c7c3b9259281900390910190a3505050565b6001600160a01b0383166108bb5760405162461bcd60e51b8152600401808060200182810382526025815260200180610be86025913960400191505060405180910390fd5b6001600160a01b0382166109005760405162461bcd60e51b8152600401808060200182810382526023815260200180610b556023913960400191505060405180910390fd5b61090b838383610ac9565b61094881604051806060016040528060268152602001610b9a602691396001600160a01b03861660009081526020819052604090205491906109d1565b6001600160a01b0380851660009081526020819052604080822093909355908416815220546109779082610a68565b6001600160a01b038084166000818152602081815260409182902094909455805185815290519193928716927fddf252ad1be2c89b69c2b068fc378daa952ba7f163c4a11628f55a4df523b3ef92918290030190a3505050565b60008184841115610a605760405162461bcd60e51b81526004018080602001828103825283818151815260200191508051906020019080838360005b83811015610a25578181015183820152602001610a0d565b50505050905090810190601f168015610a525780820380516001836020036101000a031916815260200191505b509250505060405180910390fd5b505050900390565b600082820183811015610ac2576040805162461bcd60e51b815260206004820152601b60248201527f536166654d6174683a206164646974696f6e206f766572666c6f770000000000604482015290519081900360640190fd5b9392505050565b610ad4838383610b4f565b6001600160a01b038316610b4f57610aea610504565b610afc82610af6610460565b90610a68565b1115610b4f576040805162461bcd60e51b815260206004820152601960248201527f45524332304361707065643a2063617020657863656564656400000000000000604482015290519081900360640190fd5b50505056fe45524332303a207472616e7366657220746f20746865207a65726f206164647265737345524332303a20617070726f766520746f20746865207a65726f206164647265737345524332303a207472616e7366657220616d6f756e7420657863656564732062616c616e636545524332303a207472616e7366657220616d6f756e74206578636565647320616c6c6f77616e636545524332303a207472616e736665722066726f6d20746865207a65726f206164647265737345524332303a20617070726f76652066726f6d20746865207a65726f206164647265737345524332303a2064656372656173656420616c6c6f77616e63652062656c6f77207a65726fa264697066735822122097e95006270c907bb456ddfbacc9971013956c78a534f348dd8f3a0b6f05ce4964736f6c634300060c0033",
  "linkReferences": {},
  "deployedLinkReferences": {}
}