{
  "_format": "hh-sol-artifact-1",
  "contractName": "MigratableMockV1",
  "sourceName": "contracts/contracts-v3_4/mocks/SingleInheritanceInitializableMocks.sol",
  "abi": [
    {
      "inputs": [
        {
          "internalType": "uint256",
          "name": "value",
          "type": "uint256"
        }
      ],
      "name": "initialize",
      "outputs": [],
      "stateMutability": "payable",
      "type": "function"
    },
    {
      "inputs": [],
      "name": "x",
      "outputs": [
        {
          "internalType": "uint256",
          "name": "",
          "type": "uint256"
        }
      ],
      "stateMutability": "view",
      "type": "function"
    }
  ],
  "bytecode": "0x608060405234801561001057600080fd5b5061019d806100206000396000f3fe6080604052600436106100295760003560e01c80630c55699c1461002e578063fe4b84df14610055575b600080fd5b34801561003a57600080fd5b50610043610074565b60408051918252519081900360200190f35b6100726004803603602081101561006b57600080fd5b503561007a565b005b60015481565b600054610100900460ff16806100935750610093610122565b806100a1575060005460ff16155b6100dc5760405162461bcd60e51b815260040180806020018281038252602e81526020018061013a602e913960400191505060405180910390fd5b600054610100900460ff16158015610107576000805460ff1961ff0019909116610100171660011790555b6001829055801561011e576000805461ff00191690555b5050565b600061012d30610133565b15905090565b3b15159056fe496e697469616c697a61626c653a20636f6e747261637420697320616c726561647920696e697469616c697a6564a2646970667358221220d82bb4cc1d5dbc647aa7219e9fa3653041eef9b7f8d46f5284690af26dca0fc664736f6c634300060c0033",
  "linkReferences": {},
  "deployedLinkReferences": {}
}