{
  "_format": "hh-sol-artifact-1",
  "contractName": "SafeMathMock",
  "sourceName": "contracts/contracts-v3_4/mocks/SafeMathMock.sol",
  "abi": [
    {
      "inputs": [],
      "name": "addMemoryCheck",
      "outputs": [
        {
          "internalType": "uint256",
          "name": "mem",
          "type": "uint256"
        }
      ],
      "stateMutability": "pure",
      "type": "function"
    },
    {
      "inputs": [],
      "name": "divMemoryCheck",
      "outputs": [
        {
          "internalType": "uint256",
          "name": "mem",
          "type": "uint256"
        }
      ],
      "stateMutability": "pure",
      "type": "function"
    },
    {
      "inputs": [
        {
          "internalType": "uint256",
          "name": "a",
          "type": "uint256"
        },
        {
          "internalType": "uint256",
          "name": "b",
          "type": "uint256"
        },
        {
          "internalType": "string",
          "name": "errorMessage",
          "type": "string"
        }
      ],
      "name": "divWithMessage",
      "outputs": [
        {
          "internalType": "uint256",
          "name": "",
          "type": "uint256"
        }
      ],
      "stateMutability": "pure",
      "type": "function"
    },
    {
      "inputs": [
        {
          "internalType": "uint256",
          "name": "a",
          "type": "uint256"
        },
        {
          "internalType": "uint256",
          "name": "b",
          "type": "uint256"
        }
      ],
      "name": "doAdd",
      "outputs": [
        {
          "internalType": "uint256",
          "name": "",
          "type": "uint256"
        }
      ],
      "stateMutability": "pure",
      "type": "function"
    },
    {
      "inputs": [
        {
          "internalType": "uint256",
          "name": "a",
          "type": "uint256"
        },
        {
          "internalType": "uint256",
          "name": "b",
          "type": "uint256"
        }
      ],
      "name": "doDiv",
      "outputs": [
        {
          "internalType": "uint256",
          "name": "",
          "type": "uint256"
        }
      ],
      "stateMutability": "pure",
      "type": "function"
    },
    {
      "inputs": [
        {
          "internalType": "uint256",
          "name": "a",
          "type": "uint256"
        },
        {
          "internalType": "uint256",
          "name": "b",
          "type": "uint256"
        }
      ],
      "name": "doMod",
      "outputs": [
        {
          "internalType": "uint256",
          "name": "",
          "type": "uint256"
        }
      ],
      "stateMutability": "pure",
      "type": "function"
    },
    {
      "inputs": [
        {
          "internalType": "uint256",
          "name": "a",
          "type": "uint256"
        },
        {
          "internalType": "uint256",
          "name": "b",
          "type": "uint256"
        }
      ],
      "name": "doMul",
      "outputs": [
        {
          "internalType": "uint256",
          "name": "",
          "type": "uint256"
        }
      ],
      "stateMutability": "pure",
      "type": "function"
    },
    {
      "inputs": [
        {
          "internalType": "uint256",
          "name": "a",
          "type": "uint256"
        },
        {
          "internalType": "uint256",
          "name": "b",
          "type": "uint256"
        }
      ],
      "name": "doSub",
      "outputs": [
        {
          "internalType": "uint256",
          "name": "",
          "type": "uint256"
        }
      ],
      "stateMutability": "pure",
      "type": "function"
    },
    {
      "inputs": [],
      "name": "modMemoryCheck",
      "outputs": [
        {
          "internalType": "uint256",
          "name": "mem",
          "type": "uint256"
        }
      ],
      "stateMutability": "pure",
      "type": "function"
    },
    {
      "inputs": [
        {
          "internalType": "uint256",
          "name": "a",
          "type": "uint256"
        },
        {
          "internalType": "uint256",
          "name": "b",
          "type": "uint256"
        },
        {
          "internalType": "string",
          "name": "errorMessage",
          "type": "string"
        }
      ],
      "name": "modWithMessage",
      "outputs": [
        {
          "internalType": "uint256",
          "name": "",
          "type": "uint256"
        }
      ],
      "stateMutability": "pure",
      "type": "function"
    },
    {
      "inputs": [],
      "name": "mulMemoryCheck",
      "outputs": [
        {
          "internalType": "uint256",
          "name": "mem",
          "type": "uint256"
        }
      ],
      "stateMutability": "pure",
      "type": "function"
    },
    {
      "inputs": [],
      "name": "subMemoryCheck",
      "outputs": [
        {
          "internalType": "uint256",
          "name": "mem",
          "type": "uint256"
        }
      ],
      "stateMutability": "pure",
      "type": "function"
    },
    {
      "inputs": [
        {
          "internalType": "uint256",
          "name": "a",
          "type": "uint256"
        },
        {
          "internalType": "uint256",
          "name": "b",
          "type": "uint256"
        },
        {
          "internalType": "string",
          "name": "errorMessage",
          "type": "string"
        }
      ],
      "name": "subWithMessage",
      "outputs": [
        {
          "internalType": "uint256",
          "name": "",
          "type": "uint256"
        }
      ],
      "stateMutability": "pure",
      "type": "function"
    },
    {
      "inputs": [
        {
          "internalType": "uint256",
          "name": "a",
          "type": "uint256"
        },
        {
          "internalType": "uint256",
          "name": "b",
          "type": "uint256"
        }
      ],
      "name": "tryAdd",
      "outputs": [
        {
          "internalType": "bool",
          "name": "flag",
          "type": "bool"
        },
        {
          "internalType": "uint256",
          "name": "value",
          "type": "uint256"
        }
      ],
      "stateMutability": "pure",
      "type": "function"
    },
    {
      "inputs": [
        {
          "internalType": "uint256",
          "name": "a",
          "type": "uint256"
        },
        {
          "internalType": "uint256",
          "name": "b",
          "type": "uint256"
        }
      ],
      "name": "tryDiv",
      "outputs": [
        {
          "internalType": "bool",
          "name": "flag",
          "type": "bool"
        },
        {
          "internalType": "uint256",
          "name": "value",
          "type": "uint256"
        }
      ],
      "stateMutability": "pure",
      "type": "function"
    },
    {
      "inputs": [
        {
          "internalType": "uint256",
          "name": "a",
          "type": "uint256"
        },
        {
          "internalType": "uint256",
          "name": "b",
          "type": "uint256"
        }
      ],
      "name": "tryMod",
      "outputs": [
        {
          "internalType": "bool",
          "name": "flag",
          "type": "bool"
        },
        {
          "internalType": "uint256",
          "name": "value",
          "type": "uint256"
        }
      ],
      "stateMutability": "pure",
      "type": "function"
    },
    {
      "inputs": [
        {
          "internalType": "uint256",
          "name": "a",
          "type": "uint256"
        },
        {
          "internalType": "uint256",
          "name": "b",
          "type": "uint256"
        }
      ],
      "name": "tryMul",
      "outputs": [
        {
          "internalType": "bool",
          "name": "flag",
          "type": "bool"
        },
        {
          "internalType": "uint256",
          "name": "value",
          "type": "uint256"
        }
      ],
      "stateMutability": "pure",
      "type": "function"
    },
    {
      "inputs": [
        {
          "internalType": "uint256",
          "name": "a",
          "type": "uint256"
        },
        {
          "internalType": "uint256",
          "name": "b",
          "type": "uint256"
        }
      ],
      "name": "trySub",
      "outputs": [
        {
          "internalType": "bool",
          "name": "flag",
          "type": "bool"
        },
        {
          "internalType": "uint256",
          "name": "value",
          "type": "uint256"
        }
      ],
      "stateMutability": "pure",
      "type": "function"
    }
  ],
  "bytecode": "0x608060405234801561001057600080fd5b50610ac3806100206000396000f3fe608060405234801561001057600080fd5b50600436106101165760003560e01c80639f5cec89116100a2578063dcc721d211610071578063dcc721d21461046b578063fb1191981461048e578063fb24c860146104b1578063fb999ded146104b9578063fc0ce503146104c157610116565b80639f5cec89146102dc578063a155bd621461038e578063a29962b114610440578063c460ae041461046357610116565b80636f91e802116100e95780636f91e80214610263578063736ecb181461026b5780637e86d25c1461028e578063869f602f14610296578063884557bf146102b957610116565b80633449b5fb1461011b57806338dc0867146101df5780636281efa41461021d5780636c7ac63714610240575b600080fd5b6101cd6004803603606081101561013157600080fd5b81359160208101359181019060608101604082013564010000000081111561015857600080fd5b82018360208201111561016a57600080fd5b8035906020019184600183028401116401000000008311171561018c57600080fd5b91908080601f0160208091040260200160405190810160405280939291908181526020018383808284376000920191909152509295506104e4945050505050565b60408051918252519081900360200190f35b610202600480360360408110156101f557600080fd5b50803590602001356104f9565b60408051921515835260208301919091528051918290030190f35b6102026004803603604081101561023357600080fd5b5080359060200135610512565b6101cd6004803603604081101561025657600080fd5b508035906020013561051f565b6101cd610534565b6102026004803603604081101561028157600080fd5b5080359060200135610561565b6101cd61056e565b6101cd600480360360408110156102ac57600080fd5b5080359060200135610592565b610202600480360360408110156102cf57600080fd5b508035906020013561059e565b6101cd600480360360608110156102f257600080fd5b81359160208101359181019060608101604082013564010000000081111561031957600080fd5b82018360208201111561032b57600080fd5b8035906020019184600183028401116401000000008311171561034d57600080fd5b91908080601f0160208091040260200160405190810160405280939291908181526020018383808284376000920191909152509295506105ab945050505050565b6101cd600480360360608110156103a457600080fd5b8135916020810135918101906060810160408201356401000000008111156103cb57600080fd5b8201836020820111156103dd57600080fd5b803590602001918460018302840111640100000000831117156103ff57600080fd5b91908080601f0160208091040260200160405190810160405280939291908181526020018383808284376000920191909152509295506105b8945050505050565b6102026004803603604081101561045657600080fd5b50803590602001356105c5565b6101cd6105d2565b6101cd6004803603604081101561048157600080fd5b50803590602001356105f6565b6101cd600480360360408110156104a457600080fd5b5080359060200135610602565b6101cd61060e565b6101cd610632565b6101cd600480360360408110156104d757600080fd5b5080359060200135610656565b60006104f1848484610662565b949350505050565b6000806105068484610701565b915091505b9250929050565b600080610506848461072b565b600061052b838361076b565b90505b92915050565b604051602060005b818110156105585761054f6001806107c8565b5060010161053c565b50506040510390565b600080610506848461082f565b604051602060005b8181101561055857610589600180610859565b50600101610576565b600061052b83836107c8565b60008061050684846108b2565b60006104f18484846108cd565b60006104f1848484610927565b6000806105068484610989565b604051602060005b81811015610558576105ed6001806109ab565b506001016105da565b600061052b8383610a12565b600061052b8383610859565b604051602060005b8181101561055857610629600180610a12565b50600101610616565b604051602060005b818110156105585761064d60018061076b565b5060010161063a565b600061052b83836109ab565b600081836106ee5760405162461bcd60e51b81526004018080602001828103825283818151815260200191508051906020019080838360005b838110156106b357818101518382015260200161069b565b50505050905090810190601f1680156106e05780820380516001836020036101000a031916815260200191505b509250505060405180910390fd5b508284816106f857fe5b04949350505050565b600080826107145750600090508061050b565b600183858161071f57fe5b06915091509250929050565b6000808361073f575060019050600061050b565b8383028385828161074c57fe5b041461075f57600080925092505061050b565b60019590945092505050565b6000828211156107c2576040805162461bcd60e51b815260206004820152601e60248201527f536166654d6174683a207375627472616374696f6e206f766572666c6f770000604482015290519081900360640190fd5b50900390565b600080821161081e576040805162461bcd60e51b815260206004820152601860248201527f536166654d6174683a206d6f64756c6f206279207a65726f0000000000000000604482015290519081900360640190fd5b81838161082757fe5b069392505050565b600080826108425750600090508061050b565b600183858161084d57fe5b04915091509250929050565b6000826108685750600061052e565b8282028284828161087557fe5b041461052b5760405162461bcd60e51b8152600401808060200182810382526021815260200180610a6d6021913960400191505060405180910390fd5b6000808383018481101561075f57600080925092505061050b565b6000818484111561091f5760405162461bcd60e51b81526020600482018181528351602484015283519092839260449091019190850190808383600083156106b357818101518382015260200161069b565b505050900390565b600081836109765760405162461bcd60e51b81526020600482018181528351602484015283519092839260449091019190850190808383600083156106b357818101518382015260200161069b565b5082848161098057fe5b06949350505050565b6000808383111561099f5750600090508061050b565b50600193919092039150565b6000808211610a01576040805162461bcd60e51b815260206004820152601a60248201527f536166654d6174683a206469766973696f6e206279207a65726f000000000000604482015290519081900360640190fd5b818381610a0a57fe5b049392505050565b60008282018381101561052b576040805162461bcd60e51b815260206004820152601b60248201527f536166654d6174683a206164646974696f6e206f766572666c6f770000000000604482015290519081900360640190fdfe536166654d6174683a206d756c7469706c69636174696f6e206f766572666c6f77a2646970667358221220f0fe565d7c54f17447ef67c92337beab0da1346617652a06be74baaeef96cacd64736f6c634300060c0033",
  "linkReferences": {},
  "deployedLinkReferences": {}
}