{
  "_format": "hh-sol-artifact-1",
  "contractName": "EnumerableMapMockUpgradeable",
  "sourceName": "contracts/contracts-upgradeable-v3_4/mocks/EnumerableMapMockUpgradeable.sol",
  "abi": [
    {
      "anonymous": false,
      "inputs": [
        {
          "indexed": false,
          "internalType": "bool",
          "name": "result",
          "type": "bool"
        }
      ],
      "name": "OperationResult",
      "type": "event"
    },
    {
      "inputs": [
        {
          "internalType": "uint256",
          "name": "index",
          "type": "uint256"
        }
      ],
      "name": "at",
      "outputs": [
        {
          "internalType": "uint256",
          "name": "key",
          "type": "uint256"
        },
        {
          "internalType": "address",
          "name": "value",
          "type": "address"
        }
      ],
      "stateMutability": "view",
      "type": "function"
    },
    {
      "inputs": [
        {
          "internalType": "uint256",
          "name": "key",
          "type": "uint256"
        }
      ],
      "name": "contains",
      "outputs": [
        {
          "internalType": "bool",
          "name": "",
          "type": "bool"
        }
      ],
      "stateMutability": "view",
      "type": "function"
    },
    {
      "inputs": [
        {
          "internalType": "uint256",
          "name": "key",
          "type": "uint256"
        }
      ],
      "name": "get",
      "outputs": [
        {
          "internalType": "address",
          "name": "",
          "type": "address"
        }
      ],
      "stateMutability": "view",
      "type": "function"
    },
    {
      "inputs": [
        {
          "internalType": "uint256",
          "name": "key",
          "type": "uint256"
        },
        {
          "internalType": "string",
          "name": "errorMessage",
          "type": "string"
        }
      ],
      "name": "getWithMessage",
      "outputs": [
        {
          "internalType": "address",
          "name": "",
          "type": "address"
        }
      ],
      "stateMutability": "view",
      "type": "function"
    },
    {
      "inputs": [],
      "name": "length",
      "outputs": [
        {
          "internalType": "uint256",
          "name": "",
          "type": "uint256"
        }
      ],
      "stateMutability": "view",
      "type": "function"
    },
    {
      "inputs": [
        {
          "internalType": "uint256",
          "name": "key",
          "type": "uint256"
        }
      ],
      "name": "remove",
      "outputs": [],
      "stateMutability": "nonpayable",
      "type": "function"
    },
    {
      "inputs": [
        {
          "internalType": "uint256",
          "name": "key",
          "type": "uint256"
        },
        {
          "internalType": "address",
          "name": "value",
          "type": "address"
        }
      ],
      "name": "set",
      "outputs": [],
      "stateMutability": "nonpayable",
      "type": "function"
    },
    {
      "inputs": [
        {
          "internalType": "uint256",
          "name": "key",
          "type": "uint256"
        }
      ],
      "name": "tryGet",
      "outputs": [
        {
          "internalType": "bool",
          "name": "",
          "type": "bool"
        },
        {
          "internalType": "address",
          "name": "",
          "type": "address"
        }
      ],
      "stateMutability": "view",
      "type": "function"
    }
  ],
  "bytecode": "0x608060405234801561001057600080fd5b50610822806100206000396000f3fe608060405234801561001057600080fd5b50600436106100885760003560e01c80639507d39a1161005b5780639507d39a14610132578063c051a3a61461016b578063c34052e0146101e2578063e0886f901461021357610088565b80631f7b6d321461008d5780632f30c6f6146100a75780634cc82215146100d5578063871394d9146100f2575b600080fd5b610095610251565b60408051918252519081900360200190f35b6100d3600480360360408110156100bd57600080fd5b50803590602001356001600160a01b0316610262565b005b6100d3600480360360208110156100eb57600080fd5b50356102ae565b61010f6004803603602081101561010857600080fd5b50356102f8565b6040805192151583526001600160a01b0390911660208301528051918290030190f35b61014f6004803603602081101561014857600080fd5b503561030f565b604080516001600160a01b039092168252519081900360200190f35b61014f6004803603604081101561018157600080fd5b813591908101906040810160208201356401000000008111156101a357600080fd5b8201836020820111156101b557600080fd5b803590602001918460018302840111640100000000831117156101d757600080fd5b509092509050610322565b6101ff600480360360208110156101f857600080fd5b5035610373565b604080519115158252519081900360200190f35b6102306004803603602081101561022957600080fd5b5035610380565b604080519283526001600160a01b0390911660208301528051918290030190f35b600061025d600161038e565b905090565b600061027060018484610399565b60408051821515815290519192507fed9840e0775590557ad736875d96c95cf1458b766335f74339951a32c82a9e33919081900360200190a1505050565b60006102bb6001836103af565b60408051821515815290519192507fed9840e0775590557ad736875d96c95cf1458b766335f74339951a32c82a9e33919081900360200190a15050565b6000806103066001846103bb565b91509150915091565b600061031c6001836103d9565b92915050565b60006103698484848080601f016020809104026020016040519081016040528093929190818152602001838380828437600092019190915250600194939250506103e59050565b90505b9392505050565b600061031c6001836103f2565b6000806103066001846103fe565b600061031c8261040d565b600061036984846001600160a01b038516610411565b600061036c83836104a8565b60008080806103ca8686610586565b909450925050505b9250929050565b600061036c83836105dd565b600061036984848461066d565b600061036c8383610737565b60008080806103ca868661074f565b5490565b60008281526001840160205260408120548061047657505060408051808201825283815260208082018481528654600181810189556000898152848120955160029093029095019182559151908201558654868452818801909252929091205561036c565b8285600001600183038154811061048957fe5b906000526020600020906002020160010181905550600091505061036c565b6000818152600183016020526040812054801561057c57835460001980830191908101906000908790839081106104db57fe5b90600052602060002090600202019050808760000184815481106104fb57fe5b60009182526020808320845460029093020191825560019384015491840191909155835482528983019052604090209084019055865487908061053a57fe5b600082815260208082206002600019909401938402018281556001908101839055929093558881528982019092526040822091909155945061031c9350505050565b600091505061031c565b60008181526001830160205260408120548190806105ab5750600091508190506103d2565b60018560000160018303815481106105bf57fe5b90600052602060002090600202016001015492509250509250929050565b600081815260018301602052604081205480610640576040805162461bcd60e51b815260206004820152601e60248201527f456e756d657261626c654d61703a206e6f6e6578697374656e74206b65790000604482015290519081900360640190fd5b83600001600182038154811061065257fe5b90600052602060002090600202016001015491505092915050565b600082815260018401602052604081205482816107085760405162461bcd60e51b81526004018080602001828103825283818151815260200191508051906020019080838360005b838110156106cd5781810151838201526020016106b5565b50505050905090810190601f1680156106fa5780820380516001836020036101000a031916815260200191505b509250505060405180910390fd5b5084600001600182038154811061071b57fe5b9060005260206000209060020201600101549150509392505050565b60009081526001919091016020526040902054151590565b8154600090819083106107935760405162461bcd60e51b81526004018080602001828103825260228152602001806107cb6022913960400191505060405180910390fd5b60008460000184815481106107a457fe5b90600052602060002090600202019050806000015481600101549250925050925092905056fe456e756d657261626c654d61703a20696e646578206f7574206f6620626f756e6473a26469706673582212205d7cfd79f6caa65ab32caa004b3c218a0e5e0e3e7fb38522bc03b19eca6feafc64736f6c634300060c0033",
  "linkReferences": {},
  "deployedLinkReferences": {}
}